:100000000C94100E0C94380E0C94380E0C94380E80
:100010000C94380E0C94380E0C94380E0C94380E48
:100020000C94380E0C94380E0C94D72A0C94822918
:100030000C94380E0C94380E0C94380E0C94380E28
:100040000C94380E0C94380E0C94380E0C94380E18
:100050000C943C1E0C9477220C94380E0C94892B33
:100060000C94380E0C941E250C9461250C94380EBB
:100070000C94380E0C9441200C94380E0C94380ECD
:100080000C94380E0C94380E0C94380E0C94380ED8
:100090000C948F210C94380E0C94380E0C94380E5E
:1000A0000C94380E0C94380E0C94380EF4156B1614
:1000B0003C161F1694169416E6159416E61594161B
:1000C000E615E615E6159416E615E615C122C422D6
:1000D000B722BB22E522E522E522C822CC22D0228B
:1000E000D622DA22E522E02207634236B79BD8A760
:1000F0001A39685618AEBAAB558C1D3CB7CC57634D
:10010000BD6DEDFD753EF6177231BF000000803FFA
:1001100008000000BE922449123EABAAAA2ABECD16
:10012000CCCC4C3E00000080BEABAAAAAA3E000088
:100130000000BF000000803F000000000008417880
:10014000D3BB4387D1133D190E3CC3BD4282AD2BB7
:100150003E68EC8276BED98FE1A93E4C80EFFFBEAF
:1001600001C4FF7F3F0000000000000102040507FA
:1001700008090B0C0E0F101213151617191A1B1D58
:100180001E20212224252628292A2C2D2E2F3132EB
:1001900033353637383A3B3C3D3E40414243444597
:1001A0004647494A4B4C4D4E4F5051525354555669
:1001B000575859595A5B5C5D5E5E5F60616262636D
:1001C000646465666667686869696A6A6B6B6C6CAB
:1001D0006D6D6E6E6F6F6F70707070717171717226
:1001E00072727272727273737373737373737372E6
:1001F00072727272727271717171707070706F6FF1
:100200006F6E6E6D6D6C6C6B6B6A6A69696868673E
:10021000666665646463626261605F5E5E5D5C5BCE
:100220005A59595857565554535251504F4E4D4C98
:100230004B4A4947464544434241403E3D3C3B3A98
:10024000383736353332312F2E2D2C2A29282625C2
:10025000242221201E1D1C1A191716151312100F07
:100260000E0C0B0908070504020100FEFDFBFAF85D
:10027000F7F6F4F3F1F0EFEDECEAE9E8E6E5E4E2B5
:10028000E1DFDEDDDBDAD9D7D6D5D3D2D1D0CECD02
:10029000CCCAC9C8C7C5C4C3C2C1BFBEBDBCBBBA36
:1002A000B9B8B6B5B4B3B2B1B0AFAEADACABAAA944
:1002B000A8A7A6A6A5A4A3A2A1A1A09F9E9D9D9C20
:1002C0009B9B9A99999897979696959594949393C2
:1002D000929291919090908F8F8F8F8E8E8E8E8D27
:1002E0008D8D8D8D8D8D8C8C8C8C8C8C8C8C8C8C48
:1002F0008D8D8D8D8D8D8E8E8E8E8F8F8F8F90901C
:1003000090919192929393949495959696979798AD
:1003100099999A9B9B9C9D9D9E9FA0A1A1A2A3A4FD
:10032000A5A6A6A7A8A9AAABACADAEAFB0B1B2B313
:10033000B4B5B6B8B9BABBBCBDBEC0C1C2C3C4C5F2
:10034000C7C8C9CACCCDCED0D1D2D3D5D6D7D9DAA9
:10035000DBDDDEDFE1E2E4E5E6E8E9EAECEDEFF043
:10036000F1F3F4F6F7F8FAFBFDFE174466777870C0
:10037000655E5E63696D6D6A65626265686B6B6917
:1003800066646466686A6A686665656668696968FD
:1003900066656566686969686665656668696968ED
:1003A00066666666686868686666666668686868DD
:1003B00067666666686868686766666767686867CC
:1003C00067666667676868676766666767686867BD
:1003D00067666667676868676766666767686867AD
:1003E000676666676768686767666667676868679D
:1003F000676666676768686767666667676868678D
:10040000676666676768686767666667676868677C
:10041000676666676768686767666667686868686A
:10042000676666676868686866666666686868685A
:10043000666666666869696866656566686969684A
:10044000666565666869696866656566686A6A683A
:1004500066646466696B6B68656262656A6D6D6926
:10046000635E5E65707877664417EAC5ADA2A1A7A2
:10047000ADB2B2AFABA8A8AAADAFAFADABA9A9ABB7
:10048000ADAEAEADABAAAAABACADADADABAAAAABAF
:10049000ACADADACABABABABACADADACABABABABA0
:1004A000ACADADACACABABABACADADACACABABAC8D
:1004B000ACADADACACABABACACADADACACABABAC7C
:1004C000ACADADACACABABACACADADACACABABAC6C
:1004D000ACADADACACABABACACADACACACABABAC5D
:1004E000ACACACACACABABACACACACACACABABAC50
:1004F000ACACACACACABABACACACACACACABABAC40
:10050000ACADADACACABABACACADADACACABABAC2B
:10051000ACADADACACABABACACADADACACABABAC1B
:10052000ACADADACACABABACACADADACABABABAC0C
:10053000ACADADACABABABABACADADACABABABABFF
:10054000ACADADACABAAAAABADADADACABAAAAABF2
:10055000ADAEAEADABA9A9ABADAFAFADAAA8A8ABE0
:10056000AFB2B2ADA7A1A2ADC5EA00000000010183
:10057000010102020202030303030404040404054C
:1005800005050506060607070707080808080909FC
:1005900009090A0A0A0A0B0B0B0B0B0C0C0C0D0DAC
:1005A0000D0D0E0E0E0E0F0F0F0F1010101011115B
:1005B000111111121212121313131314141414150F
:1005C00015151516161616171717181818181919BD
:1005D00019191A1A1A1A1B1B1B1B1C1C1C1C1D1D6B
:1005E0001D1D1E1E1E1E1F1F1F1F2020202020211C
:1005F00021202222222223232323242424242525CC
:10060000252526262626272727272828282828297B
:100610002929292A2A2A2A2B2B2B2C2C2C2C2D2D2C
:100620002D2D2E2E2E2E2F2F2F2F303030303131DA
:10063000313131323232333333333434343434358C
:10064000353536363636363737373838383838393C
:1006500039393A3A3A3A3B3B3B3B3C3C3C3C3C3DEB
:100660003D3D3E3E3E3E3E3F3F3F3F40404041419C
:10067000414141424242424343434444444445454C
:1006800045454646464647474747484848484949FA
:100690004949494A4A4A4A4B4B4B4C4C4C4C4D4DAC
:1006A0004D4D4D4E4E4E4E4F4F4F5050505051515C
:1006B000515151525252535353535454545455550B
:1006C00055555556565656575757585858585859BD
:1006D00059595A5A5A5A5B5B5B5B5C5C5C5C5C5D6B
:1006E0005D5D5E5E5E5E5F5F5F5F5F60606061611B
:1006F00061616262626263636363636464646565CB
:10070000656565666666666767676768686869697C
:100710006969696A6A6A6A6B6B6B6C6C6C6C6D6D2B
:100720006D6D6E6E6E6E6F6F6F6F707070707071DA
:10073000717171727272727373737374747474758D
:10074000757575767676777777777878787878793B
:1007500079797A7A7A7A7B7B7B7B7C7C7C7C7D7DE9
:100760007D7D7D7E7E7E7F7F7F7F7F7F7F7E7E7EA5
:100770007E7E7D7D7D7D7C7C7C7C7B7B7B7B7A7AB9
:100780007A7A7979797978787878777777777676E9
:100790007676757575757474747473737373727219
:1007A0007271717171707070706F6F6F6F6E6E6E4D
:1007B0006E6D6D6D6D6D6C6C6C6C6B6B6B6B6A6A7A
:1007C0006A696969696868686868676767666666AC
:1007D00066666565656564646463636363626262DB
:1007E000626161616160606060605F5F5F5E5E5E0C
:1007F0005E5D5D5D5D5C5C5C5C5B5B5B5B5B5A5A3C
:100800005A5A595959595858585857575757565668
:100810005656555555545454545453535353525299
:100820005251515151505050504F4F4F4F4E4E4ECC
:100830004E4E4D4D4D4D4C4C4C4C4B4B4B4A4A4AF9
:100840004A4A494949494848484847474747464628
:100850004645454545454444444443434343424259
:100860004241414141414040403F3F3F3F3F3E3E8A
:100870003E3E3D3D3D3C3C3C3C3C3B3B3B3B3A3AB9
:100880003A3A3939393838383838373737373636E9
:10089000363635353535343434333333333232321A
:1008A0003232313131313030302F2F2F2F2E2E2E4A
:1008B0002E2E2D2D2D2D2C2C2C2B2B2B2B2A2A2A7A
:1008C0002A292929292928282828272727262626AA
:1008D00026262525252424242424232323222222DA
:1008E000222121202121202020201F1F1F1F1E1E0A
:1008F0001E1E1D1D1D1D1C1C1C1B1B1B1B1B1A1A39
:100900001A19191919191818181817171717161668
:100910001616151515151414141313131313121298
:10092000121211111110101010100F0F0F0F0E0EC8
:100930000E0E0D0D0D0D0C0C0C0C0B0B0B0B0A0AF7
:100940000A0A090909090808080807070706060628
:100950000605050505050404040403030303020258
:1009600002010101010100000000FFFFFFFEFEFE89
:10097000FEFDFDFDFDFCFCFCFCFBFBFBFBFAFAFABB
:10098000FAFAF9F9F9F8F8F8F8F8F7F7F7F7F6F6E8
:10099000F6F5F5F5F5F4F4F4F4F4F3F3F3F3F2F219
:1009A000F2F1F1F1F1F1F0F0F0F0EFEFEFEEEEEE49
:1009B000EEEDEDEDEDEDECECECEBEBEBEBEBEAEA79
:1009C000EAEAE9E9E9E9E8E8E8E7E7E7E7E7E6E6A8
:1009D000E6E6E5E5E5E4E4E4E4E3E3E3E3E3E2E2D9
:1009E000E2E1E1E1E1E0E0E0E0E0DFDFDFDFDEDE09
:1009F000DEDDDDDDDDDCDCDCDCDCDBDBDBDADADA3A
:100A0000DAD9D9D9D9D8D8D8D8D8D7D7D7D7D6D668
:100A1000D6D5D5D5D5D4D4D4D4D3D3D3D3D2D2D29A
:100A2000D2D1D1D1D1D0D0D0D0D0CFCFCFCFCECEC8
:100A3000CECECDCDCDCDCCCCCCCBCBCBCBCACACAF8
:100A4000CAC9C9C9C9C8C8C8C8C7C7C7C7C6C6C62A
:100A5000C6C5C5C5C5C4C4C4C4C4C3C3C3C3C2C258
:100A6000C2C1C1C1C1C1C0C0C0C0BFBFBFBFBEBE87
:100A7000BEBDBDBDBDBDBCBCBCBCBBBBBBBBBABAB7
:100A8000BABAB9B9B9B9B8B8B8B8B7B7B7B7B6B6E6
:100A9000B6B6B5B5B5B5B4B4B4B4B3B3B3B3B2B216
:100AA000B2B2B1B1B1B1B0B0B0B0AFAFAFAEAEAE47
:100AB000AEAEADADADADACACACABABABABAAAAAA78
:100AC000AAA9A9A9A9A8A8A8A8A7A7A7A7A7A6A6A9
:100AD000A6A5A5A5A5A5A4A4A4A3A3A3A3A2A2A2D9
:100AE000A2A1A1A1A1A1A0A0A0A09F9F9F9F9E9E07
:100AF0009E9E9D9D9D9D9C9C9C9C9B9B9B9B9A9A36
:100B00009A9A999999989898989797979797969667
:100B10009696959595949494949393939393929297
:100B20009292919191919090908F8F8F8F8F8E8EC6
:100B30008E8E8D8D8D8C8C8C8C8B8B8B8B8A8A8AF8
:100B40008A89898989898888888887878786868627
:100B50008686858585858484848483838382828256
:100B6000828181818181808080808080808081817C
:100B70008181818282828383838383848484858547
:100B800085858686868687878787878888888889F7
:100B900089898A8A8A8A8A8B8B8B8C8C8C8C8D8DA6
:100BA0008D8D8D8E8E8E8E8F8F8F90909090919157
:100BB0009191929292929393939394949494959505
:100BC00095959696969697979797979898989999B6
:100BD00099999A9A9A9A9A9B9B9B9C9C9C9C9D9D66
:100BE0009D9D9E9E9E9E9F9F9F9F9FA0A0A0A1A116
:100BF000A1A1A1A2A2A2A2A3A3A3A4A4A4A4A4A5C8
:100C0000A5A5A5A6A6A6A7A7A7A7A7A8A8A8A9A976
:100C1000A9A9AAAAAAAAAAABABABACACACACACAD26
:100C2000ADADAEAEAEAEAEAFAFAFAFB0B0B0B1B1D6
:100C3000B1B1B2B2B2B2B2B3B3B3B3B4B4B4B5B586
:100C4000B5B5B6B6B6B6B6B7B7B7B7B8B8B8B9B936
:100C5000B9B9BABABABABBBBBBBBBCBCBCBCBDBDE4
:100C6000BDBDBEBEBEBEBEBFBFBFC0C0C0C0C0C196
:100C7000C1C1C2C2C2C2C2C3C3C3C3C4C4C4C5C546
:100C8000C5C5C6C6C6C6C6C7C7C7C7C8C8C8C8C9F7
:100C9000C9C9C9CACACACBCBCBCBCBCCCCCCCCCDA7
:100CA000CDCDCDCECECECFCFCFCFCFD0D0D0D1D156
:100CB000D1D1D2D2D2D2D2D3D3D3D3D4D4D4D4D507
:100CC000D5D5D5D6D6D6D7D7D7D7D8D8D8D8D8D9B6
:100CD000D9D9D9DADADADBDBDBDBDBDCDCDCDCDD67
:100CE000DDDDDEDEDEDEDEDFDFDFE0E0E0E0E1E115
:100CF000E1E1E1E2E2E2E3E3E3E3E4E4E4E4E4E5C6
:100D0000E5E5E5E6E6E6E6E7E7E7E8E8E8E8E9E975
:100D1000E9E9E9EAEAEAEBEBEBEBECECECECEDED24
:100D2000EDEDEDEEEEEEEFEFEFEFF0F0F0F0F1F1D4
:100D3000F1F1F2F2F2F2F3F3F3F3F3F4F4F4F5F584
:100D4000F5F5F5F6F6F6F7F7F7F7F8F8F8F8F9F934
:100D5000F9F9FAFAFAFAFBFBFBFBFBFCFCFCFDFDE4
:100D6000FDFDFEFEFEFEFFFFFFFF80808080808095
:100D7000808081818181818181818282828282825F
:100D80008282828383838383838384848484848430
:100D90008484848585858585858586868686868600
:100DA00086868787878787878787888888888888CF
:100DB000888889898989898989898A8A8A8A8A8A9F
:100DC0008A8A8A8B8B8B8B8B8B8B8B8C8C8C8C8C71
:100DD0008C8C8D8D8D8D8D8D8D8D8D8E8E8E8E8E40
:100DE0008E8E8F8F8F8F8F8F8F8F9090909090900F
:100DF00090909191919191919191929292929292DF
:100E000092929393939393939393949494949494AE
:100E1000949494959595959595959696969696967F
:100E20009696969797979797979797989898989850
:100E300098989899999999999999999A9A9A9A9A20
:100E40009A9A9B9B9B9B9B9B9B9B9B9C9C9C9C9CEF
:100E50009C9C9C9D9D9D9D9D9D9D9E9E9E9E9E9EBF
:100E60009E9E9F9F9F9F9F9F9F9F9FA0A0A0A0A08F
:100E7000A0A0A1A1A1A1A1A1A1A1A2A2A2A2A2A25E
:100E8000A2A2A3A3A3A3A3A3A3A3A4A4A4A4A4A42E
:100E9000A4A4A4A5A5A5A5A5A5A5A6A6A6A6A6A6FF
:100EA000A6A6A7A7A7A7A7A7A7A7A8A8A8A8A8A8CE
:100EB000A8A8A8A9A9A9A9A9A9A9A9AAAAAAAAAAA0
:100EC000AAAAABABABABABABABABACACACACACAC6E
:100ED000ACACADADADADADADADADAEAEAEAEAEAE3E
:100EE000AEAEAFAFAFAFAFAFAFAFAFB0B0B0B0B00F
:100EF000B0B0B0B1B1B1B1B1B1B1B2B2B2B2B2B2DF
:100F0000B2B2B3B3B3B3B3B3B3B3B4B4B4B4B4B4AD
:100F1000B4B4B5B5B5B5B5B5B5B5B6B6B6B6B6B67D
:100F2000B6B6B7B7B7B7B7B7B7B7B8B8B8B8B8B84D
:100F3000B8B8B8B9B9B9B9B9B9B9BABABABABABA1E
:100F4000BABABBBBBBBBBBBBBBBBBCBCBCBCBCBCED
:100F5000BCBCBDBDBDBDBDBDBDBDBDBEBEBEBEBEBE
:100F6000BEBEBFBFBFBFBFBFBFBFC0C0C0C0C0C08D
:100F7000C0C0C1C1C1C1C1C1C1C1C1C2C2C2C2C25E
:100F8000C2C2C2C3C3C3C3C3C3C3C4C4C4C4C4C42E
:100F9000C4C4C4C5C5C5C5C5C5C5C5C6C6C6C6C6FF
:100FA000C6C6C7C7C7C7C7C7C7C7C8C8C8C8C8C8CD
:100FB000C8C8C9C9C9C9C9C9C9C9CACACACACACA9D
:100FC000CACACBCBCBCBCBCBCBCBCBCCCCCCCCCC6E
:100FD000CCCCCCCDCDCDCDCDCDCDCDCECECECECE3F
:100FE000CECECFCFCFCFCFCFCFCFD0D0D0D0D0D00D
:100FF000D0D0D1D1D1D1D1D1D1D1D2D2D2D2D2D2DD
:10100000D2D2D2D3D3D3D3D3D3D3D4D4D4D4D4D4AD
:10101000D4D4D4D5D5D5D5D5D5D5D6D6D6D6D6D67D
:10102000D6D6D6D7D7D7D7D7D7D7D8D8D8D8D8D84D
:10103000D8D8D9D9D9D9D9D9D9D9D9DADADADADA1D
:10104000DADADADBDBDBDBDBDBDBDCDCDCDCDCDCED
:10105000DCDCDCDDDDDDDDDDDDDDDDDEDEDEDEDEBE
:10106000DEDEDFDFDFDFDFDFDFDFDFE0E0E0E0E08D
:10107000E0E0E1E1E1E1E1E1E1E1E2E2E2E2E2E25C
:10108000E2E2E2E3E3E3E3E3E3E3E4E4E4E4E4E42D
:10109000E4E4E5E5E5E5E5E5E5E5E6E6E6E6E6E6FC
:1010A000E6E6E7E7E7E7E7E7E7E7E7E8E8E8E8E8CD
:1010B000E8E8E9E9E9E9E9E9E9E9EAEAEAEAEAEA9C
:1010C000EAEAEBEBEBEBEBEBEBEBECECECECECEC6C
:1010D000ECECECEDEDEDEDEDEDEDEDEEEEEEEEEE3E
:1010E000EEEEEEEFEFEFEFEFEFEFF0F0F0F0F0F00D
:1010F000F0F0F0F1F1F1F1F1F1F1F1F2F2F2F2F2DE
:10110000F2F2F3F3F3F3F3F3F3F3F4F4F4F4F4F4AB
:10111000F4F4F4F5F5F5F5F5F5F5F6F6F6F6F6F67C
:10112000F6F6F7F7F7F7F7F7F7F7F8F8F8F8F8F84B
:10113000F8F8F8F9F9F9F9F9F9F9F9FAFAFAFAFA1D
:10114000FAFAFBFBFBFBFBFBFBFBFCFCFCFCFCFCEB
:10115000FCFCFDFDFDFDFDFDFDFDFDFEFEFEFEFEBC
:10116000FEFEFFFFFFFFFFFFFFFF0000000000008B
:10117000000000010101010101010102020202025D
:10118000020203030303030303030404040404042B
:1011900004040505050505050505060606060606FB
:1011A00006060707070707070707070808080808CC
:1011B000080809090909090909090A0A0A0A0A0A9B
:1011C0000A0A0B0B0B0B0B0B0B0B0B0C0C0C0C0C6C
:1011D0000C0C0D0D0D0D0D0D0D0D0D0E0E0E0E0E3C
:1011E0000E0E0F0F0F0F0F0F0F0F0F10101010100C
:1011F00010101011111111111111121212121212DC
:1012000012121313131313131313141414141414AA
:10121000141415151515151515151516161616167B
:10122000161617171717171717171818181818184A
:1012300018181919191919191919191A1A1A1A1A1B
:101240001A1A1A1B1B1B1B1B1B1B1C1C1C1C1C1CEB
:101250001C1C1D1D1D1D1D1D1D1D1E1E1E1E1E1EBA
:101260001E1E1F1F1F1F1F1F1F1F1F20202020208B
:10127000202021212021212221212022222222225C
:10128000222223232323232323232424242424242A
:1012900024242425252525252525262626262626FB
:1012A00026262727272727272727282828282828CA
:1012B000282829292929292929292A2A2A2A2A2A9A
:1012C0002A2A2A2B2B2B2B2B2B2B2B2C2C2C2C2C6C
:1012D0002C2C2D2D2D2D2D2D2D2D2E2E2E2E2E2E3A
:1012E0002E2E2E2F2F2F2F2F2F2F2F30303030300C
:1012F00030303131313131313131323232323232DA
:1013000032323333333333333333333434343434AA
:101310003434353535353535353536363636363679
:10132000363636373737373737373738383838384B
:1013300038383939393939393939393A3A3A3A3A1A
:101340003A3A3A3B3B3B3B3B3B3B3C3C3C3C3C3CEA
:101350003C3C3D3D3D3D3D3D3D3D3E3E3E3E3E3EB9
:101360003E3E3F3F3F3F3F3F3F3F40404040404089
:101370004040414141414141414142424242424259
:101380004242434343434343434344444444444429
:1013900044444545454545454545464646464646F9
:1013A00046464647474747474747484848484848CA
:1013B000484849494949494949494A4A4A4A4A4A99
:1013C0004A4A4A4B4B4B4B4B4B4B4C4C4C4C4C4C6A
:1013D0004C4C4C4D4D4D4D4D4D4D4D4E4E4E4E4E3B
:1013E0004E4E4F4F4F4F4F4F4F4F50505050505009
:1013F00050505051515151515151525252525252DA
:1014000052525253535353535353545454545454A9
:101410005454545555555555555556565656565679
:101420005656565757575757575758585858585849
:1014300058585859595959595959595A5A5A5A5A1A
:101440005A5A5B5B5B5B5B5B5B5B5C5C5C5C5C5CE8
:101450005C5C5D5D5D5D5D5D5D5D5E5E5E5E5E5EB8
:101460005E5E5F5F5F5F5F5F5F5F60606060606088
:101470006060616161616161616161626262626259
:101480006262636363636363636363646464646429
:1014900064646565656565656565656666666666F9
:1014A00066666767676767676767686868686868C8
:1014B000686869696969696969696A6A6A6A6A6A98
:1014C0006A6A6B6B6B6B6B6B6B6B6C6C6C6C6C6C68
:1014D0006C6C6D6D6D6D6D6D6D6D6E6E6E6E6E6E38
:1014E0006E6E6F6F6F6F6F6F6F6F70707070707008
:1014F00070707171717171717171717272727272D9
:1015000072727373737373737373747474747474A7
:101510007474747575757575757575767676767679
:101520007676777777777777777777787878787848
:1015300078787879797979797979797A7A7A7A7A19
:101540007A7A7B7B7B7B7B7B7B7B7C7C7C7C7C7CE7
:101550007C7C7D7D7D7D7D7D7D7D7D7E7E7E7E7EB8
:101560007E7E7F7F7F7F7F7F7F7F80808080808087
:10157000808080808080808080808080808080816A
:101580008181818181818182828282828282838340
:101590008383838484848484858585858586868603
:1015A00086878787888888888989898A8A8A8A8BB2
:1015B0008B8B8C8C8C8D8D8E8E8E8F8F8F9090914F
:1015C00091919292939393949495959696969797DA
:1015D000989899999A9A9B9B9C9C9D9D9E9E9F9F53
:1015E000A0A0A1A1A2A2A3A3A4A4A5A6A6A7A7A8C0
:1015F000A8A9AAAAABABACACADAEAEAFB0B0B1B11E
:10160000B2B3B3B4B5B5B6B6B7B8B8B9BABABBBC6D
:10161000BCBDBEBEBFC0C0C1C2C2C3C4C5C5C6C7B3
:10162000C7C8C9C9CACBCCCCCDCECFCFD0D1D1D2EF
:10163000D3D4D4D5D6D7D7D8D9DADADBDCDDDDDE22
:10164000DFE0E0E1E2E3E3E4E5E6E7E7E8E9EAEA50
:10165000EBECEDEDEEEFF0F1F1F2F3F4F5F5F6F77A
:10166000F8F8F9FAFBFCFCFDFEFFFF0001020303A2
:10167000040506070708090A0A0B0C0D0E0E0F10C9
:101680001112121314151516171818191A1B1C1CF1
:101690001D1E1F1F2021222223242525262728281E
:1016A000292A2B2B2C2D2E2E2F3030313233333450
:1016B000353636373838393A3A3B3C3D3D3E3F3F88
:1016C0004041414243434445454647474849494ACA
:1016D0004A4B4C4C4D4E4E4F4F5051515253535418
:1016E000545555565757585859595A5B5B5C5C5D71
:1016F0005D5E5E5F5F6060616162626363646465DA
:10170000656666676768686969696A6A6B6B6C6C4D
:101710006C6D6D6E6E6E6F6F7070707171717272D4
:101720007373737474747575757576767677777769
:1017300077787878797979797A7A7A7A7A7B7B7B13
:101740007B7B7C7C7C7C7C7D7D7D7D7D7D7D7E7ED0
:101750007E7E7E7E7E7E7F7F7F7F7F7F7F7F7F7F9F
:101760007F7F7F7F7F7F7F7F7F7F7F7F7F7F7F7F89
:101770007F7F7F7F7F7F7F7F7F7F7F7F7F7F7F7E7A
:101780007E7E7E7E7E7E7E7D7D7D7D7D7D7D7C7C84
:101790007C7C7C7B7B7B7B7B7A7A7A7A7A797979A1
:1017A00079787878777777777676767575757574D2
:1017B000747473737372727171717070706F6F6E15
:1017C0006E6E6D6D6C6C6C6B6B6A6A69696968686A
:1017D00067676666656564646363626261616060D1
:1017E0005F5F5E5E5D5D5C5C5B5B5A595958585744
:1017F0005756555554545353525151504F4F4E4EC6
:101800004D4C4C4B4A4A4949484747464545444355
:1018100043424141403F3F3E3D3D3C3B3A3A3938EF
:101820003837363635343333323130302F2E2E2D93
:101830002C2B2B2A29282827262525242322222140
:10184000201F1F1E1D1C1C1B1A19181817161515F2
:101850001413121211100F0E0E0D0C0B0A0A0908A8
:1018600007070605040303020100FFFFFEFDFCFC61
:10187000FBFAF9F8F8F7F6F5F5F4F3F2F1F1F0EF19
:10188000EEEDEDECEBEAEAE9E8E7E7E6E5E4E3E3D1
:10189000E2E1E0E0DFDEDDDDDCDBDADAD9D8D7D784
:1018A000D6D5D4D4D3D2D1D1D0CFCFCECDCCCCCB32
:1018B000CAC9C9C8C7C7C6C5C5C4C3C2C2C1C0C0DA
:1018C000BFBEBEBDBCBCBBBABAB9B8B8B7B6B6B578
:1018D000B5B4B3B3B2B1B1B0B0AFAEAEADACACAB0A
:1018E000ABAAAAA9A8A8A7A7A6A6A5A4A4A3A3A291
:1018F000A2A1A1A0A09F9F9E9E9D9D9C9C9B9B9A08
:101900009A99999898979796969695959494939373
:1019100093929291919190908F8F8F8E8E8E8D8DCC
:101920008C8C8C8B8B8B8A8A8A8A89898988888817
:10193000888787878686868685858585858484844D
:101940008484838383838382828282828282818170
:101950008181818181818080808080808080808081
:101960008080808080808080808001000002000074
:101970000300040005070605040100080A0B0C0D0E
:10198000090000000200080E0000030401000B0023
:101990000000000000000000000000000000000047
:1019A000040802011040804010204080408008025E
:1019B00004018040201002011080102040402004CB
:1019C00004040404030405020202020403020202E6
:1019D00002060606060606040402020204040000CB
:1019E00000002300260029002C002F00000000002A
:1019F000250028002B002E003100000000002400EC
:101A000027002A002D003000080B0002020201000E
:101A10000904000001020200000524001001052451
:101A200001010104240206052406000107058103C3
:101A300010004009040100020A000000070502022C
:101A40004000000705830240000009040400020171
:101A50000300000724010001220006240201010006
:101A60000924030102010301000624020203000904
:101A700024030204010101000705050240000005DE
:101A8000250101010705860240000005250101022C
:101A900009040300000101000009240100010900FC
:101AA000010400C18081C180811201000202000096
:101AB00040412336800001010200011201000200B2
:101AC0000000404123368000010102000120034153
:101AD0000072006400750069006E006F0020004C09
:101AE000004C004300200020002000200022034181
:101AF0000072006400750069006E006F0020004CE9
:101B00000065006F006E006100720064006F0004E9
:101B100003090400000000000000002A2B28000038
:101B200000000000000000000000000000000000B5
:101B30000000002C9EB4A0A1A2A434A6A7A5AE3696
:101B40002D3738271E1F20212223242526B333B604
:101B50002EB7B89F8485868788898A8B8C8D8E8FD7
:101B6000909192939495969798999A9B9C9D2F31DA
:101B700030A3AD350405060708090A0B0C0D0E0F3E
:101B8000101112131415161718191A1B1C1DAFB1BA
:101B9000B0B50009040200010300000009210101A1
:101BA00000012265000705840340000105010902C8
:101BB000A1010901A10085010509190129031500E9
:101BC00025019503750181029501750581030501C4
:101BD0000930093109381581257F7508950381067B
:101BE000C0C005010906A1018502050719E029E722
:101BF000150025017501950881029501750881037D
:101C000095067508150025650507190029658100E9
:101C1000C000B0186B1F732075241D268D27AA2DB8
:101C200011241FBECFEFDAE0DEBFCDBF12E0A0E08F
:101C3000B1E0E0E0F4E602C005900D92A239B107F0
:101C4000D9F727E0A2E9B2E001C01D92A83DB20792
:101C5000E1F71CE1C0E2DCE104C02297FE010E9432
:101C6000A731C231D107C9F70E9473260C94FE3107
:101C70000C940000089589EC96E09093A80380935B
:101C8000A7031092F3021092F2021092F502109242
:101C9000F4021092F7021092F6021092F9021092DA
:101CA000F8021092FB021092FA021092FD021092BA
:101CB000FC021092FF021092FE0210920103109299
:101CC0000003109203031092020310920503109276
:101CD0000403109207031092060310920903109256
:101CE000080310920B0310920A0310920D03109236
:101CF0000C0310920F0310920E0310921103109216
:101D000010031092130310921203109215031092F5
:101D100014038AE695E19093F1028093F002909388
:101D2000E7028093E6028AE691E09093DD028093D9
:101D3000DC0280E890E090939C0280939B021092DA
:101D4000A10281E08093A90282E08093B10283E046
:101D50008093B90284E08093C1021092C00208957A
:101D6000DC01ED91FC910190F081E02D0994DC0102
:101D7000ED91FC910190F081E02D0994CF93DF93D8
:101D8000E3EEF3E0C6E0D1E0AEE0B1E021E0819126
:101D90009191899399932D9383E0EB3EF807B9F7DE
:101DA000DF91CF9108958F929F92AF92BF92CF9281
:101DB000DF92EF92FF920F931F93CF93DF932091C7
:101DC000C3033091C4034091C5035091C603809171
:101DD000E2029091E302A091E402B091E502C0908A
:101DE000DE02D090DF02E090E002F090E1028C0D84
:101DF0009D1DAE1DBF1D8093DE029093DF02A09358
:101E0000E002B093E102CD019370E091E602F0911F
:101E1000E702E80FF91FA491BB27A7FDB0950E9428
:101E2000CC312091D302222349F12FB7F89480902E
:101E3000CF029090D002A090D102B090D202C09078
:101E4000CB02D090CC02E090CD02F090CE02C80C34
:101E5000D91CEA1CFB1CC092CB02D092CC02E092AF
:101E6000CD02F092CE022FBFC090CB02D090CC0218
:101E7000E090CD02F090CE025E2D01C050E00091C6
:101E8000EC021091ED022091EE023091EF02C09031
:101E9000E802D090E902E090EA02F090EB020C0D2B
:101EA0001D1D2E1D3F1D0093E8021093E902209393
:101EB000EA023093EB024B015C018AE0880C991C2A
:101EC000AA1CBB1C8A95D1F7800E911EA21EB31EC0
:101ED000C5019370E091F002F091F102E80FF91F53
:101EE0004491F09194028091970290919802C09150
:101EF0009902D0919A02DC01AC1BBD0B2091950296
:101F0000309196026C01EE24D7FCE094FE2C450340
:101F100040011124892C990C99088594881A990AF2
:101F2000AA2497FCA094BA2C0E94BA31BB2797FD33
:101F3000BA95A92F982F872F880E991EAA1EBB1E0F
:101F4000AF2FB0E0A50194010E94C131BB2797FDDE
:101F5000BA95A92F982F872FC80ED91EEA1EFB1EEF
:101F6000D0929802C0929702CC1ADD0AFC9DC00163
:101F7000FD9D900D1124892F990F990B8C0F9D1F9A
:101F800090939A0280939902992787FD9095DF910B
:101F9000CF911F910F91FF90EF90DF90CF90BF9066
:101FA000AF909F908F9008950C94151ECF93C82FDB
:101FB0008091CD03811106C06C2F8AE00E941F23FF
:101FC000C093FD03CF910895809134018150809397
:101FD000F8031092F70308959091F803E92FF0E0C9
:101FE000E75CFE4F8091FC038083809134018F5F1A
:101FF000809334019F5F9093F8030895EF92FF92CE
:102000000F931F93CF93DF9388E790E00E94E8310E
:102010008093340109E311E0C0E0D0E0E82EF12C18
:10202000CE15DF0544F4CE010E94E831F80181931A
:102030008F012196F5CFDF91CF911F910F91FF90E6
:10204000EF900895CF92DF92EF92FF92CF93DF93BC
:1020500084E690E00E94E8318B3711F40E94FE0F75
:10206000C1E2D1E08881229662E00E94E62281E00E
:10207000CB32D807B9F762E080E10E94E622CBE2DA
:10208000D1E08881229661E00E94E62281E0C5339A
:10209000D807B9F78AE492E19093F5028093F402AD
:1020A0008FE692E19093F3028093F2028AE39EE03E
:1020B00090930B0380930A0342E15AE760E070E0DB
:1020C0008091A7039091A8030E949C251092190368
:1020D00010921803109217031092200310921F03FE
:1020E00010921E0310921D031092A6031092230358
:1020F00010922203109221031092240310922503C0
:1021000080911603817082608160809316038FEF47
:102110008093A80280EF8093B0028093B80281E0A0
:102120008093C0021092C8028CE090E09093A302CA
:102130008093A20240919B0250919C029A01ACE0D4
:10214000B0E00E94AB316093A4027093A50280932B
:10215000A6029093A702E9E1F0E0F093AB02E093CE
:10216000AA02A9E1B0E00E94AB316B017C0160934F
:10217000AC027093AD028093AE029093AF028DEBF0
:102180009FE19093B3028093B202ADEBBFE10E9456
:10219000AB316093B4027093B5028093B602909312
:1021A000B702F093BB02E093BA02C092BC02D09295
:1021B000BD02E092BE02F092BF028FEF9FE19093CA
:1021C000C3028093C202AFEFBFE10E94AB316093C4
:1021D000C4027093C5028093C6029093C7022FB7C2
:1021E000F89480E090E8ABE1B0E08093EC0290934B
:1021F000ED02A093EE02B093EF022FBF80E890E0D3
:102200000E948B1E60E08EE10E94E62260E081E188
:102210000E94E622E091CC03F0E0EE0FFF1FE55DA7
:10222000FE4F61E080810E941F2388EC809393021F
:1022300084E68093940281E491E0909396028093E7
:1022400095022FB7F89480E090E0A4E0B0E080938E
:10225000D8029093D902A093DA02B093DB022FBF89
:10226000DF91CF91FF90EF90DF90CF900895CF93C3
:10227000DF93CBE2D1E08881229661E00E941F23A8
:1022800081E0C133D807B9F7DF91CF910895CF939B
:102290000E943711C0E060913401C61750F48C2FB2
:1022A00090E0FC01E75CFE4F60810E94F031CF5F5F
:1022B000F2CF88E790E00E94F0316BE784E690E08F
:1022C000CF910C94F031CF93DF93CBE2D1E08881B2
:1022D000229660E00E941F2381E0C133D807B9F73E
:1022E000DF91CF910895813081F028F08230B9F0EC
:1022F0008330F9F008958091DA03811103C08AE6F2
:1023000095E11DC08AE695E121C08091DA03811133
:1023100003C08AE695E013C08AE695E017C0809175
:10232000DA03811103C08AE69DE009C08AE69DE0D8
:102330000DC08091DA03811107C08AE693E0909383
:10234000F1028093F00208958AE693E09093E70209
:102350008093E60208951F93CF93DF93EC01CB01A6
:10236000BA011FB7F89420E030E040E854E40E943E
:102370006C2F20E030E040E858E30E946C2F20E012
:1023800030E040E857E40E946C2F0E948E2E6C8350
:102390007D838E839F831FBFDF91CF911F9108950F
:1023A000CF92DF92EF92FF920F931F93CF93DF9321
:1023B000EC018B011B821A82FB01818192819D833A
:1023C0008C83C8A8D9A8EAA8FBA86781862F90E0CB
:1023D000A0E0B0E0772766276C197D098E099F0978
:1023E00023813481458156810E9486312CAB3DABDF
:1023F0004EAB5FAB1FA70EA7DF91CF911F910F913F
:10240000FF90EF90DF90CF900895FC0122813381FF
:102410002F5F3F4F33832283448155812417350733
:1024200010F00C94D0110895CF93DF93C82F882318
:1024300071F1D1E0D093CE03682F70E080E090E09E
:102440000E94BA2E0E947A20AB01BC014093C803BF
:102450005093C9036093CA037093CB034093150153
:1024600050931601609317017093180188EE92E063
:102470000E94AB1161EA72E08BE992E00E94D011F8
:10248000D093D30281E00E94D60FC093C103DF91A5
:10249000CF910895CF93C62F642F8C2F0E941412D2
:1024A0008091CC03833049F48091D803882329F0AC
:1024B000C093FC03CF910C94EC0FCF910895109230
:1024C000CE039091C103891309C069EB72E08BE9D7
:1024D00092E00E94D01180E00C94D60F0895862FD0
:1024E000642F0C945F12CF93DF9390E0EC01C75CF4
:1024F000DE4F28812223B9F02091CE03222361F000
:10250000019760E170E00E945031875C9E4F60E06F
:10251000FC0180810E945F126FE788810E94141283
:1025200088818093A903DF91CF9108958091F8036A
:102530008F5F609134010E944431892F9093F8039A
:102540000C9473128091F7038F5F609139020E949F
:1025500044319093F703913011F40C9496128091CA
:102560003801891768F48091CE03882349F0E091FF
:10257000F803F0E0E75CFE4F60E080810C945F12AE
:1025800008958091F9039091FA0301969093FA03CC
:102590008093F9032091370130E02817390768F458
:1025A0008091CE03882349F0E091F803F0E0E75CE6
:1025B000FE4F60E080810E945F122091F90330910C
:1025C000FA0380913501909136018217930730F418
:1025D0000E9496121092FA031092F90308958091C6
:1025E000F60381110C94C1128AE00E945523892BB5
:1025F00069F08091CD03811109C08091FD038111A3
:1026000005C081E08093CD030C9496128AE00E946D
:102610005523892B29F48091CD03811102C008959F
:1026200008951092CD03E091F803F0E0E75CFE4FCF
:1026300060E080810C945F129091F503891304C0CF
:102640009091F3039923F9F0209133019CE0299FA5
:10265000902D11249093FB038093F50360E080910B
:10266000F4030E945F128091FB039091F503890FA0
:102670008093FC036FE70E9414128091F50380930E
:10268000F4031092F3030895CF93809192029091F6
:10269000D603882379F0911199C08091D8038111D4
:1026A00095C08091DA03811191C010929202CF916E
:1026B0000C9463118091D103992309F442C08111D4
:1026C00045C0C1E0C093D1038091D803882349F06D
:1026D0008091DA03882329F00E944711C093920267
:1026E00075C08091F60391E089278093F6038111EC
:1026F00016C0E091F803F0E0E75CFE4F6FE78081E1
:102700000E945F1280913501909136019093FA03F7
:102710008093F90360E08AE0CF910C94E62261E0B7
:102720008AE00E94E6228091340181508093F80370
:1027300080913501909136019093FA038093F903CB
:1027400045C0882319F01092D10340C09091D8035E
:102750008091D303992381F0811121C081E080937E
:10276000D3039091DA03911131C08093FE0310924C
:1027700034011092F8032AC0882389F08091340133
:1027800081508093F8031092FE036FE78091FC0361
:102790000E945F128091D8038093D30317C0909159
:1027A000DA038091D503992371F081110FC081E084
:1027B0008093D5038091FE03882341F01092FC039F
:1027C000CF910C94EC0F81111092D503CF91089505
:1027D000DC01D0968D919C91D197813F910509F4B0
:1027E000BCC03CF5803B910509F45FC07CF48039A6
:1027F0009105E9F1803A910509F474C0803891059A
:1028000009F0D8C0ED91FC91119770C0803D910501
:1028100009F478C02CF4803C910509F478C008953F
:10282000803E910509F446C0803F910509F47CC0C3
:1028300008958A3F910529F174F4833F910509F4C5
:10284000A4C00CF48FC0863F910509F4A7C0883F4F
:10285000910591F008958C3F9105E9F0BCF08E3F11
:102860009105F1F08F3F910509F49DC008951296EE
:10287000ED91FC9113973AC05896ED91FC915997C0
:1028800096C05A96ED91FC915B9791C05C96ED9144
:10289000FC915D978CC05E96ED91FC915F9787C02F
:1028A0009096ED91FC91919782C01696ED91FC91D6
:1028B00017971CC01C96ED91FC911D97309709F459
:1028C00079C0D3966C91D3976F7720E8629FB0015F
:1028D0001124D2968C91D2978F77682B70529F9645
:1028E0008C9109941496ED91FC911597309709F409
:1028F00061C0D3964C91D397D2966C91D2979F9604
:102900008C9109941A96ED91FC911B9704C018962E
:10291000ED91FC911997309709F44CC0D2966C91C7
:10292000D2979F968C9109941E96ED91FC911F97DA
:10293000309709F43FC0D3966C91D39770E0762F0F
:102940006627D2968C91D297682B6138710510F06A
:1029500060E870E0CD01C49609945096ED91FC9129
:10296000519717C05296ED91FC915397309711F102
:10297000D3968C91D3978F7720E8829FC001112442
:10298000D2962C912F77822B09945496ED91FC913D
:102990005597309779F0D2968C9109945696ED918F
:1029A000FC91579704C09296ED91FC9193973097C4
:1029B00009F0099408959C012F7C2038310569F0B5
:1029C000803D910551F0803E910539F021E0803C39
:1029D000910509F020E0822F089581E0089587FF96
:1029E0000DC09CE0980F923048F0893F39F08D3F40
:1029F00029F0803F08F4807F90E0089580E090E027
:102A000008950F931F93CF93DF938C01EB016D3FDC
:102A1000710554F46A3F710564F4663F710549F02D
:102A2000683F710599F405C0CB018E5F910902974B
:102A300068F4F801EB54FF4F80819181DC01ED9146
:102A4000FC910190F081E02D6C2F0995C63FD105D6
:102A500011F4F80116A2DF91CF911F910F91089503
:102A6000EF92FF920F931F93CF93DF93EB01F22E20
:102A70000150003118F46038710524F4DC01969699
:102A80001C9247C0613E7105B4F54F77E42E602B70
:102A9000FC0136A18C010B541F4F361759F066A369
:102AA000D8018D919C91DC01ED91FC910190F08118
:102AB000E02D0995F80180819181DC01ED91FC9177
:102AC0000190F081E02D6E2D0995CF7EC03CD1059F
:102AD00001F1F80180819181DC01ED91FC916F2D74
:102AE0006F770190F081E02DDF91CF911F910F91D1
:102AF000FF90EF9009949B01265F31092A30310540
:102B000040F4DF91CF911F910F91FF90EF900C94C3
:102B10000115DF91CF911F910F91FF90EF900895D4
:102B2000AF92BF92CF92DF92EF92FF920F931F93DB
:102B3000CF93DF931F92CDB7DEB75C01DC01949693
:102B40008C91949780FFF0C0982F9E7F09F4ECC081
:102B5000D0966D917C91D1979B01205831092136F7
:102B6000310548F59F960C919F9797969C9121E08F
:102B7000091711F0911120E0869590E082309105BF
:102B800039F08330910589F0019709F0CDC00FC06D
:102B9000222309F4C9C0D501D3962C91D397D2969C
:102BA0004C91C5010E943015BFC02111BDC0F50177
:102BB00023A942A9F6CFFB01E05FF109E031F1055D
:102BC00008F0B2C0EA5AFF4F0C94A531C5010F902E
:102BD000DF91CF911F910F91FF90EF90DF90CF90F9
:102BE000BF90AF900C94011585010C5C1F4FD5016F
:102BF000D3968C91D39790E0982F8827D2962C91DA
:102C0000822B8138910510F080E890E06C01C00EB5
:102C1000D11E7501B5EBEB0EF11C0C151D0509F469
:102C200081C0F70180819181D8016D918D01DC0116
:102C3000ED91FC910190F081E02D0995EECFD50149
:102C4000D296FC9085010B541F4FF8018081918131
:102C5000DC01ED91FC910190F081E02D63EF09958D
:102C60006F2D6F7770E0F801808191810E94B70E1F
:102C7000D50196961C9258C0F50103A9F0E80F9F64
:102C800080011124D501D2968C91082B7501B5EBEA
:102C9000EB0EF11CF70180819181DC01ED91FC913B
:102CA0000190F081E02D62EF0995B8016F777727E9
:102CB000F701808191810E94B00EB801660F672FE5
:102CC000661F770B71956F777727D7018D919C9150
:102CD0000E94B00E27C0D501D2968C918770B0E1CA
:102CE0008B9FC0011124F50123A92F70282B85018A
:102CF0000B541F4FD8018D919C91DC01ED91FC91FB
:102D00000190F081E02D61EF29830995F801808120
:102D10009181DC01ED91FC910190F081E02D298100
:102D2000622F0995F50116A20F90DF91CF911F91A7
:102D30000F91FF90EF90DF90CF90BF90AF900895EC
:102D4000AF92BF92DF92EF92FF920F931F93CF93B8
:102D5000DF931F92CDB7DEB75C01DC019796DC9064
:102D6000B0E1BD1508F4BFC18C010B541F4FF80131
:102D700080819181DC01ED91FC910480F581E02D51
:102D80000995892B09F4AFC1F80180819181DC019B
:102D9000ED91FC910680F781E02D09958C01F501FC
:102DA00085A596A5009709F0D3C000A7F5A08F2DA3
:102DB0000E94EF140E94DB14882379F007FD0DC0F8
:102DC000D5019896FC92989799960C93999781E0E3
:102DD00090E09E969C938E939D97F50110A5812F70
:102DE0000E94EF14813F910509F463C094F5803B84
:102DF000910509F466C06CF48039910509F461C04D
:102E0000803A910509F45DC08038910509F05FC0F2
:102E100058C0803D910509F44CC02CF4803C9105CC
:102E200009F447C054C0803E910509F44AC0803F70
:102E3000910509F04CC020E830E0D5019C963C9308
:102E40002E939B9795961C92959720EFD4962C9352
:102E500045C0883F9105A9F044F4833F910549F1AD
:102E600084F1863F910569F032C08A3F91057CF17B
:102E70008D3F910534F09C012E5F310922303105E0
:102E800030F5D501D1969C938E93D0979F961C9246
:102E90009F97D2961C92D297D3961C9281E0F5010F
:102EA000EC54FF4F8083F50116A615A614A613A6B1
:102EB0001CC122E030E0D5019C963C932E939B9759
:102EC0000DC023E030E0F50134A723A707C0F501CA
:102ED00016A615A614A613A615A205C1D5019D9682
:102EE0002D913C919E979B964D915C919C97BA0138
:102EF000615071092617370728F1D1969C938E935C
:102F0000D097812F8F708F5F9F968C939F97999604
:102F10008C919997D2968C93D2974330510531F486
:102F20009A968C919A97D3968C9302C0F50113AA26
:102F3000D5019E961C921E929D979C961C921E9265
:102F40009B972BC02F5F3F4FF50136A725A7CBC01E
:102F500007FF50C0980133272D3F31055CF42A3F0D
:102F6000310574F4273F3105F1F0283F310509F0B0
:102F700041C006C0A9014E5F510942305105D0F54C
:102F8000D501D1963C932E93D097D2961C92D2978E
:102F9000D3961C92D3979F961C9281E0F501EC5436
:102FA000FF4F8083A2C0F50124A9203F09F59C01B1
:102FB0002F5F3F4FE80FF91F47EF44AB80EF90E0E2
:102FC000D501D1969C938E93D097D2962C93D2977D
:102FD000D3963C93D3979F961C9281E0F501EC54D5
:102FE000FF4F8083F50116A615A614A613A673C07D
:102FF000D5011AC0F50120A5E80FF91F203F11F4F3
:1030000004AB01C000A7D5019B96ED90FC909C9766
:103010009701215031098217930708F45EC09896F2
:103020002C919897203F59F49E961C921E929D9742
:103030009C961C921E929B9795961C9254C0822F30
:1030400029830E94EF148C01F50191AB80AB0E94A3
:10305000DB142981882339F0822F8F708F5FD5018F
:103060009F968C9302C0F50117A6D50199968C9175
:103070009997D2968C93B3E0EB16F10421F4F50105
:1030800082A583AB03C0D501D3961C92F50116A689
:1030900015A614A613A681E0EC54FF4F8083003BD5
:1030A0001105A1F054F40039110581F0003A110521
:1030B00069F00038110571F409C0003D110531F0C7
:1030C000003E110519F0003C110521F4D50195963B
:1030D0002C930BC0F50115A208C00196D5019E9650
:1030E0009C938E939D9710E02FC0F50180A991A924
:1030F0008039910521F4F50183A9882301F1D501D7
:10310000D0968D919C91D197009799F08058910914
:103110008136910548F497968C9197979F969C914C
:10312000981711F0811105C0C5010E94E81311E044
:1031300001C010E06D2DC5010E94901505C080E80A
:1031400090E091AB80ABDBCF812F0F90DF91CF91DF
:103150001F910F91FF90EF90DF90BF90AF90089577
:103160000C943B0E1F93CF93DF931F92CDB7DEB726
:1031700083E797E00E948426181619060CF044C0D5
:1031800083E797E00E949626262F182F692F293073
:1031900089F4992391F00E9414128091CC0383301A
:1031A00039F78091D803882319F31093FC030E9408
:1031B000EC0FDECF283051F405C08091F603811169
:1031C000D7CF60E0812F0E945F12D2CF2F3091F4D1
:1031D0008091F603811104C079830E94A212798143
:1031E0007C3F31F6E091F803F0E0E75CFE4F60E0F1
:1031F0008081E9CF233009F0BBCF8091F6038111A4
:10320000B7CF0E94E40FB4CF0F90DF91CF911F9101
:1032100008954F925F926F927F92AF92BF92CF923A
:10322000DF92EF92FF920F931F93CF93DF930E9451
:10323000B21882EF92E00E94A016C9E1D1E093EEAD
:10324000C92E93E0D92E0EE011E026E0E22E21E017
:10325000F22E888122960E941220F601819391938A
:103260006F01F80120812223A1F0F70140815181F3
:103270002091040130910501BA01620F731F681794
:1032800079072CF0421B530B8417950714F4F801AF
:1032900010820F5F1F4FF2E0EF0EF11C41E0C132D0
:1032A000D407B9F6C1E2D1E006ED13E08881229699
:1032B0000E94552321E0892B09F020E0F801219399
:1032C0008F0180E10E94552321E0892B09F020E045
:1032D0002093D003F1E0CB32DF0741F79091D70381
:1032E0008091D203992341F1811129C00E94BE0E21
:1032F000E091CC03E150E093CC03F0E03196E37031
:10330000FF27EE0FFF1FE55DFE4F60E080810E940A
:103310001F23E091CC03E370E093CC03F0E0EE0FC9
:10332000FF1FE55DFE4F61E080810E941F238091B9
:10333000D7038093D20303C081111092D2039091DE
:10334000D9038091D403992329F1811126C00E94C9
:10335000BE0EE091CC03EF5FE093CC03F0E0EE0F04
:10336000FF1FE75DFE4F60E080810E941F23E09118
:10337000CC03E370E093CC03F0E0EE0FFF1FE55DBC
:10338000FE4F61E080810E941F238091D9038093CA
:10339000D40303C081111092D4039091D003809183
:1033A000CF039923C9F0811126C08091CC038330CB
:1033B00039F48091D803882319F00E94EC0F17C0CC
:1033C0008091F603811103C00E94961210C0809173
:1033D00034018093F8030BC0882369F08091FE03C9
:1033E000811105C060E08091A9030E945F12809165
:1033F000D0038093CF032091E3033091E4038091C5
:10340000DB039091DC032817390709F4B9C08091D8
:103410000E018111B5C08091CC038130B1F038F03C
:10342000823009F45CC0833009F477C0A1C0C901BF
:10343000AA2797FDA095BA2F8093C3039093C40346
:10344000A093C503B093C60393C080E094E0821BB1
:10345000930BC5E0880F991FCA95E1F7AA2797FD3E
:10346000A095BA2F8093AE039093AF03A093B003BF
:10347000B093B103B901882777FD8095982F0E94FA
:10348000BC2E6093B9037093BA038093BB039093EF
:10349000BC03CFB7F89420E030E048E452E40E9447
:1034A000212E20E030E040E054E40E946C2F20E028
:1034B00030E040E05CE30E946C2F20E030E040E828
:1034C00057E40E946C2F0E948E2E6093D802709356
:1034D000D9028093DA029093DB02CFBF49C02E5EFF
:1034E0003F4F40E050E0B3E056954795379527951C
:1034F000BA95D1F73093A3022093A202A0919B0228
:10350000B0919C020E94C1316093A4027093A50205
:103510008093A6029093A7022BC08091F603882384
:1035200071F0A3E035952795AA95E1F78FE790E034
:10353000821B930B909336018093350119C0C9010A
:10354000880F892F881F990B64E070E00E9450312A
:103550009927213032401CF428E130E002C020E1FC
:1035600030E002C0359527958A95E2F7209339021D
:103570008091E3039091E4039093DC038093DB0359
:10358000C091E503D091E6038091DD039091DE03C5
:10359000C817D90709F4A5C080910F018111A1C0F6
:1035A0008091CC03813009F44FC078F1823009F466
:1035B00074C0833009F08DC0BE01882777FD8095E7
:1035C000982F209135013091360189011F921F9269
:1035D0001F932F93A12CB12C6501E12C14E0F12E47
:1035E00000E010E020E030E0A9010E94422B60934F
:1035F000370155E0D595C7955A95E1F7C093380145
:103600000F900F900F900F9064C0D595C795D595EA
:10361000C7958C2FC0931201C093940220919302FE
:103620008095829FC0011124892F9927820F911DB7
:1036300090939602809395028091D603882309F493
:1036400048C0C093930245C0BE01882777FD80958E
:10365000982F0E94BC2E6093B9037093BA03809395
:10366000BB039093BC0320E030E04AE754E40E949F
:10367000212E6093BD037093BE038093BF0390938C
:10368000C003C1E020E030E0A9010E941D2E81119D
:1036900001C0C0E0C093B8031CC09E0140E050E0F0
:1036A00063E056954795379527956A95D1F73093FE
:1036B000AB022093AA02A0919B02B0919C020E94AF
:1036C000C1316093AC027093AD028093AE029093CF
:1036D000AF028091E5039091E6039093DE0380931F
:1036E000DD038091E7039091E8032091DF0330919F
:1036F000E0038217930799F12091100121112FC047
:103700002091CC03213081F028F0223081F0233049
:1037100099F01DC0880F892F881F990B01969093EF
:1037200014018093130113C09093B70310C08093CA
:10373000B8028093B0020BC02091D803222339F045
:1037400026E0959587952A95E1F70E941C138091B4
:10375000E7039091E8039093E0038093DF032091C7
:10376000E9033091EA038091E1039091E203281785
:10377000390709F462C08091110181115EC0809106
:10378000CC038130B1F028F08230E1F08330B1F128
:103790004CC0832F992787FD9A952091C20330E072
:1037A0008217930709F441C08093C2030E947311EA
:1037B0003CC0211532401CF41092B60336C08093F1
:1037C000B60333C040E050E003E056954795379587
:1037D00027950A95D1F73093BB022093BA02A091A6
:1037E0009B02B0919C020E94C1316093BC02709315
:1037F000BD028093BE029093BF0217C08091D80390
:10380000882399F0220F232F221F330B809133013D
:1038100090E02817390749F02093330181E0809325
:10382000F3038091F5030E941C138091E9039091AA
:10383000EA039093E2038093E1038091CC03833009
:1038400011F40E944413E091C902F091CA028081F0
:10385000823091F038F4882361F08130B1F461EB6B
:1038600072E00FC0833059F0843079F41092D302A3
:103870000CC069EA72E005C069EB72E002C061EC5D
:1038800072E08BE992E00E9405128091B8038823D0
:1038900009F48AC18091B603811128C08091D802B1
:1038A0009091D902A091DA02B091DB024091D4024A
:1038B0005091D5026091D6027091D702840F951F66
:1038C000A61FB71F8093D4029093D502A093D6026F
:1038D000B093D702CD019170E091DC02F091DD024E
:1038E000E80FF91FE491E093C703ACC00E94621F88
:1038F0000091B2031091B3032091B4033091B5034A
:10390000601B710B820B930B0091AE031091AF0300
:103910002091B0033091B103D3E0000F111F221F9B
:10392000331FDA95D1F70617170728073907E8F488
:1039300064EF70E080E090E00E940B21A0E0B0E036
:10394000DC01992788278093AA039093AB03A09367
:10395000AC03B093AD030E94621F6093B2037093F7
:10396000B3038093B4039093B5034090EB0350905E
:10397000EC036090ED037090EE036091AA037091E8
:10398000AB038091AC039091AD030E94BA2E6B0102
:103990007C01C301B2010E94BA2E9B01AC01C70198
:1039A000B6010E94B82D6B017C018091E9039091D2
:1039B000EA03959587959595879560E071E0681B7A
:1039C000790B882777FD8095982F0E94BA2E9B014E
:1039D000AC01C701B6010E94212E0E94892E60937E
:1039E000EF037093F0038093F1039093F2032FB7EA
:1039F000F8948091EB039091EC03A091ED03B091CA
:103A0000EE034091EF035091F0036091F103709148
:103A1000F203840F951FA61FB71F8093EB039093AB
:103A2000EC03A093ED03B093EE032FBF8091EB0363
:103A30009091EC03A091ED03B091EE0380E88A0F22
:103A40008093C7038091B70381112CC06091C70395
:103A5000772767FD7095872F972F0E94BC2E2091A6
:103A6000BD033091BE034091BF035091C0030E943B
:103A70006C2F2091C8033091C9034091CA03509123
:103A8000CB030E94B92DAB01BC01409315015093AB
:103A90001601609317017093180188EE92E00E945E
:103AA000AB1110C08091C8039091C903A091CA03C3
:103AB000B091CB038093150190931601A093170149
:103AC000B09318018091B703813009F04AC060912A
:103AD000120170E080E090E00E94BC2E2B013C01BE
:103AE0006091C703772767FD7095872F972F0E94F6
:103AF000BC2E6B017C0120E030E04CEF52E4609181
:103B0000BD037091BE038091BF039091C0030E94DA
:103B10006C2F9B01AC01C701B6010E94B92D9B011E
:103B2000AC01C301B2010E94B92D0E94892E6F3FE2
:103B3000710514F06EEF70E077FF02C060E070E096
:103B400060939402809193026095689FB001112464
:103B5000672F7727680F711D709396026093950207
:103B600023C0823009F56091C703772767FD709500
:103B700060587F4F882777FD8095982F0E94BC2E34
:103B80002091BD033091BE034091BF035091C0030B
:103B90000E946C2F0E94892E6093C3037093C4030C
:103BA0008093C5039093C603609113017091140133
:103BB000882777FD8095982F0E94BC2E20911501B3
:103BC0003091160140911701509118010E946C2FFD
:103BD0000E94892E2FB7F894CB01AA2797FDA095B4
:103BE000BA2F6CE0880F991FAA1FBB1F6A95D1F7E7
:103BF0008093E2029093E302A093E402B093E50283
:103C00002FBFDF91CF911F910F91FF90EF90DF9029
:103C1000CF90BF90AF907F906F905F904F900C943B
:103C2000EF120E9409190C940820909111068091BE
:103C30001006981306C090911306809112069813EF
:103C40001AC00E94D30E20911106E22FF0E0EE0F71
:103C5000FF1FE05FFB4F8C509F4F918380832F5F4E
:103C600020931106211107C08091130691E0892746
:103C700080931306089508951F920F920FB60F9226
:103C800011242F933F938F939F93AF93BF93EF9301
:103C9000FF9381E09091FF03911180E08093FF03F7
:103CA000882361F180911006E82FF0E0EE0FFF1FEE
:103CB000E05FFB4F208131818F5F8093100681117F
:103CC00019C08091120691E0892780931206809195
:103CD000140690911506A0911606B091170601964C
:103CE000A11DB11D8093140690931506A09316068E
:103CF000B09317063093890020938800FF91EF91CD
:103D0000BF91AF919F918F913F912F910F900FBED7
:103D10000F901F9018957F928F929F92AF92BF92B3
:103D2000CF92DF92EF92FF920F931F93CF93DF9387
:103D30008C0180E00E94B51F84B580930F0485B587
:103D400080930E0487B580930D04CEE6D0E0888181
:103D500080930C04980140E050E060E472E48FE04E
:103D600090E00E948631DA01C90140E061E17EE124
:103D70000E941C220E94712284B58093070485B59D
:103D80008093060487B5809305048881809304049A
:103D900000E810E0F801808180930B04C1E8D0E0D6
:103DA000888180930A04B8E8CB2ED12CF60180815B
:103DB0009181809309048FE6E82EF12CF701808130
:103DC0008093080461E089E00E94E62210926F0669
:103DD00090E7A92E96E0B92E98E1F501908321E7AE
:103DE000822E26E0922E82E0F40180839883F801EF
:103DF000808388EE91E0A0E0B0E077247394709225
:103E00006A0690936C0680936B069093870080936C
:103E1000860089E1888361E089E00E94E622F8015A
:103E20008081F4019081892B8068F8018083209142
:103E30006B0630916C06A4EFB0E00E94AB313AE023
:103E400096958795779567953A95D1F7F6017183A1
:103E5000608380916A06F5019081892B8883F70140
:103E60007082F8018081809303048881809302042A
:103E7000F6018081918180930104F7018081809314
:103E80000004DF91CF911F910F91FF90EF90DF9091
:103E9000CF90BF90AF909F908F907F90089520918A
:103EA00010068091140690911506A0911606B09107
:103EB00017066627782F892F9A2F620F711D811D93
:103EC000911D08950E944F1F9B01AC01ADE3B0E02E
:103ED0000E94C1310895109210061092110610929E
:103EE0001206109213060895811109C080917A007C
:103EF000846080937A0080917A008D7F1AC081302F
:103F000071F480917A008B7F80937A0080917A009F
:103F1000826080937A0080917A0081600FC0823045
:103F200079F480917A008B7F80937A0080917A0077
:103F3000826080937A0080917A008E7F80937A00ED
:103F4000089580E090E041E050E060917E009A01A9
:103F5000082E01C0220F0A94EAF7622B60937E00BC
:103F600001968C30910589F70895EAE7F0E0908199
:103F7000986090830E94741F0C94A11F823108F0F6
:103F80008251E82FF0E0EB58F64E84910895EBE76C
:103F9000F0E0908183FB222720F930E045E0220FFA
:103FA000331F4A95E1F79F7D922B90838770806441
:103FB00080937C00EAE7F0E080818064808308954C
:103FC000CF93DF931F92CDB7DEB7809124069091F7
:103FD00025068F3F2FEF920761F0FC01E85EF94F55
:103FE0002081298301979093250680932406898157
:103FF00001C08FEF80933B0280913B028F3F21F005
:1040000080913B020E94C71F0F90DF91CF910895CE
:1040100080913B028F3F29F40E94E01F81E0809352
:104020003A0208950E94BE1F209124063091250671
:104030002B30310554F42F5F3F4F309325062093EA
:104040002406F901E85EF94F8083E82FF0E0EE0FD7
:10405000FF1FEA5DF94F808191810895EAE7F0E062
:104060008081806480830895E0913B028091780094
:1040700090917900EE0FFF0BEA5DF94F91838083F9
:1040800008951F920F920FB60F9211242F933F9312
:104090004F935F936F937F938F939F93AF93BF9350
:1040A000EF93FF9380913A02882329F00E942E20FB
:1040B00010923A0207C00E9434200E94E01F81E063
:1040C00080933A02FF91EF91BF91AF919F918F91B1
:1040D0007F916F915F914F913F912F910F900FBE04
:1040E0000F901F9018958FEF9FEF90932506809368
:1040F00024060895CF92DF92EF92FF926B017C012C
:1041000020E030E0A9010E941D2E8823B9F020E0B4
:1041100030E040E451E4C701B6010E94212E9B012A
:10412000AC0160E070E080E090E40E94CF2F23E1DA
:1041300030ED42E051E40E946C2F03C060E070E07B
:10414000CB01FF90EF90DF90CF900895CF92DF9258
:10415000EF92FF920F931F934091440250914502BA
:104160006091460270914702DA01992788278427D7
:104170009527A627B7278C019D0145E03695279501
:10418000179507954A95D1F7082719272A273B271E
:104190008091400290914102A0914202B09143026D
:1041A0008093440290934502A0934602B093470245
:1041B00040913C0250913D0260913E0270913F025D
:1041C0004093400250934102609342027093430235
:1041D0006A017B01C826D926EA26FB26C701B6015B
:1041E0006027712782279327000F111F221F331F7B
:1041F000602771278227932760933C0270933D02CA
:1042000080933E0290933F021F910F91FF90EF9099
:10421000DF90CF9008950F931F93CF93DF93EC011E
:104220008B010E94A6209B01AC0144275527D80191
:10423000AC1BBD0B0E94CC318C0F9D1FDF91CF9129
:104240001F910F91089582E0809369068FEF80930C
:1042500044061092460680913E06815080934506A2
:1042600080913F06880F81608093670685EE80937A
:10427000BC00089584E0809369068FEF8093440624
:10428000109246062091400620934506A0914106D3
:10429000B091420687E496E0FC013E2F381B3217AE
:1042A00018F43D913193F9CF8091430690E0880F47
:1042B000991F8093670685EE8093BC00089585ED75
:1042C0008093BC008091BC0084FDFCCF8091690686
:1042D000809368061092690680916806833011F415
:1042E0000C943A2180916806813011F40C942321BA
:1042F000089585EC8093BC008091690680936806E0
:104300001092690680916806833011F40C943A216A
:1043100080916806813011F40C94232108951F9236
:104320000F920FB60F9211242F933F934F935F93E9
:104330006F937F938F939F93AF93BF93EF93FF936D
:104340008091B900887F883239F170F4803109F1A9
:1043500030F4882309F45BC08830D9F05CC0883120
:10436000D9F0803261F157C08034C1F150F480330C
:1043700031F1883309F04FC0809344060E947921BF
:104380004AC08035F9F08835A9F1883409F043C076
:1043900040C08091670610C0909146068091450606
:1043A0009817B8F5E091460681E08E0F8093460697
:1043B000F0E0E95BF94F80818093BB0015C08093EA
:1043C000440627C0E091460681E08E0F80934606A2
:1043D0008091BB00F0E0E95BF94F80839091460645
:1043E00080914506981710F485EC01C085E880930C
:1043F000BC0011C0E091460681E08E0F8093460616
:104400008091BB00F0E0E95BF94F808302C010921D
:1044100044060E945F21FF91EF91BF91AF919F9160
:104420008F917F916F915F914F913F912F910F905D
:104430000FBE0F901F901895CF92DF92EF92FF92D0
:10444000709375066093740640937606A0E0B0E022
:1044500034E0880F991FAA1FBB1F3A95D1F720E0BF
:1044600030E0F901E659F64EE491EE2381F06C015B
:104470007D01022E04C0F694E794D794C7940A9461
:10448000D2F751E0C516D506E104F10438F02F5FEC
:104490003F4F2B30310529F780E01EC0A1E0B0E08E
:1044A00002C0AA0FBB1F2A95E2F7A70196010E943E
:1044B000CC3124E095958795779567952A95D1F726
:1044C000709373066093720610926E0082E084BD52
:1044D000E5BDCA94C7BC81E0FF90EF90DF90CF901C
:1044E0000895EEE6F0E080818260808308957894FC
:1044F0001F920F920FB60F9211242F933F934F9359
:104500005F936F937F938F939F93AF93BF93EF933B
:10451000FF9310926E00E0917406F0917506099574
:10452000F89480917606882311F016BCA99A8091A0
:104530006E00826080936E00FF91EF91BF91AF910A
:104540009F918F917F916F915F914F913F912F91AB
:104550000F900FBE0F901F90189590E0FC013197BF
:10456000EE30F10590F5EA59FF4F0C94A53180919A
:1045700080008F7703C0809180008F7D80938000C2
:10458000089584B58F7702C084B58F7D84BD08956A
:10459000809190008F7707C0809190008F7D03C03D
:1045A00080919000877F8093900008958091C00053
:1045B0008F7703C08091C0008F7D8093C0000895E5
:1045C0008091C200877F8093C2000895CF93DF93CC
:1045D00090E0FC01E056F64E2491FC01E154F64EC9
:1045E0008491882349F190E0880F991FFC01E650DF
:1045F000F64EA591B4918451964EFC01C591D4918B
:104600009FB7611108C0F8948C91209582238C93F8
:10461000888182230AC0623051F4F8948C91322F41
:10462000309583238C938881822B888304C0F894EF
:104630008C91822B8C939FBFDF91CF9108950F9324
:104640001F93CF93DF931F92CDB7DEB7282F30E0B3
:10465000F901EF57F64E8491F901E056F64E1491A8
:10466000F901E154F64E04910023C9F0882321F0AA
:1046700069830E94AD226981E02FF0E0EE0FFF1FF9
:10468000E451F64EA591B4919FB7F8948C916111C5
:1046900003C01095812301C0812B8C939FBF0F9085
:1046A000DF91CF911F910F910895CF93DF93282F22
:1046B00030E0F901EF57F64E8491F901E056F64EDD
:1046C000D491F901E154F64EC491CC2391F08111BB
:1046D0000E94AD22EC2FF0E0EE0FFF1FE252F64EEB
:1046E000A591B4912C912D2381E090E021F480E0FC
:1046F00002C080E090E0DF91CF9108958091C506DF
:104700009091C6062091C7063091C806821B930B74
:104710008F73992708952091C5063091C606809120
:10472000C7069091C8062817390749F0E091C706D7
:10473000F091C806EB57F94F808190E008958FEF14
:104740009FEF08952091C5063091C6068091C70657
:104750009091C80628173907A9F0E091C706F09193
:10476000C806EB57F94F80812091C7063091C806E3
:104770002F5F3F4F2F7333273093C8062093C70610
:1047800090E008958FEF9FEF0895CF93DF93C0914E
:10479000C506D091C6062196CF73DD278091C70646
:1047A0009091C806C817D90799F082E00E9429287D
:1047B0008F3F2FEF920761F0E091C506F091C6069A
:1047C000EB57F94F8083D093C606C093C506DFCF61
:1047D000DF91CF91089583E00C94AF2A0F931F933C
:1047E000CF93DF931F92CDB7DEB78C0169838091A1
:1047F0004F02882359F041E050E0BE016F5F7F4FC8
:1048000083E00E946D28181619063CF081E090E0C4
:10481000F8019383828380E090E00F90DF91CF9145
:104820001F910F910895FC0120812E5F208342E4A7
:1048300050E068E07AE180E80C940829FC0181816D
:104840009081913A59F4813209F04BC047E050E031
:1048500068E472E080E00E94082945C0913209F0C6
:1048600040C0803239F467E070E088E492E00E9452
:104870004C2939C0823209F034C0828180934F02C2
:104880008091480290914902A0914A02B0914B0256
:10489000803B9440A105B10531F580914F0280FD28
:1048A00012C087E797E790930108809300082BE0F8
:1048B00088E190E00FB6F894A895809360000FBE51
:1048C0002093600010C088E10FB6F89480936000D8
:1048D000109260000FBEA895109201081092000877
:1048E00002C080E0089581E0089510927A06109247
:1048F000790688EE93E0A0E0B0E080937B06909389
:104900007C06A0937D06B0937E0686E592E09093A8
:104910007806809377060895FC0124853585F90192
:10492000E05CFF4F80819181329620813181821B32
:10493000930B8F7399270895FC0184859585FC015D
:10494000E05CFF4F408151813296208131814217D6
:10495000530741F00190F081E02DE80FF91F8081AD
:1049600090E008958FEF9FEF0895FC018485958571
:10497000FC01E05CFF4F4081518132962081318102
:104980004217530779F0A081B181A80FB91F8C910C
:10499000208131812F5F3F4F2F7333273183208355
:1049A00090E008958FEF9FEF0895FC0181A1882387
:1049B00029F0A489B5898C9186FFFBCF11A20895B7
:1049C000CF93DF93FC0126853785D901A05CBF4FCB
:1049D0008D919C91119701968F739927E901CE5B78
:1049E000DF4F4881598184179507D9F30D90BC9109
:1049F000A02DA20FB31F6C93A685B785A05CBF4FF7
:104A000011969C938E93A689B7892C9181E090E0B2
:104A1000078C02C0880F991F0A94E2F7282B2C9369
:104A200081E081A30488F589E02D80818064808302
:104A300081E090E0DF91CF91089508951F920F9249
:104A40000FB60F9211242F933F934F938F939F9301
:104A5000EF93FF938091C80082FD1CC04091CE006F
:104A600080916F079091700701968F73992720911D
:104A70007107309172078217930771F0E0916F0709
:104A8000F0917007E15DF84F408390937007809339
:104A90006F0702C08091CE00FF91EF919F918F919F
:104AA0004F913F912F910F900FBE0F901F9018952F
:104AB00089EC96E00E948C24892B11F00C941D2522
:104AC00008951F920F920FB60F9211242F933F93C8
:104AD0008F939F93EF93FF9320912B0730912C0797
:104AE00080912D0790912E072817390731F4809176
:104AF000C9008F7D8093C90014C0E0912D07F0910B
:104B00002E07E551F94F208180912D0790912E07B6
:104B100001968F73992790932E0780932D072093EA
:104B2000CE00FF91EF919F918F913F912F910F9028
:104B30000FBE0F901F901895CF92DF92EF92FF92C9
:104B4000CF93DF93EC016A017B01411581EE580799
:104B500061057105F9F0EC89FD8981E090E008A01C
:104B600002C0880F991F0A94E2F7808360E079E021
:104B70008DE390E0A70196010E9464312150310934
:104B8000410951095695479537952795211580E19B
:104B9000380798F0EC89FD89108260E874E88EE1AE
:104BA00090E0A70196010E9464312150310941092A
:104BB00051095695479537952795E889F9893083A6
:104BC000EA89FB89208319A2EE89FF89408181E06F
:104BD00090E09C010C8C02C0220F331F0A94E2F774
:104BE000422B4083EE89FF8940819C010D8C02C0DD
:104BF000220F331F0A94E2F7422B4083EE89FF898C
:104C000040819C010E8C02C0220F331F0A94E2F7F0
:104C1000422B4083EE89FF8920810F8C02C0880FD0
:104C2000991F0A94E2F7809582238083DF91CF91C8
:104C3000FF90EF90DF90CF9008951092CC061092E5
:104C4000CB0688EE93E0A0E0B0E08093CD06909391
:104C5000CE06A093CF06B093D00688E692E090935C
:104C6000CA068093C9068FE297E09093D606809398
:104C7000D5068BEE96E09093D8068093D7068DEC00
:104C800090E09093DA068093D9068CEC90E09093B4
:104C9000DC068093DB0688EC90E09093DE06809340
:104CA000DD0689EC90E09093E0068093DF068AECC5
:104CB00090E09093E2068093E1068EEC90E0909372
:104CC000E4068093E30684E08093E50683E0809326
:104CD000E60687E08093E70685E08093E80681E0BA
:104CE0008093E90608950E941E2C89EB97E00E94AC
:104CF000B92A0E942210C8E5D5E20E94D40F20975D
:104D0000E1F30E945825F9CFFC01EE5BFF4F2081B3
:104D10003181329680819181281B390B2F73332783
:104D2000C90196958795969587950895CF93DF93BA
:104D3000EC01E881F9810480F581E02D0995CC5BD7
:104D4000DF4F288139812C5F3F4F2F733327398301
:104D50002883DF91CF910895CF92DF92EF92FF9257
:104D60000F931F93CF93DF937C018C010E5B1F4F3A
:104D7000D801CD91DC912196CF73DD276C01B4E48D
:104D8000CB0ED11CF60180819181C817D907B9F0EB
:104D900085E00E9429288F3FEFEF9E0781F0D80120
:104DA000ED91FC911197EE0DFF1D82831196DC931E
:104DB000CE93CD91DC912196CF73DD27E3CFDF91A8
:104DC000CF911F910F91FF90EF90DF90CF900895BA
:104DD00086E00C94AF2ACF93DF9300D000D0CDB7FC
:104DE000DEB749835A836B837C8386E00E945A280E
:104DF000811103C080E090E00BC044E050E0BE01B0
:104E00006F5F7F4F86E00E946D281816190694F791
:104E10000F900F900F900F90DF91CF91089587E73B
:104E200097E790930108809300082BE088E190E0D9
:104E30000FB6F894A895809360000FBE2093600091
:104E40000895FF920F931F93CF93DF93EC01E881B6
:104E5000F9810190F081E02D0995181619062CF0C2
:104E600060E070E080E090E03AC0FE01EC5BFF4F54
:104E7000A081B181AC0FBD1F1296FC908081918101
:104E8000019620E430E0B9010E9450318C0F9D1F43
:104E9000DC0112960C91808191810296B9010E94E9
:104EA00050318C0F9D1FDC0112961C9180819181E5
:104EB0000396B9010E9450318C0F9D1FFC01C281E5
:104EC000F7E0FF1208C0003F31F4C73F21F4113072
:104ED00011F40E940F276F2D702F812F9C2FDF91CF
:104EE000CF911F910F91FF900895FC0120812F5FBA
:104EF000208342E150E060E97AE180E80C940829DF
:104F0000FC0120812F5F208346E450E06AE47AE1CF
:104F100080E80C94082980E0089588E792E0909357
:104F20007407809373070895CF92DF92EF92FF92F8
:104F30000F931F93CF93DF936C017A01EB01E60E81
:104F4000F71E00E010E0CE15DF0561F06991D60193
:104F5000ED91FC910190F081E02DC6010995080FBB
:104F6000191FF1CFC801DF91CF911F910F91FF90D1
:104F7000EF90DF90CF900895615030F02091F100D4
:104F8000FC0120830196F8CF289884E68093C0071F
:104F900008952FB7FC012083F89467706093E900AF
:104FA0000895CF93DF931F92CDB7DEB7682FCE0160
:104FB00001960E94C9278091F20099819FBF0F90AE
:104FC000DF91CF910895FF920F931F93CF93DF93BB
:104FD00000D0CDB7DEB7F62E8A019091BF07992396
:104FE00011F057FF03C08FEF9FEF2BC0682FCE014A
:104FF00001967A830E94C9278091F20090E0A8016F
:105000007A81801791070CF4AC01EF2DF72FF40E85
:1050100084E6FE1639F028988093C0079091F1003D
:105020009193F7CF4115510521F08091F20088232B
:1050300021F089818FBFCA0104C08BE68093E8000C
:10504000F8CF0F900F90DF91CF911F910F91FF90AC
:105050000895CF93DF931F92CDB7DEB741E050E0C4
:10506000BE016F5F7F4F0E94E327019719F489818A
:1050700090E002C08FEF9FEF0F90DF91CF910895E6
:10508000CF93DF931F92CDB7DEB7682FCE01019685
:105090000E94C9279091E800892F807295FF04C073
:1050A0009091F20080E4891B99819FBF0F90DF915E
:1050B000CF910895CF93DF931F92CDB7DEB7682FBE
:1050C000CE0101960E94C9278091E80099819FBF77
:1050D00080720F90DF91CF9108954F925F926F92FF
:1050E0007F928F929F92AF92BF92CF92DF92EF9278
:1050F000FF920F931F93CF93DF931F92CDB7DEB72D
:10510000582E7B01A42E952E8091BF07882369F02D
:10511000042F152F8AEFB82E852D8072782E9AE3F2
:10512000892E852D8074682E11C08FEF9FEF53C09C
:10513000852D0E944028482E81110CC0BA94A9F3F5
:1051400061E070E080E090E00E94F62B011511050F
:1051500079F737C0282F30E0021713070CF4402EE0
:10516000C42CD12C0C191D09652DCE0101960E946D
:10517000C927772039F04A948FEF4816B1F0109282
:10518000F100F9CFF701842D57FE07C0815058F088
:1051900094919093F1003196F9CF815020F0919144
:1051A0009093F100FACFEC0CFD1C8091E80085FF94
:1051B0000FC00115110511F461100AC089818FBF5C
:1051C000C5CF5D9884E68093C1078A2D992D03C0D1
:1051D0008092E800F3CF0F90DF91CF911F910F9154
:1051E000FF90EF90DF90CF90BF90AF909F908F9007
:1051F0007F906F905F904F9008951092E900109209
:10520000BE071092BD079093BC078093BB0708951B
:10521000CF93DF93FB0120E030E0DEEF241735076A
:10522000A1F187FF02C0C49101C0C081A091BD0758
:10523000B091BE076091BB077091BC07A617B70776
:10524000B4F49091E8009570E1F39091E80092FD3C
:105250001EC0C093F1006091BD077091BE076F5FE3
:105260007F4F6F737727672B11F4D093E80060911D
:10527000BD077091BE076F5F7F4F7093BE0760934D
:10528000BD072F5F3F4F3196C9CFC90102C08FEFD5
:105290009FEFDF91CF9108951F93CF93DF931F92DC
:1052A000CDB7DEB7162F2091E80022FFFCCF612F8B
:1052B00079830E94BC278BEF8093E800812F79814E
:1052C000972F0F90DF91CF911F910895CF93DF9388
:1052D0001F92CDB7DEB71982CE0101960E9413242A
:1052E000CE0101960E94922CCE0101960E94752754
:1052F000CE0101960E948027898190E00F90DF9176
:10530000CF9108951F920F920FB60F921124EF9232
:10531000FF920F931F932F933F934F935F936F933E
:105320007F938F939F93AF93BF93EF93FF93CF930D
:10533000DF93CDB7DEB76297DEBFCDBF1092E90035
:105340008091E80083FFEEC068E0CE010A960E94DB
:10535000BC2782EF8093E8009A8597FF05C0809173
:10536000E80080FFFCCF03C08EEF8093E800892F18
:10537000807609F0B5C08B85811105C01092F100CF
:105380001092F100C8C0282F2D7F213009F4C3C02E
:10539000853049F48091E80080FFFCCF8C858068DF
:1053A0008093E300B8C0863009F072C02D85E8888C
:1053B000F988223071F580E090E02A8B0E94FD2868
:1053C0000E94662999E08E010F5F1F4FF801392F67
:1053D00011923A95E9F799832A892A8391E09E836D
:1053E00090E898879AEF99872091BD073091BE0782
:1053F000275F3F4F3C832B838D83C7010E94FD288D
:1054000049E050E0B80180E00E9408290E94662926
:1054100082C0C7012A8B0E94FD282A89223241F4CA
:1054200082E290E00E949D2C892B09F074C077C025
:10543000213069F488899989089711F42093BA0773
:105440008091BA07882389F069EA7AE116C023308F
:1054500009F065C08C85882359F0823061F0813075
:1054600009F05DC06DEC7AE108C06BEB7AE105C034
:105470006FE07BE102C06DEE7AE16115710509F420
:105480004EC0FB01449150E080E80E94082943C0CF
:10549000873009F444C0883021F481E08093F10022
:1054A0003AC08930C1F59370D1F5E3EAFAE181E0C1
:1054B00021E096E38093E9002093EB003491309350
:1054C000EC009093ED008F5F3196873099F78EE76F
:1054D0008093EA001092EA008C858093BF071BC07E
:1054E000888999890E94FD288E85811105C0CE0189
:1054F0000A960E941E240DC0823029F4CE010A961D
:105500000E94C52C06C0843051F4CE010A960E9438
:105510008B27882321F08EEF8093E80003C081E27F
:105520008093EB0062960FB6F894DEBF0FBECDBF3E
:10553000DF91CF91FF91EF91BF91AF919F918F91AB
:105540007F916F915F914F913F912F911F910F919B
:10555000FF90EF900F900FBE0F901F9018958093C3
:10556000E9008091F200882319F08AE38093E80033
:1055700008951092BF0781E08093D70080EA80935E
:10558000D80082E189BD09B400FEFDCF61E070E082
:1055900080E090E00E94F62B80E98093D8008CE0B8
:1055A0008093E2001092E000559A209A08951F928D
:1055B0000F920FB60F9211242F933F934F935F9347
:1055C0006F937F938F939F93AF93BF93EF93FF93CB
:1055D0008091E1001092E10083FF0FC01092E9007A
:1055E00091E09093EB001092EC0092E39093ED0029
:1055F0001092BF0798E09093F00082FF32C083E0E2
:105600000E94AF2A82E00E94D127882321F087E7F9
:1056100096E00E94C52386E00E94AF2A85E00E94A2
:10562000D127882321F083E797E00E94AC26809160
:10563000C107882339F08091C10781508093C10749
:10564000882369F08091C007882359F08091C007B2
:1056500081508093C007811104C0289A02C05D9ACE
:10566000F1CFFF91EF91BF91AF919F918F917F917A
:105670006F915F914F913F912F910F900FBE0F90BF
:105680001F9018954F925F926F927F92AF92BF9248
:10569000CF92DF92EF92FF920F931F93CF93DF93FE
:1056A000CDB7DEB729013A01621B730B840B950B52
:1056B00029893A894B895C892A193B094C095D097A
:1056C000298B3A8B4B8B5C8B9B01AC0169897A8966
:1056D0008B899C890E943431E418F5080609170962
:1056E000A80197010E9486312A0D3B1D4C1D5D1DAE
:1056F000CA01B901DF91CF911F910F91FF90EF90F7
:10570000DF90CF90BF90AF907F906F905F904F9061
:1057100008951F920F920FB60F9211242F933F936B
:105720008F939F93AF93BF938091C3079091C407CA
:10573000A091C507B091C6073091C20723E0230F9F
:105740002D3720F40196A11DB11D05C026E8230FB9
:105750000296A11DB11D2093C2078093C3079093A9
:10576000C407A093C507B093C6078091C70790915F
:10577000C807A091C907B091CA070196A11DB11D24
:105780008093C7079093C807A093C907B093CA072F
:10579000BF91AF919F918F913F912F910F900FBE2D
:1057A0000F901F9018953FB7F8948091C70790917C
:1057B000C807A091C907B091CA0726B5A89B05C024
:1057C0002F3F19F00196A11DB11D3FBF6627782F0D
:1057D000892F9A2F620F711D811D911D42E0660F66
:1057E000771F881F991F4A95D1F70895CF92DF92AE
:1057F000EF92FF92CF93DF936B017C010E94D32B3A
:10580000EB01C114D104E104F10489F00E94B72D29
:105810000E94D32B6C1B7D0B683E734090F381E09C
:10582000C81AD108E108F108C851DC4FEACFDF916E
:10583000CF91FF90EF90DF90CF900895789484B54A
:10584000826084BD84B5816084BD85B5826085BD7C
:1058500085B5816085BDEEE6F0E080818160808362
:10586000E1E8F0E010828081826080838081816045
:105870008083E0E8F0E0808181608083E1E9F0E00E
:10588000808182608083808181608083E0E9F0E0B4
:10589000808181608083E1ECF0E08081846080839E
:1058A000808182608083808181608083E3ECF0E08E
:1058B000808181608083E0ECF0E080818260808381
:1058C000E2ECF0E0808181608083EAE7F0E08081B3
:1058D0008460808380818260808380818160808316
:1058E0008081806880830895FF920F931F93CF93E8
:1058F000DF93EC01F62EE881F9810480F581E02D3B
:1059000009958C01E881F9810680F781E02D6F2DE2
:10591000CE010995C8019927DF91CF911F910F9171
:10592000FF900895FC0120812F5F208349E150E022
:1059300063E97BE180E80C94082945E650E06CEAD5
:105940007BE180E80C940829EF92FF920F931F935C
:10595000CF93DF931F92CDB7DEB789838B017A0196
:1059600041E050E0BE016F5F7F4F84E00E946D28F0
:10597000A701B80184E40E946D280F90DF91CF91B8
:105980001F910F91FF90EF900895FC01918180810C
:10599000813A31F481E0913091F0933089F411C073
:1059A000813271F49B3021F482818093510205C0D1
:1059B0009A3031F482818093500281E008950895F5
:1059C00080E0089548E050E082E00C94A42CCF934E
:1059D000DF93DC01683818F0E8E7E60F25C0E62F12
:1059E000F0E067FF11C0E058F10981E090E001C0EC
:1059F000880FEA95EAF714969C911497982B1496C1
:105A00009C931497E0E010C0ED5EF44EE491EE2319
:105A100009F440C0E7FF08C014968C911497826087
:105A200014968C931497EF7716968C9116978E1781
:105A300041F117968C9117978E1719F118968C9142
:105A400018978E17F1F019968C9119978E17C9F047
:105A50001A968C911A978E17A1F01B968C911B9712
:105A60008E1779F080E090E0ED01C80FD91F2E81EC
:105A7000211102C0EE8305C0019686309105A1F781
:105A800009C0BD016C5F7F4FCD010E94E22C81E017
:105A900090E008C081E090E013969C938E9312975B
:105AA00080E090E0DF91CF910895683818F0E8E742
:105AB000E60F25C0E62FF0E067FF12C0E058F109BD
:105AC00021E030E001C0220FEA95EAF72095DC01E1
:105AD00014963C911497322314963C93E0E00FC047
