:100000000C9410140C9438140C9438140C94381468
:100010000C9438140C9438140C9438140C94381430
:100020000C9438140C9438140C940E300C94B92E93
:100030000C9438140C9438140C9438140C94381410
:100040000C9438140C9438140C9438140C94381400
:100050000C94C3210C9458260C9438140C947930C9
:100060000C9438140C9431290C9474290C94381481
:100070000C9438140C94C8230C9438140C94381431
:100080000C9438140C9438140C9438140C943814C0
:100090000C9470250C9438140C9438140C94381467
:1000A0000C9438140C9438140C943814D919501A30
:1000B000211A041A791A791ACB19791ACB19791AD3
:1000C000CB19CB19CB19791ACB19CB19D326D62634
:1000D000C926CD26F726F726F726DA26DE26E226DB
:1000E000E826EC26F726F22607634236B79BD8A708
:1000F0001A39685618AEBAAB558C1D3CB7CC57634D
:10010000BD6DEDFD753EF6177231BF000000803FFA
:1001100008000000BE922449123EABAAAA2ABECD16
:10012000CCCC4C3E00000080BEABAAAAAA3E000088
:100130000000BF000000803F000000000008417880
:10014000D3BB4387D1133D190E3CC3BD4282AD2BB7
:100150003E68EC8276BED98FE1A93E4C80EFFFBEAF
:1001600001C4FF7F3F0000000000000102040507FA
:1001700008090B0C0E0F101213151617191A1B1D58
:100180001E20212224252628292A2C2D2E2F3132EB
:1001900033353637383A3B3C3D3E40414243444597
:1001A0004647494A4B4C4D4E4F5051525354555669
:1001B000575859595A5B5C5D5E5E5F60616262636D
:1001C000646465666667686869696A6A6B6B6C6CAB
:1001D0006D6D6E6E6F6F6F70707070717171717226
:1001E00072727272727273737373737373737372E6
:1001F00072727272727271717171707070706F6FF1
:100200006F6E6E6D6D6C6C6B6B6A6A69696868673E
:10021000666665646463626261605F5E5E5D5C5BCE
:100220005A59595857565554535251504F4E4D4C98
:100230004B4A4947464544434241403E3D3C3B3A98
:10024000383736353332312F2E2D2C2A29282625C2
:10025000242221201E1D1C1A191716151312100F07
:100260000E0C0B0908070504020100FEFDFBFAF85D
:10027000F7F6F4F3F1F0EFEDECEAE9E8E6E5E4E2B5
:10028000E1DFDEDDDBDAD9D7D6D5D3D2D1D0CECD02
:10029000CCCAC9C8C7C5C4C3C2C1BFBEBDBCBBBA36
:1002A000B9B8B6B5B4B3B2B1B0AFAEADACABAAA944
:1002B000A8A7A6A6A5A4A3A2A1A1A09F9E9D9D9C20
:1002C0009B9B9A99999897979696959594949393C2
:1002D000929291919090908F8F8F8F8E8E8E8E8D27
:1002E0008D8D8D8D8D8D8C8C8C8C8C8C8C8C8C8C48
:1002F0008D8D8D8D8D8D8E8E8E8E8F8F8F8F90901C
:1003000090919192929393949495959696979798AD
:1003100099999A9B9B9C9D9D9E9FA0A1A1A2A3A4FD
:10032000A5A6A6A7A8A9AAABACADAEAFB0B1B2B313
:10033000B4B5B6B8B9BABBBCBDBEC0C1C2C3C4C5F2
:10034000C7C8C9CACCCDCED0D1D2D3D5D6D7D9DAA9
:10035000DBDDDEDFE1E2E4E5E6E8E9EAECEDEFF043
:10036000F1F3F4F6F7F8FAFBFDFE174466777870C0
:10037000655E5E63696D6D6A65626265686B6B6917
:1003800066646466686A6A686665656668696968FD
:1003900066656566686969686665656668696968ED
:1003A00066666666686868686666666668686868DD
:1003B00067666666686868686766666767686867CC
:1003C00067666667676868676766666767686867BD
:1003D00067666667676868676766666767686867AD
:1003E000676666676768686767666667676868679D
:1003F000676666676768686767666667676868678D
:10040000676666676768686767666667676868677C
:10041000676666676768686767666667686868686A
:10042000676666676868686866666666686868685A
:10043000666666666869696866656566686969684A
:10044000666565666869696866656566686A6A683A
:1004500066646466696B6B68656262656A6D6D6926
:10046000635E5E65707877664417EAC5ADA2A1A7A2
:10047000ADB2B2AFABA8A8AAADAFAFADABA9A9ABB7
:10048000ADAEAEADABAAAAABACADADADABAAAAABAF
:10049000ACADADACABABABABACADADACABABABABA0
:1004A000ACADADACACABABABACADADACACABABAC8D
:1004B000ACADADACACABABACACADADACACABABAC7C
:1004C000ACADADACACABABACACADADACACABABAC6C
:1004D000ACADADACACABABACACADACACACABABAC5D
:1004E000ACACACACACABABACACACACACACABABAC50
:1004F000ACACACACACABABACACACACACACABABAC40
:10050000ACADADACACABABACACADADACACABABAC2B
:10051000ACADADACACABABACACADADACACABABAC1B
:10052000ACADADACACABABACACADADACABABABAC0C
:10053000ACADADACABABABABACADADACABABABABFF
:10054000ACADADACABAAAAABADADADACABAAAAABF2
:10055000ADAEAEADABA9A9ABADAFAFADAAA8A8ABE0
:10056000AFB2B2ADA7A1A2ADC5EA00000000010183
:10057000010102020202030303030404040404054C
:1005800005050506060607070707080808080909FC
:1005900009090A0A0A0A0B0B0B0B0B0C0C0C0D0DAC
:1005A0000D0D0E0E0E0E0F0F0F0F1010101011115B
:1005B000111111121212121313131314141414150F
:1005C00015151516161616171717181818181919BD
:1005D00019191A1A1A1A1B1B1B1B1C1C1C1C1D1D6B
:1005E0001D1D1E1E1E1E1F1F1F1F2020202020211C
:1005F00021202222222223232323242424242525CC
:10060000252526262626272727272828282828297B
:100610002929292A2A2A2A2B2B2B2C2C2C2C2D2D2C
:100620002D2D2E2E2E2E2F2F2F2F303030303131DA
:10063000313131323232333333333434343434358C
:10064000353536363636363737373838383838393C
:1006500039393A3A3A3A3B3B3B3B3C3C3C3C3C3DEB
:100660003D3D3E3E3E3E3E3F3F3F3F40404041419C
:10067000414141424242424343434444444445454C
:1006800045454646464647474747484848484949FA
:100690004949494A4A4A4A4B4B4B4C4C4C4C4D4DAC
:1006A0004D4D4D4E4E4E4E4F4F4F5050505051515C
:1006B000515151525252535353535454545455550B
:1006C00055555556565656575757585858585859BD
:1006D00059595A5A5A5A5B5B5B5B5C5C5C5C5C5D6B
:1006E0005D5D5E5E5E5E5F5F5F5F5F60606061611B
:1006F00061616262626263636363636464646565CB
:10070000656565666666666767676768686869697C
:100710006969696A6A6A6A6B6B6B6C6C6C6C6D6D2B
:100720006D6D6E6E6E6E6F6F6F6F707070707071DA
:10073000717171727272727373737374747474758D
:10074000757575767676777777777878787878793B
:1007500079797A7A7A7A7B7B7B7B7C7C7C7C7D7DE9
:100760007D7D7D7E7E7E7F7F7F7F7F7F7F7E7E7EA5
:100770007E7E7D7D7D7D7C7C7C7C7B7B7B7B7A7AB9
:100780007A7A7979797978787878777777777676E9
:100790007676757575757474747473737373727219
:1007A0007271717171707070706F6F6F6F6E6E6E4D
:1007B0006E6D6D6D6D6D6C6C6C6C6B6B6B6B6A6A7A
:1007C0006A696969696868686868676767666666AC
:1007D00066666565656564646463636363626262DB
:1007E000626161616160606060605F5F5F5E5E5E0C
:1007F0005E5D5D5D5D5C5C5C5C5B5B5B5B5B5A5A3C
:100800005A5A595959595858585857575757565668
:100810005656555555545454545453535353525299
:100820005251515151505050504F4F4F4F4E4E4ECC
:100830004E4E4D4D4D4D4C4C4C4C4B4B4B4A4A4AF9
:100840004A4A494949494848484847474747464628
:100850004645454545454444444443434343424259
:100860004241414141414040403F3F3F3F3F3E3E8A
:100870003E3E3D3D3D3C3C3C3C3C3B3B3B3B3A3AB9
:100880003A3A3939393838383838373737373636E9
:10089000363635353535343434333333333232321A
:1008A0003232313131313030302F2F2F2F2E2E2E4A
:1008B0002E2E2D2D2D2D2C2C2C2B2B2B2B2A2A2A7A
:1008C0002A292929292928282828272727262626AA
:1008D00026262525252424242424232323222222DA
:1008E000222121202121202020201F1F1F1F1E1E0A
:1008F0001E1E1D1D1D1D1C1C1C1B1B1B1B1B1A1A39
:100900001A19191919191818181817171717161668
:100910001616151515151414141313131313121298
:10092000121211111110101010100F0F0F0F0E0EC8
:100930000E0E0D0D0D0D0C0C0C0C0B0B0B0B0A0AF7
:100940000A0A090909090808080807070706060628
:100950000605050505050404040403030303020258
:1009600002010101010100000000FFFFFFFEFEFE89
:10097000FEFDFDFDFDFCFCFCFCFBFBFBFBFAFAFABB
:10098000FAFAF9F9F9F8F8F8F8F8F7F7F7F7F6F6E8
:10099000F6F5F5F5F5F4F4F4F4F4F3F3F3F3F2F219
:1009A000F2F1F1F1F1F1F0F0F0F0EFEFEFEEEEEE49
:1009B000EEEDEDEDEDEDECECECEBEBEBEBEBEAEA79
:1009C000EAEAE9E9E9E9E8E8E8E7E7E7E7E7E6E6A8
:1009D000E6E6E5E5E5E4E4E4E4E3E3E3E3E3E2E2D9
:1009E000E2E1E1E1E1E0E0E0E0E0DFDFDFDFDEDE09
:1009F000DEDDDDDDDDDCDCDCDCDCDBDBDBDADADA3A
:100A0000DAD9D9D9D9D8D8D8D8D8D7D7D7D7D6D668
:100A1000D6D5D5D5D5D4D4D4D4D3D3D3D3D2D2D29A
:100A2000D2D1D1D1D1D0D0D0D0D0CFCFCFCFCECEC8
:100A3000CECECDCDCDCDCCCCCCCBCBCBCBCACACAF8
:100A4000CAC9C9C9C9C8C8C8C8C7C7C7C7C6C6C62A
:100A5000C6C5C5C5C5C4C4C4C4C4C3C3C3C3C2C258
:100A6000C2C1C1C1C1C1C0C0C0C0BFBFBFBFBEBE87
:100A7000BEBDBDBDBDBDBCBCBCBCBBBBBBBBBABAB7
:100A8000BABAB9B9B9B9B8B8B8B8B7B7B7B7B6B6E6
:100A9000B6B6B5B5B5B5B4B4B4B4B3B3B3B3B2B216
:100AA000B2B2B1B1B1B1B0B0B0B0AFAFAFAEAEAE47
:100AB000AEAEADADADADACACACABABABABAAAAAA78
:100AC000AAA9A9A9A9A8A8A8A8A7A7A7A7A7A6A6A9
:100AD000A6A5A5A5A5A5A4A4A4A3A3A3A3A2A2A2D9
:100AE000A2A1A1A1A1A1A0A0A0A09F9F9F9F9E9E07
:100AF0009E9E9D9D9D9D9C9C9C9C9B9B9B9B9A9A36
:100B00009A9A999999989898989797979797969667
:100B10009696959595949494949393939393929297
:100B20009292919191919090908F8F8F8F8F8E8EC6
:100B30008E8E8D8D8D8C8C8C8C8B8B8B8B8A8A8AF8
:100B40008A89898989898888888887878786868627
:100B50008686858585858484848483838382828256
:100B6000828181818181808080808080808081817C
:100B70008181818282828383838383848484858547
:100B800085858686868687878787878888888889F7
:100B900089898A8A8A8A8A8B8B8B8C8C8C8C8D8DA6
:100BA0008D8D8D8E8E8E8E8F8F8F90909090919157
:100BB0009191929292929393939394949494959505
:100BC00095959696969697979797979898989999B6
:100BD00099999A9A9A9A9A9B9B9B9C9C9C9C9D9D66
:100BE0009D9D9E9E9E9E9F9F9F9F9FA0A0A0A1A116
:100BF000A1A1A1A2A2A2A2A3A3A3A4A4A4A4A4A5C8
:100C0000A5A5A5A6A6A6A7A7A7A7A7A8A8A8A9A976
:100C1000A9A9AAAAAAAAAAABABABACACACACACAD26
:100C2000ADADAEAEAEAEAEAFAFAFAFB0B0B0B1B1D6
:100C3000B1B1B2B2B2B2B2B3B3B3B3B4B4B4B5B586
:100C4000B5B5B6B6B6B6B6B7B7B7B7B8B8B8B9B936
:100C5000B9B9BABABABABBBBBBBBBCBCBCBCBDBDE4
:100C6000BDBDBEBEBEBEBEBFBFBFC0C0C0C0C0C196
:100C7000C1C1C2C2C2C2C2C3C3C3C3C4C4C4C5C546
:100C8000C5C5C6C6C6C6C6C7C7C7C7C8C8C8C8C9F7
:100C9000C9C9C9CACACACBCBCBCBCBCCCCCCCCCDA7
:100CA000CDCDCDCECECECFCFCFCFCFD0D0D0D1D156
:100CB000D1D1D2D2D2D2D2D3D3D3D3D4D4D4D4D507
:100CC000D5D5D5D6D6D6D7D7D7D7D8D8D8D8D8D9B6
:100CD000D9D9D9DADADADBDBDBDBDBDCDCDCDCDD67
:100CE000DDDDDEDEDEDEDEDFDFDFE0E0E0E0E1E115
:100CF000E1E1E1E2E2E2E3E3E3E3E4E4E4E4E4E5C6
:100D0000E5E5E5E6E6E6E6E7E7E7E8E8E8E8E9E975
:100D1000E9E9E9EAEAEAEBEBEBEBECECECECEDED24
:100D2000EDEDEDEEEEEEEFEFEFEFF0F0F0F0F1F1D4
:100D3000F1F1F2F2F2F2F3F3F3F3F3F4F4F4F5F584
:100D4000F5F5F5F6F6F6F7F7F7F7F8F8F8F8F9F934
:100D5000F9F9FAFAFAFAFBFBFBFBFBFCFCFCFDFDE4
:100D6000FDFDFEFEFEFEFFFFFFFF80808080808095
:100D7000808081818181818181818282828282825F
:100D80008282828383838383838384848484848430
:100D90008484848585858585858586868686868600
:100DA00086868787878787878787888888888888CF
:100DB000888889898989898989898A8A8A8A8A8A9F
:100DC0008A8A8A8B8B8B8B8B8B8B8B8C8C8C8C8C71
:100DD0008C8C8D8D8D8D8D8D8D8D8D8E8E8E8E8E40
:100DE0008E8E8F8F8F8F8F8F8F8F9090909090900F
:100DF00090909191919191919191929292929292DF
:100E000092929393939393939393949494949494AE
:100E1000949494959595959595959696969696967F
:100E20009696969797979797979797989898989850
:100E300098989899999999999999999A9A9A9A9A20
:100E40009A9A9B9B9B9B9B9B9B9B9B9C9C9C9C9CEF
:100E50009C9C9C9D9D9D9D9D9D9D9E9E9E9E9E9EBF
:100E60009E9E9F9F9F9F9F9F9F9F9FA0A0A0A0A08F
:100E7000A0A0A1A1A1A1A1A1A1A1A2A2A2A2A2A25E
:100E8000A2A2A3A3A3A3A3A3A3A3A4A4A4A4A4A42E
:100E9000A4A4A4A5A5A5A5A5A5A5A6A6A6A6A6A6FF
:100EA000A6A6A7A7A7A7A7A7A7A7A8A8A8A8A8A8CE
:100EB000A8A8A8A9A9A9A9A9A9A9A9AAAAAAAAAAA0
:100EC000AAAAABABABABABABABABACACACACACAC6E
:100ED000ACACADADADADADADADADAEAEAEAEAEAE3E
:100EE000AEAEAFAFAFAFAFAFAFAFAFB0B0B0B0B00F
:100EF000B0B0B0B1B1B1B1B1B1B1B2B2B2B2B2B2DF
:100F0000B2B2B3B3B3B3B3B3B3B3B4B4B4B4B4B4AD
:100F1000B4B4B5B5B5B5B5B5B5B5B6B6B6B6B6B67D
:100F2000B6B6B7B7B7B7B7B7B7B7B8B8B8B8B8B84D
:100F3000B8B8B8B9B9B9B9B9B9B9BABABABABABA1E
:100F4000BABABBBBBBBBBBBBBBBBBCBCBCBCBCBCED
:100F5000BCBCBDBDBDBDBDBDBDBDBDBEBEBEBEBEBE
:100F6000BEBEBFBFBFBFBFBFBFBFC0C0C0C0C0C08D
:100F7000C0C0C1C1C1C1C1C1C1C1C1C2C2C2C2C25E
:100F8000C2C2C2C3C3C3C3C3C3C3C4C4C4C4C4C42E
:100F9000C4C4C4C5C5C5C5C5C5C5C5C6C6C6C6C6FF
:100FA000C6C6C7C7C7C7C7C7C7C7C8C8C8C8C8C8CD
:100FB000C8C8C9C9C9C9C9C9C9C9CACACACACACA9D
:100FC000CACACBCBCBCBCBCBCBCBCBCCCCCCCCCC6E
:100FD000CCCCCCCDCDCDCDCDCDCDCDCECECECECE3F
:100FE000CECECFCFCFCFCFCFCFCFD0D0D0D0D0D00D
:100FF000D0D0D1D1D1D1D1D1D1D1D2D2D2D2D2D2DD
:10100000D2D2D2D3D3D3D3D3D3D3D4D4D4D4D4D4AD
:10101000D4D4D4D5D5D5D5D5D5D5D6D6D6D6D6D67D
:10102000D6D6D6D7D7D7D7D7D7D7D8D8D8D8D8D84D
:10103000D8D8D9D9D9D9D9D9D9D9D9DADADADADA1D
:10104000DADADADBDBDBDBDBDBDBDCDCDCDCDCDCED
:10105000DCDCDCDDDDDDDDDDDDDDDDDEDEDEDEDEBE
:10106000DEDEDFDFDFDFDFDFDFDFDFE0E0E0E0E08D
:10107000E0E0E1E1E1E1E1E1E1E1E2E2E2E2E2E25C
:10108000E2E2E2E3E3E3E3E3E3E3E4E4E4E4E4E42D
:10109000E4E4E5E5E5E5E5E5E5E5E6E6E6E6E6E6FC
:1010A000E6E6E7E7E7E7E7E7E7E7E7E8E8E8E8E8CD
:1010B000E8E8E9E9E9E9E9E9E9E9EAEAEAEAEAEA9C
:1010C000EAEAEBEBEBEBEBEBEBEBECECECECECEC6C
:1010D000ECECECEDEDEDEDEDEDEDEDEEEEEEEEEE3E
:1010E000EEEEEEEFEFEFEFEFEFEFF0F0F0F0F0F00D
:1010F000F0F0F0F1F1F1F1F1F1F1F1F2F2F2F2F2DE
:10110000F2F2F3F3F3F3F3F3F3F3F4F4F4F4F4F4AB
:10111000F4F4F4F5F5F5F5F5F5F5F6F6F6F6F6F67C
:10112000F6F6F7F7F7F7F7F7F7F7F8F8F8F8F8F84B
:10113000F8F8F8F9F9F9F9F9F9F9F9FAFAFAFAFA1D
:10114000FAFAFBFBFBFBFBFBFBFBFCFCFCFCFCFCEB
:10115000FCFCFDFDFDFDFDFDFDFDFDFEFEFEFEFEBC
:10116000FEFEFFFFFFFFFFFFFFFF0000000000008B
:10117000000000010101010101010102020202025D
:10118000020203030303030303030404040404042B
:1011900004040505050505050505060606060606FB
:1011A00006060707070707070707070808080808CC
:1011B000080809090909090909090A0A0A0A0A0A9B
:1011C0000A0A0B0B0B0B0B0B0B0B0B0C0C0C0C0C6C
:1011D0000C0C0D0D0D0D0D0D0D0D0D0E0E0E0E0E3C
:1011E0000E0E0F0F0F0F0F0F0F0F0F10101010100C
:1011F00010101011111111111111121212121212DC
:1012000012121313131313131313141414141414AA
:10121000141415151515151515151516161616167B
:10122000161617171717171717171818181818184A
:1012300018181919191919191919191A1A1A1A1A1B
:101240001A1A1A1B1B1B1B1B1B1B1C1C1C1C1C1CEB
:101250001C1C1D1D1D1D1D1D1D1D1E1E1E1E1E1EBA
:101260001E1E1F1F1F1F1F1F1F1F1F20202020208B
:10127000202021212021212221212022222222225C
:10128000222223232323232323232424242424242A
:1012900024242425252525252525262626262626FB
:1012A00026262727272727272727282828282828CA
:1012B000282829292929292929292A2A2A2A2A2A9A
:1012C0002A2A2A2B2B2B2B2B2B2B2B2C2C2C2C2C6C
:1012D0002C2C2D2D2D2D2D2D2D2D2E2E2E2E2E2E3A
:1012E0002E2E2E2F2F2F2F2F2F2F2F30303030300C
:1012F00030303131313131313131323232323232DA
:1013000032323333333333333333333434343434AA
:101310003434353535353535353536363636363679
:10132000363636373737373737373738383838384B
:1013300038383939393939393939393A3A3A3A3A1A
:101340003A3A3A3B3B3B3B3B3B3B3C3C3C3C3C3CEA
:101350003C3C3D3D3D3D3D3D3D3D3E3E3E3E3E3EB9
:101360003E3E3F3F3F3F3F3F3F3F40404040404089
:101370004040414141414141414142424242424259
:101380004242434343434343434344444444444429
:1013900044444545454545454545464646464646F9
:1013A00046464647474747474747484848484848CA
:1013B000484849494949494949494A4A4A4A4A4A99
:1013C0004A4A4A4B4B4B4B4B4B4B4C4C4C4C4C4C6A
:1013D0004C4C4C4D4D4D4D4D4D4D4D4E4E4E4E4E3B
:1013E0004E4E4F4F4F4F4F4F4F4F50505050505009
:1013F00050505051515151515151525252525252DA
:1014000052525253535353535353545454545454A9
:101410005454545555555555555556565656565679
:101420005656565757575757575758585858585849
:1014300058585859595959595959595A5A5A5A5A1A
:101440005A5A5B5B5B5B5B5B5B5B5C5C5C5C5C5CE8
:101450005C5C5D5D5D5D5D5D5D5D5E5E5E5E5E5EB8
:101460005E5E5F5F5F5F5F5F5F5F60606060606088
:101470006060616161616161616161626262626259
:101480006262636363636363636363646464646429
:1014900064646565656565656565656666666666F9
:1014A00066666767676767676767686868686868C8
:1014B000686869696969696969696A6A6A6A6A6A98
:1014C0006A6A6B6B6B6B6B6B6B6B6C6C6C6C6C6C68
:1014D0006C6C6D6D6D6D6D6D6D6D6E6E6E6E6E6E38
:1014E0006E6E6F6F6F6F6F6F6F6F70707070707008
:1014F00070707171717171717171717272727272D9
:1015000072727373737373737373747474747474A7
:101510007474747575757575757575767676767679
:101520007676777777777777777777787878787848
:1015300078787879797979797979797A7A7A7A7A19
:101540007A7A7B7B7B7B7B7B7B7B7C7C7C7C7C7CE7
:101550007C7C7D7D7D7D7D7D7D7D7D7E7E7E7E7EB8
:101560007E7E7F7F7F7F7F7F7F7F00000001010184
:10157000020203030304040505050606070707081E
:10158000080909090A0A0A0B0B0C0C0C0D0D0E0EAA
:101590000E0F0F1010101111121212131313141436
:1015A000151515161617171718181819191A1A1AC3
:1015B0001B1B1C1C1C1D1D1D1E1E1F1F1F20202051
:1015C00021212222222323242424252525262627DF
:1015D000272728282829292A2A2A2B2B2B2C2C2C70
:1015E0002D2D2E2E2E2F2F2F303030313132323202
:1015F0003333333434343535363636373737383895
:10160000383939393A3A3A3B3B3B3C3C3D3D3D3E2B
:101610003E3E3F3F3F4040404141414242424343C2
:10162000434444444545454646464747474848485D
:101630004949494A4A4A4A4B4B4B4C4C4C4D4D4DFB
:101640004E4E4E4F4F4F4F5050505151515252529B
:10165000535353535454545555555556565657573E
:101660005757585858595959595A5A5A5B5B5B5BE6
:101670005C5C5C5C5D5D5D5E5E5E5E5F5F5F5F608F
:10168000606060616161616262626263636363643E
:1016900064646465656565666666666767676767EF
:1016A0006868686869696969696A6A6A6A6B6B6BA4
:1016B0006B6B6C6C6C6C6C6D6D6D6D6D6E6E6E6E5F
:1016C0006E6F6F6F6F6F707070707071717171711C
:1016D00071727272727273737373737374747474DD
:1016E00074747575757575757576767676767677A4
:1016F000777777777777777878787878787879796F
:101700007979797979797A7A7A7A7A7A7A7A7A7B3E
:101710007B7B7B7B7B7B7B7B7B7C7C7C7C7C7C7C12
:101720007C7C7C7C7D7D7D7D7D7D7D7D7D7D7D7DED
:101730007D7E7E7E7E7E7E7E7E7E7E7E7E7E7E7ECA
:101740007E7E7F7F7F7F7F7F7F7F7F7F7F7F7F7FAB
:101750007F7F7F7F7F7F7F7F7F7F7F7F7F7F7F7F99
:101760007F7F7F7F7F7F7F7F7F7F7F7F7F7F7F7F89
:101770007F7F7F7F7F7F7F7F7F7F7F7F7F7F7F7F79
:101780007F7F7F7F7F7F7F7F7F7F7F7F7F7F7F7F69
:101790007F7F7F7E7E7E7E7E7E7E7E7E7E7E7E7E66
:1017A0007E7E7E7E7D7D7D7D7D7D7D7D7D7D7D7D65
:1017B0007D7C7C7C7C7C7C7C7C7C7C7C7B7B7B7B6C
:1017C0007B7B7B7B7B7B7A7A7A7A7A7A7A7A7A7974
:1017D0007979797979797978787878787878777784
:1017E0007777777777767676767676767575757598
:1017F00075757574747474747473737373737372AE
:101800007272727271717171717170707070706FCB
:101810006F6F6F6F6E6E6E6E6E6D6D6D6D6D6C6CED
:101820006C6C6C6B6B6B6B6B6A6A6A6A6A69696910
:10183000696868686867676767676666666665653A
:101840006565646464646363636362626262616168
:101850006161606060605F5F5F5F5E5E5E5E5D5D98
:101860005D5C5C5C5C5B5B5B5B5A5A5A59595959CD
:101870005858585757575756565655555555545406
:1018800054535353535252525151515050504F4F41
:101890004F4F4E4E4E4D4D4D4C4C4C4B4B4B4A4A80
:1018A0004A4A4949494848484747474646464545C0
:1018B0004544444443434342424241414140404005
:1018C0003F3F3F3E3E3E3D3D3D3C3C3B3B3B3A3A4D
:1018D0003A39393938383837373736363635353496
:1018E000343433333332323231313030302F2F2FE2
:1018F0002E2E2E2D2D2C2C2C2B2B2B2A2A2A29292F
:10190000282828272727262625252524242423237D
:1019100022222222212120201F1F1F1E1E1D1D1DCD
:101920001C1C1C1B1B1A1A1A191918181817171720
:101930001616151515141413131312121211111073
:1019400010100F0F0E0E0E0D0D0C0C0C0B0B0A0AC7
:101950000A0909090808070707060605050504041A
:1019600003030302020101010000FFFFFFFEFEFE70
:10197000FDFDFCFCFCFBFBFAFAFAF9F9F8F8F8F7C4
:10198000F7F6F6F6F5F5F5F4F4F3F3F3F2F2F1F118
:10199000F1F0F0EFEFEFEEEEEDEDEDECECECEBEB6C
:1019A000EAEAEAE9E9E8E8E8E7E7E7E6E6E5E5E5BF
:1019B000E4E4E3E3E3E2E2E2E1E1E0E0E0DFDFDF11
:1019C000DEDEDDDDDDDCDCDBDBDBDADADAD9D9D863
:1019D000D8D8D7D7D7D6D6D6D5D5D4D4D4D3D3D3B1
:1019E000D2D2D1D1D1D0D0D0CFCFCFCECECDCDCD00
:1019F000CCCCCCCBCBCBCACAC9C9C9C8C8C8C7C74D
:101A0000C7C6C6C6C5C5C5C4C4C4C3C3C2C2C2C195
:101A1000C1C1C0C0C0BFBFBFBEBEBEBDBDBDBCBCDE
:101A2000BCBBBBBBBABABAB9B9B9B8B8B8B7B7B723
:101A3000B6B6B6B5B5B5B5B4B4B4B3B3B3B2B2B265
:101A4000B1B1B1B0B0B0B0AFAFAFAEAEAEADADADA5
:101A5000ACACACACABABABAAAAAAAAA9A9A9A8A8E2
:101A6000A8A8A7A7A7A6A6A6A6A5A5A5A4A4A4A41A
:101A7000A3A3A3A3A2A2A2A1A1A1A1A0A0A0A09F51
:101A80009F9F9F9E9E9E9E9D9D9D9D9C9C9C9C9B82
:101A90009B9B9B9A9A9A9A999999999898989898B1
:101AA00097979797969696969695959595949494DC
:101AB0009494939393939392929292929191919101
:101AC0009190909090908F8F8F8F8F8E8E8E8E8E24
:101AD0008E8D8D8D8D8D8C8C8C8C8C8C8B8B8B8B43
:101AE0008B8B8A8A8A8A8A8A8A898989898989895B
:101AF0008888888888888887878787878787868671
:101B00008686868686868585858585858585858480
:101B1000848484848484848484838383838383838C
:101B20008383838382828282828282828282828291
:101B30008281818181818181818181818181818194
:101B40008181808080808080808080808080808093
:101B50008080808080808080808080808080808085
:101B60008080808080808080808080808080808075
:101B70008080808080808080808080808080808065
:101B80008080808080808080808080808080808055
:101B90008080808181818181818181818181818138
:101BA0008181818182828282828282828282828219
:101BB00082838383838383838383838384848484F2
:101BC00084848484848485858585858585858586CA
:101BD000868686868686868787878787878788889A
:101BE0008888888888888989898989898A8A8A8A67
:101BF0008A8A8A8B8B8B8B8B8B8C8C8C8C8C8C8D30
:101C00008D8D8D8D8E8E8E8E8E8E8F8F8F8F8F90F1
:101C100090909090919191919192929292929393AF
:101C2000939393949494949495959595969696966B
:101C300096979797979898989898999999999A9A22
:101C40009A9A9B9B9B9B9C9C9C9C9D9D9D9D9E9ED4
:101C50009E9E9F9F9F9FA0A0A0A0A1A1A1A1A2A284
:101C6000A2A3A3A3A3A4A4A4A4A5A5A5A6A6A6A62F
:101C7000A7A7A7A8A8A8A8A9A9A9AAAAAAAAABABD6
:101C8000ABACACACACADADADAEAEAEAFAFAFB0B07B
:101C9000B0B0B1B1B1B2B2B2B3B3B3B4B4B4B5B51C
:101CA000B5B5B6B6B6B7B7B7B8B8B8B9B9B9BABABC
:101CB000BABBBBBBBCBCBCBDBDBDBEBEBEBFBFBF57
:101CC000C0C0C0C1C1C1C2C2C2C3C3C4C4C4C5C5EF
:101CD000C5C6C6C6C7C7C7C8C8C8C9C9C9CACACB86
:101CE000CBCBCCCCCCCDCDCDCECECFCFCFD0D0D01A
:101CF000D1D1D1D2D2D3D3D3D4D4D4D5D5D5D6D6AD
:101D0000D7D7D7D8D8D8D9D9DADADADBDBDBDCDC3D
:101D1000DDDDDDDEDEDEDFDFE0E0E0E1E1E2E2E2CC
:101D2000E3E3E3E4E4E5E5E5E6E6E7E7E7E8E8E85A
:101D3000E9E9EAEAEAEBEBECECECEDEDEDEEEEEFE7
:101D4000EFEFF0F0F1F1F1F2F2F3F3F3F4F4F5F573
:101D5000F5F6F6F6F7F7F8F8F8F9F9FAFAFAFBFB00
:101D6000FCFCFCFDFDFEFEFEFFFF8080808080808D
:101D70008080808080808080808080808080808063
:101D80008080808080808080808080808080808053
:101D90008080808181818181818181818181818136
:101DA0008181818182828282828282828282828217
:101DB00082838383838383838383838384848484F0
:101DC00084848484848485858585858585858586C8
:101DD0008686868686868687878787878787888898
:101DE0008888888888888989898989898A8A8A8A65
:101DF0008A8A8A8B8B8B8B8B8B8C8C8C8C8C8C8D2E
:101E00008D8D8D8D8E8E8E8E8E8E8F8F8F8F8F90EF
:101E100090909090919191919192929292929393AD
:101E20009393939494949494959595959696969669
:101E300096979797979898989898999999999A9A20
:101E40009A9A9B9B9B9B9C9C9C9C9D9D9D9D9E9ED2
:101E50009E9E9F9F9F9FA0A0A0A0A1A1A1A1A2A282
:101E6000A2A3A3A3A3A4A4A4A4A5A5A5A6A6A6A62D
:101E7000A7A7A7A8A8A8A8A9A9A9AAAAAAAAABABD4
:101E8000ABACACACACADADADAEAEAEAFAFAFB0B079
:101E9000B0B0B1B1B1B2B2B2B3B3B3B4B4B4B5B51A
:101EA000B5B5B6B6B6B7B7B7B8B8B8B9B9B9BABABA
:101EB000BABBBBBBBCBCBCBDBDBDBEBEBEBFBFBF55
:101EC000C0C0C0C1C1C1C2C2C2C3C3C4C4C4C5C5ED
:101ED000C5C6C6C6C7C7C7C8C8C8C9C9C9CACACB84
:101EE000CBCBCCCCCCCDCDCDCECECFCFCFD0D0D018
:101EF000D1D1D1D2D2D3D3D3D4D4D4D5D5D5D6D6AB
:101F0000D7D7D7D8D8D8D9D9DADADADBDBDBDCDC3B
:101F1000DDDDDDDEDEDEDFDFE0E0E0E1E1E2E2E2CA
:101F2000E3E3E3E4E4E5E5E5E6E6E7E7E7E8E8E858
:101F3000E9E9EAEAEAEBEBECECECEDEDEDEEEEEFE5
:101F4000EFEFF0F0F1F1F1F2F2F3F3F3F4F4F5F571
:101F5000F5F6F6F6F7F7F8F8F8F9F9FAFAFAFBFBFE
:101F6000FCFCFCFDFDFEFEFEFFFF00000001010188
:101F70000202030303040405050506060707070814
:101F8000080909090A0A0A0B0B0C0C0C0D0D0E0EA0
:101F90000E0F0F101010111112121213131314142C
:101FA000151515161617171718181819191A1A1AB9
:101FB0001B1B1C1C1C1D1D1D1E1E1F1F1F20202047
:101FC00021212222222323242424252525262627D5
:101FD000272728282829292A2A2A2B2B2B2C2C2C66
:101FE0002D2D2E2E2E2F2F2F3030303131323232F8
:101FF000333333343434353536363637373738388B
:10200000383939393A3A3A3B3B3B3C3C3D3D3D3E21
:102010003E3E3F3F3F4040404141414242424343B8
:102020004344444445454546464647474748484853
:102030004949494A4A4A4A4B4B4B4C4C4C4D4D4DF1
:102040004E4E4E4F4F4F4F50505051515152525291
:102050005353535354545455555555565656575734
:102060005757585858595959595A5A5A5B5B5B5BDC
:102070005C5C5C5C5D5D5D5E5E5E5E5F5F5F5F6085
:102080006060606161616162626262636363636434
:1020900064646465656565666666666767676767E5
:1020A00068686868696969696A6A6A6A6A6B6B6B99
:1020B0006B6B6C6C6C6C6C6D6D6D6D6E6E6E6E6E54
:1020C0006E6F6F6F6F6F7070707070717171717112
:1020D00071727272727273737373737374747474D3
:1020E000747475757575757575767676767676769B
:1020F0007777777777777778787878787878797965
:102100007979797979797A7A7A7A7A7A7A7A7A7B34
:102110007B7B7B7B7B7B7B7B7B7C7C7C7C7C7C7C08
:102120007C7C7C7C7D7D7D7D7D7D7D7D7D7D7D7DE3
:102130007D7E7E7E7E7E7E7E7E7E7E7E7E7E7E7EC0
:102140007E7E7F7F7F7F7F7F7F7F7F7F7F7F7F7FA1
:102150007F7F7F7F7F7F7F7F7F7F7F7F7F7F7F7F8F
:102160007F7F7F7F7F7F7F7F7F7F7F7F7F7F7F7F7F
:102170007F7F7F7F7F7F7F7F7F7F7F7F7F7F7F7F6F
:102180007F7F7F7F7F7F7F7F7F7F7F7F7F7F7F7F5F
:102190007F7F7F7F7E7E7E7E7E7E7E7E7E7E7E7E5B
:1021A0007E7E7E7E7D7D7D7D7D7D7D7D7D7D7D7D5B
:1021B0007D7C7C7C7C7C7C7C7C7C7C7C7B7B7B7B62
:1021C0007B7B7B7B7B7B7A7A7A7A7A7A7A7A7A796A
:1021D000797979797979797878787878787877777A
:1021E000777777777777767676767676757575758D
:1021F00075757574747474747473737373737372A4
:102200007272727271717171717170707070706FC1
:102210006F6F6F6F6E6E6E6E6E6D6D6D6D6D6C6CE3
:102220006C6C6C6B6B6B6B6B6A6A6A6A6A69696906
:102230006968686868676767676766666666656530
:10224000656564646464636363636262626261615E
:102250006161606060605F5F5F5F5E5E5E5E5D5D8E
:102260005D5C5C5C5C5B5B5B5B5A5A5A59595959C3
:1022700058585857575757565656555555555454FC
:1022800054535353535252525151515050504F4F37
:102290004F4F4E4E4E4D4D4D4C4C4C4B4B4B4A4A76
:1022A0004A4A4949494848484747474646464545B6
:1022B00045444444434343424242414141404040FB
:1022C0003F3F3F3E3E3E3D3D3D3C3C3C3B3B3A3A42
:1022D0003A3939393838383737373636363535348C
:1022E000343433333332323231313030302F2F2FD8
:1022F0002E2E2E2D2D2C2C2C2B2B2B2A2A2A292925
:102300002828282727272626252525242424232373
:1023100022222222212120201F1F1F1E1E1D1D1DC3
:102320001C1C1C1B1B1A1A1A191918181817171716
:102330001616151515141413131312121211111069
:1023400010100F0F0E0E0E0D0D0C0C0C0B0B0A0ABD
:102350000A09090908080707070606050505040410
:102360000303030202010101000000FFFFFEFEFE65
:10237000FDFDFCFCFCFBFBFAFAFAF9F9F8F8F8F7BA
:10238000F7F6F6F6F5F5F5F4F4F3F3F3F2F2F1F10E
:10239000F1F0F0EFEFEFEEEEEEEDEDECECECEBEB61
:1023A000EAEAEAE9E9E8E8E8E7E7E7E6E6E5E5E5B5
:1023B000E4E4E3E3E3E2E2E2E1E1E0E0E0DFDFDE08
:1023C000DEDEDDDDDDDCDCDBDBDBDADADAD9D9D859
:1023D000D8D8D7D7D7D6D6D5D5D5D4D4D4D3D3D3A8
:1023E000D2D2D1D1D1D0D0D0CFCFCFCECECDCDCDF6
:1023F000CCCCCCCBCBCBCACAC9C9C9C8C8C8C7C743
:10240000C7C6C6C6C5C5C5C4C4C4C3C3C2C2C2C18B
:10241000C1C1C0C0C0BFBFBFBEBEBEBDBDBDBCBCD4
:10242000BCBBBBBBBABABAB9B9B9B8B8B8B7B7B719
:10243000B6B6B6B5B5B5B5B4B4B4B3B3B3B2B2B25B
:10244000B1B1B1B0B0B0B0AFAFAFAEAEAEADADAD9B
:10245000ACACACACABABABAAAAAAAAA9A9A9A8A8D8
:10246000A8A8A7A7A7A6A6A6A6A5A5A5A4A4A4A410
:10247000A3A3A3A3A2A2A2A1A1A1A1A0A0A0A09F47
:102480009F9F9F9E9E9E9E9D9D9D9D9C9C9C9C9B78
:102490009B9B9B9A9A9A9A999999999898989898A7
:1024A00097979797969696969695959595949494D2
:1024B00094949393939393929292929291919191F7
:1024C0009190909090908F8F8F8F8F8E8E8E8E8E1A
:1024D0008E8D8D8D8D8D8C8C8C8C8C8C8B8B8B8B39
:1024E0008B8B8A8A8A8A8A8A8A8989898989898951
:1024F0008888888888888887878787878787868667
:102500008686868686868585858585858585858476
:102510008484848484848484848383838383838382
:102520008383838382828282828282828282828287
:10253000828181818181818181818181818181818A
:102540008181808080808080808080808080808089
:10255000808080808080808080808080808080807B
:102560008080808080808080808001000002000068
:102570000300040005070605040100080A0B0C0D02
:10258000090000000200080E0000030401000B0017
:10259000000000000000000000000000000000003B
:1025A0000408020110408040102040804080080252
:1025B00004018040201002011080102040402004BF
:1025C00004040404030405020202020403020202DA
:1025D00002060606060606040402020204040000BF
:1025E00000002300260029002C002F00000000001E
:1025F000250028002B002E003100000000002400E0
:1026000027002A002D003000080B00020202010002
:102610000904000001020200000524001001052445
:1026200001010104240206052406000107058103B7
:1026300010004009040100020A0000000705020220
:102640004000000705830240000009040400020165
:1026500003000007240100012200062402010100FA
:1026600009240301020103010006240202030009F8
:1026700024030204010101000705050240000005D2
:102680002501010107058602400000052501010220
:1026900009040300000101000009240100010900F0
:1026A000010400C18081C18081120100020200008A
:1026B00040412336800001010200011201000200A6
:1026C0000000404123368000010102000120034147
:1026D0000072006400750069006E006F0020004CFD
:1026E000004C004300200020002000200022034175
:1026F0000072006400750069006E006F0020004CDD
:102700000065006F006E006100720064006F0004DD
:1027100003090400000000000000002A2B2800002C
:1027200000000000000000000000000000000000A9
:102730000000002C9EB4A0A1A2A434A6A7A5AE368A
:102740002D3738271E1F20212223242526B333B6F8
:102750002EB7B89F8485868788898A8B8C8D8E8FCB
:10276000909192939495969798999A9B9C9D2F31CE
:1027700030A3AD350405060708090A0B0C0D0E0F32
:10278000101112131415161718191A1B1C1DAFB1AE
:10279000B0B5000904020001030000000921010195
:1027A00000012265000705840340000105010902BC
:1027B000A1010901A10085010509190129031500DD
:1027C00025019503750181029501750581030501B8
:1027D0000930093109381581257F7508950381066F
:1027E000C0C005010906A1018502050719E029E716
:1027F0001500250175019508810295017508810371
:1028000095067508150025650507190029658100DD
:10281000C000951CF222FA238828302AA02B9A3275
:1028200011241FBECFEFDAE0DEBFCDBF11E0A0E084
:10283000B1E0E4E8FDE602C005900D92AA38B107C8
:10284000D9F726E0AAE8B1E001C01D92A93CB20781
:10285000E1F718E2C0E2D8E204C02297FE010E942C
:102860007F36C231D107C9F70E94862A0C94C03640
:102870000C9400008AEB95E090939F0280939E0257
:102880001092EA011092E9011092EC011092EB0112
:102890001092EE011092ED011092F0011092EF01F2
:1028A0001092F2011092F1011092F4011092F301D2
:1028B0001092F6011092F5011092F8011092F701B2
:1028C0001092FA011092F9011092FC011092FB0192
:1028D0001092FE011092FD01109200021092FF0171
:1028E000109202021092010210920402109203024E
:1028F000109206021092050210920802109207022E
:1029000010920A021092090210920C0210920B020D
:102910008AE69DE19093E8018093E7019093DE01C0
:102920008093DD018AE691E09093D4018093D301F6
:1029300080E890E090939301809392011092980127
:1029400081E08093A00182E08093A80183E08093DE
:10295000B00184E08093B8011092B7010895DC01C2
:10296000ED91FC910190F081E02D0994DC01ED9155
:10297000FC910190F081E02D0994CF92DF92EF92CB
:10298000FF92CF93DF930E94C12461E08AE00E940E
:10299000F8268CE797E19093EC018093EB0185EBAF
:1029A00097E19093EA018093E90142E15AE760E000
:1029B00070E080919E0290919F020E94AF29109238
:1029C000100210920F0210920E0210921702109233
:1029D0001602109215021092140210929D0210928B
:1029E0001A02109219021092180210921B021092F1
:1029F0001C0280910D0281708260816080930D02C3
:102A00008FEF80939F0180EF8093A7018093AF01A8
:102A100081E08093B7011092BF018CE090E0909329
:102A20009A018093990140919201509193019A01EA
:102A3000ACE0B0E00E94833660939B0170939C01F0
:102A400080939D0190939E01E9E1F0E0F093A20153
:102A5000E093A101A9E1B0E00E9483366B017C0103
:102A60006093A3017093A4018093A5019093A601A4
:102A70008DEB9FE19093AA018093A901ADEBBFE19B
:102A80000E9483366093AB017093AC018093AD01DB
:102A90009093AE01F093B201E093B101C092B30103
:102AA000D092B401E092B501F092B6018FEF9FE1B0
:102AB0009093BA018093B901AFEFBFE10E948336D2
:102AC0006093BB017093BC018093BD019093BE01E4
:102AD0002FB7F89480E090E0A7E3B0E08093E301A3
:102AE0009093E401A093E501B093E6012FBF80E845
:102AF00090E00E94122260E875E288E695E00E946C
:102B00008728CFE0D1E08881229662E00E94F826F3
:102B100081E0C931D807B9F762E080E10E94F82668
:102B2000C9E1D1E08881229661E00E94F82681E027
:102B3000C332D807B9F760E08EE10E94F82660E062
:102B400081E10E94F826E091C702F0E0EE0FFF1F3E
:102B5000E75EFE4F61E080810E94312788EC809320
:102B60008A0184E680938B0181E491E090938D014A
:102B700080938C012FB7F89480E090E0A4E0B0E05F
:102B80008093CF019093D001A093D101B093D20153
:102B90002FBFDF91CF91FF90EF90DF90CF900895FE
:102BA0008F929F92AF92BF92CF92DF92EF92FF925D
:102BB0000F931F93CF93DF932091BE023091BF02FA
:102BC0004091C0025091C1028091D9019091DA01E7
:102BD000A091DB01B091DC01C090D501D090D6016D
:102BE000E090D701F090D8018C0D9D1DAE1DBF1D4A
:102BF0008093D5019093D601A093D701B093D801CB
:102C0000CD019770E091DD01F091DE01E80FF91F31
:102C1000A491BB27A7FDB0950E94A4362091CA01BC
:102C2000222349F12FB7F8948090C6019090C701F4
:102C3000A090C801B090C901C090C201D090C3015A
:102C4000E090C401F090C501C80CD91CEA1CFB1C23
:102C5000C092C201D092C301E092C401F092C501BA
:102C60002FBFC090C201D090C301E090C401F0908A
:102C7000C5015E2D01C050E00091E3011091E40117
:102C80002091E5013091E601C090DF01D090E00194
:102C9000E090E101F090E2010C0D1D1D2E1D3F1D85
:102CA0000093DF011093E0012093E1013093E201F2
:102CB0004B015C019BE0880C991CAA1CBB1C9A95DB
:102CC000D1F7800E911EA21EB31EC5019770E09130
:102CD000E701F091E801E80FF91F4491F0918B01B1
:102CE00080918E0190918F01C0919001D0919101BE
:102CF000DC01AC1BBD0B20918C0130918D016C016E
:102D0000EE24D7FCE094FE2C450340011124892CCD
:102D1000990C99088594881A990AAA2497FCA0947A
:102D2000BA2C0E949236BB2797FDBA95A92F982FEF
:102D3000872F880E991EAA1EBB1EAF2FB0E0A501DB
:102D400094010E949936BB2797FDBA95A92F982F19
:102D5000872FC80ED91EEA1EFB1ED0928F01C0928B
:102D60008E01CC1ADD0AFC9DC001FD9D900D112441
:102D7000892F990F990B8C0F9D1F90939101809330
:102D80009001992787FD9095DF91CF911F910F9129
:102D9000FF90EF90DF90CF90BF90AF909F908F907B
:102DA00008950C949C21813099F028F08230E9F04C
:102DB000833041F108958091D702811106C08AE6DF
:102DC00095E19093E8018093E7018AE695E126C0BA
:102DD0008091D702811106C08AE695E09093E801C0
:102DE0008093E7018AE695E019C08091D7028111AE
:102DF00006C08AE69DE09093E8018093E7018AE6A9
:102E00009DE00CC08091D702811106C08AE693E054
:102E10009093E8018093E7018AE693E09093DE01C6
:102E20008093DD0108951F93CF93DF93EC01CB01D5
:102E3000BA011FB7F89420E030E040E055E40E946A
:102E4000603420E030E040E858E30E94603420E045
:102E500030E040E857E40E9460340E947E336C8387
:102E60007D838E839F831FBFDF91CF911F91089534
:102E7000CF92DF92EF92FF920F931F93CF93DF9346
:102E8000EC018B011B821A82FB01818192819D835F
:102E90008C83C8A8D9A8EAA8FBA86781862F90E0F0
:102EA000A0E0B0E0772766276C197D098E099F099D
:102EB00023813481458156810E945E362CAB3DAB27
:102EC0004EAB5FAB1FA70EA7DF91CF911F910F9164
:102ED000FF90EF90DF90CF900895FC012281338125
:102EE0002F5F3F4F33832283448155812417350759
:102EF00010F00C9438170895CF93C62F8091CA0212
:102F00009091CB0201969093CB028093CA0270E01D
:102F100080E090E00E94AA330E940124AB01BC0132
:102F20004093C3025093C4026093C5027093C602DB
:102F300040930301509304016093050170930601CF
:102F40008FED91E00E94131768E971E082E991E04A
:102F50000E94381781E08093CA0161E08AE00E94F4
:102F60003127C093BC02CF9108958091CA029091FD
:102F7000CB0201979093CB028093CA028091BC024E
:102F800068130AC060EB71E082E991E00E94381793
:102F900060E08AE00C9431270895DC01D0968D9191
:102FA0009C91D197813F910509F4BCC03CF5803BD1
:102FB000910509F45FC07CF480399105E9F1803A0C
:102FC000910509F474C08038910509F0D8C0ED91DD
:102FD000FC91119770C0803D910509F478C02CF4E4
:102FE000803C910509F478C00895803E910509F46C
:102FF00046C0803F910509F47CC008958A3F910541
:1030000029F174F4833F910509F4A4C00CF48FC036
:10301000863F910509F4A7C0883F910591F0089576
:103020008C3F9105E9F0BCF08E3F9105F1F08F3FA8
:10303000910509F49DC008951296ED91FC911397A6
:103040003AC05896ED91FC91599796C05A96ED91D9
:10305000FC915B9791C05C96ED91FC915D978CC063
:103060005E96ED91FC915F9787C09096ED91FC91F3
:10307000919782C01696ED91FC9117971CC01C96F3
:10308000ED91FC911D97309709F479C0D3966C911E
:10309000D3976F7720E8629FB0011124D2968C916C
:1030A000D2978F77682B70529F968C9109941496C3
:1030B000ED91FC911597309709F461C0D3964C912E
:1030C000D397D2966C91D2979F968C9109941A9629
:1030D000ED91FC911B9704C01896ED91FC91199706
:1030E000309709F44CC0D2966C91D2979F968C91F0
:1030F00009941E96ED91FC911F97309709F43FC0FB
:10310000D3966C91D39770E0762F6627D2968C91E8
:10311000D297682B6138710510F060E870E0CD013E
:10312000C49609945096ED91FC91519717C0529610
:10313000ED91FC915397309711F1D3968C91D397E1
:103140008F7720E8829FC0011124D2962C912F778F
:10315000822B09945496ED91FC915597309779F014
:10316000D2968C9109945696ED91FC91579704C094
:103170009296ED91FC919397309709F009940895F8
:103180009C012F7C2038310569F0803D910551F07C
:10319000803E910539F021E0803C910509F020E066
:1031A000822F089581E0089587FF0DC09CE0980F5D
:1031B000923048F0893F39F08D3F29F0803F08F484
:1031C000807F90E0089580E090E008950F931F9332
:1031D000CF93DF938C01EB016D3F710554F46A3F8F
:1031E000710564F4663F710549F0683F710599F413
:1031F00005C0CB018E5F9109029768F4F801EB548A
:10320000FF4F80819181DC01ED91FC910190F08173
:10321000E02D6C2F0995C63FD10511F4F80116A2D7
:10322000DF91CF911F910F910895EF92FF920F932D
:103230001F93CF93DF93EB01F22E0150003118F46E
:103240006038710524F4DC0196961C9247C0613EFB
:103250007105B4F54F77E42E602BFC0136A18C018B
:103260000B541F4F361759F066A3D8018D919C91CE
:10327000DC01ED91FC910190F081E02D0995F801C0
:1032800080819181DC01ED91FC910190F081E02D34
:103290006E2D0995CF7EC03CD10501F1F8018081EA
:1032A0009181DC01ED91FC916F2D6F770190F081A0
:1032B000E02DDF91CF911F910F91FF90EF90099436
:1032C0009B01265F31092A30310540F4DF91CF910F
:1032D0001F910F91FF90EF900C94E618DF91CF9122
:1032E0001F910F91FF90EF900895AF92BF92CF92F0
:1032F000DF92EF92FF920F931F93CF93DF931F9272
:10330000CDB7DEB75C01DC0194968C91949780FF79
:10331000F0C0982F9E7F09F4ECC0D0966D917C91FF
:10332000D1979B01205831092136310548F59F96E8
:103330000C919F9797969C9121E0091711F091119C
:1033400020E0869590E08230910539F08330910538
:1033500089F0019709F0CDC00FC0222309F4C9C03C
:10336000D501D3962C91D397D2964C91C5010E944A
:103370001519BFC02111BDC0F50123A942A9F6CF7F
:10338000FB01E05FF109E031F10508F0B2C0EA5A53
:10339000FF4F0C947D36C5010F90DF91CF911F91A7
:1033A0000F91FF90EF90DF90CF90BF90AF900C9473
:1033B000E61885010C5C1F4FD501D3968C91D397ED
:1033C00090E0982F8827D2962C91822B81389105F6
:1033D00010F080E890E06C01C00ED11E7501B5EBD5
:1033E000EB0EF11C0C151D0509F481C0F70180815D
:1033F0009181D8016D918D01DC01ED91FC910190DD
:10340000F081E02D0995EECFD501D296FC90850193
:103410000B541F4FF80180819181DC01ED91FC91EB
:103420000190F081E02D63EF09956F2D6F7770E0CB
:10343000F801808191810E94B614D50196961C9264
:1034400058C0F50103A9F0E80F9F80011124D501B0
:10345000D2968C91082B7501B5EBEB0EF11CF701A0
:1034600080819181DC01ED91FC910190F081E02D52
:1034700062EF0995B8016F777727F7018081918115
:103480000E94AF14B801660F672F661F770B719506
:103490006F777727D7018D919C910E94AF1427C039
:1034A000D501D2968C918770B0E18B9FC001112419
:1034B000F50123A92F70282B85010B541F4FD8012C
:1034C0008D919C91DC01ED91FC910190F081E02DBA
:1034D00061EF29830995F80180819181DC01ED91EB
:1034E000FC910190F081E02D2981622F0995F50171
:1034F00016A20F90DF91CF911F910F91FF90EF9047
:10350000DF90CF90BF90AF900895AF92BF92DF92BF
:10351000EF92FF920F931F93CF93DF931F92CDB73C
:10352000DEB75C01DC019796DC90B0E1BD1508F4D4
:10353000BFC18C010B541F4FF80180819181DC01C8
:10354000ED91FC910480F581E02D0995892B09F41A
:10355000AFC1F80180819181DC01ED91FC91068081
:10356000F781E02D09958C01F50185A596A50097B9
:1035700009F0D3C000A7F5A08F2D0E94D4180E9497
:10358000C018882379F007FD0DC0D5019896FC92EC
:10359000989799960C93999781E090E09E969C93CA
:1035A0008E939D97F50110A5812F0E94D418813F1D
:1035B000910509F463C094F5803B910509F466C058
:1035C0006CF48039910509F461C0803A910509F4E1
:1035D0005DC08038910509F05FC058C0803D9105FD
:1035E00009F44CC02CF4803C910509F447C054C048
:1035F000803E910509F44AC0803F910509F04CC016
:1036000020E830E0D5019C963C932E939B979596AD
:103610001C92959720EFD4962C9345C0883F910536
:10362000A9F044F4833F910549F184F1863F910567
:1036300069F032C08A3F91057CF18D3F910534F0ED
:103640009C012E5F31092230310530F5D501D1962C
:103650009C938E93D0979F961C929F97D2961C9284
:10366000D297D3961C9281E0F501EC54FF4F8083F2
:10367000F50116A615A614A613A61CC122E030E07B
:10368000D5019C963C932E939B970DC023E030E090
:10369000F50134A723A707C0F50116A615A614A6A1
:1036A00013A615A205C1D5019D962D913C919E971B
:1036B0009B964D915C919C97BA01615071092617B8
:1036C000370728F1D1969C938E93D097812F8F70D6
:1036D0008F5F9F968C939F9799968C919997D2968E
:1036E0008C93D2974330510531F49A968C919A97E6
:1036F000D3968C9302C0F50113AAD5019E961C9215
:103700001E929D979C961C921E929B972BC02F5F9A
:103710003F4FF50136A725A7CBC007FF50C0980142
:1037200033272D3F31055CF42A3F310574F4273FE0
:103730003105F1F0283F310509F041C006C0A9016B
:103740004E5F510942305105D0F5D501D1963C93D9
:103750002E93D097D2961C92D297D3961C92D39741
:103760009F961C9281E0F501EC54FF4F8083A2C02C
:10377000F50124A9203F09F59C012F5F3F4FE80F79
:10378000F91F47EF44AB80EF90E0D501D1969C93B1
:103790008E93D097D2962C93D297D3963C93D3976F
:1037A0009F961C9281E0F501EC54FF4F8083F50158
:1037B00016A615A614A613A673C0D5011AC0F50146
:1037C00020A5E80FF91F203F11F404AB01C000A7AA
:1037D000D5019B96ED90FC909C9797012150310963
:1037E0008217930708F45EC098962C919897203F13
:1037F00059F49E961C921E929D979C961C921E9226
:103800009B9795961C9254C0822F29830E94D418AE
:103810008C01F50191AB80AB0E94C01829818823EF
:1038200039F0822F8F708F5FD5019F968C9302C0E5
:10383000F50117A6D50199968C919997D2968C93FC
:10384000B3E0EB16F10421F4F50182A583AB03C0CC
:10385000D501D3961C92F50116A615A614A613A69B
:1038600081E0EC54FF4F8083003B1105A1F054F43C
:103870000039110581F0003A110569F00038110591
:1038800071F409C0003D110531F0003E110519F039
:10389000003C110521F4D50195962C930BC0F50140
:1038A00015A208C00196D5019E969C938E939D9774
:1038B00010E02FC0F50180A991A98039910521F46C
:1038C000F50183A9882301F1D501D0968D919C91B2
:1038D000D197009799F0805891098136910548F465
:1038E00097968C9197979F969C91981711F08111BC
:1038F00005C0C5010E94CD1711E001C010E06D2D7B
:10390000C5010E94751905C080E890E091AB80ABBD
:10391000DBCF812F0F90DF91CF911F910F91FF90FF
:10392000EF90DF90BF90AF9008950C943A141F93DE
:10393000CF93DF9300D0CDB7DEB784E696E00E9448
:10394000972A1816190624F584E696E00E94A92AFB
:10395000182F492F693099F49923C1F01092C902A8
:103960001092C80261E08AE09A8379830E9431272D
:103970004A81612F7981872F0E947C17DECF6830C2
:10398000E1F6612F872F0E94B517D7CF40E0F9CF1E
:103990000F900F90DF91CF911F9108958F929F927A
:1039A000AF92BF92CF92DF92EF92FF920F931F934D
:1039B000CF93DF930E94971C89EE91E00E94851AB5
:1039C000C7E0D1E000EE12E0888122960E949923A0
:1039D000F801819391938F01F1E0CF30DF07A1F7D8
:1039E000CFE0D1E003ED12E0888122960E946727A4
:1039F00021E0892B09F020E0F80121938F0180E17B
:103A00000E94672721E0892B09F020E02093CD0256
:103A1000F1E0C931DF0741F79091D4028091CF02E4
:103A20009923B1F1811137C0E091C702E150E093D1
:103A3000C702F0E03196E370FF27EE0FFF1FE75E4D
:103A4000FE4F60E080810E9431278091C702837021
:103A50008093C7026AE371E088E695E00E94E52B57
:103A60004AE050E06091C70288E695E00E94DC2CB5
:103A7000E091C702F0E0EE0FFF1FE75EFE4F61E04E
:103A800080810E9431278091D4028093CF0203C0AD
:103A900081111092CF029091D6028091D102992388
:103AA00099F1811134C0E091C702EF5FE093C70242
:103AB000F0E0EE0FFF1FE95EFE4F60E080810E94A4
:103AC00031278091C70283708093C7026AE371E057
:103AD00088E695E00E94E52B4AE050E06091C7023D
:103AE00088E695E00E94DC2CE091C702F0E0EE0F42
:103AF000FF1FE75EFE4F61E080810E9431278091C9
:103B0000D6028093D10203C081111092D10290910C
:103B1000CD028091CC02992381F081111AC060E519
:103B200070E084E190E00E94EC248093A0024FE7D3
:103B3000682F81E00E947C1708C0882351F040E084
:103B40006091A00281E00E94B5178091CD02809320
:103B5000CC026091E0027091E1028091D8029091D4
:103B6000D9026817790709F492C08091C7028130A1
:103B7000F1F178F1823009F082C0EB0162969E018A
:103B800040E050E0A3E05695479537952795AA95D4
:103B9000D1F730939A0120939901A0919201B091AD
:103BA00093010E94993660939B0170939C018093CE
:103BB0009D0190939E0160E471E088E695E00E948B
:103BC000E52B4AE050E0BE0188E695E00E94A52C76
:103BD00056C0CB01AA2797FDA095BA2F8093BE02AD
:103BE0009093BF02A093C002B093C10248C080E08E
:103BF00094E0861B970BB5E0880F991FBA95E1F703
:103C0000AA2797FDA095BA2F8093A5029093A602AC
:103C1000A093A702B093A802882777FD8095982FDC
:103C20000E94AC336093B4027093B5028093B602E5
:103C30009093B702CFB7F89420E030E048E452E424
:103C40000E94113320E030E040E054E40E946034F0
:103C500020E030E040E05CE30E94603420E030E0AF
:103C600040E857E40E9460340E947E336093CF01A5
:103C70007093D0018093D1019093D201CFBF8091F6
:103C8000E0029091E1029093D9028093D802C09112
:103C9000E202D091E3028091DA029091DB02C81730
:103CA000D90709F47FC08091D302882371F065E4BD
:103CB00071E088E695E00E94E52B9E0135952795F9
:103CC0003595279520938A0165C08091C702813080
:103CD000C9F100F1823009F05DC09E0140E050E082
:103CE00063E056954795379527956A95D1F73093B8
:103CF000A2012093A101A0919201B09193010E9491
:103D000099366093A3017093A4018093A5019093C9
:103D1000A60140C09E01359527953595279520939E
:103D2000000120938B0180918A012095289F9001AA
:103D30001124232F3327280F311D30938D01209319
:103D40008C0128C0BE01882777FD8095982F0E949E
:103D5000AC336093B4027093B5028093B602909333
:103D6000B70220E030E04AE754E40E941133609348
:103D7000B8027093B9028093BA029093BB02C1E07B
:103D800020E030E0A9010E940D33811101C0C0E0A4
:103D9000C093B3028091E2029091E3029093DB0220
:103DA0008093DA02A090E402B090E5028091DC02F8
:103DB0009091DD02A816B90609F46FC08091D50272
:103DC000882309F44EC0B092C902A092C802B5017E
:103DD000882777FD8095982F0E94AC3320E030E053
:103DE00040E054E40E94A8326B017C0120E030E006
:103DF00048EC52EC0E945C3418169CF420E030E051
:103E000048EC52E4C701B6010E940D3387FF09C098
:103E10001092AE021092AF021092B0021092B10254
:103E200038C020E030E048EC52ECC701B6010E94F7
:103E30000D3320E030E048EC52E418162CF0C701B6
:103E4000B6010E94A93204C0C701B6010E94A8327F
:103E50006093AE027093AF028093B0029093B10270
:103E600018C08091C702813091F038F0823089F417
:103E7000A092AF01A092A7010CC0C501880F892FA5
:103E8000881F990B909302018093010102C0B092A8
:103E9000B202B092DD02A092DC022091E6023091E3
:103EA000E7028091DE029091DF022817390709F4BA
:103EB00042C08091C702813071F1F0F0823099F5F3
:103EC00040E050E013E056954795379527951A95B1
:103ED000D1F73093B2012093B101A0919201B0913A
:103EE00093010E9499366093B3017093B40180935B
:103EF000B5019093B60117C0832F992787FD9A9536
:103F00002091BD0230E08217930769F08093BD02D3
:103F10000E94D31608C0211532401CF41092AD0245
:103F200002C08093AD028091E6029091E7029093E7
:103F3000DF028093DE02E091C001F091C101808137
:103F4000823091F038F4882361F08130B1F468EA6E
:103F500071E00FC0833059F0843079F41092CA01B7
:103F60000CC060EA71E005C060EB71E002C068EB74
:103F700071E082E991E00E946D178091B30288237D
:103F800009F49CC18091AD02811128C08091CF01BC
:103F90009091D001A091D101B091D2014091CB017B
:103FA0005091CC016091CD017091CE01840F951F8D
:103FB000A61FB71F8093CB019093CC01A093CD0196
:103FC000B093CE01CD019170E091D301F091D40175
:103FD000E80FF91FE491E093C202BAC00E94E922FF
:103FE0000091A9021091AA022091AB023091AC027B
:103FF000601B710B820B930B0091A5021091A6021E
:104000002091A7023091A802D3E0000F111F221FB8
:10401000331FDA95D1F70617170728073907E8F491
:1040200064EF70E080E090E00E94EC24A0E0B0E05B
:10403000DC01992788278093A1029093A202A09384
:10404000A302B093A4020E94E9226093A902709394
:10405000AA028093AB029093AC028090E802909009
:10406000E902A090EA02B090EB026091A102709187
:10407000A2028091A3029091A4020E94AA336B0134
:104080007C01C501B4010E94AA339B01AC01C701A8
:10409000B6010E94A8326B017C018091E6029091EA
:1040A000E702959587959595879560E071E0681B87
:1040B000790B882777FD8095982F0E94AA339B0162
:1040C000AC01C701B6010E9411330E94793360939D
:1040D000EC027093ED028093EE029093EF022FB703
:1040E000F8948091E8029091E902A091EA02B091DF
:1040F000EB024091EC025091ED026091EE02709162
:10410000EF02840F951FA61FB71F8093E8029093BC
:10411000E902A093EA02B093EB022FBF8091E8027C
:104120009091E902A091EA02B091EB0280E88A0F37
:104130008093C2024091A5025091A6026091A7020D
:104140007091A8022AE030E088E695E00E94BD2C3C
:104150008091B20281112CC06091C202772767FD65
:104160007095872F972F0E94AC332091B802309121
:10417000B9024091BA025091BB020E946034209172
:10418000C3023091C4024091C5025091C6020E9400
:10419000A932AB01BC014093030150930401609329
:1041A0000501709306018FED91E00E94131710C076
:1041B0008091C3029091C402A091C502B091C60241
:1041C0008093030190930401A0930501B09306012D
:1041D0008091B202813009F04AC06091000170E024
:1041E00080E090E00E94AC336B017C016091C202E0
:1041F000772767FD7095872F972F0E94AC334B016F
:104200005C0120E030E04CEF52E46091B802709124
:10421000B9028091BA029091BB020E9460349B0166
:10422000AC01C501B4010E94A9329B01AC01C701D8
:10423000B6010E94A9320E9479336F3F710514F0D4
:104240006EEF70E077FF02C060E070E060938B017A
:1042500080918A016095689FB0011124672F7727AC
:10426000680F711D70938D0160938C0127C082309F
:1042700029F56091C202772767FD709560587F4FDE
:10428000882777FD8095982F0E94AC332091B80243
:104290003091B9024091BA025091BB020E94603441
:1042A0000E9479336093BE027093BF028093C00274
:1042B0009093C1021092C9021092C802609101014C
:1042C00070910201882777FD8095982F0E94AC336A
:1042D00020910301309104014091050150910601A4
:1042E0000E9460340E9479332FB7F894CB01AA273B
:1042F00097FDA095BA2F6DE0880F991FAA1FBB1FCD
:104300006A95D1F78093D9019093DA01A093DB01EC
:10431000B093DC012FBFDF91CF911F910F91FF90E0
:10432000EF90DF90CF90BF90AF909F908F900895C7
:104330000E94CE1C0C948F23909102058091010560
:10434000981306C0909104058091030598131AC034
:104350000E94D01520910205E22FF0E0EE0FFF1F22
:10436000EF5FFC4F8C509F4F918380832F5F209392
:104370000205211107C08091040591E089278093EF
:104380000405089508951F920F920FB60F921124FD
:104390002F933F938F939F93AF93BF93EF93FF938D
:1043A00081E09091F002911180E08093F0028823E7
:1043B00061F180910105E82FF0E0EE0FFF1FEF5F44
:1043C000FC4F208131818F5F80930105811119C0DD
:1043D0008091030591E0892780930305809105056D
:1043E00090910605A0910705B09108050196A11DC1
:1043F000B11D8093050590930605A0930705B09322
:1044000008053093890020938800FF91EF91BF91B8
:10441000AF919F918F913F912F910F900FBE0F9071
:104420001F9018957F928F929F92AF92BF92CF92DA
:10443000DF92EF92FF920F931F93CF93DF938C0144
:1044400080E00E943C2384B58093000385B580936F
:10445000FF0287B58093FE02CEE6D0E0888180938C
:10446000FD02980140E050E060E472E48FE090E0EB
:104470000E945E36DA01C90140E068E971E20E94FB
:10448000FD250E94522684B58093F80285B580935D
:10449000F70287B58093F60288818093F50200E8E1
:1044A00010E0F80180818093FC02C1E8D0E08881AF
:1044B0008093FB02B8E8CB2ED12CF601808191814C
:1044C0008093FA028FE6E82EF12CF7018081809329
:1044D000F90261E089E00E94F8261092600591E6F9
:1044E000A92E95E0B92E98E1F501908322E6822E5F
:1044F00025E0922E82E0F40180839883F801808386
:1045000088EE91E0A0E0B0E07724739470925B05B0
:1045100090935D0580935C0590938700809386005F
:1045200089E1888361E089E00E94F826F8018081B2
:10453000F4019081892B8068F801808320915C05CB
:1045400030915D05A4EFB0E00E9483363AE0969585
:104550008795779567953A95D1F7F60171836083D2
:1045600080915B05F5019081892B8883F70170822A
:10457000F80180818093F40288818093F302F60130
:10458000808191818093F202F70180818093F10212
:10459000DF91CF911F910F91FF90EF90DF90CF901F
:1045A000BF90AF909F908F907F90089520910105CC
:1045B0008091050590910605A0910705B091080529
:1045C0006627782F892F9A2F620F711D811D911DEB
:1045D00008950E94D6229B01AC01ADE3B0E00E9499
:1045E0009936089510920105109202051092030564
:1045F000109204050895811109C080917A008460A9
:1046000080937A0080917A008D7F1AC0813071F496
:1046100080917A008B7F80937A0080917A0082600B
:1046200080937A0080917A0081600FC0823079F4A3
:1046300080917A008B7F80937A0080917A008260EB
:1046400080937A0080917A008E7F80937A0008951B
:1046500080E090E041E050E060917E009A01082EF9
:1046600001C0220F0A94EAF7622B60937E00019644
:104670008C30910589F70895EAE7F0E09081986021
:1046800090830E94FB220C942823823108F08251EF
:10469000E82FF0E0EB58FA4D84910895EBE7F0E055
:1046A000908183FB222720F930E045E0220F331F61
:1046B0004A95E1F79F7D922B908387708064809369
:1046C0007C00EAE7F0E08081806480830895CF93E6
:1046D000DF931F92CDB7DEB7809115059091160537
:1046E0008F3F2FEF920761F0FC01E75FFA4F2081C7
:1046F000298301979093160580931505898101C040
:104700008FEF80932201809122018F3F21F08091D1
:1047100022010E944E230F90DF91CF910895809146
:1047200022018F3F29F40E94672381E080932101B9
:1047300008950E94452320911505309116052B30D0
:10474000310554F42F5F3F4F309316052093150524
:10475000F901E75FFA4F8083E82FF0E0EE0FFF1FCB
:10476000E95EFA4F808191810895EAE7F0E0808167
:10477000806480830895E091220180917800909177
:104780007900EE0FFF0BE95EFA4F91838083089565
:104790001F920F920FB60F9211242F933F934F93B6
:1047A0005F936F937F938F939F93AF93BF93EF9399
:1047B000FF9380912101882329F00E94B523109254
:1047C000210107C00E94BB230E94672381E08093E0
:1047D0002101FF91EF91BF91AF919F918F917F91B7
:1047E0006F915F914F913F912F910F900FBE0F905E
:1047F0001F9018958FEF9FEF9093160580931505E6
:104800000895CF92DF92EF92FF926B017C0120E03E
:1048100030E0A9010E940D338823B9F020E030E098
:1048200040E451E4C701B6010E9411339B01AC0181
:1048300060E070E080E090E40E94C33423E130ED5A
:1048400042E051E40E94603403C060E070E0CB01BC
:10485000FF90EF90DF90CF900895CF92DF92EF928C
:10486000FF92CF93DF93C0E0D0E0C12CD12C760132
:1048700088E00E948E268D569B4F81709927AA272B
:1048800097FDA095BA2F0C2E04C0880F991FAA1F60
:10489000BB1F0A94D2F7C82AD92AEA2AFB2A2196F2
:1048A000C032D10529F7C701B601DF91CF91FF9042
:1048B000EF90DF90CF900895CF92DF92EF92FF922A
:1048C0000F931F9340912B0150912C0160912D016A
:1048D00070912E01DA019927882784279527A6272A
:1048E000B7278C019D0145E03695279517950795CB
:1048F0004A95D1F7082719272A273B2780912701B6
:1049000090912801A0912901B0912A0180932B0157
:1049100090932C01A0932D01B0932E01409123017F
:104920005091240160912501709126014093270147
:10493000509328016093290170932A016A017B0139
:10494000C826D926EA26FB26C701B60160277127AB
:1049500082279327000F111F221F331F6027712703
:10496000822793276093230170932401809325016C
:10497000909326011F910F91FF90EF90DF90CF90C1
:104980000895CF93DF93CAE7D0E08881877F88833B
:104990000E942D2460932B0170932C0180932D0194
:1049A00090932E010E942D2460932701709328017B
:1049B0008093290190932A010E942D246093230162
:1049C000709324018093250190932601888188604B
:1049D0008883DF91CF9108950F931F93CF93DF9337
:1049E000EC018B010E945C249B01AC0144275527FC
:1049F000D801AC1BBD0B0E94A4368C0F9D1FDF910C
:104A0000CF911F910F91089582E080935A058FEF07
:104A1000809335051092370580912F058150809342
:104A2000360580913005880F81608093580585EEAA
:104A30008093BC00089584E080935A058FEF8093A3
:104A40003505109237052091310520933605A09148
:104A50003205B091330588E395E0FC013E2F381B09
:104A6000321718F43D913193F9CF8091340590E0DD
:104A7000880F991F8093580585EE8093BC00089598
:104A800085ED8093BC008091BC0084FDFCCF8091BB
:104A90005A058093590510925A0580915905833023
:104AA00011F40C941B2580915905813011F40C945C
:104AB0000425089585EC8093BC0080915A0580936D
:104AC000590510925A0580915905833011F40C94C0
:104AD0001B2580915905813011F40C94042508950B
:104AE0001F920F920FB60F9211242F933F934F9363
:104AF0005F936F937F938F939F93AF93BF93EF9346
:104B0000FF938091B900887F883239F170F4803149
:104B100009F130F4882309F45BC08830D9F05CC017
:104B20008831D9F0803261F157C08034C1F150F43E
:104B3000803331F1883309F04FC0809335050E94EE
:104B40005A254AC08035F9F08835A9F1883409F032
:104B500043C040C08091580510C0909137058091A6
:104B600036059817B8F5E091370581E08E0F8093F0
:104B70003705F0E0E85CFA4F80818093BB0015C0F8
:104B80008093350527C0E091370581E08E0F809333
:104B900037058091BB00F0E0E85CFA4F808390918C
:104BA000370580913605981710F485EC01C085E82B
:104BB0008093BC0011C0E091370581E08E0F809397
:104BC00037058091BB00F0E0E85CFA4F808302C0BB
:104BD000109235050E944025FF91EF91BF91AF9152
:104BE0009F918F917F916F915F914F913F912F9105
:104BF0000F900FBE0F901F901895CF92DF92EF92FB
:104C0000FF92709366056093650540936705A0E089
:104C1000B0E034E0880F991FAA1FBB1F3A95D1F767
:104C200020E030E0F901E659FA4DE491EE2381F0FD
:104C30006C017D01022E04C0F694E794D794C794CA
:104C40000A94D2F751E0C516D506E104F10438F014
:104C50002F5F3F4F2B30310529F780E01EC0A1E0C8
:104C6000B0E002C0AA0FBB1F2A95E2F7A701960188
:104C70000E94A43624E095958795779567952A95A7
:104C8000D1F7709364056093630510926E0082E023
:104C900084BDE5BDCA94C7BC81E0FF90EF90DF9072
:104CA000CF900895EEE6F0E08081826080830895E1
:104CB00078941F920F920FB60F9211242F933F9367
:104CC0004F935F936F937F938F939F93AF93BF9314
:104CD000EF93FF9310926E00E0916505F0916605E9
:104CE0000995F89480916705882311F016BCA99A5C
:104CF00080916E00826080936E00FF91EF91BF9172
:104D0000AF919F918F917F916F915F914F913F9163
:104D10002F910F900FBE0F901F901895823108F0C1
:104D20008251E82FF0E0EB58FA4DE49180917B003E
:104D3000E3FB222720F930E095E0220F331F9A95FC
:104D4000E1F78F7D822B80937B00E77080912F01AC
:104D500020E4829FC0011124E82BE0937C00809125
:104D60007A00806480937A0080917A0086FDFCCF7F
:104D7000809178002091790090E0922B089590E046
:104D8000FC013197EE30F10590F5EA59FF4F0C9494
:104D90007D36809180008F7703C0809180008F7D69
:104DA00080938000089584B58F7702C084B58F7D8D
:104DB00084BD0895809190008F7707C08091900006
:104DC0008F7D03C080919000877F8093900008952D
:104DD0008091C0008F7703C08091C0008F7D809349
:104DE000C00008958091C200877F8093C20008951B
:104DF000CF93DF9390E0FC01E056FA4D2491FC0143
:104E0000E154FA4D8491882349F190E0880F991F6D
:104E1000FC01E650FA4DA591B49184519A4DFC01E4
:104E2000C591D4919FB7611108C0F8948C912095D9
:104E300082238C93888182230AC0623051F4F894D3
:104E40008C91322F309583238C938881822B888399
:104E500004C0F8948C91822B8C939FBFDF91CF91EB
:104E600008950F931F93CF93DF931F92CDB7DEB7B3
:104E7000282F30E0F901EF57FA4D8491F901E056FF
:104E8000FA4D1491F901E154FA4D04910023C9F04F
:104E9000882321F069830E94BF266981E02FF0E01A
:104EA000EE0FFF1FE451FA4DA591B4919FB7F8940E
:104EB0008C91611103C01095812301C0812B8C93CB
:104EC0009FBF0F90DF91CF911F910F910895CF93C6
:104ED000DF93282F30E0F901EF57FA4D8491F90163
:104EE000E056FA4DD491F901E154FA4DC491CC2326
:104EF00091F081110E94BF26EC2FF0E0EE0FFF1F12
:104F0000E252FA4DA591B4912C912D2381E090E0CD
:104F100021F480E002C080E090E0DF91CF9108951D
:104F20008091B6059091B7052091B8053091B905EB
:104F3000821B930B8F73992708952091B6053091AA
:104F4000B7058091B8059091B9052817390749F040
:104F5000E091B805F091B905EA58FA4F808190E0E8
:104F600008958FEF9FEF08952091B6053091B70512
:104F70008091B8059091B90528173907A9F0E091FB
:104F8000B805F091B905EA58FA4F80812091B8052B
:104F90003091B9052F5F3F4F2F7333273093B905F9
:104FA0002093B80590E008958FEF9FEF0895CF9379
:104FB000DF93C091B605D091B7052196CF73DD2759
:104FC0008091B8059091B905C817D90799F082E08A
:104FD0000E94602D8F3F2FEF920761F0E091B605A0
:104FE000F091B705EA58FA4F8083D093B705C09384
:104FF000B605DFCFDF91CF91089583E00C94E62FC3
:105000000F931F93CF93DF931F92CDB7DEB78C0121
:10501000698380913701882359F041E050E0BE0157
:105020006F5F7F4F83E00E94A42D181619063CF095
:1050300081E090E0F8019383828380E090E00F901C
:10504000DF91CF911F910F910895FC0120812E5F78
:10505000208342E450E068E076E280E80C943F2E42
:10506000FC0181819081913A59F4813209F04BC061
:1050700047E050E060E371E080E00E943F2E45C0D1
:10508000913209F040C0803239F467E070E080E38B
:1050900091E00E94832E39C0823209F034C08281AF
:1050A000809337018091300190913101A0913201BC
:1050B000B0913301803B9440A105B10531F5809159
:1050C000370180FD12C087E797E79093010880932E
:1050D00000082BE088E190E00FB6F894A895809343
:1050E00060000FBE2093600010C088E10FB6F894F6
:1050F00080936000109260000FBEA8951092010886
:105100001092000802C080E0089581E0089508959B
:1051100010926B0510926A0588EE93E0A0E0B0E073
:1051200080936C0590936D05A0936E05B0936F0509
:105130008EE491E090936905809368050895FC01E1
:1051400024853585F901E05CFF4F8081918132969D
:1051500020813181821B930B8F7399270895FC0165
:1051600084859585FC01E05CFF4F4081518132963A
:10517000208131814217530741F00190F081E02DE9
:10518000E80FF91F808190E008958FEF9FEF089559
:10519000FC0184859585FC01E05CFF4F40815181D5
:1051A0003296208131814217530779F0A081B18175
:1051B000A80FB91F8C91208131812F5F3F4F2F7332
:1051C00033273183208390E008958FEF9FEF089578
:1051D000FC0181A1882329F0A489B5898C9186FFDF
:1051E000FBCF11A20895CF93DF93FC01268537856D
:1051F000D901A05CBF4F8D919C91119701968F733F
:105200009927E901CE5BDF4F4881598184179507C3
:10521000D9F30D90BC91A02DA20FB31F6C93A6855E
:10522000B785A05CBF4F11969C938E93A689B789D2
:105230002C9181E090E0078C02C0880F991F0A949E
:10524000E2F7282B2C9381E081A30488F589E02DD7
:1052500080818064808381E090E0DF91CF91089528
:1052600008951F920F920FB60F9211242F933F9320
:105270004F938F939F93EF93FF938091C80082FD8C
:105280001CC04091CE00809160069091610601960D
:105290008F739927209162063091630682179307D6
:1052A00071F0E0916006F0916106E05EF94F408395
:1052B000909361068093600602C08091CE00FF91BA
:1052C000EF919F918F914F913F912F910F900FBE32
:1052D0000F901F9018958AEB95E00E949F28892BCC
:1052E00011F00C94302908951F920F920FB60F926F
:1052F00011242F933F938F939F93EF93FF932091CC
:105300001C0630911D0680911E0690911F062817DD
:10531000390731F48091C9008F7D8093C90014C092
:10532000E0911E06F0911F06E452FA4F2081809111
:105330001E0690911F0601968F73992790931F0662
:1053400080931E062093CE00FF91EF919F918F9145
:105350003F912F910F900FBE0F901F901895CF92F5
:10536000DF92EF92FF92CF93DF93EC016A017B0112
:10537000411581EE580761057105F9F0EC89FD8949
:1053800081E090E008A002C0880F991F0A94E2F71C
:10539000808360E079E08DE390E0A70196010E94B0
:1053A0003C362150310941095109569547953795A9
:1053B0002795211580E1380798F0EC89FD89108246
:1053C00060E874E88EE190E0A70196010E943C3607
:1053D000215031094109510956954795379527952F
:1053E000E889F9893083EA89FB89208319A2EE894B
:1053F000FF89408181E090E09C010C8C02C0220F6B
:10540000331F0A94E2F7422B4083EE89FF894081E3
:105410009C010D8C02C0220F331F0A94E2F7422B2D
:105420004083EE89FF8940819C010E8C02C0220FCF
:10543000331F0A94E2F7422B4083EE89FF892081D3
:105440000F8C02C0880F991F0A94E2F7809582237F
:105450008083DF91CF91FF90EF90DF90CF90089500
:105460001092BD051092BC0588EE93E0A0E0B0E07C
:105470008093BE059093BF05A093C005B093C1056E
:1054800080E691E09093BB058093BA0580E296E0B8
:105490009093C7058093C6058CED95E09093C90560
:1054A0008093C8058DEC90E09093CB058093CA055E
:1054B0008CEC90E09093CD058093CC0588EC90E047
:1054C0009093CF058093CE0589EC90E09093D10521
:1054D0008093D0058AEC90E09093D3058093D20519
:1054E0008EEC90E09093D5058093D40584E0809372
:1054F000D60583E08093D70587E08093D80585E0C3
:105500008093D90581E08093DA0508950E940E31D9
:105510008AEA96E00E94F02F0E94BD14CBE6D9E201
:105520000E94D1162097E1F30E946B29F9CFFC016C
:10553000EE5BFF4F20813181329680819181281B63
:10554000390B2F733327C9019695879596958795C3
:105550000895CF93DF93EC01E881F9810480F58110
:10556000E02D0995CC5BDF4F288139812C5F3F4FBF
:105570002F73332739832883DF91CF910895CF92FA
:10558000DF92EF92FF920F931F93CF93DF937C01F3
:105590008C010E5B1F4FD801CD91DC912196CF730A
:1055A000DD276C01B4E4CB0ED11CF6018081918122
:1055B000C817D907B9F085E00E94602D8F3FEFEF43
:1055C0009E0781F0D801ED91FC911197EE0DFF1D22
:1055D00082831196DC93CE93CD91DC912196CF738B
:1055E000DD27E3CFDF91CF911F910F91FF90EF90D7
:1055F000DF90CF90089586E00C94E62FCF93DF9351
:1056000000D000D0CDB7DEB749835A836B837C834B
:1056100086E00E94912D811103C080E090E00BC0D4
:1056200044E050E0BE016F5F7F4F86E00E94A42DF2
:105630001816190694F70F900F900F900F90DF91A6
:10564000CF91089587E797E790930108809300082A
:105650002BE088E190E00FB6F894A8958093600065
:105660000FBE209360000895FF920F931F93CF9376
:10567000DF93EC01E881F9810190F081E02D09953B
:10568000181619062CF060E070E080E090E03AC057
:10569000FE01EC5BFF4FA081B181AC0FBD1F1296E4
:1056A000FC9080819181019620E430E0B9010E9454
:1056B00028368C0F9D1FDC0112960C918081918100
:1056C0000296B9010E9428368C0F9D1FDC011296AC
:1056D0001C91808191810396B9010E9428368C0F1C
:1056E0009D1FFC01C281F7E0FF1208C0003F31F4AA
:1056F000C73F21F4113011F40E94222B6F2D702F1F
:10570000812F9C2FDF91CF911F910F91FF900895D2
:10571000FC0120812F5F208342E150E060E976E2C6
:1057200080E80C943F2EFC0120812F5F208346E40B
:1057300050E06AE476E280E80C943F2E80E0089521
:1057400080E791E090936506809364060895CF9278
:10575000DF92EF92FF920F931F93CF93DF936C0131
:105760007A01EB01E60EF71E00E010E0CE15DF0532
:1057700061F06991D601ED91FC910190F081E02DED
:10578000C6010995080F191FF1CFC801DF91CF910C
:105790001F910F91FF90EF90DF90CF9008956115CA
:1057A000710581F0DB010D900020E9F7AD0141505A
:1057B0005109461B570BDC01ED91FC910280F381EE
:1057C000E02D099480E090E008950C94CF2BDC014B
:1057D000ED91FC910190F081E02D09940F931F93BE
:1057E000CF93DF93EC016DE00E94E72B8C016AE020
:1057F000CE010E94E72B800F911FDF91CF911F9167
:105800000F9108958F929F92AF92BF92CF92DF92A5
:10581000EF92FF920F931F93CF93DF93CDB7DEB735
:10582000A1970FB6F894DEBF0FBECDBF7C01C42E8A
:10583000E52FCB01D22E19A221E02D1510F02AE080
:10584000D22E8E010F5D1F4F8D2C912CA12CB12CCF
:105850006C2D7E2FA50194010E943C368C2DD29E8A
:1058600080191124015011098A3014F4805D01C09F
:10587000895CF8018083211531054105510521F02E
:10588000C22EE32FCA01E4CFB801C7010E94CF2B7B
:10589000A1960FB6F894DEBF0FBECDBFDF91CF91BA
:1058A0001F910F91FF90EF90DF90CF90BF90AF903E
:1058B0009F908F900895CF92DF92EF92FF920F9377
:1058C0001F93CF93DF93EC016A017B012115310512
:1058D00079F4E881F9810190F081E02D642FDF9166
:1058E000CF911F910F91FF90EF90DF90CF9009948F
:1058F0002A303105E9F477FF1AC06DE20E94E72BE8
:105900008C0144275527BA014C195D096E097F099E
:105910002AE0CE010E94022C800F911FDF91CF91CF
:105920001F910F91FF90EF90DF90CF9008952AE0A4
:10593000B701A601CE01DF91CF911F910F91FF908A
:10594000EF90DF90CF900C94022C0F931F93CF9386
:10595000DF93EC019A01AB01662757FD6095762F26
:105960000E945B2C8C01CE010E94EE2B800F911FB8
:10597000DF91CF911F910F9108950F931F93CF93B4
:10598000DF93EC010E945B2C8C01CE010E94EE2B78
:10599000800F911FDF91CF911F910F9108952115D5
:1059A000310541F4DC01ED91FC910190F081E02D95
:1059B000642F09940C94022C0F931F93CF93DF93C1
:1059C000EC019A01462F50E060E070E00E94CF2C7D
:1059D0008C01CE010E94EE2B800F911FDF91CF91A1
:1059E0001F910F910895615030F02091F100FC015A
:1059F00020830196F8CF289884E68093B106089515
:105A00002FB7FC012083F89467706093E900089534
:105A1000CF93DF931F92CDB7DEB7682FCE010196EB
:105A20000E94002D8091F20099819FBF0F90DF911D
:105A3000CF910895FF920F931F93CF93DF9300D0E0
:105A4000CDB7DEB7F62E8A019091B006992311F0FA
:105A500057FF03C08FEF9FEF2BC0682FCE01019639
:105A60007A830E94002D8091F20090E0A8017A8153
:105A7000801791070CF4AC01EF2DF72FF40E84E69C
:105A8000FE1639F028988093B1069091F100919319
:105A9000F7CF4115510521F08091F200882321F0C4
:105AA00089818FBFCA0104C08BE68093E800F8CFDC
:105AB0000F900F90DF91CF911F910F91FF9008955C
:105AC000CF93DF931F92CDB7DEB741E050E0BE0128
:105AD0006F5F7F4F0E941A2D019719F4898190E022
