:100000000C94100E0C94380E0C94380E0C94380E80
:100010000C94380E0C94380E0C94380E0C94380E48
:100020000C94380E0C94380E0C94A1290C9447288B
:100030000C94380E0C94380E0C94380E0C94380E28
:100040000C94380E0C94380E0C94380E0C94380E18
:100050000C94E11C0C9412210C94380E0C944D2A33
:100060000C94380E0C94BA230C94FD230C94380E87
:100070000C94380E0C94E21E0C94380E0C94380E2E
:100080000C94380E0C94380E0C94380E0C94380ED8
:100090000C9428200C94380E0C94380E0C94380EC6
:1000A0000C94380E0C94380E0C94380EA1160E17C2
:1000B000E216C9163C173C179D163C179D163C17B7
:1000C0009D169D169D163C179D169D165C215F2161
:1000D00052215621802180218021632167216B21BB
:1000E0007121752180217B2107634236B79BD8A7F8
:1000F0001A39685618AEBAAB558C1D3CB7CC57634D
:10010000BD6DEDFD753EF6177231BF000000803FFA
:1001100008000000BE922449123EABAAAA2ABECD16
:10012000CCCC4C3E00000080BEABAAAAAA3E000088
:100130000000BF000000803F000000000008417880
:10014000D3BB4387D1133D190E3CC3BD4282AD2BB7
:100150003E68EC8276BED98FE1A93E4C80EFFFBEAF
:1001600001C4FF7F3F0000000000000102040507FA
:1001700008090B0C0E0F101213151617191A1B1D58
:100180001E20212224252628292A2C2D2E2F3132EB
:1001900033353637383A3B3C3D3E40414243444597
:1001A0004647494A4B4C4D4E4F5051525354555669
:1001B000575859595A5B5C5D5E5E5F60616262636D
:1001C000646465666667686869696A6A6B6B6C6CAB
:1001D0006D6D6E6E6F6F6F70707070717171717226
:1001E00072727272727273737373737373737372E6
:1001F00072727272727271717171707070706F6FF1
:100200006F6E6E6D6D6C6C6B6B6A6A69696868673E
:10021000666665646463626261605F5E5E5D5C5BCE
:100220005A59595857565554535251504F4E4D4C98
:100230004B4A4947464544434241403E3D3C3B3A98
:10024000383736353332312F2E2D2C2A29282625C2
:10025000242221201E1D1C1A191716151312100F07
:100260000E0C0B0908070504020100FEFDFBFAF85D
:10027000F7F6F4F3F1F0EFEDECEAE9E8E6E5E4E2B5
:10028000E1DFDEDDDBDAD9D7D6D5D3D2D1D0CECD02
:10029000CCCAC9C8C7C5C4C3C2C1BFBEBDBCBBBA36
:1002A000B9B8B6B5B4B3B2B1B0AFAEADACABAAA944
:1002B000A8A7A6A6A5A4A3A2A1A1A09F9E9D9D9C20
:1002C0009B9B9A99999897979696959594949393C2
:1002D000929291919090908F8F8F8F8E8E8E8E8D27
:1002E0008D8D8D8D8D8D8C8C8C8C8C8C8C8C8C8C48
:1002F0008D8D8D8D8D8D8E8E8E8E8F8F8F8F90901C
:1003000090919192929393949495959696979798AD
:1003100099999A9B9B9C9D9D9E9FA0A1A1A2A3A4FD
:10032000A5A6A6A7A8A9AAABACADAEAFB0B1B2B313
:10033000B4B5B6B8B9BABBBCBDBEC0C1C2C3C4C5F2
:10034000C7C8C9CACCCDCED0D1D2D3D5D6D7D9DAA9
:10035000DBDDDEDFE1E2E4E5E6E8E9EAECEDEFF043
:10036000F1F3F4F6F7F8FAFBFDFE174466777870C0
:10037000655E5E63696D6D6A65626265686B6B6917
:1003800066646466686A6A686665656668696968FD
:1003900066656566686969686665656668696968ED
:1003A00066666666686868686666666668686868DD
:1003B00067666666686868686766666767686867CC
:1003C00067666667676868676766666767686867BD
:1003D00067666667676868676766666767686867AD
:1003E000676666676768686767666667676868679D
:1003F000676666676768686767666667676868678D
:10040000676666676768686767666667676868677C
:10041000676666676768686767666667686868686A
:10042000676666676868686866666666686868685A
:10043000666666666869696866656566686969684A
:10044000666565666869696866656566686A6A683A
:1004500066646466696B6B68656262656A6D6D6926
:10046000635E5E65707877664417EAC5ADA2A1A7A2
:10047000ADB2B2AFABA8A8AAADAFAFADABA9A9ABB7
:10048000ADAEAEADABAAAAABACADADADABAAAAABAF
:10049000ACADADACABABABABACADADACABABABABA0
:1004A000ACADADACACABABABACADADACACABABAC8D
:1004B000ACADADACACABABACACADADACACABABAC7C
:1004C000ACADADACACABABACACADADACACABABAC6C
:1004D000ACADADACACABABACACADACACACABABAC5D
:1004E000ACACACACACABABACACACACACACABABAC50
:1004F000ACACACACACABABACACACACACACABABAC40
:10050000ACADADACACABABACACADADACACABABAC2B
:10051000ACADADACACABABACACADADACACABABAC1B
:10052000ACADADACACABABACACADADACABABABAC0C
:10053000ACADADACABABABABACADADACABABABABFF
:10054000ACADADACABAAAAABADADADACABAAAAABF2
:10055000ADAEAEADABA9A9ABADAFAFADAAA8A8ABE0
:10056000AFB2B2ADA7A1A2ADC5EA00000000010183
:10057000010102020202030303030404040404054C
:1005800005050506060607070707080808080909FC
:1005900009090A0A0A0A0B0B0B0B0B0C0C0C0D0DAC
:1005A0000D0D0E0E0E0E0F0F0F0F1010101011115B
:1005B000111111121212121313131314141414150F
:1005C00015151516161616171717181818181919BD
:1005D00019191A1A1A1A1B1B1B1B1C1C1C1C1D1D6B
:1005E0001D1D1E1E1E1E1F1F1F1F2020202020211C
:1005F00021202222222223232323242424242525CC
:10060000252526262626272727272828282828297B
:100610002929292A2A2A2A2B2B2B2C2C2C2C2D2D2C
:100620002D2D2E2E2E2E2F2F2F2F303030303131DA
:10063000313131323232333333333434343434358C
:10064000353536363636363737373838383838393C
:1006500039393A3A3A3A3B3B3B3B3C3C3C3C3C3DEB
:100660003D3D3E3E3E3E3E3F3F3F3F40404041419C
:10067000414141424242424343434444444445454C
:1006800045454646464647474747484848484949FA
:100690004949494A4A4A4A4B4B4B4C4C4C4C4D4DAC
:1006A0004D4D4D4E4E4E4E4F4F4F5050505051515C
:1006B000515151525252535353535454545455550B
:1006C00055555556565656575757585858585859BD
:1006D00059595A5A5A5A5B5B5B5B5C5C5C5C5C5D6B
:1006E0005D5D5E5E5E5E5F5F5F5F5F60606061611B
:1006F00061616262626263636363636464646565CB
:10070000656565666666666767676768686869697C
:100710006969696A6A6A6A6B6B6B6C6C6C6C6D6D2B
:100720006D6D6E6E6E6E6F6F6F6F707070707071DA
:10073000717171727272727373737374747474758D
:10074000757575767676777777777878787878793B
:1007500079797A7A7A7A7B7B7B7B7C7C7C7C7D7DE9
:100760007D7D7D7E7E7E7F7F7F7F7F7F7F7E7E7EA5
:100770007E7E7D7D7D7D7C7C7C7C7B7B7B7B7A7AB9
:100780007A7A7979797978787878777777777676E9
:100790007676757575757474747473737373727219
:1007A0007271717171707070706F6F6F6F6E6E6E4D
:1007B0006E6D6D6D6D6D6C6C6C6C6B6B6B6B6A6A7A
:1007C0006A696969696868686868676767666666AC
:1007D00066666565656564646463636363626262DB
:1007E000626161616160606060605F5F5F5E5E5E0C
:1007F0005E5D5D5D5D5C5C5C5C5B5B5B5B5B5A5A3C
:100800005A5A595959595858585857575757565668
:100810005656555555545454545453535353525299
:100820005251515151505050504F4F4F4F4E4E4ECC
:100830004E4E4D4D4D4D4C4C4C4C4B4B4B4A4A4AF9
:100840004A4A494949494848484847474747464628
:100850004645454545454444444443434343424259
:100860004241414141414040403F3F3F3F3F3E3E8A
:100870003E3E3D3D3D3C3C3C3C3C3B3B3B3B3A3AB9
:100880003A3A3939393838383838373737373636E9
:10089000363635353535343434333333333232321A
:1008A0003232313131313030302F2F2F2F2E2E2E4A
:1008B0002E2E2D2D2D2D2C2C2C2B2B2B2B2A2A2A7A
:1008C0002A292929292928282828272727262626AA
:1008D00026262525252424242424232323222222DA
:1008E000222121202121202020201F1F1F1F1E1E0A
:1008F0001E1E1D1D1D1D1C1C1C1B1B1B1B1B1A1A39
:100900001A19191919191818181817171717161668
:100910001616151515151414141313131313121298
:10092000121211111110101010100F0F0F0F0E0EC8
:100930000E0E0D0D0D0D0C0C0C0C0B0B0B0B0A0AF7
:100940000A0A090909090808080807070706060628
:100950000605050505050404040403030303020258
:1009600002010101010100000000FFFFFFFEFEFE89
:10097000FEFDFDFDFDFCFCFCFCFBFBFBFBFAFAFABB
:10098000FAFAF9F9F9F8F8F8F8F8F7F7F7F7F6F6E8
:10099000F6F5F5F5F5F4F4F4F4F4F3F3F3F3F2F219
:1009A000F2F1F1F1F1F1F0F0F0F0EFEFEFEEEEEE49
:1009B000EEEDEDEDEDEDECECECEBEBEBEBEBEAEA79
:1009C000EAEAE9E9E9E9E8E8E8E7E7E7E7E7E6E6A8
:1009D000E6E6E5E5E5E4E4E4E4E3E3E3E3E3E2E2D9
:1009E000E2E1E1E1E1E0E0E0E0E0DFDFDFDFDEDE09
:1009F000DEDDDDDDDDDCDCDCDCDCDBDBDBDADADA3A
:100A0000DAD9D9D9D9D8D8D8D8D8D7D7D7D7D6D668
:100A1000D6D5D5D5D5D4D4D4D4D3D3D3D3D2D2D29A
:100A2000D2D1D1D1D1D0D0D0D0D0CFCFCFCFCECEC8
:100A3000CECECDCDCDCDCCCCCCCBCBCBCBCACACAF8
:100A4000CAC9C9C9C9C8C8C8C8C7C7C7C7C6C6C62A
:100A5000C6C5C5C5C5C4C4C4C4C4C3C3C3C3C2C258
:100A6000C2C1C1C1C1C1C0C0C0C0BFBFBFBFBEBE87
:100A7000BEBDBDBDBDBDBCBCBCBCBBBBBBBBBABAB7
:100A8000BABAB9B9B9B9B8B8B8B8B7B7B7B7B6B6E6
:100A9000B6B6B5B5B5B5B4B4B4B4B3B3B3B3B2B216
:100AA000B2B2B1B1B1B1B0B0B0B0AFAFAFAEAEAE47
:100AB000AEAEADADADADACACACABABABABAAAAAA78
:100AC000AAA9A9A9A9A8A8A8A8A7A7A7A7A7A6A6A9
:100AD000A6A5A5A5A5A5A4A4A4A3A3A3A3A2A2A2D9
:100AE000A2A1A1A1A1A1A0A0A0A09F9F9F9F9E9E07
:100AF0009E9E9D9D9D9D9C9C9C9C9B9B9B9B9A9A36
:100B00009A9A999999989898989797979797969667
:100B10009696959595949494949393939393929297
:100B20009292919191919090908F8F8F8F8F8E8EC6
:100B30008E8E8D8D8D8C8C8C8C8B8B8B8B8A8A8AF8
:100B40008A89898989898888888887878786868627
:100B50008686858585858484848483838382828256
:100B6000828181818181808080808080808081817C
:100B70008181818282828383838383848484858547
:100B800085858686868687878787878888888889F7
:100B900089898A8A8A8A8A8B8B8B8C8C8C8C8D8DA6
:100BA0008D8D8D8E8E8E8E8F8F8F90909090919157
:100BB0009191929292929393939394949494959505
:100BC00095959696969697979797979898989999B6
:100BD00099999A9A9A9A9A9B9B9B9C9C9C9C9D9D66
:100BE0009D9D9E9E9E9E9F9F9F9F9FA0A0A0A1A116
:100BF000A1A1A1A2A2A2A2A3A3A3A4A4A4A4A4A5C8
:100C0000A5A5A5A6A6A6A7A7A7A7A7A8A8A8A9A976
:100C1000A9A9AAAAAAAAAAABABABACACACACACAD26
:100C2000ADADAEAEAEAEAEAFAFAFAFB0B0B0B1B1D6
:100C3000B1B1B2B2B2B2B2B3B3B3B3B4B4B4B5B586
:100C4000B5B5B6B6B6B6B6B7B7B7B7B8B8B8B9B936
:100C5000B9B9BABABABABBBBBBBBBCBCBCBCBDBDE4
:100C6000BDBDBEBEBEBEBEBFBFBFC0C0C0C0C0C196
:100C7000C1C1C2C2C2C2C2C3C3C3C3C4C4C4C5C546
:100C8000C5C5C6C6C6C6C6C7C7C7C7C8C8C8C8C9F7
:100C9000C9C9C9CACACACBCBCBCBCBCCCCCCCCCDA7
:100CA000CDCDCDCECECECFCFCFCFCFD0D0D0D1D156
:100CB000D1D1D2D2D2D2D2D3D3D3D3D4D4D4D4D507
:100CC000D5D5D5D6D6D6D7D7D7D7D8D8D8D8D8D9B6
:100CD000D9D9D9DADADADBDBDBDBDBDCDCDCDCDD67
:100CE000DDDDDEDEDEDEDEDFDFDFE0E0E0E0E1E115
:100CF000E1E1E1E2E2E2E3E3E3E3E4E4E4E4E4E5C6
:100D0000E5E5E5E6E6E6E6E7E7E7E8E8E8E8E9E975
:100D1000E9E9E9EAEAEAEBEBEBEBECECECECEDED24
:100D2000EDEDEDEEEEEEEFEFEFEFF0F0F0F0F1F1D4
:100D3000F1F1F2F2F2F2F3F3F3F3F3F4F4F4F5F584
:100D4000F5F5F5F6F6F6F7F7F7F7F8F8F8F8F9F934
:100D5000F9F9FAFAFAFAFBFBFBFBFBFCFCFCFDFDE4
:100D6000FDFDFEFEFEFEFFFFFFFF80808080808095
:100D7000808081818181818181818282828282825F
:100D80008282828383838383838384848484848430
:100D90008484848585858585858586868686868600
:100DA00086868787878787878787888888888888CF
:100DB000888889898989898989898A8A8A8A8A8A9F
:100DC0008A8A8A8B8B8B8B8B8B8B8B8C8C8C8C8C71
:100DD0008C8C8D8D8D8D8D8D8D8D8D8E8E8E8E8E40
:100DE0008E8E8F8F8F8F8F8F8F8F9090909090900F
:100DF00090909191919191919191929292929292DF
:100E000092929393939393939393949494949494AE
:100E1000949494959595959595959696969696967F
:100E20009696969797979797979797989898989850
:100E300098989899999999999999999A9A9A9A9A20
:100E40009A9A9B9B9B9B9B9B9B9B9B9C9C9C9C9CEF
:100E50009C9C9C9D9D9D9D9D9D9D9E9E9E9E9E9EBF
:100E60009E9E9F9F9F9F9F9F9F9F9FA0A0A0A0A08F
:100E7000A0A0A1A1A1A1A1A1A1A1A2A2A2A2A2A25E
:100E8000A2A2A3A3A3A3A3A3A3A3A4A4A4A4A4A42E
:100E9000A4A4A4A5A5A5A5A5A5A5A6A6A6A6A6A6FF
:100EA000A6A6A7A7A7A7A7A7A7A7A8A8A8A8A8A8CE
:100EB000A8A8A8A9A9A9A9A9A9A9A9AAAAAAAAAAA0
:100EC000AAAAABABABABABABABABACACACACACAC6E
:100ED000ACACADADADADADADADADAEAEAEAEAEAE3E
:100EE000AEAEAFAFAFAFAFAFAFAFAFB0B0B0B0B00F
:100EF000B0B0B0B1B1B1B1B1B1B1B2B2B2B2B2B2DF
:100F0000B2B2B3B3B3B3B3B3B3B3B4B4B4B4B4B4AD
:100F1000B4B4B5B5B5B5B5B5B5B5B6B6B6B6B6B67D
:100F2000B6B6B7B7B7B7B7B7B7B7B8B8B8B8B8B84D
:100F3000B8B8B8B9B9B9B9B9B9B9BABABABABABA1E
:100F4000BABABBBBBBBBBBBBBBBBBCBCBCBCBCBCED
:100F5000BCBCBDBDBDBDBDBDBDBDBDBEBEBEBEBEBE
:100F6000BEBEBFBFBFBFBFBFBFBFC0C0C0C0C0C08D
:100F7000C0C0C1C1C1C1C1C1C1C1C1C2C2C2C2C25E
:100F8000C2C2C2C3C3C3C3C3C3C3C4C4C4C4C4C42E
:100F9000C4C4C4C5C5C5C5C5C5C5C5C6C6C6C6C6FF
:100FA000C6C6C7C7C7C7C7C7C7C7C8C8C8C8C8C8CD
:100FB000C8C8C9C9C9C9C9C9C9C9CACACACACACA9D
:100FC000CACACBCBCBCBCBCBCBCBCBCCCCCCCCCC6E
:100FD000CCCCCCCDCDCDCDCDCDCDCDCECECECECE3F
:100FE000CECECFCFCFCFCFCFCFCFD0D0D0D0D0D00D
:100FF000D0D0D1D1D1D1D1D1D1D1D2D2D2D2D2D2DD
:10100000D2D2D2D3D3D3D3D3D3D3D4D4D4D4D4D4AD
:10101000D4D4D4D5D5D5D5D5D5D5D6D6D6D6D6D67D
:10102000D6D6D6D7D7D7D7D7D7D7D8D8D8D8D8D84D
:10103000D8D8D9D9D9D9D9D9D9D9D9DADADADADA1D
:10104000DADADADBDBDBDBDBDBDBDCDCDCDCDCDCED
:10105000DCDCDCDDDDDDDDDDDDDDDDDEDEDEDEDEBE
:10106000DEDEDFDFDFDFDFDFDFDFDFE0E0E0E0E08D
:10107000E0E0E1E1E1E1E1E1E1E1E2E2E2E2E2E25C
:10108000E2E2E2E3E3E3E3E3E3E3E4E4E4E4E4E42D
:10109000E4E4E5E5E5E5E5E5E5E5E6E6E6E6E6E6FC
:1010A000E6E6E7E7E7E7E7E7E7E7E7E8E8E8E8E8CD
:1010B000E8E8E9E9E9E9E9E9E9E9EAEAEAEAEAEA9C
:1010C000EAEAEBEBEBEBEBEBEBEBECECECECECEC6C
:1010D000ECECECEDEDEDEDEDEDEDEDEEEEEEEEEE3E
:1010E000EEEEEEEFEFEFEFEFEFEFF0F0F0F0F0F00D
:1010F000F0F0F0F1F1F1F1F1F1F1F1F2F2F2F2F2DE
:10110000F2F2F3F3F3F3F3F3F3F3F4F4F4F4F4F4AB
:10111000F4F4F4F5F5F5F5F5F5F5F6F6F6F6F6F67C
:10112000F6F6F7F7F7F7F7F7F7F7F8F8F8F8F8F84B
:10113000F8F8F8F9F9F9F9F9F9F9F9FAFAFAFAFA1D
:10114000FAFAFBFBFBFBFBFBFBFBFCFCFCFCFCFCEB
:10115000FCFCFDFDFDFDFDFDFDFDFDFEFEFEFEFEBC
:10116000FEFEFFFFFFFFFFFFFFFF0000000000008B
:10117000000000010101010101010102020202025D
:10118000020203030303030303030404040404042B
:1011900004040505050505050505060606060606FB
:1011A00006060707070707070707070808080808CC
:1011B000080809090909090909090A0A0A0A0A0A9B
:1011C0000A0A0B0B0B0B0B0B0B0B0B0C0C0C0C0C6C
:1011D0000C0C0D0D0D0D0D0D0D0D0D0E0E0E0E0E3C
:1011E0000E0E0F0F0F0F0F0F0F0F0F10101010100C
:1011F00010101011111111111111121212121212DC
:1012000012121313131313131313141414141414AA
:10121000141415151515151515151516161616167B
:10122000161617171717171717171818181818184A
:1012300018181919191919191919191A1A1A1A1A1B
:101240001A1A1A1B1B1B1B1B1B1B1C1C1C1C1C1CEB
:101250001C1C1D1D1D1D1D1D1D1D1E1E1E1E1E1EBA
:101260001E1E1F1F1F1F1F1F1F1F1F20202020208B
:10127000202021212021212221212022222222225C
:10128000222223232323232323232424242424242A
:1012900024242425252525252525262626262626FB
:1012A00026262727272727272727282828282828CA
:1012B000282829292929292929292A2A2A2A2A2A9A
:1012C0002A2A2A2B2B2B2B2B2B2B2B2C2C2C2C2C6C
:1012D0002C2C2D2D2D2D2D2D2D2D2E2E2E2E2E2E3A
:1012E0002E2E2E2F2F2F2F2F2F2F2F30303030300C
:1012F00030303131313131313131323232323232DA
:1013000032323333333333333333333434343434AA
:101310003434353535353535353536363636363679
:10132000363636373737373737373738383838384B
:1013300038383939393939393939393A3A3A3A3A1A
:101340003A3A3A3B3B3B3B3B3B3B3C3C3C3C3C3CEA
:101350003C3C3D3D3D3D3D3D3D3D3E3E3E3E3E3EB9
:101360003E3E3F3F3F3F3F3F3F3F40404040404089
:101370004040414141414141414142424242424259
:101380004242434343434343434344444444444429
:1013900044444545454545454545464646464646F9
:1013A00046464647474747474747484848484848CA
:1013B000484849494949494949494A4A4A4A4A4A99
:1013C0004A4A4A4B4B4B4B4B4B4B4C4C4C4C4C4C6A
:1013D0004C4C4C4D4D4D4D4D4D4D4D4E4E4E4E4E3B
:1013E0004E4E4F4F4F4F4F4F4F4F50505050505009
:1013F00050505051515151515151525252525252DA
:1014000052525253535353535353545454545454A9
:101410005454545555555555555556565656565679
:101420005656565757575757575758585858585849
:1014300058585859595959595959595A5A5A5A5A1A
:101440005A5A5B5B5B5B5B5B5B5B5C5C5C5C5C5CE8
:101450005C5C5D5D5D5D5D5D5D5D5E5E5E5E5E5EB8
:101460005E5E5F5F5F5F5F5F5F5F60606060606088
:101470006060616161616161616161626262626259
:101480006262636363636363636363646464646429
:1014900064646565656565656565656666666666F9
:1014A00066666767676767676767686868686868C8
:1014B000686869696969696969696A6A6A6A6A6A98
:1014C0006A6A6B6B6B6B6B6B6B6B6C6C6C6C6C6C68
:1014D0006C6C6D6D6D6D6D6D6D6D6E6E6E6E6E6E38
:1014E0006E6E6F6F6F6F6F6F6F6F70707070707008
:1014F00070707171717171717171717272727272D9
:1015000072727373737373737373747474747474A7
:101510007474747575757575757575767676767679
:101520007676777777777777777777787878787848
:1015300078787879797979797979797A7A7A7A7A19
:101540007A7A7B7B7B7B7B7B7B7B7C7C7C7C7C7CE7
:101550007C7C7D7D7D7D7D7D7D7D7D7E7E7E7E7EB8
:101560007E7E7F7F7F7F7F7F7F7F80808080808087
:10157000808080808080808080808080808080816A
:101580008181818181818182828282828282838340
:101590008383838484848484858585858586868603
:1015A00086878787888888888989898A8A8A8A8BB2
:1015B0008B8B8C8C8C8D8D8E8E8E8F8F8F9090914F
:1015C00091919292939393949495959696969797DA
:1015D000989899999A9A9B9B9C9C9D9D9E9E9F9F53
:1015E000A0A0A1A1A2A2A3A3A4A4A5A6A6A7A7A8C0
:1015F000A8A9AAAAABABACACADAEAEAFB0B0B1B11E
:10160000B2B3B3B4B5B5B6B6B7B8B8B9BABABBBC6D
:10161000BCBDBEBEBFC0C0C1C2C2C3C4C5C5C6C7B3
:10162000C7C8C9C9CACBCCCCCDCECFCFD0D1D1D2EF
:10163000D3D4D4D5D6D7D7D8D9DADADBDCDDDDDE22
:10164000DFE0E0E1E2E3E3E4E5E6E7E7E8E9EAEA50
:10165000EBECEDEDEEEFF0F1F1F2F3F4F5F5F6F77A
:10166000F8F8F9FAFBFCFCFDFEFFFF0001020303A2
:10167000040506070708090A0A0B0C0D0E0E0F10C9
:101680001112121314151516171818191A1B1C1CF1
:101690001D1E1F1F2021222223242525262728281E
:1016A000292A2B2B2C2D2E2E2F3030313233333450
:1016B000353636373838393A3A3B3C3D3D3E3F3F88
:1016C0004041414243434445454647474849494ACA
:1016D0004A4B4C4C4D4E4E4F4F5051515253535418
:1016E000545555565757585859595A5B5B5C5C5D71
:1016F0005D5E5E5F5F6060616162626363646465DA
:10170000656666676768686969696A6A6B6B6C6C4D
:101710006C6D6D6E6E6E6F6F7070707171717272D4
:101720007373737474747575757576767677777769
:1017300077787878797979797A7A7A7A7A7B7B7B13
:101740007B7B7C7C7C7C7C7D7D7D7D7D7D7D7E7ED0
:101750007E7E7E7E7E7E7F7F7F7F7F7F7F7F7F7F9F
:101760007F7F7F7F7F7F7F7F7F7F7F7F7F7F7F7F89
:101770007F7F7F7F7F7F7F7F7F7F7F7F7F7F7F7E7A
:101780007E7E7E7E7E7E7E7D7D7D7D7D7D7D7C7C84
:101790007C7C7C7B7B7B7B7B7A7A7A7A7A797979A1
:1017A00079787878777777777676767575757574D2
:1017B000747473737372727171717070706F6F6E15
:1017C0006E6E6D6D6C6C6C6B6B6A6A69696968686A
:1017D00067676666656564646363626261616060D1
:1017E0005F5F5E5E5D5D5C5C5B5B5A595958585744
:1017F0005756555554545353525151504F4F4E4EC6
:101800004D4C4C4B4A4A4949484747464545444355
:1018100043424141403F3F3E3D3D3C3B3A3A3938EF
:101820003837363635343333323130302F2E2E2D93
:101830002C2B2B2A29282827262525242322222140
:10184000201F1F1E1D1C1C1B1A19181817161515F2
:101850001413121211100F0E0E0D0C0B0A0A0908A8
:1018600007070605040303020100FFFFFEFDFCFC61
:10187000FBFAF9F8F8F7F6F5F5F4F3F2F1F1F0EF19
:10188000EEEDEDECEBEAEAE9E8E7E7E6E5E4E3E3D1
:10189000E2E1E0E0DFDEDDDDDCDBDADAD9D8D7D784
:1018A000D6D5D4D4D3D2D1D1D0CFCFCECDCCCCCB32
:1018B000CAC9C9C8C7C7C6C5C5C4C3C2C2C1C0C0DA
:1018C000BFBEBEBDBCBCBBBABAB9B8B8B7B6B6B578
:1018D000B5B4B3B3B2B1B1B0B0AFAEAEADACACAB0A
:1018E000ABAAAAA9A8A8A7A7A6A6A5A4A4A3A3A291
:1018F000A2A1A1A0A09F9F9E9E9D9D9C9C9B9B9A08
:101900009A99999898979796969695959494939373
:1019100093929291919190908F8F8F8E8E8E8D8DCC
:101920008C8C8C8B8B8B8A8A8A8A89898988888817
:10193000888787878686868685858585858484844D
:101940008484838383838382828282828282818170
:101950008181818181818080808080808080808081
:101960008080808080808080808001000002000074
:101970000300040005070605040100080A0B0C0D0E
:10198000090000000200080E0000030401000B0023
:101990000000000000000000000000000000000047
:1019A000040802011040804010204080408008025E
:1019B00004018040201002011080102040402004CB
:1019C00004040404030405020202020403020202E6
:1019D00002060606060606040402020204040000CB
:1019E00000002300260029002C002F00000000002A
:1019F000250028002B002E003100000000002400EC
:101A000027002A002D003000080B0002020201000E
:101A10000904000001020200000524001001052451
:101A200001010104240206052406000107058103C3
:101A300010004009040100020A000000070502022C
:101A40004000000705830240000009040400020171
:101A50000300000724010001220006240201010006
:101A60000924030102010301000624020203000904
:101A700024030204010101000705050240000005DE
:101A8000250101010705860240000005250101022C
:101A900009040300000101000009240100010900FC
:101AA000010400C18081C180811201000202000096
:101AB00040412336800001010200011201000200B2
:101AC0000000404123368000010102000120034153
:101AD0000072006400750069006E006F0020004C09
:101AE000004C004300200020002000200022034181
:101AF0000072006400750069006E006F0020004CE9
:101B00000065006F006E006100720064006F0004E9
:101B100003090400000000000000002A2B28000038
:101B200000000000000000000000000000000000B5
:101B30000000002C9EB4A0A1A2A434A6A7A5AE3696
:101B40002D3738271E1F20212223242526B333B604
:101B50002EB7B89F8485868788898A8B8C8D8E8FD7
:101B6000909192939495969798999A9B9C9D2F31DA
:101B700030A3AD350405060708090A0B0C0D0E0F3E
:101B8000101112131415161718191A1B1C1DAFB1BA
:101B9000B0B50009040200010300000009210101A1
:101BA00000012265000705840340000105010902C8
:101BB000A1010901A10085010509190129031500E9
:101BC00025019503750181029501750581030501C4
:101BD0000930093109381581257F7508950381067B
:101BE000C0C005010906A1018502050719E029E722
:101BF000150025017501950881029501750881037D
:101C000095067508150025650507190029658100E9
:101C1000C00047170C1E141F0F23C0241226672C68
:101C200011241FBECFEFDAE0DEBFCDBF11E0A0E090
:101C3000B1E0EAEFF1E602C005900D92AE3AB107CD
:101C4000D9F726E0AEEAB1E001C01D92A13FB2078C
:101C5000E1F71EE0C0E1DEE004C02197FE010E9432
:101C6000A230C930D107C9F70E94FB240C94FB3085
:101C70000C940000DC01ED91FC910190F081E02DCD
:101C80000994DC01ED91FC910190F081E02D099423
:101C9000CF93DF93E4E0F3E0C6E1D1E0AEE1B1E061
:101CA00081E021913191299339938D9393E0EC3028
:101CB000F907B9F7DF91CF9108958F929F92AF9274
:101CC000BF92CF92DF92EF92FF92CF93DF9320915A
:101CD000E3023091E4024091E5025091E602C090A7
:101CE0000202D0900302E0900402F090050280917D
:101CF000FE019091FF01A0910002B09101028C0DB4
:101D00009D1DAE1DBF1D8093FE019093FF01A0930A
:101D10000002B0930102CD019370E0910602F091B0
:101D20000702E80FF91FA4910A2E000CBB0B0E94BA
:101D3000C9304B015C018091F301882349F12FB731
:101D4000F8948091EF019091F001A091F101B09190
:101D5000F2014091EB015091EC016091ED01709125
:101D6000EE01840F951FA61FB71F8093EB01909380
:101D7000EC01A093ED01B093EE012FBF8091EB0138
:101D80009091EC01A091ED01B091EE014A2F01C0BC
:101D900040E080910C0290910D02A0910E02B09152
:101DA0000F02C0900802D0900902E0900A02F09061
:101DB0000B028C0D9D1DAE1DBF1D809308029093DC
:101DC0000902A0930A02B0930B02750164012AE094
:101DD000CC0CDD1CEE1CFF1C2A95D1F78C0D9D1D33
:101DE000AE1DBF1DCD019370E0911002F091110264
:101DF000E80FF91F5491F091B4018091B7019091CF
:101E0000B801C091B901D091BA01DC01AC1BBD0B86
:101E10002091B5013091B6014C01092E000CAA08A1
:101E2000BB08540360011124CD2CDD0CDD08C594E2
:101E3000C81AD90A0D2C000CEE08FF080E94B73012
:101E4000BB2797FDBA95A92F982F872FA701960139
:101E5000280F391F4A1F5B1FAF2FB0E00E94BE3012
:101E6000BB2797FDBA95A92F982F872F880D991D0D
:101E7000AA1DBB1D9093B8018093B701BC016C1BD8
:101E80007D0BF69FC001F79F900D1124892F990FAC
:101E9000990B8C0F9D1F9093BA018093B901082E66
:101EA000000C990BDF91CF91FF90EF90DF90CF90D6
:101EB000BF90AF909F908F9008950C94BA1C909112
:101EC0001703923021F0682F8AE00C94BD21089509
:101ED000CF92DF92EF92FF920F931F93CF93DF93F6
:101EE00084E0C82E81E0D82EE12CF12C0BE311E028
:101EF000E8018881229661E00E94BD2181E0C3341F
:101F0000D807B9F7F60161916F01C7010E94ED3062
:101F1000F80180810E5F1F4F60E00E94BD21F1E05B
:101F200001341F07A9F78FEFE81AF80AE0E1EE166F
:101F3000F104E1F66BE784E690E0DF91CF911F9129
:101F40000F91FF90EF90DF90CF900C94ED300F93B6
:101F50001F93CF93DF9304E011E0C0E0D0E0CE0107
:101F60000E94E530F80181938F012196C031D1059F
:101F7000B1F76BE784E690E0DF91CF911F910F916D
:101F80000C94ED30CF92DF92EF92FF92CF93DF93DC
:101F900084E690E00E94E5308B3711F40E94A70F91
:101FA000C1E3D1E08881229662E00E94812181E034
:101FB000CB33D807B9F762E080E10E948121CBE3FF
:101FC000D1E08881229661E00E94812181E0C534C0
:101FD000D807B9F78AEA91E1909315028093140229
:101FE0008FEA91E1909313028093120242E15AE743
:101FF00060E070E08091C7029091C8020E9438248E
:102000001092390210923802109237021092400258
:1020100010923F0210923E0210923D021092C602B0
:102020001092430210924202109241021092440216
:1020300010924502809136028170826081608093A7
:1020400036028FEF8093C80180EF8093D001809398
:10205000D80181E08093E0011092E8018CE090E0EB
:102060009093C3018093C2014091BB015091BC0188
:102070009A01ACE0B0E00E94A8306093C401709374
:10208000C5018093C6019093C701E9E1F0E0F093A8
:10209000CB01E093CA01A9E1B0E00E94A8306B0136
:1020A0007C016093CC017093CD018093CE0190931D
:1020B000CF018DEB9FE19093D3018093D201ADEBE3
:1020C000BFE10E94A8306093D4017093D501809342
:1020D000D6019093D701F093DB01E093DA01C0922F
:1020E000DC01D092DD01E092DE01F092DF018FEFA2
:1020F0009FE19093E3018093E201AFEFBFE10E9483
:10210000A8306093E4017093E5018093E601909319
:10211000E7018FB7F89440E050E86BE170E040933E
:102120000C0250930D0260930E0270930F028FBF4A
:1021300080E890E00E94301D60E08EE10E948121E5
:1021400060E081E10E948121E091EC02F0E0EE0F7D
:10215000FF1FE55CFE4F61E080810E94BD2188EC9D
:102160008093B30184E68093B40181E491E090937D
:10217000B6018093B5018FB7F89440E050E064E079
:1021800070E04093F8015093F9016093FA01709365
:10219000FB018FBFDF91CF91FF90EF90DF90CF9049
:1021A0000895813081F028F08230B9F08330F9F061
:1021B00008958091FB02811103C08AE695E11DC05C
:1021C0008AE695E121C08091FB02811103C08AE675
:1021D00095E013C08AE695E017C08091FB0281115B
:1021E00003C08AE69DE009C08AE69DE00DC08091AB
:1021F000FB02811107C08AE693E09093110280935D
:10220000100208958AE693E09093070280930602F5
:1022100008950F931F93CF938C01CB01BA01CFB7D1
:10222000F89420E030E040E854E40E943F2E20E0A3
:1022300030E040E858E30E943F2E20E030E040E8E4
:1022400057E40E943F2E0E945E2DF801648375833F
:1022500086839783CFBFCF911F910F910895CF921F
:10226000DF92EF92FF920F931F93CF93DF93EC01D6
:102270008B011B821A82FB01818192819D838C8359
:10228000C8A8D9A8EAA8FBA86781862F90E0A0E09B
:10229000B0E0DC0199278827BC01CD016C197D09CC
:1022A0008E099F0923813481458156810E948330A4
:1022B0002CAB3DAB4EAB5FAB1FA70EA7DF91CF9111
:1022C0001F910F91FF90EF90DF90CF900895FC0148
:1022D000228133812F5F3F4F338322834481558195
:1022E0002417350710F00C942F110895CF93DF9326
:1022F000C82FD1E0D093EF02682F70E080E090E02B
:102300000E948D2D0E941B1FAB01BC014093E8026F
:102310005093E9026093EA027093EB024093250127
:1023200050932601609327017093280188E092E082
:102330000E94091161EC71E08BEB91E00E942F117A
:10234000D093F30181E00E945F0FC093E102DF911F
:10235000CF910895862F61110C94761108951092F3
:10236000EF028091E102681309C069ED71E08BEB27
:1023700091E00E942F1180E00C945F0F0895CF939D
:10238000DF9390E0EC01CC5FDE4F28812223C1F087
:102390002091EF02222369F0019760E170E00E9432
:1023A0004D30FC01EC5FFE4F40E0608181E00E9417
:1023B000AF11888181110E94761188818093C902B2
:1023C000DF91CF9108958091B0018F5F60914401BA
:1023D0000E944130892F9093B0010C94BF118091DD
:1023E000B1019091B20101969093B2018093B10135
:1023F0002091470130E02817390770F48091EF02EF
:10240000882351F0E091B001F0E0EC5FFE4F40E036
:10241000608181E00E94AF112091B1013091B20141
:1024200080914501909146018217930730F40E94F4
:10243000E3111092B2011092B10108958091170337
:10244000813011F40C94EF110895909116038913C3
:1024500004C090911403992301F1909143012CE061
:10246000929F902D11249093AE018093160340E02B
:102470006091150381E00E94AF119091AE018091AF
:102480001603890F8093AF0181110E94761180910C
:102490001603809315031092140308959091F90286
:1024A0008091F4029923C1F081111BC081E08093D7
:1024B000F4028091F702811150C06091AF01E09168
:1024C000B001F0E0EC5FFE4F608340E081E00E94ED
:1024D000AF118091B00125C0882319F01092F40249
:1024E00008952091FB028091F602222311F18111BF
:1024F00025C081E08093F6028091F702882351F095
:10250000992341F061E671E080E995E00E9471262F
:102510000C94680F8091B001E82FF0E0EC5FFE4F63
:1025200010828F5F609144010E9441309093B0010E
:102530000895882319F01092F60208959091F702F9
:102540008091F202992331F0811107C081E08093DC
:10255000F202089581111092F2020895DC01D096E2
:102560008D919C91D197813F910509F4BCC03CF5B8
:10257000803B910509F45FC07CF480399105E9F155
:10258000803A910509F474C08038910509F0D8C0EB
:10259000ED91FC91119770C0803D910509F478C0D0
:1025A0002CF4803C910509F478C00895803E910593
:1025B00009F446C0803F910509F47CC008958A3F24
:1025C000910529F174F4833F910509F4A4C00CF43A
:1025D0008FC0863F910509F4A7C0883F910591F00F
:1025E00008958C3F9105E9F0BCF08E3F9105F1F024
:1025F0008F3F910509F49DC008951296ED91FC91CD
:1026000013973AC05896ED91FC91599796C05A96F7
:10261000ED91FC915B9791C05C96ED91FC915D977B
:102620008CC05E96ED91FC915F9787C09096ED917E
:10263000FC91919782C01696ED91FC9117971CC062
:102640001C96ED91FC911D97309709F479C0D396B3
:102650006C91D3976F7720E8629FB0011124D296D6
:102660008C91D2978F77682B70529F968C9109949A
:102670001496ED91FC911597309709F461C0D396AB
:102680004C91D397D2966C91D2979F968C91099446
:102690001A96ED91FC911B9704C01896ED91FC9150
:1026A0001997309709F44CC0D2966C91D2979F96A7
:1026B0008C9109941E96ED91FC911F97309709F427
:1026C0003FC0D3966C91D39770E0762F6627D29651
:1026D0008C91D297682B6138710510F060E870E03A
:1026E000CD01C49609945096ED91FC91519717C075
:1026F0005296ED91FC915397309711F1D3968C91AE
:10270000D3978F7720E8829FC0011124D2962C9115
:102710002F77822B09945496ED91FC915597309721
:1027200079F0D2968C9109945696ED91FC91579739
:1027300004C09296ED91FC919397309709F009941B
:1027400008959C018F7C8038910561F0203D310512
:1027500049F081E0203E310539F0203C310521F07F
:1027600080E0089581E00895089587FF0DC09CE002
:10277000980F923048F0982F9B7F993F29F0803F27
:1027800008F4807F90E0089580E090E00895CF9273
:10279000DF92EF92FF920F931F93CF93DF931F92DD
:1027A000CDB7DEB76C018C010B541F4FD8018D9152
:1027B0009C91DC01ED91FC910480F581E02D09955F
:1027C000892B09F4ADC1F80180819181DC01ED9183
:1027D000FC910680F781E02D09958C01F60125A575
:1027E00036A52115310509F0D2C080A7F5A08F2D9F
:1027F0000E94B5130E94A113882379F007FD0DC034
:10280000D6019896FC92989799960C93999781E0A7
:1028100090E09E969C938E939D97F60110A5812F34
:102820000E94B513813F910509F463C094F5803B84
:10283000910509F466C06CF48039910509F461C012
:10284000803A910509F45DC08038910509F05FC0B8
:1028500058C0803D910509F44CC02CF4803C910592
:1028600009F447C054C0803E910509F44AC0803F36
:10287000910509F04CC020E830E0D6019C963C93CD
:102880002E939B9795961C92959720EFD4962C9318
:1028900045C0883F9105A9F044F4833F910549F173
:1028A00084F1863F910569F032C08A3F91057CF141
:1028B0008D3F910534F09C012E5F310922303105A6
:1028C00030F5D601D1969C938E93D0979F961C920B
:1028D0009F97D2961C92D297D3961C92F601EC54F5
:1028E000FF4F81E08083F60116A615A614A613A655
:1028F00018C122E030E0D6019C963C932E939B9722
:102900000DC023E030E0F60134A723A707C0F6018D
:1029100016A615A614A613A615A202C1D6019D9649
:102920002D913C919E979B964D915C919C97BA01FD
:10293000615071092617370720F1D1969C938E9329
:10294000D0971F701F5F9F961C939F9799968C91AD
:102950009997D2968C93D2974330510531F49A9639
:102960008C919A97D3968C9302C0F60113AAD60144
:102970009E961C921E929D979C961C921E929B97CF
:102980002AC02F5F3F4FF60136A725A7C9C087FF92
:102990004DC099278D3F91055CF48A3F910574F4F1
:1029A000873F9105F1F0883F910509F03FC006C0CF
:1029B000AC014E5F510942305105C0F5D601D196A8
:1029C0009C938E93D097D2961C92D297D3961C92BA
:1029D000D3979F961C92F601EC54FF4F81E08083C1
:1029E000A0C0F60184A9803FB9F5C9010196E20FA4
:1029F000F31F47EF44AB20EF30E0D601D1963C9374
:102A00002E93D097D2968C93D297D3969C93D397AC
:102A10009F961C92F601EC54FF4F81E08083F601F3
:102A200016A615A614A613A615A27BC0F60180A5AE
:102A3000E20FF31F803FE1F404ABD6019B96ED90CB
:102A4000FC909C97C70101972817390708F461C0CB
:102A500098962C91203F71F4D6019E961C921E925E
:102A60009D979C961C921E929B9795961C9258C07F
:102A700000A7E3CF822F29830E94B5138C01F601B2
:102A800091AB80AB0E94A1132981882339F0822F5A
:102A90008F708F5FD6019F968C9302C0F60117A6A8
:102AA000D60199968C919997D2968C93B3E0EB16B8
:102AB000F10421F4F60182A583AB03C0D601D396BD
:102AC0001C92F60116A615A614A613A681E0EC54D6
:102AD000FF4F8083003B1105A1F054F4003911052C
:102AE00081F0003A110569F00038110571F409C050
:102AF000003D110531F0003E110519F0003C1105B3
:102B000021F4D60195962C9302C0F60115A281E01E
:102B100008C02F5F3F4FD6019E963C932E939D9702
:102B200080E00F90DF91CF911F910F91FF90EF9078
:102B3000DF90CF9008950F931F93CF93DF938C0175
:102B4000EB016D3F710554F46A3F710564F4663F13
:102B5000710549F0683F710599F405C0CB018E5F9E
:102B60009109029768F4F801EB54FF4F808191813D
:102B7000DC01ED91FC910190F081E02D6C2F099525
:102B8000C63FD10511F4F80116A2DF91CF911F9134
:102B90000F910895DF92EF92FF920F931F93CF93BF
:102BA000DF93EB01122F0150003118F460387105EA
:102BB00024F4DC0196961C924AC0613E7105C4F56E
:102BC0004F77D42E602BFC0126A1AC014B545F4FF4
:102BD0007A01261759F066A3DA018D919C91DC01E8
:102BE000ED91FC910190F081E02D0995F701808134
:102BF0009181DC01ED91FC910190F081E02D6D2D32
:102C00000995CF7EC03CD10511F1F70180819181FA
:102C1000DC01ED91FC91612F6F770190F081E02D47
:102C2000DF91CF911F910F91FF90EF90DF9009946A
:102C30009B01265F31092A30310548F4DF91CF919D
:102C40001F910F91FF90EF90DF900C949B15DF91F7
:102C5000CF911F910F91FF90EF90DF900895AF9269
:102C6000BF92CF92DF92FF920F931F93CF93DF9388
:102C7000DC0197962C91213110F0F12CFDC0EC0174
:102C80000E94C713F82E8823C1F388A999A9803917
:102C9000910521F48BA9882309F4E5C088A999A995
:102CA000009771F0805891098136910508F0E0C0D5
:102CB0008FA19FA5981709F4DBC0882309F4D8C019
:102CC000F12C2CA1822F817020FFD6C0922F9E7FE5
:102CD00009F4D2C068A979A9AB014058510941361D
:102CE000510500F50FA59FA1091719F081E0911179
:102CF00080E0269530E02230310541F02330310567
:102D000049F02130310509F0B7C006C0882309F425
:102D1000B3C002C08111B0C02BA94AA9CE010E9444
:102D2000CA15AAC0FB01E05FF109E031F10508F026
:102D3000A3C0EA5AFF4F0C94A230CE010E949B150B
:102D40009BC08E010C5C1F4F68014BA950E0542FB3
:102D500044278AA99A01282B2138310510F020E850
:102D600030E0020F131F5E01B5EBAB0EB11CC016B5
:102D7000D10609F476C0F50180819181D6016D916B
:102D80006D01DC01ED91FC910190F081E02D099540
:102D9000EECF1AA96E01B5EBCB0ED11CF6018081E6
:102DA0009181DC01ED91FC910190F081E02D63EFC8
:102DB00009951F77612F70E0F601808191810E9453
:102DC000410E4FC00BA9F0E80F9F800111248AA982
:102DD000082B6E0125EBC20ED11CD6018D919C9162
:102DE000DC01ED91FC910190F081E02D62EF0995FD
:102DF000B8016F777727F601808191810E943A0EA2
:102E0000B801660F672F661F770B71956F7777276D
:102E1000D6018D919C910E943A0E23C08AA9877099
:102E2000B0E18B9FC00111241BA91F70182B6E01EC
:102E3000E5EBCE0ED11CD6018D919C91DC01ED917C
:102E4000FC910190F081E02D61EF0995F601808100
:102E50009181DC01ED91FC910190F081E02D612FD9
:102E600009951EA209C080E890E099AB88AB16CF07
:102E7000CE010E94AE1225CF8F2DDF91CF911F91F1
:102E80000F91FF90DF90CF90BF90AF900895E2E157
:102E9000F2E082EE95E09093C8028093C70211821F
:102EA0001082138212821582148217821682118672
:102EB0001086138612861586148617861686118A42
:102EC000108A138A128A158A148A178A168A118E12
:102ED000108E138E128E158E148E178E168E11A2D2
:102EE00010A213A212A28AE695E190931102809398
:102EF000100290930702809306028AE691E0909375
:102F0000FD018093FC01EBEBF1E080E890E0918320
:102F10008083168281E0868782E0868B83E0868FBD
:102F200084E086A315A208954F925F926F927F92DC
:102F3000AF92BF92CF92DF92EF92FF920F931F93C7
:102F4000CF93DF938CE896E00E940C2518161906A3
:102F5000E4F48CE896E00E941D25262F682F293086
:102F600059F4992369F01092EE021092ED02882331
:102F700049F30E947611E6CF283021F7492F01C08E
:102F800040E0872F0E94AF11DDCF82E192E00E94E6
:102F90002F16C9E2D1E004E0C02E03E0D02E0EE1EE
:102FA00011E086E1E82E81E0F82E888122960E94C9
:102FB000B31EF601819391936F01F80120812223C2
:102FC000A1F0F70120813181409114015091150148
:102FD000B901640F751F681779072CF0241B350B96
:102FE0008217930714F4F80110820F5F1F4FF2E06D
:102FF000EF0EF11C81E0C133D807B9F6C1E3D1E08F
:1030000007EF12E0888122960E94ED2121E0892BB2
:1030100009F020E0F80121938F0180E10E94ED2169
:1030200021E0892B09F020E02093F102F1E0CB337D
:10303000DF0741F79091F8028091F302992341F163
:10304000811129C00E94480EE091EC02E150E0930A
:10305000EC02F0E03196E370FF27EE0FFF1FE55C16
:10306000FE4F60E080810E94BD21E091EC02E370A0
:10307000E093EC02F0E0EE0FFF1FE55CFE4F61E035
:1030800080810E94BD218091F8028093F30203C0E9
:1030900081111092F3029091FA028091F502992326
:1030A00029F1811126C00E94480EE091EC02EF5FE9
:1030B000E093EC02F0E0EE0FFF1FE75CFE4F60E0F4
:1030C00080810E94BD21E091EC02E370E093EC026C
:1030D000F0E0EE0FFF1FE55CFE4F61E080810E9493
:1030E000BD218091FA028093F50203C081111092F4
:1030F000F5029091F1028091F002992329F081115B
:103100000FC00E94E31108C0882351F040E0609195
:10311000C90281E00E94AF118091F1028093F00218
:1031200060910403709105038091FC029091FD026F
:103130006817790709F48BC080911E01811187C03F
:103140008091EC02813099F128F1823009F077C04A
:103150009B012E5E3F4FC901A0E0B0E09C01AD0194
:10316000F3E05695479537952795FA95D1F7309323
:10317000C3012093C201A091BB01B091BC010E9488
:10318000BE306093C4017093C5018093C6019093D3
:10319000C70155C0CB01770FAA0BBB0B8093E3028D
:1031A0009093E402A093E502B093E60248C080E069
:1031B00094E0861B970BA5E0880F991FAA95E1F76D
:1031C000092E000CAA0BBB0B8093CE029093CF026A
:1031D000A093D002B093D102072E000C880B990B5C
:1031E0000E948F2D6093D9027093DA028093DB02E4
:1031F0009093DC02CFB7F89420E030E048E452E44A
:103200000E94E52C20E030E040E054E40E943F2E94
:1032100020E030E040E05CE30E943F2E20E030E020
:1032200040E857E40E943F2E0E945E2D6093F80113
:103230007093F9018093FA019093FB01CFBF8091C5
:103240000403909105039093FD028093FC02C091CA
:103250000603D09107038091FE029091FF02C817E8
:10326000D90709F4E0C080911F018111DCC0809171
:10327000EC02813039F138F0823009F44BC08330F0
:1032800009F467C0C8C0D595C795D595C7958C2F4B
:10329000C0932201C093B4012091B3018095829F15
:1032A000C0011124892F9927820F911D9093B60197
:1032B0008093B5018091F702882309F4ACC0C093D4
:1032C000B301A9C0BE01DD0F880B990B0E948F2DA1
:1032D0006093D9027093DA028093DB029093DC0250
:1032E00020E030E04AE754E40E94E52C6093DD02E0
:1032F0007093DE028093DF029093E002C1E020E051
:1033000030E0A9010E94E02C811101C0C0E0C0930F
:10331000D80281C0CE01A0E0B0E09C01AD0163E025
:1033200056954795379527956A95D1F73093CB01F8
:103330002093CA01A091BB01B091BC010E94BE3094
:103340006093CC017093CD018093CE019093CF0117
:1033500062C08091F702882309F443C020911703CB
:10336000BE010D2E000C880B990B223009F1209123
:1033700045013091460189011F921F921F932F939F
:10338000A12CB12C6501E12C14E0F12E00E010E03D
:1033900020E030E0A9010E940C2A60934701CE0191
:1033A00045E0959587954A95E1F78093480115C0CA
:1033B0001F921F921F9228E12F93A12CB12C65011F
:1033C000EE24EA9413E0F12E00E010E020E030E07B
:1033D000A9010E940C2A609348010F900F900F9052
:1033E0000F908091F702811116C0C430D1051CF4F2
:1033F0001092170310C081E08093170313E0D59556
:10340000C7951A95E1F78FE790E08C1B9D0B909381
:1034100046018093450180910603909107039093A4
:10342000FF028093FE02809108039091090320918E
:103430000003309101038217930791F1209120013D
:1034400021112EC02091F902211122C02091EC02FD
:103450002130B9F060F02230B9F02330C9F4C6E071
:1034600095958795CA95E1F70E94251211C0880F9E
:10347000892F881F990B0196909324018093230133
:1034800007C09093D70204C08093D8018093D001E5
:1034900080910803909109039093010380930003A6
:1034A00020910A0330910B03809102039091030352
:1034B0002817390709F461C08091210181115DC08D
:1034C0008091EC028130B1F028F08230E1F083305D
:1034D000C9F14BC0232F330F330B8091E20290E0F0
:1034E0002817390709F441C02093E202822F0E9475
:1034F000D1103BC0211532401CF41092D60235C0C9
:103500008093D60232C0C901A0E0B0E09C01AD01B9
:10351000A3E05695479537952795AA95D1F730930F
:10352000DB012093DA01A091BB01B091BC010E94A4
:10353000BE306093DC017093DD018093DE019093D7
:10354000DF0113C0220F232F221F330B8091430171
:1035500090E02817390749F02093430181E08093D8
:103560001403809116030E94251280910A03909102
:103570000B0390930303809302038091EC0283304A
:1035800011F40E944E12E091E901F091EA0180816C
:10359000823091F038F4882361F08130B1F461ED2C
:1035A00071E00FC0833059F0843079F41092F30148
:1035B0000CC069EC71E005C069ED71E002C061EE1C
:1035C00071E08BEB91E00E9467118091D802882313
:1035D00009F490C18091D602811128C04091F80170
:1035E0005091F9016091FA017091FB018091F40111
:1035F0009091F501A091F601B091F701840F951F0C
:10360000A61FB71F8093F4019093F501A093F601D4
:10361000B093F701CD019170E091FC01F091FD01B3
:10362000E80FF91FE491E093E702AEC00E94031E89
:103630000091D2021091D3022091D4023091D50290
:10364000AB01BC01401B510B620B730B8091CE028E
:103650009091CF02A091D002B091D102E3E0880F07
:10366000991FAA1FBB1FEA95D1F784179507A607D4
:10367000B707E8F464EF70E080E090E00E94A41FD8
:10368000A0E0B0E0DC01992788278093CA029093DC
:10369000CB02A093CC02B093CD020E94031E609394
:1036A000D2027093D3028093D4029093D5024090BB
:1036B0000C0350900D0360900E0370900F03609107
:1036C000CA027091CB028091CC029091CD020E94EF
:1036D0008D2D6B017C01C301B2010E948D2D9B01D8
:1036E000AC01C701B6010E94732C6B017C012091D3
:1036F0000A0330910B03359527953595279580E082
:1037000091E0821B930BBC01990F880B990B0E94CF
:103710008D2D9B01AC01C701B6010E94E52C0E94D2
:10372000572D6093100370931103809312039093AD
:1037300013032FB7F89440910C0350910D0360913F
:103740000E0370910F038091100390911103A091CB
:103750001203B0911303840F951FA61FB71F809308
:103760000C0390930D03A0930E03B0930F032FBF90
:1037700080910C0390910D03A0910E03B0910F0363
:1037800080E88A0F8093E7028091D70281112CC0D4
:103790006091E702062E000C770B880B990B0E94B4
:1037A0008F2D2091DD023091DE024091DF02509199
:1037B000E0020E943F2E2091E8023091E902409100
:1037C000EA025091EB020E94742CAB01BC014093C1
:1037D000250150932601609327017093280188E00A
:1037E00092E00E94091110C08091E8029091E902D4
:1037F000A091EA02B091EB028093250190932601FB
:10380000A0932701B09328018091D702813009F05D
:103810004AC06091220170E080E090E00E948F2D0C
:103820006B017C018091E702682F880F770B880B72
:10383000990B0E948F2D2B013C0120E030E04CEFD2
:1038400052E46091DD027091DE028091DF0290917E
:10385000E0020E943F2E9B01AC01C301B2010E9415
:10386000742C9B01AC01C701B6010E94742C0E940C
:10387000572D6F3F710514F06EEF70E077FF02C0B7
:1038800060E070E06093B4018091B3016095689F3F
:10389000B0011124672F7727680F711D7093B6014F
:1038A0006093B50127C0823029F56091E702062EAA
:1038B000000C770B60587F4F072E000C880B990B7C
:1038C0000E948F2D2091DD023091DE024091DF02B7
:1038D0005091E0020E943F2E0E94572D6093E30218
:1038E0007093E4028093E5029093E6021092EE0258
:1038F0001092ED026091230170912401072E000CBB
:10390000880B990B0E948F2D209125013091260163
:1039100040912701509128010E943F2E0E94572D6F
:103920002FB7F894CB01770FAA0BBB0B3CE0880FA5
:10393000991FAA1FBB1F3A95D1F78093020290935B
:103940000302A0930402B09305022FBFDF91CF9131
:103950001F910F91FF90EF90DF90CF90BF90AF90AD
:103960007F906F905F904F900C941E120E9494175E
:103970000C94A91E90912A0580912905981306C0E0
:1039800090912C0580912B0598131AC00E945D0E12
:1039900020912A05E22FF0E0EE0FFF1FE75DFC4FBC
:1039A0008C509F4F918380832F5F20932A05211194
:1039B00007C090912C0581E0892780932C050895FC
:1039C00008951F920F920FB60F9211242F933F93D9
:1039D0008F939F93AF93BF93EF93FF9381E0909169
:1039E0001803911180E080931803882361F180917E
:1039F0002905E82FF0E0EE0FFF1FE75DFC4F208167
:103A000031818F5F80932905811119C090912B0519
:103A100081E0892780932B0580912D0590912E05BB
:103A2000A0912F05B09130050196A11DB11D809385
:103A30002D0590932E05A0932F05B093300530935C
:103A4000890020938800FF91EF91BF91AF919F91E2
:103A50008F913F912F910F900FBE0F901F9018954F
:103A60009F92AF92BF92CF92DF92EF92FF920F930D
:103A70001F93CF93DF93EC0180E00E94561E84B524
:103A80008093280385B58093270387B58093260309
:103A90000EE610E0F8018081809325039E0140E04E
:103AA00050E060E472E48FE090E00E948330DA013D
:103AB000C90140E066EB7CE10E94B5200E940C2128
:103AC00084B58093200385B580931F0387B58093C9
:103AD0001E03F801808180931D0300E810E0F801C7
:103AE000808180932403C1E8D0E088818093230300
:103AF00088E8A82EB12CF501808191818093220362
:103B00009FE6C92ED12CF60180818093210361E0CC
:103B100089E00E94812126E8E22E25E0F22EF701BD
:103B2000128298E1938382E084839883F8018083F2
:103B300088EE91E0A0E0B0E0992493949092830500
:103B400090938505809384059093870080938600E9
:103B500089E1888361E089E00E948121F8019081F8
:103B6000F7018481892B8068F80180832091840586
:103B700030918505A4EFB0E00E94A830DC01CB01B4
:103B80003AE0B695A795979587953A95D1F7F501BF
:103B90009183808390918305F7018381892B8883AA
:103BA000F6019082F801808180931C0388818093C4
:103BB0001B03F5018081918180931A03F6018081B6
:103BC00080931903DF91CF911F910F91FF90EF9098
:103BD000DF90CF90BF90AF909F90089520912905DE
:103BE00080912D0590912E05A0912F05B091300563
:103BF000BA2FA92F982F8827BC01CD01620F711D04
:103C0000811D911D08950E94EE1D9B01AC01ADE345
:103C1000B0E00E94BE3008951092290510922A0546
:103C200010922B0510922C050895811109C08091E6
:103C30007A00846080937A0080917A008D7F1AC028
:103C4000813071F480917A008B7F80937A0080912B
:103C50007A00826080937A0080917A0081600FC040
:103C6000823079F480917A008B7F80937A00809102
:103C70007A00826080937A0080917A008E7F8093B0
:103C80007A00089580E090E061E070E040917E006D
:103C90009B01082E01C0220F0A94EAF7242B2093DF
:103CA0007E0001968C30910589F70895EAE7F0E0EF
:103CB0009081986090830E94151E0C94421E823160
:103CC00008F08251E82FF0E0EB58F64E8491089509
:103CD000EBE7F0E0908183FB222720F930E045E01C
:103CE000220F331F4A95E1F79F7D292B2083877090
:103CF000806480937C00EAE7F0E0808180648083C8
:103D00000895CF93DF931F92CDB7DEB780913D0525
:103D100090913E058F3F2FEF920761F0FC01EF5C21
:103D2000FA4F20812983019790933E0580933D05AA
:103D3000898101C08FEF80934A0180914A018F3FB2
:103D400021F080914A010E94681E0F90DF91CF916F
:103D5000089580914A018F3F29F40E94811E81E0DD
:103D60008093490108950E945F1E20913D05309186
:103D70003E052B30310554F42F5F3F4F30933E0505
:103D800020933D05F901EF5CFA4F8083E82FF0E0C6
:103D9000EE0FFF1FE15CFA4F808191810895EAE701
:103DA000F0E08081806480830895E0914A018091F1
:103DB000780090917900EE0FFF0BE15CFA4F918350
:103DC000808308951F920F920FB60F9211242F93A4
:103DD0003F934F935F936F937F938F939F93AF9393
:103DE000BF93EF93FF9380914901882329F00E94AC
:103DF000CF1E1092490107C00E94D51E0E94811E4D
:103E000081E080934901FF91EF91BF91AF919F9124
:103E10008F917F916F915F914F913F912F910F9073
:103E20000FBE0F901F9018958FEF9FEF90933E0558
:103E300080933D050895CF92DF92EF92FF926B0140
:103E40007C0120E030E0A9010E94E02C8823B9F039
:103E500020E030E040E451E4C701B6010E94E52CC7
:103E60009B01AC0160E070E080E090E40E94AC2E29
:103E700023E130ED42E051E40E943F2E03C060E0B8
:103E800070E0CB01FF90EF90DF90CF9008950F93FB
:103E90001F938091530190915401A0915501B091CD
:103EA0005601BC015527442784279527A627B72705
:103EB000AC01BD0135E076956795579547953A95E4
:103EC000D1F784279527A627B72740914F01509116
:103ED00050016091510170915201409353015093F0
:103EE0005401609355017093560100914B0110915C
:103EF0004C0120914D0130914E0100934F011093E0
:103F000050012093510130935201402751276227DD
:103F10007327482759276A277B27880F991FAA1FCD
:103F2000BB1F8A019B01082719272A273B27C901A4
:103F3000B80100934B0110934C0120934D01309335
:103F40004E011F910F9108950F931F93CF93DF930D
:103F50008C01EB010E94471F9B01AC0144275527B0
:103F6000DE01A01BB10B0E94C930800F911FDF91B1
:103F7000CF911F910F91089582E0809382058FEF7A
:103F800080935D0510925F05809157058150809365
:103F90005E0580915805880F81608093800585EECD
:103FA0008093BC00089584E0809382058FEF809316
:103FB0005D0510925F058091590580935E05A09183
:103FC0005A05B0915B0520E635E0F9019E2F921B62
:103FD000981718F49D919193F9CF80915C0590E02A
:103FE000880F991F8093800585EE8093BC0008950B
:103FF00085ED8093BC008091BC0084FDFCCF809156
:10400000820580938105109282058091810583301D
:1040100011F40C94D31F80918105813011F40C941C
:10402000BC1F089585EC8093BC008091820580932D
:1040300081051092820580918105833011F40C94E2
:10404000D31F80918105813011F40C94BC1F089519
:104050001F920F920FB60F9211242F933F934F93FD
:104060005F936F937F938F939F93AF93BF93EF93E0
:10407000FF938091B900887F883239F170F48031E4
:1040800009F130F4882309F45BC08830D9F05CC0B2
:104090008831D9F0803261F157C08034C1F150F4D9
:1040A000803331F1883309F04FC080935D050E9461
:1040B00012204AC08035F9F08835A9F1883409F01A
:1040C00043C040C08091800510C090915F058091F1
:1040D0005E059817B8F5E0915F0581E08E0F80933B
:1040E0005F05F0E0E05AFA4F80818093BB0015C075
:1040F00080935D0527C0E0915F0581E08E0F80937E
:104100005F058091BB00F0E0E05AFA4F8083909108
:104110005F0580915E05981710F485EC01C085E875
:104120008093BC0011C0E0915F0581E08E0F809309
:104130005F058091BB00F0E0E05AFA4F808302C037
:1041400010925D050E94F81FFF91EF91BF91AF9112
:104150009F918F917F916F915F914F913F912F919F
:104160000F900FBE0F901F901895CF92DF92EF9295
:10417000FF9270938E0560938D0540938F05A0E0AC
:10418000B0E034E0880F991FAA1FBB1F3A95D1F702
:1041900020E030E0F901E659F64EE491EE2381F09B
:1041A0006C017D01022E04C0F694E794D794C79465
:1041B0000A94D2F751E0C516D506E104F10438F0AF
:1041C0002F5F3F4F2B30310529F780E020C0A1E061
:1041D000B0E002C0AA0FBB1F2A95E2F7A701960123
:1041E0000E94C930DC01CB0124E0B595A7959795D5
:1041F00087952A95D1F790938C0580938B05109223
:104200006E0082E084BDE5BDCA94C7BC81E0FF902A
:10421000EF90DF90CF900895EEE6F0E0808182602D
:104220008083089578941F920F920FB60F921124F5
:104230002F933F934F935F936F937F938F939F93AE
:10424000AF93BF93EF93FF9310926E00E0918D05B3
:10425000F0918E050995F89480918F05882311F0CF
:1042600016BCA99A80916E00826080936E00FF91C7
:10427000EF91BF91AF919F918F917F916F915F91DE
:104280004F913F912F910F900FBE0F901F90189557
:1042900090E0FC013197EE30F10590F5EA59FF4FBF
:1042A0000C94A230809180008F7703C080918000B1
:1042B0008F7D80938000089584B58F7702C084B588
:1042C0008F7D84BD0895809190008F7707C0809185
:1042D00090008F7D03C080919000877F8093900035
:1042E00008958091C0008F7703C08091C0008F7DBA
:1042F0008093C00008958091C200877F8093C200A0
:104300000895CF93DF9390E0FC01E056F64E2491A0
:10431000FC01E154F64E8491882361F190E0880F0E
:10432000991FFC01E650F64EC591D491FC01E45171
:10433000F64EA591B491611109C09FB7F894888198
:10434000209582238883EC912E230BC0623061F488
:104350009FB7F8943881822F809583238883EC91CE
:104360002E2B2C939FBF06C08FB7F894E8812E2B7D
:1043700028838FBFDF91CF9108951F93CF93DF9351
:10438000282F30E0F901EF57F64E8491F901E056FD
:10439000F64ED491F901E154F64EC491CC23C9F004
:1043A000162F81110E944821EC2FF0E0EE0FFF1F25
:1043B000E451F64EA591B4918FB7F894111105C050
:1043C0009C91ED2FE095E92302C0EC91ED2BEC934D
:1043D0008FBFDF91CF911F910895CF93DF93282F47
:1043E00030E0F901EF57F64E8491F901E056F64EB0
:1043F000D491F901E154F64EC491CC2391F081118E
:104400000E944821EC2FF0E0EE0FFF1FE252F64E23
:10441000A591B491EC91ED2381E090E021F480E04E
:1044200002C080E090E0DF91CF9108958091DE0599
:104430009091DF052091E0053091E105821B930BFF
:104440008F73992708952091DE053091DF058091C3
:10445000E0059091E1052817390749F0E091E00562
:10446000F091E105E256FA4F808190E008958FEFD8
:104470009FEF08952091DE053091DF058091E005E2
:104480009091E10528173907A9F0E091E005F09136
:10449000E105E256FA4F80812091E0053091E10577
:1044A0002F5F3F4F2F7333273093E1052093E005B3
:1044B00090E008958FEF9FEF0895CF93DF93C09121
:1044C000DE05D091DF052196CF73DD278091E005D1
:1044D0009091E105C817D90799F082E00E94EE2675
:1044E0008F3F2FEF920761F0E091DE05F091DF053D
:1044F000E256FA4F8083D093DF05C093DE05DFCF0D
:10450000DF91CF91089583E00C9479290F931F9345
:10451000CF93DF931F92CDB7DEB78C016983809173
:104520005E01882359F041E050E0BE016F5F7F4F8C
:1045300083E00E943227181619063CF081E090E0D3
:10454000F8019383828380E090E00F90DF91CF9118
:104550001F910F910895FC0190819E5F908342E42A
:1045600050E068E07AE180E80C94CA27FC01818180
:104570009081913A59F4813209F04DC047E050E002
:1045800067E571E080E00E94CA2747C0913209F0D8
:1045900042C0803239F467E070E087E591E00E9424
:1045A00011283BC0823209F036C0828180935E01BF
:1045B0008091570190915801A0915901B0915A01F1
:1045C000803B9440A105B10541F580915E0180FDDD
:1045D00011C087E797E790930108809300089BE05C
:1045E00088E10FB6F894A895809360000FBE909371
:1045F000600013C00FB6F894A895809160008861A0
:1046000080936000109260000FBEA8951092010880
:104610001092000802C080E0089581E00895E0E96A
:10462000F5E01382128288EE93E0A0E0B0E084838C
:104630009583A683B78382E791E091838083089571
:10464000FC0124853585F901E05CFF4F8081918173
:10465000329620813181821B930B8F7399270895A5
:10466000DC011C96ED91FC911D97DF01A05CBF4F12
:104670002D913C91119712968D919C91119728172D
:10468000390739F08D919C91E80FF91F808190E0F6
:1046900008958FEF9FEF0895FC01A485B585FD0176
:1046A000E05CFF4F20813181329680819181281713
:1046B000390779F080819181A80FB91F8C912081F1
:1046C00031812F5F3F4F2F7333273183208390E059
:1046D00008958FEF9FEF0895FC0181A1882329F0B1
:1046E000A489B5898C9186FFFBCF11A208950F9301
:1046F0001F93CF93DF93FC01A685B7858D01005CE6
:104700001F4FE8018881998101968F739927AD0128
:104710004E5B5F4FEA012881398182179307D1F3FD
:10472000E80128813981A20FB31F6C93A685B78554
:10473000A05CBF4F11969C938E93A689B7892C914C
:1047400081E090E0078C02C0880F991F0A94E2F77D
:10475000822B8C9381E081A30488F589E02D8081F0
:104760008064808381E090E0DF91CF911F910F9171
:10477000089508951F920F920FB60F9211242F9350
:104780004F935F938F939F93EF93FF938091C80014
:1047900082FD1CC02091CE008091880690918906F0
:1047A00001968F73992740918A0650918B06841742
:1047B000950771F0E0918806F0918906E85BF94F62
:1047C0002083909389068093880602C08091CE0052
:1047D000FF91EF919F918F915F914F912F910F904A
:1047E0000FBE0F901F90189582EE95E00E94202337
:1047F000892B11F00C94B92308951F920F920FB6D4
:104800000F9211242F933F938F939F93EF93FF93D6
:1048100020914406309145068091460690914706C6
:104820002817390731F48091C9008F7D8093C90022
:1048300014C0E0914606F0914706EC5FF94F2081E5
:10484000809146069091470601968F739927909321
:104850004706809346062093CE00FF91EF919F91EB
:104860008F913F912F910F900FBE0F901F90189531
:10487000CF92DF92EF92FF920F931F93CF93DF932C
:10488000EC016A017B014115514E6105710509F189
:10489000EC89FD8981E090E008A002C0880F991F93
:1048A0000A94E2F7808360E079E08DE390E0A7016D
:1048B00096010E94613089019A0101501109210974
:1048C00031093695279517950795980101151041DF
:1048D000A8F0EC89FD89108260E874E88EE190E030
:1048E000A70196010E946130DA01C9010197A1096F
:1048F000B109B695A795979587959C01E889F9899F
:104900003083EA89FB89208319A2EE89FF894081DF
:1049100081E090E09C010C8C02C0220F331F0A94AE
:10492000E2F7242B2083EE89FF8940819C010D8CC6
:1049300002C0220F331F0A94E2F7242B2083EE8952
:10494000FF8940819C010E8C02C0220F331F0A9404
:10495000E2F7242B2083EE89FF8920810F8C02C08F
:10496000880F991F0A94E2F7809582238083DF9154
:10497000CF911F910F91FF90EF90DF90CF9008950E
:10498000E2EEF5E01382128288EE93E0A0E0B0E060
:1049900084839583A683B78384E891E091838083A1
:1049A00088E496E09587848784E096E097878687F9
:1049B0008DEC90E0918B808B8CEC90E0938B828BD4
:1049C00088EC90E0958B848B89EC90E0978B868BBC
:1049D0008AEC90E0918F808F8EEC90E0938F828FA5
:1049E00084E0848F83E0858F87E0868F85E0878FE2
:1049F00081E080A308950E94E42A82ED96E00E945F
:104A000083290E94C20FC4EFD3E20E945D0F20975A
:104A1000E1F30E94F423F9CFFC01EE5BFF4F8081AC
:104A20009181329620813181821B930B8F7399275C
:104A300096958795969587950895CF93DF93EC018A
:104A4000E881F9810480F581E02D0995CC5BDF4F89
:104A5000288139812C5F3F4F2F7333273983288377
:104A6000DF91CF910895CF92DF92EF92FF920F9353
:104A70001F93CF93DF937C018C010E5B1F4FD801F6
:104A8000CD91DC912196CF73DD276C01B4E4CB0E80
:104A9000D11CF60180819181C817D907B9F085E052
:104AA0000E94EE268F3FEFEF9E0781F0D801ED9137
:104AB000FC911197EE0DFF1D82831196DC93CE932E
:104AC000CD91DC912196CF73DD27E3CFDF91CF919C
:104AD0001F910F91FF90EF90DF90CF90089586E0A7
:104AE0000C947929CF93DF9300D000D0CDB7DEB7F7
:104AF00049835A836B837C8386E00E941F27811140
:104B000003C080E090E00BC044E050E0BE016F5F66
:104B10007F4F86E00E9432271816190694F70F90EF
:104B20000F900F900F90DF91CF91089587E797E74F
:104B300090930108809300089BE088E10FB6F894F9
:104B4000A895809360000FBE909360000895FF9237
:104B50000F931F93CF93DF93EC01E881F9810190CC
:104B6000F081E02D0995181619062CF060E070E030
:104B700080E090E039C0FE01EC5BFF4FA081B18185
:104B8000AC0FBD1F1296FC9080819181019620E4AC
:104B900030E0B9010E944D30DE01A80FB91F129616
:104BA0000C91808191810296B9010E944D30DE0105
:104BB000A80FB91F12961C91808191810396B901AB
:104BC0000E944D30C80FD91FCA8187E0F81208C073
:104BD000003F31F4C73F21F4113011F40E949625B3
:104BE0006F2D702F812F9C2FDF91CF911F910F91EF
:104BF000FF900895FC0190819F5F908342E150E017
:104C000060E97AE180E80C94CA27FC0190819F5FFB
:104C1000908346E450E06AE47AE180E80C94CA2785
:104C200080E0089584E991E090938D0680938C064E
:104C30000895CF92DF92EF92FF920F931F93CF933D
:104C4000DF936C01EB017B01E40EF51E00E010E048
:104C5000CE15DF0561F06991D601ED91FC910190CF
:104C6000F081E02DC6010995080F191FF1CFC80189
:104C7000DF91CF911F910F91FF90EF90DF90CF9038
:104C800008956115710579F0FB0101900020E9F7A5
:104C90003197AF01461B570BDC01ED91FC9102806F
:104CA000F381E02D099480E090E00895DC01ED911E
:104CB000FC910190F081E02D09940F931F93CF9305
:104CC000DF93EC016DE00E9456268C016AE0CE0174
:104CD0000E945626800F911FDF91CF911F910F9157
:104CE00008950F931F93CF93DF93EC010E94412609
:104CF0008C01CE010E945D26800F911FDF91CF9124
:104D00001F910F910895615030F02091F100FC0146
:104D100020830196F8CF289884E68093D9060895D9
:104D20002FB7FC012083F89467706093E900089521
:104D3000CF93DF931F92CDB7DEB7682FCE010196D8
:104D40000E9490268091F20099819FBF0F90DF9181
:104D5000CF910895EF92FF920F931F93CF93DF931C
:104D60001F92CDB7DEB79091D806992311F057FF67
:104D700003C08FEF9FEF2AC08A017B01682FCE010D
:104D800001960E9490268091F20090E0A801801781
:104D900091070CF4AC01842FF70194E6815038F0B0
:104DA00028989093D9062091F1002193F7CF4115CF
:104DB000510521F08091F200882321F089818FBF75
:104DC000CA0104C08BE68093E800F8CF0F90DF9112
:104DD000CF911F910F91FF90EF900895CF93DF93A4
:104DE0001F92CDB7DEB741E050E0BE016F5F7F4F4D
:104DF0000E94AA26019719F4898190E002C08FEFE2
:104E00009FEF0F90DF91CF910895CF93DF931F9283
:104E1000CDB7DEB7682FCE0101960E949026909103
:104E2000E800892F807295FF04C09091F20080E421
:104E3000891B99819FBF0F90DF91CF910895CF93E8
:104E4000DF931F92CDB7DEB7682FCE0101960E9487
:104E500090268091E80099819FBF80720F90DF912A
:104E6000CF9108954F925F926F927F928F929F920F
:104E7000AF92BF92CF92DF92EF92FF920F931F9368
:104E8000CF93DF931F92CDB7DEB7A82E6B01B42E60
:104E9000052F8091D806882369F0E42EF52E8AEF3D
:104EA000782E8A2D8072582E9AE3692E8A2D80746E
:104EB000482E12C08FEF9FEF50C08A2D0E94052709
:104EC000182F81110DC07A947720A1F361E070E072
:104ED00080E090E00E94BC2AE114F10471F733C035
:104EE00090E0E816F9060CF41E2D812E912CE8189E
:104EF000F9086A2DCE0101960E949026552029F0CE
:104F00001150A8F01092F100FBCFF601A7FE07C0E8
:104F1000115058F084918093F1003196F9CF1150DF
:104F200020F081918093F100FACFC80CD91C8091B8
:104F3000E80085FF0FC0E114F10411F441100AC02C
:104F400089818FBFC9CF5D9884E68093DA068B2D67
:104F5000902F03C06092E800F3CF0F90DF91CF91C4
:104F60001F910F91FF90EF90DF90CF90BF90AF9087
:104F70009F908F907F906F905F904F9008951092C8
:104F8000E9001092D7061092D6069093D50680932A
:104F9000D40608950F931F93CF93DF93DB01A40FE3
:104FA000B51FFB016EEFEA17FB0791F187FF02C007
:104FB000249101C020810091D6061091D706C0919E
:104FC000D406D091D5060C171D07B4F49091E800D3
:104FD0009570E1F39091E80092FD1CC02093F100E0
:104FE0002091D6063091D7062F5F3F4F2F7333277E
:104FF000232B11F46093E8002091D6063091D70658
:105000002F5F3F4F3093D7062093D6063196CBCFF4
:10501000CA0102C08FEF9FEFDF91CF911F910F91D7
:1050200008951F93CF93DF931F92CDB7DEB7162F4E
:105030002091E80022FFFCCF612F79830E94832614
:105040008BEF8093E800812F7981972F0F90DF916C
:10505000CF911F910895CF93DF931F92CDB7DEB705
:105060001982CE0101960E94AB22CE0101960E94C8
:10507000582BCE0101960E94FA25CE0101960E947E
:105080000526898190E00F90DF91CF9108951F92BE
:105090000F920FB60F921124CF92DF92EF92FF92F0
:1050A0001F932F933F934F935F936F937F938F93B0
:1050B0009F93AF93BF93EF93FF93CF93DF93CDB7BE
:1050C000DEB76197DEBFCDBF1092E9008091E800A6
:1050D00083FFF1C068E0CE010A960E94832682EF2A
:1050E0008093E8009A8597FF05C08091E80080FFD3
:1050F000FCCF03C08EEF8093E800892F807609F003
:10510000B8C08B85811105C01092F1001092F1009A
:10511000CBC0282F2D7F213009F4C6C0853049F43B
:105120008091E80080FFFCCF8C8580688093E3004D
:10513000BBC0863009F06FC01D85E888F988123041
:1051400069F580E090E00E94BF270E942B2899E03B
:105150009E012F5F3F4F6901F901292F11922A9576
:10516000E9F799831A8391E09E8390E898879AEFF4
:1051700099872091D6063091D706275F3F4F3C8311
:105180002B838D83C7010E94BF2749E050E0B60101
:1051900080E00E94CA270E942B2886C0C7010E9477
:1051A000BF27123241F482E290E00E94632B892BE8
:1051B00009F07AC07DC0113069F48889998908970F
:1051C00011F41093D3068091D306811111C06BEBBB
:1051D0007AE116C0133009F06BC08C85882359F032
:1051E000823061F0813009F063C06DEC7AE108C073
:1051F00069EA7AE105C06FE07BE102C06DEE7AE119
:105200006115710509F454C0FB01449150E080E838
:105210000E94CA2749C0873009F44AC0883021F467
:1052200081E08093F10040C0893009F03DC0937067
:1052300009F03EC080E090E031E026E341E0480F15
:105240004093E9003093EB000196FC01EE55F54EDA
:10525000E491E093EC002093ED008630910571F726
:105260008EE78093EA001092EA008C858093D8063E
:105270001BC0888999890E94BF278E85811105C02E
:10528000CE010A960E94B6220DC0823029F4CE01CA
:105290000A960E948B2B06C0843051F4CE010A96E8
:1052A0000E941026882321F08EEF8093E80003C02F
:1052B00081E28093EB0061960FB6F894DEBF0FBEDB
:1052C000CDBFDF91CF91FF91EF91BF91AF919F91B2
:1052D0008F917F916F915F914F913F912F911F918E
:1052E000FF90EF90DF90CF900F900FBE0F901F9028
:1052F00018958093E9008091F200882319F08AE3E1
:105300008093E80008951092D80681E08093D7003A
:1053100080EA8093D80082E189BD09B400FEFDCF08
:1053200061E070E080E090E00E94BC2A80E9809318
:10533000D8008CE08093E2001092E000559A209A09
:1053400008951F920F920FB60F9211242F933F933F
:105350004F935F936F937F938F939F93AF93BF937D
:10536000EF93FF938091E1001092E10083FF0FC063
:105370001092E90091E09093EB001092EC0092E320
:105380009093ED001092D80698E09093F00082FF81
:1053900032C083E00E94792982E00E949826882307
:1053A00021F080E995E00E945D2286E00E94792943
:1053B00085E00E949826882321F08CE896E00E94E0
:1053C00033258091DA06882339F08091DA068150FE
:1053D0008093DA06882369F08091D906882359F0F2
:1053E0008091D90681508093D906811104C0289AF2
:1053F00002C05D9AF1CFFF91EF91BF91AF919F9164
:105400008F917F916F915F914F913F912F910F906D
:105410000FBE0F901F9018954F925F926F927F92E0
:10542000AF92BF92CF92DF92EF92FF920F931F93B2
:10543000CF93DF93CDB7DEB729013A019B01AC01D1
:10544000241935094609570989899A89AB89BC8984
:10545000BC01CD016A197B098C099D090E9431307C
:10546000A801970124193509460957090E9483307C
:10547000CA01B9016A0D7B1D8C1D9D1DDF91CF9165
:105480001F910F91FF90EF90DF90CF90BF90AF9062
:105490007F906F905F904F9008951F920F920FB67C
:1054A0000F9211242F933F938F939F93AF93BF93AA
:1054B0008091DC069091DD06A091DE06B091DF06BA
:1054C0003091DB0623E0230F2D3720F40196A11D38
:1054D000B11D05C026E8230F0296A11DB11D209322
:1054E000DB068093DC069093DD06A093DE06B09386
:1054F000DF068091E0069091E106A091E206B0916E
:10550000E3060196A11DB11D8093E0069093E1068C
:10551000A093E206B093E306BF91AF919F918F9164
:105520003F912F910F900FBE0F901F9018953FB78E
:10553000F8948091E0069091E106A091E206B09186
:10554000E30626B5A89B05C02F3F19F00196A11DC3
:10555000B11D3FBFBA2FA92F982F8827820F911D09
:10556000A11DB11DBC01CD0142E0660F771F881F50
:10557000991F4A95D1F70895CF92DF92EF92FF924B
:10558000CF93DF936B017C010E94972AEB01C1143A
:10559000D104E104F10489F00E94722C0E94972A40
:1055A0006C1B7D0B683E734090F381E0C81AD108F4
:1055B000E108F108C851DC4FEACFDF91CF91FF90AD
:1055C000EF90DF90CF900895789484B5826084BD89
:1055D00084B5816084BD85B5826085BD85B58160F7
:1055E00085BDEEE6F0E0808181608083E1E8F0E057
:1055F0001082808182608083808181608083E0E886
:10560000F0E0808181608083E1E9F0E08081826068
:105610008083808181608083E0E9F0E08081816027
:105620008083E1ECF0E0808184608083808182600F
:105630008083808181608083E3ECF0E08081816001
:105640008083E0ECF0E0808182608083E2ECF0E037
:10565000808181608083EAE7F0E0808184608083DC
:105660008081826080838081816080838081806886
:1056700080830895EF92FF921F93CF93DF93EC0105
:10568000162FE881F9810480F581E02D09957C01D0
:10569000E881F9810680F781E02D612FCE0109951F
:1056A000C7019927DF91CF911F91FF90EF90089547
:1056B000FC0190819F5F908349E150E063E97BE1C9
:1056C00080E80C94CA2745E650E06CEA7BE180E86C
:1056D0000C94CA27EF92FF920F931F93CF93DF93FF
:1056E0001F92CDB7DEB789838B017A0141E050E08C
:1056F000BE016F5F7F4F84E00E943227A701B8018F
:1057000084E40E9432270F90DF91CF911F910F9177
:10571000FF90EF900895FC0191818081813A31F4EE
:1057200081E0913091F0933089F411C0813271F4AD
:105730009B3021F482818093600105C09A3031F45E
:10574000828180935F0181E00895089580E008954B
:1057500048E050E082E00C946A2BDC01683810F0DD
:1057600068582DC0E62FF0E067FF11C0E058F1093E
:1057700081E090E001C0880FEA95EAF714969C91C9
:105780001497892B14968C93149760E018C0ED5EE3
:10579000F44E6491611109C081E090E013969C93EE
:1057A0008E93129780E090E0089567FF08C01496EA
:1057B0008C911497826014968C9314976F77169639
:1057C0008C911697861751F117968C91179786171B
:1057D00029F118968C911897861701F119968C91DA
:1057E00019978617D9F01A968C911A978617B1F0E7
:1057F0001B968C911B97861789F0FD01369680E0E9
:1058000090E02191211105C0FD01E80FF91F668389
:1058100005C0019686309105A1F7BECFCD01BD012F
:105820006C5F7F4F0E94A82B81E090E00895DC011F
:10583000683810F0685825C0E62FF0E067FF12C006
:10584000E058F10981E090E001C0880FEA95EAF79D
:10585000809514969C911497892314968C93149791
:1058600060E00FC0ED5EF44E6491662301F167FFC6
:1058700008C014968C9114978D7F14968C9314976E
:105880006F77FD01369686E0662321F090819613AE
:1058900001C01082815031968111F6CFCD01BD013A
:1058A0006C5F7F4F0E94A82B81E090E0089580E01C
:1058B00090E00895FC0116821782108611861286E8
:1058C00013861482BC016C5F7F4F0C94A82B10923E
:1058D000F006E4EEF6E01382128284EA91E091830E
:1058E0008083089508955058BB27AA270E948B2CC7
:1058F0000C94052E0E94F72D38F00E94FE2D20F00A
:1059000039F49F3F19F426F40C94F42D0EF4E0952D
:10591000E7FB0C94EE2DE92F0E94162E58F3BA17D0
:10592000620773078407950720F079F4A6F50C94B5
:10593000382E0EF4E0950B2EBA2FA02D0B01B901D5
:1059400090010C01CA01A0011124FF27591B99F0F5
:10595000593F50F4503E68F11A16F040A22F232F01
:10596000342F4427585FF3CF469537952795A79551
:10597000F0405395C9F77EF41F16BA0B620B730BF8
:10598000840BBAF09150A1F0FF0FBB1F661F771F69
:10599000881FC2F70EC0BA0F621F731F841F48F41E
:1059A000879577956795B795F7959E3F08F0B0CFA7
:1059B0009395880F08F09927EE0F9795879508958E
:1059C0000E94CA2D08F481E008950E94F92C0C94DD
:1059D000052E0E94FE2D58F00E94F72D40F029F46C
:1059E0005F3F29F00C94EE2D51110C94392E0C943C
:1059F000F42D0E94162E68F39923B1F3552391F3E9
:105A0000951B550BBB27AA2762177307840738F02D
:105A10009F5F5F4F220F331F441FAA1FA9F335D08A
:105A20000E2E3AF0E0E832D091505040E695001C3E
:105A3000CAF72BD0FE2F29D0660F771F881FBB1FF8
:105A4000261737074807AB07B0E809F0BB0B802DD6
:105A5000BF01FF2793585F4F3AF09E3F510578F002
:105A60000C94EE2D0C94392E5F3FE4F3983ED4F362
:105A7000869577956795B795F7959F5FC9F7880FD6
:105A8000911D9695879597F90895E1E0660F771F28
:105A9000881FBB1F621773078407BA0720F0621BB9
:105AA000730B840BBA0BEE1F88F7E09508950E94E4
:105AB0005E2D6894B1110C94392E08950E941E2E0B
:105AC00088F09F5798F0B92F9927B751B0F0E1F0BF
:105AD000660F771F881F991F1AF0BA95C9F714C06F
