:100000000C9410130C9438130C9438130C9438136C
:100010000C9438130C9438130C9438130C94381334
:100020000C9438130C9438130C94DA2B0C94852A06
:100030000C9438130C9438130C9438130C94381314
:100040000C9438130C9438130C9438130C94381304
:100050000C94151F0C94B7220C9438130C94452C57
:100060000C9438130C945F250C94A2250C9438132F
:100070000C9438130C94FE200C9438130C94381301
:100080000C9438130C9438130C9438130C943813C4
:100090000C94CF210C9438130C9438130C9438130F
:1000A0000C9438130C9438130C9438135319CA1940
:1000B0009B197E19F319F3194519F3194519F31909
:1000C000451945194519F319451945190123042303
:1000D000F722FB2225232523252308230C23102385
:1000E00016231A232523202307634236B79BD8A75C
:1000F0001A39685618AEBAAB558C1D3CB7CC57634D
:10010000BD6DEDFD753EF6177231BF000000803FFA
:1001100008000000BE922449123EABAAAA2ABECD16
:10012000CCCC4C3E00000080BEABAAAAAA3E000088
:100130000000BF000000803F000000000008417880
:10014000D3BB4387D1133D190E3CC3BD4282AD2BB7
:100150003E68EC8276BED98FE1A93E4C80EFFFBEAF
:1001600001C4FF7F3F0000000000174466777870ED
:10017000655E5E63696D6D6A65626265686B6B6919
:1001800066646466686A6A686665656668696968FF
:1001900066656566686969686665656668696968EF
:1001A00066666666686868686666666668686868DF
:1001B00067666666686868686766666767686867CE
:1001C00067666667676868676766666767686867BF
:1001D00067666667676868676766666767686867AF
:1001E000676666676768686767666667676868679F
:1001F000676666676768686767666667676868678F
:10020000676666676768686767666667676868677E
:10021000676666676768686767666667686868686C
:10022000676666676868686866666666686868685C
:10023000666666666869696866656566686969684C
:10024000666565666869696866656566686A6A683C
:1002500066646466696B6B68656262656A6D6D6928
:10026000635E5E65707877664417EAC5ADA2A1A7A4
:10027000ADB2B2AFABA8A8AAADAFAFADABA9A9ABB9
:10028000ADAEAEADABAAAAABACADADADABAAAAABB1
:10029000ACADADACABABABABACADADACABABABABA2
:1002A000ACADADACACABABABACADADACACABABAC8F
:1002B000ACADADACACABABACACADADACACABABAC7E
:1002C000ACADADACACABABACACADADACACABABAC6E
:1002D000ACADADACACABABACACADACACACABABAC5F
:1002E000ACACACACACABABACACACACACACABABAC52
:1002F000ACACACACACABABACACACACACACABABAC42
:10030000ACADADACACABABACACADADACACABABAC2D
:10031000ACADADACACABABACACADADACACABABAC1D
:10032000ACADADACACABABACACADADACABABABAC0E
:10033000ACADADACABABABABACADADACABABABAB01
:10034000ACADADACABAAAAABADADADACABAAAAABF4
:10035000ADAEAEADABA9A9ABADAFAFADAAA8A8ABE2
:10036000AFB2B2ADA7A1A2ADC5EA00000000010185
:10037000010102020202030303030404040404054E
:1003800005050506060607070707080808080909FE
:1003900009090A0A0A0A0B0B0B0B0B0C0C0C0D0DAE
:1003A0000D0D0E0E0E0E0F0F0F0F1010101011115D
:1003B0001111111212121213131313141414141511
:1003C00015151516161616171717181818181919BF
:1003D00019191A1A1A1A1B1B1B1B1C1C1C1C1D1D6D
:1003E0001D1D1E1E1E1E1F1F1F1F2020202020211E
:1003F00021202222222223232323242424242525CE
:10040000252526262626272727272828282828297D
:100410002929292A2A2A2A2B2B2B2C2C2C2C2D2D2E
:100420002D2D2E2E2E2E2F2F2F2F303030303131DC
:10043000313131323232333333333434343434358E
:10044000353536363636363737373838383838393E
:1004500039393A3A3A3A3B3B3B3B3C3C3C3C3C3DED
:100460003D3D3E3E3E3E3E3F3F3F3F40404041419E
:10047000414141424242424343434444444445454E
:1004800045454646464647474747484848484949FC
:100490004949494A4A4A4A4B4B4B4C4C4C4C4D4DAE
:1004A0004D4D4D4E4E4E4E4F4F4F5050505051515E
:1004B000515151525252535353535454545455550D
:1004C00055555556565656575757585858585859BF
:1004D00059595A5A5A5A5B5B5B5B5C5C5C5C5C5D6D
:1004E0005D5D5E5E5E5E5F5F5F5F5F60606061611D
:1004F00061616262626263636363636464646565CD
:10050000656565666666666767676768686869697E
:100510006969696A6A6A6A6B6B6B6C6C6C6C6D6D2D
:100520006D6D6E6E6E6E6F6F6F6F707070707071DC
:10053000717171727272727373737374747474758F
:10054000757575767676777777777878787878793D
:1005500079797A7A7A7A7B7B7B7B7C7C7C7C7D7DEB
:100560007D7D7D7E7E7E7F7F7F7F7F7F7F7E7E7EA7
:100570007E7E7D7D7D7D7C7C7C7C7B7B7B7B7A7ABB
:100580007A7A7979797978787878777777777676EB
:10059000767675757575747474747373737372721B
:1005A0007271717171707070706F6F6F6F6E6E6E4F
:1005B0006E6D6D6D6D6D6C6C6C6C6B6B6B6B6A6A7C
:1005C0006A696969696868686868676767666666AE
:1005D00066666565656564646463636363626262DD
:1005E000626161616160606060605F5F5F5E5E5E0E
:1005F0005E5D5D5D5D5C5C5C5C5B5B5B5B5B5A5A3E
:100600005A5A59595959585858585757575756566A
:10061000565655555554545454545353535352529B
:100620005251515151505050504F4F4F4F4E4E4ECE
:100630004E4E4D4D4D4D4C4C4C4C4B4B4B4A4A4AFB
:100640004A4A49494949484848484747474746462A
:10065000464545454545444444444343434342425B
:100660004241414141414040403F3F3F3F3F3E3E8C
:100670003E3E3D3D3D3C3C3C3C3C3B3B3B3B3A3ABB
:100680003A3A3939393838383838373737373636EB
:10069000363635353535343434333333333232321C
:1006A0003232313131313030302F2F2F2F2E2E2E4C
:1006B0002E2E2D2D2D2D2C2C2C2B2B2B2B2A2A2A7C
:1006C0002A292929292928282828272727262626AC
:1006D00026262525252424242424232323222222DC
:1006E000222121202121202020201F1F1F1F1E1E0C
:1006F0001E1E1D1D1D1D1C1C1C1B1B1B1B1B1A1A3B
:100700001A1919191919181818181717171716166A
:10071000161615151515141414131313131312129A
:10072000121211111110101010100F0F0F0F0E0ECA
:100730000E0E0D0D0D0D0C0C0C0C0B0B0B0B0A0AF9
:100740000A0A09090909080808080707070606062A
:10075000060505050505040404040303030302025A
:1007600002010101010100000000FFFFFFFEFEFE8B
:10077000FEFDFDFDFDFCFCFCFCFBFBFBFBFAFAFABD
:10078000FAFAF9F9F9F8F8F8F8F8F7F7F7F7F6F6EA
:10079000F6F5F5F5F5F4F4F4F4F4F3F3F3F3F2F21B
:1007A000F2F1F1F1F1F1F0F0F0F0EFEFEFEEEEEE4B
:1007B000EEEDEDEDEDEDECECECEBEBEBEBEBEAEA7B
:1007C000EAEAE9E9E9E9E8E8E8E7E7E7E7E7E6E6AA
:1007D000E6E6E5E5E5E4E4E4E4E3E3E3E3E3E2E2DB
:1007E000E2E1E1E1E1E0E0E0E0E0DFDFDFDFDEDE0B
:1007F000DEDDDDDDDDDCDCDCDCDCDBDBDBDADADA3C
:10080000DAD9D9D9D9D8D8D8D8D8D7D7D7D7D6D66A
:10081000D6D5D5D5D5D4D4D4D4D3D3D3D3D2D2D29C
:10082000D2D1D1D1D1D0D0D0D0D0CFCFCFCFCECECA
:10083000CECECDCDCDCDCCCCCCCBCBCBCBCACACAFA
:10084000CAC9C9C9C9C8C8C8C8C7C7C7C7C6C6C62C
:10085000C6C5C5C5C5C4C4C4C4C4C3C3C3C3C2C25A
:10086000C2C1C1C1C1C1C0C0C0C0BFBFBFBFBEBE89
:10087000BEBDBDBDBDBDBCBCBCBCBBBBBBBBBABAB9
:10088000BABAB9B9B9B9B8B8B8B8B7B7B7B7B6B6E8
:10089000B6B6B5B5B5B5B4B4B4B4B3B3B3B3B2B218
:1008A000B2B2B1B1B1B1B0B0B0B0AFAFAFAEAEAE49
:1008B000AEAEADADADADACACACABABABABAAAAAA7A
:1008C000AAA9A9A9A9A8A8A8A8A7A7A7A7A7A6A6AB
:1008D000A6A5A5A5A5A5A4A4A4A3A3A3A3A2A2A2DB
:1008E000A2A1A1A1A1A1A0A0A0A09F9F9F9F9E9E09
:1008F0009E9E9D9D9D9D9C9C9C9C9B9B9B9B9A9A38
:100900009A9A999999989898989797979797969669
:100910009696959595949494949393939393929299
:100920009292919191919090908F8F8F8F8F8E8EC8
:100930008E8E8D8D8D8C8C8C8C8B8B8B8B8A8A8AFA
:100940008A89898989898888888887878786868629
:100950008686858585858484848483838382828258
:10096000828181818181808080808080808081817E
:100970008181818282828383838383848484858549
:1009800085858686868687878787878888888889F9
:1009900089898A8A8A8A8A8B8B8B8C8C8C8C8D8DA8
:1009A0008D8D8D8E8E8E8E8F8F8F90909090919159
:1009B0009191929292929393939394949494959507
:1009C00095959696969697979797979898989999B8
:1009D00099999A9A9A9A9A9B9B9B9C9C9C9C9D9D68
:1009E0009D9D9E9E9E9E9F9F9F9F9FA0A0A0A1A118
:1009F000A1A1A1A2A2A2A2A3A3A3A4A4A4A4A4A5CA
:100A0000A5A5A5A6A6A6A7A7A7A7A7A8A8A8A9A978
:100A1000A9A9AAAAAAAAAAABABABACACACACACAD28
:100A2000ADADAEAEAEAEAEAFAFAFAFB0B0B0B1B1D8
:100A3000B1B1B2B2B2B2B2B3B3B3B3B4B4B4B5B588
:100A4000B5B5B6B6B6B6B6B7B7B7B7B8B8B8B9B938
:100A5000B9B9BABABABABBBBBBBBBCBCBCBCBDBDE6
:100A6000BDBDBEBEBEBEBEBFBFBFC0C0C0C0C0C198
:100A7000C1C1C2C2C2C2C2C3C3C3C3C4C4C4C5C548
:100A8000C5C5C6C6C6C6C6C7C7C7C7C8C8C8C8C9F9
:100A9000C9C9C9CACACACBCBCBCBCBCCCCCCCCCDA9
:100AA000CDCDCDCECECECFCFCFCFCFD0D0D0D1D158
:100AB000D1D1D2D2D2D2D2D3D3D3D3D4D4D4D4D509
:100AC000D5D5D5D6D6D6D7D7D7D7D8D8D8D8D8D9B8
:100AD000D9D9D9DADADADBDBDBDBDBDCDCDCDCDD69
:100AE000DDDDDEDEDEDEDEDFDFDFE0E0E0E0E1E117
:100AF000E1E1E1E2E2E2E3E3E3E3E4E4E4E4E4E5C8
:100B0000E5E5E5E6E6E6E6E7E7E7E8E8E8E8E9E977
:100B1000E9E9E9EAEAEAEBEBEBEBECECECECEDED26
:100B2000EDEDEDEEEEEEEFEFEFEFF0F0F0F0F1F1D6
:100B3000F1F1F2F2F2F2F3F3F3F3F3F4F4F4F5F586
:100B4000F5F5F5F6F6F6F7F7F7F7F8F8F8F8F9F936
:100B5000F9F9FAFAFAFAFBFBFBFBFBFCFCFCFDFDE6
:100B6000FDFDFEFEFEFEFFFFFFFF80808080808097
:100B70008080818181818181818182828282828261
:100B80008282828383838383838384848484848432
:100B90008484848585858585858586868686868602
:100BA00086868787878787878787888888888888D1
:100BB000888889898989898989898A8A8A8A8A8AA1
:100BC0008A8A8A8B8B8B8B8B8B8B8B8C8C8C8C8C73
:100BD0008C8C8D8D8D8D8D8D8D8D8D8E8E8E8E8E42
:100BE0008E8E8F8F8F8F8F8F8F8F90909090909011
:100BF00090909191919191919191929292929292E1
:100C000092929393939393939393949494949494B0
:100C10009494949595959595959596969696969681
:100C20009696969797979797979797989898989852
:100C300098989899999999999999999A9A9A9A9A22
:100C40009A9A9B9B9B9B9B9B9B9B9B9C9C9C9C9CF1
:100C50009C9C9C9D9D9D9D9D9D9D9E9E9E9E9E9EC1
:100C60009E9E9F9F9F9F9F9F9F9F9FA0A0A0A0A091
:100C7000A0A0A1A1A1A1A1A1A1A1A2A2A2A2A2A260
:100C8000A2A2A3A3A3A3A3A3A3A3A4A4A4A4A4A430
:100C9000A4A4A4A5A5A5A5A5A5A5A6A6A6A6A6A601
:100CA000A6A6A7A7A7A7A7A7A7A7A8A8A8A8A8A8D0
:100CB000A8A8A8A9A9A9A9A9A9A9A9AAAAAAAAAAA2
:100CC000AAAAABABABABABABABABACACACACACAC70
:100CD000ACACADADADADADADADADAEAEAEAEAEAE40
:100CE000AEAEAFAFAFAFAFAFAFAFAFB0B0B0B0B011
:100CF000B0B0B0B1B1B1B1B1B1B1B2B2B2B2B2B2E1
:100D0000B2B2B3B3B3B3B3B3B3B3B4B4B4B4B4B4AF
:100D1000B4B4B5B5B5B5B5B5B5B5B6B6B6B6B6B67F
:100D2000B6B6B7B7B7B7B7B7B7B7B8B8B8B8B8B84F
:100D3000B8B8B8B9B9B9B9B9B9B9BABABABABABA20
:100D4000BABABBBBBBBBBBBBBBBBBCBCBCBCBCBCEF
:100D5000BCBCBDBDBDBDBDBDBDBDBDBEBEBEBEBEC0
:100D6000BEBEBFBFBFBFBFBFBFBFC0C0C0C0C0C08F
:100D7000C0C0C1C1C1C1C1C1C1C1C1C2C2C2C2C260
:100D8000C2C2C2C3C3C3C3C3C3C3C4C4C4C4C4C430
:100D9000C4C4C4C5C5C5C5C5C5C5C5C6C6C6C6C601
:100DA000C6C6C7C7C7C7C7C7C7C7C8C8C8C8C8C8CF
:100DB000C8C8C9C9C9C9C9C9C9C9CACACACACACA9F
:100DC000CACACBCBCBCBCBCBCBCBCBCCCCCCCCCC70
:100DD000CCCCCCCDCDCDCDCDCDCDCDCECECECECE41
:100DE000CECECFCFCFCFCFCFCFCFD0D0D0D0D0D00F
:100DF000D0D0D1D1D1D1D1D1D1D1D2D2D2D2D2D2DF
:100E0000D2D2D2D3D3D3D3D3D3D3D4D4D4D4D4D4AF
:100E1000D4D4D4D5D5D5D5D5D5D5D6D6D6D6D6D67F
:100E2000D6D6D6D7D7D7D7D7D7D7D8D8D8D8D8D84F
:100E3000D8D8D9D9D9D9D9D9D9D9D9DADADADADA1F
:100E4000DADADADBDBDBDBDBDBDBDCDCDCDCDCDCEF
:100E5000DCDCDCDDDDDDDDDDDDDDDDDEDEDEDEDEC0
:100E6000DEDEDFDFDFDFDFDFDFDFDFE0E0E0E0E08F
:100E7000E0E0E1E1E1E1E1E1E1E1E2E2E2E2E2E25E
:100E8000E2E2E2E3E3E3E3E3E3E3E4E4E4E4E4E42F
:100E9000E4E4E5E5E5E5E5E5E5E5E6E6E6E6E6E6FE
:100EA000E6E6E7E7E7E7E7E7E7E7E7E8E8E8E8E8CF
:100EB000E8E8E9E9E9E9E9E9E9E9EAEAEAEAEAEA9E
:100EC000EAEAEBEBEBEBEBEBEBEBECECECECECEC6E
:100ED000ECECECEDEDEDEDEDEDEDEDEEEEEEEEEE40
:100EE000EEEEEEEFEFEFEFEFEFEFF0F0F0F0F0F00F
:100EF000F0F0F0F1F1F1F1F1F1F1F1F2F2F2F2F2E0
:100F0000F2F2F3F3F3F3F3F3F3F3F4F4F4F4F4F4AD
:100F1000F4F4F4F5F5F5F5F5F5F5F6F6F6F6F6F67E
:100F2000F6F6F7F7F7F7F7F7F7F7F8F8F8F8F8F84D
:100F3000F8F8F8F9F9F9F9F9F9F9F9FAFAFAFAFA1F
:100F4000FAFAFBFBFBFBFBFBFBFBFCFCFCFCFCFCED
:100F5000FCFCFDFDFDFDFDFDFDFDFDFEFEFEFEFEBE
:100F6000FEFEFFFFFFFFFFFFFFFF0000000000008D
:100F7000000000010101010101010102020202025F
:100F8000020203030303030303030404040404042D
:100F900004040505050505050505060606060606FD
:100FA00006060707070707070707070808080808CE
:100FB000080809090909090909090A0A0A0A0A0A9D
:100FC0000A0A0B0B0B0B0B0B0B0B0B0C0C0C0C0C6E
:100FD0000C0C0D0D0D0D0D0D0D0D0D0E0E0E0E0E3E
:100FE0000E0E0F0F0F0F0F0F0F0F0F10101010100E
:100FF00010101011111111111111121212121212DE
:1010000012121313131313131313141414141414AC
:10101000141415151515151515151516161616167D
:10102000161617171717171717171818181818184C
:1010300018181919191919191919191A1A1A1A1A1D
:101040001A1A1A1B1B1B1B1B1B1B1C1C1C1C1C1CED
:101050001C1C1D1D1D1D1D1D1D1D1E1E1E1E1E1EBC
:101060001E1E1F1F1F1F1F1F1F1F1F20202020208D
:10107000202021212021212221212022222222225E
:10108000222223232323232323232424242424242C
:1010900024242425252525252525262626262626FD
:1010A00026262727272727272727282828282828CC
:1010B000282829292929292929292A2A2A2A2A2A9C
:1010C0002A2A2A2B2B2B2B2B2B2B2B2C2C2C2C2C6E
:1010D0002C2C2D2D2D2D2D2D2D2D2E2E2E2E2E2E3C
:1010E0002E2E2E2F2F2F2F2F2F2F2F30303030300E
:1010F00030303131313131313131323232323232DC
:1011000032323333333333333333333434343434AC
:10111000343435353535353535353636363636367B
:10112000363636373737373737373738383838384D
:1011300038383939393939393939393A3A3A3A3A1C
:101140003A3A3A3B3B3B3B3B3B3B3C3C3C3C3C3CEC
:101150003C3C3D3D3D3D3D3D3D3D3E3E3E3E3E3EBB
:101160003E3E3F3F3F3F3F3F3F3F4040404040408B
:10117000404041414141414141414242424242425B
:10118000424243434343434343434444444444442B
:1011900044444545454545454545464646464646FB
:1011A00046464647474747474747484848484848CC
:1011B000484849494949494949494A4A4A4A4A4A9B
:1011C0004A4A4A4B4B4B4B4B4B4B4C4C4C4C4C4C6C
:1011D0004C4C4C4D4D4D4D4D4D4D4D4E4E4E4E4E3D
:1011E0004E4E4F4F4F4F4F4F4F4F5050505050500B
:1011F00050505051515151515151525252525252DC
:1012000052525253535353535353545454545454AB
:10121000545454555555555555555656565656567B
:10122000565656575757575757575858585858584B
:1012300058585859595959595959595A5A5A5A5A1C
:101240005A5A5B5B5B5B5B5B5B5B5C5C5C5C5C5CEA
:101250005C5C5D5D5D5D5D5D5D5D5E5E5E5E5E5EBA
:101260005E5E5F5F5F5F5F5F5F5F6060606060608A
:10127000606061616161616161616162626262625B
:10128000626263636363636363636364646464642B
:1012900064646565656565656565656666666666FB
:1012A00066666767676767676767686868686868CA
:1012B000686869696969696969696A6A6A6A6A6A9A
:1012C0006A6A6B6B6B6B6B6B6B6B6C6C6C6C6C6C6A
:1012D0006C6C6D6D6D6D6D6D6D6D6E6E6E6E6E6E3A
:1012E0006E6E6F6F6F6F6F6F6F6F7070707070700A
:1012F00070707171717171717171717272727272DB
:1013000072727373737373737373747474747474A9
:10131000747474757575757575757576767676767B
:10132000767677777777777777777778787878784A
:1013300078787879797979797979797A7A7A7A7A1B
:101340007A7A7B7B7B7B7B7B7B7B7C7C7C7C7C7CE9
:101350007C7C7D7D7D7D7D7D7D7D7D7E7E7E7E7EBA
:101360007E7E7F7F7F7F7F7F7F7F00000001010186
:101370000202030303040405050506060707070820
:10138000080909090A0A0A0B0B0C0C0C0D0D0E0EAC
:101390000E0F0F1010101111121212131313141438
:1013A000151515161617171718181819191A1A1AC5
:1013B0001B1B1C1C1C1D1D1D1E1E1F1F1F20202053
:1013C00021212222222323242424252525262627E1
:1013D000272728282829292A2A2A2B2B2B2C2C2C72
:1013E0002D2D2E2E2E2F2F2F303030313132323204
:1013F0003333333434343535363636373737383897
:10140000383939393A3A3A3B3B3B3C3C3D3D3D3E2D
:101410003E3E3F3F3F4040404141414242424343C4
:10142000434444444545454646464747474848485F
:101430004949494A4A4A4A4B4B4B4C4C4C4D4D4DFD
:101440004E4E4E4F4F4F4F5050505151515252529D
:101450005353535354545455555555565656575740
:101460005757585858595959595A5A5A5B5B5B5BE8
:101470005C5C5C5C5D5D5D5E5E5E5E5F5F5F5F6091
:101480006060606161616162626262636363636440
:1014900064646465656565666666666767676767F1
:1014A0006868686869696969696A6A6A6A6B6B6BA6
:1014B0006B6B6C6C6C6C6C6D6D6D6D6D6E6E6E6E61
:1014C0006E6F6F6F6F6F707070707071717171711E
:1014D00071727272727273737373737374747474DF
:1014E00074747575757575757576767676767677A6
:1014F0007777777777777778787878787878797971
:101500007979797979797A7A7A7A7A7A7A7A7A7B40
:101510007B7B7B7B7B7B7B7B7B7C7C7C7C7C7C7C14
:101520007C7C7C7C7D7D7D7D7D7D7D7D7D7D7D7DEF
:101530007D7E7E7E7E7E7E7E7E7E7E7E7E7E7E7ECC
:101540007E7E7F7F7F7F7F7F7F7F7F7F7F7F7F7FAD
:101550007F7F7F7F7F7F7F7F7F7F7F7F7F7F7F7F9B
:101560007F7F7F7F7F7F7F7F7F7F7F7F7F7F7F7F8B
:101570007F7F7F7F7F7F7F7F7F7F7F7F7F7F7F7F7B
:101580007F7F7F7F7F7F7F7F7F7F7F7F7F7F7F7F6B
:101590007F7F7F7E7E7E7E7E7E7E7E7E7E7E7E7E68
:1015A0007E7E7E7E7D7D7D7D7D7D7D7D7D7D7D7D67
:1015B0007D7C7C7C7C7C7C7C7C7C7C7C7B7B7B7B6E
:1015C0007B7B7B7B7B7B7A7A7A7A7A7A7A7A7A7976
:1015D0007979797979797978787878787878777786
:1015E000777777777776767676767676757575759A
:1015F00075757574747474747473737373737372B0
:101600007272727271717171717170707070706FCD
:101610006F6F6F6F6E6E6E6E6E6D6D6D6D6D6C6CEF
:101620006C6C6C6B6B6B6B6B6A6A6A6A6A69696912
:10163000696868686867676767676666666665653C
:10164000656564646464636363636262626261616A
:101650006161606060605F5F5F5F5E5E5E5E5D5D9A
:101660005D5C5C5C5C5B5B5B5B5A5A5A59595959CF
:101670005858585757575756565655555555545408
:1016800054535353535252525151515050504F4F43
:101690004F4F4E4E4E4D4D4D4C4C4C4B4B4B4A4A82
:1016A0004A4A4949494848484747474646464545C2
:1016B0004544444443434342424241414140404007
:1016C0003F3F3F3E3E3E3D3D3D3C3C3B3B3B3A3A4F
:1016D0003A39393938383837373736363635353498
:1016E000343433333332323231313030302F2F2FE4
:1016F0002E2E2E2D2D2C2C2C2B2B2B2A2A2A292931
:10170000282828272727262625252524242423237F
:1017100022222222212120201F1F1F1E1E1D1D1DCF
:101720001C1C1C1B1B1A1A1A191918181817171722
:101730001616151515141413131312121211111075
:1017400010100F0F0E0E0E0D0D0C0C0C0B0B0A0AC9
:101750000A0909090808070707060605050504041C
:1017600003030302020101010000FFFFFFFEFEFE72
:10177000FDFDFCFCFCFBFBFAFAFAF9F9F8F8F8F7C6
:10178000F7F6F6F6F5F5F5F4F4F3F3F3F2F2F1F11A
:10179000F1F0F0EFEFEFEEEEEDEDEDECECECEBEB6E
:1017A000EAEAEAE9E9E8E8E8E7E7E7E6E6E5E5E5C1
:1017B000E4E4E3E3E3E2E2E2E1E1E0E0E0DFDFDF13
:1017C000DEDEDDDDDDDCDCDBDBDBDADADAD9D9D865
:1017D000D8D8D7D7D7D6D6D6D5D5D4D4D4D3D3D3B3
:1017E000D2D2D1D1D1D0D0D0CFCFCFCECECDCDCD02
:1017F000CCCCCCCBCBCBCACAC9C9C9C8C8C8C7C74F
:10180000C7C6C6C6C5C5C5C4C4C4C3C3C2C2C2C197
:10181000C1C1C0C0C0BFBFBFBEBEBEBDBDBDBCBCE0
:10182000BCBBBBBBBABABAB9B9B9B8B8B8B7B7B725
:10183000B6B6B6B5B5B5B5B4B4B4B3B3B3B2B2B267
:10184000B1B1B1B0B0B0B0AFAFAFAEAEAEADADADA7
:10185000ACACACACABABABAAAAAAAAA9A9A9A8A8E4
:10186000A8A8A7A7A7A6A6A6A6A5A5A5A4A4A4A41C
:10187000A3A3A3A3A2A2A2A1A1A1A1A0A0A0A09F53
:101880009F9F9F9E9E9E9E9D9D9D9D9C9C9C9C9B84
:101890009B9B9B9A9A9A9A999999999898989898B3
:1018A00097979797969696969695959595949494DE
:1018B0009494939393939392929292929191919103
:1018C0009190909090908F8F8F8F8F8E8E8E8E8E26
:1018D0008E8D8D8D8D8D8C8C8C8C8C8C8B8B8B8B45
:1018E0008B8B8A8A8A8A8A8A8A898989898989895D
:1018F0008888888888888887878787878787868673
:101900008686868686868585858585858585858482
:10191000848484848484848484838383838383838E
:101920008383838382828282828282828282828293
:101930008281818181818181818181818181818196
:101940008181808080808080808080808080808095
:101950008080808080808080808080808080808087
:101960008080808080808080808080808080808077
:101970008080808080808080808080808080808067
:101980008080808080808080808080808080808057
:10199000808080818181818181818181818181813A
:1019A000818181818282828282828282828282821B
:1019B00082838383838383838383838384848484F4
:1019C00084848484848485858585858585858586CC
:1019D000868686868686868787878787878788889C
:1019E0008888888888888989898989898A8A8A8A69
:1019F0008A8A8A8B8B8B8B8B8B8C8C8C8C8C8C8D32
:101A00008D8D8D8D8E8E8E8E8E8E8F8F8F8F8F90F3
:101A100090909090919191919192929292929393B1
:101A2000939393949494949495959595969696966D
:101A300096979797979898989898999999999A9A24
:101A40009A9A9B9B9B9B9C9C9C9C9D9D9D9D9E9ED6
:101A50009E9E9F9F9F9FA0A0A0A0A1A1A1A1A2A286
:101A6000A2A3A3A3A3A4A4A4A4A5A5A5A6A6A6A631
:101A7000A7A7A7A8A8A8A8A9A9A9AAAAAAAAABABD8
:101A8000ABACACACACADADADAEAEAEAFAFAFB0B07D
:101A9000B0B0B1B1B1B2B2B2B3B3B3B4B4B4B5B51E
:101AA000B5B5B6B6B6B7B7B7B8B8B8B9B9B9BABABE
:101AB000BABBBBBBBCBCBCBDBDBDBEBEBEBFBFBF59
:101AC000C0C0C0C1C1C1C2C2C2C3C3C4C4C4C5C5F1
:101AD000C5C6C6C6C7C7C7C8C8C8C9C9C9CACACB88
:101AE000CBCBCCCCCCCDCDCDCECECFCFCFD0D0D01C
:101AF000D1D1D1D2D2D3D3D3D4D4D4D5D5D5D6D6AF
:101B0000D7D7D7D8D8D8D9D9DADADADBDBDBDCDC3F
:101B1000DDDDDDDEDEDEDFDFE0E0E0E1E1E2E2E2CE
:101B2000E3E3E3E4E4E5E5E5E6E6E7E7E7E8E8E85C
:101B3000E9E9EAEAEAEBEBECECECEDEDEDEEEEEFE9
:101B4000EFEFF0F0F1F1F1F2F2F3F3F3F4F4F5F575
:101B5000F5F6F6F6F7F7F8F8F8F9F9FAFAFAFBFB02
:101B6000FCFCFCFDFDFEFEFEFFFF8080808080808F
:101B70008080808080808080808080808080808065
:101B80008080808080808080808080808080808055
:101B90008080808181818181818181818181818138
:101BA0008181818182828282828282828282828219
:101BB00082838383838383838383838384848484F2
:101BC00084848484848485858585858585858586CA
:101BD000868686868686868787878787878788889A
:101BE0008888888888888989898989898A8A8A8A67
:101BF0008A8A8A8B8B8B8B8B8B8C8C8C8C8C8C8D30
:101C00008D8D8D8D8E8E8E8E8E8E8F8F8F8F8F90F1
:101C100090909090919191919192929292929393AF
:101C2000939393949494949495959595969696966B
:101C300096979797979898989898999999999A9A22
:101C40009A9A9B9B9B9B9C9C9C9C9D9D9D9D9E9ED4
:101C50009E9E9F9F9F9FA0A0A0A0A1A1A1A1A2A284
:101C6000A2A3A3A3A3A4A4A4A4A5A5A5A6A6A6A62F
:101C7000A7A7A7A8A8A8A8A9A9A9AAAAAAAAABABD6
:101C8000ABACACACACADADADAEAEAEAFAFAFB0B07B
:101C9000B0B0B1B1B1B2B2B2B3B3B3B4B4B4B5B51C
:101CA000B5B5B6B6B6B7B7B7B8B8B8B9B9B9BABABC
:101CB000BABBBBBBBCBCBCBDBDBDBEBEBEBFBFBF57
:101CC000C0C0C0C1C1C1C2C2C2C3C3C4C4C4C5C5EF
:101CD000C5C6C6C6C7C7C7C8C8C8C9C9C9CACACB86
:101CE000CBCBCCCCCCCDCDCDCECECFCFCFD0D0D01A
:101CF000D1D1D1D2D2D3D3D3D4D4D4D5D5D5D6D6AD
:101D0000D7D7D7D8D8D8D9D9DADADADBDBDBDCDC3D
:101D1000DDDDDDDEDEDEDFDFE0E0E0E1E1E2E2E2CC
:101D2000E3E3E3E4E4E5E5E5E6E6E7E7E7E8E8E85A
:101D3000E9E9EAEAEAEBEBECECECEDEDEDEEEEEFE7
:101D4000EFEFF0F0F1F1F1F2F2F3F3F3F4F4F5F573
:101D5000F5F6F6F6F7F7F8F8F8F9F9FAFAFAFBFB00
:101D6000FCFCFCFDFDFEFEFEFFFF0000000101018A
:101D70000202030303040405050506060707070816
:101D8000080909090A0A0A0B0B0C0C0C0D0D0E0EA2
:101D90000E0F0F101010111112121213131314142E
:101DA000151515161617171718181819191A1A1ABB
:101DB0001B1B1C1C1C1D1D1D1E1E1F1F1F20202049
:101DC00021212222222323242424252525262627D7
:101DD000272728282829292A2A2A2B2B2B2C2C2C68
:101DE0002D2D2E2E2E2F2F2F3030303131323232FA
:101DF000333333343434353536363637373738388D
:101E0000383939393A3A3A3B3B3B3C3C3D3D3D3E23
:101E10003E3E3F3F3F4040404141414242424343BA
:101E20004344444445454546464647474748484855
:101E30004949494A4A4A4A4B4B4B4C4C4C4D4D4DF3
:101E40004E4E4E4F4F4F4F50505051515152525293
:101E50005353535354545455555555565656575736
:101E60005757585858595959595A5A5A5B5B5B5BDE
:101E70005C5C5C5C5D5D5D5E5E5E5E5F5F5F5F6087
:101E80006060606161616162626262636363636436
:101E900064646465656565666666666767676767E7
:101EA00068686868696969696A6A6A6A6A6B6B6B9B
:101EB0006B6B6C6C6C6C6C6D6D6D6D6E6E6E6E6E56
:101EC0006E6F6F6F6F6F7070707070717171717114
:101ED00071727272727273737373737374747474D5
:101EE000747475757575757575767676767676769D
:101EF0007777777777777778787878787878797967
:101F00007979797979797A7A7A7A7A7A7A7A7A7B36
:101F10007B7B7B7B7B7B7B7B7B7C7C7C7C7C7C7C0A
:101F20007C7C7C7C7D7D7D7D7D7D7D7D7D7D7D7DE5
:101F30007D7E7E7E7E7E7E7E7E7E7E7E7E7E7E7EC2
:101F40007E7E7F7F7F7F7F7F7F7F7F7F7F7F7F7FA3
:101F50007F7F7F7F7F7F7F7F7F7F7F7F7F7F7F7F91
:101F60007F7F7F7F7F7F7F7F7F7F7F7F7F7F7F7F81
:101F70007F7F7F7F7F7F7F7F7F7F7F7F7F7F7F7F71
:101F80007F7F7F7F7F7F7F7F7F7F7F7F7F7F7F7F61
:101F90007F7F7F7F7E7E7E7E7E7E7E7E7E7E7E7E5D
:101FA0007E7E7E7E7D7D7D7D7D7D7D7D7D7D7D7D5D
:101FB0007D7C7C7C7C7C7C7C7C7C7C7C7B7B7B7B64
:101FC0007B7B7B7B7B7B7A7A7A7A7A7A7A7A7A796C
:101FD000797979797979797878787878787877777C
:101FE000777777777777767676767676757575758F
:101FF00075757574747474747473737373737372A6
:102000007272727271717171717170707070706FC3
:102010006F6F6F6F6E6E6E6E6E6D6D6D6D6D6C6CE5
:102020006C6C6C6B6B6B6B6B6A6A6A6A6A69696908
:102030006968686868676767676766666666656532
:102040006565646464646363636362626262616160
:102050006161606060605F5F5F5F5E5E5E5E5D5D90
:102060005D5C5C5C5C5B5B5B5B5A5A5A59595959C5
:1020700058585857575757565656555555555454FE
:1020800054535353535252525151515050504F4F39
:102090004F4F4E4E4E4D4D4D4C4C4C4B4B4B4A4A78
:1020A0004A4A4949494848484747474646464545B8
:1020B00045444444434343424242414141404040FD
:1020C0003F3F3F3E3E3E3D3D3D3C3C3C3B3B3A3A44
:1020D0003A3939393838383737373636363535348E
:1020E000343433333332323231313030302F2F2FDA
:1020F0002E2E2E2D2D2C2C2C2B2B2B2A2A2A292927
:102100002828282727272626252525242424232375
:1021100022222222212120201F1F1F1E1E1D1D1DC5
:102120001C1C1C1B1B1A1A1A191918181817171718
:10213000161615151514141313131212121111106B
:1021400010100F0F0E0E0E0D0D0C0C0C0B0B0A0ABF
:102150000A09090908080707070606050505040412
:102160000303030202010101000000FFFFFEFEFE67
:10217000FDFDFCFCFCFBFBFAFAFAF9F9F8F8F8F7BC
:10218000F7F6F6F6F5F5F5F4F4F3F3F3F2F2F1F110
:10219000F1F0F0EFEFEFEEEEEEEDEDECECECEBEB63
:1021A000EAEAEAE9E9E8E8E8E7E7E7E6E6E5E5E5B7
:1021B000E4E4E3E3E3E2E2E2E1E1E0E0E0DFDFDE0A
:1021C000DEDEDDDDDDDCDCDBDBDBDADADAD9D9D85B
:1021D000D8D8D7D7D7D6D6D5D5D5D4D4D4D3D3D3AA
:1021E000D2D2D1D1D1D0D0D0CFCFCFCECECDCDCDF8
:1021F000CCCCCCCBCBCBCACAC9C9C9C8C8C8C7C745
:10220000C7C6C6C6C5C5C5C4C4C4C3C3C2C2C2C18D
:10221000C1C1C0C0C0BFBFBFBEBEBEBDBDBDBCBCD6
:10222000BCBBBBBBBABABAB9B9B9B8B8B8B7B7B71B
:10223000B6B6B6B5B5B5B5B4B4B4B3B3B3B2B2B25D
:10224000B1B1B1B0B0B0B0AFAFAFAEAEAEADADAD9D
:10225000ACACACACABABABAAAAAAAAA9A9A9A8A8DA
:10226000A8A8A7A7A7A6A6A6A6A5A5A5A4A4A4A412
:10227000A3A3A3A3A2A2A2A1A1A1A1A0A0A0A09F49
:102280009F9F9F9E9E9E9E9D9D9D9D9C9C9C9C9B7A
:102290009B9B9B9A9A9A9A999999999898989898A9
:1022A00097979797969696969695959595949494D4
:1022B00094949393939393929292929291919191F9
:1022C0009190909090908F8F8F8F8F8E8E8E8E8E1C
:1022D0008E8D8D8D8D8D8C8C8C8C8C8C8B8B8B8B3B
:1022E0008B8B8A8A8A8A8A8A8A8989898989898953
:1022F0008888888888888887878787878787868669
:102300008686868686868585858585858585858478
:102310008484848484848484848383838383838384
:102320008383838382828282828282828282828289
:10233000828181818181818181818181818181818C
:10234000818180808080808080808080808080808B
:10235000808080808080808080808080808080807D
:10236000808080808080808080800100000200006A
:102370000300040005070605040100080A0B0C0D04
:10238000090000000200080E0000030401000B0019
:10239000000000000000000000000000000000003D
:1023A0000408020110408040102040804080080254
:1023B00004018040201002011080102040402004C1
:1023C00004040404030405020202020403020202DC
:1023D00002060606060606040402020204040000C1
:1023E00000002300260029002C002F000000000020
:1023F000250028002B002E003100000000002400E2
:1024000027002A002D003000080B00020202010004
:102410000904000001020200000524001001052447
:1024200001010104240206052406000107058103B9
:1024300010004009040100020A0000000705020222
:102440004000000705830240000009040400020167
:1024500003000007240100012200062402010100FC
:1024600009240301020103010006240202030009FA
:1024700024030204010101000705050240000005D4
:102480002501010107058602400000052501010222
:1024900009040300000101000009240100010900F2
:1024A000010400C18081C18081120100020200008C
:1024B00040412336800001010200011201000200A8
:1024C0000000404123368000010102000120034149
:1024D0000072006400750069006E006F0020004CFF
:1024E000004C004300200020002000200022034177
:1024F0000072006400750069006E006F0020004CDF
:102500000065006F006E006100720064006F0004DF
:1025100003090400000000000000002A2B2800002E
:1025200000000000000000000000000000000000AB
:102530000000002C9EB4A0A1A2A434A6A7A5AE368C
:102540002D3738271E1F20212223242526B333B6FA
:102550002EB7B89F8485868788898A8B8C8D8E8FCD
:10256000909192939495969798999A9B9C9D2F31D0
:1025700030A3AD350405060708090A0B0C0D0E0F34
:10258000101112131415161718191A1B1C1DAFB1B0
:10259000B0B5000904020001030000000921010197
:1025A00000012265000705840340000105010902BE
:1025B000A1010901A10085010509190129031500DF
:1025C00025019503750181029501750581030501BA
:1025D0000930093109381581257F75089503810671
:1025E000C0C005010906A1018502050719E029E718
:1025F0001500250175019508810295017508810373
:1026000095067508150025650507190029658100DF
:10261000C0000F1C28203021B6245E26CE27662E4F
:1026200011241FBECFEFDAE0DEBFCDBF11E0A0E086
:10263000B1E0ECE1F5E602C005900D92A03CB107D7
:10264000D9F727E0A0ECB1E001C01D92A531B20797
:10265000E1F716E2C0E2D6E204C02297FE010E9432
:102660004B32C231D107C9F70E94B4260C948C3288
:102670000C94000086E096E090930E0380930D0387
:10268000109259021092580210925B0210925A0254
:1026900010925D0210925C0210925F0210925E0234
:1026A0001092610210926002109263021092620214
:1026B00010926502109264021092670210926602F4
:1026C000109269021092680210926B0210926A02D4
:1026D00010926D0210926C0210926F0210926E02B4
:1026E0001092710210927002109273021092720294
:1026F0001092750210927402109277021092760274
:10270000109279021092780210927B0210927A0253
:102710008AE69BE1909357028093560290934D0274
:1027200080934C0210923B0210923A028FEF93E09A
:1027300090933D0280933C0210923F0210923E0221
:102740008CEB92E090934102809340028AE090E00B
:10275000909343028093420280E890E090930202BB
:10276000809301021092070251E050930F0242E061
:102770004093170233E030931F0224E02093270296
:10278000109226029093C9018093C8011092CE0145
:102790005093D6014093DE013093E6012093EE0181
:1027A0001092ED010895DC01ED91FC910190F08112
:1027B000E02D0994DC01ED91FC910190F081E02D78
:1027C0000994AF92BF92CF92DF92EF92FF920F9354
:1027D0001F93CF93DF9361E08AE00E94262388ED68
:1027E00096E190935B0280935A028EE297E1909378
:1027F00059028093580242E15AE760E070E080910C
:102800000D0390910E030E94DD2510927F0210921D
:102810007E0210927D021092860210928502109222
:1028200084021092830210920C031092890210927B
:1028300088021092870210928A0210928B02809175
:102840007C0281708260816080937C02AA24AA94B9
:10285000A0920E0280EF8093160280931E02BB248A
:10286000B394B092260210922E024CE050E05093A6
:10287000090240930802009101021091020298019E
:10288000ACE0B0E00E944F3260930A0270930B02FA
:1028900080930C0290930D02E9E1F0E0F0931102B5
:1028A000E0931002A9E1B0E00E944F326B017C017D
:1028B0006093120270931302809314029093150296
:1028C00084ED90E19093190280931802A4EDB0E199
:1028D0000E944F3260931A0270931B0280931C0275
:1028E00090931D02F0932102E0932002C0922202F5
:1028F000D0922302E0922402F0922502CFEFDFE192
:10290000D0932902C0932802AFEFBFE10E944F325B
:1029100060932A0270932B0280932C0290932D02D5
:10292000A092D5018FE78093DD018093E501B092FD
:10293000ED011092F5015093D0014093CF014091E9
:10294000C8015091C9019A01ACE0B0E00E944F3239
:102950006093D1017093D2018093D3019093D401FD
:10296000F093D801E093D701A9E1B0E00E944F3283
:102970006B017C016093D9017093DA018093DB01D4
:102980009093DC0182EE94E09093E0018093DF016C
:10299000A2EEB4E00E944F326093E1017093E20135
:1029A0008093E3019093E401F093E801E093E70161
:1029B000C092E901D092EA01E092EB01F092EC01C1
:1029C000D093F001C093EF01AFEFBFE10E944F320F
:1029D0006093F1017093F2018093F3019093F401FD
:1029E0002FB7F89480E090E0A7E3B0E08093520224
:1029F00090935302A0935402B09355022FBF80E8E6
:102A000090E00E94641F60E875E284EB95E00E940C
:102A1000B524CEE0D1E08881229662E00E94262390
:102A200081E0C831D807B9F762E080E10E9426232F
:102A3000C8E1D1E08881229661E00E94262381E0EE
:102A4000C232D807B9F760E08EE10E94262360E029
:102A500081E10E942623E0911C03F0E0EE0FFF1FAE
:102A6000E85EFE4F61E080810E945F2388EC8093E6
:102A7000C00184E68093C10181E491E09093C30199
:102A80008093C201DF91CF911F910F91FF90EF9042
:102A9000DF90CF90BF90AF900895CF93DF938130B8
:102AA000D9F068F0823051F18330C1F5CAE6D1E047
:102AB000D0935702C09356026FE571E027C08AE6B3
:102AC00093E1909357028093560290934D02809326
:102AD0004C026CE271E00CC08AE693E090935702DE
:102AE0008093560290934D0280934C026CE371E008
:102AF00084EB95E0DF91CF910C941328CAE6DBE0DC
:102B0000D0935702C093560260E571E084EB95E0E4
:102B10000E941328D0934D02C0934C02DF91CF91B5
:102B200008958F929F92AF92BF92CF92DF92EF92D1
:102B3000FF920F931F93CF93DF9320911003309157
:102B40001103409112035091130380914802909118
:102B50004902A0914A02B0914B02C0904402D09029
:102B60004502E0904602F09047028C0D9D1DAE1D7F
:102B7000BF1D8093440290934502A0934602B093F8
:102B80004702CD019770E0914C02F0914D02E80FA1
:102B9000F91FA491BB27A7FDB0950E947032209128
:102BA0003902222349F12FB7F89480903502909092
:102BB0003602A0903702B0903802C0903102D09017
:102BC0003202E0903302F0903402C80CD91CEA1CA7
:102BD000FB1CC0923102D0923202E0923302F0929A
:102BE00034022FBFC0903102D0903202E090330205
:102BF000F09034025E2D01C050E00091520210911D
:102C000053022091540230915502C0904E02D09050
:102C10004F02E0905002F09051020C0D1D1D2E1D30
:102C20003F1D00934E0210934F02209350023093A9
:102C300051024B015C019BE0880C991CAA1CBB1C37
:102C40009A95D1F7800E911EA21EB31EC5019770F2
:102C5000E0915602F0915702E80FF91F4491F0916C
:102C6000C1018091C4019091C501C091C601D0916C
:102C7000C701DC01AC1BBD0B2091C2013091C30127
:102C80006C01EE24D7FCE094FE2C45034001112496
:102C9000892C990C99088594881A990AAA2497FC7A
:102CA000A094BA2C0E945E32BB2797FDBA95A92F3B
:102CB000982F872F880E991EAA1EBB1EAF2FB0E03B
:102CC000A50194010E946532BB2797FDBA95A92FF3
:102CD000982F872FC80ED91EEA1EFB1ED092C50161
:102CE000C092C401CC1ADD0AFC9DC001FD9D900D6F
:102CF0001124892F990F990B8C0F9D1F9093C70159
:102D00008093C601992787FD9095DF91CF911F9100
:102D10000F91FF90EF90DF90CF90BF90AF909F907A
:102D20008F9008950C94EE1ECF92DF92EF92FF9257
:102D30000F931F93CF93DF93EC018B011B821A82B9
:102D4000FB01818192819D838C83C8A8D9A8EAA8C0
:102D5000FBA86781862F90E0A0E0B0E07727662788
:102D60006C197D098E099F09238134814581568123
:102D70000E942A322CAB3DAB4EAB5FAB1FA70EA718
:102D8000DF91CF911F910F91FF90EF90DF90CF9047
:102D90000895FC01228133812F5F3F4F33832283CB
:102DA000448155812417350710F00C94941608952A
:102DB000CF9380911F03909120030196909320035D
:102DC00080931F0370E080E090E00E94762F0E94C5
:102DD0003721609318037093190380931A0390931B
:102DE0001B0360930201709303018093040190938D
:102DF0000501CFB7F89420E030E040E055E40E94B0
:102E00002C3020E030E040E858E30E942C3020E0F5
:102E100030E040E857E40E942C300E944A2F609333
:102E20005202709353028093540290935502CFBF85
:102E300067E072E081E092E00E949416C1E0C093E6
:102E400039026EEC71E088EC91E00E949416C09318
:102E5000000261E08AE0CF910C945F2380911F0310
:102E60009091200301979093200380931F036FE1BB
:102E700072E081E092E00E94941666EE71E088ECC8
:102E800091E00E94941660E08AE00C945F23DC01DC
:102E9000D0968D919C91D197813F910509F4BCC04A
:102EA0003CF5803B910509F45FC07CF480399105C5
:102EB000E9F1803A910509F474C08038910509F070
:102EC000D8C0ED91FC91119770C0803D910509F437
:102ED00078C02CF4803C910509F478C00895803EB8
:102EE000910509F446C0803F910509F47CC008951E
:102EF0008A3F910529F174F4833F910509F4A4C038
:102F00000CF48FC0863F910509F4A7C0883F910556
:102F100091F008958C3F9105E9F0BCF08E3F91054A
:102F2000F1F08F3F910509F49DC008951296ED913F
:102F3000FC9113973AC05896ED91FC91599796C021
:102F40005A96ED91FC915B9791C05C96ED91FC9146
:102F50005D978CC05E96ED91FC915F9787C09096CF
:102F6000ED91FC91919782C01696ED91FC91179787
:102F70001CC01C96ED91FC911D97309709F479C007
:102F8000D3966C91D3976F7720E8629FB00111249C
:102F9000D2968C91D2978F77682B70529F968C9196
:102FA00009941496ED91FC911597309709F461C03E
:102FB000D3964C91D397D2966C91D2979F968C9141
:102FC00009941A96ED91FC911B9704C01896ED9107
:102FD000FC911997309709F44CC0D2966C91D29716
:102FE0009F968C9109941E96ED91FC911F973097B6
:102FF00009F43FC0D3966C91D39770E0762F662783
:10300000D2968C91D297682B6138710510F060E8E8
:1030100070E0CD01C49609945096ED91FC915197C2
:1030200017C05296ED91FC915397309711F1D396BA
:103030008C91D3978F7720E8829FC0011124D2967C
:103040002C912F77822B09945496ED91FC915597F2
:10305000309779F0D2968C9109945696ED91FC9127
:10306000579704C09296ED91FC919397309709F091
:10307000099408959C012F7C2038310569F0803D2A
:10308000910551F0803E910539F021E0803C910599
:1030900009F020E0822F089581E0089587FF0DC098
:1030A0009CE0980F923048F0893F39F08D3F29F02D
:1030B000803F08F4807F90E0089580E090E00895DC
:1030C0000F931F93CF93DF938C01EB016D3F71053D
:1030D00054F46A3F710564F4663F710549F0683F36
:1030E000710599F405C0CB018E5F9109029768F4D0
:1030F000F801EB54FF4F80819181DC01ED91FC914F
:103100000190F081E02D6C2F0995C63FD10511F497
:10311000F80116A2DF91CF911F910F910895EF92C0
:10312000FF920F931F93CF93DF93EB01F22E015089
:10313000003118F46038710524F4DC0196961C9275
:1031400047C0613E7105B4F54F77E42E602BFC015A
:1031500036A18C010B541F4F361759F066A3D801C6
:103160008D919C91DC01ED91FC910190F081E02D1D
:103170000995F80180819181DC01ED91FC9101902C
:10318000F081E02D6E2D0995CF7EC03CD10501F177
:10319000F80180819181DC01ED91FC916F2D6F77B9
:1031A0000190F081E02DDF91CF911F910F91FF9061
:1031B000EF9009949B01265F31092A30310540F4D4
:1031C000DF91CF911F910F91FF90EF900C946018B9
:1031D000DF91CF911F910F91FF90EF900895AF92E3
:1031E000BF92CF92DF92EF92FF920F931F93CF93F4
:1031F000DF931F92CDB7DEB75C01DC0194968C9112
:10320000949780FFF0C0982F9E7F09F4ECC0D09671
:103210006D917C91D1979B01205831092136310560
:1032200048F59F960C919F9797969C9121E00917DE
:1032300011F0911120E0869590E08230910539F0EF
:103240008330910589F0019709F0CDC00FC022238A
:1032500009F4C9C0D501D3962C91D397D2964C913D
:10326000C5010E948F18BFC02111BDC0F50123A95F
:1032700042A9F6CFFB01E05FF109E031F10508F06A
:10328000B2C0EA5AFF4F0C944932C5010F90DF914A
:10329000CF911F910F91FF90EF90DF90CF90BF9053
:1032A000AF900C94601885010C5C1F4FD501D3962C
:1032B0008C91D39790E0982F8827D2962C91822BCF
:1032C0008138910510F080E890E06C01C00ED11EAD
:1032D0007501B5EBEB0EF11C0C151D0509F481C051
:1032E000F70180819181D8016D918D01DC01ED9113
:1032F000FC910190F081E02D0995EECFD501D29699
:10330000FC9085010B541F4FF80180819181DC01F5
:10331000ED91FC910190F081E02D63EF09956F2D07
:103320006F7770E0F801808191810E94DA13D501F6
:1033300096961C9258C0F50103A9F0E80F9F8001F2
:103340001124D501D2968C91082B7501B5EBEB0EAB
:10335000F11CF70180819181DC01ED91FC910190DC
:10336000F081E02D62EF0995B8016F777727F701BB
:10337000808191810E94D313B801660F672F661F69
:10338000770B71956F777727D7018D919C910E946C
:10339000D31327C0D501D2968C918770B0E18B9F53
:1033A000C0011124F50123A92F70282B85010B548E
:1033B0001F4FD8018D919C91DC01ED91FC91019002
:1033C000F081E02D61EF29830995F80180819181D9
:1033D000DC01ED91FC910190F081E02D2981622FBB
:1033E0000995F50116A20F90DF91CF911F910F91D2
:1033F000FF90EF90DF90CF90BF90AF900895AF9285
:10340000BF92DF92EF92FF920F931F93CF93DF93C0
:103410001F92CDB7DEB75C01DC019796DC90B0E17E
:10342000BD1508F4BFC18C010B541F4FF8018081FA
:103430009181DC01ED91FC910480F581E02D0995ED
:10344000892B09F4AFC1F80180819181DC01ED91F4
:10345000FC910680F781E02D09958C01F50185A589
:1034600096A5009709F0D3C000A7F5A08F2D0E9464
:103470004E180E943A18882379F007FD0DC0D50137
:103480009896FC92989799960C93999781E090E082
:103490009E969C938E939D97F50110A5812F0E9477
:1034A0004E18813F910509F463C094F5803B910566
:1034B00009F466C06CF48039910509F461C0803A62
:1034C000910509F45DC08038910509F05FC058C0CE
:1034D000803D910509F44CC02CF4803C910509F421
:1034E00047C054C0803E910509F44AC0803F910511
:1034F00009F04CC020E830E0D5019C963C932E9317
:103500009B9795961C92959720EFD4962C9345C047
:10351000883F9105A9F044F4833F910549F184F176
:10352000863F910569F032C08A3F91057CF18D3F5D
:10353000910534F09C012E5F31092230310530F5C0
:10354000D501D1969C938E93D0979F961C929F976E
:10355000D2961C92D297D3961C9281E0F501EC543E
:10356000FF4F8083F50116A615A614A613A61CC14D
:1035700022E030E0D5019C963C932E939B970DC0A2
:1035800023E030E0F50134A723A707C0F50116A614
:1035900015A614A613A615A205C1D5019D962D91B9
:1035A0003C919E979B964D915C919C97BA0161507E
:1035B00071092617370728F1D1969C938E93D097DF
:1035C000812F8F708F5F9F968C939F9799968C9188
:1035D0009997D2968C93D2974330510531F49A96AD
:1035E0008C919A97D3968C9302C0F50113AAD501BA
:1035F0009E961C921E929D979C961C921E929B9743
:103600002BC02F5F3F4FF50136A725A7CBC007FF83
:1036100050C0980133272D3F31055CF42A3F310516
:1036200074F4273F3105F1F0283F310509F041C01E
:1036300006C0A9014E5F510942305105D0F5D501B0
:10364000D1963C932E93D097D2961C92D297D39634
:103650001C92D3979F961C9281E0F501EC54FF4F8A
:103660008083A2C0F50124A9203F09F59C012F5FAA
:103670003F4FE80FF91F47EF44AB80EF90E0D501D3
:10368000D1969C938E93D097D2962C93D297D39623
:103690003C93D3979F961C9281E0F501EC54FF4F29
:1036A0008083F50116A615A614A613A673C0D5012E
:1036B0001AC0F50120A5E80FF91F203F11F404AB53
:1036C00001C000A7D5019B96ED90FC909C979701B7
:1036D000215031098217930708F45EC098962C9107
:1036E0009897203F59F49E961C921E929D979C9607
:1036F0001C921E929B9795961C9254C0822F2983F0
:103700000E944E188C01F50191AB80AB0E943A18D3
:103710002981882339F0822F8F708F5FD5019F9682
:103720008C9302C0F50117A6D50199968C919997B3
:10373000D2968C93B3E0EB16F10421F4F50182A547
:1037400083AB03C0D501D3961C92F50116A615A62E
:1037500014A613A681E0EC54FF4F8083003B1105B3
:10376000A1F054F40039110581F0003A110569F017
:103770000038110571F409C0003D110531F0003E1B
:10378000110519F0003C110521F4D50195962C93F3
:103790000BC0F50115A208C00196D5019E969C9319
:1037A0008E939D9710E02FC0F50180A991A98039D3
:1037B000910521F4F50183A9882301F1D501D09663
:1037C0008D919C91D197009799F0805891098136FD
:1037D000910548F497968C9197979F969C9198178E
:1037E00011F0811105C0C5010E94471711E001C009
:1037F00010E06D2DC5010E94EF1805C080E890E033
:1038000091AB80ABDBCF812F0F90DF91CF911F91D8
:103810000F91FF90EF90DF90BF90AF9008950C94C0
:103820003A131F93CF93DF9300D0CDB7DEB780EB71
:1038300096E00E94C5261816190624F580EB96E03E
:103840000E94D726182F492F693099F49923C1F087
:1038500010921E0310921D0361E08AE09A8379831F
:103860000E945F234A81612F7981872F0E94D81699
:10387000DECF6830E1F6612F872F0E942E17D7CF59
:1038800040E0F9CF0F900F90DF91CF911F910895F5
:10389000CF92DF92EF92FF920F931F93CF93DF931C
:1038A0000E94111C88E592E00E94FF19C6E0D1E059
:1038B00004E313E0888122960E94CF20F8018193CF
:1038C00091938F01F1E0CE30DF07A1F7CEE0D1E098
:1038D00007E213E0888122960E94952321E0892B3C
:1038E00009F020E0F80121938F0180E10E949523E7
:1038F00021E0892B09F020E020932103F1E0C83179
:10390000DF0741F790912803809123039923B1F1B8
:10391000811137C0E0911C03E150E0931C03F0E0FB
:103920003196E370FF27EE0FFF1FE85EFE4F60E069
:1039300080810E945F2380911C03837080931C030D
:1039400061E771E084EB95E00E9413284AE050E0C3
:1039500060911C0384EB95E00E94A828E0911C0371
:10396000F0E0EE0FFF1FE85EFE4F61E080810E94F5
:103970005F23809128038093230303C08111109259
:10398000230390912A0380912503992399F18111B2
:1039900034C0E0911C03EF5FE0931C03F0E0EE0FF6
:1039A000FF1FEA5EFE4F60E080810E945F238091EE
:1039B0001C03837080931C0361E771E084EB95E046
:1039C0000E9413284AE050E060911C0384EB95E0CC
:1039D0000E94A828E0911C03F0E0EE0FFF1FE85EB4
:1039E000FE4F61E080810E945F2380912A038093D3
:1039F000250303C0811110922503E0913403F09157
:103A0000350380912C0390912D03E817F90709F4F1
:103A100057C08091210381114FC080911C038230D7
:103A200091F0833069F1811147C0CF01AA2797FD3A
:103A3000A095BA2F8093100390931103A0931203C3
:103A4000B093130339C09F0140E050E0D3E0569596
:103A5000479537952795DA95D1F73093090220934A
:103A60000802A0910102B09102020E9465326093A7
:103A70000A0270930B0280930C0290930D021CC0FB
:103A80009F0140E050E0C3E0569547953795279554
:103A9000CA95D1F73093D0012093CF01A091C801EE
:103AA000B091C9010E9465326093D1017093D20137
:103AB0008093D3019093D401F0932D03E0932C03D2
:103AC000209136033091370380912E0390912F037C
:103AD0002817390709F467C080912703882339F034
:103AE00067E771E084EB95E00E94302854C0809134
:103AF0001C038230C9F0833099F181114CC0359597
:103B00002795359527952093C1018091C001209577
:103B1000289F90011124232F3327280F311D309324
:103B2000C3012093C20137C040E050E0F3E0569556
:103B3000479537952795FA95D1F730931102209341
:103B40001002A0910102B09102020E9465326093BE
:103B500012027093130280931402909315021BC0FB
:103B600040E050E0E3E05695479537952795EA9574
:103B7000D1F73093D8012093D701A091C801B0911B
:103B8000C9010E9465326093D9017093DA01809374
:103B9000DB019093DC018091360390913703909381
:103BA0002F0380932E03C0913803D0913903809165
:103BB000300390913103C817D90709F461C080918F
:103BC0001C03823009F453C0833009F453C08111BF
:103BD00053C0D0931E03C0931D03BE01882777FDF9
:103BE0008095982F0E94782F20E030E040E054E448
:103BF0000E94742E6B017C0120E030E048EC52EC16
:103C00000E94283018169CF420E030E048EC52E482
:103C1000C701B6010E94D92E87FF09C01092140374
:103C200010921503109216031092170325C020E07E
:103C300030E048EC52ECC701B6010E94D92E20E0DA
:103C400030E048EC52E418162CF0C701B6010E948F
:103C5000752E04C0C701B6010E94742E6093140330
:103C600070931503809316039093170305C0C093B8
:103C70001E0202C0C093E501D0933103C09330030C
:103C800020913A0330913B038091320390913303AA
:103C90002817390779F180911C038823F1F08230CD
:103CA00009F540E050E073E0569547953795279524
:103CB0007A95D1F73093210220932002A09101023E
:103CC000B09102020E946532609322027093230237
:103CD000809324029093250205C030930F03832F15
:103CE0000E944D1580913A0390913B0390933303CA
:103CF00080933203E0912F02F09130028081823074
:103D000091F038F4882361F08130B1F467E172E01A
:103D10000FC0833059F0843079F4109239020CC00E
:103D20006FE072E005C06FE172E002C067E272E02E
:103D300081E092E00E94C91620911403309115038E
:103D40004091160350911703609118037091190365
:103D500080911A0390911B030E94752E6B017C01C8
:103D60006093020170930301809304019093050115
:103D70006091000170910101882777FD8095982F4F
:103D80000E94782F9B01AC01C701B6010E942C3024
:103D90000E94452F2FB7F894CB01AA2797FDA09535
:103DA000BA2F6DE0880F991FAA1FBB1F6A95D1F724
:103DB0008093480290934902A0934A02B0934B0229
:103DC0002FBFDF91CF911F910F91FF90EF90DF9068
:103DD000CF9008950E94481C0C94C52090914E05E8
:103DE00080914D05981306C09091500580914F0524
:103DF00098131AC00E94911520914E05E22FF0E011
:103E0000EE0FFF1FE35BFC4F8C509F4F918380832D
:103E10002F5F20934E05211107C08091500591E03E
:103E2000892780935005089508951F920F920FB629
:103E30000F9211242F933F938F939F93AF93BF9330
:103E4000EF93FF9381E090913C03911180E0809388
:103E50003C03882361F180914D05E82FF0E0EE0FDF
:103E6000FF1FE35BFC4F208131818F5F80934D0505
:103E7000811119C080914F0591E0892780934F05EA
:103E80008091510590915205A0915305B091540530
:103E90000196A11DB11D8093510590935205A093E9
:103EA0005305B09354053093890020938800FF9107
:103EB000EF91BF91AF919F918F913F912F910F9073
:103EC0000FBE0F901F9018957F928F929F92AF9286
:103ED000BF92CF92DF92EF92FF920F931F93CF93F7
:103EE000DF938C0180E00E94722084B580934C03A4
:103EF00085B580934B0387B580934A03CEE6D0E027
:103F0000888180934903980140E050E060E472E4C6
:103F10008FE090E00E942A32DA01C90140E06AEEA7
:103F20007EE10E945C220E94B12284B5809344030A
:103F300085B58093430387B580934203888180933E
:103F4000410300E810E0F801808180934803C1E854
:103F5000D0E0888180934703B8E8CB2ED12CF601BE
:103F600080819181809346038FE6E82EF12CF70142
:103F700080818093450361E089E00E9426231092AE
:103F8000AC059DEAA92E95E0B92E98E1F501908344
:103F90002EEA822E25E0922E82E0F401808398831F
:103FA000F801808388EE91E0A0E0B0E0772473947C
:103FB0007092A7059093A9058093A8059093870018
:103FC0008093860089E1888361E089E00E9426234E
:103FD000F8018081F4019081892B8068F801808349
:103FE0002091A8053091A905A4EFB0E00E944F32BE
:103FF0003AE096958795779567953A95D1F7F601CA
:10400000718360838091A705F5019081892B888356
:10401000F7017082F801808180934003888180934A
:104020003F03F6018081918180933E03F7018081F7
:1040300080933D03DF91CF911F910F91FF90EF90FF
:10404000DF90CF90BF90AF909F908F907F9008951A
:1040500010924D0510924E0510924F05109250058A
:104060000895811109C080917A00846080937A005C
:1040700080917A008D7F1AC0813071F480917A002E
:104080008B7F80937A0080917A00826080937A009F
:1040900080917A0081600FC0823079F480917A003B
:1040A0008B7F80937A0080917A00826080937A007F
:1040B00080917A008E7F80937A00089580E090E06E
:1040C00041E050E060917E009A01082E01C0220F6D
:1040D0000A94EAF7622B60937E0001968C3091057A
:1040E00089F70895EAE7F0E09081986090830E9454
:1040F00031200C945E20823108F08251E82FF0E0EC
:10410000EB58FC4D84910895EBE7F0E0908183FB40
:10411000222720F930E045E0220F331F4A95E1F7CE
:104120009F7D922B90838770806480937C00EAE768
:10413000F0E08081806480830895CF93DF931F92A5
:10414000CDB7DEB780916105909162058F3F2FEF6B
:10415000920761F0FC01EB5AFA4F20812983019705
:104160009093620580936105898101C08FEF8093F0
:104170002101809121018F3F21F0809121010E9436
:1041800084200F90DF91CF910895809121018F3F7E
:1041900029F40E949D2081E08093200108950E94CF
:1041A0007B2020916105309162052B30310554F45C
:1041B0002F5F3F4F3093620520936105F901EB5A61
:1041C000FA4F8083E82FF0E0EE0FFF1FED59FA4F12
:1041D000808191810895EAE7F0E0808180648083A6
:1041E0000895E09121018091780090917900EE0F7F
:1041F000FF0BED59FA4F9183808308951F920F9220
:104200000FB60F9211242F933F934F935F936F93A9
:104210007F938F939F93AF93BF93EF93FF9380917F
:104220002001882329F00E94EB201092200107C072
:104230000E94F1200E949D2081E080932001FF9147
:10424000EF91BF91AF919F918F917F916F915F910E
:104250004F913F912F910F900FBE0F901F90189587
:104260008FEF9FEF90936205809361050895CF9241
:10427000DF92EF92FF926B017C0120E030E0A90118
:104280000E94D92E8823B9F020E030E040E451E4C8
:10429000C701B6010E94DD2E9B01AC0160E070E019
:1042A00080E090E40E948F3023E130ED42E051E461
:1042B0000E942C3003C060E070E0CB01FF90EF90D3
:1042C000DF90CF90089582E08093A6058FEF8093D2
:1042D00081051092830580917B0581508093820532
:1042E00080917C05880F81608093A40585EE809382
:1042F000BC00089584E08093A6058FEF809381052C
:104300001092830520917D0520938205A0917E0562
:10431000B0917F0584E895E0FC013E2F381B3217F1
:1043200018F43D913193F9CF8091800590E0880F8A
:10433000991F8093A40585EE8093BC00089585EDB8
:104340008093BC008091BC0084FDFCCF8091A605C9
:104350008093A5051092A6058091A505833011F4E0
:104360000C947A218091A505813011F40C9463217D
:10437000089585EC8093BC008091A6058093A505E7
:104380001092A6058091A505833011F40C947A2132
:104390008091A505813011F40C94632108951F923A
:1043A0000F920FB60F9211242F933F934F935F9369
:1043B0006F937F938F939F93AF93BF93EF93FF93ED
:1043C0008091B900887F883239F170F4803109F129
:1043D00030F4882309F45BC08830D9F05CC08831A0
:1043E000D9F0803261F157C08034C1F150F480338C
:1043F00031F1883309F04FC0809381050E94B921C3
:104400004AC08035F9F08835A9F1883409F043C0F5
:1044100040C08091A40510C09091830580918205D1
:104420009817B8F5E091830581E08E0F809383059E
:10443000F0E0EC57FA4F80818093BB0015C0809369
:10444000810527C0E091830581E08E0F809383056D
:104450008091BB00F0E0EC57FA4F80839091830588
:1044600080918205981710F485EC01C085E880934F
:10447000BC0011C0E091830581E08E0F809383051D
:104480008091BB00F0E0EC57FA4F808302C010929D
:1044900081050E949F21FF91EF91BF91AF919F9164
:1044A0008F917F916F915F914F913F912F910F90DD
:1044B0000FBE0F901F901895CF92DF92EF92FF9250
:1044C0007093B2056093B1054093B305A0E0B0E0EE
:1044D00034E0880F991FAA1FBB1F3A95D1F720E03F
:1044E00030E0F901E659FC4DE491EE2381F06C01D6
:1044F0007D01022E04C0F694E794D794C7940A94E1
:10450000D2F751E0C516D506E104F10438F02F5F6B
:104510003F4F2B30310529F780E01EC0A1E0B0E00D
:1045200002C0AA0FBB1F2A95E2F7A70196010E94BD
:10453000703224E095958795779567952A95D1F700
:104540007093B0056093AF0510926E0082E084BD59
:10455000E5BDCA94C7BC81E0FF90EF90DF90CF909B
:104560000895EEE6F0E0808182608083089578947B
:104570001F920F920FB60F9211242F933F934F93D8
:104580005F936F937F938F939F93AF93BF93EF93BB
:10459000FF9310926E00E091B105F091B20509957C
:1045A000F8948091B305882311F016BCA99A8091E4
:1045B0006E00826080936E00FF91EF91BF91AF918A
:1045C0009F918F917F916F915F914F913F912F912B
:1045D0000F900FBE0F901F90189590E0FC0131973F
:1045E000EE30F10590F5EA59FF4F0C944932809175
:1045F00080008F7703C0809180008F7D8093800042
:10460000089584B58F7702C084B58F7D84BD0895E9
:10461000809190008F7707C0809190008F7D03C0BC
:1046200080919000877F8093900008958091C000D2
:104630008F7703C08091C0008F7D8093C000089564
:104640008091C200877F8093C2000895CF93DF934B
:1046500090E0FC01E056FC4D2491FC01E154FC4D3E
:104660008491882349F190E0880F991FFC01E6505E
:10467000FC4DA591B49184519C4DFC01C591D49100
:104680009FB7611108C0F8948C91209582238C9378
:10469000888182230AC0623051F4F8948C91322FC1
:1046A000309583238C938881822B888304C0F8946F
:1046B0008C91822B8C939FBFDF91CF9108950F93A4
:1046C0001F93CF93DF931F92CDB7DEB7282F30E033
:1046D000F901EF57FC4D8491F901E056FC4D14911E
:1046E000F901E154FC4D04910023C9F0882321F025
:1046F00069830E94ED226981E02FF0E0EE0FFF1F39
:10470000E451FC4DA591B4919FB7F8948C9161113F
:1047100003C01095812301C0812B8C939FBF0F9004
:10472000DF91CF911F910F910895CF93DF93282FA1
:1047300030E0F901EF57FC4D8491F901E056FC4D52
:10474000D491F901E154FC4DC491CC2391F0811135
:104750000E94ED22EC2FF0E0EE0FFF1FE252FC4D25
:10476000A591B4912C912D2381E090E021F480E07B
:1047700002C080E090E0DF91CF9108958091020621
:10478000909103062091040630910506821B930B3D
:104790008F73992708952091020630910306809126
:1047A0000406909105062817390749F0E0910406A0
:1047B000F0910506EE53FA4F808190E008958FEF57
:1047C0009FEF089520910206309103068091040620
:1047D0009091050628173907A9F0E0910406F09199
:1047E0000506EE53FA4F80812091040630910506AC
:1047F0002F5F3F4F2F733327309305062093040616
:1048000090E008958FEF9FEF0895CF93DF93C091CD
:104810000206D09103062196CF73DD27809104060E
:1048200090910506C817D90799F082E00E942C29BB
:104830008F3F2FEF920761F0E0910206F09103069F
:10484000EE53FA4F8083D0930306C0930206DFCF66
:10485000DF91CF91089583E00C94B22B0F931F93B7
:10486000CF93DF931F92CDB7DEB78C016983809120
:104870002901882359F041E050E0BE016F5F7F4F6E
:1048800083E00E947029181619063CF081E090E040
:10489000F8019383828380E090E00F90DF91CF91C5
:1048A0001F910F910895FC0120812E5F208342E427
:1048B00050E068E074E280E80C940B2AFC018181EE
:1048C0009081913A59F4813209F04BC047E050E0B1
:1048D00062E271E080E00E940B2A45C0913209F04B
:1048E00040C0803239F467E070E082E291E00E94DB
:1048F0004F2A39C0823209F034C082818093290165
:104900008091220190912301A0912401B091250171
:10491000803B9440A105B10531F58091290180FDCE
:1049200012C087E797E790930108809300082BE077
:1049300088E190E00FB6F894A895809360000FBED0
:104940002093600010C088E10FB6F8948093600057
:10495000109260000FBEA8951092010810920008F6
:1049600002C080E0089581E0089508951092B7058F
:104970001092B60588EE93E0A0E0B0E08093B80511
:104980009093B905A093BA05B093BB0584E891E074
:104990009093B5058093B4050895FC012485358571
:1049A000F901E05CFF4F8081918132962081318155
:1049B000821B930B8F7399270895FC01848595853D
:1049C000FC01E05CFF4F40815181329620813181B2
:1049D0004217530741F00190F081E02DE80FF91FD5
:1049E000808190E008958FEF9FEF0895FC0184850A
:1049F0009585FC01E05CFF4F40815181329620811A
:104A000031814217530779F0A081B181A80FB91FF6
:104A10008C91208131812F5F3F4F2F73332731835A
:104A2000208390E008958FEF9FEF0895FC0181A10E
:104A3000882329F0A489B5898C9186FFFBCF11A228
:104A40000895CF93DF93FC0126853785D901A05CBB
:104A5000BF4F8D919C91119701968F739927E90112
:104A6000CE5BDF4F4881598184179507D9F30D90AC
:104A7000BC91A02DA20FB31F6C93A685B785A05C37
:104A8000BF4F11969C938E93A689B7892C9181E094
:104A900090E0078C02C0880F991F0A94E2F7282B38
:104AA0002C9381E081A30488F589E02D80818064C6
:104AB000808381E090E0DF91CF91089508951F9267
:104AC0000F920FB60F9211242F933F934F938F9312
:104AD0009F93EF93FF938091C80082FD1CC040918B
:104AE000CE008091AC069091AD0601968F73992708
:104AF0002091AE063091AF068217930771F0E091D6
:104B0000AC06F091AD06E459F94F40839093AD06A1
:104B10008093AC0602C08091CE00FF91EF919F91EF
:104B20008F914F913F912F910F900FBE0F901F903B
:104B3000189586E096E00E94CD24892B11F00C9404
:104B40005E2508951F920F920FB60F9211242F9396
:104B50003F938F939F93EF93FF932091680630913B
:104B6000690680916A0690916B062817390731F41F
:104B70008091C9008F7D8093C90014C0E0916A06BE
:104B8000F0916B06E85DF94F208180916A06909163
:104B90006B0601968F73992790936B0680936A0634
:104BA0002093CE00FF91EF919F918F913F912F9194
:104BB0000F900FBE0F901F901895CF92DF92EF923B
:104BC000FF92CF93DF93EC016A017B01411581EEE7
:104BD000580761057105F9F0EC89FD8981E090E0E5
:104BE00008A002C0880F991F0A94E2F7808360E052
:104BF00079E08DE390E0A70196010E9408322150F0
:104C00003109410951095695479537952795211541
:104C100080E1380798F0EC89FD89108260E874E83B
:104C20008EE190E0A70196010E94083221503109DF
:104C3000410951095695479537952795E889F9898E
:104C40003083EA89FB89208319A2EE89FF8940819C
:104C500081E090E09C010C8C02C0220F331F0A946B
:104C6000E2F7422B4083EE89FF8940819C010D8C45
:104C700002C0220F331F0A94E2F7422B4083EE89D1
:104C8000FF8940819C010E8C02C0220F331F0A94C1
:104C9000E2F7422B4083EE89FF8920810F8C02C00E
:104CA000880F991F0A94E2F7809582238083DF9111
:104CB000CF91FF90EF90DF90CF900895109209066A
:104CC0001092080688EE93E0A0E0B0E080930A0618
:104CD00090930B06A0930C06B0930D0686E991E025
:104CE00090930706809306068CE696E09093130651
:104CF0008093120688E296E090931506809314063E
:104D00008DEC90E090931706809316068CEC90E063
:104D1000909319068093180688EC90E090931B06F8
:104D200080931A0689EC90E090931D0680931C06F0
:104D30008AEC90E090931F0680931E068EEC90E024
:104D4000909321068093200684E08093220683E0DE
:104D50008093230687E08093240685E080932506D0
:104D600081E08093260608950E94DA2C86EF96E073
:104D70000E94BC2B0E94E113C9E9D5E20E94921661
:104D80002097E1F30E949925F9CFFC01EE5BFF4FDC
:104D900020813181329680819181281B390B2F73BC
:104DA0003327C90196958795969587950895CF9352
:104DB000DF93EC01E881F9810480F581E02D09950C
:104DC000CC5BDF4F288139812C5F3F4F2F73332716
:104DD00039832883DF91CF910895CF92DF92EF92AC
:104DE000FF920F931F93CF93DF937C018C010E5B97
:104DF0001F4FD801CD91DC912196CF73DD276C0137
:104E0000B4E4CB0ED11CF60180819181C817D9077B
:104E1000B9F085E00E942C298F3FEFEF9E0781F0CB
:104E2000D801ED91FC911197EE0DFF1D8283119633
:104E3000DC93CE93CD91DC912196CF73DD27E3CF28
:104E4000DF91CF911F910F91FF90EF90DF90CF9066
:104E5000089586E00C94B22BCF93DF9300D000D05E
:104E6000CDB7DEB749835A836B837C8386E00E948B
:104E70005D29811103C080E090E00BC044E050E068
:104E8000BE016F5F7F4F86E00E94702918161906D9
:104E900094F70F900F900F900F90DF91CF9108959E
:104EA00087E797E790930108809300082BE088E15B
:104EB00090E00FB6F894A895809360000FBE209301
:104EC00060000895FF920F931F93CF93DF93EC013F
:104ED000E881F9810190F081E02D099518161906F5
:104EE0002CF060E070E080E090E03AC0FE01EC5B06
:104EF000FF4FA081B181AC0FBD1F1296FC90808145
:104F00009181019620E430E0B9010E94F4318C0FC8
:104F10009D1FDC0112960C91808191810296B9014E
:104F20000E94F4318C0F9D1FDC0112961C91808130
:104F300091810396B9010E94F4318C0F9D1FFC01F1
:104F4000C281F7E0FF1208C0003F31F4C73F21F4EF
:104F5000113011F40E9450276F2D702F812F9C2F3C
:104F6000DF91CF911F910F91FF900895FC01208157
:104F70002F5F208342E150E060E974E280E80C9406
:104F80000B2AFC0120812F5F208346E450E06AE475
:104F900074E280E80C940B2A80E0089586EA91E0A0
:104FA0009093B1068093B0060895CF92DF92EF926E
:104FB000FF920F931F93CF93DF936C017A01EB0164
:104FC000E60EF71E00E010E0CE15DF0561F06991F6
:104FD000D601ED91FC910190F081E02DC60109957B
:104FE000080F191FF1CFC801DF91CF911F910F91C9
:104FF000FF90EF90DF90CF9008956115710581F0DB
:10500000DB010D900020E9F7AD0141505109461B2D
:10501000570BDC01ED91FC910280F381E02D0994A6
:1050200080E090E008950C94FD27DC01ED91FC9167
:105030000190F081E02D09940F931F93CF93DF939C
:10504000EC016DE00E9415288C016AE0CE010E94FF
:105050001528800F911FDF91CF911F910F91089517
:105060000F931F93CF93DF93EC010E94FD278C01D8
:10507000CE010E941C28800F911FDF91CF911F91BC
:105080000F9108958F929F92AF92BF92CF92DF922D
:10509000EF92FF920F931F93CF93DF93CDB7DEB7BD
:1050A000A1970FB6F894DEBF0FBECDBF7C01C42E12
:1050B000E52FCB01D22E19A221E02D1510F02AE008
:1050C000D22E8E010F5D1F4F8D2C912CA12CB12C57
:1050D0006C2D7E2FA50194010E9408328C2DD29E4A
:1050E00080191124015011098A3014F4805D01C027
:1050F000895CF8018083211531054105510521F0B6
:10510000C22EE32FCA01E4CFB801C7010E94FD27D8
:10511000A1960FB6F894DEBF0FBECDBFDF91CF9141
:105120001F910F91FF90EF90DF90CF90BF90AF90C5
:105130009F908F9008952115310541F4DC01ED9188
:10514000FC910190F081E02D642F09940C94422889
:105150000F931F93CF93DF93EC019A01462F50E0FA
:1051600060E070E00E949B288C01CE010E941C2808
:10517000800F911FDF91CF911F910F910895615082
:1051800030F02091F100FC0120830196F8CF28989F
:1051900084E68093FD0608952FB7FC012083F894E0
:1051A00067706093E9000895CF93DF931F92CDB7A6
:1051B000DEB7682FCE0101960E94CC288091F200C4
:1051C00099819FBF0F90DF91CF910895FF920F9328
:1051D0001F93CF93DF9300D0CDB7DEB7F62E8A01B1
:1051E0009091FC06992311F057FF03C08FEF9FEFBA
:1051F0002BC0682FCE0101967A830E94CC28809123
:10520000F20090E0A8017A81801791070CF4AC01BC
:10521000EF2DF72FF40E84E6FE1639F028988093D0
:10522000FD069091F1009193F7CF4115510521F0C2
:105230008091F200882321F089818FBFCA0104C0C8
:105240008BE68093E800F8CF0F900F90DF91CF911D
:105250001F910F91FF900895CF93DF931F92CDB7C9
:10526000DEB741E050E0BE016F5F7F4F0E94E6284D
:10527000019719F4898190E002C08FEF9FEF0F90A2
:10528000DF91CF910895CF93DF931F92CDB7DEB713
:10529000682FCE0101960E94CC289091E800892FBA
:1052A000807295FF04C09091F20080E4891B99817F
:1052B0009FBF0F90DF91CF910895CF93DF931F92FF
:1052C000CDB7DEB7682FCE0101960E94CC28809121
:1052D000E80099819FBF80720F90DF91CF91089570
:1052E0004F925F926F927F928F929F92AF92BF92F6
:1052F000CF92DF92EF92FF920F931F93CF93DF93A2
:105300001F92CDB7DEB7582E7B01A42E952E80912B
:10531000FC06882369F0042F152F8AEFB82E852DFF
:105320008072782E9AE3892E852D8074682E11C0A4
:105330008FEF9FEF53C0852D0E944329482E811186
:105340000CC0BA94A9F361E070E080E090E00E94A4
:10535000B22C0115110579F737C0282F30E002175C
:1053600013070CF4402EC42CD12C0C191D09652DEB
:10537000CE0101960E94CC28772039F04A948FEF15
:105380004816B1F01092F100F9CFF701842D57FEC5
:1053900007C0815058F094919093F1003196F9CF65
:1053A000815020F091919093F100FACFEC0CFD1C0C
:1053B0008091E80085FF0FC00115110511F46110FF
:1053C0000AC089818FBFC5CF5D9884E68093FE06B1
:1053D0008A2D992D03C08092E800F3CF0F90DF91C2
:1053E000CF911F910F91FF90EF90DF90CF90BF90E2
:1053F000AF909F908F907F906F905F904F900895A7
:105400001092E9001092FB061092FA069093F906AA
:105410008093F8060895CF93DF93FB0120E030E0FE
:10542000DEEF24173507A1F187FF02C0C49101C048
:10543000C081A091FA06B091FB066091F8067091C8
:10544000F906A617B707B4F49091E8009570E1F358
:105450009091E80092FD1EC0C093F1006091FA06A1
:105460007091FB066F5F7F4F6F737727672B11F487
:10547000D093E8006091FA067091FB066F5F7F4F52
:105480007093FB066093FA062F5F3F4F3196C9CFAA
:10549000C90102C08FEF9FEFDF91CF9108951F9355
:1054A000CF93DF931F92CDB7DEB7162F2091E80080
:1054B00022FFFCCF612F79830E94BF288BEF80935E
:1054C000E800812F7981972F0F90DF91CF911F9165
:1054D0000895CF93DF931F92CDB7DEB71982CE0127
:1054E00001960E945324CE0101960E944E2DCE01BA
:1054F00001960E94B627CE0101960E94C12789819C
:1055000090E00F90DF91CF9108951F920F920FB608
:105510000F921124EF92FF920F931F932F933F93BB
:105520004F935F936F937F938F939F93AF93BF93AB
:10553000EF93FF93CF93DF93CDB7DEB76297DEBFD4
:10554000CDBF1092E9008091E80083FFEEC068E0D3
:10555000CE010A960E94BF2882EF8093E8009A85C8
:1055600097FF05C08091E80080FFFCCF03C08EEF5D
:105570008093E800892F807609F0B5C08B85811172
:1055800005C01092F1001092F100C8C0282F2D7FA5
:10559000213009F4C3C0853049F48091E80080FFD0
:1055A000FCCF8C8580688093E300B8C0863009F01A
:1055B00072C02D85E888F988223071F580E090E08E
:1055C0002A8B0E94002A0E94692A99E08E010F5FAF
:1055D0001F4FF801392F11923A95E9F799832A89DB
:1055E0002A8391E09E8390E898879AEF998720918B
:1055F000FA063091FB06275F3F4F3C832B838D8358
:10560000C7010E94002A49E050E0B80180E00E94F2
:105610000B2A0E94692A82C0C7012A8B0E94002A95
:105620002A89223241F482E290E00E94592D892B8E
:1056300009F074C077C0213069F488899989089786
:1056400011F42093F7068091F706882389F069EA20
:1056500074E216C0233009F065C08C85882359F0A8
:10566000823061F0813009F05DC06DEC74E208C0F9
:105670006BEB74E205C06FE075E202C06DEE74E2A0
:105680006115710509F44EC0FB01449150E080E8BA
:105690000E940B2A43C0873009F444C0883021F4AB
:1056A00081E08093F1003AC08930C1F59370D1F563
:1056B000E3EAF4E281E021E096E38093E9002093BD
:1056C000EB0034913093EC009093ED008F5F3196B6
:1056D000873099F78EE78093EA001092EA008C8574
:1056E0008093FC061BC0888999890E94002A8E85B8
:1056F000811105C0CE010A960E945E240DC0823041
:1057000029F4CE010A960E94812D06C0843051F4FE
:10571000CE010A960E94CC27882321F08EEF809339
:10572000E80003C081E28093EB0062960FB6F89424
:10573000DEBF0FBECDBFDF91CF91FF91EF91BF9143
:10574000AF919F918F917F916F915F914F913F9119
:105750002F911F910F91FF90EF900F900FBE0F9020
:105760001F9018958093E9008091F200882319F02A
:105770008AE38093E80008951092FC0681E080930C
:10578000D70080EA8093D80082E189BD09B400FE89
:10579000FDCF61E070E080E090E00E94B22C80E9F3
:1057A0008093D8008CE08093E2001092E000559A3C
:1057B000209A08951F920F920FB60F9211242F93E3
:1057C0003F934F935F936F937F938F939F93AF9389
:1057D000BF93EF93FF938091E1001092E10083FF6C
:1057E0000FC01092E90091E09093EB001092EC0052
:1057F00092E39093ED001092FC0698E09093F000F5
:1058000082FF32C083E00E94B22B82E00E94D42843
:10581000882321F084EB95E00E94052486E00E9415
:10582000B22B85E00E94D428882321F080EB96E0FB
:105830000E94ED268091FE06882339F08091FE06B5
:1058400081508093FE06882369F08091FD068823AD
:1058500059F08091FD0681508093FD06811104C0AE
:10586000289A02C05D9AF1CFFF91EF91BF91AF915D
:105870009F918F917F916F915F914F913F912F9168
:105880000F900FBE0F901F9018951F920F920FB69A
:105890000F9211242F933F938F939F93AF93BF93B6
:1058A0008091000790910107A0910207B091030732
:1058B0003091FF0623E0230F2D3720F40196A11D20
:1058C000B11D05C026E8230F0296A11DB11D20932E
:1058D000FF068093000790930107A0930207B093FF
:1058E00003078091040790910507A0910607B091E6
:1058F00007070196A11DB11D80930407909305072A
:10590000A0930607B0930707BF91AF919F918F9126
:105910003F912F910F900FBE0F901F9018953FB79A
:10592000F8948091040790910507A0910607B09123
:10593000070726B5A89B05C02F3F19F00196A11DAA
:10594000B11D3FBF6627782F892F9A2F620F711DD7
:10595000811D911D42E0660F771F881F991F4A9590
:10596000D1F70895CF92DF92EF92FF92CF93DF931A
:105970006B017C010E948F2CEB01C114D104E10466
:10598000F10489F00E94732E0E948F2C6C1B7D0BFA
:10599000683E734090F381E0C81AD108E108F1082D
:1059A000C851DC4FEACFDF91CF91FF90EF90DF90AD
:1059B000CF900895789484B5826084BD84B5816069
:1059C00084BD85B5826085BD85B5816085BDEEE607
:1059D000F0E0808181608083E1E8F0E010828081E6
:1059E00082608083808181608083E0E8F0E0808154
:1059F00081608083E1E9F0E0808182608083808142
:105A000081608083E0E9F0E0808181608083E1EC67
:105A1000F0E08081846080838081826080838081E7
:105A200081608083E3ECF0E0808181608083E0EC42
:105A3000F0E0808182608083E2ECF0E08081816030
:105A40008083EAE7F0E080818460808380818260E7
:105A500080838081816080838081806880830895D5
:105A6000FF920F931F93CF93DF93EC01F62EE88103
:105A7000F9810480F581E02D09958C01E881F98197
:105A80000680F781E02D6F2DCE010995C801992779
:105A9000DF91CF911F910F91FF900895FC0120811C
:105AA0002F5F208349E150E063E975E280E80C94C0
:105AB0000B2A45E650E06CEA75E280E80C940B2A6C
:105AC000EF92FF920F931F93CF93DF931F92CDB767
:105AD000DEB789838B017A0141E050E0BE016F5F40
