:100000000C94100E0C94380E0C94380E0C94380E80
:100010000C94380E0C94380E0C94380E0C94380E48
:100020000C94380E0C94380E0C94722B0C94182AE5
:100030000C94380E0C94380E0C94380E0C94380E28
:100040000C94380E0C94380E0C94380E0C94380E18
:100050000C94F41E0C9425230C94380E0C941E2C36
:100060000C94380E0C94CD250C9410260C94380E5C
:100070000C94380E0C94F5200C94380E0C94380E19
:100080000C94380E0C94380E0C94380E0C94380ED8
:100090000C943B220C94380E0C94380E0C94380EB1
:1000A0000C94380E0C94380E0C94380EC717351873
:1000B0000A18F01769186918C3176918C31769185F
:1000C000C317C317C3176918C317C3176F23722346
:1000D0006523692393239323932376237A237E2313
:1000E0008423882393238E2307634236B79BD8A7A4
:1000F0001A39685618AEBAAB558C1D3CB7CC57634D
:10010000BD6DEDFD753EF6177231BF000000803FFA
:1001100008000000BE922449123EABAAAA2ABECD16
:10012000CCCC4C3E00000080BEABAAAAAA3E000088
:100130000000BF000000803F000000000008417880
:10014000D3BB4387D1133D190E3CC3BD4282AD2BB7
:100150003E68EC8276BED98FE1A93E4C80EFFFBEAF
:1001600001C4FF7F3F0000000000000102040507FA
:1001700008090B0C0E0F101213151617191A1B1D58
:100180001E20212224252628292A2C2D2E2F3132EB
:1001900033353637383A3B3C3D3E40414243444597
:1001A0004647494A4B4C4D4E4F5051525354555669
:1001B000575859595A5B5C5D5E5E5F60616262636D
:1001C000646465666667686869696A6A6B6B6C6CAB
:1001D0006D6D6E6E6F6F6F70707070717171717226
:1001E00072727272727273737373737373737372E6
:1001F00072727272727271717171707070706F6FF1
:100200006F6E6E6D6D6C6C6B6B6A6A69696868673E
:10021000666665646463626261605F5E5E5D5C5BCE
:100220005A59595857565554535251504F4E4D4C98
:100230004B4A4947464544434241403E3D3C3B3A98
:10024000383736353332312F2E2D2C2A29282625C2
:10025000242221201E1D1C1A191716151312100F07
:100260000E0C0B0908070504020100FEFDFBFAF85D
:10027000F7F6F4F3F1F0EFEDECEAE9E8E6E5E4E2B5
:10028000E1DFDEDDDBDAD9D7D6D5D3D2D1D0CECD02
:10029000CCCAC9C8C7C5C4C3C2C1BFBEBDBCBBBA36
:1002A000B9B8B6B5B4B3B2B1B0AFAEADACABAAA944
:1002B000A8A7A6A6A5A4A3A2A1A1A09F9E9D9D9C20
:1002C0009B9B9A99999897979696959594949393C2
:1002D000929291919090908F8F8F8F8E8E8E8E8D27
:1002E0008D8D8D8D8D8D8C8C8C8C8C8C8C8C8C8C48
:1002F0008D8D8D8D8D8D8E8E8E8E8F8F8F8F90901C
:1003000090919192929393949495959696979798AD
:1003100099999A9B9B9C9D9D9E9FA0A1A1A2A3A4FD
:10032000A5A6A6A7A8A9AAABACADAEAFB0B1B2B313
:10033000B4B5B6B8B9BABBBCBDBEC0C1C2C3C4C5F2
:10034000C7C8C9CACCCDCED0D1D2D3D5D6D7D9DAA9
:10035000DBDDDEDFE1E2E4E5E6E8E9EAECEDEFF043
:10036000F1F3F4F6F7F8FAFBFDFE174466777870C0
:10037000655E5E63696D6D6A65626265686B6B6917
:1003800066646466686A6A686665656668696968FD
:1003900066656566686969686665656668696968ED
:1003A00066666666686868686666666668686868DD
:1003B00067666666686868686766666767686867CC
:1003C00067666667676868676766666767686867BD
:1003D00067666667676868676766666767686867AD
:1003E000676666676768686767666667676868679D
:1003F000676666676768686767666667676868678D
:10040000676666676768686767666667676868677C
:10041000676666676768686767666667686868686A
:10042000676666676868686866666666686868685A
:10043000666666666869696866656566686969684A
:10044000666565666869696866656566686A6A683A
:1004500066646466696B6B68656262656A6D6D6926
:10046000635E5E65707877664417EAC5ADA2A1A7A2
:10047000ADB2B2AFABA8A8AAADAFAFADABA9A9ABB7
:10048000ADAEAEADABAAAAABACADADADABAAAAABAF
:10049000ACADADACABABABABACADADACABABABABA0
:1004A000ACADADACACABABABACADADACACABABAC8D
:1004B000ACADADACACABABACACADADACACABABAC7C
:1004C000ACADADACACABABACACADADACACABABAC6C
:1004D000ACADADACACABABACACADACACACABABAC5D
:1004E000ACACACACACABABACACACACACACABABAC50
:1004F000ACACACACACABABACACACACACACABABAC40
:10050000ACADADACACABABACACADADACACABABAC2B
:10051000ACADADACACABABACACADADACACABABAC1B
:10052000ACADADACACABABACACADADACABABABAC0C
:10053000ACADADACABABABABACADADACABABABABFF
:10054000ACADADACABAAAAABADADADACABAAAAABF2
:10055000ADAEAEADABA9A9ABADAFAFADAAA8A8ABE0
:10056000AFB2B2ADA7A1A2ADC5EA00000000010183
:10057000010102020202030303030404040404054C
:1005800005050506060607070707080808080909FC
:1005900009090A0A0A0A0B0B0B0B0B0C0C0C0D0DAC
:1005A0000D0D0E0E0E0E0F0F0F0F1010101011115B
:1005B000111111121212121313131314141414150F
:1005C00015151516161616171717181818181919BD
:1005D00019191A1A1A1A1B1B1B1B1C1C1C1C1D1D6B
:1005E0001D1D1E1E1E1E1F1F1F1F2020202020211C
:1005F00021202222222223232323242424242525CC
:10060000252526262626272727272828282828297B
:100610002929292A2A2A2A2B2B2B2C2C2C2C2D2D2C
:100620002D2D2E2E2E2E2F2F2F2F303030303131DA
:10063000313131323232333333333434343434358C
:10064000353536363636363737373838383838393C
:1006500039393A3A3A3A3B3B3B3B3C3C3C3C3C3DEB
:100660003D3D3E3E3E3E3E3F3F3F3F40404041419C
:10067000414141424242424343434444444445454C
:1006800045454646464647474747484848484949FA
:100690004949494A4A4A4A4B4B4B4C4C4C4C4D4DAC
:1006A0004D4D4D4E4E4E4E4F4F4F5050505051515C
:1006B000515151525252535353535454545455550B
:1006C00055555556565656575757585858585859BD
:1006D00059595A5A5A5A5B5B5B5B5C5C5C5C5C5D6B
:1006E0005D5D5E5E5E5E5F5F5F5F5F60606061611B
:1006F00061616262626263636363636464646565CB
:10070000656565666666666767676768686869697C
:100710006969696A6A6A6A6B6B6B6C6C6C6C6D6D2B
:100720006D6D6E6E6E6E6F6F6F6F707070707071DA
:10073000717171727272727373737374747474758D
:10074000757575767676777777777878787878793B
:1007500079797A7A7A7A7B7B7B7B7C7C7C7C7D7DE9
:100760007D7D7D7E7E7E7F7F7F7F7F7F7F7E7E7EA5
:100770007E7E7D7D7D7D7C7C7C7C7B7B7B7B7A7AB9
:100780007A7A7979797978787878777777777676E9
:100790007676757575757474747473737373727219
:1007A0007271717171707070706F6F6F6F6E6E6E4D
:1007B0006E6D6D6D6D6D6C6C6C6C6B6B6B6B6A6A7A
:1007C0006A696969696868686868676767666666AC
:1007D00066666565656564646463636363626262DB
:1007E000626161616160606060605F5F5F5E5E5E0C
:1007F0005E5D5D5D5D5C5C5C5C5B5B5B5B5B5A5A3C
:100800005A5A595959595858585857575757565668
:100810005656555555545454545453535353525299
:100820005251515151505050504F4F4F4F4E4E4ECC
:100830004E4E4D4D4D4D4C4C4C4C4B4B4B4A4A4AF9
:100840004A4A494949494848484847474747464628
:100850004645454545454444444443434343424259
:100860004241414141414040403F3F3F3F3F3E3E8A
:100870003E3E3D3D3D3C3C3C3C3C3B3B3B3B3A3AB9
:100880003A3A3939393838383838373737373636E9
:10089000363635353535343434333333333232321A
:1008A0003232313131313030302F2F2F2F2E2E2E4A
:1008B0002E2E2D2D2D2D2C2C2C2B2B2B2B2A2A2A7A
:1008C0002A292929292928282828272727262626AA
:1008D00026262525252424242424232323222222DA
:1008E000222121202121202020201F1F1F1F1E1E0A
:1008F0001E1E1D1D1D1D1C1C1C1B1B1B1B1B1A1A39
:100900001A19191919191818181817171717161668
:100910001616151515151414141313131313121298
:10092000121211111110101010100F0F0F0F0E0EC8
:100930000E0E0D0D0D0D0C0C0C0C0B0B0B0B0A0AF7
:100940000A0A090909090808080807070706060628
:100950000605050505050404040403030303020258
:1009600002010101010100000000FFFFFFFEFEFE89
:10097000FEFDFDFDFDFCFCFCFCFBFBFBFBFAFAFABB
:10098000FAFAF9F9F9F8F8F8F8F8F7F7F7F7F6F6E8
:10099000F6F5F5F5F5F4F4F4F4F4F3F3F3F3F2F219
:1009A000F2F1F1F1F1F1F0F0F0F0EFEFEFEEEEEE49
:1009B000EEEDEDEDEDEDECECECEBEBEBEBEBEAEA79
:1009C000EAEAE9E9E9E9E8E8E8E7E7E7E7E7E6E6A8
:1009D000E6E6E5E5E5E4E4E4E4E3E3E3E3E3E2E2D9
:1009E000E2E1E1E1E1E0E0E0E0E0DFDFDFDFDEDE09
:1009F000DEDDDDDDDDDCDCDCDCDCDBDBDBDADADA3A
:100A0000DAD9D9D9D9D8D8D8D8D8D7D7D7D7D6D668
:100A1000D6D5D5D5D5D4D4D4D4D3D3D3D3D2D2D29A
:100A2000D2D1D1D1D1D0D0D0D0D0CFCFCFCFCECEC8
:100A3000CECECDCDCDCDCCCCCCCBCBCBCBCACACAF8
:100A4000CAC9C9C9C9C8C8C8C8C7C7C7C7C6C6C62A
:100A5000C6C5C5C5C5C4C4C4C4C4C3C3C3C3C2C258
:100A6000C2C1C1C1C1C1C0C0C0C0BFBFBFBFBEBE87
:100A7000BEBDBDBDBDBDBCBCBCBCBBBBBBBBBABAB7
:100A8000BABAB9B9B9B9B8B8B8B8B7B7B7B7B6B6E6
:100A9000B6B6B5B5B5B5B4B4B4B4B3B3B3B3B2B216
:100AA000B2B2B1B1B1B1B0B0B0B0AFAFAFAEAEAE47
:100AB000AEAEADADADADACACACABABABABAAAAAA78
:100AC000AAA9A9A9A9A8A8A8A8A7A7A7A7A7A6A6A9
:100AD000A6A5A5A5A5A5A4A4A4A3A3A3A3A2A2A2D9
:100AE000A2A1A1A1A1A1A0A0A0A09F9F9F9F9E9E07
:100AF0009E9E9D9D9D9D9C9C9C9C9B9B9B9B9A9A36
:100B00009A9A999999989898989797979797969667
:100B10009696959595949494949393939393929297
:100B20009292919191919090908F8F8F8F8F8E8EC6
:100B30008E8E8D8D8D8C8C8C8C8B8B8B8B8A8A8AF8
:100B40008A89898989898888888887878786868627
:100B50008686858585858484848483838382828256
:100B6000828181818181808080808080808081817C
:100B70008181818282828383838383848484858547
:100B800085858686868687878787878888888889F7
:100B900089898A8A8A8A8A8B8B8B8C8C8C8C8D8DA6
:100BA0008D8D8D8E8E8E8E8F8F8F90909090919157
:100BB0009191929292929393939394949494959505
:100BC00095959696969697979797979898989999B6
:100BD00099999A9A9A9A9A9B9B9B9C9C9C9C9D9D66
:100BE0009D9D9E9E9E9E9F9F9F9F9FA0A0A0A1A116
:100BF000A1A1A1A2A2A2A2A3A3A3A4A4A4A4A4A5C8
:100C0000A5A5A5A6A6A6A7A7A7A7A7A8A8A8A9A976
:100C1000A9A9AAAAAAAAAAABABABACACACACACAD26
:100C2000ADADAEAEAEAEAEAFAFAFAFB0B0B0B1B1D6
:100C3000B1B1B2B2B2B2B2B3B3B3B3B4B4B4B5B586
:100C4000B5B5B6B6B6B6B6B7B7B7B7B8B8B8B9B936
:100C5000B9B9BABABABABBBBBBBBBCBCBCBCBDBDE4
:100C6000BDBDBEBEBEBEBEBFBFBFC0C0C0C0C0C196
:100C7000C1C1C2C2C2C2C2C3C3C3C3C4C4C4C5C546
:100C8000C5C5C6C6C6C6C6C7C7C7C7C8C8C8C8C9F7
:100C9000C9C9C9CACACACBCBCBCBCBCCCCCCCCCDA7
:100CA000CDCDCDCECECECFCFCFCFCFD0D0D0D1D156
:100CB000D1D1D2D2D2D2D2D3D3D3D3D4D4D4D4D507
:100CC000D5D5D5D6D6D6D7D7D7D7D8D8D8D8D8D9B6
:100CD000D9D9D9DADADADBDBDBDBDBDCDCDCDCDD67
:100CE000DDDDDEDEDEDEDEDFDFDFE0E0E0E0E1E115
:100CF000E1E1E1E2E2E2E3E3E3E3E4E4E4E4E4E5C6
:100D0000E5E5E5E6E6E6E6E7E7E7E8E8E8E8E9E975
:100D1000E9E9E9EAEAEAEBEBEBEBECECECECEDED24
:100D2000EDEDEDEEEEEEEFEFEFEFF0F0F0F0F1F1D4
:100D3000F1F1F2F2F2F2F3F3F3F3F3F4F4F4F5F584
:100D4000F5F5F5F6F6F6F7F7F7F7F8F8F8F8F9F934
:100D5000F9F9FAFAFAFAFBFBFBFBFBFCFCFCFDFDE4
:100D6000FDFDFEFEFEFEFFFFFFFF80808080808095
:100D7000808081818181818181818282828282825F
:100D80008282828383838383838384848484848430
:100D90008484848585858585858586868686868600
:100DA00086868787878787878787888888888888CF
:100DB000888889898989898989898A8A8A8A8A8A9F
:100DC0008A8A8A8B8B8B8B8B8B8B8B8C8C8C8C8C71
:100DD0008C8C8D8D8D8D8D8D8D8D8D8E8E8E8E8E40
:100DE0008E8E8F8F8F8F8F8F8F8F9090909090900F
:100DF00090909191919191919191929292929292DF
:100E000092929393939393939393949494949494AE
:100E1000949494959595959595959696969696967F
:100E20009696969797979797979797989898989850
:100E300098989899999999999999999A9A9A9A9A20
:100E40009A9A9B9B9B9B9B9B9B9B9B9C9C9C9C9CEF
:100E50009C9C9C9D9D9D9D9D9D9D9E9E9E9E9E9EBF
:100E60009E9E9F9F9F9F9F9F9F9F9FA0A0A0A0A08F
:100E7000A0A0A1A1A1A1A1A1A1A1A2A2A2A2A2A25E
:100E8000A2A2A3A3A3A3A3A3A3A3A4A4A4A4A4A42E
:100E9000A4A4A4A5A5A5A5A5A5A5A6A6A6A6A6A6FF
:100EA000A6A6A7A7A7A7A7A7A7A7A8A8A8A8A8A8CE
:100EB000A8A8A8A9A9A9A9A9A9A9A9AAAAAAAAAAA0
:100EC000AAAAABABABABABABABABACACACACACAC6E
:100ED000ACACADADADADADADADADAEAEAEAEAEAE3E
:100EE000AEAEAFAFAFAFAFAFAFAFAFB0B0B0B0B00F
:100EF000B0B0B0B1B1B1B1B1B1B1B2B2B2B2B2B2DF
:100F0000B2B2B3B3B3B3B3B3B3B3B4B4B4B4B4B4AD
:100F1000B4B4B5B5B5B5B5B5B5B5B6B6B6B6B6B67D
:100F2000B6B6B7B7B7B7B7B7B7B7B8B8B8B8B8B84D
:100F3000B8B8B8B9B9B9B9B9B9B9BABABABABABA1E
:100F4000BABABBBBBBBBBBBBBBBBBCBCBCBCBCBCED
:100F5000BCBCBDBDBDBDBDBDBDBDBDBEBEBEBEBEBE
:100F6000BEBEBFBFBFBFBFBFBFBFC0C0C0C0C0C08D
:100F7000C0C0C1C1C1C1C1C1C1C1C1C2C2C2C2C25E
:100F8000C2C2C2C3C3C3C3C3C3C3C4C4C4C4C4C42E
:100F9000C4C4C4C5C5C5C5C5C5C5C5C6C6C6C6C6FF
:100FA000C6C6C7C7C7C7C7C7C7C7C8C8C8C8C8C8CD
:100FB000C8C8C9C9C9C9C9C9C9C9CACACACACACA9D
:100FC000CACACBCBCBCBCBCBCBCBCBCCCCCCCCCC6E
:100FD000CCCCCCCDCDCDCDCDCDCDCDCECECECECE3F
:100FE000CECECFCFCFCFCFCFCFCFD0D0D0D0D0D00D
:100FF000D0D0D1D1D1D1D1D1D1D1D2D2D2D2D2D2DD
:10100000D2D2D2D3D3D3D3D3D3D3D4D4D4D4D4D4AD
:10101000D4D4D4D5D5D5D5D5D5D5D6D6D6D6D6D67D
:10102000D6D6D6D7D7D7D7D7D7D7D8D8D8D8D8D84D
:10103000D8D8D9D9D9D9D9D9D9D9D9DADADADADA1D
:10104000DADADADBDBDBDBDBDBDBDCDCDCDCDCDCED
:10105000DCDCDCDDDDDDDDDDDDDDDDDEDEDEDEDEBE
:10106000DEDEDFDFDFDFDFDFDFDFDFE0E0E0E0E08D
:10107000E0E0E1E1E1E1E1E1E1E1E2E2E2E2E2E25C
:10108000E2E2E2E3E3E3E3E3E3E3E4E4E4E4E4E42D
:10109000E4E4E5E5E5E5E5E5E5E5E6E6E6E6E6E6FC
:1010A000E6E6E7E7E7E7E7E7E7E7E7E8E8E8E8E8CD
:1010B000E8E8E9E9E9E9E9E9E9E9EAEAEAEAEAEA9C
:1010C000EAEAEBEBEBEBEBEBEBEBECECECECECEC6C
:1010D000ECECECEDEDEDEDEDEDEDEDEEEEEEEEEE3E
:1010E000EEEEEEEFEFEFEFEFEFEFF0F0F0F0F0F00D
:1010F000F0F0F0F1F1F1F1F1F1F1F1F2F2F2F2F2DE
:10110000F2F2F3F3F3F3F3F3F3F3F4F4F4F4F4F4AB
:10111000F4F4F4F5F5F5F5F5F5F5F6F6F6F6F6F67C
:10112000F6F6F7F7F7F7F7F7F7F7F8F8F8F8F8F84B
:10113000F8F8F8F9F9F9F9F9F9F9F9FAFAFAFAFA1D
:10114000FAFAFBFBFBFBFBFBFBFBFCFCFCFCFCFCEB
:10115000FCFCFDFDFDFDFDFDFDFDFDFEFEFEFEFEBC
:10116000FEFEFFFFFFFFFFFFFFFF0000000000008B
:10117000000000010101010101010102020202025D
:10118000020203030303030303030404040404042B
:1011900004040505050505050505060606060606FB
:1011A00006060707070707070707070808080808CC
:1011B000080809090909090909090A0A0A0A0A0A9B
:1011C0000A0A0B0B0B0B0B0B0B0B0B0C0C0C0C0C6C
:1011D0000C0C0D0D0D0D0D0D0D0D0D0E0E0E0E0E3C
:1011E0000E0E0F0F0F0F0F0F0F0F0F10101010100C
:1011F00010101011111111111111121212121212DC
:1012000012121313131313131313141414141414AA
:10121000141415151515151515151516161616167B
:10122000161617171717171717171818181818184A
:1012300018181919191919191919191A1A1A1A1A1B
:101240001A1A1A1B1B1B1B1B1B1B1C1C1C1C1C1CEB
:101250001C1C1D1D1D1D1D1D1D1D1E1E1E1E1E1EBA
:101260001E1E1F1F1F1F1F1F1F1F1F20202020208B
:10127000202021212021212221212022222222225C
:10128000222223232323232323232424242424242A
:1012900024242425252525252525262626262626FB
:1012A00026262727272727272727282828282828CA
:1012B000282829292929292929292A2A2A2A2A2A9A
:1012C0002A2A2A2B2B2B2B2B2B2B2B2C2C2C2C2C6C
:1012D0002C2C2D2D2D2D2D2D2D2D2E2E2E2E2E2E3A
:1012E0002E2E2E2F2F2F2F2F2F2F2F30303030300C
:1012F00030303131313131313131323232323232DA
:1013000032323333333333333333333434343434AA
:101310003434353535353535353536363636363679
:10132000363636373737373737373738383838384B
:1013300038383939393939393939393A3A3A3A3A1A
:101340003A3A3A3B3B3B3B3B3B3B3C3C3C3C3C3CEA
:101350003C3C3D3D3D3D3D3D3D3D3E3E3E3E3E3EB9
:101360003E3E3F3F3F3F3F3F3F3F40404040404089
:101370004040414141414141414142424242424259
:101380004242434343434343434344444444444429
:1013900044444545454545454545464646464646F9
:1013A00046464647474747474747484848484848CA
:1013B000484849494949494949494A4A4A4A4A4A99
:1013C0004A4A4A4B4B4B4B4B4B4B4C4C4C4C4C4C6A
:1013D0004C4C4C4D4D4D4D4D4D4D4D4E4E4E4E4E3B
:1013E0004E4E4F4F4F4F4F4F4F4F50505050505009
:1013F00050505051515151515151525252525252DA
:1014000052525253535353535353545454545454A9
:101410005454545555555555555556565656565679
:101420005656565757575757575758585858585849
:1014300058585859595959595959595A5A5A5A5A1A
:101440005A5A5B5B5B5B5B5B5B5B5C5C5C5C5C5CE8
:101450005C5C5D5D5D5D5D5D5D5D5E5E5E5E5E5EB8
:101460005E5E5F5F5F5F5F5F5F5F60606060606088
:101470006060616161616161616161626262626259
:101480006262636363636363636363646464646429
:1014900064646565656565656565656666666666F9
:1014A00066666767676767676767686868686868C8
:1014B000686869696969696969696A6A6A6A6A6A98
:1014C0006A6A6B6B6B6B6B6B6B6B6C6C6C6C6C6C68
:1014D0006C6C6D6D6D6D6D6D6D6D6E6E6E6E6E6E38
:1014E0006E6E6F6F6F6F6F6F6F6F70707070707008
:1014F00070707171717171717171717272727272D9
:1015000072727373737373737373747474747474A7
:101510007474747575757575757575767676767679
:101520007676777777777777777777787878787848
:1015300078787879797979797979797A7A7A7A7A19
:101540007A7A7B7B7B7B7B7B7B7B7C7C7C7C7C7CE7
:101550007C7C7D7D7D7D7D7D7D7D7D7E7E7E7E7EB8
:101560007E7E7F7F7F7F7F7F7F7F80808080808087
:10157000808080808080808080808080808080816A
:101580008181818181818182828282828282838340
:101590008383838484848484858585858586868603
:1015A00086878787888888888989898A8A8A8A8BB2
:1015B0008B8B8C8C8C8D8D8E8E8E8F8F8F9090914F
:1015C00091919292939393949495959696969797DA
:1015D000989899999A9A9B9B9C9C9D9D9E9E9F9F53
:1015E000A0A0A1A1A2A2A3A3A4A4A5A6A6A7A7A8C0
:1015F000A8A9AAAAABABACACADAEAEAFB0B0B1B11E
:10160000B2B3B3B4B5B5B6B6B7B8B8B9BABABBBC6D
:10161000BCBDBEBEBFC0C0C1C2C2C3C4C5C5C6C7B3
:10162000C7C8C9C9CACBCCCCCDCECFCFD0D1D1D2EF
:10163000D3D4D4D5D6D7D7D8D9DADADBDCDDDDDE22
:10164000DFE0E0E1E2E3E3E4E5E6E7E7E8E9EAEA50
:10165000EBECEDEDEEEFF0F1F1F2F3F4F5F5F6F77A
:10166000F8F8F9FAFBFCFCFDFEFFFF0001020303A2
:10167000040506070708090A0A0B0C0D0E0E0F10C9
:101680001112121314151516171818191A1B1C1CF1
:101690001D1E1F1F2021222223242525262728281E
:1016A000292A2B2B2C2D2E2E2F3030313233333450
:1016B000353636373838393A3A3B3C3D3D3E3F3F88
:1016C0004041414243434445454647474849494ACA
:1016D0004A4B4C4C4D4E4E4F4F5051515253535418
:1016E000545555565757585859595A5B5B5C5C5D71
:1016F0005D5E5E5F5F6060616162626363646465DA
:10170000656666676768686969696A6A6B6B6C6C4D
:101710006C6D6D6E6E6E6F6F7070707171717272D4
:101720007373737474747575757576767677777769
:1017300077787878797979797A7A7A7A7A7B7B7B13
:101740007B7B7C7C7C7C7C7D7D7D7D7D7D7D7E7ED0
:101750007E7E7E7E7E7E7F7F7F7F7F7F7F7F7F7F9F
:101760007F7F7F7F7F7F7F7F7F7F7F7F7F7F7F7F89
:101770007F7F7F7F7F7F7F7F7F7F7F7F7F7F7F7E7A
:101780007E7E7E7E7E7E7E7D7D7D7D7D7D7D7C7C84
:101790007C7C7C7B7B7B7B7B7A7A7A7A7A797979A1
:1017A00079787878777777777676767575757574D2
:1017B000747473737372727171717070706F6F6E15
:1017C0006E6E6D6D6C6C6C6B6B6A6A69696968686A
:1017D00067676666656564646363626261616060D1
:1017E0005F5F5E5E5D5D5C5C5B5B5A595958585744
:1017F0005756555554545353525151504F4F4E4EC6
:101800004D4C4C4B4A4A4949484747464545444355
:1018100043424141403F3F3E3D3D3C3B3A3A3938EF
:101820003837363635343333323130302F2E2E2D93
:101830002C2B2B2A29282827262525242322222140
:10184000201F1F1E1D1C1C1B1A19181817161515F2
:101850001413121211100F0E0E0D0C0B0A0A0908A8
:1018600007070605040303020100FFFFFEFDFCFC61
:10187000FBFAF9F8F8F7F6F5F5F4F3F2F1F1F0EF19
:10188000EEEDEDECEBEAEAE9E8E7E7E6E5E4E3E3D1
:10189000E2E1E0E0DFDEDDDDDCDBDADAD9D8D7D784
:1018A000D6D5D4D4D3D2D1D1D0CFCFCECDCCCCCB32
:1018B000CAC9C9C8C7C7C6C5C5C4C3C2C2C1C0C0DA
:1018C000BFBEBEBDBCBCBBBABAB9B8B8B7B6B6B578
:1018D000B5B4B3B3B2B1B1B0B0AFAEAEADACACAB0A
:1018E000ABAAAAA9A8A8A7A7A6A6A5A4A4A3A3A291
:1018F000A2A1A1A0A09F9F9E9E9D9D9C9C9B9B9A08
:101900009A99999898979796969695959494939373
:1019100093929291919190908F8F8F8E8E8E8D8DCC
:101920008C8C8C8B8B8B8A8A8A8A89898988888817
:10193000888787878686868685858585858484844D
:101940008484838383838382828282828282818170
:101950008181818181818080808080808080808081
:101960008080808080808080808001000002000074
:101970000300040005070605040100080A0B0C0D0E
:10198000090000000200080E0000030401000B0023
:101990000000000000000000000000000000000047
:1019A000040802011040804010204080408008025E
:1019B00004018040201002011080102040402004CB
:1019C00004040404030405020202020403020202E6
:1019D00002060606060606040402020204040000CB
:1019E00000002300260029002C002F00000000002A
:1019F000250028002B002E003100000000002400EC
:101A000027002A002D003000080B0002020201000E
:101A10000904000001020200000524001001052451
:101A200001010104240206052406000107058103C3
:101A300010004009040100020A000000070502022C
:101A40004000000705830240000009040400020171
:101A50000300000724010001220006240201010006
:101A60000924030102010301000624020203000904
:101A700024030204010101000705050240000005DE
:101A8000250101010705860240000005250101022C
:101A900009040300000101000009240100010900FC
:101AA000010400C18081C180811201000202000096
:101AB00040412336800001010200011201000200B2
:101AC0000000404123368000010102000120034153
:101AD0000072006400750069006E006F0020004C09
:101AE000004C004300200020002000200022034181
:101AF0000072006400750069006E006F0020004CE9
:101B00000065006F006E006100720064006F0004E9
:101B100003090400000000000000002A2B28000038
:101B200000000000000000000000000000000000B5
:101B30000000002C9EB4A0A1A2A434A6A7A5AE3696
:101B40002D3738271E1F20212223242526B333B604
:101B50002EB7B89F8485868788898A8B8C8D8E8FD7
:101B6000909192939495969798999A9B9C9D2F31DA
:101B700030A3AD350405060708090A0B0C0D0E0F3E
:101B8000101112131415161718191A1B1C1DAFB1BA
:101B9000B0B50009040200010300000009210101A1
:101BA00000012265000705840340000105010902C8
:101BB000A1010901A10085010509190129031500E9
:101BC00025019503750181029501750581030501C4
:101BD0000930093109381581257F7508950381067B
:101BE000C0C005010906A1018502050719E029E722
:101BF000150025017501950881029501750881037D
:101C000095067508150025650507190029658100E9
:101C1000C00077181F2027212225D3262528382EFB
:101C200011241FBECFEFDAE0DEBFCDBF12E0A0E08F
:101C3000B1E0ECE9F5E602C005900D92A439B107D8
:101C4000D9F727E0A4E9B2E001C01D92AD3DB2078B
:101C5000E1F71EE0C0E1DEE004C02197FE010E9432
:101C60007332C930D107C9F70E940E270C94CC32C9
:101C70000C940000DC01ED91FC910190F081E02DCD
:101C80000994DC01ED91FC910190F081E02D099423
:101C9000CF93DF93E5EEF3E0C6E0D1E0AEE0B1E054
:101CA00081E021913191299339938D9393E0ED3E19
:101CB000F907B9F7DF91CF9108958F929F92AF9274
:101CC000BF92CF92DF92EF92FF92CF93DF9320915A
:101CD000C5033091C6034091C7035091C803C0901B
:101CE000E402D090E502E090E602F090E7028091F5
:101CF000E0029091E102A091E202B091E3028C0D2A
:101D00009D1DAE1DBF1D8093E0029093E102A09344
:101D1000E202B093E302CD019370E091E802F0910A
:101D2000E902E80FF91FA4910A2E000CBB0B0E94D8
:101D30009A324B015C018091D502882349F12FB77B
:101D4000F8948091D1029091D202A091D302B091E7
:101D5000D4024091CD025091CE026091CF02709199
:101D6000D002840F951FA61FB71F8093CD029093BA
:101D7000CE02A093CF02B093D0022FBF8091CD02AC
:101D80009091CE02A091CF02B091D0024A2F01C013
:101D900040E08091EE029091EF02A091F002B091AC
:101DA000F102C090EA02D090EB02E090EC02F090D9
:101DB000ED028C0D9D1DAE1DBF1D8093EA02909318
:101DC000EB02A093EC02B093ED02750164012AE0EE
:101DD000CC0CDD1CEE1CFF1C2A95D1F78C0D9D1D33
:101DE000AE1DBF1DCD019370E091F202F091F302A0
:101DF000E80FF91F5491F091960280919902909109
:101E00009A02C0919B02D0919C02DC01AC1BBD0BDD
:101E100020919702309198024C01092E000CAA08DB
:101E2000BB08540360011124CD2CDD0CDD08C594E2
:101E3000C81AD90A0D2C000CEE08FF080E9488323F
:101E4000BB2797FDBA95A92F982F872FA701960139
:101E5000280F391F4A1F5B1FAF2FB0E00E948F323F
:101E6000BB2797FDBA95A92F982F872F880D991D0D
:101E7000AA1DBB1D90939A0280939902BC016C1B12
:101E80007D0BF69FC001F79F900D1124892F990FAC
:101E9000990B8C0F9D1F90939C0280939B02082EA0
:101EA000000C990BDF91CF91FF90EF90DF90CF90D6
:101EB000BF90AF909F908F9008950C94CD1ECF93BC
:101EC0009091CF03911107C0C82F682F8AE00E941C
:101ED000D023C093FF03CF910895809136018150A4
:101EE0008093FA031092F90308958091F803811109
:101EF00002C00C946D0F08958091FA03E82FF0E072
:101F0000E55CFE4F9091FE039083909136019F5FB8
:101F1000909336018F5F8093FA030895EF92FF92BA
:101F20000F931F93CF93DF9388E790E00E94B63220
:101F3000809336019BE3E92E91E0F92E00E010E05A
:101F4000C82FD0E00C171D074CF4C8010E94B63210
:101F5000F70181937F010F5F1F4FF4CFDF91CF9186
:101F60001F910F91FF90EF900895CF92DF92EF9223
:101F7000FF92CF93DF9384E690E00E94B6328B37D6
:101F800011F40E948E0FC3E2D1E08881229662E0B4
:101F90000E94942381E0CD32D807B9F762E080E156
:101FA0000E949423CDE2D1E08881229661E00E94D4
:101FB000942381E0C733D807B9F78FE192E190937A
:101FC000F7028093F60284E492E19093F502809305
:101FD000F40285E79FE090930F0380930E0388E45B
:101FE00092E1909313038093120389EA92E1909314
:101FF0000D0380930C0342E15AE760E070E08091AA
:10200000A9039091AA030E944B2610921B031092E1
:102010001A031092190310922203109221031092B6
:10202000200310921F031092A80310922503109210
:102030002403109223031092260310922703809109
:102040001803817082608160809318038FEF809302
:10205000AA0280EF8093B2028093BA0281E080935B
:10206000C2021092CA028CE090E09093A502809385
:10207000A40240919D0250919E029A01ACE0B0E012
:102080000E9479326093A6027093A7028093A802FF
:102090009093A902E9E1F0E0F093AD02E093AC0285
:1020A000A9E1B0E00E9479326B017C016093AE023D
:1020B0007093AF028093B0029093B1028DEB9FE1D9
:1020C0009093B5028093B402ADEBBFE10E947932E8
:1020D0006093B6027093B7028093B8029093B902EE
:1020E000F093BD02E093BC02C092BE02D092BF0248
:1020F000E092C002F092C1028FEF9FE19093C5027F
:102100008093C402AFEFBFE10E9479326093C602B0
:102110007093C7028093C8029093C9028FB7F89456
:1021200040E050E86BE170E04093EE025093EF0224
:102130006093F0027093F1028FBF80E890E00E94FC
:10214000431F60E08EE10E94942360E081E10E94E1
:102150009423E091CE03F0E0EE0FFF1FE35DFE4F0E
:1021600061E080810E94D02388EC8093950284E610
:102170008093960281E491E0909398028093970275
:102180008FB7F89440E050E064E070E04093DA02EA
:102190005093DB026093DC027093DD028FBFDF910E
:1021A000CF91FF90EF90DF90CF900895CF93DF9382
:1021B000CDE2D1E08881229661E00E94D02381E0C7
:1021C000C333D807B9F7DF91CF910895CF930E9419
:1021D000D610C0E060913601C61750F48C2F90E005
:1021E000FC01E55CFE4F60810E94BE32CF5FF2CF02
:1021F00088E790E00E94BE326BE784E690E0CF91E2
:102200000C94BE32CF93DF93CDE2D1E08881229649
:1022100060E00E94D02381E0C333D807B9F7DF9193
:10222000CF910895813081F028F08230B9F0833069
:10223000F9F008958091DC03811103C08AE695E1ED
:102240001DC08AE695E121C08091DC03811103C0A5
:102250008AE695E013C08AE695E017C08091DC031A
:10226000811103C08AE69DE009C08AE69DE00DC0A9
:102270008091DC03811107C08AE693E09093F3021A
:102280008093F20208958AE693E09093E9028093A6
:10229000E80208950F931F93CF938C01CB01BA01ED
:1022A000CFB7F89420E030E040E854E40E941030CA
:1022B00020E030E040E858E30E94103020E030E0B9
:1022C00040E857E40E9410300E942F2FF8016483E9
:1022D000758386839783CFBFCF911F910F91089508
:1022E000682F70E080E090E00E945E2F0E942E2117
:1022F000AB01BC014093CA035093CB036093CC0362
:102300007093CD0340931701509318016093190106
:1023100070931A018AEE92E00C944A11CF92DF92E8
:10232000EF92FF920F931F93CF93DF93EC018B01FA
:102330001B821A82FB01818192819D838C83C8A8B4
:10234000D9A8EAA8FBA86781862F90E0A0E0B0E0BA
:10235000DC0199278827BC01CD016C197D098E0904
:102360009F0923813481458156810E9454322CABD0
:102370003DAB4EAB5FAB1FA70EA7DF91CF911F9177
:102380000F91FF90EF90DF90CF900895FC01228194
:1023900033812F5F3F4F338322834481558124173C
:1023A000350710F00C948E110895CF93882309F40B
:1023B00044C020910204309103049CE0929FB0013C
:1023C000939F700D1124680F711D6038710514F012
:1023D0006FE770E091E09093D00377FF02C060E078
:1023E00070E0C82F072E000C880B990B0E94602FFD
:1023F0000E942E21AB01BC014093CA035093CB0332
:102400006093CC037093CD03409317015093180150
:102410006093190170931A018AEE92E00E944A11AA
:1024200063EA72E08DE992E00E948E1181E0809370
:10243000D5020E945F0FC093C303CF910895CF933D
:10244000C62F642F8C2F0E94D5118091CE0383302C
:1024500049F48091DA03882329F0C093FE03CF91D9
:102460000C947C0FCF9108951092D0039091C303E8
:10247000891309C06BEB72E08DE992E00E948E1126
:1024800080E00C945F0F0895862F642F0C94341213
:102490008091F80381110BC0E091FA03F0E0E55C54
:1024A000FE4F60E080810E94341210920104089572
:1024B000CF93DF9390E0EC01C55CDE4F28812223AF
:1024C000B9F02091D003222361F0019760E170E020
:1024D0000E941E32FC01E55CFE4F60E080810E949C
:1024E00034126FE788810E94D51188818093AB03F5
:1024F000DF91CF9108958091FA038F5F609136014B
:102500000E941232892F9093FA030C94581281E0A2
:10251000809301048091F9038F5F60913B020E94D8
:1025200012329093F903913011F40C947B12809144
:102530003A01891768F48091D003882349F0E0912B
:10254000FA03F0E0E55CFE4F60E080810C94341209
:1025500008958091F803811102C00C9487120895A8
:102560008091FB039091FC0301969093FC03809370
:10257000FB032091390130E02817390768F4809176
:10258000D003882349F0E091FA03F0E0E55CFE4FC8
:1025900060E080810E9434122091FB033091FC03A3
:1025A00080913701909138018217930730F40E948F
:1025B0007B121092FC031092FB0308958091F803A4
:1025C00081110C94B0128AE00E940024892B69F0DA
:1025D0008091CF03811109C08091FF03811105C053
:1025E00081E08093CF030C947B128AE00E94002448
:1025F000892B29F48091CF03811102C00895089599
:102600001092CF03E091FA03F0E0E55CFE4F60E04A
:1026100080810C9434129091F703891304C0909137
:10262000F5039923F9F0909135012CE0929F902DBC
:1026300011249093FD038093F70360E08091F603EB
:102640000E9434129091FD038091F703890F8093CB
:10265000FE036FE70E94D5118091F7038093F60384
:102660001092F5030895CF93809194029091D8032E
:10267000882379F0911199C08091DA03811195C076
:102680008091DC03811191C010929402CF910C943F
:1026900002118091D303992309F442C0811145C0EE
:1026A000C1E0C093D3038091DA03882349F080917D
:1026B000DC03882329F00E94E610C093940275C0C1
:1026C0009091F80381E089278093F803811116C067
:1026D000E091FA03F0E0E55CFE4F6FE780810E9435
:1026E000341280913701909138019093FC038093CC
:1026F000FB0360E08AE0CF910C94942361E08AE0D0
:102700000E9494238091360181508093FA03809136
:102710003701909138019093FC038093FB0345C0EF
:10272000882319F01092D30340C09091DA0380916E
:10273000D503992381F0811121C081E08093D503D5
:102740009091DC03911131C0809300041092360106
:102750001092FA032AC0882389F0809136018150B3
:102760008093FA03109200046FE78091FE030E94A9
:1027700034128091DA038093D50317C09091DC0363
:102780008091D703992371F081110FC081E080936C
:10279000D70380910004882341F01092FE03CF916B
:1027A0000C947C0F81111092D703CF910895DC0116
:1027B000D0968D919C91D197813F910509F4BCC031
:1027C0003CF5803B910509F45FC07CF480399105AC
:1027D000E9F1803A910509F474C08038910509F057
:1027E000D8C0ED91FC91119770C0803D910509F41E
:1027F00078C02CF4803C910509F478C00895803E9F
:10280000910509F446C0803F910509F47CC0089504
:102810008A3F910529F174F4833F910509F4A4C01E
:102820000CF48FC0863F910509F4A7C0883F91053D
:1028300091F008958C3F9105E9F0BCF08E3F910531
:10284000F1F08F3F910509F49DC008951296ED9126
:10285000FC9113973AC05896ED91FC91599796C008
:102860005A96ED91FC915B9791C05C96ED91FC912D
:102870005D978CC05E96ED91FC915F9787C09096B6
:10288000ED91FC91919782C01696ED91FC9117976E
:102890001CC01C96ED91FC911D97309709F479C0EE
:1028A000D3966C91D3976F7720E8629FB001112483
:1028B000D2968C91D2978F77682B70529F968C917D
:1028C00009941496ED91FC911597309709F461C025
:1028D000D3964C91D397D2966C91D2979F968C9128
:1028E00009941A96ED91FC911B9704C01896ED91EE
:1028F000FC911997309709F44CC0D2966C91D297FD
:102900009F968C9109941E96ED91FC911F9730979C
:1029100009F43FC0D3966C91D39770E0762F662769
:10292000D2968C91D297682B6138710510F060E8CF
:1029300070E0CD01C49609945096ED91FC915197A9
:1029400017C05296ED91FC915397309711F1D396A1
:102950008C91D3978F7720E8829FC0011124D29663
:102960002C912F77822B09945496ED91FC915597D9
:10297000309779F0D2968C9109945696ED91FC910E
:10298000579704C09296ED91FC919397309709F078
:10299000099408959C018F7C8038910561F0203D59
:1029A000310549F081E0203E310539F0203C310508
:1029B00021F080E0089581E00895089587FF0DC01B
:1029C0009CE0980F923048F0982F9B7F993F29F018
:1029D000803F08F4807F90E0089580E090E00895C3
:1029E0000F931F93CF93DF938C01EB016D3F710524
:1029F00054F46A3F710564F4663F710549F0683F1D
:102A0000710599F405C0CB018E5F9109029768F4B6
:102A1000F801EB54FF4F80819181DC01ED91FC9135
:102A20000190F081E02D6C2F0995C63FD10511F47E
:102A3000F80116A2DF91CF911F910F910895DF92B7
:102A4000EF92FF920F931F93CF93DF93EB01122F1F
:102A50000150003118F46038710524F4DC019696B9
:102A60001C924AC0613E7105C4F54F77D42E602B8D
:102A7000FC0126A1AC014B545F4F7A01261759F097
:102A800066A3DA018D919C91DC01ED91FC9101909E
:102A9000F081E02D0995F70180819181DC01ED91B4
:102AA000FC910190F081E02D6D2D0995CF7EC03C09
:102AB000D10511F1F70180819181DC01ED91FC914B
:102AC000612F6F770190F081E02DDF91CF911F9101
:102AD0000F91FF90EF90DF9009949B01265F3109E1
:102AE0002A30310548F4DF91CF911F910F91FF906B
:102AF000EF90DF900C94F014DF91CF911F910F9124
:102B0000FF90EF90DF9008958F929F92AF92BF92C7
:102B1000DF92EF92FF920F931F93CF93DF931F9259
:102B2000CDB7DEB7613108F0C6C24C018C010B5441
:102B30001F4FD8018D919C91DC01ED91FC91048097
:102B4000F581E02D0995892B09F4B5C2F801808142
:102B50009181DC01ED91FC910680F781E02D0995D2
:102B60007C01F40125A536A52115310509F0D0C059
:102B700080A7D5A08D2D0E94DE140E94CA14882340
:102B800079F0E7FC0DC0D4019896DC92989799965D
:102B9000EC92999781E090E09E969C938E939D97FE
:102BA000F401F0A48F2D0E94DE14813F910509F4F9
:102BB00063C094F5803B910509F466C06CF48039DC
:102BC000910509F461C0803A910509F45DC080382F
:102BD000910509F05FC058C0803D910509F44CC0D3
:102BE0002CF4803C910509F447C054C0803E910507
:102BF00009F44AC0803F910509F04CC020E830E05C
:102C0000D4019C963C932E939B9795961C929597F6
:102C100020EFD4962C9345C0883F9105A9F044F449
:102C2000833F910549F184F1863F910569F032C0F7
:102C30008A3F91057CF18D3F910534F09C012E5F18
:102C400031092230310530F5D401D1969C938E9311
:102C5000D0979F961C929F97D2961C92D297D3960C
:102C60001C9281E0F401EC54FF4F8083F40116A61E
:102C700015A614A613A61AC122E030E0D4019C9632
:102C80003C932E939B970DC023E030E0F40134A7D2
:102C900023A707C0F40116A615A614A613A615A20D
:102CA0000AC2D4019D962D913C919E979B964D9181
:102CB0005C919C97BA01615071092617370708F497
:102CC000EFC0D1969C938E93D0978F2D8F70FF2459
:102CD000F394F80E9F96FC929F9799968C919997F2
:102CE000D2968C93D2974330510531F49A968C91B9
:102CF0009A97D3968C9302C0F40113AAD4019E969E
:102D00001C921E929D979C961C921E929B9724C08B
:102D100087FF4DC099278D3F91055CF48A3F91054F
:102D200074F4873F9105F1F0883F910509F03FC0A9
:102D300006C0AC014E5F510942305105C0F5D401C7
:102D4000D1969C938E93D097D2961C92D297D3967D
:102D50001C92D3979F961C9281E0F401EC54FF4F94
:102D60008083A4C0F40184A9803FB9F5C90101960C
:102D7000E20FF31F47EF44AB20EF30E0D401D196D0
:102D80003C932E93D097D2968C93D297D3969C93C4
:102D9000D3979F961C9281E0F401EC54FF4F8083FF
:102DA000F40116A615A614A613A615A27FC0F40159
:102DB00080A5E20FF31F803FE1F4E4AAD4019B96C3
:102DC000AD90BC909C97C50101972817390708F46E
:102DD00067C098962C91203F71F4D4019E961C9266
:102DE0001E929D979C961C921E929B9795961C9264
:102DF00062C1E0A6E3CF822F29830E94DE147C010A
:102E0000F40191AB80AB0E94CA142981882339F068
:102E1000822F8F708F5FD4019F968C9302C0F40134
:102E200017A6D40199968C919997D2968C93B3E07A
:102E3000AB16B10421F4F40182A583AB03C0D40125
:102E4000D3961C92F40116A615A614A613A681E02B
:102E5000EC54FF4F8083F0EBEF16F104D1F06CF4EB
:102E6000A0E9EA16F104A9F0B0EAEB16F10489F042
:102E7000E0E8EE16F10481F40CC0F0EDEF16F10479
:102E800041F080EEE816F10421F0A0ECEA16F1041E
:102E900019F4F40125A30AC0D40195961C9206C02A
:102EA0002F5F3F4FF40136A725A705C1D401D09667
:102EB0008D919C91D1978039910531F4D401D396AD
:102EC0008C91882309F4F9C0F40180A991A9009795
:102ED00071F0805891098136910508F0F4C087A1FE
:102EE00097A5981709F4EFC0882309F4ECC0D12CFA
:102EF000D40194962C919497822F817020FFE9C081
:102F0000922F9E7F09F4E5C0D0966D917C91D19768
:102F1000AB01405851094136510550F59F960C912F
:102F20009F9797969C91091719F081E0911180E085
:102F3000269530E02230310541F02330310591F003
:102F40002130310509F0C5C00FC0882309F4C1C084
:102F5000D401D3962C91D397D2964C91C4010E9460
:102F60001F15B7C08111B5C0F40123A942A9F6CF3E
:102F7000FB01E05FF109E031F10508F0AAC0EA5A6F
:102F8000FF4F0C947332C4010E94F014A2C074016C
:102F9000F4E3EF0EF11C5701D401D3964C91D39773
:102FA00050E0542F4427D2968C919A01282B213837
:102FB000310510F020E830E0E20EF31EAE14BF043D
:102FC00009F476C0F80180819181D5016D915D0190
:102FD000DC01ED91FC910190F081E02D0995EECF9F
:102FE000D401D296FC90F80180819181DC01ED91B1
:102FF000FC910190F081E02D63EF09956F2D6F77C3
:1030000070E0F801808191810E94410ED401969672
:103010001C925FC0F401E3A8F0E8EF9E7001112458
:10302000D401D2968C91E82AF80180819181DC014B
:10303000ED91FC910190F081E02D62EF0995B701CF
:103040006F777727F801808191810E943A0EB7014E
:10305000660F672F661F770B71956F777727D801FB
:103060008D919C910E943A0E23C0D401D2968C91EE
:103070008770B0E18B9FC0011124F40123A92F7048
:10308000F22EF82AD8018D919C91DC01ED91FC91F2
:103090000190F081E02D61EF0995F8018081918127
:1030A000DC01ED91FC910190F081E02D6F2D0995EF
:1030B000F40116A20EC0D12C0CC080E890E0F401FF
:1030C00091AB80AB01CFC4010E94D713DD24D39410
:1030D0000FCF8D2D0F90DF91CF911F910F91FF900A
:1030E000EF90DF90BF90AF909F908F900895E4EFA6
:1030F000F2E08EEC96E09093AA038093A9031182EC
:10310000108213821282158214821782168211860F
:103110001086138612861586148617861686118ADF
:10312000108A138A128A158A148A178A168A118EAF
:10313000108E138E128E158E148E178E168E11A26F
:1031400010A213A212A28AE695E19093F302809353
:10315000F2029093E9028093E8028AE691E090936C
:10316000DF028093DE02EDE9F2E080E890E09183F7
:103170008083168281E0868782E0868B83E0868F5B
:1031800084E086A315A208951F93CF93DF931F9227
:10319000CDB7DEB788E797E00E941F2718161906FB
:1031A0000CF04CC088E797E00E943027262F182F9C
:1031B000692F293089F4992391F00E94D5118091CB
:1031C000CE03833039F78091DA03882319F3109303
:1031D000FE030E947C0FDECF283051F405C08091A1
:1031E000F8038111D7CF60E0812F0E943412D2CF33
:1031F0002F30D1F48091F803811104C079830E94AB
:10320000871279817C3F31F68091F8038111C2CF1A
:10321000E091FA03F0E0E55CFE4F60E080810E94FF
:10322000341210920104B6CF233009F0B3CF80914D
:10323000F8038111AFCF0E946D0FACCF0F90DF91DB
:10324000CF911F9108958F929F92AF92BF92CF928C
:10325000DF92EF92FF920F931F93CF93DF930E9421
:10326000C41860911B0384EF92E00E948415CBE1A7
:10327000D1E025EEC22E23E0D22E0EE011E036E0A2
:10328000E32E31E0F32E888122960E94C620F601BB
:10329000819391936F01F80120812223A1F0F7011E
:1032A000208131814091040150910501B901640FE1
:1032B000751F681779072CF0241B350B82179307AD
:1032C00014F4F80110820F5F1F4FF2E0EF0EF11CB3
:1032D00031E0C332D307B9F6C3E2D1E008ED13E021
:1032E000888122960E94002421E0892B09F020E0A9
:1032F000F80121938F0180E10E94002421E0892BB5
:1033000009F020E02093D203F1E0CD32DF0741F74E
:103310009091D9038091D403992341F1811129C05F
:103320000E94480EE091CE03E150E093CE03F0E01E
:103330003196E370FF27EE0FFF1FE35DFE4F60E065
:1033400080810E94D023E091CE03E370E093CE030E
:10335000F0E0EE0FFF1FE35DFE4F61E080810E9411
:10336000D0238091D9038093D40303C0811110929C
:10337000D4039091DB038091D603992329F1811125
:1033800026C00E94480EE091CE03EF5FE093CE038B
:10339000F0E0EE0FFF1FE55DFE4F60E080810E94D0
:1033A000D023E091CE03E370E093CE03F0E0EE0F84
:1033B000FF1FE35DFE4F61E080810E94D02380917A
:1033C000DB038093D60303C081111092D603909142
:1033D000D2038091D103992341F1811135C08091AD
:1033E000CE03833039F48091DA03882319F00E94E8
:1033F0007C0F26C08091F803811107C080910104E1
:10340000811103C00E947B121BC080913601815044
:103410008093FA0380913701909138019093FC03D7
:103420008093FB031092F9030BC0882369F080910D
:103430000004811105C060E08091AB030E9434124A
:103440008091D2038093D1032091E5033091E6036C
:103450008091DD039091DE032817390709F4C3C07A
:1034600080910E018111BFC08091CE038130A9F0FF
:1034700038F0823009F45AC0833009F478C0ABC008
:10348000C901330FAA0BBB0B8093C5039093C603EE
:10349000A093C703B093C8039EC080E094E0821B52
:1034A000930BD5E0880F991FDA95E1F7092E000CF0
:1034B000AA0BBB0B8093B0039093B103A093B2030C
:1034C000B093B303B901330F880B990B0E94602F9F
:1034D0006093BB037093BC038093BD039093BE03C2
:1034E000CFB7F89420E030E048E452E40E94B62ED2
:1034F00020E030E040E054E40E94103020E030E072
:1035000040E05CE30E94103020E030E040E857E407
:103510000E9410300E942F2F6093DA027093DB021A
:103520008093DC029093DD02CFBF55C02E5E3F4FEB
:10353000C901A0E0B0E09C01AD01C3E056954795FC
:1035400037952795CA95D1F73093A5022093A40209
:10355000A0919D02B0919E020E948F326093A602BC
:103560007093A7028093A8029093A90234C080911F
:10357000F803882371F0B3E035952795BA95E1F704
:103580008FE790E0821B930B909338018093370173
:1035900022C0C901880F892F881F990B64E070E051
:1035A0000E941E3299272130324054F428E130E045
:1035B000F90102C0F595E7958A95E2F7CF0109C0B8
:1035C00020E130E0A90102C0559547958A95E2F7C0
:1035D000CA0180933B028091E5039091E6039093AA
:1035E000DE038093DD03C091E703D091E80380916F
:1035F000DF039091E003C817D90709F4A8C08091B0
:103600000F018111A4C08091CE03813009F451C013
:1036100080F1823009F475C0833009F090C0BE019A
:103620000D2E000C880B990B209137013091380139
:1036300089011F921F921F932F93A12CB12C65011A
:10364000E12C14E0F12E00E010E020E030E0A901D0
:103650000E94DD2B60933901BE0135E075956795B9
:103660003A95E1F760933A010F900F900F900F9009
:1036700066C0BE0175956795759567956093120153
:103680006093960220919502862F8095829FC001BB
:103690001124892F9927820F911D9093980280936E
:1036A00097028091D803882309F449C0609395025A
:1036B00046C0BE01DD0F880B990B0E94602F6093FE
:1036C000BB037093BC038093BD039093BE0320E0C3
:1036D00030E04AE754E40E94B62E6093BF03709333
:1036E000C0038093C1039093C203C1E020E030E0A7
:1036F000A9010E94B12E811101C0C0E0C093BA039C
:103700001EC0CE01A0E0B0E09C01AD0163E0569583
:103710004795379527956A95D1F73093AD02209359
:10372000AC02A0919D02B0919E020E948F326093E4
:10373000AE027093AF028093B0029093B102809179
:10374000E7039091E8039093E0038093DF03809177
:10375000E9039091EA032091E1033091E20382179B
:10376000930709F46AC020911001211166C02091CD
:10377000CE03213009F446C038F0223009F445C0A8
:10378000233009F447C051C02091DA03222381F18C
:10379000880F892F881F990B209102043091030410
:1037A0008217930709F441C0049790930304809310
:1037B0000204E091FA03F0E0E55CFE4F40812091C5
:1037C000D003222391F15CE0589F9001599F300D66
:1037D0001124C901840F911D8038910514F08FE7E1
:1037E00090E097FF02C080E090E00E9470111DC041
:1037F000D6E095958795DA95E1F79093140180933B
:10380000130113C09093B90310C08093BA02809340
:10381000B2020BC02091DA03222339F0C6E095955D
:103820008795CA95E1F70E940B138091E903909167
:10383000EA039093E2038093E1032091EB0330913C
:10384000EC038091E3039091E4032817390709F40E
:103850008FC08091110181118BC08091CE03813086
:10386000B1F028F08230E1F08330C9F179C0232F24
:10387000330F330B8091C40390E02817390709F404
:103880006FC02093C403822F0E94121169C02115BA
:1038900032401CF41092B80363C08093B80360C038
:1038A000C901A0E0B0E09C01AD01A3E056954795A9
:1038B00037952795AA95D1F73093BD022093BC0286
:1038C000A0919D02B0919E020E948F326093BE0231
:1038D0007093BF028093C0029093C10241C0220F37
:1038E000232F221F330B8091350190E028173907D1
:1038F000B9F18091DA03882371F080910004882364
:1039000079F12093350181E08093F5038091F703ED
:103910000E940B1325C020933501245031093093A8
:10392000030420930204E091FA03F0E0E55CFE4F0B
:1039300040818091D003882399F05CE0529FC001C0
:10394000539F900D1124840F911D8038910514F020
:103950008FE790E097FF02C080E090E00E94701136
:103960008091EB039091EC039093E4038093E30345
:103970008091CE03833011F40E943313E091CB0287
:10398000F091CC028081823091F038F4882361F08C
:103990008130B1F463EB72E00FC0833059F08430B2
:1039A00079F41092D5020CC06BEA72E005C06BEBA3
:1039B00072E002C063EC72E08DE992E00E94C611F1
:1039C0008091BA03882309F48CC18091B8038111D6
:1039D00028C04091DA025091DB026091DC027091C4
:1039E000DD028091D6029091D702A091D802B091C9
:1039F000D902840F951FA61FB71F8093D6029093FC
:103A0000D702A093D802B093D902CD019170E09172
:103A1000DE02F091DF02E80FF91FE491E093C903A1
:103A2000AEC00E9416200091B4031091B5032091FE
:103A3000B6033091B703AB01BC01401B510B620BC5
:103A4000730B8091B0039091B103A091B203B09138
:103A5000B303E3E0880F991FAA1FBB1FEA95D1F7B4
:103A600084179507A607B707E8F464EF70E080E0D5
:103A700090E00E94B721A0E0B0E0DC019927882700
:103A80008093AC039093AD03A093AE03B093AF03C8
:103A90000E9416206093B4037093B5038093B6031D
:103AA0009093B7038090ED039090EE03A090EF0306
:103AB000B090F0036091AC037091AD038091AE03C0
:103AC0009091AF030E945E2F6B017C01C501B40190
:103AD0000E945E2F9B01AC01C701B6010E94442EDB
:103AE0006B017C012091EB033091EC033595279518
:103AF0003595279580E091E0821B930BBC01990FCF
:103B0000880B990B0E945E2F9B01AC01C701B60187
:103B10000E94B62E0E94282F6093F1037093F20347
:103B20008093F3039093F4032FB7F8944091ED033F
:103B30005091EE036091EF037091F0038091F103D7
:103B40009091F203A091F303B091F403840F951FB9
:103B5000A61FB71F8093ED039093EE03A093EF038E
:103B6000B093F0032FBF8091ED039091EE03A091ED
:103B7000EF03B091F00380E88A0F8093C90380912E
:103B8000B90381112CC06091C903062E000C770B7C
:103B9000880B990B0E94602F2091BF033091C003C6
:103BA0004091C1035091C2030E9410302091CA037A
:103BB0003091CB034091CC035091CD030E94452E10
:103BC000AB01BC0140931701509318016093190198
:103BD00070931A018AEE92E00E944A1110C08091FF
:103BE000CA039091CB03A091CC03B091CD038093F5
:103BF000170190931801A0931901B0931A018091B5
:103C0000B903813009F04AC06091120170E080E090
:103C100090E00E94602F6B017C018091C903682FA6
:103C2000880F770B880B990B0E94602F4B015C016A
:103C300020E030E04CEF52E46091BF037091C0038C
:103C40008091C1039091C2030E9410309B01AC018E
:103C5000C501B4010E94452E9B01AC01C701B6010C
:103C60000E94452E0E94282F6F3F710514F06EEFC1
:103C700070E077FF02C060E070E060939602809190
:103C800095026095689FB0011124672F7727680F10
:103C9000711D709398026093970223C0823009F5DA
:103CA0006091C903062E000C770B60587F4F072EDA
:103CB000000C880B990B0E94602F2091BF0330915C
:103CC000C0034091C1035091C2030E9410300E9472
:103CD000282F6093C5037093C6038093C703909306
:103CE000C803C0911301D0911401C830D10594F4D8
:103CF00060911701709118018091190190911A013A
:103D00000E94282F28E02C1B02C0759567952A95E4
:103D1000E2F713C06C2F675070E080E090E00E94E3
:103D2000602F209117013091180140911901509195
:103D30001A010E9410300E94282F70931601609380
:103D4000150180911501909116012FB7F894092E55
:103D5000000CAA0BBB0B3CE0880F991FAA1FBB1FCE
:103D60003A95D1F78093E4029093E502A093E6029E
:103D7000B093E7022FBFDF91CF911F910F91FF907A
:103D8000EF90DF90CF90BF90AF909F908F900C946A
:103D9000DE120E9423190C94BC209091160680918B
:103DA0001506981306C0909118068091170698136F
:103DB0001AC00E945D0E20911606E22FF0E0EE0F71
:103DC000FF1FEB5EFB4F8C509F4F918380832F5FD3
:103DD00020931606211107C09091180681E08927CB
:103DE00080931806089508951F920F920FB60F92B0
:103DF00011242F933F938F939F93AF93BF93EF9390
:103E0000FF9381E090910404911180E08093040479
:103E1000882361F180911506E82FF0E0EE0FFF1F77
:103E2000EB5EFB4F208131818F5F809315068111FE
:103E300019C09091170681E0892780931706809119
:103E4000190690911A06A0911B06B0911C060196C6
:103E5000A11DB11D8093190690931A06A0931B060D
:103E6000B0931C063093890020938800FF91EF9156
:103E7000BF91AF919F918F913F912F910F900FBE66
:103E80000F901F9018959F92AF92BF92CF92DF92A2
:103E9000EF92FF920F931F93CF93DF93EC0180E09B
:103EA0000E94692084B58093140485B5809313041F
:103EB00087B5809312040EE610E0F80180818093AC
:103EC00011049E0140E050E060E472E48FE090E075
:103ED0000E945432DA01C90140E069EC7EE10E949F
:103EE000C8220E941F2384B580930C0485B580935B
:103EF0000B0487B580930A04F8018081809309043C
:103F000000E810E0F801808180931004C1E8D0E05F
:103F1000888180930F0488E8A82EB12CF501808158
:103F2000918180930E049FE6C92ED12CF6018081E9
:103F300080930D0461E089E00E94942322E7E22E41
:103F400026E0F22EF701128298E1938382E08483C7
:103F50009883F801808388EE91E0A0E0B0E0992496
:103F6000939490926F06909371068093700690934D
:103F700087008093860089E1888361E089E00E9460
:103F80009423F8019081F7018481892B8068F801DE
:103F900080832091700630917106A4EFB0E00E94FA
:103FA0007932DC01CB013AE0B695A79597958795D4
:103FB0003A95D1F7F5019183808390916F06F701CF
:103FC0008381892B8883F6019082F8018081809318
:103FD0000804888180930704F50180819181809392
:103FE0000604F601808180930504DF91CF911F9133
:103FF0000F91FF90EF90DF90CF90BF90AF909F9088
:104000000895209115068091190690911A06A091A5
:104010001B06B0911C06BA2FA92F982F8827BC0128
:10402000CD01620F711D811D911D08950E94012017
:104030009B01AC01ADE3B0E00E948F320895109275
:10404000150610921606109217061092180608957B
:10405000811109C080917A00846080937A008091F8
:104060007A008D7F1AC0813071F480917A008B7F45
:1040700080937A0080917A00826080937A008091A8
:104080007A0081600FC0823079F480917A008B7F52
:1040900080937A0080917A00826080937A00809188
:1040A0007A008E7F80937A00089580E090E061E04E
:1040B00070E040917E009B01082E01C0220F0A94FF
:1040C000EAF7242B20937E0001968C30910589F726
:1040D0000895EAE7F0E09081986090830E9428209C
:1040E0000C945520823108F08251E82FF0E0EB5813
:1040F000F64E84910895EBE7F0E0908183FB222750
:1041000020F930E045E0220F331F4A95E1F79F7D0B
:10411000292B20838770806480937C00EAE7F0E09D
:104120008081806480830895CF93DF931F92CDB701
:10413000DEB78091290690912A068F3F2FEF9207D4
:1041400061F0FC01E35EF94F208129830197909390
:104150002A0680932906898101C08FEF80933D0252
:1041600080913D028F3F21F080913D020E947B2093
:104170000F90DF91CF91089580913D028F3F29F4F8
:104180000E94942081E080933C0208950E94722056
:104190002091290630912A062B30310554F42F5FE7
:1041A0003F4F30932A0620932906F901E35EF94F29
:1041B0008083E82FF0E0EE0FFF1FE55DF94F80816F
:1041C00091810895EAE7F0E080818064808308951A
:1041D000E0913D028091780090917900EE0FFF0B05
:1041E000E55DF94F9183808308951F920F920FB67A
:1041F0000F9211242F933F934F935F936F937F936D
:104200008F939F93AF93BF93EF93FF9380913C0263
:10421000882329F00E94E22010923C0207C00E94ED
:10422000E8200E94942081E080933C02FF91EF916E
:10423000BF91AF919F918F917F916F915F914F91BE
:104240003F912F910F900FBE0F901F9018958FEFF9
:104250009FEF90932A06809329060895CF92DF92CC
:10426000EF92FF926B017C0120E030E0A9010E94F7
:10427000B12E8823B9F020E030E040E451E4C701DA
:10428000B6010E94B62E9B01AC0160E070E080E0B8
:1042900090E40E947D3023E130ED42E051E40E9441
:1042A000103003C060E070E0CB01FF90EF90DF9032
:1042B000CF9008950F931F938091460290914702EB
:1042C000A0914802B0914902BC0155274427842798
:1042D0009527A627B727AC01BD0135E076956795F0
:1042E000579547953A95D1F784279527A627B7275D
:1042F0004091420250914302609144027091450204
:1043000040934602509347026093480270934902DB
:1043100000913E0210913F022091400230914102F3
:1043200000934202109343022093440230934502CB
:104330004027512762277327482759276A277B2759
:10434000880F991FAA1FBB1F8A019B0108271927E5
:104350002A273B27C901B80100933E0210933F0270
:1043600020934002309341021F910F9108950F93C3
:104370001F93CF93DF938C01EB010E945A219B0185
:10438000AC0144275527DE01A01BB10B0E949A32D5
:10439000800F911FDF91CF911F910F91089582E0BF
:1043A00080936E068FEF8093490610924B068091A2
:1043B0004306815080934A0680914406880F8160AD
:1043C00080936C0685EE8093BC00089584E0809312
:1043D0006E068FEF8093490610924B06809145063A
:1043E00080934A06A0914606B09147062CE436E039
:1043F000F9019E2F921B981718F49D919193F9CF74
:104400008091480690E0880F991F80936C0685EE96
:104410008093BC00089585ED8093BC008091BC0022
:1044200084FDFCCF80916E0680936D0610926E061F
:1044300080916D06833011F40C94E62180916D0615
:10444000813011F40C94CF21089585EC8093BC0049
:1044500080916E0680936D0610926E0680916D06B7
:10446000833011F40C94E62180916D06813011F4B3
:104470000C94CF2108951F920F920FB60F92112422
:104480002F933F934F935F936F937F938F939F935C
:10449000AF93BF93EF93FF938091B900887F8832E9
:1044A00039F170F4803109F130F4882309F45BC0EC
:1044B0008830D9F05CC08831D9F0803261F157C0C2
:1044C0008034C1F150F4803331F1883309F04FC0AA
:1044D000809349060E9425224AC08035F9F088352C
:1044E000A9F1883409F043C040C080916C0610C027
:1044F00090914B0680914A069817B8F5E0914B06CB
:1045000081E08E0F80934B06F0E0E45BF94F8081F1
:104510008093BB0015C08093490627C0E0914B06ED
:1045200081E08E0F80934B068091BB00F0E0E45B4E
:10453000F94F808390914B0680914A06981710F4AA
:1045400085EC01C085E88093BC0011C0E0914B066A
:1045500081E08E0F80934B068091BB00F0E0E45B1E
:10456000F94F808302C0109249060E940B22FF91EE
:10457000EF91BF91AF919F918F917F916F915F91DB
:104580004F913F912F910F900FBE0F901F90189554
:10459000CF92DF92EF92FF9270937A066093790642
:1045A00040937B06A0E0B0E034E0880F991FAA1F7B
:1045B000BB1F3A95D1F720E030E0F901E659F64EFD
:1045C000E491EE2381F06C017D01022E04C0F6948B
:1045D000E794D794C7940A94D2F751E0C516D5064C
:1045E000E104F10438F02F5F3F4F2B30310529F7FC
:1045F00080E020C0A1E0B0E002C0AA0FBB1F2A9556
:10460000E2F7A70196010E949A32DC01CB0124E077
:10461000B595A795979587952A95D1F790937806A4
:104620008093770610926E0082E084BDE5BDCA9447
:10463000C7BC81E0FF90EF90DF90CF900895EEE649
:10464000F0E0808182608083089578941F920F92B9
:104650000FB60F9211242F933F934F935F936F9355
:104660007F938F939F93AF93BF93EF93FF9310929A
:104670006E00E0917906F0917A060995F8948091A0
:104680007B06882311F016BCA99A80916E00826087
:1046900080936E00FF91EF91BF91AF919F918F91A9
:1046A0007F916F915F914F913F912F910F900FBE2E
:1046B0000F901F90189590E0FC013197EE30F105B6
:1046C00090F5EA59FF4F0C947332809180008F77F8
:1046D00003C0809180008F7D80938000089584B511
:1046E0008F7702C084B58F7D84BD0895809190003E
:1046F0008F7707C0809190008F7D03C080919000DC
:10470000877F8093900008958091C0008F7703C0C9
:104710008091C0008F7D8093C00008958091C20079
:10472000877F8093C2000895CF93DF9390E0FC01D0
:10473000E056F64E2491FC01E154F64E8491882314
:1047400061F190E0880F991FFC01E650F64EC5918B
:10475000D491FC01E451F64EA591B491611109C0C8
:104760009FB7F8948881209582238883EC912E232B
:104770000BC0623061F49FB7F8943881822F809526
:1047800083238883EC912E2B2C939FBF06C08FB779
:10479000F894E8812E2B28838FBFDF91CF91089565
:1047A0001F93CF93DF93282F30E0F901EF57F64E98
:1047B0008491F901E056F64ED491F901E154F64E98
:1047C000C491CC23C9F0162F81110E945B23EC2FDA
:1047D000F0E0EE0FFF1FE451F64EA591B4918FB7B4
:1047E000F894111105C09C91ED2FE095E92302C0CA
:1047F000EC91ED2BEC938FBFDF91CF911F9108953A
:10480000CF93DF93282F30E0F901EF57F64E8491D4
:10481000F901E056F64ED491F901E154F64EC491F7
:10482000CC2391F081110E945B23EC2FF0E0EE0F7E
:10483000FF1FE252F64EA591B491EC91ED2381E079
:1048400090E021F480E002C080E090E0DF91CF9121
:1048500008958091CA069091CB062091CC063091A4
:10486000CD06821B930B8F73992708952091CA065A
:104870003091CB068091CC069091CD062817390750
:1048800049F0E091CC06F091CD06E657F94F8081D2
:1048900090E008958FEF9FEF08952091CA06309120
:1048A000CB068091CC069091CD0628173907A9F048
:1048B000E091CC06F091CD06E657F94F808120912A
:1048C000CC063091CD062F5F3F4F2F7333273093A7
:1048D000CD062093CC0690E008958FEF9FEF0895CA
:1048E000CF93DF93C091CA06D091CB062196CF73A8
:1048F000DD278091CC069091CD06C817D90799F095
:1049000082E00E94BF288F3F2FEF920761F0E09175
:10491000CA06F091CB06E657F94F8083D093CB06B9
:10492000C093CA06DFCFDF91CF91089583E00C9446
:104930004A2B0F931F93CF93DF931F92CDB7DEB710
:104940008C01698380915102882359F041E050E045
:10495000BE016F5F7F4F83E00E940329181619067E
:104960003CF081E090E0F8019383828380E090E066
:104970000F90DF91CF911F910F910895FC019081CD
:104980009E5F908342E450E068E07AE180E80C9416
:104990009B29FC0181819081913A59F4813209F07F
:1049A0004DC047E050E06AE472E080E00E949B293D
:1049B00047C0913209F042C0803239F467E070E0BC
:1049C0008AE492E00E94E2293BC0823209F036C0BC
:1049D00082818093510280914A0290914B02A09172
:1049E0004C02B0914D02803B9440A105B10541F5C8
:1049F0008091510280FD11C087E797E790930108ED
:104A0000809300089BE088E10FB6F894A895809306
:104A100060000FBE9093600013C00FB6F894A89585
:104A200080916000886180936000109260000FBEEA
:104A3000A895109201081092000802C080E0089525
:104A400081E00895ECE7F6E01382128288EE93E0AD
:104A5000A0E0B0E084839583A683B78388E592E0E5
:104A6000918380830895FC0124853585F901E05CFC
:104A7000FF4F80819181329620813181821B930B7F
:104A80008F7399270895DC011C96ED91FC911D9779
:104A9000DF01A05CBF4F2D913C91119712968D9133
:104AA0009C9111972817390739F08D919C91E80F47
:104AB000F91F808190E008958FEF9FEF0895FC012A
:104AC000A485B585FD01E05CFF4F208131813296E0
:104AD000808191812817390779F080819181A80F11
:104AE000B91F8C91208131812F5F3F4F2F73332766
:104AF0003183208390E008958FEF9FEF0895FC01AC
:104B000081A1882329F0A489B5898C9186FFFBCFE8
:104B100011A208950F931F93CF93DF93FC01A685F5
:104B2000B7858D01005C1F4FE8018881998101964E
:104B30008F739927AD014E5B5F4FEA012881398160
:104B400082179307D1F3E80128813981A20FB31F9F
:104B50006C93A685B785A05CBF4F11969C938E93EE
:104B6000A689B7892C9181E090E0078C02C0880F5C
:104B7000991F0A94E2F7822B8C9381E081A3048829
:104B8000F589E02D80818064808381E090E0DF9171
:104B9000CF911F910F91089508951F920F920FB614
:104BA0000F9211242F934F935F938F939F93EF93C3
:104BB000FF938091C80082FD1CC02091CE0080919F
:104BC00074079091750701968F7399274091760726
:104BD000509177078417950771F0E0917407F09171
:104BE0007507EC5CF84F20839093750780937407EA
:104BF00002C08091CE00FF91EF919F918F915F91C4
:104C00004F912F910F900FBE0F901F9018958EEC23
:104C100096E00E943325892B11F00C94CC25089541
:104C20001F920F920FB60F9211242F933F938F93E1
:104C30009F93EF93FF93209130073091310780913C
:104C40003207909133072817390731F48091C90052
:104C50008F7D8093C90014C0E0913207F091330733
:104C6000E051F94F208180913207909133070196EE
:104C70008F73992790933307809332072093CE0048
:104C8000FF91EF919F918F913F912F910F900FBEC8
:104C90000F901F901895CF92DF92EF92FF920F9393
:104CA0001F93CF93DF93EC016A017B014115514EB5
:104CB0006105710509F1EC89FD8981E090E008A0AA
:104CC00002C0880F991F0A94E2F7808360E079E0C0
:104CD0008DE390E0A70196010E94323289019A018A
:104CE0000150110921093109369527951795079526
:104CF000980101151041A8F0EC89FD89108260E847
:104D000074E88EE190E0A70196010E943232DA0148
:104D1000C9010197A109B109B695A79597958795FE
:104D20009C01E889F9893083EA89FB89208319A2EB
:104D3000EE89FF89408181E090E09C010C8C02C0EB
:104D4000220F331F0A94E2F7242B2083EE89FF8978
:104D500040819C010D8C02C0220F331F0A94E2F7A0
:104D6000242B2083EE89FF8940819C010E8C02C098
:104D7000220F331F0A94E2F7242B2083EE89FF8948
:104D800020810F8C02C0880F991F0A94E2F780954A
:104D900082238083DF91CF911F910F91FF90EF903D
:104DA000DF90CF900895EEECF6E01382128288EE49
:104DB00093E0A0E0B0E084839583A683B7838AE67E
:104DC00092E09183808384E397E09587848780EFE6
:104DD00096E0978786878DEC90E0918B808B8CECAA
:104DE00090E0938B828B88EC90E0958B848B89ECA0
:104DF00090E0978B868B8AEC90E0918F808F8EEC81
:104E000090E0938F828F84E0848F83E0858F87E0AA
:104E1000868F85E0878F81E080A308950E94B52C5E
:104E20008EEB97E00E94542B0E94B50FC7E0D6E2AC
:104E30000E945D0F2097E1F30E940726F9CFFC0145
:104E4000EE5BFF4F80819181329620813181821B00
:104E5000930B8F73992796958795969587950895C7
:104E6000CF93DF93EC01E881F9810480F581E02D97
:104E70000995CC5BDF4F288139812C5F3F4F2F7321
:104E8000332739832883DF91CF910895CF92DF9222
:104E9000EF92FF920F931F93CF93DF937C018C01CE
:104EA0000E5B1F4FD801CD91DC912196CF73DD278A
:104EB0006C01B4E4CB0ED11CF60180819181C8173E
:104EC000D907B9F085E00E94BF288F3FEFEF9E071A
:104ED00081F0D801ED91FC911197EE0DFF1D8283B9
:104EE0001196DC93CE93CD91DC912196CF73DD2783
:104EF000E3CFDF91CF911F910F91FF90EF90DF9063
:104F0000CF90089586E00C944A2BCF93DF9300D086
:104F100000D0CDB7DEB749835A836B837C8386E0AC
:104F20000E94F028811103C080E090E00BC044E0B3
:104F300050E0BE016F5F7F4F86E00E940329181684
:104F4000190694F70F900F900F900F90DF91CF916B
:104F5000089587E797E790930108809300089BE006
:104F600088E10FB6F894A895809360000FBE9093E7
:104F700060000895FF920F931F93CF93DF93EC018E
:104F8000E881F9810190F081E02D09951816190644
:104F90002CF060E070E080E090E039C0FE01EC5B56
:104FA000FF4FA081B181AC0FBD1F1296FC90808194
:104FB0009181019620E430E0B9010E941E32DE01A9
:104FC000A80FB91F12960C91808191810296B901A8
:104FD0000E941E32DE01A80FB91F12961C9180811B
:104FE00091810396B9010E941E32C80FD91FCA8150
:104FF00087E0F81208C0003F31F4C73F21F41130B8
:1050000011F40E94A9276F2D702F812F9C2FDF9103
:10501000CF911F910F91FF900895FC0190819F5FA8
:10502000908342E150E060E97AE180E80C949B29AA
:10503000FC0190819F5F908346E450E06AE47AE14E
:1050400080E80C949B2980E008958AE792E0909391
:105050007907809378070895CF92DF92EF92FF92BD
:105060000F931F93CF93DF936C01EB017B01E40E51
:10507000F51E00E010E0CE15DF0561F06991D60164
:10508000ED91FC910190F081E02DC6010995080F8A
:10509000191FF1CFC801DF91CF911F910F91FF90A0
:1050A000EF90DF90CF900895615030F02091F100A3
:1050B000FC0120830196F8CF289884E68093C507E9
:1050C00008952FB7FC012083F89467706093E9007E
:1050D0000895CF93DF931F92CDB7DEB7682FCE012F
:1050E00001960E9461288091F20099819FBF0F90E4
:1050F000DF91CF910895EF92FF920F931F93CF937B
:10510000DF931F92CDB7DEB79091C407992311F0BA
:1051100057FF03C08FEF9FEF2AC08A017B01682FE2
:10512000CE0101960E9461288091F20090E0A801D2
:10513000801791070CF4AC01842FF70194E681509D
:1051400038F028989093C5072091F1002193F7CF6C
:105150004115510521F08091F200882321F08981C9
:105160008FBFCA0104C08BE68093E800F8CF0F9090
:10517000DF91CF911F910F91FF90EF900895CF9302
:10518000DF931F92CDB7DEB741E050E0BE016F5F05
:105190007F4F0E947B28019719F4898190E002C01B
:1051A0008FEF9FEF0F90DF91CF910895CF93DF9313
:1051B0001F92CDB7DEB7682FCE0101960E946128FD
:1051C0009091E800892F807295FF04C09091F200C1
:1051D00080E4891B99819FBF0F90DF91CF91089543
:1051E000CF93DF931F92CDB7DEB7682FCE01019624
:1051F0000E9461288091E80099819FBF80720F9082
:10520000DF91CF9108954F925F926F927F928F922C
:105210009F92AF92BF92CF92DF92EF92FF920F9345
:105220001F93CF93DF931F92CDB7DEB7A82E6B01EC
:10523000B42E052F8091C407882369F0E42EF52E43
:105240008AEF782E8A2D8072582E9AE3692E8A2D45
:105250008074482E12C08FEF9FEF50C08A2D0E949D
:10526000D628182F81110DC07A947720A1F361E020
:1052700070E080E090E00E948D2CE114F10471F761
:1052800033C090E0E816F9060CF41E2D812E912C07
:10529000E818F9086A2DCE0101960E946128552070
:1052A00029F01150A8F01092F100FBCFF601A7FEF3
:1052B00007C0115058F084918093F1003196F9CFD6
:1052C000115020F081918093F100FACFC80CD91CC5
:1052D0008091E80085FF0FC0E114F10411F4411042
:1052E0000AC089818FBFC9CF5D9884E68093C607C5
:1052F0008B2D902F03C06092E800F3CF0F90DF91C9
:10530000CF911F910F91FF90EF90DF90CF90BF90C2
:10531000AF909F908F907F906F905F904F90089587
:105320001092E9001092C3071092C2079093C10730
:105330008093C00708950F931F93CF93DF93DB01F2
:10534000A40FB51FFB016EEFEA17FB0791F187FF72
:1053500002C0249101C020810091C2071091C307AF
:10536000C091C007D091C1070C171D07B4F49091EC
:10537000E8009570E1F39091E80092FD1CC0209345
:10538000F1002091C2073091C3072F5F3F4F2F7369
:105390003327232B11F46093E8002091C20730914A
:1053A000C3072F5F3F4F3093C3072093C207319647
:1053B000CBCFCA0102C08FEF9FEFDF91CF911F913A
:1053C0000F9108951F93CF93DF931F92CDB7DEB750
:1053D000162F2091E80022FFFCCF612F79830E94D5
:1053E00054288BEF8093E800812F7981972F0F90BD
:1053F000DF91CF911F910895CF93DF931F92CDB787
:10540000DEB71982CE0101960E94BE24CE0101961C
:105410000E94292DCE0101960E940D28CE010196F1
:105420000E941828898190E00F90DF91CF91089514
:105430001F920F920FB60F921124CF92DF92EF922C
:10544000FF921F932F933F934F935F936F937F939D
:105450008F939F93AF93BF93EF93FF93CF93DF937C
:10546000CDB7DEB76197DEBFCDBF1092E900809166
:10547000E80083FFF1C068E0CE010A960E9454283C
:1054800082EF8093E8009A8597FF05C08091E8003D
:1054900080FFFCCF03C08EEF8093E800892F8076D9
:1054A00009F0B8C08B85811105C01092F1001092EF
:1054B000F100CBC0282F2D7F213009F4C6C08530E4
:1054C00049F48091E80080FFFCCF8C858068809350
:1054D000E300BBC0863009F06FC01D85E888F988FD
:1054E000123069F580E090E00E9490290E94FC292A
:1054F00099E09E012F5F3F4F6901F901292F119219
:105500002A95E9F799831A8391E09E8390E898871A
:105510009AEF99872091C2073091C307275F3F4FC9
:105520003C832B838D83C7010E94902949E050E082
:10553000B60180E00E949B290E94FC2986C0C70119
:105540000E949029123241F482E290E00E94342DB0
:10555000892B09F07AC07DC0113069F48889998956
:10556000089711F41093BF078091BF07811111C0F4
:105570006BEB7AE116C0133009F06BC08C85882381
:1055800059F0823061F0813009F063C06DEC7AE14E
:1055900008C069EA7AE105C06FE07BE102C06DEE08
:1055A0007AE16115710509F454C0FB01449150E0A2
:1055B00080E80E949B2949C0873009F44AC088309E
:1055C00021F481E08093F10040C0893009F03DC0B2
:1055D000937009F03EC080E090E031E026E341E0C6
:1055E000480F4093E9003093EB000196FC01EE5523
:1055F000F54EE491E093EC002093ED0086309105A8
:1056000071F78EE78093EA001092EA008C85809310
:10561000C4071BC0888999890E9490298E858111B1
:1056200005C0CE010A960E94C9240DC0823029F41B
:10563000CE010A960E945C2D06C0843051F4CE0142
:105640000A960E942328882321F08EEF8093E80099
:1056500003C081E28093EB0061960FB6F894DEBF41
:105660000FBECDBFDF91CF91FF91EF91BF91AF9171
:105670009F918F917F916F915F914F913F912F916A
:105680001F91FF90EF90DF90CF900F900FBE0F9083
:105690001F9018958093E9008091F200882319F0FB
:1056A0008AE38093E80008951092C40781E0809314
:1056B000D70080EA8093D80082E189BD09B400FE5A
:1056C000FDCF61E070E080E090E00E948D2C80E9E9
:1056D0008093D8008CE08093E2001092E000559A0D
:1056E000209A08951F920F920FB60F9211242F93B4
:1056F0003F934F935F936F937F938F939F93AF935A
:10570000BF93EF93FF938091E1001092E10083FF3C
:105710000FC01092E90091E09093EB001092EC0022
:1057200092E39093ED001092C40798E09093F000FC
:1057300082FF32C083E00E944A2B82E00E946928E7
:10574000882321F08CE796E00E94702486E00E9476
:105750004A2B85E00E946928882321F088E797E09A
:105760000E9446278091C607882339F08091C6079A
:1057700081508093C607882369F08091C5078823EC
:1057800059F08091C50781508093C507811104C0ED
:10579000289A02C05D9AF1CFFF91EF91BF91AF912E
:1057A0009F918F917F916F915F914F913F912F9139
:1057B0000F900FBE0F901F9018954F925F926F92AF
:1057C0007F92AF92BF92CF92DF92EF92FF920F93B0
:1057D0001F93CF93DF93CDB7DEB729013A019B0129
:1057E000AC01241935094609570989899A89AB8979
:1057F000BC89BC01CD016A197B098C099D090E94F5
:105800000232A801970124193509460957090E9457
:105810005432CA01B9016A0D7B1D8C1D9D1DDF919B
:10582000CF911F910F91FF90EF90DF90CF90BF909D
:10583000AF907F906F905F904F9008951F920F925E
:105840000FB60F9211242F933F938F939F93AF9393
:10585000BF938091C8079091C907A091CA07B091E2
:10586000CB073091C70723E0230F2D3720F4019693
:10587000A11DB11D05C026E8230F0296A11DB11D73
:105880002093C7078093C8079093C907A093CA07BE
:10589000B093CB078091CC079091CD07A091CE0714
:1058A000B091CF070196A11DB11D8093CC079093B5
:1058B000CD07A093CE07B093CF07BF91AF919F9133
:1058C0008F913F912F910F900FBE0F901F901895C1
:1058D0003FB7F8948091CC079091CD07A091CE0767
:1058E000B091CF0726B5A89B05C02F3F19F00196B0
:1058F000A11DB11D3FBFBA2FA92F982F8827820F56
:10590000911DA11DB11DBC01CD0142E0660F771FA5
:10591000881F991F4A95D1F70895CF92DF92EF9291
:10592000FF92CF93DF936B017C010E94682CEB0107
:10593000C114D104E104F10489F00E94432E0E94B5
:10594000682C6C1B7D0B683E734090F381E0C81A95
:10595000D108E108F108C851DC4FEACFDF91CF91BF
:10596000FF90EF90DF90CF900895789484B5826097
:1059700084BD84B5816084BD85B5826085BD85B5F3
:10598000816085BDEEE6F0E0808181608083E1E8A2
:10599000F0E01082808182608083808181608083DA
:1059A000E0E8F0E0808181608083E1E9F0E08081DF
:1059B00082608083808181608083E0E9F0E0808183
:1059C00081608083E1ECF0E080818460808380816D
:1059D00082608083808181608083E3ECF0E080815D
:1059E00081608083E0ECF0E0808182608083E2EC83
:1059F000F0E0808181608083EAE7F0E0808184606C
:105A000080838081826080838081816080838081C7
:105A1000806880830895EF92FF921F93CF93DF9366
:105A2000EC01162FE881F9810480F581E02D0995BC
:105A30007C01E881F9810680F781E02D612FCE019C
:105A40000995C7019927DF91CF911F91FF90EF90A2
:105A50000895FC0190819F5F908349E150E063E9E4
:105A60007BE180E80C949B2945E650E06CEA7BE101
:105A700080E80C949B29EF92FF920F931F93CF9392
:105A8000DF931F92CDB7DEB789838B017A0141E0A6
:105A900050E0BE016F5F7F4F84E00E940329A701A1
:105AA000B80184E40E9403290F90DF91CF911F91E8
:105AB0000F91FF90EF900895FC0191818081813AD0
:105AC00031F481E0913091F0933089F411C081324A
:105AD00071F49B3021F482818093530205C09A3087
