:100000000C94100E0C94380E0C94380E0C94380E80
:100010000C94380E0C94380E0C94380E0C94380E48
:100020000C94380E0C94380E0C94A5290C944B2883
:100030000C94380E0C94380E0C94380E0C94380E28
:100040000C94380E0C94380E0C94380E0C94380E18
:100050000C94E91B0C9474200C94380E0C94102A08
:100060000C94380E0C944D230C9490230C94380E61
:100070000C94380E0C94EA1D0C94380E0C94380E27
:100080000C94380E0C94380E0C94380E0C94380ED8
:100090000C948A1F0C94380E0C94380E0C94380E65
:1000A0000C94380E0C94380E0C94380EEE155C1629
:1000B0003116171690169016EA159016EA15901636
:1000C000EA15EA15EA159016EA15EA15EF20F2206E
:1000D000E520E920132113211321F620FA20FE2028
:1000E0000421082113210E2107634236B79BD8A7AC
:1000F0001A39685618AEBAAB558C1D3CB7CC57634D
:10010000BD6DEDFD753EF6177231BF000000803FFA
:1001100008000000BE922449123EABAAAA2ABECD16
:10012000CCCC4C3E00000080BEABAAAAAA3E000088
:100130000000BF000000803F000000000008417880
:10014000D3BB4387D1133D190E3CC3BD4282AD2BB7
:100150003E68EC8276BED98FE1A93E4C80EFFFBEAF
:1001600001C4FF7F3F0000000000000102040507FA
:1001700008090B0C0E0F101213151617191A1B1D58
:100180001E20212224252628292A2C2D2E2F3132EB
:1001900033353637383A3B3C3D3E40414243444597
:1001A0004647494A4B4C4D4E4F5051525354555669
:1001B000575859595A5B5C5D5E5E5F60616262636D
:1001C000646465666667686869696A6A6B6B6C6CAB
:1001D0006D6D6E6E6F6F6F70707070717171717226
:1001E00072727272727273737373737373737372E6
:1001F00072727272727271717171707070706F6FF1
:100200006F6E6E6D6D6C6C6B6B6A6A69696868673E
:10021000666665646463626261605F5E5E5D5C5BCE
:100220005A59595857565554535251504F4E4D4C98
:100230004B4A4947464544434241403E3D3C3B3A98
:10024000383736353332312F2E2D2C2A29282625C2
:10025000242221201E1D1C1A191716151312100F07
:100260000E0C0B0908070504020100FEFDFBFAF85D
:10027000F7F6F4F3F1F0EFEDECEAE9E8E6E5E4E2B5
:10028000E1DFDEDDDBDAD9D7D6D5D3D2D1D0CECD02
:10029000CCCAC9C8C7C5C4C3C2C1BFBEBDBCBBBA36
:1002A000B9B8B6B5B4B3B2B1B0AFAEADACABAAA944
:1002B000A8A7A6A6A5A4A3A2A1A1A09F9E9D9D9C20
:1002C0009B9B9A99999897979696959594949393C2
:1002D000929291919090908F8F8F8F8E8E8E8E8D27
:1002E0008D8D8D8D8D8D8C8C8C8C8C8C8C8C8C8C48
:1002F0008D8D8D8D8D8D8E8E8E8E8F8F8F8F90901C
:1003000090919192929393949495959696979798AD
:1003100099999A9B9B9C9D9D9E9FA0A1A1A2A3A4FD
:10032000A5A6A6A7A8A9AAABACADAEAFB0B1B2B313
:10033000B4B5B6B8B9BABBBCBDBEC0C1C2C3C4C5F2
:10034000C7C8C9CACCCDCED0D1D2D3D5D6D7D9DAA9
:10035000DBDDDEDFE1E2E4E5E6E8E9EAECEDEFF043
:10036000F1F3F4F6F7F8FAFBFDFE174466777870C0
:10037000655E5E63696D6D6A65626265686B6B6917
:1003800066646466686A6A686665656668696968FD
:1003900066656566686969686665656668696968ED
:1003A00066666666686868686666666668686868DD
:1003B00067666666686868686766666767686867CC
:1003C00067666667676868676766666767686867BD
:1003D00067666667676868676766666767686867AD
:1003E000676666676768686767666667676868679D
:1003F000676666676768686767666667676868678D
:10040000676666676768686767666667676868677C
:10041000676666676768686767666667686868686A
:10042000676666676868686866666666686868685A
:10043000666666666869696866656566686969684A
:10044000666565666869696866656566686A6A683A
:1004500066646466696B6B68656262656A6D6D6926
:10046000635E5E65707877664417EAC5ADA2A1A7A2
:10047000ADB2B2AFABA8A8AAADAFAFADABA9A9ABB7
:10048000ADAEAEADABAAAAABACADADADABAAAAABAF
:10049000ACADADACABABABABACADADACABABABABA0
:1004A000ACADADACACABABABACADADACACABABAC8D
:1004B000ACADADACACABABACACADADACACABABAC7C
:1004C000ACADADACACABABACACADADACACABABAC6C
:1004D000ACADADACACABABACACADACACACABABAC5D
:1004E000ACACACACACABABACACACACACACABABAC50
:1004F000ACACACACACABABACACACACACACABABAC40
:10050000ACADADACACABABACACADADACACABABAC2B
:10051000ACADADACACABABACACADADACACABABAC1B
:10052000ACADADACACABABACACADADACABABABAC0C
:10053000ACADADACABABABABACADADACABABABABFF
:10054000ACADADACABAAAAABADADADACABAAAAABF2
:10055000ADAEAEADABA9A9ABADAFAFADAAA8A8ABE0
:10056000AFB2B2ADA7A1A2ADC5EA00000000010183
:10057000010102020202030303030404040404054C
:1005800005050506060607070707080808080909FC
:1005900009090A0A0A0A0B0B0B0B0B0C0C0C0D0DAC
:1005A0000D0D0E0E0E0E0F0F0F0F1010101011115B
:1005B000111111121212121313131314141414150F
:1005C00015151516161616171717181818181919BD
:1005D00019191A1A1A1A1B1B1B1B1C1C1C1C1D1D6B
:1005E0001D1D1E1E1E1E1F1F1F1F2020202020211C
:1005F00021202222222223232323242424242525CC
:10060000252526262626272727272828282828297B
:100610002929292A2A2A2A2B2B2B2C2C2C2C2D2D2C
:100620002D2D2E2E2E2E2F2F2F2F303030303131DA
:10063000313131323232333333333434343434358C
:10064000353536363636363737373838383838393C
:1006500039393A3A3A3A3B3B3B3B3C3C3C3C3C3DEB
:100660003D3D3E3E3E3E3E3F3F3F3F40404041419C
:10067000414141424242424343434444444445454C
:1006800045454646464647474747484848484949FA
:100690004949494A4A4A4A4B4B4B4C4C4C4C4D4DAC
:1006A0004D4D4D4E4E4E4E4F4F4F5050505051515C
:1006B000515151525252535353535454545455550B
:1006C00055555556565656575757585858585859BD
:1006D00059595A5A5A5A5B5B5B5B5C5C5C5C5C5D6B
:1006E0005D5D5E5E5E5E5F5F5F5F5F60606061611B
:1006F00061616262626263636363636464646565CB
:10070000656565666666666767676768686869697C
:100710006969696A6A6A6A6B6B6B6C6C6C6C6D6D2B
:100720006D6D6E6E6E6E6F6F6F6F707070707071DA
:10073000717171727272727373737374747474758D
:10074000757575767676777777777878787878793B
:1007500079797A7A7A7A7B7B7B7B7C7C7C7C7D7DE9
:100760007D7D7D7E7E7E7F7F7F7F7F7F7F7E7E7EA5
:100770007E7E7D7D7D7D7C7C7C7C7B7B7B7B7A7AB9
:100780007A7A7979797978787878777777777676E9
:100790007676757575757474747473737373727219
:1007A0007271717171707070706F6F6F6F6E6E6E4D
:1007B0006E6D6D6D6D6D6C6C6C6C6B6B6B6B6A6A7A
:1007C0006A696969696868686868676767666666AC
:1007D00066666565656564646463636363626262DB
:1007E000626161616160606060605F5F5F5E5E5E0C
:1007F0005E5D5D5D5D5C5C5C5C5B5B5B5B5B5A5A3C
:100800005A5A595959595858585857575757565668
:100810005656555555545454545453535353525299
:100820005251515151505050504F4F4F4F4E4E4ECC
:100830004E4E4D4D4D4D4C4C4C4C4B4B4B4A4A4AF9
:100840004A4A494949494848484847474747464628
:100850004645454545454444444443434343424259
:100860004241414141414040403F3F3F3F3F3E3E8A
:100870003E3E3D3D3D3C3C3C3C3C3B3B3B3B3A3AB9
:100880003A3A3939393838383838373737373636E9
:10089000363635353535343434333333333232321A
:1008A0003232313131313030302F2F2F2F2E2E2E4A
:1008B0002E2E2D2D2D2D2C2C2C2B2B2B2B2A2A2A7A
:1008C0002A292929292928282828272727262626AA
:1008D00026262525252424242424232323222222DA
:1008E000222121202121202020201F1F1F1F1E1E0A
:1008F0001E1E1D1D1D1D1C1C1C1B1B1B1B1B1A1A39
:100900001A19191919191818181817171717161668
:100910001616151515151414141313131313121298
:10092000121211111110101010100F0F0F0F0E0EC8
:100930000E0E0D0D0D0D0C0C0C0C0B0B0B0B0A0AF7
:100940000A0A090909090808080807070706060628
:100950000605050505050404040403030303020258
:1009600002010101010100000000FFFFFFFEFEFE89
:10097000FEFDFDFDFDFCFCFCFCFBFBFBFBFAFAFABB
:10098000FAFAF9F9F9F8F8F8F8F8F7F7F7F7F6F6E8
:10099000F6F5F5F5F5F4F4F4F4F4F3F3F3F3F2F219
:1009A000F2F1F1F1F1F1F0F0F0F0EFEFEFEEEEEE49
:1009B000EEEDEDEDEDEDECECECEBEBEBEBEBEAEA79
:1009C000EAEAE9E9E9E9E8E8E8E7E7E7E7E7E6E6A8
:1009D000E6E6E5E5E5E4E4E4E4E3E3E3E3E3E2E2D9
:1009E000E2E1E1E1E1E0E0E0E0E0DFDFDFDFDEDE09
:1009F000DEDDDDDDDDDCDCDCDCDCDBDBDBDADADA3A
:100A0000DAD9D9D9D9D8D8D8D8D8D7D7D7D7D6D668
:100A1000D6D5D5D5D5D4D4D4D4D3D3D3D3D2D2D29A
:100A2000D2D1D1D1D1D0D0D0D0D0CFCFCFCFCECEC8
:100A3000CECECDCDCDCDCCCCCCCBCBCBCBCACACAF8
:100A4000CAC9C9C9C9C8C8C8C8C7C7C7C7C6C6C62A
:100A5000C6C5C5C5C5C4C4C4C4C4C3C3C3C3C2C258
:100A6000C2C1C1C1C1C1C0C0C0C0BFBFBFBFBEBE87
:100A7000BEBDBDBDBDBDBCBCBCBCBBBBBBBBBABAB7
:100A8000BABAB9B9B9B9B8B8B8B8B7B7B7B7B6B6E6
:100A9000B6B6B5B5B5B5B4B4B4B4B3B3B3B3B2B216
:100AA000B2B2B1B1B1B1B0B0B0B0AFAFAFAEAEAE47
:100AB000AEAEADADADADACACACABABABABAAAAAA78
:100AC000AAA9A9A9A9A8A8A8A8A7A7A7A7A7A6A6A9
:100AD000A6A5A5A5A5A5A4A4A4A3A3A3A3A2A2A2D9
:100AE000A2A1A1A1A1A1A0A0A0A09F9F9F9F9E9E07
:100AF0009E9E9D9D9D9D9C9C9C9C9B9B9B9B9A9A36
:100B00009A9A999999989898989797979797969667
:100B10009696959595949494949393939393929297
:100B20009292919191919090908F8F8F8F8F8E8EC6
:100B30008E8E8D8D8D8C8C8C8C8B8B8B8B8A8A8AF8
:100B40008A89898989898888888887878786868627
:100B50008686858585858484848483838382828256
:100B6000828181818181808080808080808081817C
:100B70008181818282828383838383848484858547
:100B800085858686868687878787878888888889F7
:100B900089898A8A8A8A8A8B8B8B8C8C8C8C8D8DA6
:100BA0008D8D8D8E8E8E8E8F8F8F90909090919157
:100BB0009191929292929393939394949494959505
:100BC00095959696969697979797979898989999B6
:100BD00099999A9A9A9A9A9B9B9B9C9C9C9C9D9D66
:100BE0009D9D9E9E9E9E9F9F9F9F9FA0A0A0A1A116
:100BF000A1A1A1A2A2A2A2A3A3A3A4A4A4A4A4A5C8
:100C0000A5A5A5A6A6A6A7A7A7A7A7A8A8A8A9A976
:100C1000A9A9AAAAAAAAAAABABABACACACACACAD26
:100C2000ADADAEAEAEAEAEAFAFAFAFB0B0B0B1B1D6
:100C3000B1B1B2B2B2B2B2B3B3B3B3B4B4B4B5B586
:100C4000B5B5B6B6B6B6B6B7B7B7B7B8B8B8B9B936
:100C5000B9B9BABABABABBBBBBBBBCBCBCBCBDBDE4
:100C6000BDBDBEBEBEBEBEBFBFBFC0C0C0C0C0C196
:100C7000C1C1C2C2C2C2C2C3C3C3C3C4C4C4C5C546
:100C8000C5C5C6C6C6C6C6C7C7C7C7C8C8C8C8C9F7
:100C9000C9C9C9CACACACBCBCBCBCBCCCCCCCCCDA7
:100CA000CDCDCDCECECECFCFCFCFCFD0D0D0D1D156
:100CB000D1D1D2D2D2D2D2D3D3D3D3D4D4D4D4D507
:100CC000D5D5D5D6D6D6D7D7D7D7D8D8D8D8D8D9B6
:100CD000D9D9D9DADADADBDBDBDBDBDCDCDCDCDD67
:100CE000DDDDDEDEDEDEDEDFDFDFE0E0E0E0E1E115
:100CF000E1E1E1E2E2E2E3E3E3E3E4E4E4E4E4E5C6
:100D0000E5E5E5E6E6E6E6E7E7E7E8E8E8E8E9E975
:100D1000E9E9E9EAEAEAEBEBEBEBECECECECEDED24
:100D2000EDEDEDEEEEEEEFEFEFEFF0F0F0F0F1F1D4
:100D3000F1F1F2F2F2F2F3F3F3F3F3F4F4F4F5F584
:100D4000F5F5F5F6F6F6F7F7F7F7F8F8F8F8F9F934
:100D5000F9F9FAFAFAFAFBFBFBFBFBFCFCFCFDFDE4
:100D6000FDFDFEFEFEFEFFFFFFFF80808080808095
:100D7000808081818181818181818282828282825F
:100D80008282828383838383838384848484848430
:100D90008484848585858585858586868686868600
:100DA00086868787878787878787888888888888CF
:100DB000888889898989898989898A8A8A8A8A8A9F
:100DC0008A8A8A8B8B8B8B8B8B8B8B8C8C8C8C8C71
:100DD0008C8C8D8D8D8D8D8D8D8D8D8E8E8E8E8E40
:100DE0008E8E8F8F8F8F8F8F8F8F9090909090900F
:100DF00090909191919191919191929292929292DF
:100E000092929393939393939393949494949494AE
:100E1000949494959595959595959696969696967F
:100E20009696969797979797979797989898989850
:100E300098989899999999999999999A9A9A9A9A20
:100E40009A9A9B9B9B9B9B9B9B9B9B9C9C9C9C9CEF
:100E50009C9C9C9D9D9D9D9D9D9D9E9E9E9E9E9EBF
:100E60009E9E9F9F9F9F9F9F9F9F9FA0A0A0A0A08F
:100E7000A0A0A1A1A1A1A1A1A1A1A2A2A2A2A2A25E
:100E8000A2A2A3A3A3A3A3A3A3A3A4A4A4A4A4A42E
:100E9000A4A4A4A5A5A5A5A5A5A5A6A6A6A6A6A6FF
:100EA000A6A6A7A7A7A7A7A7A7A7A8A8A8A8A8A8CE
:100EB000A8A8A8A9A9A9A9A9A9A9A9AAAAAAAAAAA0
:100EC000AAAAABABABABABABABABACACACACACAC6E
:100ED000ACACADADADADADADADADAEAEAEAEAEAE3E
:100EE000AEAEAFAFAFAFAFAFAFAFAFB0B0B0B0B00F
:100EF000B0B0B0B1B1B1B1B1B1B1B2B2B2B2B2B2DF
:100F0000B2B2B3B3B3B3B3B3B3B3B4B4B4B4B4B4AD
:100F1000B4B4B5B5B5B5B5B5B5B5B6B6B6B6B6B67D
:100F2000B6B6B7B7B7B7B7B7B7B7B8B8B8B8B8B84D
:100F3000B8B8B8B9B9B9B9B9B9B9BABABABABABA1E
:100F4000BABABBBBBBBBBBBBBBBBBCBCBCBCBCBCED
:100F5000BCBCBDBDBDBDBDBDBDBDBDBEBEBEBEBEBE
:100F6000BEBEBFBFBFBFBFBFBFBFC0C0C0C0C0C08D
:100F7000C0C0C1C1C1C1C1C1C1C1C1C2C2C2C2C25E
:100F8000C2C2C2C3C3C3C3C3C3C3C4C4C4C4C4C42E
:100F9000C4C4C4C5C5C5C5C5C5C5C5C6C6C6C6C6FF
:100FA000C6C6C7C7C7C7C7C7C7C7C8C8C8C8C8C8CD
:100FB000C8C8C9C9C9C9C9C9C9C9CACACACACACA9D
:100FC000CACACBCBCBCBCBCBCBCBCBCCCCCCCCCC6E
:100FD000CCCCCCCDCDCDCDCDCDCDCDCECECECECE3F
:100FE000CECECFCFCFCFCFCFCFCFD0D0D0D0D0D00D
:100FF000D0D0D1D1D1D1D1D1D1D1D2D2D2D2D2D2DD
:10100000D2D2D2D3D3D3D3D3D3D3D4D4D4D4D4D4AD
:10101000D4D4D4D5D5D5D5D5D5D5D6D6D6D6D6D67D
:10102000D6D6D6D7D7D7D7D7D7D7D8D8D8D8D8D84D
:10103000D8D8D9D9D9D9D9D9D9D9D9DADADADADA1D
:10104000DADADADBDBDBDBDBDBDBDCDCDCDCDCDCED
:10105000DCDCDCDDDDDDDDDDDDDDDDDEDEDEDEDEBE
:10106000DEDEDFDFDFDFDFDFDFDFDFE0E0E0E0E08D
:10107000E0E0E1E1E1E1E1E1E1E1E2E2E2E2E2E25C
:10108000E2E2E2E3E3E3E3E3E3E3E4E4E4E4E4E42D
:10109000E4E4E5E5E5E5E5E5E5E5E6E6E6E6E6E6FC
:1010A000E6E6E7E7E7E7E7E7E7E7E7E8E8E8E8E8CD
:1010B000E8E8E9E9E9E9E9E9E9E9EAEAEAEAEAEA9C
:1010C000EAEAEBEBEBEBEBEBEBEBECECECECECEC6C
:1010D000ECECECEDEDEDEDEDEDEDEDEEEEEEEEEE3E
:1010E000EEEEEEEFEFEFEFEFEFEFF0F0F0F0F0F00D
:1010F000F0F0F0F1F1F1F1F1F1F1F1F2F2F2F2F2DE
:10110000F2F2F3F3F3F3F3F3F3F3F4F4F4F4F4F4AB
:10111000F4F4F4F5F5F5F5F5F5F5F6F6F6F6F6F67C
:10112000F6F6F7F7F7F7F7F7F7F7F8F8F8F8F8F84B
:10113000F8F8F8F9F9F9F9F9F9F9F9FAFAFAFAFA1D
:10114000FAFAFBFBFBFBFBFBFBFBFCFCFCFCFCFCEB
:10115000FCFCFDFDFDFDFDFDFDFDFDFEFEFEFEFEBC
:10116000FEFEFFFFFFFFFFFFFFFF0000000000008B
:10117000000000010101010101010102020202025D
:10118000020203030303030303030404040404042B
:1011900004040505050505050505060606060606FB
:1011A00006060707070707070707070808080808CC
:1011B000080809090909090909090A0A0A0A0A0A9B
:1011C0000A0A0B0B0B0B0B0B0B0B0B0C0C0C0C0C6C
:1011D0000C0C0D0D0D0D0D0D0D0D0D0E0E0E0E0E3C
:1011E0000E0E0F0F0F0F0F0F0F0F0F10101010100C
:1011F00010101011111111111111121212121212DC
:1012000012121313131313131313141414141414AA
:10121000141415151515151515151516161616167B
:10122000161617171717171717171818181818184A
:1012300018181919191919191919191A1A1A1A1A1B
:101240001A1A1A1B1B1B1B1B1B1B1C1C1C1C1C1CEB
:101250001C1C1D1D1D1D1D1D1D1D1E1E1E1E1E1EBA
:101260001E1E1F1F1F1F1F1F1F1F1F20202020208B
:10127000202021212021212221212022222222225C
:10128000222223232323232323232424242424242A
:1012900024242425252525252525262626262626FB
:1012A00026262727272727272727282828282828CA
:1012B000282829292929292929292A2A2A2A2A2A9A
:1012C0002A2A2A2B2B2B2B2B2B2B2B2C2C2C2C2C6C
:1012D0002C2C2D2D2D2D2D2D2D2D2E2E2E2E2E2E3A
:1012E0002E2E2E2F2F2F2F2F2F2F2F30303030300C
:1012F00030303131313131313131323232323232DA
:1013000032323333333333333333333434343434AA
:101310003434353535353535353536363636363679
:10132000363636373737373737373738383838384B
:1013300038383939393939393939393A3A3A3A3A1A
:101340003A3A3A3B3B3B3B3B3B3B3C3C3C3C3C3CEA
:101350003C3C3D3D3D3D3D3D3D3D3E3E3E3E3E3EB9
:101360003E3E3F3F3F3F3F3F3F3F40404040404089
:101370004040414141414141414142424242424259
:101380004242434343434343434344444444444429
:1013900044444545454545454545464646464646F9
:1013A00046464647474747474747484848484848CA
:1013B000484849494949494949494A4A4A4A4A4A99
:1013C0004A4A4A4B4B4B4B4B4B4B4C4C4C4C4C4C6A
:1013D0004C4C4C4D4D4D4D4D4D4D4D4E4E4E4E4E3B
:1013E0004E4E4F4F4F4F4F4F4F4F50505050505009
:1013F00050505051515151515151525252525252DA
:1014000052525253535353535353545454545454A9
:101410005454545555555555555556565656565679
:101420005656565757575757575758585858585849
:1014300058585859595959595959595A5A5A5A5A1A
:101440005A5A5B5B5B5B5B5B5B5B5C5C5C5C5C5CE8
:101450005C5C5D5D5D5D5D5D5D5D5E5E5E5E5E5EB8
:101460005E5E5F5F5F5F5F5F5F5F60606060606088
:101470006060616161616161616161626262626259
:101480006262636363636363636363646464646429
:1014900064646565656565656565656666666666F9
:1014A00066666767676767676767686868686868C8
:1014B000686869696969696969696A6A6A6A6A6A98
:1014C0006A6A6B6B6B6B6B6B6B6B6C6C6C6C6C6C68
:1014D0006C6C6D6D6D6D6D6D6D6D6E6E6E6E6E6E38
:1014E0006E6E6F6F6F6F6F6F6F6F70707070707008
:1014F00070707171717171717171717272727272D9
:1015000072727373737373737373747474747474A7
:101510007474747575757575757575767676767679
:101520007676777777777777777777787878787848
:1015300078787879797979797979797A7A7A7A7A19
:101540007A7A7B7B7B7B7B7B7B7B7C7C7C7C7C7CE7
:101550007C7C7D7D7D7D7D7D7D7D7D7E7E7E7E7EB8
:101560007E7E7F7F7F7F7F7F7F7F80808080808087
:10157000808080808080808080808080808080816A
:101580008181818181818182828282828282838340
:101590008383838484848484858585858586868603
:1015A00086878787888888888989898A8A8A8A8BB2
:1015B0008B8B8C8C8C8D8D8E8E8E8F8F8F9090914F
:1015C00091919292939393949495959696969797DA
:1015D000989899999A9A9B9B9C9C9D9D9E9E9F9F53
:1015E000A0A0A1A1A2A2A3A3A4A4A5A6A6A7A7A8C0
:1015F000A8A9AAAAABABACACADAEAEAFB0B0B1B11E
:10160000B2B3B3B4B5B5B6B6B7B8B8B9BABABBBC6D
:10161000BCBDBEBEBFC0C0C1C2C2C3C4C5C5C6C7B3
:10162000C7C8C9C9CACBCCCCCDCECFCFD0D1D1D2EF
:10163000D3D4D4D5D6D7D7D8D9DADADBDCDDDDDE22
:10164000DFE0E0E1E2E3E3E4E5E6E7E7E8E9EAEA50
:10165000EBECEDEDEEEFF0F1F1F2F3F4F5F5F6F77A
:10166000F8F8F9FAFBFCFCFDFEFFFF0001020303A2
:10167000040506070708090A0A0B0C0D0E0E0F10C9
:101680001112121314151516171818191A1B1C1CF1
:101690001D1E1F1F2021222223242525262728281E
:1016A000292A2B2B2C2D2E2E2F3030313233333450
:1016B000353636373838393A3A3B3C3D3D3E3F3F88
:1016C0004041414243434445454647474849494ACA
:1016D0004A4B4C4C4D4E4E4F4F5051515253535418
:1016E000545555565757585859595A5B5B5C5C5D71
:1016F0005D5E5E5F5F6060616162626363646465DA
:10170000656666676768686969696A6A6B6B6C6C4D
:101710006C6D6D6E6E6E6F6F7070707171717272D4
:101720007373737474747575757576767677777769
:1017300077787878797979797A7A7A7A7A7B7B7B13
:101740007B7B7C7C7C7C7C7D7D7D7D7D7D7D7E7ED0
:101750007E7E7E7E7E7E7F7F7F7F7F7F7F7F7F7F9F
:101760007F7F7F7F7F7F7F7F7F7F7F7F7F7F7F7F89
:101770007F7F7F7F7F7F7F7F7F7F7F7F7F7F7F7E7A
:101780007E7E7E7E7E7E7E7D7D7D7D7D7D7D7C7C84
:101790007C7C7C7B7B7B7B7B7A7A7A7A7A797979A1
:1017A00079787878777777777676767575757574D2
:1017B000747473737372727171717070706F6F6E15
:1017C0006E6E6D6D6C6C6C6B6B6A6A69696968686A
:1017D00067676666656564646363626261616060D1
:1017E0005F5F5E5E5D5D5C5C5B5B5A595958585744
:1017F0005756555554545353525151504F4F4E4EC6
:101800004D4C4C4B4A4A4949484747464545444355
:1018100043424141403F3F3E3D3D3C3B3A3A3938EF
:101820003837363635343333323130302F2E2E2D93
:101830002C2B2B2A29282827262525242322222140
:10184000201F1F1E1D1C1C1B1A19181817161515F2
:101850001413121211100F0E0E0D0C0B0A0A0908A8
:1018600007070605040303020100FFFFFEFDFCFC61
:10187000FBFAF9F8F8F7F6F5F5F4F3F2F1F1F0EF19
:10188000EEEDEDECEBEAEAE9E8E7E7E6E5E4E3E3D1
:10189000E2E1E0E0DFDEDDDDDCDBDADAD9D8D7D784
:1018A000D6D5D4D4D3D2D1D1D0CFCFCECDCCCCCB32
:1018B000CAC9C9C8C7C7C6C5C5C4C3C2C2C1C0C0DA
:1018C000BFBEBEBDBCBCBBBABAB9B8B8B7B6B6B578
:1018D000B5B4B3B3B2B1B1B0B0AFAEAEADACACAB0A
:1018E000ABAAAAA9A8A8A7A7A6A6A5A4A4A3A3A291
:1018F000A2A1A1A0A09F9F9E9E9D9D9C9C9B9B9A08
:101900009A99999898979796969695959494939373
:1019100093929291919190908F8F8F8E8E8E8D8DCC
:101920008C8C8C8B8B8B8A8A8A8A89898988888817
:10193000888787878686868685858585858484844D
:101940008484838383838382828282828282818170
:101950008181818181818080808080808080808081
:101960008080808080808080808001000002000074
:101970000300040005070605040100080A0B0C0D0E
:10198000090000000200080E0000030401000B0023
:101990000000000000000000000000000000000047
:1019A000040802011040804010204080408008025E
:1019B00004018040201002011080102040402004CB
:1019C00004040404030405020202020403020202E6
:1019D00002060606060606040402020204040000CB
:1019E00000002300260029002C002F00000000002A
:1019F000250028002B002E003100000000002400EC
:101A000027002A002D003000080B0002020201000E
:101A10000904000001020200000524001001052451
:101A200001010104240206052406000107058103C3
:101A300010004009040100020A000000070502022C
:101A40004000000705830240000009040400020171
:101A50000300000724010001220006240201010006
:101A60000924030102010301000624020203000904
:101A700024030204010101000705050240000005DE
:101A8000250101010705860240000005250101022C
:101A900009040300000101000009240100010900FC
:101AA000010400C18081C180811201000202000096
:101AB00040412336800001010200011201000200B2
:101AC0000000404123368000010102000120034153
:101AD0000072006400750069006E006F0020004C09
:101AE000004C004300200020002000200022034181
:101AF0000072006400750069006E006F0020004CE9
:101B00000065006F006E006100720064006F0004E9
:101B100003090400000000000000002A2B28000038
:101B200000000000000000000000000000000000B5
:101B30000000002C9EB4A0A1A2A434A6A7A5AE3696
:101B40002D3738271E1F20212223242526B333B604
:101B50002EB7B89F8485868788898A8B8C8D8E8FD7
:101B6000909192939495969798999A9B9C9D2F31DA
:101B700030A3AD350405060708090A0B0C0D0E0F3E
:101B8000101112131415161718191A1B1C1DAFB1BA
:101B9000B0B50009040200010300000009210101A1
:101BA00000012265000705840340000105010902C8
:101BB000A1010901A10085010509190129031500E9
:101BC00025019503750181029501750581030501C4
:101BD0000930093109381581257F7508950381067B
:101BE000C0C005010906A1018502050719E029E722
:101BF000150025017501950881029501750881037D
:101C000095067508150025650507190029658100E9
:101C1000C0009E16141D1C1EA2225324A5252A2C8A
:101C200011241FBECFEFDAE0DEBFCDBF11E0A0E090
:101C3000B1E0E4E3F1E602C005900D92A43BB107E8
:101C4000D9F726E0A4EBB1E001C01D92A63FB20790
:101C5000E1F71EE0C0E1DEE004C02197FE010E9432
:101C60005530C930D107C9F70E948E240C949830A2
:101C70000C940000DC01ED91FC910190F081E02DCD
:101C80000994DC01ED91FC910190F081E02D099423
:101C9000CF92DF92EF92FF92CF93DF93CDE2D1E02C
:101CA0008881229662E00E94142181E0C733D80720
:101CB000B9F762E080E10E941421C7E3D1E0888196
:101CC000229661E00E94142181E0C134D807B9F75F
:101CD0000E94DB1E8AE191E1909319028093180221
:101CE00081E591E1909317028093160242E15AE751
:101CF00060E070E08091CB029091CC020E94CB23F7
:101D000010923D0210923C0210923B02109244024B
:101D10001092430210924202109241021092CA02A3
:101D20001092470210924602109245021092480209
:101D30001092490280913A028170826081608093A2
:101D40003A028FEF8093CC0180EF8093D40180938F
:101D5000DC0181E08093E4011092EC018CE090E0E2
:101D60009093C7018093C6014091BF015091C0017B
:101D70009A01ACE0B0E00E945B306093C8017093C0
:101D8000C9018093CA019093CB01E9E1F0E0F0939F
:101D9000CF01E093CE01A9E1B0E00E945B306B017E
:101DA0007C016093D0017093D1018093D201909314
:101DB000D3018DEB9FE19093D7018093D601ADEBDA
:101DC000BFE10E945B306093D8017093D90180938A
:101DD000DA019093DB01F093DF01E093DE01C09222
:101DE000E001D092E101E092E201F092E3018FEF95
:101DF0009FE19093E7018093E601AFEFBFE10E947E
:101E00005B306093E8017093E9018093EA0190935D
:101E1000EB018FB7F89440E050E86BE170E040933D
:101E200010025093110260931202709313028FBF3D
:101E300080E890E00E94381C60E08EE10E9414214E
:101E400060E081E10E941421E091F002F0E0EE0FE9
:101E5000FF1FE95CFE4F61E080810E94502188EC09
:101E60008093B70184E68093B80181E491E0909378
:101E7000BA018093B9018FB7F89440E050E064E074
:101E800070E04093FC015093FD016093FE0170935C
:101E9000FF018FBFDF91CF91FF90EF90DF90CF9048
:101EA0000895CF93DF93E9E0F3E0C2E1D1E0AAE146
:101EB000B1E081E021913191299339938D9393E0A1
:101EC000E131F907B9F7DF91CF9108958F929F9291
:101ED000AF92BF92CF92DF92EF92FF92CF93DF93B8
:101EE0002091E7023091E8024091E9025091EA0224
:101EF000C0900602D0900702E0900802F09009021C
:101F00008091020290910302A0910402B091050217
:101F10008C0D9D1DAE1DBF1D809302029093030288
:101F2000A0930402B0930502CD019370E0910A02E0
:101F3000F0910B02E80FF91FA4910A2E000CBB0BC5
:101F40000E947C304B015C018091F701882349F1AC
:101F50002FB7F8948091F3019091F401A091F501CD
:101F6000B091F6014091EF015091F0016091F101C3
:101F70007091F201840F951FA61FB71F8093EF0188
:101F80009093F001A093F101B093F2012FBF8091E3
:101F9000EF019091F001A091F101B091F2014A2F6F
:101FA00001C040E08091100290911102A0911202B4
:101FB000B0911302C0900C02D0900D02E0900E027E
:101FC000F0900F028C0D9D1DAE1DBF1D80930C0265
:101FD00090930D02A0930E02B0930F02750164015D
:101FE0002AE0CC0CDD1CEE1CFF1C2A95D1F78C0DD1
:101FF0009D1DAE1DBF1DCD019370E0911402F091A7
:102000001502E80FF91F5491F091B8018091BB01BE
:102010009091BC01C091BD01D091BE01DC01AC1B0F
:10202000BD0B2091B9013091BA014C01092E000C71
:10203000AA08BB08540360011124CD2CDD0CDD0877
:10204000C594C81AD90A0D2C000CEE08FF080E948E
:102050006A30BB2797FDBA95A92F982F872FA70124
:102060009601280F391F4A1F5B1FAF2FB0E00E9457
:102070007130BB2797FDBA95A92F982F872F880D10
:10208000991DAA1DBB1D9093BC018093BB01BC018F
:102090006C1B7D0BF69FC001F79F900D1124892FBB
:1020A000990F990B8C0F9D1F9093BE018093BD01DA
:1020B000082E000C990BDF91CF91FF90EF90DF90ED
:1020C000CF90BF90AF909F908F9008950C94C21BBB
:1020D00090914001992321F090914301913021F09A
:1020E000682F8AE00C9450210895813081F028F007
:1020F0008230B9F08330F9F00895809100038111A6
:1021000003C08AE695E11DC08AE695E121C0809171
:102110000003811103C08AE695E013C08AE695E0CA
:1021200017C080910003811103C08AE69DE009C0B9
:102130008AE69DE00DC080910003811107C08AE608
:1021400093E0909315028093140208958AE693E039
:1021500090930B0280930A0208950F931F93CF93DD
:102160008C01CB01BA01CFB7F89420E030E040E811
:1021700054E40E94022E20E030E040E858E30E9440
:10218000022E20E030E040E857E40E94022E0E9438
:10219000212DF8016483758386839783CFBFCF9108
:1021A0001F910F910895CF92DF92EF92FF920F93BC
:1021B0001F93CF93DF93EC018B011B821A82FB01EB
:1021C000818192819D838C83C8A8D9A8EAA8FBA8A5
:1021D0006781862F90E0A0E0B0E0DC019927882796
:1021E000BC01CD016C197D098E099F0923813481C1
:1021F000458156810E9436302CAB3DAB4EAB5FAB78
:102200001FA70EA7DF91CF911F910F91FF90EF9025
:10221000DF90CF900895FC01228133812F5F3F4FE3
:1022200033832283448155812417350710F00C94A1
:10223000D3100895CF93C62F8091F3029091F402AA
:1022400001969093F4028093F30270E080E090E0B6
:102250000E94502D0E94231EAB01BC014093EC0252
:102260005093ED026093EE027093EF0240932101D0
:102270005093220160932301709324018CE092E03B
:102280000E94AD1065EC71E08FEB91E00E94D310DD
:1022900081E08093F7010E946810C093E502CF911E
:1022A00008958091F3029091F40201979093F402C3
:1022B0008093F3028091E502681309C06DED71E02F
:1022C0008FEB91E00E94D31080E00C946810089589
:1022D0000F931F93CF93DF9390E0EC01C050DF4F3B
:1022E00028812223A9F1019760E170E00E9400306B
:1022F0008C0100501F4F40E0F801608181E00E9496
:1023000051116DE571E085E995E00E94E9254AE00B
:1023100050E0F801608185E995E00E9470264FE762
:10232000688181E00E941A1188818093CD0269E65C
:1023300071E085E995E00E94E9254AE050E0688176
:1023400085E995E0DF91CF911F910F910C9469265B
:10235000DF91CF911F910F9108958091B4018F5F0C
:1023600060913F010E94F42F892F9093B4010C9447
:1023700068118091B5019091B60101969093B601D4
:102380008093B5012091410130914201281739070E
:1023900030F40E94AD111092B6011092B50108956B
:1023A00080914301811102C00C94B9110895CF931B
:1023B00090911B03891304C0909119039923E1F0B4
:1023C00090911C036CE0969FC02D112480931B03F9
:1023D00040E060911A0381E00E94511180911B033B
:1023E0006C2F680F4FE781E00E941A1180911B0348
:1023F00080931A0310921903CF910895DC01D096AF
:102400008D919C91D197813F910509F4BCC03CF519
:10241000803B910509F45FC07CF480399105E9F1B6
:10242000803A910509F474C08038910509F0D8C04C
:10243000ED91FC91119770C0803D910509F478C031
:102440002CF4803C910509F478C00895803E9105F4
:1024500009F446C0803F910509F47CC008958A3F85
:10246000910529F174F4833F910509F4A4C00CF49B
:102470008FC0863F910509F4A7C0883F910591F070
:1024800008958C3F9105E9F0BCF08E3F9105F1F085
:102490008F3F910509F49DC008951296ED91FC912E
:1024A00013973AC05896ED91FC91599796C05A9659
:1024B000ED91FC915B9791C05C96ED91FC915D97DD
:1024C0008CC05E96ED91FC915F9787C09096ED91E0
:1024D000FC91919782C01696ED91FC9117971CC0C4
:1024E0001C96ED91FC911D97309709F479C0D39615
:1024F0006C91D3976F7720E8629FB0011124D29638
:102500008C91D2978F77682B70529F968C910994FB
:102510001496ED91FC911597309709F461C0D3960C
:102520004C91D397D2966C91D2979F968C910994A7
:102530001A96ED91FC911B9704C01896ED91FC91B1
:102540001997309709F44CC0D2966C91D2979F9608
:102550008C9109941E96ED91FC911F97309709F488
:102560003FC0D3966C91D39770E0762F6627D296B2
:102570008C91D297682B6138710510F060E870E09B
:10258000CD01C49609945096ED91FC91519717C0D6
:102590005296ED91FC915397309711F1D3968C910F
:1025A000D3978F7720E8829FC0011124D2962C9177
:1025B0002F77822B09945496ED91FC915597309783
:1025C00079F0D2968C9109945696ED91FC9157979B
:1025D00004C09296ED91FC919397309709F009947D
:1025E00008959C018F7C8038910561F0203D310574
:1025F00049F081E0203E310539F0203C310521F0E1
:1026000080E0089581E00895089587FF0DC09CE063
:10261000980F923048F0982F9B7F993F29F0803F88
:1026200008F4807F90E0089580E090E008950F9393
:102630001F93CF93DF938C01EB016D3F710554F431
:102640006A3F710564F4663F710549F0683F7105A2
:1026500099F405C0CB018E5F9109029768F4F801E7
:10266000EB54FF4F80819181DC01ED91FC91019051
:10267000F081E02D6C2F0995C63FD10511F4F801CA
:1026800016A2DF91CF911F910F910895DF92EF92E3
:10269000FF920F931F93CF93DF93EB01122F015003
:1026A000003118F46038710524F4DC0196961C9210
:1026B0004AC0613E7105C4F54F77D42E602BFC01F2
:1026C00026A1AC014B545F4F7A01261759F066A33F
:1026D000DA018D919C91DC01ED91FC910190F081EA
:1026E000E02D0995F70180819181DC01ED91FC914C
:1026F0000190F081E02D6D2D0995CF7EC03CD10574
:1027000011F1F70180819181DC01ED91FC91612F44
:102710006F770190F081E02DDF91CF911F910F91A4
:10272000FF90EF90DF9009949B01265F31092A30DA
:10273000310548F4DF91CF911F910F91FF90EF90F9
:10274000DF900C941713DF91CF911F910F91FF90A1
:10275000EF90DF9008958F929F92AF92BF92DF9299
:10276000EF92FF920F931F93CF93DF931F92CDB7FA
:10277000DEB7613108F0C6C24C018C010B541F4F0B
:10278000D8018D919C91DC01ED91FC910480F58143
:10279000E02D0995892B09F4B5C2F801808191815A
:1027A000DC01ED91FC910680F781E02D09957C011B
:1027B000F40125A536A52115310509F0D0C080A763
:1027C000D5A08D2D0E9405130E94F112882379F067
:1027D000E7FC0DC0D4019896DC9298979996EC92FC
:1027E000999781E090E09E969C938E939D97F4013B
:1027F000F0A48F2D0E940513813F910509F463C059
:1028000094F5803B910509F466C06CF4803991051C
:1028100009F461C0803A910509F45DC080389105E2
:1028200009F05FC058C0803D910509F44CC02CF4FC
:10283000803C910509F447C054C0803E910509F4DD
:102840004AC0803F910509F04CC020E830E0D40137
:102850009C963C932E939B9795961C92959720EF70
:10286000D4962C9345C0883F9105A9F044F4833F4A
:10287000910549F184F1863F910569F032C08A3FA4
:1028800091057CF18D3F910534F09C012E5F31095B
:102890002230310530F5D401D1969C938E93D09798
:1028A0009F961C929F97D2961C92D297D3961C9279
:1028B00081E0F401EC54FF4F8083F40116A615A6C5
:1028C00014A613A61AC122E030E0D4019C963C93D2
:1028D0002E939B970DC023E030E0F40134A723A78B
:1028E00007C0F40116A615A614A613A615A20AC2BF
:1028F000D4019D962D913C919E979B964D915C9114
:102900009C97BA01615071092617370708F4EFC088
:10291000D1969C938E93D0978F2D8F70FF24F39434
:10292000F80E9F96FC929F9799968C919997D296C4
:102930008C93D2974330510531F49A968C919A97A3
:10294000D3968C9302C0F40113AAD4019E961C92D4
:102950001E929D979C961C921E929B9724C087FF67
:102960004DC099278D3F91055CF48A3F910574F421
:10297000873F9105F1F0883F910509F03FC006C0FF
:10298000AC014E5F510942305105C0F5D401D196DA
:102990009C938E93D097D2961C92D297D3961C92EA
:1029A000D3979F961C9281E0F401EC54FF4F8083F3
:1029B000A4C0F40184A9803FB9F5C9010196E20FD2
:1029C000F31F47EF44AB20EF30E0D401D1963C93A6
:1029D0002E93D097D2968C93D297D3969C93D397DD
:1029E0009F961C9281E0F401EC54FF4F8083F40128
:1029F00016A615A614A613A615A27FC0F40180A5DD
:102A0000E20FF31F803FE1F4E4AAD4019B96AD905E
:102A1000BC909C97C50101972817390708F467C037
:102A200098962C91203F71F4D4019E961C921E9290
:102A30009D979C961C921E929B9795961C9262C1A4
:102A4000E0A6E3CF822F29830E9405137C01F401C5
:102A500091AB80AB0E94F1122981882339F0822F3B
:102A60008F708F5FD4019F968C9302C0F40117A6DC
:102A7000D40199968C919997D2968C93B3E0AB162A
:102A8000B10421F4F40182A583AB03C0D401D39631
:102A90001C92F40116A615A614A613A681E0EC5408
:102AA000FF4F8083F0EBEF16F104D1F06CF4A0E956
:102AB000EA16F104A9F0B0EAEB16F10489F0E0E8B7
:102AC000EE16F10481F40CC0F0EDEF16F10441F0C4
:102AD00080EEE816F10421F0A0ECEA16F10419F4F6
:102AE000F40125A30AC0D40195961C9206C02F5F5D
:102AF0003F4FF40136A725A705C1D401D0968D918B
:102B00009C91D1978039910531F4D401D3968C9161
:102B1000882309F4F9C0F40180A991A9009771F004
:102B2000805891098136910508F0F4C087A197A5D6
:102B3000981709F4EFC0882309F4ECC0D12CD40114
:102B400094962C919497822F817020FFE9C0922F48
:102B50009E7F09F4E5C0D0966D917C91D197AB0131
:102B6000405851094136510550F59F960C919F9759
:102B700097969C91091719F081E0911180E02695B4
:102B800030E02230310541F02330310591F0213021
:102B9000310509F0C5C00FC0882309F4C1C0D401B4
:102BA000D3962C91D397D2964C91C4010E94461390
:102BB000B7C08111B5C0F40123A942A9F6CFFB012A
:102BC000E05FF109E031F10508F0AAC0EA5AFF4FD1
:102BD0000C945530C4010E941713A2C07401F4E391
:102BE000EF0EF11C5701D401D3964C91D39750E0CE
:102BF000542F4427D2968C919A01282B21383105E5
:102C000010F020E830E0E20EF31EAE14BF0409F429
:102C100076C0F80180819181D5016D915D01DC0163
:102C2000ED91FC910190F081E02D0995EECFD4015A
:102C3000D296FC90F80180819181DC01ED91FC91AC
:102C40000190F081E02D63EF09956F2D6F7770E0B3
:102C5000F801808191810E94410ED40196961C92C8
:102C60005FC0F401E3A8F0E8EF9E70011124D401E5
:102C7000D2968C91E82AF80180819181DC01ED9156
:102C8000FC910190F081E02D62EF0995B7016F771B
:102C90007727F801808191810E943A0EB701660F73
:102CA000672F661F770B71956F777727D8018D9106
:102CB0009C910E943A0E23C0D401D2968C918770C9
:102CC000B0E18B9FC0011124F40123A92F70F22ED3
:102CD000F82AD8018D919C91DC01ED91FC91019035
:102CE000F081E02D61EF0995F80180819181DC018F
:102CF000ED91FC910190F081E02D6F2D0995F4018B
:102D000016A20EC0D12C0CC080E890E0F40191AB6B
:102D100080AB01CFC4010E94FE11DD24D3940FCFFC
:102D20008D2D0F90DF91CF911F910F91FF90EF901C
:102D3000DF90BF90AF909F908F900895E6E1F2E012
:102D400087EE95E09093CC028093CB0211821082A3
:102D500013821282158214821782168211861086BF
:102D6000138612861586148617861686118A108A8F
:102D7000138A128A158A148A178A168A118E108E5F
:102D8000138E128E158E148E178E168E11A210A20F
:102D900013A212A28AE695E1909315028093140281
:102DA00090930B0280930A028AE691E090930102CD
:102DB00080930002EFEBF1E080E890E09183808364
:102DC000168281E0868782E0868B83E0868F84E0AE
:102DD00086A315A2089581E996E00E949F24181603
:102DE0001906CCF481E996E00E94B024262F682FC2
:102DF000492F293051F4992379F01092F202109260
:102E0000F102872F0E941A11E6CF283021F7872F71
:102E10000E945111E0CF089540E0F9CF8F929F9228
:102E2000AF92BF92CF92DF92EF92FF920F931F93D8
:102E3000CF93DF930E94EB1660913D0286E192E012
:102E40000E94AB13C5E2D1E019E0C12E13E0D12EF0
:102E50000AE111E082E1E82E81E0F82E88812296D5
:102E60000E94BB1DF601819391936F01F8012081AF
:102E70002223A1F0F701208131814091100150916E
:102E80001101B901640F751F681779072CF0241B15
:102E9000350B8217930714F4F80110820F5F1F4F50
:102EA000F2E0EF0EF11C81E0CD32D807B9F6CDE2A9
:102EB000D1E00CEF12E0888122960E94802121E06F
:102EC000892B09F020E0F80121938F0180E10E9415
:102ED000802121E0892B09F020E02093F602F1E027
:102EE000C733DF0741F79091FD028091F8029923E3
:102EF00041F1811129C00E94510FE091F002E1508F
:102F0000E093F002F0E03196E370FF27EE0FFF1F31
:102F1000E95CFE4F60E080810E945021E091F00268
:102F2000E370E093F002F0E0EE0FFF1FE95CFE4F6C
:102F300061E080810E9450218091FD028093F8021F
:102F400003C081111092F8029091FF028091FA0261
:102F5000992329F1811126C00E94510FE091F002BE
:102F6000EF5FE093F002F0E0EE0FFF1FEB5CFE4F2F
:102F700060E080810E945021E091F002E370E093D4
:102F8000F002F0E0EE0FFF1FE95CFE4F61E0808190
:102F90000E9450218091FF028093FA0203C08111A8
:102FA0001092FA029091F6028091F502992381F035
:102FB00081111AC08CE38093CD0280914001882357
:102FC00079F080914301813059F40E94AD1108C01D
:102FD000882351F040E06091CD0281E00E945111C0
:102FE0008091F6028093F5026091090370910A03C3
:102FF00080910103909102036817790709F48BC04F
:1030000080911A01811187C08091F002813099F17D
:1030100028F1823009F077C09B012E5E3F4FC90135
:10302000A0E0B0E09C01AD0163E05695479537956F
:1030300027956A95D1F73093C7012093C601A091D7
:10304000BF01B091C0010E9471306093C8017093BC
:10305000C9018093CA019093CB0155C0CB01770F72
:10306000AA0BBB0B8093E7029093E802A093E902BE
:10307000B093EA0248C080E094E0861B970BE5E03D
:10308000880F991FEA95E1F7092E000CAA0BBB0BDC
:103090008093D2029093D302A093D402B093D5022E
:1030A000072E000C880B990B0E94522D6093DD02B5
:1030B0007093DE028093DF029093E002CFB7F89422
:1030C00020E030E048E452E40E94A82C20E030E008
:1030D00040E054E40E94022E20E030E040E05CE357
:1030E0000E94022E20E030E040E857E40E94022EC9
:1030F0000E94212D6093FC017093FD018093FE01DD
:103100009093FF01CFBF8091090390910A039093A0
:10311000020380930103C0910B03D0910C038091B3
:10312000030390910403C817D90709F47BC0809169
:103130001B01811177C08091FC02882341F0CE01F0
:1031400095958795959587958093B70167C08091F0
:10315000F0028130D9F110F1823009F05FC0CE0168
:10316000A0E0B0E09C01AD0113E05695479537957E
:1031700027951A95D1F73093CF012093CE01A091D6
:10318000BF01B091C0010E9471306093D001709373
:10319000D1018093D2019093D30140C0CE01959587
:1031A00087959595879580931E018093B80120910E
:1031B000B7018095829FC0011124892F9927820F22
:1031C000911D9093BA018093B90128C0BE010D2EC4
:1031D000000C880B990B0E94522D6093DD027093B6
:1031E000DE028093DF029093E00220E030E04AE7C5
:1031F00054E40E94A82C6093E1027093E202809351
:10320000E3029093E40211E020E030E0A9010E9483
:10321000A32C811101C010E01093DC02D0930403B1
:10322000C093030380910D0390910E032091050339
:10323000309106038217930791F120911C0121110F
:103240002EC02091FE02211122C02091F0022130D7
:10325000B9F060F02230B9F02330C9F4C6E095959A
:103260008795CA95E1F70E94D71111C0880F892F61
:10327000881F990B01969093200180931F0107C02E
:103280009093DB0204C08093DC018093D401809191
:103290000D0390910E0390930603809305032091F4
:1032A0000F033091100380910703909108032817B2
:1032B000390709F461C080911D0181115DC08091C1
:1032C000F0028130B1F028F08230E1F08330C9F1B2
:1032D0004BC0232F330F330B8091E60290E0281769
:1032E000390709F441C02093E602822F0E9475102D
:1032F0003BC0211532401CF41092DA0235C0809395
:10330000DA0232C0C901A0E0B0E09C01AD01A3E047
:103310005695479537952795AA95D1F73093DF01B4
:103320002093DE01A091BF01B091C0010E947130D5
:103330006093E0017093E1018093E2019093E301D7
:1033400013C0220F232F221F330B80911C0390E008
:103350002817390749F020931C0381E08093190353
:1033600080911B030E94D71180910F03909110034D
:103370009093080380930703E091ED01F091EE0133
:103380008081823091F038F4882361F08130B1F48B
:1033900065ED71E00FC0833059F0843079F41092FC
:1033A000F7010CC06DEC71E005C06DED71E002C07D
:1033B00065EE71E08FEB91E00E940B118091DC02D1
:1033C000882309F490C18091DA02811128C04091CC
:1033D000FC015091FD016091FE017091FF0180910F
:1033E000F8019091F901A091FA01B091FB01840FCD
:1033F000951FA61FB71F8093F8019093F901A09322
:10340000FA01B093FB01CD019170E0910002F091BF
:103410000102E80FF91FE491E093EB02AEC00E94B5
:103420000B1D0091D6021091D7022091D802309145
:10343000D902AB01BC01401B510B620B730B809195
:10344000D2029091D302A091D402B091D502E3E0D0
:10345000880F991FAA1FBB1FEA95D1F784179507FC
:10346000A607B707E8F464EF70E080E090E00E9400
:10347000061FA0E0B0E0DC01992788278093CE02E8
:103480009093CF02A093D002B093D1020E940B1D63
:103490006093D6027093D7028093D8029093D9029A
:1034A0008090110390901203A0901303B090140326
:1034B0006091CE027091CF028091D0029091D102A2
:1034C0000E94502D6B017C01C501B4010E94502D5A
:1034D0009B01AC01C701B6010E94362C6B017C0137
:1034E00020910F0330911003359527953595279539
:1034F00080E091E0821B930BBC01990F880B990B24
:103500000E94502D9B01AC01C701B6010E94A82C5E
:103510000E941A2D6093150370931603809317036E
:10352000909318032FB7F894409111035091120310
:103530006091130370911403809115039091160309
:10354000A0911703B0911803840F951FA61FB71FF2
:103550008093110390931203A0931303B093140369
:103560002FBF8091110390911203A0911303B0918A
:10357000140380E88A0F8093EB028091DB028111B3
:103580002CC06091EB02062E000C770B880B990B78
:103590000E94522D2091E1023091E2024091E3021B
:1035A0005091E4020E94022E2091EC023091ED0233
:1035B0004091EE025091EF020E94372CAB01BC010A
:1035C00040932101509322016093230170932401C1
:1035D0008CE092E00E94AD1010C08091EC029091BE
:1035E000ED02A091EE02B091EF0280932101909341
:1035F0002201A0932301B09324018091DB0281304A
:1036000009F04AC060911E0170E080E090E00E94E5
:10361000522D6B017C018091EB02682F880F770B94
:10362000880B990B0E94522D4B015C0120E030E089
:103630004CEF52E46091E1027091E2028091E3026A
:103640009091E4020E94022E9B01AC01C501B401DD
:103650000E94372C9B01AC01C701B6010E94372C98
:103660000E941A2D6F3F710514F06EEF70E077FF26
:1036700002C060E070E06093B8018091B70160958E
:10368000689FB0011124672F7727680F711D709311
:10369000BA016093B90127C0823029F56091EB022D
:1036A000062E000C770B60587F4F072E000C880BFE
:1036B000990B0E94522D2091E1023091E20240913B
:1036C000E3025091E4020E94022E0E941A2D6093A0
:1036D000E7027093E8028093E9029093EA02109265
:1036E000F2021092F10260911F0170912001072EE9
:1036F000000C880B990B0E94522D209121013091D2
:10370000220140912301509124010E94022E0E9427
:103710001A2D2FB7F894CB01770FAA0BBB0B3CE007
:10372000880F991FAA1FBB1F3A95D1F780930602F5
:1037300090930702A0930802B09309022FBF8091D3
:103740004001882371F0DF91CF911F910F91FF907D
:10375000EF90DF90CF90BF90AF909F908F900C94A0
:10376000D011DF91CF911F910F91FF90EF90DF90DB
:10377000CF90BF90AF909F908F9008950E940E17AA
:103780000C94B11D90912F0580912E05981306C0C1
:10379000909131058091300598131AC00E94660FF0
:1037A00020912F05E22FF0E0EE0FFF1FE25DFC4FAE
:1037B0008C509F4F918380832F5F20932F05211181
:1037C00007C09091310581E08927809331050895E4
:1037D00008951F920F920FB60F9211242F933F93CB
:1037E0008F939F93AF93BF93EF93FF9381E090915B
:1037F0001D03911180E080931D03882361F1809166
:103800002E05E82FF0E0EE0FFF1FE25DFC4F208158
:1038100031818F5F80932E05811119C09091300501
:1038200081E089278093300580913205909133059E
:10383000A0913405B09135050196A11DB11D80936D
:10384000320590933305A0933405B093350530933A
:10385000890020938800FF91EF91BF91AF919F91D4
:103860008F913F912F910F900FBE0F901F90189541
:103870009F92AF92BF92CF92DF92EF92FF920F93FF
:103880001F93CF93DF93EC0180E00E945E1D84B50F
:1038900080932D0385B580932C0387B580932B03EC
:1038A0000EE610E0F801808180932A039E0140E03B
:1038B00050E060E472E48FE090E00E943630DA017C
:1038C000C90140E06EEB7BE10E9417200E946E2050
:1038D00084B58093250385B58093240387B58093B1
:1038E0002303F80180818093220300E810E0F801AF
:1038F000808180932903C1E8D0E0888180932803E8
:1039000088E8A82EB12CF50180819181809327034E
:103910009FE6C92ED12CF60180818093260361E0B9
:1039200089E00E9414212BE8E22E25E0F22EF70117
:10393000128298E1938382E084839883F8018083E4
:1039400088EE91E0A0E0B0E09924939490928805ED
:1039500090938A05809389059093870080938600D1
:1039600089E1888361E089E00E941421F801908157
:10397000F7018481892B8068F80180832091890573
:1039800030918A05A4EFB0E00E945B30DC01CB01EE
:103990003AE0B695A795979587953A95D1F7F501B1
:1039A0009183808390918805F7018381892B888397
:1039B000F6019082F80180818093210388818093B1
:1039C0002003F5018081918180931F03F60180819E
:1039D00080931E03DF91CF911F910F91FF90EF9085
:1039E000DF90CF90BF90AF909F90089520912E05CB
:1039F0008091320590913305A0913405B091350541
:103A0000BA2FA92F982F8827BC01CD01620F711DF5
:103A1000811D911D08950E94F61C9B01AC01ADE330
:103A2000B0E00E947130089510922E0510922F057B
:103A300010923005109231050895811109C08091CE
:103A40007A00846080937A0080917A008D7F1AC01A
:103A5000813071F480917A008B7F80937A0080911D
:103A60007A00826080937A0080917A0081600FC032
:103A7000823079F480917A008B7F80937A008091F4
:103A80007A00826080937A0080917A008E7F8093A2
:103A90007A00089580E090E061E070E040917E005F
:103AA0009B01082E01C0220F0A94EAF7242B2093D1
:103AB0007E0001968C30910589F70895EAE7F0E0E1
:103AC0009081986090830E941D1D0C944A1D823144
:103AD00008F08251E82FF0E0EB58F64E84910895FB
:103AE000EBE7F0E0908183FB222720F930E045E00E
:103AF000220F331F4A95E1F79F7D292B2083877082
:103B0000806480937C00EAE7F0E0808180648083B9
:103B10000895CF93DF931F92CDB7DEB78091420512
:103B2000909143058F3F2FEF920761F0FC01EA5C13
:103B3000FA4F208129830197909343058093420592
:103B4000898101C08FEF80934501809145018F3FAE
:103B500021F0809145010E94701D0F90DF91CF915F
:103B60000895809145018F3F29F40E94891D81E0CD
:103B70008093440108950E94671D20914205309171
:103B800043052B30310554F42F5F3F4F30934305ED
:103B900020934205F901EA5CFA4F8083E82FF0E0B8
:103BA000EE0FFF1FEC5BFA4F808191810895EAE7E9
:103BB000F0E08081806480830895E09145018091E8
:103BC000780090917900EE0FFF0BEC5BFA4F918338
:103BD000808308951F920F920FB60F9211242F9396
:103BE0003F934F935F936F937F938F939F93AF9385
:103BF000BF93EF93FF9380914401882329F00E94A3
:103C0000D71D1092440107C00E94DD1D0E94891D2E
:103C100081E080934401FF91EF91BF91AF919F911B
:103C20008F917F916F915F914F913F912F910F9065
:103C30000FBE0F901F9018958FEF9FEF9093430545
:103C4000809342050895CF92DF92EF92FF926B012D
:103C50007C0120E030E0A9010E94A32C8823B9F068
:103C600020E030E040E451E4C701B6010E94A82CF6
:103C70009B01AC0160E070E080E090E40E946F2E58
:103C800023E130ED42E051E40E94022E03C060E0E7
:103C900070E0CB01FF90EF90DF90CF900895CF922E
:103CA000DF92EF92FF92CF93DF93C0E0D0E0C12C80
:103CB000D12C760188E00E94AA208D569B4F8170FE
:103CC0009927092E000CAA0BBB0B0C2E04C0880FE1
:103CD000991FAA1FBB1F0A94D2F7C82AD92AEA2A19
:103CE000FB2A2196C032D10529F7C701B601DF9121
:103CF000CF91FF90EF90DF90CF9008950F931F9397
:103D000080914E0190914F01A0915001B0915101CD
:103D1000BC015527442784279527A627B727AC0140
:103D2000BD0135E076956795579547953A95D1F75A
:103D300084279527A627B72740914A0150914B0128
:103D400060914C0170914D0140934E0150934F0191
:103D50006093500170935101009146011091470109
:103D6000209148013091490100934A0110934B0181
:103D700020934C0130934D01402751276227732730
:103D8000482759276A277B27880F991FAA1FBB1F1F
:103D90008A019B01082719272A273B27C901B80157
:103DA0000093460110934701209348013093490145
:103DB0001F910F910895CF93DF93CAE7D0E08881D8
:103DC000877F88830E944F1E60934E0170934F013E
:103DD00080935001909351010E944F1E60934A01BD
:103DE00070934B0180934C0190934D010E944F1EA4
:103DF0006093460170934701809348019093490175
:103E0000888188608883DF91CF9108950F931F93F5
:103E1000CF93DF938C01EB010E947E1E9B01AC01CE
:103E200044275527DE01A01BB10B0E947C30800F78
:103E3000911FDF91CF911F910F91089582E08093A0
:103E400087058FEF809362051092640580915C0571
:103E500081508093630580915D05880F8160809318
:103E6000850585EE8093BC00089584E080938705E6
:103E70008FEF809362051092640580915E058093B8
:103E80006305A0915F05B091600525E635E0F90175
:103E90009E2F921B981718F49D919193F9CF8091C2
:103EA000610590E0880F991F8093850585EE8093CA
:103EB000BC00089585ED8093BC008091BC0084FD1A
:103EC000FCCF8091870580938605109287058091AD
:103ED0008605833011F40C94351F8091860581305E
:103EE00011F40C941E1F089585EC8093BC00809102
:103EF000870580938605109287058091860583301B
:103F000011F40C94351F80918605813011F40C94C6
:103F10001E1F08951F920F920FB60F9211242F9318
:103F20003F934F935F936F937F938F939F93AF9341
:103F3000BF93EF93FF938091B900887F883239F166
:103F400070F4803109F130F4882309F45BC08830C3
:103F5000D9F05CC08831D9F0803261F157C080342B
:103F6000C1F150F4803331F1883309F04FC08093B0
:103F700062050E94741F4AC08035F9F08835A9F1A6
:103F8000883409F043C040C08091850510C09091ED
:103F90006405809163059817B8F5E091640581E0A8
:103FA0008E0F80936405F0E0EB59FA4F8081809387
:103FB000BB0015C08093620527C0E091640581E0D5
:103FC0008E0F809364058091BB00F0E0EB59FA4FAF
:103FD00080839091640580916305981710F485ECB7
:103FE00001C085E88093BC0011C0E091640581E0C8
:103FF0008E0F809364058091BB00F0E0EB59FA4F7F
:10400000808302C0109262050E945A1FFF91EF91B7
:10401000BF91AF919F918F917F916F915F914F91E0
:104020003F912F910F900FBE0F901F901895CF9238
:10403000DF92EF92FF927093930560939205409305
:104040009405A0E0B0E034E0880F991FAA1FBB1FC1
:104050003A95D1F720E030E0F901E659F64EE491C7
:10406000EE2381F06C017D01022E04C0F694E794EA
:10407000D794C7940A94D2F751E0C516D506E10447
:10408000F10438F02F5F3F4F2B30310529F780E0E6
:1040900020C0A1E0B0E002C0AA0FBB1F2A95E2F742
:1040A000A70196010E947C30DC01CB0124E0B5958C
:1040B000A795979587952A95D1F790939105809329
:1040C000900510926E0082E084BDE5BDCA94C7BC25
:1040D00081E0FF90EF90DF90CF900895EEE6F0E062
:1040E000808182608083089578941F920F920FB62A
:1040F0000F9211242F933F934F935F936F937F936E
:104100008F939F93AF93BF93EF93FF9310926E00A3
:10411000E0919205F09193050995F89480919405AA
:10412000882311F016BCA99A80916E00826080935A
:104130006E00FF91EF91BF91AF919F918F917F9111
:104140006F915F914F913F912F910F900FBE0F9004
:104150001F901895823108F08251E82FF0E0EB585B
:10416000F64EE49180917B00E3FB222720F930E0BA
:1041700095E0220F331F9A95E1F78F7D282B20932E
:104180007B00E7708091520120E4829FC0011124DE
:10419000E82BE0937C0080917A00806480937A0021
:1041A00080917A0086FDFCCF809178002091790083
:1041B00090E0922B089590E0FC013197EE30F105EC
:1041C00090F5EA59FF4F0C945530809180008F771D
:1041D00003C0809180008F7D80938000089584B516
:1041E0008F7702C084B58F7D84BD08958091900043
:1041F0008F7707C0809190008F7D03C080919000E1
:10420000877F8093900008958091C0008F7703C0CE
:104210008091C0008F7D8093C00008958091C2007E
:10422000877F8093C2000895CF93DF9390E0FC01D5
:10423000E056F64E2491FC01E154F64E8491882319
:1042400061F190E0880F991FFC01E650F64EC59190
:10425000D491FC01E451F64EA591B491611109C0CD
:104260009FB7F8948881209582238883EC912E2330
:104270000BC0623061F49FB7F8943881822F80952B
:1042800083238883EC912E2B2C939FBF06C08FB77E
:10429000F894E8812E2B28838FBFDF91CF9108956A
:1042A0001F93CF93DF93282F30E0F901EF57F64E9D
:1042B0008491F901E056F64ED491F901E154F64E9D
:1042C000C491CC23C9F0162F81110E94DB20EC2F62
:1042D000F0E0EE0FFF1FE451F64EA591B4918FB7B9
:1042E000F894111105C09C91ED2FE095E92302C0CF
:1042F000EC91ED2BEC938FBFDF91CF911F9108953F
:10430000CF93DF93282F30E0F901EF57F64E8491D9
:10431000F901E056F64ED491F901E154F64EC491FC
:10432000CC2391F081110E94DB20EC2FF0E0EE0F06
:10433000FF1FE252F64EA591B491EC91ED2381E07E
:1043400090E021F480E002C080E090E0DF91CF9126
:1043500008958091E3059091E4052091E505309161
:10436000E605821B930B8F73992708952091E3052F
:104370003091E4058091E5059091E605281739070D
:1043800049F0E091E505F091E605ED55FA4F8081A1
:1043900090E008958FEF9FEF08952091E30530910D
:1043A000E4058091E5059091E60528173907A9F005
:1043B000E091E505F091E605ED55FA4F80812091F9
:1043C000E5053091E6052F5F3F4F2F73332730937C
:1043D000E6052093E50590E008958FEF9FEF08959F
:1043E000CF93DF93C091E305D091E4052196CF737D
:1043F000DD278091E5059091E605C817D90799F06A
:1044000082E00E94F2268F3F2FEF920761F0E09149
:10441000E305F091E405ED55FA4F8083D093E40570
:10442000C093E305DFCFDF91CF91089583E00C9433
:104430007D290F931F93CF93DF931F92CDB7DEB7E4
:104440008C01698380915A01882359F041E050E042
:10445000BE016F5F7F4F83E00E9436271816190652
:104460003CF081E090E0F8019383828380E090E06B
:104470000F90DF91CF911F910F910895FC019081D2
:104480009E5F908342E450E068E07AE180E80C941B
:10449000CE27FC0181819081913A59F4813209F053
:1044A0004DC047E050E063E571E080E00E94CE2718
:1044B00047C0913209F042C0803239F467E070E0C1
:1044C00083E591E00E9415283BC0823209F036C096
:1044D000828180935A018091530190915401A0915F
:1044E0005501B0915601803B9440A105B10541F5BD
:1044F00080915A0180FD11C087E797E790930108EA
:10450000809300089BE088E10FB6F894A89580930B
:1045100060000FBE9093600013C00FB6F894A8958A
:1045200080916000886180936000109260000FBEEF
:10453000A895109201081092000802C080E008952A
:1045400081E00895E5E9F5E01382128288EE93E0B8
:10455000A0E0B0E084839583A683B78388E791E0E9
:10456000918380830895FC0124853585F901E05C01
:10457000FF4F80819181329620813181821B930B84
:104580008F7399270895DC011C96ED91FC911D977E
:10459000DF01A05CBF4F2D913C91119712968D9138
:1045A0009C9111972817390739F08D919C91E80F4C
:1045B000F91F808190E008958FEF9FEF0895FC012F
:1045C000A485B585FD01E05CFF4F208131813296E5
:1045D000808191812817390779F080819181A80F16
:1045E000B91F8C91208131812F5F3F4F2F7333276B
:1045F0003183208390E008958FEF9FEF0895FC01B1
:1046000081A1882329F0A489B5898C9186FFFBCFED
:1046100011A208950F931F93CF93DF93FC01A685FA
:10462000B7858D01005C1F4FE80188819981019653
:104630008F739927AD014E5B5F4FEA012881398165
:1046400082179307D1F3E80128813981A20FB31FA4
:104650006C93A685B785A05CBF4F11969C938E93F3
:10466000A689B7892C9181E090E0078C02C0880F61
:10467000991F0A94E2F7822B8C9381E081A304882E
:10468000F589E02D80818064808381E090E0DF9176
:10469000CF911F910F91089508951F920F920FB619
:1046A0000F9211242F934F935F938F939F93EF93C8
:1046B000FF938091C80082FD1CC02091CE008091A4
:1046C0008D0690918E0601968F73992740918F06E3
:1046D000509190068417950771F0E0918D06F09146
:1046E0008E06E35BF94F208390938E0680938D06B0
:1046F00002C08091CE00FF91EF919F918F915F91C9
:104700004F912F910F900FBE0F901F90189587EE2D
:1047100095E00E94B322892B11F00C944C2308954C
:104720001F920F920FB60F9211242F933F938F93E6
:104730009F93EF93FF932091490630914A06809111
:104740004B0690914C062817390731F48091C90027
:104750008F7D8093C90014C0E0914B06F0914C0608
:10476000E75FF94F208180914B0690914C060196AE
:104770008F73992790934C0680934B062093CE001D
:10478000FF91EF919F918F913F912F910F900FBECD
:104790000F901F901895CF92DF92EF92FF920F9398
:1047A0001F93CF93DF93EC016A017B014115514EBA
:1047B0006105710509F1EC89FD8981E090E008A0AF
:1047C00002C0880F991F0A94E2F7808360E079E0C5
:1047D0008DE390E0A70196010E94143089019A01AF
:1047E000015011092109310936952795179507952B
:1047F000980101151041A8F0EC89FD89108260E84C
:1048000074E88EE190E0A70196010E941430DA016D
:10481000C9010197A109B109B695A7959795879503
:104820009C01E889F9893083EA89FB89208319A2F0
:10483000EE89FF89408181E090E09C010C8C02C0F0
:10484000220F331F0A94E2F7242B2083EE89FF897D
:1048500040819C010D8C02C0220F331F0A94E2F7A5
:10486000242B2083EE89FF8940819C010E8C02C09D
:10487000220F331F0A94E2F7242B2083EE89FF894D
:1048800020810F8C02C0880F991F0A94E2F780954F
:1048900082238083DF91CF911F910F91FF90EF9042
:1048A000DF90CF900895E7EEF5E01382128288EE54
:1048B00093E0A0E0B0E084839583A683B7838AE881
:1048C00091E0918380838DE496E09587848789E0E9
:1048D00096E0978786878DEC90E0918B808B8CECAF
:1048E00090E0938B828B88EC90E0958B848B89ECA5
:1048F00090E0978B868B8AEC90E0918F808F8EEC86
:1049000090E0938F828F84E0848F83E0858F87E0AF
:10491000868F85E0878F81E080A308950E94A72A73
:1049200087ED96E00E9487290E94480EC7E8D3E2EF
:104930000E9466102097E1F30E948723F9CFFC01C3
:10494000EE5BFF4F80819181329620813181821B05
:10495000930B8F73992796958795969587950895CC
:10496000CF93DF93EC01E881F9810480F581E02D9C
:104970000995CC5BDF4F288139812C5F3F4F2F7326
:10498000332739832883DF91CF910895CF92DF9227
:10499000EF92FF920F931F93CF93DF937C018C01D3
:1049A0000E5B1F4FD801CD91DC912196CF73DD278F
:1049B0006C01B4E4CB0ED11CF60180819181C81743
:1049C000D907B9F085E00E94F2268F3FEFEF9E07EE
:1049D00081F0D801ED91FC911197EE0DFF1D8283BE
:1049E0001196DC93CE93CD91DC912196CF73DD2788
:1049F000E3CFDF91CF911F910F91FF90EF90DF9068
:104A0000CF90089586E00C947D29CF93DF9300D05A
:104A100000D0CDB7DEB749835A836B837C8386E0B1
:104A20000E942327811103C080E090E00BC044E086
:104A300050E0BE016F5F7F4F86E00E943627181658
:104A4000190694F70F900F900F900F90DF91CF9170
:104A5000089587E797E790930108809300089BE00B
:104A600088E10FB6F894A895809360000FBE9093EC
:104A700060000895FF920F931F93CF93DF93EC0193
:104A8000E881F9810190F081E02D09951816190649
:104A90002CF060E070E080E090E039C0FE01EC5B5B
:104AA000FF4FA081B181AC0FBD1F1296FC90808199
:104AB0009181019620E430E0B9010E940030DE01CE
:104AC000A80FB91F12960C91808191810296B901AD
:104AD0000E940030DE01A80FB91F12961C91808140
:104AE00091810396B9010E940030C80FD91FCA8175
:104AF00087E0F81208C0003F31F4C73F21F41130BD
:104B000011F40E9429256F2D702F812F9C2FDF918A
:104B1000CF911F910F91FF900895FC0190819F5FAD
:104B2000908342E150E060E97AE180E80C94CE277E
:104B3000FC0190819F5F908346E450E06AE47AE153
:104B400080E80C94CE2780E008958AE991E0909364
:104B50009206809391060895CF92DF92EF92FF9292
:104B60000F931F93CF93DF936C01EB017B01E40E56
:104B7000F51E00E010E0CE15DF0561F06991D60169
:104B8000ED91FC910190F081E02DC6010995080F8F
:104B9000191FF1CFC801DF91CF911F910F91FF90A5
:104BA000EF90DF90CF9008956115710579F0FB01CA
:104BB00001900020E9F73197AF01461B570BDC014C
:104BC000ED91FC910280F381E02D099480E090E06A
:104BD00008950C94D425DC01ED91FC910190F081B5
:104BE000E02D09940F931F93CF93DF93EC016DE0B9
:104BF0000E94EB258C016AE0CE010E94EB25800F1C
:104C0000911FDF91CF911F910F9108958F929F92E5
:104C1000AF92BF92CF92DF92EF92FF920F931F93CA
:104C2000CF93DF93CDB7DEB7A1970FB6F894DEBF71
:104C30000FBECDBF6C01142FE52FCB01022F19A29F
:104C4000223008F40AE07E0121E2E20EF11C802EFF
:104C5000912CA12CB12C612F7E2FA50194010E94D3
:104C60001430029F1019112481E0E81AF1081A305B
:104C700014F4105D01C0195CF7011083122FE32FAB
:104C8000CA01232B242B252B31F7B701C6010E9423
:104C9000D425A1960FB6F894DEBF0FBECDBFDF912D
:104CA000CF911F910F91FF90EF90DF90CF90BF9029
:104CB000AF909F908F9008952115310541F4DC014C
:104CC000ED91FC910190F081E02D642F09940C94FA
:104CD00006269A01462F50E060E070E00C945C26B6
:104CE0000F931F93CF93DF93EC019A01462F50E06F
:104CF00060E070E00E945C268C01CE010E94F225EB
:104D0000800F911FDF91CF911F910F9108956150F6
:104D100030F02091F100FC0120830196F8CF289813
:104D200084E68093DE0608952FB7FC012083F89473
:104D300067706093E9000895CF93DF931F92CDB71A
:104D4000DEB7682FCE0101960E9494268091F20072
:104D500099819FBF0F90DF91CF910895EF92FF92BD
:104D60000F931F93CF93DF931F92CDB7DEB7909130
:104D7000DD06992311F057FF03C08FEF9FEF2AC084
:104D80008A017B01682FCE0101960E9494268091B2
:104D9000F20090E0A801801791070CF4AC01842F79
:104DA000F70194E6815038F028989093DE06209120
:104DB000F1002193F7CF4115510521F08091F200C8
:104DC000882321F089818FBFCA0104C08BE68093BC
:104DD000E800F8CF0F90DF91CF911F910F91FF90D6
:104DE000EF900895CF93DF931F92CDB7DEB741E0E8
:104DF00050E0BE016F5F7F4F0E94AE26019719F40D
:104E0000898190E002C08FEF9FEF0F90DF91CF91EB
:104E10000895CF93DF931F92CDB7DEB7682FCE01F1
:104E200001960E9494269091E800892F807295FF48
:104E300004C09091F20080E4891B99819FBF0F907C
:104E4000DF91CF910895CF93DF931F92CDB7DEB757
:104E5000682FCE0101960E9494268091E8009981E6
:104E60009FBF80720F90DF91CF9108954F925F9214
:104E70006F927F928F929F92AF92BF92CF92DF926A
:104E8000EF92FF920F931F93CF93DF931F92CDB7B3
:104E9000DEB7A82E6B01B42E052F8091DD06882386
:104EA00069F0E42EF52E8AEF782E8A2D8072582E26
:104EB0009AE3692E8A2D8074482E12C08FEF9FEFDF
:104EC00050C08A2D0E940927182F81110DC07A9495
:104ED0007720A1F361E070E080E090E00E947F2AFB
:104EE000E114F10471F733C090E0E816F9060CF410
:104EF0001E2D812E912CE818F9086A2DCE010196FD
:104F00000E949426552029F01150A8F01092F1002B
:104F1000FBCFF601A7FE07C0115058F08491809393
:104F2000F1003196F9CF115020F081918093F1007A
:104F3000FACFC80CD91C8091E80085FF0FC0E1149E
:104F4000F10411F441100AC089818FBFC9CF5D9867
:104F500084E68093DF068B2D902F03C06092E800DB
:104F6000F3CF0F90DF91CF911F910F91FF90EF90B2
:104F7000DF90CF90BF90AF909F908F907F906F9079
:104F80005F904F9008951092E9001092DC06109205
:104F9000DB069093DA068093D90608950F931F934A
:104FA000CF93DF93DB01A40FB51FFB016EEFEA1770
:104FB000FB0791F187FF02C0249101C0208100917D
:104FC000DB061091DC06C091D906D091DA060C17E9
:104FD0001D07B4F49091E8009570E1F39091E8001A
:104FE00092FD1CC02093F1002091DB063091DC067D
:104FF0002F5F3F4F2F733327232B11F46093E8006B
:105000002091DB063091DC062F5F3F4F3093DC06AA
:105010002093DB063196CBCFCA0102C08FEF9FEF02
:10502000DF91CF911F910F9108951F93CF93DF933D
:105030001F92CDB7DEB7162F2091E80022FFFCCFDC
:10504000612F79830E9487268BEF8093E800812F60
:105050007981972F0F90DF91CF911F910895CF9372
:10506000DF931F92CDB7DEB71982CE0101960E9461
:105070003E22CE0101960E941B2BCE0101960E947A
:105080008D25CE0101960E949825898190E00F9090
:10509000DF91CF9108951F920F920FB60F921124B6
:1050A000CF92DF92EF92FF921F932F933F934F93F4
:1050B0005F936F937F938F939F93AF93BF93EF9380
:1050C000FF93CF93DF93CDB7DEB76197DEBFCDBF40
:1050D0001092E9008091E80083FFF1C068E0CE0102
:1050E0000A960E94872682EF8093E8009A8597FFB0
:1050F00005C08091E80080FFFCCF03C08EEF809355
:10510000E800892F807609F0B8C08B85811105C031
:105110001092F1001092F100CBC0282F2D7F21308A
:1051200009F4C6C0853049F48091E80080FFFCCFC7
:105130008C8580688093E300BBC0863009F06FC027
:105140001D85E888F988123069F580E090E00E94BA
:10515000C3270E942F2899E09E012F5F3F4F6901CE
:10516000F901292F11922A95E9F799831A8391E081
:105170009E8390E898879AEF99872091DB0630917B
:10518000DC06275F3F4F3C832B838D83C7010E9442
:10519000C32749E050E0B60180E00E94CE270E947C
:1051A0002F2886C0C7010E94C327123241F482E231
:1051B00090E00E94262B892B09F07AC07DC0113027
:1051C00069F488899989089711F41093D806809119
:1051D000D806811111C06BEB7AE116C0133009F0CB
:1051E0006BC08C85882359F0823061F0813009F0E2
:1051F00063C06DEC7AE108C069EA7AE105C06FE04E
:105200007BE102C06DEE7AE16115710509F454C0CD
:10521000FB01449150E080E80E94CE2749C08730CE
:1052200009F44AC0883021F481E08093F10040C045
:10523000893009F03DC0937009F03EC080E090E0F5
:1052400031E026E341E0480F4093E9003093EB0062
:105250000196FC01EE55F54EE491E093EC002093AD
:10526000ED008630910571F78EE78093EA00109289
:10527000EA008C858093DD061BC0888999890E948D
:10528000C3278E85811105C0CE010A960E9449224E
:105290000DC0823029F4CE010A960E944E2B06C022
:1052A000843051F4CE010A960E94A325882321F070
:1052B0008EEF8093E80003C081E28093EB0061965B
:1052C0000FB6F894DEBF0FBECDBFDF91CF91FF9137
:1052D000EF91BF91AF919F918F917F916F915F916E
:1052E0004F913F912F911F91FF90EF90DF90CF90C2
:1052F0000F900FBE0F901F9018958093E90080913A
:10530000F200882319F08AE38093E8000895109250
:10531000DD0681E08093D70080EA8093D80082E1A7
:1053200089BD09B400FEFDCF61E070E080E090E04F
:105330000E947F2A80E98093D8008CE08093E2006D
:105340001092E000559A209A08951F920F920FB67E
:105350000F9211242F933F934F935F936F937F93FB
:105360008F939F93AF93BF93EF93FF938091E1004F
:105370001092E10083FF0FC01092E90091E090933A
:10538000EB001092EC0092E39093ED001092DD069A
:1053900098E09093F00082FF32C083E00E947D2964
:1053A00082E00E949C26882321F085E995E00E94F6
:1053B000F02186E00E947D2985E00E949C268823BA
:1053C00021F081E996E00E94C6248091DF068823BF
:1053D00039F08091DF0681508093DF06882369F0E1
:1053E0008091DE06882359F08091DE0681508093FB
:1053F000DE06811104C0289A02C05D9AF1CFFF91A8
:10540000EF91BF91AF919F918F917F916F915F913C
:105410004F913F912F910F900FBE0F901F901895B5
:105420001F920F920FB60F9211242F933F938F93D9
:105430009F93AF93BF938091E1069091E206A09174
:10544000E306B091E4063091E00623E0230F2D3708
:1054500020F40196A11DB11D05C026E8230F029678
:10546000A11DB11D2093E0068093E1069093E20612
:10547000A093E306B093E4068091E5069091E606DA
:10548000A091E706B091E8060196A11DB11D809399
:10549000E5069093E606A093E706B093E806BF9171
:1054A000AF919F918F913F912F910F900FBE0F90D1
:1054B0001F9018953FB7F8948091E5069091E60605
:1054C000A091E706B091E80626B5A89B05C02F3F3E
:1054D00019F00196A11DB11D3FBFBA2FA92F982F1A
:1054E0008827820F911DA11DB11DBC01CD0142E095
:1054F000660F771F881F991F4A95D1F70895CF929D
:10550000DF92EF92FF92CF93DF936B017C010E94B9
:105510005A2AEB01C114D104E104F10489F00E947C
:10552000352C0E945A2A6C1B7D0B683E734090F309
:1055300081E0C81AD108E108F108C851DC4FEACF70
:10554000DF91CF91FF90EF90DF90CF900895789406
:1055500084B5826084BD84B5816084BD85B5826078
:1055600085BD85B5816085BDEEE6F0E08081816016
:105570008083E1E8F0E01082808182608083808116
:1055800081608083E0E8F0E0808181608083E1E9F0
:10559000F0E0808182608083808181608083E0E9A7
:1055A000F0E0808181608083E1ECF0E080818460C4
:1055B0008083808182608083808181608083E3EC4E
:1055C000F0E0808181608083E0ECF0E080818260A7
:1055D0008083E2ECF0E0808181608083EAE7F0E0A4
:1055E000808184608083808182608083808181600B
:1055F00080838081806880830895EF92FF921F935B
:10560000CF93DF93EC01162FE881F9810480F581B7
:10561000E02D09957C01E881F9810680F781E02D74
:10562000612FCE010995C7019927DF91CF911F9175
:10563000FF90EF900895FC0190819F5F908349E176
:1056400050E063E97BE180E80C94CE2745E650E02A
:105650006CEA7BE180E80C94CE27EF92FF920F93E7
:105660001F93CF93DF931F92CDB7DEB789838B0152
:105670007A0141E050E0BE016F5F7F4F84E00E94FD
:105680003627A701B80184E40E9436270F90DF91E6
:10569000CF911F910F91FF90EF900895FC019181A0
:1056A0008081813A31F481E0913091F0933089F436
:1056B00011C0813271F49B3021F4828180935C01AE
:1056C00005C09A3031F4828180935B0181E00895B6
:1056D000089580E0089548E050E082E00C942D2B7E
:1056E000DC01683810F068582DC0E62FF0E067FF45
:1056F00011C0E058F10981E090E001C0880FEA95FF
:10570000EAF714969C911497892B14968C9314970E
:1057100060E018C0ED5EF44E6491611109C081E053
:1057200090E013969C938E93129780E090E00895FA
:1057300067FF08C014968C911497826014968C931E
:1057400014976F7716968C911697861751F11796C6
:105750008C911797861729F118968C9118978617B0
:1057600001F119968C9119978617D9F01A968C9198
:105770001A978617B1F01B968C911B97861789F0A4
:10578000FD01369680E090E02191211105C0FD01D8
:10579000E80FF91F668305C0019686309105A1F7D1
:1057A000BECFCD01BD016C5F7F4F0E946B2B81E0AE
:1057B00090E00895DC01683810F0685825C0E62FA5
:1057C000F0E067FF12C0E058F10981E090E001C00D
:1057D000880FEA95EAF7809514969C91149789238F
:1057E00014968C93149760E00FC0ED5EF44E6491B4
:1057F000662301F167FF08C014968C9114978D7F82
:1058000014968C9314976F77FD01369686E0662385
:1058100021F09081961301C0108281503196811140
:10582000F6CFCD01BD016C5F7F4F0E946B2B81E0F5
:1058300090E0089580E090E00895FC0116821782C0
:1058400010861186128613861482BC016C5F7F4F0E
:105850000C946B2B1092F506E9EEF6E0138212829F
:105860008AEA91E091838083089508955058BB2778
:10587000AA270E944E2C0C94C82D0E94BA2D38F0F5
:105880000E94C12D20F039F49F3F19F426F40C94A6
:10589000B72D0EF4E095E7FB0C94B12DE92F0E9493
:1058A000D92D58F3BA17620773078407950720F0BC
:1058B00079F4A6F50C94FB2D0EF4E0950B2EBA2F7F
:1058C000A02D0B01B90190010C01CA01A001112406
:1058D000FF27591B99F0593F50F4503E68F11A16B2
:1058E000F040A22F232F342F4427585FF3CF469543
:1058F00037952795A795F0405395C9F77EF41F1665
:10590000BA0B620B730B840BBAF09150A1F0FF0F2E
:10591000BB1F661F771F881FC2F70EC0BA0F621F1A
:10592000731F841F48F4879577956795B795F7950A
:105930009E3F08F0B0CF9395880F08F09927EE0F9F
:105940009795879508950E948D2D08F481E008951C
:105950000E94BC2C0C94C82D0E94C12D58F00E94AE
:10596000BA2D40F029F45F3F29F00C94B12D51116C
:105970000C94FC2D0C94B72D0E94D92D68F399231B
:10598000B1F3552391F3951B550BBB27AA2762173B
:105990007307840738F09F5F5F4F220F331F441F48
:1059A000AA1FA9F335D00E2E3AF0E0E832D091507C
:1059B0005040E695001CCAF72BD0FE2F29D0660F69
:1059C000771F881FBB1F261737074807AB07B0E8AC
:1059D00009F0BB0B802DBF01FF2793585F4F3AF0B2
:1059E0009E3F510578F00C94B12D0C94FC2D5F3F37
:1059F000E4F3983ED4F3869577956795B795F79538
:105A00009F5FC9F7880F911D9695879597F908951F
:105A1000E1E0660F771F881FBB1F621773078407BB
:105A2000BA0720F0621B730B840BBA0BEE1F88F7CA
:105A3000E09508950E94212D6894B1110C94FC2DDD
:105A400008950E94E12D88F09F5798F0B92F99276B
:105A5000B751B0F0E1F0660F771F881F991F1AF059
:105A6000BA95C9F714C0B13091F00E94FB2DB1E096
:105A700008950C94FB2D672F782F8827B85F39F095
:105A8000B93FCCF3869577956795B395D9F73EF4F2
:105A900090958095709561957F4F8F4F9F4F08959A
:105AA000E89409C097FB3EF49095809570956195B8
:105AB0007F4F8F4F9F4F9923A9F0F92F96E9BB276E
:105AC0009395F695879577956795B795F111F8CFEA
:105AD000FAF4BB0F11F460FF1BC06F5F7F4F8F4F55
