:100000000C94100E0C94380E0C94380E0C94380E80
:100010000C94380E0C94380E0C94380E0C94380E48
:100020000C94380E0C94380E0C946B2B0C94112AF3
:100030000C94380E0C94380E0C94380E0C94380E28
:100040000C94380E0C94380E0C94380E0C94380E18
:100050000C94C71D0C94F8210C94380E0C94172C9A
:100060000C94380E0C94A0240C94E3240C94380EB9
:100070000C94380E0C94C81F0C94380E0C94380E47
:100080000C94380E0C94380E0C94380E0C94380ED8
:100090000C940E210C94380E0C94380E0C94380EDF
:1000A0000C94380E0C94380E0C94380E4C17BA176A
:1000B0008F177517EE17EE174817EE174817EE173C
:1000C000481748174817EE17481748174222452285
:1000D00038223C2266226622662249224D22512283
:1000E00057225B226622612207634236B79BD8A75C
:1000F0001A39685618AEBAAB558C1D3CB7CC57634D
:10010000BD6DEDFD753EF6177231BF000000803FFA
:1001100008000000BE922449123EABAAAA2ABECD16
:10012000CCCC4C3E00000080BEABAAAAAA3E000088
:100130000000BF000000803F000000000008417880
:10014000D3BB4387D1133D190E3CC3BD4282AD2BB7
:100150003E68EC8276BED98FE1A93E4C80EFFFBEAF
:1001600001C4FF7F3F0000000000000102040507FA
:1001700008090B0C0E0F101213151617191A1B1D58
:100180001E20212224252628292A2C2D2E2F3132EB
:1001900033353637383A3B3C3D3E40414243444597
:1001A0004647494A4B4C4D4E4F5051525354555669
:1001B000575859595A5B5C5D5E5E5F60616262636D
:1001C000646465666667686869696A6A6B6B6C6CAB
:1001D0006D6D6E6E6F6F6F70707070717171717226
:1001E00072727272727273737373737373737372E6
:1001F00072727272727271717171707070706F6FF1
:100200006F6E6E6D6D6C6C6B6B6A6A69696868673E
:10021000666665646463626261605F5E5E5D5C5BCE
:100220005A59595857565554535251504F4E4D4C98
:100230004B4A4947464544434241403E3D3C3B3A98
:10024000383736353332312F2E2D2C2A29282625C2
:10025000242221201E1D1C1A191716151312100F07
:100260000E0C0B0908070504020100FEFDFBFAF85D
:10027000F7F6F4F3F1F0EFEDECEAE9E8E6E5E4E2B5
:10028000E1DFDEDDDBDAD9D7D6D5D3D2D1D0CECD02
:10029000CCCAC9C8C7C5C4C3C2C1BFBEBDBCBBBA36
:1002A000B9B8B6B5B4B3B2B1B0AFAEADACABAAA944
:1002B000A8A7A6A6A5A4A3A2A1A1A09F9E9D9D9C20
:1002C0009B9B9A99999897979696959594949393C2
:1002D000929291919090908F8F8F8F8E8E8E8E8D27
:1002E0008D8D8D8D8D8D8C8C8C8C8C8C8C8C8C8C48
:1002F0008D8D8D8D8D8D8E8E8E8E8F8F8F8F90901C
:1003000090919192929393949495959696979798AD
:1003100099999A9B9B9C9D9D9E9FA0A1A1A2A3A4FD
:10032000A5A6A6A7A8A9AAABACADAEAFB0B1B2B313
:10033000B4B5B6B8B9BABBBCBDBEC0C1C2C3C4C5F2
:10034000C7C8C9CACCCDCED0D1D2D3D5D6D7D9DAA9
:10035000DBDDDEDFE1E2E4E5E6E8E9EAECEDEFF043
:10036000F1F3F4F6F7F8FAFBFDFE174466777870C0
:10037000655E5E63696D6D6A65626265686B6B6917
:1003800066646466686A6A686665656668696968FD
:1003900066656566686969686665656668696968ED
:1003A00066666666686868686666666668686868DD
:1003B00067666666686868686766666767686867CC
:1003C00067666667676868676766666767686867BD
:1003D00067666667676868676766666767686867AD
:1003E000676666676768686767666667676868679D
:1003F000676666676768686767666667676868678D
:10040000676666676768686767666667676868677C
:10041000676666676768686767666667686868686A
:10042000676666676868686866666666686868685A
:10043000666666666869696866656566686969684A
:10044000666565666869696866656566686A6A683A
:1004500066646466696B6B68656262656A6D6D6926
:10046000635E5E65707877664417EAC5ADA2A1A7A2
:10047000ADB2B2AFABA8A8AAADAFAFADABA9A9ABB7
:10048000ADAEAEADABAAAAABACADADADABAAAAABAF
:10049000ACADADACABABABABACADADACABABABABA0
:1004A000ACADADACACABABABACADADACACABABAC8D
:1004B000ACADADACACABABACACADADACACABABAC7C
:1004C000ACADADACACABABACACADADACACABABAC6C
:1004D000ACADADACACABABACACADACACACABABAC5D
:1004E000ACACACACACABABACACACACACACABABAC50
:1004F000ACACACACACABABACACACACACACABABAC40
:10050000ACADADACACABABACACADADACACABABAC2B
:10051000ACADADACACABABACACADADACACABABAC1B
:10052000ACADADACACABABACACADADACABABABAC0C
:10053000ACADADACABABABABACADADACABABABABFF
:10054000ACADADACABAAAAABADADADACABAAAAABF2
:10055000ADAEAEADABA9A9ABADAFAFADAAA8A8ABE0
:10056000AFB2B2ADA7A1A2ADC5EA00000000010183
:10057000010102020202030303030404040404054C
:1005800005050506060607070707080808080909FC
:1005900009090A0A0A0A0B0B0B0B0B0C0C0C0D0DAC
:1005A0000D0D0E0E0E0E0F0F0F0F1010101011115B
:1005B000111111121212121313131314141414150F
:1005C00015151516161616171717181818181919BD
:1005D00019191A1A1A1A1B1B1B1B1C1C1C1C1D1D6B
:1005E0001D1D1E1E1E1E1F1F1F1F2020202020211C
:1005F00021202222222223232323242424242525CC
:10060000252526262626272727272828282828297B
:100610002929292A2A2A2A2B2B2B2C2C2C2C2D2D2C
:100620002D2D2E2E2E2E2F2F2F2F303030303131DA
:10063000313131323232333333333434343434358C
:10064000353536363636363737373838383838393C
:1006500039393A3A3A3A3B3B3B3B3C3C3C3C3C3DEB
:100660003D3D3E3E3E3E3E3F3F3F3F40404041419C
:10067000414141424242424343434444444445454C
:1006800045454646464647474747484848484949FA
:100690004949494A4A4A4A4B4B4B4C4C4C4C4D4DAC
:1006A0004D4D4D4E4E4E4E4F4F4F5050505051515C
:1006B000515151525252535353535454545455550B
:1006C00055555556565656575757585858585859BD
:1006D00059595A5A5A5A5B5B5B5B5C5C5C5C5C5D6B
:1006E0005D5D5E5E5E5E5F5F5F5F5F60606061611B
:1006F00061616262626263636363636464646565CB
:10070000656565666666666767676768686869697C
:100710006969696A6A6A6A6B6B6B6C6C6C6C6D6D2B
:100720006D6D6E6E6E6E6F6F6F6F707070707071DA
:10073000717171727272727373737374747474758D
:10074000757575767676777777777878787878793B
:1007500079797A7A7A7A7B7B7B7B7C7C7C7C7D7DE9
:100760007D7D7D7E7E7E7F7F7F7F7F7F7F7E7E7EA5
:100770007E7E7D7D7D7D7C7C7C7C7B7B7B7B7A7AB9
:100780007A7A7979797978787878777777777676E9
:100790007676757575757474747473737373727219
:1007A0007271717171707070706F6F6F6F6E6E6E4D
:1007B0006E6D6D6D6D6D6C6C6C6C6B6B6B6B6A6A7A
:1007C0006A696969696868686868676767666666AC
:1007D00066666565656564646463636363626262DB
:1007E000626161616160606060605F5F5F5E5E5E0C
:1007F0005E5D5D5D5D5C5C5C5C5B5B5B5B5B5A5A3C
:100800005A5A595959595858585857575757565668
:100810005656555555545454545453535353525299
:100820005251515151505050504F4F4F4F4E4E4ECC
:100830004E4E4D4D4D4D4C4C4C4C4B4B4B4A4A4AF9
:100840004A4A494949494848484847474747464628
:100850004645454545454444444443434343424259
:100860004241414141414040403F3F3F3F3F3E3E8A
:100870003E3E3D3D3D3C3C3C3C3C3B3B3B3B3A3AB9
:100880003A3A3939393838383838373737373636E9
:10089000363635353535343434333333333232321A
:1008A0003232313131313030302F2F2F2F2E2E2E4A
:1008B0002E2E2D2D2D2D2C2C2C2B2B2B2B2A2A2A7A
:1008C0002A292929292928282828272727262626AA
:1008D00026262525252424242424232323222222DA
:1008E000222121202121202020201F1F1F1F1E1E0A
:1008F0001E1E1D1D1D1D1C1C1C1B1B1B1B1B1A1A39
:100900001A19191919191818181817171717161668
:100910001616151515151414141313131313121298
:10092000121211111110101010100F0F0F0F0E0EC8
:100930000E0E0D0D0D0D0C0C0C0C0B0B0B0B0A0AF7
:100940000A0A090909090808080807070706060628
:100950000605050505050404040403030303020258
:1009600002010101010100000000FFFFFFFEFEFE89
:10097000FEFDFDFDFDFCFCFCFCFBFBFBFBFAFAFABB
:10098000FAFAF9F9F9F8F8F8F8F8F7F7F7F7F6F6E8
:10099000F6F5F5F5F5F4F4F4F4F4F3F3F3F3F2F219
:1009A000F2F1F1F1F1F1F0F0F0F0EFEFEFEEEEEE49
:1009B000EEEDEDEDEDEDECECECEBEBEBEBEBEAEA79
:1009C000EAEAE9E9E9E9E8E8E8E7E7E7E7E7E6E6A8
:1009D000E6E6E5E5E5E4E4E4E4E3E3E3E3E3E2E2D9
:1009E000E2E1E1E1E1E0E0E0E0E0DFDFDFDFDEDE09
:1009F000DEDDDDDDDDDCDCDCDCDCDBDBDBDADADA3A
:100A0000DAD9D9D9D9D8D8D8D8D8D7D7D7D7D6D668
:100A1000D6D5D5D5D5D4D4D4D4D3D3D3D3D2D2D29A
:100A2000D2D1D1D1D1D0D0D0D0D0CFCFCFCFCECEC8
:100A3000CECECDCDCDCDCCCCCCCBCBCBCBCACACAF8
:100A4000CAC9C9C9C9C8C8C8C8C7C7C7C7C6C6C62A
:100A5000C6C5C5C5C5C4C4C4C4C4C3C3C3C3C2C258
:100A6000C2C1C1C1C1C1C0C0C0C0BFBFBFBFBEBE87
:100A7000BEBDBDBDBDBDBCBCBCBCBBBBBBBBBABAB7
:100A8000BABAB9B9B9B9B8B8B8B8B7B7B7B7B6B6E6
:100A9000B6B6B5B5B5B5B4B4B4B4B3B3B3B3B2B216
:100AA000B2B2B1B1B1B1B0B0B0B0AFAFAFAEAEAE47
:100AB000AEAEADADADADACACACABABABABAAAAAA78
:100AC000AAA9A9A9A9A8A8A8A8A7A7A7A7A7A6A6A9
:100AD000A6A5A5A5A5A5A4A4A4A3A3A3A3A2A2A2D9
:100AE000A2A1A1A1A1A1A0A0A0A09F9F9F9F9E9E07
:100AF0009E9E9D9D9D9D9C9C9C9C9B9B9B9B9A9A36
:100B00009A9A999999989898989797979797969667
:100B10009696959595949494949393939393929297
:100B20009292919191919090908F8F8F8F8F8E8EC6
:100B30008E8E8D8D8D8C8C8C8C8B8B8B8B8A8A8AF8
:100B40008A89898989898888888887878786868627
:100B50008686858585858484848483838382828256
:100B6000828181818181808080808080808081817C
:100B70008181818282828383838383848484858547
:100B800085858686868687878787878888888889F7
:100B900089898A8A8A8A8A8B8B8B8C8C8C8C8D8DA6
:100BA0008D8D8D8E8E8E8E8F8F8F90909090919157
:100BB0009191929292929393939394949494959505
:100BC00095959696969697979797979898989999B6
:100BD00099999A9A9A9A9A9B9B9B9C9C9C9C9D9D66
:100BE0009D9D9E9E9E9E9F9F9F9F9FA0A0A0A1A116
:100BF000A1A1A1A2A2A2A2A3A3A3A4A4A4A4A4A5C8
:100C0000A5A5A5A6A6A6A7A7A7A7A7A8A8A8A9A976
:100C1000A9A9AAAAAAAAAAABABABACACACACACAD26
:100C2000ADADAEAEAEAEAEAFAFAFAFB0B0B0B1B1D6
:100C3000B1B1B2B2B2B2B2B3B3B3B3B4B4B4B5B586
:100C4000B5B5B6B6B6B6B6B7B7B7B7B8B8B8B9B936
:100C5000B9B9BABABABABBBBBBBBBCBCBCBCBDBDE4
:100C6000BDBDBEBEBEBEBEBFBFBFC0C0C0C0C0C196
:100C7000C1C1C2C2C2C2C2C3C3C3C3C4C4C4C5C546
:100C8000C5C5C6C6C6C6C6C7C7C7C7C8C8C8C8C9F7
:100C9000C9C9C9CACACACBCBCBCBCBCCCCCCCCCDA7
:100CA000CDCDCDCECECECFCFCFCFCFD0D0D0D1D156
:100CB000D1D1D2D2D2D2D2D3D3D3D3D4D4D4D4D507
:100CC000D5D5D5D6D6D6D7D7D7D7D8D8D8D8D8D9B6
:100CD000D9D9D9DADADADBDBDBDBDBDCDCDCDCDD67
:100CE000DDDDDEDEDEDEDEDFDFDFE0E0E0E0E1E115
:100CF000E1E1E1E2E2E2E3E3E3E3E4E4E4E4E4E5C6
:100D0000E5E5E5E6E6E6E6E7E7E7E8E8E8E8E9E975
:100D1000E9E9E9EAEAEAEBEBEBEBECECECECEDED24
:100D2000EDEDEDEEEEEEEFEFEFEFF0F0F0F0F1F1D4
:100D3000F1F1F2F2F2F2F3F3F3F3F3F4F4F4F5F584
:100D4000F5F5F5F6F6F6F7F7F7F7F8F8F8F8F9F934
:100D5000F9F9FAFAFAFAFBFBFBFBFBFCFCFCFDFDE4
:100D6000FDFDFEFEFEFEFFFFFFFF80808080808095
:100D7000808081818181818181818282828282825F
:100D80008282828383838383838384848484848430
:100D90008484848585858585858586868686868600
:100DA00086868787878787878787888888888888CF
:100DB000888889898989898989898A8A8A8A8A8A9F
:100DC0008A8A8A8B8B8B8B8B8B8B8B8C8C8C8C8C71
:100DD0008C8C8D8D8D8D8D8D8D8D8D8E8E8E8E8E40
:100DE0008E8E8F8F8F8F8F8F8F8F9090909090900F
:100DF00090909191919191919191929292929292DF
:100E000092929393939393939393949494949494AE
:100E1000949494959595959595959696969696967F
:100E20009696969797979797979797989898989850
:100E300098989899999999999999999A9A9A9A9A20
:100E40009A9A9B9B9B9B9B9B9B9B9B9C9C9C9C9CEF
:100E50009C9C9C9D9D9D9D9D9D9D9E9E9E9E9E9EBF
:100E60009E9E9F9F9F9F9F9F9F9F9FA0A0A0A0A08F
:100E7000A0A0A1A1A1A1A1A1A1A1A2A2A2A2A2A25E
:100E8000A2A2A3A3A3A3A3A3A3A3A4A4A4A4A4A42E
:100E9000A4A4A4A5A5A5A5A5A5A5A6A6A6A6A6A6FF
:100EA000A6A6A7A7A7A7A7A7A7A7A8A8A8A8A8A8CE
:100EB000A8A8A8A9A9A9A9A9A9A9A9AAAAAAAAAAA0
:100EC000AAAAABABABABABABABABACACACACACAC6E
:100ED000ACACADADADADADADADADAEAEAEAEAEAE3E
:100EE000AEAEAFAFAFAFAFAFAFAFAFB0B0B0B0B00F
:100EF000B0B0B0B1B1B1B1B1B1B1B2B2B2B2B2B2DF
:100F0000B2B2B3B3B3B3B3B3B3B3B4B4B4B4B4B4AD
:100F1000B4B4B5B5B5B5B5B5B5B5B6B6B6B6B6B67D
:100F2000B6B6B7B7B7B7B7B7B7B7B8B8B8B8B8B84D
:100F3000B8B8B8B9B9B9B9B9B9B9BABABABABABA1E
:100F4000BABABBBBBBBBBBBBBBBBBCBCBCBCBCBCED
:100F5000BCBCBDBDBDBDBDBDBDBDBDBEBEBEBEBEBE
:100F6000BEBEBFBFBFBFBFBFBFBFC0C0C0C0C0C08D
:100F7000C0C0C1C1C1C1C1C1C1C1C1C2C2C2C2C25E
:100F8000C2C2C2C3C3C3C3C3C3C3C4C4C4C4C4C42E
:100F9000C4C4C4C5C5C5C5C5C5C5C5C6C6C6C6C6FF
:100FA000C6C6C7C7C7C7C7C7C7C7C8C8C8C8C8C8CD
:100FB000C8C8C9C9C9C9C9C9C9C9CACACACACACA9D
:100FC000CACACBCBCBCBCBCBCBCBCBCCCCCCCCCC6E
:100FD000CCCCCCCDCDCDCDCDCDCDCDCECECECECE3F
:100FE000CECECFCFCFCFCFCFCFCFD0D0D0D0D0D00D
:100FF000D0D0D1D1D1D1D1D1D1D1D2D2D2D2D2D2DD
:10100000D2D2D2D3D3D3D3D3D3D3D4D4D4D4D4D4AD
:10101000D4D4D4D5D5D5D5D5D5D5D6D6D6D6D6D67D
:10102000D6D6D6D7D7D7D7D7D7D7D8D8D8D8D8D84D
:10103000D8D8D9D9D9D9D9D9D9D9D9DADADADADA1D
:10104000DADADADBDBDBDBDBDBDBDCDCDCDCDCDCED
:10105000DCDCDCDDDDDDDDDDDDDDDDDEDEDEDEDEBE
:10106000DEDEDFDFDFDFDFDFDFDFDFE0E0E0E0E08D
:10107000E0E0E1E1E1E1E1E1E1E1E2E2E2E2E2E25C
:10108000E2E2E2E3E3E3E3E3E3E3E4E4E4E4E4E42D
:10109000E4E4E5E5E5E5E5E5E5E5E6E6E6E6E6E6FC
:1010A000E6E6E7E7E7E7E7E7E7E7E7E8E8E8E8E8CD
:1010B000E8E8E9E9E9E9E9E9E9E9EAEAEAEAEAEA9C
:1010C000EAEAEBEBEBEBEBEBEBEBECECECECECEC6C
:1010D000ECECECEDEDEDEDEDEDEDEDEEEEEEEEEE3E
:1010E000EEEEEEEFEFEFEFEFEFEFF0F0F0F0F0F00D
:1010F000F0F0F0F1F1F1F1F1F1F1F1F2F2F2F2F2DE
:10110000F2F2F3F3F3F3F3F3F3F3F4F4F4F4F4F4AB
:10111000F4F4F4F5F5F5F5F5F5F5F6F6F6F6F6F67C
:10112000F6F6F7F7F7F7F7F7F7F7F8F8F8F8F8F84B
:10113000F8F8F8F9F9F9F9F9F9F9F9FAFAFAFAFA1D
:10114000FAFAFBFBFBFBFBFBFBFBFCFCFCFCFCFCEB
:10115000FCFCFDFDFDFDFDFDFDFDFDFEFEFEFEFEBC
:10116000FEFEFFFFFFFFFFFFFFFF0000000000008B
:10117000000000010101010101010102020202025D
:10118000020203030303030303030404040404042B
:1011900004040505050505050505060606060606FB
:1011A00006060707070707070707070808080808CC
:1011B000080809090909090909090A0A0A0A0A0A9B
:1011C0000A0A0B0B0B0B0B0B0B0B0B0C0C0C0C0C6C
:1011D0000C0C0D0D0D0D0D0D0D0D0D0E0E0E0E0E3C
:1011E0000E0E0F0F0F0F0F0F0F0F0F10101010100C
:1011F00010101011111111111111121212121212DC
:1012000012121313131313131313141414141414AA
:10121000141415151515151515151516161616167B
:10122000161617171717171717171818181818184A
:1012300018181919191919191919191A1A1A1A1A1B
:101240001A1A1A1B1B1B1B1B1B1B1C1C1C1C1C1CEB
:101250001C1C1D1D1D1D1D1D1D1D1E1E1E1E1E1EBA
:101260001E1E1F1F1F1F1F1F1F1F1F20202020208B
:10127000202021212021212221212022222222225C
:10128000222223232323232323232424242424242A
:1012900024242425252525252525262626262626FB
:1012A00026262727272727272727282828282828CA
:1012B000282829292929292929292A2A2A2A2A2A9A
:1012C0002A2A2A2B2B2B2B2B2B2B2B2C2C2C2C2C6C
:1012D0002C2C2D2D2D2D2D2D2D2D2E2E2E2E2E2E3A
:1012E0002E2E2E2F2F2F2F2F2F2F2F30303030300C
:1012F00030303131313131313131323232323232DA
:1013000032323333333333333333333434343434AA
:101310003434353535353535353536363636363679
:10132000363636373737373737373738383838384B
:1013300038383939393939393939393A3A3A3A3A1A
:101340003A3A3A3B3B3B3B3B3B3B3C3C3C3C3C3CEA
:101350003C3C3D3D3D3D3D3D3D3D3E3E3E3E3E3EB9
:101360003E3E3F3F3F3F3F3F3F3F40404040404089
:101370004040414141414141414142424242424259
:101380004242434343434343434344444444444429
:1013900044444545454545454545464646464646F9
:1013A00046464647474747474747484848484848CA
:1013B000484849494949494949494A4A4A4A4A4A99
:1013C0004A4A4A4B4B4B4B4B4B4B4C4C4C4C4C4C6A
:1013D0004C4C4C4D4D4D4D4D4D4D4D4E4E4E4E4E3B
:1013E0004E4E4F4F4F4F4F4F4F4F50505050505009
:1013F00050505051515151515151525252525252DA
:1014000052525253535353535353545454545454A9
:101410005454545555555555555556565656565679
:101420005656565757575757575758585858585849
:1014300058585859595959595959595A5A5A5A5A1A
:101440005A5A5B5B5B5B5B5B5B5B5C5C5C5C5C5CE8
:101450005C5C5D5D5D5D5D5D5D5D5E5E5E5E5E5EB8
:101460005E5E5F5F5F5F5F5F5F5F60606060606088
:101470006060616161616161616161626262626259
:101480006262636363636363636363646464646429
:1014900064646565656565656565656666666666F9
:1014A00066666767676767676767686868686868C8
:1014B000686869696969696969696A6A6A6A6A6A98
:1014C0006A6A6B6B6B6B6B6B6B6B6C6C6C6C6C6C68
:1014D0006C6C6D6D6D6D6D6D6D6D6E6E6E6E6E6E38
:1014E0006E6E6F6F6F6F6F6F6F6F70707070707008
:1014F00070707171717171717171717272727272D9
:1015000072727373737373737373747474747474A7
:101510007474747575757575757575767676767679
:101520007676777777777777777777787878787848
:1015300078787879797979797979797A7A7A7A7A19
:101540007A7A7B7B7B7B7B7B7B7B7C7C7C7C7C7CE7
:101550007C7C7D7D7D7D7D7D7D7D7D7E7E7E7E7EB8
:101560007E7E7F7F7F7F7F7F7F7F80808080808087
:10157000808080808080808080808080808080816A
:101580008181818181818182828282828282838340
:101590008383838484848484858585858586868603
:1015A00086878787888888888989898A8A8A8A8BB2
:1015B0008B8B8C8C8C8D8D8E8E8E8F8F8F9090914F
:1015C00091919292939393949495959696969797DA
:1015D000989899999A9A9B9B9C9C9D9D9E9E9F9F53
:1015E000A0A0A1A1A2A2A3A3A4A4A5A6A6A7A7A8C0
:1015F000A8A9AAAAABABACACADAEAEAFB0B0B1B11E
:10160000B2B3B3B4B5B5B6B6B7B8B8B9BABABBBC6D
:10161000BCBDBEBEBFC0C0C1C2C2C3C4C5C5C6C7B3
:10162000C7C8C9C9CACBCCCCCDCECFCFD0D1D1D2EF
:10163000D3D4D4D5D6D7D7D8D9DADADBDCDDDDDE22
:10164000DFE0E0E1E2E3E3E4E5E6E7E7E8E9EAEA50
:10165000EBECEDEDEEEFF0F1F1F2F3F4F5F5F6F77A
:10166000F8F8F9FAFBFCFCFDFEFFFF0001020303A2
:10167000040506070708090A0A0B0C0D0E0E0F10C9
:101680001112121314151516171818191A1B1C1CF1
:101690001D1E1F1F2021222223242525262728281E
:1016A000292A2B2B2C2D2E2E2F3030313233333450
:1016B000353636373838393A3A3B3C3D3D3E3F3F88
:1016C0004041414243434445454647474849494ACA
:1016D0004A4B4C4C4D4E4E4F4F5051515253535418
:1016E000545555565757585859595A5B5B5C5C5D71
:1016F0005D5E5E5F5F6060616162626363646465DA
:10170000656666676768686969696A6A6B6B6C6C4D
:101710006C6D6D6E6E6E6F6F7070707171717272D4
:101720007373737474747575757576767677777769
:1017300077787878797979797A7A7A7A7A7B7B7B13
:101740007B7B7C7C7C7C7C7D7D7D7D7D7D7D7E7ED0
:101750007E7E7E7E7E7E7F7F7F7F7F7F7F7F7F7F9F
:101760007F7F7F7F7F7F7F7F7F7F7F7F7F7F7F7F89
:101770007F7F7F7F7F7F7F7F7F7F7F7F7F7F7F7E7A
:101780007E7E7E7E7E7E7E7D7D7D7D7D7D7D7C7C84
:101790007C7C7C7B7B7B7B7B7A7A7A7A7A797979A1
:1017A00079787878777777777676767575757574D2
:1017B000747473737372727171717070706F6F6E15
:1017C0006E6E6D6D6C6C6C6B6B6A6A69696968686A
:1017D00067676666656564646363626261616060D1
:1017E0005F5F5E5E5D5D5C5C5B5B5A595958585744
:1017F0005756555554545353525151504F4F4E4EC6
:101800004D4C4C4B4A4A4949484747464545444355
:1018100043424141403F3F3E3D3D3C3B3A3A3938EF
:101820003837363635343333323130302F2E2E2D93
:101830002C2B2B2A29282827262525242322222140
:10184000201F1F1E1D1C1C1B1A19181817161515F2
:101850001413121211100F0E0E0D0C0B0A0A0908A8
:1018600007070605040303020100FFFFFEFDFCFC61
:10187000FBFAF9F8F8F7F6F5F5F4F3F2F1F1F0EF19
:10188000EEEDEDECEBEAEAE9E8E7E7E6E5E4E3E3D1
:10189000E2E1E0E0DFDEDDDDDCDBDADAD9D8D7D784
:1018A000D6D5D4D4D3D2D1D1D0CFCFCECDCCCCCB32
:1018B000CAC9C9C8C7C7C6C5C5C4C3C2C2C1C0C0DA
:1018C000BFBEBEBDBCBCBBBABAB9B8B8B7B6B6B578
:1018D000B5B4B3B3B2B1B1B0B0AFAEAEADACACAB0A
:1018E000ABAAAAA9A8A8A7A7A6A6A5A4A4A3A3A291
:1018F000A2A1A1A0A09F9F9E9E9D9D9C9C9B9B9A08
:101900009A99999898979796969695959494939373
:1019100093929291919190908F8F8F8E8E8E8D8DCC
:101920008C8C8C8B8B8B8A8A8A8A89898988888817
:10193000888787878686868685858585858484844D
:101940008484838383838382828282828282818170
:101950008181818181818080808080808080808081
:101960008080808080808080808001000002000074
:101970000300040005070605040100080A0B0C0D0E
:10198000090000000200080E0000030401000B0023
:101990000000000000000000000000000000000047
:1019A000040802011040804010204080408008025E
:1019B00004018040201002011080102040402004CB
:1019C00004040404030405020202020403020202E6
:1019D00002060606060606040402020204040000CB
:1019E00000002300260029002C002F00000000002A
:1019F000250028002B002E003100000000002400EC
:101A000027002A002D003000080B0002020201000E
:101A10000904000001020200000524001001052451
:101A200001010104240206052406000107058103C3
:101A300010004009040100020A000000070502022C
:101A40004000000705830240000009040400020171
:101A50000300000724010001220006240201010006
:101A60000924030102010301000624020203000904
:101A700024030204010101000705050240000005DE
:101A8000250101010705860240000005250101022C
:101A900009040300000101000009240100010900FC
:101AA000010400C18081C180811201000202000096
:101AB00040412336800001010200011201000200B2
:101AC0000000404123368000010102000120034153
:101AD0000072006400750069006E006F0020004C09
:101AE000004C004300200020002000200022034181
:101AF0000072006400750069006E006F0020004CE9
:101B00000065006F006E006100720064006F0004E9
:101B100003090400000000000000002A2B28000038
:101B200000000000000000000000000000000000B5
:101B30000000002C9EB4A0A1A2A434A6A7A5AE3696
:101B40002D3738271E1F20212223242526B333B604
:101B50002EB7B89F8485868788898A8B8C8D8E8FD7
:101B6000909192939495969798999A9B9C9D2F31DA
:101B700030A3AD350405060708090A0B0C0D0E0F3E
:101B8000101112131415161718191A1B1C1DAFB1BA
:101B9000B0B50009040200010300000009210101A1
:101BA00000012265000705840340000105010902C8
:101BB000A1010901A10085010509190129031500E9
:101BC00025019503750181029501750581030501C4
:101BD0000930093109381581257F7508950381067B
:101BE000C0C005010906A1018502050719E029E722
:101BF000150025017501950881029501750881037D
:101C000095067508150025650507190029658100E9
:101C1000C000FC17F21EFA1FF523A625F826312E68
:101C200011241FBECFEFDAE0DEBFCDBF12E0A0E08F
:101C3000B1E0EEE8F5E602C005900D92A831B107DB
:101C4000D9F727E0A8E1B2E001C01D92AE35B20796
:101C5000E1F71EE0C0E1DEE004C02197FE010E9432
:101C60006C32C930D107C9F70E94E1250C94C53206
:101C70000C9400000895DC01ED91FC910190F0813D
:101C8000E02D0994DC01ED91FC910190F081E02DB3
:101C90000994CF93DF93EBE6F3E0C6E0D1E0AEE04A
:101CA000B1E081E021913191299339938D9393E0B3
:101CB000E337F907B9F7DF91CF9108958F929F929B
:101CC000AF92BF92CF92DF92EF92FF92CF93DF93CA
:101CD00020914A0330914B0340914C0350914D03A6
:101CE000C0906902D0906A02E0906B02F0906C02A2
:101CF0008091650290916602A0916702B09168029E
:101D00008C0D9D1DAE1DBF1D8093650290936602D4
:101D1000A0936702B0936802CD019370E0916D02C9
:101D2000F0916E02E80FF91FA4910A2E000CBB0B74
:101D30000E9493324B015C0180915A02882349F141
:101D40002FB7F8948091560290915702A0915802B3
:101D5000B091590240915202509153026091540245
:101D600070915502840F951FA61FB71F80935202D2
:101D700090935302A0935402B09355022FBF8091C9
:101D8000520290915302A0915402B09155024A2FF1
:101D900001C040E08091730290917402A09175029D
:101DA000B0917602C0906F02D0907002E090710204
:101DB000F09072028C0D9D1DAE1DBF1D80936F02B1
:101DC00090937002A0937102B09372027501640146
:101DD0002AE0CC0CDD1CEE1CFF1C2A95D1F78C0DE3
:101DE0009D1DAE1DBF1DCD019370E0917702F09156
:101DF0007802E80FF91F5491F0911B0280911E02A6
:101E000090911F02C0912002D0912102DC01AC1BF5
:101E1000BD0B20911C0230911D024C01092E000CBB
:101E2000AA08BB08540360011124CD2CDD0CDD0889
:101E3000C594C81AD90A0D2C000CEE08FF080E94A0
:101E40008132BB2797FDBA95A92F982F872FA7011D
:101E50009601280F391F4A1F5B1FAF2FB0E00E9469
:101E60008832BB2797FDBA95A92F982F872F880D09
:101E7000991DAA1DBB1D90931F0280931E02BC01D9
:101E80006C1B7D0BF69FC001F79F900D1124892FCD
:101E9000990F990B8C0F9D1F909321028093200224
:101EA000082E000C990BDF91CF91FF90EF90DF90FF
:101EB000CF90BF90AF909F908F9008950C94A01DED
:101EC00090917E03923021F0682F8AE00C94A32237
:101ED000089580918003E82FF0E0E75CFE4F909139
:101EE00084039083909134019F5F9F73909334019A
:101EF0008F5F8F738093800361E971E08DEF95E0D0
:101F00000E943C274AE050E0609184038DEF95E009
:101F10000E942F286DE971E08DEF95E00E943C272B
:101F20004AE050E0609134018DEF95E00C94362842
:101F3000EF92FF920F931F93CF93DF93CBE2D1E009
:101F40008E01F80180810E5F1F4F61E00E94A32285
:101F5000F1E003331F07A9F789E3E82E81E0F82EAB
:101F600000E010E0F70161917F01C8010E94B732E3
:101F70000F5F1F4F00311105A9F76091340188E709
:101F800090E00E94B7326BE784E690E00E94B7329F
:101F90008881229660E00E94A322F1E0C133DF072E
:101FA000B9F7DF91CF911F910F91FF90EF900895B6
:101FB0000F931F93CF93DF9309E311E0C0E0D0E0CC
:101FC000CE010E94AF32F80181938F012196C0317A
:101FD000D105B1F788E790E00E94AF3280933401D9
:101FE000DF91CF911F910F910895CF92DF92EF92E1
:101FF000FF92CF93DF9384E690E00E94AF328B375D
:1020000011F40E94D80FC1E2D1E08881229662E0EB
:102010000E94672281E0CB32D807B9F762E080E105
:102020000E946722CBE2D1E08881229661E00E9483
:10203000672281E0C533D807B9F783EE91E1909329
:102040007C0280937B0282E192E190937A028093FA
:1020500079028AE39EE0909392028093910242E19A
:102060005AE760E070E080912E0390912F030E9468
:102070001E251092A00210929F0210929E021092B2
:10208000A7021092A6021092A5021092A40210922A
:102090002D031092AA021092A9021092A802109287
:1020A000AB021092AC0280919D02817082608160CF
:1020B00080939D028FEF80932F0280EF80933702F1
:1020C00080933F0281E08093470210924F028CE0A0
:1020D00090E090932A02809329024091220250912D
:1020E00023029A01ACE0B0E00E94723260932B02AE
:1020F00070932C0280932D0290932E02E9E1F0E080
:10210000F0933202E0933102A9E1B0E00E94723212
:102110006B017C016093330270933402809335022B
:10212000909336028DEB9FE190933A0280933902AF
:10213000ADEBBFE10E94723260933B0270933C02B0
:1021400080933D0290933E02F0934202E09341025D
:10215000C0924302D0924402E0924502F0924602BD
:102160008FEF9FE190934A0280934902AFEFBFE166
:102170000E94723260934B0270934C0280934D0226
:1021800090934E028FB7F89440E050E86BE170E016
:1021900040937302509374026093750270937602B9
:1021A0008FBF80E890E00E94161E60E08EE10E94E2
:1021B000672260E081E10E946722E0915303F0E032
:1021C000EE0FFF1FE55DFE4F61E080810E94A322BC
:1021D00088EC80931A0284E680931B0281E491E0EC
:1021E00090931D0280931C028FB7F89440E050E05A
:1021F00064E070E040935F0250936002609361027C
:10220000709362028FBFDF91CF91FF90EF90DF90CC
:10221000CF900895813081F028F08230B9F083307A
:10222000F9F0089580916203811103C08AE695E177
:102230001DC08AE695E121C080916203811103C02F
:102240008AE695E013C08AE695E017C080916203A4
:10225000811103C08AE69DE009C08AE69DE00DC0B9
:1022600080916203811107C08AE693E0909378021F
:102270008093770208958AE693E090936E028093AC
:102280006D0208950F931F93CF938C01CB01BA0178
:10229000CFB7F89420E030E040E854E40E940930E1
:1022A00020E030E040E858E30E94093020E030E0D0
:1022B00040E857E40E9409300E94282FF801648307
:1022C000758386839783CFBFCF911F910F91089518
:1022D000CF92DF92EF92FF920F931F93CF93DF93F2
:1022E000EC018B011B821A82FB01818192819D830B
:1022F0008C83C8A8D9A8EAA8FBA86781862F90E09C
:10230000A0E0B0E0DC0199278827BC01CD016C1961
:102310007D098E099F0923813481458156810E9460
:102320004D322CAB3DAB4EAB5FAB1FA70EA7DF9181
:10233000CF911F910F91FF90EF90DF90CF90089574
:10234000FC01228133812F5F3F4F338322834481FD
:1023500055812417350710F00C9468110895CF9318
:10236000DF93C82FD1E0D0935603682F70E080E050
:1023700090E00E94572F0E940120AB01BC014093C6
:102380004F03509350036093510370935203409353
:1023900015015093160160931701709318018FE691
:1023A00092E00E94421168E272E082E292E00E94B2
:1023B0006811D0935A0281E00E94600FC0934803D5
:1023C000DF91CF910895CF93DF931F92CDB7DEB702
:1023D000662329F0862F69830E94AF11698180915D
:1023E0005303833059F480916003882339F060935C
:1023F00084030F90DF91CF910C94690F0F90DF91C0
:10240000CF9108951092560380914803681309C034
:1024100060E472E082E292E00E94681180E00C9435
:10242000600F08950C940212CF93DF9390E0EC01BB
:10243000C75CDE4F28812223C1F02091560322235E
:1024400069F0019760E170E00E941732FC01E75CDF
:10245000FE4F40E0608181E00E940212888181117C
:102460000E94AF11888180933003DF91CF9108954E
:102470006BEA71E08DEF95E00E943C274AE050E066
:10248000609180038DEF95E00E942F2863EB71E04F
:102490008DEF95E00E943C274AE050E060913401C6
:1024A0008DEF95E00E943628809180038F5F6091C8
:1024B00034010E940B32892F909380030C941412E4
:1024C00080917F038F5F68E10E940B3290937F03BE
:1024D0009130D9F40E94381280911802909119021B
:1024E0000196909319028093180262EC71E08DEFCF
:1024F00095E00E943C2760911802709119024AE011
:1025000050E08DEF95E00C940B28809138018917ED
:1025100070F480915603882351F0E0918003F0E03D
:10252000E75CFE4F40E0608181E00C940212089568
:10253000809181039091820301969093820380930E
:1025400081032091370130E02817390770F480911A
:102550005603882351F0E0918003F0E0E75CFE4FE2
:1025600040E0608181E00E9402122091810330915D
:10257000820380913501909136018217930730F4E0
:102580000E94381210928203109281030895809164
:102590007E03813011F40C949812089590917D037C
:1025A000891304C090917B03992301F19091330129
:1025B0002CE0929F902D11249093830380937D03B0
:1025C00040E060917C0381E00E94021290918303BD
:1025D00080917D03890F8093840381110E94AF1144
:1025E00080917D0380937C0310927B0308959091EA
:1025F000600380915B03992371F0811120C081E019
:1026000080935B0380915E03811155C01092340169
:10261000109280030895882391F080918003809325
:1026200034018150809380034FE76091840381E0FF
:102630000E9402128091600380935B0308952091B1
:10264000620380915D03222311F1811125C081E095
:1026500080935D0380915E03882351F0992341F0BC
:102660006AEC71E08DEF95E00E9459270C94980F69
:1026700080918003E82FF0E0E75CFE4F10828F5FCF
:10268000609134010E940B32909380030895882357
:1026900019F010925D03089590915E0380915903A3
:1026A000992331F0811107C081E080935903089587
:1026B0008111109259030895DC01D0968D919C915F
:1026C000D197813F910509F4BCC03CF5803B910551
:1026D00009F45FC07CF480399105E9F1803A9105F5
:1026E00009F474C08038910509F0D8C0ED91FC91CF
:1026F000119770C0803D910509F478C02CF4803C9E
:10270000910509F478C00895803E910509F446C00A
:10271000803F910509F47CC008958A3F910529F115
:1027200074F4833F910509F4A4C00CF48FC0863F74
:10273000910509F4A7C0883F910591F008958C3F59
:102740009105E9F0BCF08E3F9105F1F08F3F9105C6
:1027500009F49DC008951296ED91FC9113973AC02B
:102760005896ED91FC91599796C05A96ED91FC912F
:102770005B9791C05C96ED91FC915D978CC05E96E5
:10278000ED91FC915F9787C09096ED91FC919197A8
:1027900082C01696ED91FC9117971CC01C96ED9186
:1027A000FC911D97309709F479C0D3966C91D3971B
:1027B0006F7720E8629FB0011124D2968C91D29756
:1027C0008F77682B70529F968C9109941496ED9197
:1027D000FC911597309709F461C0D3964C91D3972B
:1027E000D2966C91D2979F968C9109941A96ED91FE
:1027F000FC911B9704C01896ED91FC9119973097A6
:1028000009F44CC0D2966C91D2979F968C91099402
:102810001E96ED91FC911F97309709F43FC0D39617
:102820006C91D39770E0762F6627D2968C91D297D1
:10283000682B6138710510F060E870E0CD01C49636
:1028400009945096ED91FC91519717C05296ED91D5
:10285000FC915397309711F1D3968C91D3978F7742
:1028600020E8829FC0011124D2962C912F77822BD1
:1028700009945496ED91FC915597309779F0D29642
:102880008C9109945696ED91FC91579704C09296BD
:10289000ED91FC919397309709F0099408959C016C
:1028A0008F7C8038910561F0203D310549F081E051
:1028B000203E310539F0203C310521F080E00895BB
:1028C00081E00895089587FF0DC09CE0980F923035
:1028D00048F0982F9B7F993F29F0803F08F4807F34
:1028E00090E0089580E090E008950F931F93CF93B8
:1028F000DF938C01EB016D3F710554F46A3F710564
:1029000064F4663F710549F0683F710599F405C0AC
:10291000CB018E5F9109029768F4F801EB54FF4FE9
:1029200080819181DC01ED91FC910190F081E02D9D
:102930006C2F0995C63FD10511F4F80116A2DF915D
:10294000CF911F910F910895DF92EF92FF920F9315
:102950001F93CF93DF93EB01122F0150003118F436
:102960006038710524F4DC0196961C924AC0613EE1
:102970007105C4F54F77D42E602BFC0126A1AC0164
:102980004B545F4F7A01261759F066A3DA018D91F7
:102990009C91DC01ED91FC910190F081E02D099575
:1029A000F70180819181DC01ED91FC910190F08132
:1029B000E02D6D2D0995CF7EC03CD10511F1F701B9
:1029C00080819181DC01ED91FC91612F6F77019005
:1029D000F081E02DDF91CF911F910F91FF90EF904B
:1029E000DF9009949B01265F31092A30310548F4B4
:1029F000DF91CF911F910F91FF90EF90DF900C949A
:102A00007514DF91CF911F910F91FF90EF90DF90A0
:102A100008958F929F92AF92BF92DF92EF92FF92B2
:102A20000F931F93CF93DF931F92CDB7DEB7613122
:102A300008F0C6C24C018C010B541F4FD8018D9178
:102A40009C91DC01ED91FC910480F581E02D0995CC
:102A5000892B09F4B5C2F80180819181DC01ED91E7
:102A6000FC910680F781E02D09957C01F40125A5F4
:102A700036A52115310509F0D0C080A7D5A08D2D30
:102A80000E9463140E944F14882379F0E7FC0DC064
:102A9000D4019896DC9298979996EC92999781E058
:102AA00090E09E969C938E939D97F401F0A48F2DB9
:102AB0000E946314813F910509F463C094F5803B43
:102AC000910509F466C06CF48039910509F461C080
:102AD000803A910509F45DC08038910509F05FC026
:102AE00058C0803D910509F44CC02CF4803C910500
:102AF00009F447C054C0803E910509F44AC0803FA4
:102B0000910509F04CC020E830E0D4019C963C933C
:102B10002E939B9795961C92959720EFD4962C9385
:102B200045C0883F9105A9F044F4833F910549F1E0
:102B300084F1863F910569F032C08A3F91057CF1AE
:102B40008D3F910534F09C012E5F31092230310513
:102B500030F5D401D1969C938E93D0979F961C927A
:102B60009F97D2961C92D297D3961C9281E0F40143
:102B7000EC54FF4F8083F40116A615A614A613A6E5
:102B80001AC122E030E0D4019C963C932E939B978F
:102B90000DC023E030E0F40134A723A707C0F401FF
:102BA00016A615A614A613A615A20AC2D4019D96B0
:102BB0002D913C919E979B964D915C919C97BA016B
:102BC000615071092617370708F4EFC0D1969C931E
:102BD0008E93D0978F2D8F70FF24F394F80E9F96CD
:102BE000FC929F9799968C919997D2968C93D297B5
:102BF0004330510531F49A968C919A97D3968C93E1
:102C000002C0F40113AAD4019E961C921E929D97B5
:102C10009C961C921E929B9724C087FF4DC09927BB
:102C20008D3F91055CF48A3F910574F4873F9105CF
:102C3000F1F0883F910509F03FC006C0AC014E5F3E
:102C4000510942305105C0F5D401D1969C938E9321
:102C5000D097D2961C92D297D3961C92D3979F96D8
:102C60001C9281E0F401EC54FF4F8083A4C0F40176
:102C700084A9803FB9F5C9010196E20FF31F47EF20
:102C800044AB20EF30E0D401D1963C932E93D09703
:102C9000D2968C93D297D3969C93D3979F961C925F
:102CA00081E0F401EC54FF4F8083F40116A615A6D1
:102CB00014A613A615A27FC0F40180A5E20FF31F8E
:102CC000803FE1F4E4AAD4019B96AD90BC909C9720
:102CD000C50101972817390708F467C098962C9109
:102CE000203F71F4D4019E961C921E929D979C9653
:102CF0001C921E929B9795961C9262C1E0A6E3CF10
:102D0000822F29830E9463147C01F40191AB80AB74
:102D10000E944F142981882339F0822F8F708F5F92
:102D2000D4019F968C9302C0F40117A6D401999602
:102D30008C919997D2968C93B3E0AB16B10421F4A1
:102D4000F40182A583AB03C0D401D3961C92F40195
:102D500016A615A614A613A681E0EC54FF4F808397
:102D6000F0EBEF16F104D1F06CF4A0E9EA16F104EF
:102D7000A9F0B0EAEB16F10489F0E0E8EE16F104F0
:102D800081F40CC0F0EDEF16F10441F080EEE8168E
:102D9000F10421F0A0ECEA16F10419F4F40125A3E2
:102DA0000AC0D40195961C9206C02F5F3F4FF401D4
:102DB00036A725A705C1D401D0968D919C91D197B6
:102DC0008039910531F4D401D3968C91882309F48C
:102DD000F9C0F40180A991A9009771F08058910978
:102DE0008136910508F0F4C087A197A5981709F4DA
:102DF000EFC0882309F4ECC0D12CD40194962C9117
:102E00009497822F817020FFE9C0922F9E7F09F452
:102E1000E5C0D0966D917C91D197AB014058510996
:102E20004136510550F59F960C919F9797969C912E
:102E3000091719F081E0911180E0269530E02230E9
:102E4000310541F02330310591F02130310509F091
:102E5000C5C00FC0882309F4C1C0D401D3962C91FA
:102E6000D397D2964C91C4010E94A414B7C081118B
:102E7000B5C0F40123A942A9F6CFFB01E05FF10937
:102E8000E031F10508F0AAC0EA5AFF4F0C946C3209
:102E9000C4010E947514A2C07401F4E3EF0EF11C8A
:102EA0005701D401D3964C91D39750E0542F442727
:102EB000D2968C919A01282B2138310510F020E808
:102EC00030E0E20EF31EAE14BF0409F476C0F80140
:102ED00080819181D5016D915D01DC01ED91FC91C5
:102EE0000190F081E02D0995EECFD401D296FC90AF
:102EF000F80180819181DC01ED91FC910190F081DC
:102F0000E02D63EF09956F2D6F7770E0F8018081F8
:102F100091810E94420ED40196961C925FC0F401EA
:102F2000E3A8F0E8EF9E70011124D401D2968C91B1
:102F3000E82AF80180819181DC01ED91FC910190FA
:102F4000F081E02D62EF0995B7016F777727F801DF
:102F5000808191810E943B0EB701660F672F661F2B
:102F6000770B71956F777727D8018D919C910E948F
:102F70003B0E23C0D401D2968C918770B0E18B9F19
:102F8000C0011124F40123A92F70F22EF82AD801D0
:102F90008D919C91DC01ED91FC910190F081E02DEF
:102FA00061EF0995F80180819181DC01ED91FC913F
:102FB0000190F081E02D6F2D0995F40116A20EC04D
:102FC000D12C0CC080E890E0F40191AB80AB01CF34
:102FD000C4010E945C13DD24D3940FCF8D2D0F907C
:102FE000DF91CF911F910F91FF90EF90DF90BF90F5
:102FF000AF909F908F900895E9E7F2E08FE496E01C
:1030000090932F0380932E031182108213821282D9
:1030100015821482178216821186108613861286F4
:103020001586148617861686118A108A138A128AC4
:10303000158A148A178A168A118E108E138E128E94
:10304000158E148E178E168E11A210A213A212A224
:103050008AE695E1909378028093770290936E02CE
:1030600080936D028AE691E09093640280936302FC
:10307000E2E2F2E080E890E091838083168281E0D2
:10308000868782E0868B83E0868F84E086A315A204
:103090000895CF93DF931F92CDB7DEB789EF96E007
:1030A0000E94F22518161906A4F589EF96E00E94F1
:1030B0000326262F682F2930C9F49923D9F01092BE
:1030C000550310925403882321F069830E94AF11A5
:1030D000698180915303833009F7809160038823CD
:1030E000E9F2609384030E94690FD8CF283039F445
:1030F000492F01C040E0872F0E940212CFCF2F300E
:1031000019F40E946012CACF2B3041F6109280034E
:10311000C5CF0F90DF91CF9108954F925F926F923C
:103120007F92AF92BF92CF92DF92EF92FF920F9376
:103130001F93CF93DF930E9449186091A00289E703
:1031400092E00E940915C9E1D1E00BE6C02E03E030
:10315000D02E0EE011E086E0E82E81E0F82E888186
:1031600022960E94991FF601819391936F01F801B5
:1031700020812223A1F0F7012081318140910401B7
:1031800050910501B901640F751F681779072CF07C
:10319000241B350B8217930714F4F80110820F5F7C
:1031A0001F4FF2E0EF0EF11C81E0C132D807B9F6F3
:1031B000C1E2D1E00EE513E0888122960E94D3227D
:1031C00021E0892B09F020E0F80121938F0180E1B3
:1031D0000E94D32221E0892B09F020E0209358039C
:1031E000F1E0CB32DF0741F790915F0380915A0302
:1031F000992341F1811129C00E94490EE0915303A6
:10320000E150E0935303F0E03196E370FF27EE0FB7
:10321000FF1FE55DFE4F60E080810E94A322E091E8
:103220005303E370E0935303F0E0EE0FFF1FE55DFF
:10323000FE4F61E080810E94A32280915F03809312
:103240005A0303C0811110925A0390916103809137
:103250005C03992329F1811126C00E94490EE09157
:103260005303EF5FE0935303F0E0EE0FFF1FE75DC2
:10327000FE4F60E080810E94A322E0915303E3703F
:10328000E0935303F0E0EE0FFF1FE55DFE4F61E0BA
:1032900080810E94A3228091610380935C0303C01C
:1032A000811110925C0390915803809157039923E8
:1032B00081F081111AC080915303833039F48091D9
:1032C0006003882319F00E94690F0BC00E94381216
:1032D00008C0882351F040E06091300381E00E94F3
:1032E0000212809158038093570360916B03709191
:1032F0006C0380916303909164036817790709F464
:103300008BC080910E01811187C080915303813061
:1033100099F128F1823009F077C09B012E5E3F4F72
:10332000C901A0E0B0E09C01AD01F3E056954795DE
:1033300037952795FA95D1F730932A0220932902E1
:10334000A0912202B09123020E94883260932B0246
:1033500070932C0280932D0290932E0255C0CB01C6
:10336000770FAA0BBB0B80934A0390934B03A09358
:103370004C03B0934D0348C080E094E0861B970B4C
:10338000A5E0880F991FAA95E1F7092E000CAA0B5A
:10339000BB0B8093350390933603A0933703B09310
:1033A0003803072E000C880B990B0E94592F60934D
:1033B0004003709341038093420390934303CFB73C
:1033C000F89420E030E048E452E40E94AF2E20E080
:1033D00030E040E054E40E94093020E030E040E07A
:1033E0005CE30E94093020E030E040E857E40E94AE
:1033F00009300E94282F60935F02709360028093CF
:10340000610290936202CFBF80916B0390916C0335
:103410009093640380936303C0916D03D0916E0316
:103420008091650390916603C817D90709F4E0C03D
:1034300080910F018111DCC080915303813039F1FB
:1034400038F0823009F44BC0833009F467C0C8C03B
:10345000D595C795D595C7958C2FC0931201C0936C
:103460001B0220911A028095829FC0011124892F8E
:103470009927820F911D90931D0280931C028091C9
:103480005E03882309F4ACC0C0931A02A9C0BE0130
:10349000DD0F880B990B0E94592F609340037093A6
:1034A0004103809342039093430320E030E04AE7D6
:1034B00054E40E94AF2E60934403709345038093BD
:1034C000460390934703C1E020E030E0A9010E9449
:1034D000AA2E811101C0C0E0C0933F0381C0CE017C
:1034E000A0E0B0E09C01AD0163E0569547953795AB
:1034F00027956A95D1F73093320220933102A0913B
:103500002202B09123020E948832609333027093AA
:103510003402809335029093360262C080915E033C
:10352000882309F443C020917E03BE010D2E000CB8
:10353000880B990B223009F1209135013091360129
:1035400089011F921F921F932F93A12CB12C65010B
:10355000E12C14E0F12E00E010E020E030E0A901C1
:103560000E94D62B60933701CE0145E09595879553
:103570004A95E1F78093380115C01F921F921F9260
:1035800028E12F93A12CB12C6501EE24EA9413E0DD
:10359000F12E00E010E020E030E0A9010E94D62BDF
:1035A000609338010F900F900F900F9080915E0301
:1035B000811116C0C430D1051CF410927E0310C0D6
:1035C00081E080937E0313E0D595C7951A95E1F7C6
:1035D0008FE790E08C1B9D0B909336018093350113
:1035E00080916D0390916E039093660380936503C1
:1035F00080916F039091700320916703309168036D
:103600008217930799F12091100121112FC0209169
:103610005303213081F028F0223081F0233099F0DB
:103620001DC0880F892F881F990B01969093140154
:103630008093130113C090933E0310C080933F0208
:10364000809337020BC020916003222339F0C6E03B
:1036500095958795CA95E1F70E94CE1280916F03E8
:103660009091700390936803809367032091710396
:10367000309172038091690390916A03281739078A
:1036800009F461C08091110181115DC080915303E3
:103690008130B1F028F08230E1F08330C9F14BC0C5
:1036A000232F330F330B8091490390E028173907FC
:1036B00009F441C020934903822F0E940A113BC0A4
:1036C000211532401CF410923D0335C080933D0318
:1036D00032C0C901A0E0B0E09C01AD01A3E0569565
:1036E000479537952795AA95D1F7309342022093B5
:1036F0004102A0912202B09123020E94883260937D
:10370000430270934402809345029093460213C093
:10371000220F232F221F330B8091330190E02817B3
:10372000390749F02093330181E080937B03809136
:103730007D030E94CE128091710390917203909349
:103740006A038093690380915303833011F40E94CC
:10375000F712E0915002F09151028081823091F095
:1037600038F4882361F08130B1F468E372E00FC06F
:10377000833059F0843079F410925A020CC060E31F
:1037800072E005C060E472E002C068E472E082E2C8
:1037900092E00E94A01180913F03882309F490C118
:1037A00080913D03811128C040915F0250916002D9
:1037B000609161027091620280915B0290915C0263
:1037C000A0915D02B0915E02840F951FA61FB71FE6
:1037D00080935B0290935C02A0935D02B0935E02C3
:1037E000CD019170E0916302F0916402E80FF91F3E
:1037F000E491E0934E03AEC00E94E91E00913903AC
:1038000010913A0320913B0330913C03AB01BC0182
:10381000401B510B620B730B809135039091360363
:10382000A0913703B0913803E3E0880F991FAA1FD6
:10383000BB1FEA95D1F784179507A607B707E8F4E9
:1038400064EF70E080E090E00E948A20A0E0B0E0A9
:10385000DC01992788278093310390933203A0934A
:103860003303B09334030E94E91E609339037093CD
:103870003A0380933B0390933C0340907303509032
:1038800074036090750370907603609131037091BA
:10389000320380913303909134030E94572F6B01C0
:1038A0007C01C301B2010E94572F9B01AC01C701EB
:1038B000B6010E943D2E6B017C0120917103309175
:1038C0007203359527953595279580E091E0821B09
:1038D000930BBC01990F880B990B0E94572F9B01EA
:1038E000AC01C701B6010E94AF2E0E94212F609348
:1038F0007703709378038093790390937A032FB7BB
:10390000F894409173035091740360917503709122
:1039100076038091770390917803A0917903B09119
:103920007A03840F951FA61FB71F8093730390938C
:103930007403A0937503B09376032FBF8091730334
:1039400090917403A0917503B091760380E88A0F7B
:1039500080934E0380913E0381112CC060914E03F1
:10396000062E000C770B880B990B0E94592F209183
:1039700044033091450340914603509147030E9410
:10398000093020914F0330915003409151035091E1
:1039900052030E943E2EAB01BC014093150150938F
:1039A000160160931701709318018FE692E00E9450
:1039B000421110C080914F0390915003A091510388
:1039C000B09152038093150190931601A0931701B3
:1039D000B093180180913E03813009F04AC0609194
:1039E000120170E080E090E00E94592F6B017C0191
:1039F00080914E03682F880F770B880B990B0E94DC
:103A0000592F2B013C0120E030E04CEF52E4609153
:103A100044037091450380914603909147030E94AF
:103A200009309B01AC01C301B2010E943E2E9B01F3
:103A3000AC01C701B6010E943E2E0E94212F6F3FAC
:103A4000710514F06EEF70E077FF02C060E070E087
:103A500060931B0280911A026095689FB001112447
:103A6000672F7727680F711D70931D0260931C02EA
:103A700027C0823029F560914E03062E000C770B8B
:103A800060587F4F072E000C880B990B0E94592F0E
:103A900020914403309145034091460350914703E0
:103AA0000E9409300E94212F60934A0370934B03B8
:103AB00080934C0390934D0310925503109254033E
:103AC0006091130170911401072E000C880B990B63
:103AD0000E94592F20911501309116014091170134
:103AE000509118010E9409300E94212F2FB7F8949D
:103AF000CB01770FAA0BBB0B3CE0880F991FAA1FC5
:103B0000BB1F3A95D1F78093690290936A02A09304
:103B10006B02B0936C022FBFDF91CF911F910F9179
:103B2000FF90EF90DF90CF90BF90AF907F906F901D
:103B30005F904F900C94C7120E948D180C948F1FA9
:103B40009091970580919605981306C090919905DC
:103B50008091980598131AC00E945E0E20919705D7
:103B6000E22FF0E0EE0FFF1FEA56FC4F8C509F4F04
:103B7000918380832F5F20939705211107C0909137
:103B8000990581E0892780939905089508951F92EA
:103B90000F920FB60F9211242F933F938F939F9301
:103BA000AF93BF93EF93FF9381E0909185039111C1
:103BB00080E080938503882361F180919605E82F4A
:103BC000F0E0EE0FFF1FEA56FC4F208131818F5F3E
:103BD00080939605811119C09091980581E08927FD
:103BE0008093980580919A0590919B05A0919C05E2
:103BF000B0919D050196A11DB11D80939A059093EA
:103C00009B05A0939C05B0939D053093890020935C
:103C10008800FF91EF91BF91AF919F918F913F915C
:103C20002F910F900FBE0F901F9018959F92AF92FB
:103C3000BF92CF92DF92EF92FF920F931F93CF9399
:103C4000DF93EC0180E00E943C1F84B580939503D4
:103C500085B58093940387B5809393030EE610E0B7
:103C6000F8018081809392039E0140E050E060E47F
:103C700072E48FE090E00E944D32DA01C90140E029
:103C80006CE97DE10E949B210E94F22184B5809322
:103C90008D0385B580938C0387B580938B03F801E2
:103CA000808180938A0300E810E0F801808180938E
:103CB0009103C1E8D0E088818093900388E8A82E22
:103CC000B12CF5018081918180938F039FE6C92EED
:103CD000D12CF601808180938E0361E089E00E94FF
:103CE000672223EFE22E25E0F22EF701128298E1FF
:103CF000938382E084839883F801808388EE91E047
:103D0000A0E0B0E0992493949092F0059093F2058E
:103D10008093F105909387008093860089E18883E2
:103D200061E089E00E946722F8019081F7018481B7
:103D3000892B8068F80180832091F1053091F2058C
:103D4000A4EFB0E00E947232DC01CB013AE0B695FC
:103D5000A795979587953A95D1F7F501918380833B
:103D60009091F005F7018381892B8883F601908279
:103D7000F801808180938903888180938803F5010D
:103D80008081918180938703F601808180938603EF
:103D9000DF91CF911F910F91FF90EF90DF90CF9027
:103DA000BF90AF909F9008952091960580919A05BD
:103DB00090919B05A0919C05B0919D05BA2FA92FCC
:103DC000982F8827BC01CD01620F711D811D911DA7
:103DD00008950E94D41E9B01AC01ADE3B0E00E94A7
:103DE00088320895109296051092970510929805C2
:103DF000109299050895811109C080917A0084601C
:103E000080937A0080917A008D7F1AC0813071F49E
:103E100080917A008B7F80937A0080917A00826013
:103E200080937A0080917A0081600FC0823079F4AB
:103E300080917A008B7F80937A0080917A008260F3
:103E400080937A0080917A008E7F80937A00089523
:103E500080E090E061E070E040917E009B01082EE0
:103E600001C0220F0A94EAF7242B20937E000196CA
:103E70008C30910589F70895EAE7F0E09081986029
:103E800090830E94FB1E0C94281F823108F08251FF
:103E9000E82FF0E0EB58F64E84910895EBE7F0E060
:103EA000908183FB222720F930E045E0220F331F69
:103EB0004A95E1F79F7D292B20838770806480934A
:103EC0007C00EAE7F0E08081806480830895CF93EE
:103ED000DF931F92CDB7DEB78091AA059091AB0515
:103EE0008F3F2FEF920761F0FC01E256FA4F2081DD
:103EF000298301979093AB058093AA05898101C01E
:103F00008FEF80937A0180917A018F3F21F0809129
:103F10007A010E944E1F0F90DF91CF9108958091FA
:103F20007A018F3F29F40E94671F81E08093790115
:103F300008950E94451F2091AA053091AB052B30B2
:103F4000310554F42F5F3F4F3093AB052093AA0502
:103F5000F901E256FA4F8083E82FF0E0EE0FFF1FE1
:103F6000E455FA4F808191810895EAE7F0E080817D
:103F7000806480830895E0917A0180917800909127
:103F80007900EE0FFF0BE455FA4F9183808308957B
:103F90001F920F920FB60F9211242F933F934F93BE
:103FA0005F936F937F938F939F93AF93BF93EF93A1
:103FB000FF9380917901882329F00E94B51F109208
:103FC000790107C00E94BB1F0E94671F81E0809398
:103FD0007901FF91EF91BF91AF919F918F917F9167
:103FE0006F915F914F913F912F910F900FBE0F9066
:103FF0001F9018958FEF9FEF9093AB058093AA05C4
:104000000895CF92DF92EF92FF926B017C0120E046
:1040100030E0A9010E94AA2E8823B9F020E030E008
:1040200040E451E4C701B6010E94AF2E9B01AC01F0
:1040300060E070E080E090E40E94763023E130EDB3
:1040400042E051E40E94093003C060E070E0CB011F
:10405000FF90EF90DF90CF9008950F931F93809182
:10406000830190918401A0918501B0918601BC01EA
:104070005527442784279527A627B727AC01BD01DC
:1040800035E076956795579547953A95D1F784270A
:104090009527A627B72740917F0150918001609115
:1040A0008101709182014093830150938401609358
:1040B00085017093860100917B0110917C01209114
:1040C0007D0130917E0100937F0110938001209348
:1040D00081013093820140275127622773274827A7
:1040E00059276A277B27880F991FAA1FBB1F8A01A0
:1040F0009B01082719272A273B27C901B8010093EC
:104100007B0110937C0120937D0130937E011F91F0
:104110000F9108950F931F93CF93DF938C01EB01C1
:104120000E942D209B01AC0144275527DE01A01BD6
:10413000B10B0E949332800F911FDF91CF911F919D
:104140000F91089582E08093EF058FEF8093CA0569
:104150001092CC058091C40581508093CB0580914D
:10416000C505880F81608093ED0585EE8093BC00C6
:10417000089584E08093EF058FEF8093CA05109235
:10418000CC058091C6058093CB05A091C705B09161
:10419000C8052DEC35E0F9019E2F921B981718F4F5
:1041A0009D919193F9CF8091C90590E0880F991F57
:1041B0008093ED0585EE8093BC00089585ED809396
:1041C000BC008091BC0084FDFCCF8091EF05809302
:1041D000EE051092EF058091EE05833011F40C94FA
:1041E000B9208091EE05813011F40C94A22008953D
:1041F00085EC8093BC008091EF058093EE051092D2
:10420000EF058091EE05833011F40C94B920809174
:10421000EE05813011F40C94A22008951F920F92A4
:104220000FB60F9211242F933F934F935F936F9389
:104230007F938F939F93AF93BF93EF93FF9380915F
:10424000B900887F883239F170F4803109F130F497
:10425000882309F45BC08830D9F05CC08831D9F07C
:10426000803261F157C08034C1F150F4803331F1B4
:10427000883309F04FC08093CA050E94F8204AC0D5
:104280008035F9F08835A9F1883409F043C040C081
:104290008091ED0510C09091CC058091CB059817C9
:1042A000B8F5E091CC0581E08E0F8093CC05F0E06D
:1042B000E353FA4F80818093BB0015C08093CA05F9
:1042C00027C0E091CC0581E08E0F8093CC058091D2
:1042D000BB00F0E0E353FA4F80839091CC058091CE
:1042E000CB05981710F485EC01C085E88093BC00DD
:1042F00011C0E091CC0581E08E0F8093CC058091B8
:10430000BB00F0E0E353FA4F808302C01092CA056D
:104310000E94DE20FF91EF91BF91AF919F918F910D
:104320007F916F915F914F913F912F910F900FBEB1
:104330000F901F901895CF92DF92EF92FF9270939B
:10434000FB056093FA054093FC05A0E0B0E034E083
:10435000880F991FAA1FBB1F3A95D1F720E030E0C4
:10436000F901E659F64EE491EE2381F06C017D01EE
:10437000022E04C0F694E794D794C7940A94D2F717
:1043800051E0C516D506E104F10438F02F5F3F4F28
:104390002B30310529F780E020C0A1E0B0E002C059
:1043A000AA0FBB1F2A95E2F7A70196010E9493323C
:1043B000DC01CB0124E0B595A795979587952A95C3
:1043C000D1F79093F9058093F80510926E0082E082
:1043D00084BDE5BDCA94C7BC81E0FF90EF90DF903B
:1043E000CF900895EEE6F0E08081826080830895AA
:1043F00078941F920F920FB60F9211242F933F9330
:104400004F935F936F937F938F939F93AF93BF93DC
:10441000EF93FF9310926E00E091FA05F091FB0587
:104420000995F8948091FC05882311F016BCA99A8F
:1044300080916E00826080936E00FF91EF91BF913A
:10444000AF919F918F917F916F915F914F913F912C
:104450002F910F900FBE0F901F90189590E0FC01C8
:104460003197EE30F10590F5EA59FF4F0C946C321C
:10447000809180008F7703C0809180008F7D809332
:104480008000089584B58F7702C084B58F7D84BD88
:104490000895809190008F7707C0809190008F7D64
:1044A00003C080919000877F809390000895809151
:1044B000C0008F7703C08091C0008F7D8093C000C3
:1044C00008958091C200877F8093C2000895CF93A2
:1044D000DF9390E0FC01E056F64E2491FC01E1549C
:1044E000F64E8491882361F190E0880F991FFC01BA
:1044F000E650F64EC591D491FC01E451F64EA591DB
:10450000B491611109C09FB7F894888120958223E6
:104510008883EC912E230BC0623061F49FB7F8942E
:104520003881822F809583238883EC912E2B2C93C6
:104530009FBF06C08FB7F894E8812E2B28838FBFCA
:10454000DF91CF9108951F93CF93DF93282F30E011
:10455000F901EF57F64E8491F901E056F64ED491E9
:10456000F901E154F64EC491CC23C9F0162F811104
:104570000E942E22EC2FF0E0EE0FFF1FE451F64ECA
:10458000A591B4918FB7F894111105C09C91ED2FAE
:10459000E095E92302C0EC91ED2BEC938FBFDF9106
:1045A000CF911F910895CF93DF93282F30E0F90129
:1045B000EF57F64E8491F901E056F64ED491F90189
:1045C000E154F64EC491CC2391F081110E942E2229
:1045D000EC2FF0E0EE0FFF1FE252F64EA591B491E2
:1045E000EC91ED2381E090E021F480E002C080E0D6
:1045F00090E0DF91CF91089580914B0690914C0609
:1046000020914D0630914E06821B930B8F73992794
:10461000089520914B0630914C0680914D06909163
:104620004E062817390749F0E0914D06F0914E06E5
:10463000E55FF94F808190E008958FEF9FEF089537
:1046400020914B0630914C0680914D0690914E067C
:1046500028173907A9F0E0914D06F0914E06E55F65
:10466000F94F808120914D0630914E062F5F3F4FCC
:104670002F73332730934E0620934D0690E0089514
:104680008FEF9FEF0895CF93DF93C0914B06D091AA
:104690004C062196CF73DD2780914D0690914E06F2
:1046A000C817D90799F082E00E94B8288F3F2FEFF2
:1046B000920761F0E0914B06F0914C06E55FF94FEF
:1046C0008083D0934C06C0934B06DFCFDF91CF9110
:1046D000089583E00C94432B0F931F93CF93DF93A4
:1046E0001F92CDB7DEB78C01698380918E0188233C
:1046F00059F041E050E0BE016F5F7F4F83E00E94C0
:10470000FC28181619063CF081E090E0F80193832C
:10471000828380E090E00F90DF91CF911F910F9105
:104720000895FC0190819E5F908342E450E068E030
:104730007AE180E80C949429FC0181819081913A7E
:1047400059F4813209F04DC047E050E067E871E06C
:1047500080E00E94942947C0913209F042C0803223
:1047600039F467E070E087E891E00E94DB293BC004
:10477000823209F036C0828180938E018091870158
:1047800090918801A0918901B0918A01803B944069
:10479000A105B10541F580918E0180FD11C087E72B
:1047A00097E790930108809300089BE088E10FB69B
:1047B000F894A895809360000FBE9093600013C09A
:1047C0000FB6F894A895809160008861809360008E
:1047D000109260000FBEA895109201081092000878
:1047E00002C080E0089581E00895EDEFF5E01382C6
:1047F000128288EE93E0A0E0B0E084839583A683E4
:10480000B7838BED91E0918380830895FC0124852B
:104810003585F901E05CFF4F8081918132962081DE
:104820003181821B930B8F7399270895DC011C96AD
:10483000ED91FC911D97DF01A05CBF4F2D913C9144
:10484000119712968D919C9111972817390739F07D
:104850008D919C91E80FF91F808190E008958FEF72
:104860009FEF0895FC01A485B585FD01E05CFF4F35
:10487000208131813296808191812817390779F022
:1048800080819181A80FB91F8C91208131812F5F88
:104890003F4F2F7333273183208390E008958FEFAC
:1048A0009FEF0895FC0181A1882329F0A489B5898F
:1048B0008C9186FFFBCF11A208950F931F93CF9386
:1048C000DF93FC01A685B7858D01005C1F4FE801D1
:1048D0008881998101968F739927AD014E5B5F4F57
:1048E000EA012881398182179307D1F3E8012881F1
:1048F0003981A20FB31F6C93A685B785A05CBF4F0B
:1049000011969C938E93A689B7892C9181E090E0B3
:10491000078C02C0880F991F0A94E2F7822B8C93B0
:1049200081E081A30488F589E02D80818064808303
:1049300081E090E0DF91CF911F910F91089508954C
:104940001F920F920FB60F9211242F934F935F93E4
:104950008F939F93EF93FF938091C80082FD1CC0BB
:104960002091CE008091F5069091F60601968F7306
:1049700099274091F7065091F8068417950771F032
:10498000E091F506F091F606EB54F94F20839093F1
:10499000F6068093F50602C08091CE00FF91EF915C
:1049A0009F918F915F914F912F910F900FBE0F901C
:1049B0001F9018958FE496E00E940624892B11F031
:1049C0000C949F2408951F920F920FB60F921124FA
:1049D0002F933F938F939F93EF93FF932091B10673
:1049E0003091B2068091B3069091B406281739072A
:1049F00031F48091C9008F7D8093C90014C0E0918B
:104A0000B306F091B406EF58F94F20818091B306B8
:104A10009091B40601968F7399279093B406809372
:104A2000B3062093CE00FF91EF919F918F913F911C
:104A30002F910F900FBE0F901F901895CF92DF927D
:104A4000EF92FF920F931F93CF93DF93EC016A01D4
:104A50007B014115514E6105710509F1EC89FD8914
:104A600081E090E008A002C0880F991F0A94E2F745
:104A7000808360E079E08DE390E0A70196010E94D9
:104A80002B3289019A01015011092109310936950A
:104A9000279517950795980101151041A8F0EC8905
:104AA000FD89108260E874E88EE190E0A70196012C
:104AB0000E942B32DA01C9010197A109B109B6950B
:104AC000A795979587959C01E889F9893083EA89AC
:104AD000FB89208319A2EE89FF89408181E090E063
:104AE0009C010C8C02C0220F331F0A94E2F7242B86
:104AF0002083EE89FF8940819C010D8C02C0220F2A
:104B0000331F0A94E2F7242B2083EE89FF8940812A
:104B10009C010E8C02C0220F331F0A94E2F7242B53
:104B20002083EE89FF8920810F8C02C0880F991F96
:104B30000A94E2F7809582238083DF91CF911F91C1
:104B40000F91FF90EF90DF90CF900895EFE4F6E0A3
:104B50001382128288EE93E0A0E0B0E08483958314
:104B6000A683B7838DEE91E09183808385EB96E0F9
:104B70009587848781E796E0978786878DEC90E01C
:104B8000918B808B8CEC90E0938B828B88EC90E007
:104B9000958B848B89EC90E0978B868B8AEC90E0E8
:104BA000918F808F8EEC90E0938F828F84E0848F42
:104BB00083E0858F87E0868F85E0878F81E080A303
:104BC00008950E94AE2C8FE397E00E944D2B0E9427
:104BD000F50FCAEDD4E20E945E0F2097E1F30E9428
:104BE000DA24F9CFFC01EE5BFF4F80819181329690
:104BF00020813181821B930B8F739927969587951E
:104C0000969587950895CF93DF93EC01E881F9811C
:104C10000480F581E02D0995CC5BDF4F2881398137
:104C20002C5F3F4F2F73332739832883DF91CF9138
:104C30000895CF92DF92EF92FF920F931F93CF933D
:104C4000DF937C018C010E5B1F4FD801CD91DC916D
:104C50002196CF73DD276C01B4E4CB0ED11CF60195
:104C600080819181C817D907B9F085E00E94B828E2
:104C70008F3FEFEF9E0781F0D801ED91FC911197E6
:104C8000EE0DFF1D82831196DC93CE93CD91DC91C6
:104C90002196CF73DD27E3CFDF91CF911F910F9145
:104CA000FF90EF90DF90CF90089586E00C94432B17
:104CB000CF93DF9300D000D0CDB7DEB749835A83BE
:104CC0006B837C8386E00E94E928811103C080E029
:104CD00090E00BC044E050E0BE016F5F7F4F86E084
:104CE0000E94FC281816190694F70F900F900F9049
:104CF0000F90DF91CF91089587E797E79093010890
:104D0000809300089BE088E10FB6F894A895809303
:104D100060000FBE909360000895FF920F931F9361
:104D2000CF93DF93EC01E881F9810190F081E02DD0
:104D30000995181619062CF060E070E080E090E00C
:104D400039C0FE01EC5BFF4FA081B181AC0FBD1FEC
:104D50001296FC9080819181019620E430E0B901A7
:104D60000E941732DE01A80FB91F12960C918081A4
:104D700091810296B9010E941732DE01A80FB91F76
:104D800012961C91808191810396B9010E9417327D
:104D9000C80FD91FCA8187E0F81208C0003F31F45C
:104DA000C73F21F4113011F40E947C266F2D702F23
:104DB000812F9C2FDF91CF911F910F91FF9008952C
:104DC000FC0190819F5F908342E150E060E97AE1CD
:104DD00080E80C949429FC0190819F5F908346E4C5
:104DE00050E06AE47AE180E80C94942980E0089528
:104DF0008DEF91E09093FA068093F9060895CF9293
:104E0000DF92EF92FF920F931F93CF93DF936C018A
:104E1000EB017B01E40EF51E00E010E0CE15DF058E
:104E200061F06991D601ED91FC910190F081E02D46
:104E3000C6010995080F191FF1CFC801DF91CF9165
:104E40001F910F91FF90EF90DF90CF900895611523
:104E5000710579F0FB0101900020E9F73197AF016E
:104E6000461B570BDC01ED91FC910280F381E02D94
:104E7000099480E090E008950C942727DC01ED91DF
:104E8000FC910190F081E02D09940F931F93CF9333
:104E9000DF93EC016DE00E943E278C016AE0CE01B9
:104EA0000E943E27800F911FDF91CF911F910F919C
:104EB00008950F931F93CF93DF93EC010E94272750
:104EC0008C01CE010E944527800F911FDF91CF9169
:104ED0001F910F9108958F929F92AF92BF92CF92A0
:104EE000DF92EF92FF920F931F93CF93DF93CDB793
:104EF000DEB7A1970FB6F894DEBF0FBECDBF6C0131
:104F0000142FE52FCB01022F19A2223008F40AE05A
:104F10007E0121E2E20EF11C802E912CA12CB12CFD
:104F2000612F7E2FA50194010E942B32029F101940
:104F3000112481E0E81AF1081A3014F4105D01C060
:104F4000195CF7011083122FE32FCA01232B242BA6
:104F5000252B31F7B701C6010E942727A1960FB66E
:104F6000F894DEBF0FBECDBFDF91CF911F910F919F
:104F7000FF90EF90DF90CF90BF90AF909F908F9079
:104F80000895CF92DF92EF92FF920F931F93CF93EA
:104F9000DF93EC016A017B012115310579F4E88189
:104FA000F9810190F081E02D642FDF91CF911F9165
:104FB0000F91FF90EF90DF90CF9009942A30310548
:104FC000E9F477FF1AC06DE20E943E278C01442766
:104FD0005527BA014C195D096E097F092AE0CE01F7
:104FE0000E946B27800F911FDF91CF911F910F912E
:104FF000FF90EF90DF90CF9008952AE0B701A601CF
:10500000CE01DF91CF911F910F91FF90EF90DF9034
:10501000CF900C946B270F931F93CF93DF93EC01EA
:105020009A01AB01770F660B770B0E94C1278C01A9
:10503000CE010E944527800F911FDF91CF911F91D4
:105040000F9108952115310541F4DC01ED91FC919A
:105050000190F081E02D642F09940C946B279A0144
:10506000462F50E060E070E00C9422280F931F93CD
:10507000CF93DF93EC019A01462F50E060E070E09F
:105080000E9422288C01CE010E944527800F911F8B
:10509000DF91CF911F910F910895615030F02091D1
:1050A000F100FC0120830196F8CF289884E68093D4
:1050B000460708952FB7FC012083F894677060932A
:1050C000E9000895CF93DF931F92CDB7DEB7682F25
:1050D000CE0101960E945A288091F20099819FBFCB
:1050E0000F90DF91CF910895EF92FF920F931F934E
:1050F000CF93DF931F92CDB7DEB7909145079923E9
:1051000011F057FF03C08FEF9FEF2AC08A017B0188
:10511000682FCE0101960E945A288091F20090E0FB
:10512000A801801791070CF4AC01842FF70194E6D5
:10513000815038F02898909346072091F1002193F0
:10514000F7CF4115510521F08091F200882321F01D
:1051500089818FBFCA0104C08BE68093E800F8CF35
:105160000F90DF91CF911F910F91FF90EF900895D5
:10517000CF93DF931F92CDB7DEB741E050E0BE0181
:105180006F5F7F4F0E947428019719F4898190E026
:1051900002C08FEF9FEF0F90DF91CF910895CF93D3
:1051A000DF931F92CDB7DEB7682FCE0101960E9424
:1051B0005A289091E800892F807295FF04C0909141
:1051C000F20080E4891B99819FBF0F90DF91CF91FE
:1051D0000895CF93DF931F92CDB7DEB7682FCE012E
:1051E00001960E945A288091E80099819FBF8072A1
:1051F0000F90DF91CF9108954F925F926F927F92BF
:105200008F929F92AF92BF92CF92DF92EF92FF92D6
:105210000F931F93CF93DF931F92CDB7DEB7A82EC6
:105220006B01B42E052F80914507882369F0E42E89
:10523000F52E8AEF782E8A2D8072582E9AE3692EE9
:105240008A2D8074482E12C08FEF9FEF50C08A2D98
:105250000E94CF28182F81110DC07A947720A1F3D6
:1052600061E070E080E090E00E94862CE114F1049F
:1052700071F733C090E0E816F9060CF41E2D812E6C
:10528000912CE818F9086A2DCE0101960E945A283F
:10529000552029F01150A8F01092F100FBCFF60133
:1052A000A7FE07C0115058F084918093F100319609
:1052B000F9CF115020F081918093F100FACFC80C02
:1052C000D91C8091E80085FF0FC0E114F10411F4AE
:1052D00041100AC089818FBFC9CF5D9884E6809351
:1052E00047078B2D902F03C06092E800F3CF0F90FB
:1052F000DF91CF911F910F91FF90EF90DF90CF90B2
:10530000BF90AF909F908F907F906F905F904F90E5
:1053100008951092E9001092440710924307909369
:1053200042078093410708950F931F93CF93DF9314
:10533000DB01A40FB51FFB016EEFEA17FB0791F12C
:1053400087FF02C0249101C0208100914307109182
:105350004407C0914107D09142070C171D07B4F4D0
:105360009091E8009570E1F39091E80092FD1CC0E7
:105370002093F10020914307309144072F5F3F4F66
:105380002F733327232B11F46093E80020914307F8
:10539000309144072F5F3F4F3093440720934307DA
:1053A0003196CBCFCA0102C08FEF9FEFDF91CF9133
:1053B0001F910F9108951F93CF93DF931F92CDB745
:1053C000DEB7162F2091E80022FFFCCF612F7983F2
:1053D0000E944D288BEF8093E800812F7981972FD1
:1053E0000F90DF91CF911F910895CF93DF931F927C
:1053F000CDB7DEB71982CE0101960E949123CE016E
:1054000001960E94222DCE0101960E94E026CE0137
:1054100001960E94EB26898190E00F90DF91CF9159
:1054200008951F920F920FB60F921124CF92DF9220
:10543000EF92FF921F932F933F934F935F936F933E
:105440007F938F939F93AF93BF93EF93FF93CF93EC
:10545000DF93CDB7DEB76197DEBFCDBF1092E90015
:105460008091E80083FFF1C068E0CE010A960E94B7
:105470004D2882EF8093E8009A8597FF05C08091C0
:10548000E80080FFFCCF03C08EEF8093E800892FF7
:10549000807609F0B8C08B85811105C01092F100AB
:1054A0001092F100CBC0282F2D7F213009F4C6C007
:1054B000853049F48091E80080FFFCCF8C858068BE
:1054C0008093E300BBC0863009F06FC01D85E8887B
:1054D000F988123069F580E090E00E9489290E94E5
:1054E000F52999E09E012F5F3F4F6901F901292FAE
:1054F00011922A95E9F799831A8391E09E8390E8A7
:1055000098879AEF99872091430730914407275F46
:105510003F4F3C832B838D83C7010E94892949E03B
:1055200050E0B60180E00E9494290E94F52986C0CF
:10553000C7010E948929123241F482E290E00E9460
:105540002D2D892B09F07AC07DC0113069F488892E
:105550009989089711F410934007809140078111B1
:1055600011C06BEB7AE116C0133009F06BC08C856B
:10557000882359F0823061F0813009F063C06DEC0E
:105580007AE108C069EA7AE105C06FE07BE102C018
:105590006DEE7AE16115710509F454C0FB01449187
:1055A00050E080E80E94942949C0873009F44AC03D
:1055B000883021F481E08093F10040C0893009F007
:1055C0003DC0937009F03EC080E090E031E026E3FA
:1055D00041E0480F4093E9003093EB000196FC0155
:1055E000EE55F54EE491E093EC002093ED0086300B
:1055F000910571F78EE78093EA001092EA008C859E
:10560000809345071BC0888999890E9489298E85C6
:10561000811105C0CE010A960E949C230DC08230E4
:1056200029F4CE010A960E94552D06C0843051F40B
:10563000CE010A960E94F626882321F08EEF8093F1
:10564000E80003C081E28093EB0061960FB6F89406
:10565000DEBF0FBECDBFDF91CF91FF91EF91BF9124
:10566000AF919F918F917F916F915F914F913F91FA
:105670002F911F91FF90EF90DF90CF900F900FBE72
:105680000F901F9018958093E9008091F200882375
:1056900019F08AE38093E80008951092450781E0AD
:1056A0008093D70080EA8093D80082E189BD09B455
:1056B00000FEFDCF61E070E080E090E00E94862C6B
:1056C00080E98093D8008CE08093E2001092E000A3
:1056D000559A209A08951F920F920FB60F92112497
:1056E0002F933F934F935F936F937F938F939F93EA
:1056F000AF93BF93EF93FF938091E1001092E1008D
:1057000083FF0FC01092E90091E09093EB0010929C
:10571000EC0092E39093ED001092450798E090938F
:10572000F00082FF32C083E00E94432B82E00E949F
:105730006228882321F08DEF95E00E94432386E0C4
:105740000E94432B85E00E946228882321F089EF84
:1057500096E00E94192680914707882339F08091AE
:105760004707815080934707882369F08091460757
:10577000882359F080914607815080934607811114
:1057800004C0289A02C05D9AF1CFFF91EF91BF91BA
:10579000AF919F918F917F916F915F914F913F91C9
:1057A0002F910F900FBE0F901F9018954F925F9200
:1057B0006F927F92AF92BF92CF92DF92EF92FF9261
:1057C0000F931F93CF93DF93CDB7DEB729013A0133
:1057D0009B01AC01241935094609570989899A8921
:1057E000AB89BC89BC01CD016A197B098C099D0973
:1057F0000E94FB31A8019701241935094609570970
:105800000E944D32CA01B9016A0D7B1D8C1D9D1D80
:10581000DF91CF911F910F91FF90EF90DF90CF908C
:10582000BF90AF907F906F905F904F9008951F92C0
:105830000F920FB60F9211242F933F938F939F9344
:10584000AF93BF938091490790914A07A0914B076E
:10585000B0914C073091480723E0230F2D3720F4F7
:105860000196A11DB11D05C026E8230F0296A11DBA
:10587000B11D209348078093490790934A07A0934E
:105880004B07B0934C0780914D0790914E07A09124
:105890004F07B09150070196A11DB11D80934D0790
:1058A00090934E07A0934F07B0935007BF91AF91CD
:1058B0009F918F913F912F910F900FBE0F901F904E
:1058C00018953FB7F89480914D0790914E07A0919D
:1058D0004F07B091500726B5A89B05C02F3F19F080
:1058E0000196A11DB11D3FBFBA2FA92F982F882760
:1058F000820F911DA11DB11DBC01CD0142E0660FBB
:10590000771F881F991F4A95D1F70895CF92DF928C
:10591000EF92FF92CF93DF936B017C010E94612C89
:10592000EB01C114D104E104F10489F00E943C2E82
:105930000E94612C6C1B7D0B683E734090F381E0EC
:10594000C81AD108E108F108C851DC4FEACFDF914D
:10595000CF91FF90EF90DF90CF900895789484B529
:10596000826084BD84B5816084BD85B5826085BD5B
:1059700085B5816085BDEEE6F0E080818160808341
:10598000E1E8F0E010828081826080838081816024
:105990008083E0E8F0E0808181608083E1E9F0E0ED
:1059A000808182608083808181608083E0E9F0E093
:1059B000808181608083E1ECF0E08081846080837D
:1059C000808182608083808181608083E3ECF0E06D
:1059D000808181608083E0ECF0E080818260808360
:1059E000E2ECF0E0808181608083EAE7F0E0808192
:1059F00084608083808182608083808181608083F5
:105A00008081806880830895EF92FF921F93CF93E7
:105A1000DF93EC01162FE881F9810480F581E02DF8
:105A200009957C01E881F9810680F781E02D612FDD
:105A3000CE010995C7019927DF91CF911F91FF9062
:105A4000EF900895FC0190819F5F908349E150E0C1
:105A500063E97BE180E80C94942945E650E06CEA28
:105A60007BE180E80C949429EF92FF920F931F93AF
:105A7000CF93DF931F92CDB7DEB789838B017A0175
:105A800041E050E0BE016F5F7F4F84E00E94FC2840
:105A9000A701B80184E40E94FC280F90DF91CF9108
:105AA0001F910F91FF90EF900895FC0191818081EB
:105AB000813A31F481E0913091F0933089F411C052
:105AC000813271F49B3021F482818093900105C072
:105AD0009A3031F4828180938F0181E00895089596
