:100000000C9410140C9438140C9438140C94381468
:100010000C9438140C9438140C9438140C94381430
:100020000C9438140C9438140C94FC2C0C94A72BBE
:100030000C9438140C9438140C9438140C94381410
:100040000C9438140C9438140C9438140C94381400
:100050000C9449200C94EB230C9438140C94672DC9
:100060000C9438140C9493260C94D6260C943814C3
:100070000C9438140C9432220C9438140C943814C8
:100080000C9438140C9438140C9438140C943814C0
:100090000C9403230C9438140C9438140C943814D6
:1000A0000C9438140C9438140C9438140F1A861AC3
:1000B000571A3A1AAF1AAF1A011AAF1A011AAF1A21
:1000C000011A011A011AAF1A011A011A352438242B
:1000D0002B242F245924592459243C2440244424DB
:1000E0004A244E245924542407634236B79BD8A788
:1000F0001A39685618AEBAAB558C1D3CB7CC57634D
:10010000BD6DEDFD753EF6177231BF000000803FFA
:1001100008000000BE922449123EABAAAA2ABECD16
:10012000CCCC4C3E00000080BEABAAAAAA3E000088
:100130000000BF000000803F000000000008417880
:10014000D3BB4387D1133D190E3CC3BD4282AD2BB7
:100150003E68EC8276BED98FE1A93E4C80EFFFBEAF
:1001600001C4FF7F3F0000000000000102040507FA
:1001700008090B0C0E0F101213151617191A1B1D58
:100180001E20212224252628292A2C2D2E2F3132EB
:1001900033353637383A3B3C3D3E40414243444597
:1001A0004647494A4B4C4D4E4F5051525354555669
:1001B000575859595A5B5C5D5E5E5F60616262636D
:1001C000646465666667686869696A6A6B6B6C6CAB
:1001D0006D6D6E6E6F6F6F70707070717171717226
:1001E00072727272727273737373737373737372E6
:1001F00072727272727271717171707070706F6FF1
:100200006F6E6E6D6D6C6C6B6B6A6A69696868673E
:10021000666665646463626261605F5E5E5D5C5BCE
:100220005A59595857565554535251504F4E4D4C98
:100230004B4A4947464544434241403E3D3C3B3A98
:10024000383736353332312F2E2D2C2A29282625C2
:10025000242221201E1D1C1A191716151312100F07
:100260000E0C0B0908070504020100FEFDFBFAF85D
:10027000F7F6F4F3F1F0EFEDECEAE9E8E6E5E4E2B5
:10028000E1DFDEDDDBDAD9D7D6D5D3D2D1D0CECD02
:10029000CCCAC9C8C7C5C4C3C2C1BFBEBDBCBBBA36
:1002A000B9B8B6B5B4B3B2B1B0AFAEADACABAAA944
:1002B000A8A7A6A6A5A4A3A2A1A1A09F9E9D9D9C20
:1002C0009B9B9A99999897979696959594949393C2
:1002D000929291919090908F8F8F8F8E8E8E8E8D27
:1002E0008D8D8D8D8D8D8C8C8C8C8C8C8C8C8C8C48
:1002F0008D8D8D8D8D8D8E8E8E8E8F8F8F8F90901C
:1003000090919192929393949495959696979798AD
:1003100099999A9B9B9C9D9D9E9FA0A1A1A2A3A4FD
:10032000A5A6A6A7A8A9AAABACADAEAFB0B1B2B313
:10033000B4B5B6B8B9BABBBCBDBEC0C1C2C3C4C5F2
:10034000C7C8C9CACCCDCED0D1D2D3D5D6D7D9DAA9
:10035000DBDDDEDFE1E2E4E5E6E8E9EAECEDEFF043
:10036000F1F3F4F6F7F8FAFBFDFE174466777870C0
:10037000655E5E63696D6D6A65626265686B6B6917
:1003800066646466686A6A686665656668696968FD
:1003900066656566686969686665656668696968ED
:1003A00066666666686868686666666668686868DD
:1003B00067666666686868686766666767686867CC
:1003C00067666667676868676766666767686867BD
:1003D00067666667676868676766666767686867AD
:1003E000676666676768686767666667676868679D
:1003F000676666676768686767666667676868678D
:10040000676666676768686767666667676868677C
:10041000676666676768686767666667686868686A
:10042000676666676868686866666666686868685A
:10043000666666666869696866656566686969684A
:10044000666565666869696866656566686A6A683A
:1004500066646466696B6B68656262656A6D6D6926
:10046000635E5E65707877664417EAC5ADA2A1A7A2
:10047000ADB2B2AFABA8A8AAADAFAFADABA9A9ABB7
:10048000ADAEAEADABAAAAABACADADADABAAAAABAF
:10049000ACADADACABABABABACADADACABABABABA0
:1004A000ACADADACACABABABACADADACACABABAC8D
:1004B000ACADADACACABABACACADADACACABABAC7C
:1004C000ACADADACACABABACACADADACACABABAC6C
:1004D000ACADADACACABABACACADACACACABABAC5D
:1004E000ACACACACACABABACACACACACACABABAC50
:1004F000ACACACACACABABACACACACACACABABAC40
:10050000ACADADACACABABACACADADACACABABAC2B
:10051000ACADADACACABABACACADADACACABABAC1B
:10052000ACADADACACABABACACADADACABABABAC0C
:10053000ACADADACABABABABACADADACABABABABFF
:10054000ACADADACABAAAAABADADADACABAAAAABF2
:10055000ADAEAEADABA9A9ABADAFAFADAAA8A8ABE0
:10056000AFB2B2ADA7A1A2ADC5EA00000000010183
:10057000010102020202030303030404040404054C
:1005800005050506060607070707080808080909FC
:1005900009090A0A0A0A0B0B0B0B0B0C0C0C0D0DAC
:1005A0000D0D0E0E0E0E0F0F0F0F1010101011115B
:1005B000111111121212121313131314141414150F
:1005C00015151516161616171717181818181919BD
:1005D00019191A1A1A1A1B1B1B1B1C1C1C1C1D1D6B
:1005E0001D1D1E1E1E1E1F1F1F1F2020202020211C
:1005F00021202222222223232323242424242525CC
:10060000252526262626272727272828282828297B
:100610002929292A2A2A2A2B2B2B2C2C2C2C2D2D2C
:100620002D2D2E2E2E2E2F2F2F2F303030303131DA
:10063000313131323232333333333434343434358C
:10064000353536363636363737373838383838393C
:1006500039393A3A3A3A3B3B3B3B3C3C3C3C3C3DEB
:100660003D3D3E3E3E3E3E3F3F3F3F40404041419C
:10067000414141424242424343434444444445454C
:1006800045454646464647474747484848484949FA
:100690004949494A4A4A4A4B4B4B4C4C4C4C4D4DAC
:1006A0004D4D4D4E4E4E4E4F4F4F5050505051515C
:1006B000515151525252535353535454545455550B
:1006C00055555556565656575757585858585859BD
:1006D00059595A5A5A5A5B5B5B5B5C5C5C5C5C5D6B
:1006E0005D5D5E5E5E5E5F5F5F5F5F60606061611B
:1006F00061616262626263636363636464646565CB
:10070000656565666666666767676768686869697C
:100710006969696A6A6A6A6B6B6B6C6C6C6C6D6D2B
:100720006D6D6E6E6E6E6F6F6F6F707070707071DA
:10073000717171727272727373737374747474758D
:10074000757575767676777777777878787878793B
:1007500079797A7A7A7A7B7B7B7B7C7C7C7C7D7DE9
:100760007D7D7D7E7E7E7F7F7F7F7F7F7F7E7E7EA5
:100770007E7E7D7D7D7D7C7C7C7C7B7B7B7B7A7AB9
:100780007A7A7979797978787878777777777676E9
:100790007676757575757474747473737373727219
:1007A0007271717171707070706F6F6F6F6E6E6E4D
:1007B0006E6D6D6D6D6D6C6C6C6C6B6B6B6B6A6A7A
:1007C0006A696969696868686868676767666666AC
:1007D00066666565656564646463636363626262DB
:1007E000626161616160606060605F5F5F5E5E5E0C
:1007F0005E5D5D5D5D5C5C5C5C5B5B5B5B5B5A5A3C
:100800005A5A595959595858585857575757565668
:100810005656555555545454545453535353525299
:100820005251515151505050504F4F4F4F4E4E4ECC
:100830004E4E4D4D4D4D4C4C4C4C4B4B4B4A4A4AF9
:100840004A4A494949494848484847474747464628
:100850004645454545454444444443434343424259
:100860004241414141414040403F3F3F3F3F3E3E8A
:100870003E3E3D3D3D3C3C3C3C3C3B3B3B3B3A3AB9
:100880003A3A3939393838383838373737373636E9
:10089000363635353535343434333333333232321A
:1008A0003232313131313030302F2F2F2F2E2E2E4A
:1008B0002E2E2D2D2D2D2C2C2C2B2B2B2B2A2A2A7A
:1008C0002A292929292928282828272727262626AA
:1008D00026262525252424242424232323222222DA
:1008E000222121202121202020201F1F1F1F1E1E0A
:1008F0001E1E1D1D1D1D1C1C1C1B1B1B1B1B1A1A39
:100900001A19191919191818181817171717161668
:100910001616151515151414141313131313121298
:10092000121211111110101010100F0F0F0F0E0EC8
:100930000E0E0D0D0D0D0C0C0C0C0B0B0B0B0A0AF7
:100940000A0A090909090808080807070706060628
:100950000605050505050404040403030303020258
:1009600002010101010100000000FFFFFFFEFEFE89
:10097000FEFDFDFDFDFCFCFCFCFBFBFBFBFAFAFABB
:10098000FAFAF9F9F9F8F8F8F8F8F7F7F7F7F6F6E8
:10099000F6F5F5F5F5F4F4F4F4F4F3F3F3F3F2F219
:1009A000F2F1F1F1F1F1F0F0F0F0EFEFEFEEEEEE49
:1009B000EEEDEDEDEDEDECECECEBEBEBEBEBEAEA79
:1009C000EAEAE9E9E9E9E8E8E8E7E7E7E7E7E6E6A8
:1009D000E6E6E5E5E5E4E4E4E4E3E3E3E3E3E2E2D9
:1009E000E2E1E1E1E1E0E0E0E0E0DFDFDFDFDEDE09
:1009F000DEDDDDDDDDDCDCDCDCDCDBDBDBDADADA3A
:100A0000DAD9D9D9D9D8D8D8D8D8D7D7D7D7D6D668
:100A1000D6D5D5D5D5D4D4D4D4D3D3D3D3D2D2D29A
:100A2000D2D1D1D1D1D0D0D0D0D0CFCFCFCFCECEC8
:100A3000CECECDCDCDCDCCCCCCCBCBCBCBCACACAF8
:100A4000CAC9C9C9C9C8C8C8C8C7C7C7C7C6C6C62A
:100A5000C6C5C5C5C5C4C4C4C4C4C3C3C3C3C2C258
:100A6000C2C1C1C1C1C1C0C0C0C0BFBFBFBFBEBE87
:100A7000BEBDBDBDBDBDBCBCBCBCBBBBBBBBBABAB7
:100A8000BABAB9B9B9B9B8B8B8B8B7B7B7B7B6B6E6
:100A9000B6B6B5B5B5B5B4B4B4B4B3B3B3B3B2B216
:100AA000B2B2B1B1B1B1B0B0B0B0AFAFAFAEAEAE47
:100AB000AEAEADADADADACACACABABABABAAAAAA78
:100AC000AAA9A9A9A9A8A8A8A8A7A7A7A7A7A6A6A9
:100AD000A6A5A5A5A5A5A4A4A4A3A3A3A3A2A2A2D9
:100AE000A2A1A1A1A1A1A0A0A0A09F9F9F9F9E9E07
:100AF0009E9E9D9D9D9D9C9C9C9C9B9B9B9B9A9A36
:100B00009A9A999999989898989797979797969667
:100B10009696959595949494949393939393929297
:100B20009292919191919090908F8F8F8F8F8E8EC6
:100B30008E8E8D8D8D8C8C8C8C8B8B8B8B8A8A8AF8
:100B40008A89898989898888888887878786868627
:100B50008686858585858484848483838382828256
:100B6000828181818181808080808080808081817C
:100B70008181818282828383838383848484858547
:100B800085858686868687878787878888888889F7
:100B900089898A8A8A8A8A8B8B8B8C8C8C8C8D8DA6
:100BA0008D8D8D8E8E8E8E8F8F8F90909090919157
:100BB0009191929292929393939394949494959505
:100BC00095959696969697979797979898989999B6
:100BD00099999A9A9A9A9A9B9B9B9C9C9C9C9D9D66
:100BE0009D9D9E9E9E9E9F9F9F9F9FA0A0A0A1A116
:100BF000A1A1A1A2A2A2A2A3A3A3A4A4A4A4A4A5C8
:100C0000A5A5A5A6A6A6A7A7A7A7A7A8A8A8A9A976
:100C1000A9A9AAAAAAAAAAABABABACACACACACAD26
:100C2000ADADAEAEAEAEAEAFAFAFAFB0B0B0B1B1D6
:100C3000B1B1B2B2B2B2B2B3B3B3B3B4B4B4B5B586
:100C4000B5B5B6B6B6B6B6B7B7B7B7B8B8B8B9B936
:100C5000B9B9BABABABABBBBBBBBBCBCBCBCBDBDE4
:100C6000BDBDBEBEBEBEBEBFBFBFC0C0C0C0C0C196
:100C7000C1C1C2C2C2C2C2C3C3C3C3C4C4C4C5C546
:100C8000C5C5C6C6C6C6C6C7C7C7C7C8C8C8C8C9F7
:100C9000C9C9C9CACACACBCBCBCBCBCCCCCCCCCDA7
:100CA000CDCDCDCECECECFCFCFCFCFD0D0D0D1D156
:100CB000D1D1D2D2D2D2D2D3D3D3D3D4D4D4D4D507
:100CC000D5D5D5D6D6D6D7D7D7D7D8D8D8D8D8D9B6
:100CD000D9D9D9DADADADBDBDBDBDBDCDCDCDCDD67
:100CE000DDDDDEDEDEDEDEDFDFDFE0E0E0E0E1E115
:100CF000E1E1E1E2E2E2E3E3E3E3E4E4E4E4E4E5C6
:100D0000E5E5E5E6E6E6E6E7E7E7E8E8E8E8E9E975
:100D1000E9E9E9EAEAEAEBEBEBEBECECECECEDED24
:100D2000EDEDEDEEEEEEEFEFEFEFF0F0F0F0F1F1D4
:100D3000F1F1F2F2F2F2F3F3F3F3F3F4F4F4F5F584
:100D4000F5F5F5F6F6F6F7F7F7F7F8F8F8F8F9F934
:100D5000F9F9FAFAFAFAFBFBFBFBFBFCFCFCFDFDE4
:100D6000FDFDFEFEFEFEFFFFFFFF80808080808095
:100D7000808081818181818181818282828282825F
:100D80008282828383838383838384848484848430
:100D90008484848585858585858586868686868600
:100DA00086868787878787878787888888888888CF
:100DB000888889898989898989898A8A8A8A8A8A9F
:100DC0008A8A8A8B8B8B8B8B8B8B8B8C8C8C8C8C71
:100DD0008C8C8D8D8D8D8D8D8D8D8D8E8E8E8E8E40
:100DE0008E8E8F8F8F8F8F8F8F8F9090909090900F
:100DF00090909191919191919191929292929292DF
:100E000092929393939393939393949494949494AE
:100E1000949494959595959595959696969696967F
:100E20009696969797979797979797989898989850
:100E300098989899999999999999999A9A9A9A9A20
:100E40009A9A9B9B9B9B9B9B9B9B9B9C9C9C9C9CEF
:100E50009C9C9C9D9D9D9D9D9D9D9E9E9E9E9E9EBF
:100E60009E9E9F9F9F9F9F9F9F9F9FA0A0A0A0A08F
:100E7000A0A0A1A1A1A1A1A1A1A1A2A2A2A2A2A25E
:100E8000A2A2A3A3A3A3A3A3A3A3A4A4A4A4A4A42E
:100E9000A4A4A4A5A5A5A5A5A5A5A6A6A6A6A6A6FF
:100EA000A6A6A7A7A7A7A7A7A7A7A8A8A8A8A8A8CE
:100EB000A8A8A8A9A9A9A9A9A9A9A9AAAAAAAAAAA0
:100EC000AAAAABABABABABABABABACACACACACAC6E
:100ED000ACACADADADADADADADADAEAEAEAEAEAE3E
:100EE000AEAEAFAFAFAFAFAFAFAFAFB0B0B0B0B00F
:100EF000B0B0B0B1B1B1B1B1B1B1B2B2B2B2B2B2DF
:100F0000B2B2B3B3B3B3B3B3B3B3B4B4B4B4B4B4AD
:100F1000B4B4B5B5B5B5B5B5B5B5B6B6B6B6B6B67D
:100F2000B6B6B7B7B7B7B7B7B7B7B8B8B8B8B8B84D
:100F3000B8B8B8B9B9B9B9B9B9B9BABABABABABA1E
:100F4000BABABBBBBBBBBBBBBBBBBCBCBCBCBCBCED
:100F5000BCBCBDBDBDBDBDBDBDBDBDBEBEBEBEBEBE
:100F6000BEBEBFBFBFBFBFBFBFBFC0C0C0C0C0C08D
:100F7000C0C0C1C1C1C1C1C1C1C1C1C2C2C2C2C25E
:100F8000C2C2C2C3C3C3C3C3C3C3C4C4C4C4C4C42E
:100F9000C4C4C4C5C5C5C5C5C5C5C5C6C6C6C6C6FF
:100FA000C6C6C7C7C7C7C7C7C7C7C8C8C8C8C8C8CD
:100FB000C8C8C9C9C9C9C9C9C9C9CACACACACACA9D
:100FC000CACACBCBCBCBCBCBCBCBCBCCCCCCCCCC6E
:100FD000CCCCCCCDCDCDCDCDCDCDCDCECECECECE3F
:100FE000CECECFCFCFCFCFCFCFCFD0D0D0D0D0D00D
:100FF000D0D0D1D1D1D1D1D1D1D1D2D2D2D2D2D2DD
:10100000D2D2D2D3D3D3D3D3D3D3D4D4D4D4D4D4AD
:10101000D4D4D4D5D5D5D5D5D5D5D6D6D6D6D6D67D
:10102000D6D6D6D7D7D7D7D7D7D7D8D8D8D8D8D84D
:10103000D8D8D9D9D9D9D9D9D9D9D9DADADADADA1D
:10104000DADADADBDBDBDBDBDBDBDCDCDCDCDCDCED
:10105000DCDCDCDDDDDDDDDDDDDDDDDEDEDEDEDEBE
:10106000DEDEDFDFDFDFDFDFDFDFDFE0E0E0E0E08D
:10107000E0E0E1E1E1E1E1E1E1E1E2E2E2E2E2E25C
:10108000E2E2E2E3E3E3E3E3E3E3E4E4E4E4E4E42D
:10109000E4E4E5E5E5E5E5E5E5E5E6E6E6E6E6E6FC
:1010A000E6E6E7E7E7E7E7E7E7E7E7E8E8E8E8E8CD
:1010B000E8E8E9E9E9E9E9E9E9E9EAEAEAEAEAEA9C
:1010C000EAEAEBEBEBEBEBEBEBEBECECECECECEC6C
:1010D000ECECECEDEDEDEDEDEDEDEDEEEEEEEEEE3E
:1010E000EEEEEEEFEFEFEFEFEFEFF0F0F0F0F0F00D
:1010F000F0F0F0F1F1F1F1F1F1F1F1F2F2F2F2F2DE
:10110000F2F2F3F3F3F3F3F3F3F3F4F4F4F4F4F4AB
:10111000F4F4F4F5F5F5F5F5F5F5F6F6F6F6F6F67C
:10112000F6F6F7F7F7F7F7F7F7F7F8F8F8F8F8F84B
:10113000F8F8F8F9F9F9F9F9F9F9F9FAFAFAFAFA1D
:10114000FAFAFBFBFBFBFBFBFBFBFCFCFCFCFCFCEB
:10115000FCFCFDFDFDFDFDFDFDFDFDFEFEFEFEFEBC
:10116000FEFEFFFFFFFFFFFFFFFF0000000000008B
:10117000000000010101010101010102020202025D
:10118000020203030303030303030404040404042B
:1011900004040505050505050505060606060606FB
:1011A00006060707070707070707070808080808CC
:1011B000080809090909090909090A0A0A0A0A0A9B
:1011C0000A0A0B0B0B0B0B0B0B0B0B0C0C0C0C0C6C
:1011D0000C0C0D0D0D0D0D0D0D0D0D0E0E0E0E0E3C
:1011E0000E0E0F0F0F0F0F0F0F0F0F10101010100C
:1011F00010101011111111111111121212121212DC
:1012000012121313131313131313141414141414AA
:10121000141415151515151515151516161616167B
:10122000161617171717171717171818181818184A
:1012300018181919191919191919191A1A1A1A1A1B
:101240001A1A1A1B1B1B1B1B1B1B1C1C1C1C1C1CEB
:101250001C1C1D1D1D1D1D1D1D1D1E1E1E1E1E1EBA
:101260001E1E1F1F1F1F1F1F1F1F1F20202020208B
:10127000202021212021212221212022222222225C
:10128000222223232323232323232424242424242A
:1012900024242425252525252525262626262626FB
:1012A00026262727272727272727282828282828CA
:1012B000282829292929292929292A2A2A2A2A2A9A
:1012C0002A2A2A2B2B2B2B2B2B2B2B2C2C2C2C2C6C
:1012D0002C2C2D2D2D2D2D2D2D2D2E2E2E2E2E2E3A
:1012E0002E2E2E2F2F2F2F2F2F2F2F30303030300C
:1012F00030303131313131313131323232323232DA
:1013000032323333333333333333333434343434AA
:101310003434353535353535353536363636363679
:10132000363636373737373737373738383838384B
:1013300038383939393939393939393A3A3A3A3A1A
:101340003A3A3A3B3B3B3B3B3B3B3C3C3C3C3C3CEA
:101350003C3C3D3D3D3D3D3D3D3D3E3E3E3E3E3EB9
:101360003E3E3F3F3F3F3F3F3F3F40404040404089
:101370004040414141414141414142424242424259
:101380004242434343434343434344444444444429
:1013900044444545454545454545464646464646F9
:1013A00046464647474747474747484848484848CA
:1013B000484849494949494949494A4A4A4A4A4A99
:1013C0004A4A4A4B4B4B4B4B4B4B4C4C4C4C4C4C6A
:1013D0004C4C4C4D4D4D4D4D4D4D4D4E4E4E4E4E3B
:1013E0004E4E4F4F4F4F4F4F4F4F50505050505009
:1013F00050505051515151515151525252525252DA
:1014000052525253535353535353545454545454A9
:101410005454545555555555555556565656565679
:101420005656565757575757575758585858585849
:1014300058585859595959595959595A5A5A5A5A1A
:101440005A5A5B5B5B5B5B5B5B5B5C5C5C5C5C5CE8
:101450005C5C5D5D5D5D5D5D5D5D5E5E5E5E5E5EB8
:101460005E5E5F5F5F5F5F5F5F5F60606060606088
:101470006060616161616161616161626262626259
:101480006262636363636363636363646464646429
:1014900064646565656565656565656666666666F9
:1014A00066666767676767676767686868686868C8
:1014B000686869696969696969696A6A6A6A6A6A98
:1014C0006A6A6B6B6B6B6B6B6B6B6C6C6C6C6C6C68
:1014D0006C6C6D6D6D6D6D6D6D6D6E6E6E6E6E6E38
:1014E0006E6E6F6F6F6F6F6F6F6F70707070707008
:1014F00070707171717171717171717272727272D9
:1015000072727373737373737373747474747474A7
:101510007474747575757575757575767676767679
:101520007676777777777777777777787878787848
:1015300078787879797979797979797A7A7A7A7A19
:101540007A7A7B7B7B7B7B7B7B7B7C7C7C7C7C7CE7
:101550007C7C7D7D7D7D7D7D7D7D7D7E7E7E7E7EB8
:101560007E7E7F7F7F7F7F7F7F7F00000001010184
:10157000020203030304040505050606070707081E
:10158000080909090A0A0A0B0B0C0C0C0D0D0E0EAA
:101590000E0F0F1010101111121212131313141436
:1015A000151515161617171718181819191A1A1AC3
:1015B0001B1B1C1C1C1D1D1D1E1E1F1F1F20202051
:1015C00021212222222323242424252525262627DF
:1015D000272728282829292A2A2A2B2B2B2C2C2C70
:1015E0002D2D2E2E2E2F2F2F303030313132323202
:1015F0003333333434343535363636373737383895
:10160000383939393A3A3A3B3B3B3C3C3D3D3D3E2B
:101610003E3E3F3F3F4040404141414242424343C2
:10162000434444444545454646464747474848485D
:101630004949494A4A4A4A4B4B4B4C4C4C4D4D4DFB
:101640004E4E4E4F4F4F4F5050505151515252529B
:10165000535353535454545555555556565657573E
:101660005757585858595959595A5A5A5B5B5B5BE6
:101670005C5C5C5C5D5D5D5E5E5E5E5F5F5F5F608F
:10168000606060616161616262626263636363643E
:1016900064646465656565666666666767676767EF
:1016A0006868686869696969696A6A6A6A6B6B6BA4
:1016B0006B6B6C6C6C6C6C6D6D6D6D6D6E6E6E6E5F
:1016C0006E6F6F6F6F6F707070707071717171711C
:1016D00071727272727273737373737374747474DD
:1016E00074747575757575757576767676767677A4
:1016F000777777777777777878787878787879796F
:101700007979797979797A7A7A7A7A7A7A7A7A7B3E
:101710007B7B7B7B7B7B7B7B7B7C7C7C7C7C7C7C12
:101720007C7C7C7C7D7D7D7D7D7D7D7D7D7D7D7DED
:101730007D7E7E7E7E7E7E7E7E7E7E7E7E7E7E7ECA
:101740007E7E7F7F7F7F7F7F7F7F7F7F7F7F7F7FAB
:101750007F7F7F7F7F7F7F7F7F7F7F7F7F7F7F7F99
:101760007F7F7F7F7F7F7F7F7F7F7F7F7F7F7F7F89
:101770007F7F7F7F7F7F7F7F7F7F7F7F7F7F7F7F79
:101780007F7F7F7F7F7F7F7F7F7F7F7F7F7F7F7F69
:101790007F7F7F7E7E7E7E7E7E7E7E7E7E7E7E7E66
:1017A0007E7E7E7E7D7D7D7D7D7D7D7D7D7D7D7D65
:1017B0007D7C7C7C7C7C7C7C7C7C7C7C7B7B7B7B6C
:1017C0007B7B7B7B7B7B7A7A7A7A7A7A7A7A7A7974
:1017D0007979797979797978787878787878777784
:1017E0007777777777767676767676767575757598
:1017F00075757574747474747473737373737372AE
:101800007272727271717171717170707070706FCB
:101810006F6F6F6F6E6E6E6E6E6D6D6D6D6D6C6CED
:101820006C6C6C6B6B6B6B6B6A6A6A6A6A69696910
:10183000696868686867676767676666666665653A
:101840006565646464646363636362626262616168
:101850006161606060605F5F5F5F5E5E5E5E5D5D98
:101860005D5C5C5C5C5B5B5B5B5A5A5A59595959CD
:101870005858585757575756565655555555545406
:1018800054535353535252525151515050504F4F41
:101890004F4F4E4E4E4D4D4D4C4C4C4B4B4B4A4A80
:1018A0004A4A4949494848484747474646464545C0
:1018B0004544444443434342424241414140404005
:1018C0003F3F3F3E3E3E3D3D3D3C3C3B3B3B3A3A4D
:1018D0003A39393938383837373736363635353496
:1018E000343433333332323231313030302F2F2FE2
:1018F0002E2E2E2D2D2C2C2C2B2B2B2A2A2A29292F
:10190000282828272727262625252524242423237D
:1019100022222222212120201F1F1F1E1E1D1D1DCD
:101920001C1C1C1B1B1A1A1A191918181817171720
:101930001616151515141413131312121211111073
:1019400010100F0F0E0E0E0D0D0C0C0C0B0B0A0AC7
:101950000A0909090808070707060605050504041A
:1019600003030302020101010000FFFFFFFEFEFE70
:10197000FDFDFCFCFCFBFBFAFAFAF9F9F8F8F8F7C4
:10198000F7F6F6F6F5F5F5F4F4F3F3F3F2F2F1F118
:10199000F1F0F0EFEFEFEEEEEDEDEDECECECEBEB6C
:1019A000EAEAEAE9E9E8E8E8E7E7E7E6E6E5E5E5BF
:1019B000E4E4E3E3E3E2E2E2E1E1E0E0E0DFDFDF11
:1019C000DEDEDDDDDDDCDCDBDBDBDADADAD9D9D863
:1019D000D8D8D7D7D7D6D6D6D5D5D4D4D4D3D3D3B1
:1019E000D2D2D1D1D1D0D0D0CFCFCFCECECDCDCD00
:1019F000CCCCCCCBCBCBCACAC9C9C9C8C8C8C7C74D
:101A0000C7C6C6C6C5C5C5C4C4C4C3C3C2C2C2C195
:101A1000C1C1C0C0C0BFBFBFBEBEBEBDBDBDBCBCDE
:101A2000BCBBBBBBBABABAB9B9B9B8B8B8B7B7B723
:101A3000B6B6B6B5B5B5B5B4B4B4B3B3B3B2B2B265
:101A4000B1B1B1B0B0B0B0AFAFAFAEAEAEADADADA5
:101A5000ACACACACABABABAAAAAAAAA9A9A9A8A8E2
:101A6000A8A8A7A7A7A6A6A6A6A5A5A5A4A4A4A41A
:101A7000A3A3A3A3A2A2A2A1A1A1A1A0A0A0A09F51
:101A80009F9F9F9E9E9E9E9D9D9D9D9C9C9C9C9B82
:101A90009B9B9B9A9A9A9A999999999898989898B1
:101AA00097979797969696969695959595949494DC
:101AB0009494939393939392929292929191919101
:101AC0009190909090908F8F8F8F8F8E8E8E8E8E24
:101AD0008E8D8D8D8D8D8C8C8C8C8C8C8B8B8B8B43
:101AE0008B8B8A8A8A8A8A8A8A898989898989895B
:101AF0008888888888888887878787878787868671
:101B00008686868686868585858585858585858480
:101B1000848484848484848484838383838383838C
:101B20008383838382828282828282828282828291
:101B30008281818181818181818181818181818194
:101B40008181808080808080808080808080808093
:101B50008080808080808080808080808080808085
:101B60008080808080808080808080808080808075
:101B70008080808080808080808080808080808065
:101B80008080808080808080808080808080808055
:101B90008080808181818181818181818181818138
:101BA0008181818182828282828282828282828219
:101BB00082838383838383838383838384848484F2
:101BC00084848484848485858585858585858586CA
:101BD000868686868686868787878787878788889A
:101BE0008888888888888989898989898A8A8A8A67
:101BF0008A8A8A8B8B8B8B8B8B8C8C8C8C8C8C8D30
:101C00008D8D8D8D8E8E8E8E8E8E8F8F8F8F8F90F1
:101C100090909090919191919192929292929393AF
:101C2000939393949494949495959595969696966B
:101C300096979797979898989898999999999A9A22
:101C40009A9A9B9B9B9B9C9C9C9C9D9D9D9D9E9ED4
:101C50009E9E9F9F9F9FA0A0A0A0A1A1A1A1A2A284
:101C6000A2A3A3A3A3A4A4A4A4A5A5A5A6A6A6A62F
:101C7000A7A7A7A8A8A8A8A9A9A9AAAAAAAAABABD6
:101C8000ABACACACACADADADAEAEAEAFAFAFB0B07B
:101C9000B0B0B1B1B1B2B2B2B3B3B3B4B4B4B5B51C
:101CA000B5B5B6B6B6B7B7B7B8B8B8B9B9B9BABABC
:101CB000BABBBBBBBCBCBCBDBDBDBEBEBEBFBFBF57
:101CC000C0C0C0C1C1C1C2C2C2C3C3C4C4C4C5C5EF
:101CD000C5C6C6C6C7C7C7C8C8C8C9C9C9CACACB86
:101CE000CBCBCCCCCCCDCDCDCECECFCFCFD0D0D01A
:101CF000D1D1D1D2D2D3D3D3D4D4D4D5D5D5D6D6AD
:101D0000D7D7D7D8D8D8D9D9DADADADBDBDBDCDC3D
:101D1000DDDDDDDEDEDEDFDFE0E0E0E1E1E2E2E2CC
:101D2000E3E3E3E4E4E5E5E5E6E6E7E7E7E8E8E85A
:101D3000E9E9EAEAEAEBEBECECECEDEDEDEEEEEFE7
:101D4000EFEFF0F0F1F1F1F2F2F3F3F3F4F4F5F573
:101D5000F5F6F6F6F7F7F8F8F8F9F9FAFAFAFBFB00
:101D6000FCFCFCFDFDFEFEFEFFFF8080808080808D
:101D70008080808080808080808080808080808063
:101D80008080808080808080808080808080808053
:101D90008080808181818181818181818181818136
:101DA0008181818182828282828282828282828217
:101DB00082838383838383838383838384848484F0
:101DC00084848484848485858585858585858586C8
:101DD0008686868686868687878787878787888898
:101DE0008888888888888989898989898A8A8A8A65
:101DF0008A8A8A8B8B8B8B8B8B8C8C8C8C8C8C8D2E
:101E00008D8D8D8D8E8E8E8E8E8E8F8F8F8F8F90EF
:101E100090909090919191919192929292929393AD
:101E20009393939494949494959595959696969669
:101E300096979797979898989898999999999A9A20
:101E40009A9A9B9B9B9B9C9C9C9C9D9D9D9D9E9ED2
:101E50009E9E9F9F9F9FA0A0A0A0A1A1A1A1A2A282
:101E6000A2A3A3A3A3A4A4A4A4A5A5A5A6A6A6A62D
:101E7000A7A7A7A8A8A8A8A9A9A9AAAAAAAAABABD4
:101E8000ABACACACACADADADAEAEAEAFAFAFB0B079
:101E9000B0B0B1B1B1B2B2B2B3B3B3B4B4B4B5B51A
:101EA000B5B5B6B6B6B7B7B7B8B8B8B9B9B9BABABA
:101EB000BABBBBBBBCBCBCBDBDBDBEBEBEBFBFBF55
:101EC000C0C0C0C1C1C1C2C2C2C3C3C4C4C4C5C5ED
:101ED000C5C6C6C6C7C7C7C8C8C8C9C9C9CACACB84
:101EE000CBCBCCCCCCCDCDCDCECECFCFCFD0D0D018
:101EF000D1D1D1D2D2D3D3D3D4D4D4D5D5D5D6D6AB
:101F0000D7D7D7D8D8D8D9D9DADADADBDBDBDCDC3B
:101F1000DDDDDDDEDEDEDFDFE0E0E0E1E1E2E2E2CA
:101F2000E3E3E3E4E4E5E5E5E6E6E7E7E7E8E8E858
:101F3000E9E9EAEAEAEBEBECECECEDEDEDEEEEEFE5
:101F4000EFEFF0F0F1F1F1F2F2F3F3F3F4F4F5F571
:101F5000F5F6F6F6F7F7F8F8F8F9F9FAFAFAFBFBFE
:101F6000FCFCFCFDFDFEFEFEFFFF00000001010188
:101F70000202030303040405050506060707070814
:101F8000080909090A0A0A0B0B0C0C0C0D0D0E0EA0
:101F90000E0F0F101010111112121213131314142C
:101FA000151515161617171718181819191A1A1AB9
:101FB0001B1B1C1C1C1D1D1D1E1E1F1F1F20202047
:101FC00021212222222323242424252525262627D5
:101FD000272728282829292A2A2A2B2B2B2C2C2C66
:101FE0002D2D2E2E2E2F2F2F3030303131323232F8
:101FF000333333343434353536363637373738388B
:10200000383939393A3A3A3B3B3B3C3C3D3D3D3E21
:102010003E3E3F3F3F4040404141414242424343B8
:102020004344444445454546464647474748484853
:102030004949494A4A4A4A4B4B4B4C4C4C4D4D4DF1
:102040004E4E4E4F4F4F4F50505051515152525291
:102050005353535354545455555555565656575734
:102060005757585858595959595A5A5A5B5B5B5BDC
:102070005C5C5C5C5D5D5D5E5E5E5E5F5F5F5F6085
:102080006060606161616162626262636363636434
:1020900064646465656565666666666767676767E5
:1020A00068686868696969696A6A6A6A6A6B6B6B99
:1020B0006B6B6C6C6C6C6C6D6D6D6D6E6E6E6E6E54
:1020C0006E6F6F6F6F6F7070707070717171717112
:1020D00071727272727273737373737374747474D3
:1020E000747475757575757575767676767676769B
:1020F0007777777777777778787878787878797965
:102100007979797979797A7A7A7A7A7A7A7A7A7B34
:102110007B7B7B7B7B7B7B7B7B7C7C7C7C7C7C7C08
:102120007C7C7C7C7D7D7D7D7D7D7D7D7D7D7D7DE3
:102130007D7E7E7E7E7E7E7E7E7E7E7E7E7E7E7EC0
:102140007E7E7F7F7F7F7F7F7F7F7F7F7F7F7F7FA1
:102150007F7F7F7F7F7F7F7F7F7F7F7F7F7F7F7F8F
:102160007F7F7F7F7F7F7F7F7F7F7F7F7F7F7F7F7F
:102170007F7F7F7F7F7F7F7F7F7F7F7F7F7F7F7F6F
:102180007F7F7F7F7F7F7F7F7F7F7F7F7F7F7F7F5F
:102190007F7F7F7F7E7E7E7E7E7E7E7E7E7E7E7E5B
:1021A0007E7E7E7E7D7D7D7D7D7D7D7D7D7D7D7D5B
:1021B0007D7C7C7C7C7C7C7C7C7C7C7C7B7B7B7B62
:1021C0007B7B7B7B7B7B7A7A7A7A7A7A7A7A7A796A
:1021D000797979797979797878787878787877777A
:1021E000777777777777767676767676757575758D
:1021F00075757574747474747473737373737372A4
:102200007272727271717171717170707070706FC1
:102210006F6F6F6F6E6E6E6E6E6D6D6D6D6D6C6CE3
:102220006C6C6C6B6B6B6B6B6A6A6A6A6A69696906
:102230006968686868676767676766666666656530
:10224000656564646464636363636262626261615E
:102250006161606060605F5F5F5F5E5E5E5E5D5D8E
:102260005D5C5C5C5C5B5B5B5B5A5A5A59595959C3
:1022700058585857575757565656555555555454FC
:1022800054535353535252525151515050504F4F37
:102290004F4F4E4E4E4D4D4D4C4C4C4B4B4B4A4A76
:1022A0004A4A4949494848484747474646464545B6
:1022B00045444444434343424242414141404040FB
:1022C0003F3F3F3E3E3E3D3D3D3C3C3C3B3B3A3A42
:1022D0003A3939393838383737373636363535348C
:1022E000343433333332323231313030302F2F2FD8
:1022F0002E2E2E2D2D2C2C2C2B2B2B2A2A2A292925
:102300002828282727272626252525242424232373
:1023100022222222212120201F1F1F1E1E1D1D1DC3
:102320001C1C1C1B1B1A1A1A191918181817171716
:102330001616151515141413131312121211111069
:1023400010100F0F0E0E0E0D0D0C0C0C0B0B0A0ABD
:102350000A09090908080707070606050505040410
:102360000303030202010101000000FFFFFEFEFE65
:10237000FDFDFCFCFCFBFBFAFAFAF9F9F8F8F8F7BA
:10238000F7F6F6F6F5F5F5F4F4F3F3F3F2F2F1F10E
:10239000F1F0F0EFEFEFEEEEEEEDEDECECECEBEB61
:1023A000EAEAEAE9E9E8E8E8E7E7E7E6E6E5E5E5B5
:1023B000E4E4E3E3E3E2E2E2E1E1E0E0E0DFDFDE08
:1023C000DEDEDDDDDDDCDCDBDBDBDADADAD9D9D859
:1023D000D8D8D7D7D7D6D6D5D5D5D4D4D4D3D3D3A8
:1023E000D2D2D1D1D1D0D0D0CFCFCFCECECDCDCDF6
:1023F000CCCCCCCBCBCBCACAC9C9C9C8C8C8C7C743
:10240000C7C6C6C6C5C5C5C4C4C4C3C3C2C2C2C18B
:10241000C1C1C0C0C0BFBFBFBEBEBEBDBDBDBCBCD4
:10242000BCBBBBBBBABABAB9B9B9B8B8B8B7B7B719
:10243000B6B6B6B5B5B5B5B4B4B4B3B3B3B2B2B25B
:10244000B1B1B1B0B0B0B0AFAFAFAEAEAEADADAD9B
:10245000ACACACACABABABAAAAAAAAA9A9A9A8A8D8
:10246000A8A8A7A7A7A6A6A6A6A5A5A5A4A4A4A410
:10247000A3A3A3A3A2A2A2A1A1A1A1A0A0A0A09F47
:102480009F9F9F9E9E9E9E9D9D9D9D9C9C9C9C9B78
:102490009B9B9B9A9A9A9A999999999898989898A7
:1024A00097979797969696969695959595949494D2
:1024B00094949393939393929292929291919191F7
:1024C0009190909090908F8F8F8F8F8E8E8E8E8E1A
:1024D0008E8D8D8D8D8D8C8C8C8C8C8C8B8B8B8B39
:1024E0008B8B8A8A8A8A8A8A8A8989898989898951
:1024F0008888888888888887878787878787868667
:102500008686868686868585858585858585858476
:102510008484848484848484848383838383838382
:102520008383838382828282828282828282828287
:10253000828181818181818181818181818181818A
:102540008181808080808080808080808080808089
:10255000808080808080808080808080808080807B
:102560008080808080808080808001000002000068
:102570000300040005070605040100080A0B0C0D02
:10258000090000000200080E0000030401000B0017
:10259000000000000000000000000000000000003B
:1025A0000408020110408040102040804080080252
:1025B00004018040201002011080102040402004BF
:1025C00004040404030405020202020403020202DA
:1025D00002060606060606040402020204040000BF
:1025E00000002300260029002C002F00000000001E
:1025F000250028002B002E003100000000002400E0
:1026000027002A002D003000080B00020202010002
:102610000904000001020200000524001001052445
:1026200001010104240206052406000107058103B7
:1026300010004009040100020A0000000705020220
:102640004000000705830240000009040400020165
:1026500003000007240100012200062402010100FA
:1026600009240301020103010006240202030009F8
:1026700024030204010101000705050240000005D2
:102680002501010107058602400000052501010220
:1026900009040300000101000009240100010900F0
:1026A000010400C18081C18081120100020200008A
:1026B00040412336800001010200011201000200A6
:1026C0000000404123368000010102000120034147
:1026D0000072006400750069006E006F0020004CFD
:1026E000004C004300200020002000200022034175
:1026F0000072006400750069006E006F0020004CDD
:102700000065006F006E006100720064006F0004DD
:1027100003090400000000000000002A2B2800002C
:1027200000000000000000000000000000000000A9
:102730000000002C9EB4A0A1A2A434A6A7A5AE368A
:102740002D3738271E1F20212223242526B333B6F8
:102750002EB7B89F8485868788898A8B8C8D8E8FCB
:10276000909192939495969798999A9B9C9D2F31CE
:1027700030A3AD350405060708090A0B0C0D0E0F32
:10278000101112131415161718191A1B1C1DAFB1AE
:10279000B0B5000904020001030000000921010195
:1027A00000012265000705840340000105010902BC
:1027B000A1010901A10085010509190129031500DD
:1027C00025019503750181029501750581030501B8
:1027D0000930093109381581257F7508950381066F
:1027E000C0C005010906A1018502050719E029E716
:1027F0001500250175019508810295017508810371
:1028000095067508150025650507190029658100DD
:10281000C000CB1C5C216422EA2592270229882F64
:1028200011241FBECFEFDAE0DEBFCDBF11E0A0E084
:10283000B1E0E8E5F7E602C005900D92A837B107D0
:10284000D9F726E0A8E7B1E001C01D92A63AB20789
:10285000E1F718E2C0E2D8E204C02297FE010E942C
:102860006933C231D107C9F70E94E8270C94AA3313
:102870000C94000087E995E090939702809396026C
:102880001092E2011092E1011092E4011092E30132
:102890001092E6011092E5011092E8011092E70112
:1028A0001092EA011092E9011092EC011092EB01F2
:1028B0001092EE011092ED011092F0011092EF01D2
:1028C0001092F2011092F1011092F4011092F301B2
:1028D0001092F6011092F5011092F8011092F70192
:1028E0001092FA011092F9011092FC011092FB0172
:1028F0001092FE011092FD01109200021092FF0151
:10290000109202021092010210920402109203022D
:102910008AE69DE19093E0018093DF019093D601D8
:102920008093D5018AE691E09093CC018093CB010E
:102930001092BA011092B9018FEF93E09093BC010D
:102940008093BB011092BE011092BD018CEB92E00E
:102950009093C0018093BF018AE090E09093C20100
:102960008093C10180E890E0909381018093800181
:102970001092860181E080938E0182E0809396011F
:1029800083E080939E0184E08093A6011092A501CC
:102990000895DC01ED91FC910190F081E02D099406
:1029A000DC01ED91FC910190F081E02D0994CF9232
:1029B000DF92EF92FF92CF93DF9361E08AE00E9473
:1029C0005A2482EB97E19093E4018093E3018BEE2C
:1029D00097E19093E2018093E10142E15AE760E0E0
:1029E00070E080919602909197020E9411271092B8
:1029F0000802109207021092060210920F02109223
:102A00000E0210920D0210920C021092950210927A
:102A100012021092110210921002109213021092E0
:102A200014028091050281708260816080930502AA
:102A30008FEF80938D0180EF8093950180939D01AE
:102A400081E08093A5011092AD018CE090E090931D
:102A500088018093870140918001509181019A0102
:102A6000ACE0B0E00E946D336093890170938A01FD
:102A700080938B0190938C01E9E1F0E0F093900159
:102A8000E0938F01A9E1B0E00E946D336B017C01FE
:102A900060939101709392018093930190939401BC
:102AA0008DE790E09093980180939701ADE7B0E0B7
:102AB0000E946D336093990170939A0180939B01FA
:102AC00090939C01F093A001E0939F01C092A1011B
:102AD000D092A201E092A301F092A4018FEF9FE1B6
:102AE0009093A8018093A701AFEFBFE10E946D33DF
:102AF0006093A9017093AA018093AB019093AC01FC
:102B00002FB7F89480E090E0A7E3B0E08093DB017A
:102B10009093DC01A093DD01B093DE012FBF80E82C
:102B200090E00E94982060E875E285E495E00E94BC
:102B3000E925CFE0D1E08881229662E00E945A2404
:102B400081E0C931D807B9F762E080E10E945A24D8
:102B5000C9E1D1E08881229661E00E945A2481E097
:102B6000C332D807B9F760E08EE10E945A2460E0D2
:102B700081E10E945A24E091AD02F0E0EE0FFF1FC8
:102B8000E75EFE4F61E080810E94932488EC809391
:102B9000780184E68093790181E491E090937B0150
:102BA00080937A012FB7F89480E090E0A4E0B0E041
:102BB0008093C7019093C801A093C901B093CA0143
:102BC0002FBFDF91CF91FF90EF90DF90CF900895CE
:102BD0008F929F92AF92BF92CF92DF92EF92FF922D
:102BE0000F931F93CF93DF932091A4023091A502FE
:102BF0004091A6025091A7028091D1019091D201FB
:102C0000A091D301B091D401C090CD01D090CE015C
:102C1000E090CF01F090D0018C0D9D1DAE1DBF1D29
:102C20008093CD019093CE01A093CF01B093D001BA
:102C3000CD019770E091D501F091D601E80FF91F11
:102C4000A491BB27A7FDB0950E948E332091B801B7
:102C5000222349F12FB7F8948090B4019090B501E8
:102C6000A090B601B090B701C090B001D090B10172
:102C7000E090B201F090B301C80CD91CEA1CFB1C17
:102C8000C092B001D092B101E092B201F092B301D2
:102C90002FBFC090B001D090B101E090B201F09090
:102CA000B3015E2D01C050E00091DB011091DC0109
:102CB0002091DD013091DE01C090D701D090D80184
:102CC000E090D901F090DA010C0D1D1D2E1D3F1D65
:102CD0000093D7011093D8012093D9013093DA01E2
:102CE0004B015C019BE0880C991CAA1CBB1C9A95AB
:102CF000D1F7800E911EA21EB31EC5019770E09100
:102D0000DF01F091E001E80FF91F4491F0917901A2
:102D100080917C0190917D01C0917E01D0917F01D5
:102D2000DC01AC1BBD0B20917A0130917B016C0161
:102D3000EE24D7FCE094FE2C450340011124892C9D
:102D4000990C99088594881A990AAA2497FCA0944A
:102D5000BA2C0E947C33BB2797FDBA95A92F982FD8
:102D6000872F880E991EAA1EBB1EAF2FB0E0A501AB
:102D700094010E948333BB2797FDBA95A92F982F02
:102D8000872FC80ED91EEA1EFB1ED0927D01C0926D
:102D90007C01CC1ADD0AFC9DC001FD9D900D112423
:102DA000892F990F990B8C0F9D1F90937F01809312
:102DB0007E01992787FD9095DF91CF911F910F910B
:102DC000FF90EF90DF90CF90BF90AF909F908F904B
:102DD00008950C942220813099F028F08230E9F097
:102DE000833041F108958091BC02811106C08AE6CA
:102DF00095E19093E0018093DF018AE695E126C09A
:102E00008091BC02811106C08AE695E09093E001B2
:102E10008093DF018AE695E019C08091BC028111A0
:102E200006C08AE69DE09093E0018093DF018AE688
:102E30009DE00CC08091BC02811106C08AE693E03F
:102E40009093E0018093DF018AE693E09093D601AE
:102E50008093D50108950F931F93FC014481558100
:102E6000668177810081118122813381400F511F5A
:102E7000621F731F4083518362837383CB01917000
:102E80000084F185E02DE80FF91F84911F910F91C7
:102E900008951F93CF93DF93EC01CB01BA011FB7C5
:102EA000F89420E030E040E055E40E944A3120E010
:102EB00030E040E858E30E944A3120E030E040E84A
:102EC00057E40E944A310E946C306C837D838E836C
:102ED0009F831FBFDF91CF911F910895CF92DF9203
:102EE000EF92FF920F931F93CF93DF93EC018B012F
:102EF0001B821A82FB01818192819D838C83C8A8E9
:102F0000D9A8EAA8FBA86781862F90E0A0E0B0E0EE
:102F1000772766276C197D098E099F0923813481E3
:102F2000458156810E9448332CAB3DAB4EAB5FAB25
:102F30001FA70EA7DF91CF911F910F91FF90EF90E8
:102F4000DF90CF900895FC01228133812F5F3F4FA6
:102F500033832283448155812417350710F00C9464
:102F60006E170895CF93C62F8091B0029091B10251
:102F700001969093B1028093B00270E080E090E0FF
:102F80000E9498300E946B22AB01BC014093A902C1
:102F90005093AA026093AB027093AC02409303017A
:102FA00050930401609305017093060187ED91E051
:102FB0000E94491766E871E080E891E00E946E1770
:102FC00081E08093B80161E08AE00E949324C0937D
:102FD000A202CF9108958091B0029091B102019721
:102FE0009093B1028093B0028091A20268130AC04C
:102FF0006EE971E080E891E00E946E1760E08AE07F
:103000000C9493240895DC01D0968D919C91D197D6
:10301000813F910509F4BCC03CF5803B910509F462
:103020005FC07CF480399105E9F1803A910509F49B
:1030300074C08038910509F0D8C0ED91FC911197CA
:1030400070C0803D910509F478C02CF4803C910556
:1030500009F478C00895803E910509F446C0803F88
:10306000910509F47CC008958A3F910529F174F413
:10307000833F910509F4A4C00CF48FC0863F9105ED
:1030800009F4A7C0883F910591F008958C3F910500
:10309000E9F0BCF08E3F9105F1F08F3F910509F406
:1030A0009DC008951296ED91FC9113973AC05896E1
:1030B000ED91FC91599796C05A96ED91FC915B97D2
:1030C00091C05C96ED91FC915D978CC05E96ED9100
:1030D000FC915F9787C09096ED91FC91919782C08B
:1030E0001696ED91FC9117971CC01C96ED91FC91E2
:1030F0001D97309709F479C0D3966C91D3976F7769
:1031000020E8629FB0011124D2968C91D2978F77DC
:10311000682B70529F968C9109941496ED91FC91B6
:103120001597309709F461C0D3964C91D397D296F6
:103130006C91D2979F968C9109941A96ED91FC917F
:103140001B9704C01896ED91FC911997309709F4DC
:103150004CC0D2966C91D2979F968C9109941E96F2
:10316000ED91FC911F97309709F43FC0D3966C9175
:10317000D39770E0762F6627D2968C91D297682BE2
:103180006138710510F060E870E0CD01C4960994D3
:103190005096ED91FC91519717C05296ED91FC918C
:1031A0005397309711F1D3968C91D3978F7720E86E
:1031B000829FC0011124D2962C912F77822B0994E3
:1031C0005496ED91FC915597309779F0D2968C9169
:1031D00009945696ED91FC91579704C09296ED9103
:1031E000FC919397309709F0099408959C012F7CE6
:1031F0002038310569F0803D910551F0803E910500
:1032000039F021E0803C910509F020E0822F0895FB
:1032100081E0089587FF0DC09CE0980F923048F040
:10322000893F39F08D3F29F0803F08F4807F90E09E
:10323000089580E090E008950F931F93CF93DF935C
:103240008C01EB016D3F710554F46A3F710564F424
:10325000663F710549F0683F710599F405C0CB01DF
:103260008E5F9109029768F4F801EB54FF4F80815B
:103270009181DC01ED91FC910190F081E02D6C2FAA
:103280000995C63FD10511F4F80116A2DF91CF913F
:103290001F910F910895EF92FF920F931F93CF9379
:1032A000DF93EB01F22E0150003118F46038710504
:1032B00024F4DC0196961C9247C0613E7105B4F57A
:1032C0004F77E42E602BFC0136A18C010B541F4F6D
:1032D000361759F066A3D8018D919C91DC01ED91D0
:1032E000FC910190F081E02D0995F8018081918198
:1032F000DC01ED91FC910190F081E02D6E2D09959E
:10330000CF7EC03CD10501F1F80180819181DC01C3
:10331000ED91FC916F2D6F770190F081E02DDF91A1
:10332000CF911F910F91FF90EF9009949B01265F21
:1033300031092A30310540F4DF91CF911F910F916F
:10334000FF90EF900C941C19DF91CF911F910F917A
:10335000FF90EF900895AF92BF92CF92DF92EF92DD
:10336000FF920F931F93CF93DF931F92CDB7DEB7DA
:103370005C01DC0194968C91949780FFF0C0982FAB
:103380009E7F09F4ECC0D0966D917C91D1979B0102
:10339000205831092136310548F59F960C919F97A9
:1033A00097969C9121E0091711F0911120E08695E4
:1033B00090E08230910539F08330910589F00197D2
:1033C00009F0CDC00FC0222309F4C9C0D501D3969E
:1033D0002C91D397D2964C91C5010E944B19BFC036
:1033E0002111BDC0F50123A942A9F6CFFB01E05F81
:1033F000F109E031F10508F0B2C0EA5AFF4F0C9430
:103400006733C5010F90DF91CF911F910F91FF900E
:10341000EF90DF90CF90BF90AF900C941C19850176
:103420000C5C1F4FD501D3968C91D39790E0982FC9
:103430008827D2962C91822B8138910510F080E854
:1034400090E06C01C00ED11E7501B5EBEB0EF11CC6
:103450000C151D0509F481C0F70180819181D80107
:103460006D918D01DC01ED91FC910190F081E02DD9
:103470000995EECFD501D296FC9085010B541F4FD4
:10348000F80180819181DC01ED91FC910190F08146
:10349000E02D63EF09956F2D6F7770E0F801808163
:1034A00091810E94D014D50196961C9258C0F501C6
:1034B00003A9F0E80F9F80011124D501D2968C91C9
:1034C000082B7501B5EBEB0EF11CF70180819181A2
:1034D000DC01ED91FC910190F081E02D62EF099506
:1034E000B8016F777727F701808191810E94C91415
:1034F000B801660F672F661F770B71956F77772777
:10350000D7018D919C910E94C91427C0D501D296F4
:103510008C918770B0E18B9FC0011124F50123A924
:103520002F70282B85010B541F4FD8018D919C9132
:10353000DC01ED91FC910190F081E02D61EF298398
:103540000995F80180819181DC01ED91FC91019058
:10355000F081E02D2981622F0995F50116A20F90C7
:10356000DF91CF911F910F91FF90EF90DF90CF905F
:10357000BF90AF900895AF92BF92DF92EF92FF920B
:103580000F931F93CF93DF931F92CDB7DEB75C01EC
:10359000DC019796DC90B0E1BD1508F4BFC18C0149
:1035A0000B541F4FF80180819181DC01ED91FC915A
:1035B0000480F581E02D0995892B09F4AFC1F8014C
:1035C00080819181DC01ED91FC910680F781E02DF5
:1035D00009958C01F50185A596A5009709F0D3C042
:1035E00000A7F5A08F2D0E940A190E94F6188823C3
:1035F00079F007FD0DC0D5019896FC9298979996A1
:103600000C93999781E090E09E969C938E939D9762
:10361000F50110A5812F0E940A19813F910509F437
:1036200063C094F5803B910509F466C06CF4803961
:10363000910509F461C0803A910509F45DC08038B4
:10364000910509F05FC058C0803D910509F44CC058
:103650002CF4803C910509F447C054C0803E91058C
:1036600009F44AC0803F910509F04CC020E830E0E1
:10367000D5019C963C932E939B9795961C9295977B
:1036800020EFD4962C9345C0883F9105A9F044F4CF
:10369000833F910549F184F1863F910569F032C07D
:1036A0008A3F91057CF18D3F910534F09C012E5F9E
:1036B00031092230310530F5D501D1969C938E9396
:1036C000D0979F961C929F97D2961C92D297D39692
:1036D0001C9281E0F501EC54FF4F8083F50116A6A2
:1036E00015A614A613A61CC122E030E0D5019C96B5
:1036F0003C932E939B970DC023E030E0F50134A757
:1037000023A707C0F50116A615A614A613A615A291
:1037100005C1D5019D962D913C919E979B964D910B
:103720005C919C97BA01615071092617370728F1FF
:10373000D1969C938E93D097812F8F708F5F9F9699
:103740008C939F9799968C919997D2968C93D297B8
:103750004330510531F49A968C919A97D3968C9375
:1037600002C0F50113AAD5019E961C921E929D9748
:103770009C961C921E929B972BC02F5F3F4FF5018A
:1037800036A725A7CBC007FF50C0980133272D3F90
:1037900031055CF42A3F310574F4273F3105F1F01F
:1037A000283F310509F041C006C0A9014E5F51090B
:1037B00042305105D0F5D501D1963C932E93D09748
:1037C000D2961C92D297D3961C92D3979F961C9216
:1037D00081E0F501EC54FF4F8083A2C0F50124A9DC
:1037E000203F09F59C012F5F3F4FE80FF91F47EF7E
:1037F00044AB80EF90E0D501D1969C938E93D09707
:10380000D2962C93D297D3963C93D3979F961C92A3
:1038100081E0F501EC54FF4F8083F50116A615A653
:1038200014A613A673C0D5011AC0F50120A5E80F90
:10383000F91F203F11F404AB01C000A7D5019B96EE
:10384000ED90FC909C9797012150310982179307C6
:1038500008F45EC098962C919897203F59F49E9654
:103860001C921E929D979C961C921E929B979596D9
:103870001C9254C0822F29830E940A198C01F501E1
:1038800091AB80AB0E94F6182981882339F0822FF2
:103890008F708F5FD5019F968C9302C0F50117A69C
:1038A000D50199968C919997D2968C93B3E0EB16AB
:1038B000F10421F4F50182A583AB03C0D501D396B1
:1038C0001C92F50116A615A614A613A681E0EC54C9
:1038D000FF4F8083003B1105A1F054F4003911051E
:1038E00081F0003A110569F00038110571F409C042
:1038F000003D110531F0003E110519F0003C1105A5
:1039000021F4D50195962C930BC0F50115A208C0A2
:103910000196D5019E969C938E939D9710E02FC0A3
:10392000F50180A991A98039910521F4F50183A9B8
:10393000882301F1D501D0968D919C91D197009764
:1039400099F0805891098136910548F497968C91A9
:1039500097979F969C91981711F0811105C0C5010A
:103960000E94031811E001C010E06D2DC5010E94F6
:10397000AB1905C080E890E091AB80ABDBCF812F25
:103980000F90DF91CF911F910F91FF90EF90DF90FB
:10399000BF90AF9008950C943A141F93CF93DF9388
:1039A00000D0CDB7DEB781E496E00E94F927181663
:1039B000190624F581E496E00E940B28182F492F60
:1039C000693099F49923C1F01092AF021092AE02BF
:1039D00061E08AE09A8379830E9493244A81612F6F
:1039E0007981872F0E94B217DECF6830E1F6612F10
:1039F000872F0E94EB17D7CF40E0F9CF0F900F90A1
:103A0000DF91CF911F9108950F931F93CF93DF9371
:103A10000E94CD1C81EE91E00E94BB1AC7E0D1E06C
:103A200005EC12E0888122960E940322F80181931E
:103A300091938F01F1E0CF30DF07A1F7CFE0D1E024
:103A400008EB12E0888122960E94C92421E0892B8C
:103A500009F020E0F80121938F0180E10E94C92440
:103A600021E0892B09F020E02093B202F1E0C93176
:103A7000DF0741F79091B9028091B4029923B1F127
:103A8000811137C0E091AD02E150E093AD02F0E06A
:103A90003196E370FF27EE0FFF1FE75EFE4F60E0F9
:103AA00080810E9493248091AD0283708093AD0247
:103AB0006DE271E085E495E00E9447294AE050E01C
:103AC0006091AD0285E495E00E94CA29E091AD02C3
:103AD000F0E0EE0FFF1FE75EFE4F61E080810E9485
:103AE00093248091B9028093B40203C08111109293
:103AF000B4029091BB028091B602992399F1811191
:103B000034C0E091AD02EF5FE093AD02F0E0EE0F64
:103B1000FF1FE95EFE4F60E080810E949324809148
:103B2000AD0283708093AD026DE271E085E495E0B3
:103B30000E9447294AE050E06091AD0285E495E09B
:103B40000E94CA29E091AD02F0E0EE0FFF1FE75E90
:103B5000FE4F61E080810E9493248091BB0280939C
:103B6000B60203C081111092B6026091C502709135
:103B7000C6028091BD029091BE026817790709F4D0
:103B800074C08091B202811168C08091AD02813011
:103B900089F110F1823009F060C09B01265F3F4F30
:103BA00040E050E083E056954795379527958A95F4
:103BB000D1F73093880120938701A0918001B091C3
:103BC00081010E9483336093890170938A018093FD
:103BD0008B0190938C0141C0CB01AA2797FDA09542
:103BE000BA2F8093A4029093A502A093A602B0934B
:103BF000A70233C0882777FD8095982F0E949A30BE
:103C000060939A0270939B0280939C0290939D0212
:103C1000CFB7F89420E030E048E452E40E94FF2F50
:103C200020E030E040E054E40E944A3120E030E0FF
:103C300040E05CE30E944A3120E030E040E857E495
:103C40000E944A310E946C306093C7017093C80192
:103C50008093C9019093CA01CFBF8091C502909112
:103C6000C6029093BE028093BD02C091C702D0915C
:103C7000C8028091BF029091C002C817D90709F409
:103C80007FC08091B802882371F063E371E085E41E
:103C900095E00E9447299E013595279535952795F2
:103CA0002093780165C08091AD028130C9F100F1A7
:103CB000823009F05DC09E0140E050E0C3E05695BF
:103CC000479537952795CA95D1F730939001209362
:103CD0008F01A0918001B09181010E948333609394
:103CE000910170939201809393019093940140C04D
:103CF0009E013595279535952795209300012093B2
:103D00007901809178012095289F90011124232F1B
:103D10003327280F311D30937B0120937A0128C06F
:103D2000BE01882777FD8095982F0E949A30609376
:103D30009A0270939B0280939C0290939D0220E0D4
:103D400030E04AE754E40E94FF2F60939E02709394
:103D50009F028093A0029093A102C1E020E030E096
:103D6000A9010E94FB2F811101C0C0E0C0939902FC
:103D70008091C7029091C8029093C0028093BF02C5
:103D8000C091C902D091CA028091C1029091C20231
:103D9000C817D90709F442C08091BA02882311F1EB
:103DA000D093AF02C093AE02BE01882777FD809505
:103DB000982F0E949A3020E030E040E054E40E94C6
:103DC000962F0E94673083E6860F873C18F4109286
:103DD000A80220C06D3914F46C5901C06456609378
:103DE000A80218C08091AD02813091F038F0823085
:103DF00089F4C0939D01C09395010CC0CE01880F3A
:103E0000892F881F990B909302018093010102C0B2
:103E1000D0939802D093C202C093C1022091CB02EA
:103E20003091CC028091C3029091C40228173907C7
:103E3000C1F18091AD028823F1F0823051F540E06C
:103E400050E0F3E05695479537952795FA95D1F7C9
:103E50003093A00120939F01A0918001B091810136
:103E60000E9483336093A1017093A2018093A30108
:103E70009093A4010EC0832F992787FD9A952091D6
:103E8000A30230E08217930721F08093A3020E94DF
:103E9000EB168091CB029091CC029093C402809358
:103EA000C302E091AE01F091AF018081823091F0C8
:103EB00038F4882361F08130B1F466E971E00FC015
:103EC000833059F0843079F41092B8010CC06EE858
:103ED00071E005C06EE971E002C066EA71E080E859
:103EE00091E00E94A31780919902882309F474C07D
:103EF00080919802811131C083EC91E00E942B17D0
:103F00008093A802682F772767FD7095872F972FDA
:103F10000E949A3020919E0230919F024091A0020F
:103F20005091A1020E944A312091A9023091AA0227
:103F30004091AB025091AC020E94972FAB01BC01A3
:103F400040930301509304016093050170930601AF
:103F500087ED91E00E9449171DC06091A802772764
:103F600067FD7095872F972F0E949A309B01AC01B7
:103F70006091A9027091AA028091AB029091AC026B
:103F80000E94972F609303017093040180930501B1
:103F900090930601809198028130F1F483EC91E0D6
:103FA0000E942B178093A80282588093000190E012
:103FB00095958795959587958093790120917801BE
:103FC0008095829FC0011124892F9927820F911D0E
:103FD00090937B0180937A016091010170910201BD
:103FE000882777FD8095982F0E949A3020910301B1
:103FF0003091040140910501509106010E944A311F
:104000000E9467302FB7F894CB01AA2797FDA0959F
:10401000BA2F6DE0880F991FAA1FBB1F6A95D1F7B1
:104020008093D1019093D201A093D301B093D40196
:104030002FBFDF91CF911F910F9108950E94041D12
:104040000C94F9219091DF048091DE04981306C04E
:104050009091E1048091E00498131AC00E94E81541
:104060002091DF04E22FF0E0EE0FFF1FE252FD4F40
:104070008C509F4F918380832F5F2093DF04211109
:1040800007C08091E10491E089278093E1040895BD
:1040900008951F920F920FB60F9211242F933F9302
:1040A0008F939F93AF93BF93EF93FF9381E0909192
:1040B000CD02911180E08093CD02882361F180913F
:1040C000DE04E82FF0E0EE0FFF1FE252FD4F2081EB
:1040D00031818F5F8093DE04811119C08091E004EB
:1040E00091E089278093E0048091E2049091E304B9
:1040F000A091E404B091E5040196A11DB11D809347
:10410000E2049093E304A093E404B093E5043093B5
:10411000890020938800FF91EF91BF91AF919F910B
:104120008F913F912F910F900FBE0F901F90189578
:104130007F928F929F92AF92BF92CF92DF92EF9237
:10414000FF920F931F93CF93DF938C0180E00E9427
:10415000A62184B58093DD0285B58093DC0287B506
:104160008093DB02CEE6D0E088818093DA0298016A
:1041700040E050E060E472E48FE090E00E94483359
:10418000DA01C90140E06EE170E20E9490230E94D2
:10419000E52384B58093D50285B58093D40287B595
:1041A0008093D30288818093D20200E810E0F80166
:1041B00080818093D902C1E8D0E088818093D802C1
:1041C000B8E8CB2ED12CF601808191818093D70263
:1041D0008FE6E82EF12CF70180818093D60261E012
:1041E00089E00E945A2410923D059EE3A92E95E095
:1041F000B92E98E1F50190832FE3822E25E0922ECF
:1042000082E0F40180839883F801808388EE91E056
:10421000A0E0B0E0772473947092380590933A054B
:1042200080933905909387008093860089E1888385
:1042300061E089E00E945A24F8018081F4019081B4
:10424000892B8068F80180832091390530913A05E7
:10425000A4EFB0E00E946D333AE09695879577958C
:1042600067953A95D1F7F60171836083809138059F
:10427000F5019081892B8883F7017082F801808194
:104280008093D10288818093D002F6018081918150
:104290008093CF02F70180818093CE02DF91CF918E
:1042A0001F910F91FF90EF90DF90CF90BF90AF9054
:1042B0009F908F907F9008951092DE041092DF04FB
:1042C0001092E0041092E1040895811109C08091D8
:1042D0007A00846080937A0080917A008D7F1AC082
:1042E000813071F480917A008B7F80937A00809185
:1042F0007A00826080937A0080917A0081600FC09A
:10430000823079F480917A008B7F80937A0080915B
:104310007A00826080937A0080917A008E7F809309
:104320007A00089580E090E041E050E060917E00E6
:104330009A01082E01C0220F0A94EAF7622B6093BB
:104340007E0001968C30910589F70895EAE7F0E048
:104350009081986090830E9465210C949221823113
:1043600008F08251E82FF0E0EB58FA4D849108955F
:10437000EBE7F0E0908183FB222720F930E045E075
:10438000220F331F4A95E1F79F7D922B9083877010
:10439000806480937C00EAE7F0E080818064808321
:1043A0000895CF93DF931F92CDB7DEB78091F204CB
:1043B0009091F3048F3F2FEF920761F0FC01EA51D7
:1043C000FB4F2081298301979093F3048093F2049B
:1043D000898101C08FEF80932201809122018F3F5C
:1043E00021F0809122010E94B8210F90DF91CF919E
:1043F0000895809122018F3F29F40E94D12181E00C
:104400008093210108950E94AF212091F204309100
:10441000F3042B30310554F42F5F3F4F3093F304F6
:104420002093F204F901EA51FB4F8083E82FF0E07A
:10443000EE0FFF1FEC50FB4F808191810895EAE75A
:10444000F0E08081806480830895E0912201809172
:10445000780090917900EE0FFF0BEC50FB4F9183A9
:10446000808308951F920F920FB60F9211242F93FD
:104470003F934F935F936F937F938F939F93AF93EC
:10448000BF93EF93FF9380912101882329F00E942D
:104490001F221092210107C00E9425220E94D121D3
:1044A00081E080932101FF91EF91BF91AF919F91A6
:1044B0008F917F916F915F914F913F912F910F90CD
:1044C0000FBE0F901F9018958FEF9FEF9093F304FE
:1044D0008093F2040895CF92DF92EF92FF926B01E6
:1044E0007C0120E030E0A9010E94FB2F8823B9F075
:1044F00020E030E040E451E4C701B6010E94FF2F04
:104500009B01AC0160E070E080E090E40E94AD317E
:1045100023E130ED42E051E40E944A3103C060E003
:1045200070E0CB01FF90EF90DF90CF90089582E094
:10453000809337058FEF80931205109214058091B8
:104540000C0581508093130580910D05880F8160C3
:104550008093350585EE8093BC00089584E08093B8
:1045600037058FEF809312051092140520910E05E8
:1045700020931305A0910F05B091100585E195E0FA
:10458000FC013E2F381B321718F43D913193F9CFBF
:104590008091110590E0880F991F8093350585EE75
:1045A0008093BC00089585ED8093BC008091BC0091
:1045B00084FDFCCF80913705809336051092370536
:1045C00080913605833011F40C94AE22809136052B
:1045D000813011F40C949722089585EC8093BC00EF
:1045E0008091370580933605109237058091360506
:1045F000833011F40C94AE2280913605813011F491
:104600000C94972208951F920F920FB60F921124C7
:104610002F933F934F935F936F937F938F939F93CA
:10462000AF93BF93EF93FF938091B900887F883257
:1046300039F170F4803109F130F4882309F45BC05A
:104640008830D9F05CC08831D9F0803261F157C030
:104650008034C1F150F4803331F1883309F04FC018
:10466000809312050E94ED224AC08035F9F088350A
:10467000A9F1883409F043C040C08091350510C0CD
:1046800090911405809113059817B8F5E0911405E1
:1046900081E08E0F80931405F0E0EB5EFA4F80818D
:1046A0008093BB0015C08093120527C0E0911405CC
:1046B00081E08E0F809314058091BB00F0E0EB5EEB
:1046C000FA4F80839091140580911305981710F488
:1046D00085EC01C085E88093BC0011C0E091140511
:1046E00081E08E0F809314058091BB00F0E0EB5EBB
:1046F000FA4F808302C0109212050E94D322FF91CC
:10470000EF91BF91AF919F918F917F916F915F9149
:104710004F913F912F910F900FBE0F901F901895C2
:10472000CF92DF92EF92FF92709343056093420520
:1047300040934405A0E0B0E034E0880F991FAA1F21
:10474000BB1F3A95D1F720E030E0F901E659FA4D68
:10475000E491EE2381F06C017D01022E04C0F694F9
:10476000E794D794C7940A94D2F751E0C516D506BA
:10477000E104F10438F02F5F3F4F2B30310529F76A
:1047800080E01EC0A1E0B0E002C0AA0FBB1F2A95C6
:10479000E2F7A70196010E948E3324E09595879554
:1047A000779567952A95D1F77093410560934005F9
:1047B00010926E0082E084BDE5BDCA94C7BC81E062
:1047C000FF90EF90DF90CF900895EEE6F0E08081CB
:1047D00082608083089578941F920F920FB60F9293
:1047E00011242F933F934F935F936F937F938F93F6
:1047F0009F93AF93BF93EF93FF9310926E00E0915E
:104800004205F09143050995F89480914405882369
:1048100011F016BCA99A80916E00826080936E00A0
:10482000FF91EF91BF91AF919F918F917F916F9188
:104830005F914F913F912F910F900FBE0F901F905E
:10484000189590E0FC013197EE30F10590F5EA59AA
:10485000FF4F0C946733809180008F7703C0809165
:1048600080008F7D80938000089584B58F7702C08B
:1048700084B58F7D84BD0895809190008F7707C0A7
:10488000809190008F7D03C080919000877F8093FE
:10489000900008958091C0008F7703C08091C00080
:1048A0008F7D8093C00008958091C200877F8093A0
:1048B000C2000895CF93DF9390E0FC01E056FA4DDB
:1048C0002491FC01E154FA4D8491882349F190E050
:1048D000880F991FFC01E650FA4DA591B4918451BF
:1048E0009A4DFC01C591D4919FB7611108C0F8940D
:1048F0008C91209582238C93888182230AC0623018
:1049000051F4F8948C91322F309583238C938881C5
:10491000822B888304C0F8948C91822B8C939FBF48
:10492000DF91CF9108950F931F93CF93DF931F9241
:10493000CDB7DEB7282F30E0F901EF57FA4D84915B
:10494000F901E056FA4D1491F901E154FA4D049140
:104950000023C9F0882321F069830E942124698102
:10496000E02FF0E0EE0FFF1FE451FA4DA591B49156
:104970009FB7F8948C91611103C01095812301C0F9
:10498000812B8C939FBF0F90DF91CF911F910F913F
:104990000895CF93DF93282F30E0F901EF57FA4DB8
:1049A0008491F901E056FA4DD491F901E154FA4DA0
:1049B000C491CC2391F081110E942124EC2FF0E0CE
:1049C000EE0FFF1FE252FA4DA591B4912C912D23C9
:1049D00081E090E021F480E002C080E090E0DF918F
:1049E000CF9108958091930590919405209195051C
:1049F00030919605821B930B8F7399270895209110
:104A0000930530919405809195059091960528170E
:104A1000390749F0E0919505F0919605ED5AFA4F66
:104A2000808190E008958FEF9FEF08952091930586
:104A30003091940580919505909196052817390736
:104A4000A9F0E0919505F0919605ED5AFA4F808115
:104A500020919505309196052F5F3F4F2F73332797
:104A6000309396052093950590E008958FEF9FEF82
:104A70000895CF93DF93C0919305D091940521962B
:104A8000CF73DD278091950590919605C817D907BA
:104A900099F082E00E944E2A8F3F2FEF920761F03B
:104AA000E0919305F0919405ED5AFA4F8083D093ED
:104AB0009405C0939305DFCFDF91CF91089583E0F4
:104AC0000C94D42C0F931F93CF93DF931F92CDB7E9
:104AD000DEB78C01698380912A01882359F041E077
:104AE00050E0BE016F5F7F4F83E00E94922A18164C
:104AF00019063CF081E090E0F8019383828380E026
:104B000090E00F90DF91CF911F910F910895FC01DC
:104B100020812E5F208342E450E068E076E280E866
:104B20000C942D2BFC0181819081913A59F48132B2
:104B300009F04BC047E050E063E271E080E00E9482
:104B40002D2B45C0913209F040C0803239F467E026
:104B500070E083E291E00E94712B39C0823209F04B
:104B600034C0828180932A01809123019091240195
:104B7000A0912501B0912601803B9440A105B1058B
:104B800031F580912A0180FD12C087E797E7909365
:104B90000108809300082BE088E190E00FB6F894BC
:104BA000A895809360000FBE2093600010C088E13C
:104BB0000FB6F89480936000109260000FBEA89525
:104BC000109201081092000802C080E0089581E070
:104BD00008950895109248051092470588EE93E0D5
:104BE000A0E0B0E08093490590934A05A0934B055F
:104BF000B0934C058CE391E0909346058093450576
:104C00000895FC0124853585F901E05CFF4F808122
:104C10009181329620813181821B930B8F7399276A
:104C20000895FC0184859585FC01E05CFF4F40817F
:104C300051813296208131814217530741F0019012
:104C4000F081E02DE80FF91F808190E008958FEF4B
:104C50009FEF0895FC0184859585FC01E05CFF4F82
:104C6000408151813296208131814217530779F07A
:104C7000A081B181A80FB91F8C91208131812F5F54
:104C80003F4F2F7333273183208390E008958FEFB8
:104C90009FEF0895FC0181A1882329F0A489B5899B
:104CA0008C9186FFFBCF11A20895CF93DF93FC0177
:104CB00026853785D901A05CBF4F8D919C911197B6
:104CC00001968F739927E901CE5BDF4F48815981A7
:104CD00084179507D9F30D90BC91A02DA20FB31F97
:104CE0006C93A685B785A05CBF4F11969C938E935D
:104CF000A689B7892C9181E090E0078C02C0880FCB
:104D0000991F0A94E2F7282B2C9381E081A3048851
:104D1000F589E02D80818064808381E090E0DF91DF
:104D2000CF91089508951F920F920FB60F921124FC
:104D30002F933F934F938F939F93EF93FF93809184
:104D4000C80082FD1CC04091CE0080913D0690912C
:104D50003E0601968F73992720913F0630914006B9
:104D60008217930771F0E0913D06F0913E06E35003
:104D7000FA4F408390933E0680933D0602C0809197
:104D8000CE00FF91EF919F918F914F913F912F9185
:104D90000F900FBE0F901F90189587E995E00E9425
:104DA0000126892B11F00C94922608951F920F92E0
:104DB0000FB60F9211242F933F938F939F93EF93EE
:104DC000FF932091F9053091FA058091FB059091B0
:104DD000FC052817390731F48091C9008F7D809335
:104DE000C90014C0E091FB05F091FC05E754FA4FAF
:104DF00020818091FB059091FC0501968F73992786
:104E00009093FC058093FB052093CE00FF91EF91DA
:104E10009F918F913F912F910F900FBE0F901F90F8
:104E20001895CF92DF92EF92FF92CF93DF93EC0130
:104E30006A017B01411581EE580761057105F9F0A2
:104E4000EC89FD8981E090E008A002C0880F991FDD
:104E50000A94E2F7808360E079E08DE390E0A701B7
:104E600096010E9426332150310941095109569576
:104E7000479537952795211580E1380798F0EC89FB
:104E8000FD89108260E874E88EE190E0A701960148
:104E90000E94263321503109410951095695479501
:104EA00037952795E889F9893083EA89FB8920833A
:104EB00019A2EE89FF89408181E090E09C010C8C71
:104EC00002C0220F331F0A94E2F7422B4083EE897F
:104ED000FF8940819C010D8C02C0220F331F0A9470
:104EE000E2F7422B4083EE89FF8940819C010E8CC2
:104EF00002C0220F331F0A94E2F7422B4083EE894F
:104F0000FF8920810F8C02C0880F991F0A94E2F755
:104F1000809582238083DF91CF91FF90EF90DF9087
:104F2000CF90089510929A051092990588EE93E01B
:104F3000A0E0B0E080939B0590939C05A0939D0515
:104F4000B0939E058EE491E0909398058093970529
:104F50008DEF95E09093A4058093A30589EB95E0F0
:104F60009093A6058093A5058DEC90E09093A805FD
:104F70008093A7058CEC90E09093AA058093A905F7
:104F800088EC90E09093AC058093AB0589EC90E0C1
:104F90009093AE058093AD058AEC90E09093B005B8
:104FA0008093AF058EEC90E09093B2058093B105AD
:104FB00084E08093B30583E08093B40587E0809319
:104FC000B50585E08093B60581E08093B705089527
:104FD0000E94FC2D87E896E00E94DE2C0E94D714E8
:104FE000CDECD6E20E94E9162097E1F30E94CD268F
:104FF000F9CFFC01EE5BFF4F208131813296808139
:105000009181281B390B2F733327C90196958795FA
:10501000969587950895CF93DF93EC01E881F98108
:105020000480F581E02D0995CC5BDF4F2881398123
:105030002C5F3F4F2F73332739832883DF91CF9124
:105040000895CF92DF92EF92FF920F931F93CF9329
:10505000DF937C018C010E5B1F4FD801CD91DC9159
:105060002196CF73DD276C01B4E4CB0ED11CF60181
:1050700080819181C817D907B9F085E00E944E2A36
:105080008F3FEFEF9E0781F0D801ED91FC911197D2
:10509000EE0DFF1D82831196DC93CE93CD91DC91B2
:1050A0002196CF73DD27E3CFDF91CF911F910F9131
:1050B000FF90EF90DF90CF90089586E00C94D42C71
:1050C000CF93DF9300D000D0CDB7DEB749835A83AA
:1050D0006B837C8386E00E947F2A811103C080E07D
:1050E00090E00BC044E050E0BE016F5F7F4F86E070
:1050F0000E94922A1816190694F70F900F900F909D
:105100000F90DF91CF91089587E797E7909301087B
:10511000809300082BE088E190E00FB6F894A89502
:10512000809360000FBE209360000895FF920F935C
:105130001F93CF93DF93EC01E881F9810190F08117
:10514000E02D0995181619062CF060E070E080E05B
:1051500090E03AC0FE01EC5BFF4FA081B181AC0F43
:10516000BD1F1296FC9080819181019620E430E071
:10517000B9010E9412338C0F9D1FDC0112960C9115
:10518000808191810296B9010E9412338C0F9D1F7C
:10519000DC0112961C91808191810396B9010E94D5
:1051A00012338C0F9D1FFC01C281F7E0FF1208C073
:1051B000003F31F4C73F21F4113011F40E948428DC
:1051C0006F2D702F812F9C2FDF91CF911F910F9109
:1051D000FF900895FC0120812F5F208342E150E081
:1051E00060E976E280E80C942D2BFC0120812F5F92
:1051F000208346E450E06AE476E280E80C942D2BAC
:1052000080E008958EE591E09093420680934106F8
:105210000895CF92DF92EF92FF920F931F93CF9357
:10522000DF936C017A01EB01E60EF71E00E010E05F
:10523000CE15DF0561F06991D601ED91FC910190E9
:10524000F081E02DC6010995080F191FF1CFC801A3
:10525000DF91CF911F910F91FF90EF90DF90CF9052
:1052600008956115710581F0DB010D900020E9F7CB
:10527000AD0141505109461B570BDC01ED91FC91EA
:105280000280F381E02D099480E090E008950C9471
:105290003129DC01ED91FC910190F081E02D099420
:1052A0000F931F93CF93DF93EC016DE00E94492988
:1052B0008C016AE0CE010E944929800F911FDF9185
:1052C000CF911F910F9108958F929F92AF92BF92AD
:1052D000CF92DF92EF92FF920F931F93CF93DF93C2
:1052E000CDB7DEB7A1970FB6F894DEBF0FBECDBF26
:1052F0007C01C42EE52FCB01D22E19A221E02D1561
:1053000010F02AE0D22E8E010F5D1F4F8D2C912CB4
:10531000A12CB12C6C2D7E2FA50194010E94263367
:105320008C2DD29E80191124015011098A3014F459
:10533000805D01C0895CF80180832115310541053C
:10534000510521F0C22EE32FCA01E4CFB801C701F5
:105350000E943129A1960FB6F894DEBF0FBECDBFD3
:10536000DF91CF911F910F91FF90EF90DF90CF9041
:10537000BF90AF909F908F9008952115310541F413
:10538000DC01ED91FC910190F081E02D642F0994F6
:105390000C9464290F931F93CF93DF93EC019A0130
:1053A000462F50E060E070E00E94BD298C01CE01E4
:1053B0000E945029800F911FDF91CF911F910F9173
:1053C0000895615030F02091F100FC012083019696
:1053D000F8CF289884E680938E0608952FB7FC01B5
:1053E0002083F89467706093E9000895CF93DF936A
:1053F0001F92CDB7DEB7682FCE0101960E94EE292D
:105400008091F20099819FBF0F90DF91CF91089515
:10541000FF920F931F93CF93DF9300D0CDB7DEB7EA
:10542000F62E8A0190918D06992311F057FF03C043
:105430008FEF9FEF2BC0682FCE0101967A830E94D9
:10544000EE298091F20090E0A8017A8180179107FF
:105450000CF4AC01EF2DF72FF40E84E6FE1639F0B4
:10546000289880938E069091F1009193F7CF411583
:10547000510521F08091F200882321F089818FBFAE
:10548000CA0104C08BE68093E800F8CF0F900F901C
:10549000DF91CF911F910F91FF900895CF93DF93EC
:1054A0001F92CDB7DEB741E050E0BE016F5F7F4F86
:1054B0000E94082A019719F4898190E002C08FEFB9
:1054C0009FEF0F90DF91CF910895CF93DF931F92BD
:1054D000CDB7DEB7682FCE0101960E94EE299091DC
:1054E000E800892F807295FF04C09091F20080E45B
:1054F000891B99819FBF0F90DF91CF910895CF9322
:10550000DF931F92CDB7DEB7682FCE0101960E94C0
:10551000EE298091E80099819FBF80720F90DF9102
:10552000CF9108954F925F926F927F928F929F9248
:10553000AF92BF92CF92DF92EF92FF920F931F93A1
:10554000CF93DF931F92CDB7DEB7582E7B01A42EE9
:10555000952E80918D06882369F0042F152F8AEFF0
:10556000B82E852D8072782E9AE3892E852D807431
:10557000682E11C08FEF9FEF53C0852D0E94652AC2
:10558000482E81110CC0BA94A9F361E070E080E06C
:1055900090E00E94D42D0115110579F737C0282F0E
:1055A00030E0021713070CF4402EC42CD12C0C1938
:1055B0001D09652DCE0101960E94EE29772039F054
:1055C0004A948FEF4816B1F01092F100F9CFF7012D
:1055D000842D57FE07C0815058F094919093F100AC
:1055E0003196F9CF815020F091919093F100FACF4C
:1055F000EC0CFD1C8091E80085FF0FC00115110522
:1056000011F461100AC089818FBFC5CF5D9884E60F
:1056100080938F068A2D992D03C08092E800F3CFE6
:105620000F90DF91CF911F910F91FF90EF90DF903E
:10563000CF90BF90AF909F908F907F906F905F9032
:105640004F9008951092E90010928C0610928B06EC
:1056500090938A06809389060895CF93DF93FB0188
:1056600020E030E0DEEF24173507A1F187FF02C00C
:10567000C49101C0C081A0918B06B0918C0660914D
:10568000890670918A06A617B707B4F49091E800CE
:105690009570E1F39091E80092FD1EC0C093F10077
:1056A00060918B0670918C066F5F7F4F6F737727C9
:1056B000672B11F4D093E80060918B0670918C06F3
:1056C0006F5F7F4F70938C0660938B062F5F3F4F09
:1056D0003196C9CFC90102C08FEF9FEFDF91CF9103
:1056E00008951F93CF93DF931F92CDB7DEB7162F88
:1056F0002091E80022FFFCCF612F79830E94E129ED
:105700008BEF8093E800812F7981972F0F90DF91A5
:10571000CF911F910895CF93DF931F92CDB7DEB73E
:105720001982CE0101960E948725CE0101960E9422
:10573000702ECE0101960E94EA28CE0101960E94A9
:10574000F528898190E00F90DF91CF9108951F9205
:105750000F920FB60F921124EF92FF920F931F93A7
:105760002F933F934F935F936F937F938F939F9369
:10577000AF93BF93EF93FF93CF93DF93CDB7DEB794
:105780006297DEBFCDBF1092E9008091E80083FFF1
:10579000EEC068E0CE010A960E94E12982EF809374
:1057A000E8009A8597FF05C08091E80080FFFCCF54
:1057B00003C08EEF8093E800892F807609F0B5C092
:1057C0008B85811105C01092F1001092F100C8C0C4
:1057D000282F2D7F213009F4C3C0853049F48091F2
:1057E000E80080FFFCCF8C8580688093E300B8C020
:1057F000863009F072C02D85E888F988223071F56D
:1058000080E090E02A8B0E94222B0E948B2B99E053
:105810008E010F5F1F4FF801392F11923A95E9F76A
:1058200099832A892A8391E09E8390E898879AEF4A
:10583000998720918B0630918C06275F3F4F3C83E0
:105840002B838D83C7010E94222B49E050E0B801D1
:1058500080E00E942D2B0E948B2B82C0C7012A8BD7
:105860000E94222B2A89223241F482E290E00E9497
:105870007B2E892B09F074C077C0213069F48889A8
:105880009989089711F420938806809188068823C7
:1058900089F069EA76E216C0233009F065C08C858C
:1058A000882359F0823061F0813009F05DC06DECE1
:1058B00076E208C06BEB76E205C06FE077E202C0EB
:1058C0006DEE76E26115710509F44EC0FB0144915D
:1058D00050E080E80E942D2B43C0873009F444C07B
:1058E000883021F481E08093F1003AC08930C1F51D
:1058F0009370D1F5E3EAF6E281E021E096E380934C
:10590000E9002093EB0034913093EC009093ED008C
:105910008F5F3196873099F78EE78093EA00109277
:10592000EA008C8580938D061BC0888999890E9426
:10593000222B8E85811105C0CE010A960E949225E8
:105940000DC0823029F4CE010A960E94A32E06C013
:10595000843051F4CE010A960E940029882321F058
:105960008EEF8093E80003C081E28093EB006296A3
:105970000FB6F894DEBF0FBECDBFDF91CF91FF9180
:10598000EF91BF91AF919F918F917F916F915F91B7
:105990004F913F912F911F910F91FF90EF900F909A
:1059A0000FBE0F901F9018958093E9008091F20030
:1059B000882319F08AE38093E800089510928D06F9
:1059C00081E08093D70080EA8093D80082E189BD8E
:1059D00009B400FEFDCF61E070E080E090E00E943D
:1059E000D42D80E98093D8008CE08093E20010925F
:1059F000E000559A209A08951F920F920FB60F92C9
:105A000011242F933F934F935F936F937F938F93C3
:105A10009F93AF93BF93EF93FF938091E100109218
:105A2000E10083FF0FC01092E90091E09093EB003A
:105A30001092EC0092E39093ED0010928D0698E0A6
:105A40009093F00082FF32C083E00E94D42C82E069
:105A50000E94F629882321F085E495E00E943925EB
:105A600086E00E94D42C85E00E94F629882321F04C
:105A700081E496E00E94212880918F06882339F0E6
:105A800080918F06815080938F06882369F08091E2
:105A90008E06882359F080918E06815080938E0661
:105AA000811104C0289A02C05D9AF1CFFF91EF9155
:105AB000BF91AF919F918F917F916F915F914F9126
:105AC0003F912F910F900FBE0F901F9018951F922E
:105AD0000F920FB60F9211242F933F938F939F93A2
