:100000000C94100E0C94380E0C94380E0C94380E80
:100010000C94380E0C94380E0C94380E0C94380E48
:100020000C94380E0C94380E0C94C02A0C9466294B
:100030000C94380E0C94380E0C94380E0C94380E28
:100040000C94380E0C94380E0C94380E0C94380E18
:100050000C94941C0C941F210C94380E0C946C2B53
:100060000C94380E0C94F8230C943B240C94380E0A
:100070000C94380E0C94951E0C94380E0C94380E7B
:100080000C94380E0C94380E0C94380E0C94380ED8
:100090000C9435200C94380E0C94380E0C94380EB9
:1000A0000C94380E0C94380E0C94380E4F16BD1666
:1000B00092167816F116F1164B16F1164B16F1162C
:1000C0004B164B164B16F1164B164B169A219D21CB
:1000D00090219421BE21BE21BE21A121A521A921CB
:1000E000AF21B321BE21B92107634236B79BD8A700
:1000F0001A39685618AEBAAB558C1D3CB7CC57634D
:10010000BD6DEDFD753EF6177231BF000000803FFA
:1001100008000000BE922449123EABAAAA2ABECD16
:10012000CCCC4C3E00000080BEABAAAAAA3E000088
:100130000000BF000000803F000000000008417880
:10014000D3BB4387D1133D190E3CC3BD4282AD2BB7
:100150003E68EC8276BED98FE1A93E4C80EFFFBEAF
:1001600001C4FF7F3F0000000000000102040507FA
:1001700008090B0C0E0F101213151617191A1B1D58
:100180001E20212224252628292A2C2D2E2F3132EB
:1001900033353637383A3B3C3D3E40414243444597
:1001A0004647494A4B4C4D4E4F5051525354555669
:1001B000575859595A5B5C5D5E5E5F60616262636D
:1001C000646465666667686869696A6A6B6B6C6CAB
:1001D0006D6D6E6E6F6F6F70707070717171717226
:1001E00072727272727273737373737373737372E6
:1001F00072727272727271717171707070706F6FF1
:100200006F6E6E6D6D6C6C6B6B6A6A69696868673E
:10021000666665646463626261605F5E5E5D5C5BCE
:100220005A59595857565554535251504F4E4D4C98
:100230004B4A4947464544434241403E3D3C3B3A98
:10024000383736353332312F2E2D2C2A29282625C2
:10025000242221201E1D1C1A191716151312100F07
:100260000E0C0B0908070504020100FEFDFBFAF85D
:10027000F7F6F4F3F1F0EFEDECEAE9E8E6E5E4E2B5
:10028000E1DFDEDDDBDAD9D7D6D5D3D2D1D0CECD02
:10029000CCCAC9C8C7C5C4C3C2C1BFBEBDBCBBBA36
:1002A000B9B8B6B5B4B3B2B1B0AFAEADACABAAA944
:1002B000A8A7A6A6A5A4A3A2A1A1A09F9E9D9D9C20
:1002C0009B9B9A99999897979696959594949393C2
:1002D000929291919090908F8F8F8F8E8E8E8E8D27
:1002E0008D8D8D8D8D8D8C8C8C8C8C8C8C8C8C8C48
:1002F0008D8D8D8D8D8D8E8E8E8E8F8F8F8F90901C
:1003000090919192929393949495959696979798AD
:1003100099999A9B9B9C9D9D9E9FA0A1A1A2A3A4FD
:10032000A5A6A6A7A8A9AAABACADAEAFB0B1B2B313
:10033000B4B5B6B8B9BABBBCBDBEC0C1C2C3C4C5F2
:10034000C7C8C9CACCCDCED0D1D2D3D5D6D7D9DAA9
:10035000DBDDDEDFE1E2E4E5E6E8E9EAECEDEFF043
:10036000F1F3F4F6F7F8FAFBFDFE174466777870C0
:10037000655E5E63696D6D6A65626265686B6B6917
:1003800066646466686A6A686665656668696968FD
:1003900066656566686969686665656668696968ED
:1003A00066666666686868686666666668686868DD
:1003B00067666666686868686766666767686867CC
:1003C00067666667676868676766666767686867BD
:1003D00067666667676868676766666767686867AD
:1003E000676666676768686767666667676868679D
:1003F000676666676768686767666667676868678D
:10040000676666676768686767666667676868677C
:10041000676666676768686767666667686868686A
:10042000676666676868686866666666686868685A
:10043000666666666869696866656566686969684A
:10044000666565666869696866656566686A6A683A
:1004500066646466696B6B68656262656A6D6D6926
:10046000635E5E65707877664417EAC5ADA2A1A7A2
:10047000ADB2B2AFABA8A8AAADAFAFADABA9A9ABB7
:10048000ADAEAEADABAAAAABACADADADABAAAAABAF
:10049000ACADADACABABABABACADADACABABABABA0
:1004A000ACADADACACABABABACADADACACABABAC8D
:1004B000ACADADACACABABACACADADACACABABAC7C
:1004C000ACADADACACABABACACADADACACABABAC6C
:1004D000ACADADACACABABACACADACACACABABAC5D
:1004E000ACACACACACABABACACACACACACABABAC50
:1004F000ACACACACACABABACACACACACACABABAC40
:10050000ACADADACACABABACACADADACACABABAC2B
:10051000ACADADACACABABACACADADACACABABAC1B
:10052000ACADADACACABABACACADADACABABABAC0C
:10053000ACADADACABABABABACADADACABABABABFF
:10054000ACADADACABAAAAABADADADACABAAAAABF2
:10055000ADAEAEADABA9A9ABADAFAFADAAA8A8ABE0
:10056000AFB2B2ADA7A1A2ADC5EA00000000010183
:10057000010102020202030303030404040404054C
:1005800005050506060607070707080808080909FC
:1005900009090A0A0A0A0B0B0B0B0B0C0C0C0D0DAC
:1005A0000D0D0E0E0E0E0F0F0F0F1010101011115B
:1005B000111111121212121313131314141414150F
:1005C00015151516161616171717181818181919BD
:1005D00019191A1A1A1A1B1B1B1B1C1C1C1C1D1D6B
:1005E0001D1D1E1E1E1E1F1F1F1F2020202020211C
:1005F00021202222222223232323242424242525CC
:10060000252526262626272727272828282828297B
:100610002929292A2A2A2A2B2B2B2C2C2C2C2D2D2C
:100620002D2D2E2E2E2E2F2F2F2F303030303131DA
:10063000313131323232333333333434343434358C
:10064000353536363636363737373838383838393C
:1006500039393A3A3A3A3B3B3B3B3C3C3C3C3C3DEB
:100660003D3D3E3E3E3E3E3F3F3F3F40404041419C
:10067000414141424242424343434444444445454C
:1006800045454646464647474747484848484949FA
:100690004949494A4A4A4A4B4B4B4C4C4C4C4D4DAC
:1006A0004D4D4D4E4E4E4E4F4F4F5050505051515C
:1006B000515151525252535353535454545455550B
:1006C00055555556565656575757585858585859BD
:1006D00059595A5A5A5A5B5B5B5B5C5C5C5C5C5D6B
:1006E0005D5D5E5E5E5E5F5F5F5F5F60606061611B
:1006F00061616262626263636363636464646565CB
:10070000656565666666666767676768686869697C
:100710006969696A6A6A6A6B6B6B6C6C6C6C6D6D2B
:100720006D6D6E6E6E6E6F6F6F6F707070707071DA
:10073000717171727272727373737374747474758D
:10074000757575767676777777777878787878793B
:1007500079797A7A7A7A7B7B7B7B7C7C7C7C7D7DE9
:100760007D7D7D7E7E7E7F7F7F7F7F7F7F7E7E7EA5
:100770007E7E7D7D7D7D7C7C7C7C7B7B7B7B7A7AB9
:100780007A7A7979797978787878777777777676E9
:100790007676757575757474747473737373727219
:1007A0007271717171707070706F6F6F6F6E6E6E4D
:1007B0006E6D6D6D6D6D6C6C6C6C6B6B6B6B6A6A7A
:1007C0006A696969696868686868676767666666AC
:1007D00066666565656564646463636363626262DB
:1007E000626161616160606060605F5F5F5E5E5E0C
:1007F0005E5D5D5D5D5C5C5C5C5B5B5B5B5B5A5A3C
:100800005A5A595959595858585857575757565668
:100810005656555555545454545453535353525299
:100820005251515151505050504F4F4F4F4E4E4ECC
:100830004E4E4D4D4D4D4C4C4C4C4B4B4B4A4A4AF9
:100840004A4A494949494848484847474747464628
:100850004645454545454444444443434343424259
:100860004241414141414040403F3F3F3F3F3E3E8A
:100870003E3E3D3D3D3C3C3C3C3C3B3B3B3B3A3AB9
:100880003A3A3939393838383838373737373636E9
:10089000363635353535343434333333333232321A
:1008A0003232313131313030302F2F2F2F2E2E2E4A
:1008B0002E2E2D2D2D2D2C2C2C2B2B2B2B2A2A2A7A
:1008C0002A292929292928282828272727262626AA
:1008D00026262525252424242424232323222222DA
:1008E000222121202121202020201F1F1F1F1E1E0A
:1008F0001E1E1D1D1D1D1C1C1C1B1B1B1B1B1A1A39
:100900001A19191919191818181817171717161668
:100910001616151515151414141313131313121298
:10092000121211111110101010100F0F0F0F0E0EC8
:100930000E0E0D0D0D0D0C0C0C0C0B0B0B0B0A0AF7
:100940000A0A090909090808080807070706060628
:100950000605050505050404040403030303020258
:1009600002010101010100000000FFFFFFFEFEFE89
:10097000FEFDFDFDFDFCFCFCFCFBFBFBFBFAFAFABB
:10098000FAFAF9F9F9F8F8F8F8F8F7F7F7F7F6F6E8
:10099000F6F5F5F5F5F4F4F4F4F4F3F3F3F3F2F219
:1009A000F2F1F1F1F1F1F0F0F0F0EFEFEFEEEEEE49
:1009B000EEEDEDEDEDEDECECECEBEBEBEBEBEAEA79
:1009C000EAEAE9E9E9E9E8E8E8E7E7E7E7E7E6E6A8
:1009D000E6E6E5E5E5E4E4E4E4E3E3E3E3E3E2E2D9
:1009E000E2E1E1E1E1E0E0E0E0E0DFDFDFDFDEDE09
:1009F000DEDDDDDDDDDCDCDCDCDCDBDBDBDADADA3A
:100A0000DAD9D9D9D9D8D8D8D8D8D7D7D7D7D6D668
:100A1000D6D5D5D5D5D4D4D4D4D3D3D3D3D2D2D29A
:100A2000D2D1D1D1D1D0D0D0D0D0CFCFCFCFCECEC8
:100A3000CECECDCDCDCDCCCCCCCBCBCBCBCACACAF8
:100A4000CAC9C9C9C9C8C8C8C8C7C7C7C7C6C6C62A
:100A5000C6C5C5C5C5C4C4C4C4C4C3C3C3C3C2C258
:100A6000C2C1C1C1C1C1C0C0C0C0BFBFBFBFBEBE87
:100A7000BEBDBDBDBDBDBCBCBCBCBBBBBBBBBABAB7
:100A8000BABAB9B9B9B9B8B8B8B8B7B7B7B7B6B6E6
:100A9000B6B6B5B5B5B5B4B4B4B4B3B3B3B3B2B216
:100AA000B2B2B1B1B1B1B0B0B0B0AFAFAFAEAEAE47
:100AB000AEAEADADADADACACACABABABABAAAAAA78
:100AC000AAA9A9A9A9A8A8A8A8A7A7A7A7A7A6A6A9
:100AD000A6A5A5A5A5A5A4A4A4A3A3A3A3A2A2A2D9
:100AE000A2A1A1A1A1A1A0A0A0A09F9F9F9F9E9E07
:100AF0009E9E9D9D9D9D9C9C9C9C9B9B9B9B9A9A36
:100B00009A9A999999989898989797979797969667
:100B10009696959595949494949393939393929297
:100B20009292919191919090908F8F8F8F8F8E8EC6
:100B30008E8E8D8D8D8C8C8C8C8B8B8B8B8A8A8AF8
:100B40008A89898989898888888887878786868627
:100B50008686858585858484848483838382828256
:100B6000828181818181808080808080808081817C
:100B70008181818282828383838383848484858547
:100B800085858686868687878787878888888889F7
:100B900089898A8A8A8A8A8B8B8B8C8C8C8C8D8DA6
:100BA0008D8D8D8E8E8E8E8F8F8F90909090919157
:100BB0009191929292929393939394949494959505
:100BC00095959696969697979797979898989999B6
:100BD00099999A9A9A9A9A9B9B9B9C9C9C9C9D9D66
:100BE0009D9D9E9E9E9E9F9F9F9F9FA0A0A0A1A116
:100BF000A1A1A1A2A2A2A2A3A3A3A4A4A4A4A4A5C8
:100C0000A5A5A5A6A6A6A7A7A7A7A7A8A8A8A9A976
:100C1000A9A9AAAAAAAAAAABABABACACACACACAD26
:100C2000ADADAEAEAEAEAEAFAFAFAFB0B0B0B1B1D6
:100C3000B1B1B2B2B2B2B2B3B3B3B3B4B4B4B5B586
:100C4000B5B5B6B6B6B6B6B7B7B7B7B8B8B8B9B936
:100C5000B9B9BABABABABBBBBBBBBCBCBCBCBDBDE4
:100C6000BDBDBEBEBEBEBEBFBFBFC0C0C0C0C0C196
:100C7000C1C1C2C2C2C2C2C3C3C3C3C4C4C4C5C546
:100C8000C5C5C6C6C6C6C6C7C7C7C7C8C8C8C8C9F7
:100C9000C9C9C9CACACACBCBCBCBCBCCCCCCCCCDA7
:100CA000CDCDCDCECECECFCFCFCFCFD0D0D0D1D156
:100CB000D1D1D2D2D2D2D2D3D3D3D3D4D4D4D4D507
:100CC000D5D5D5D6D6D6D7D7D7D7D8D8D8D8D8D9B6
:100CD000D9D9D9DADADADBDBDBDBDBDCDCDCDCDD67
:100CE000DDDDDEDEDEDEDEDFDFDFE0E0E0E0E1E115
:100CF000E1E1E1E2E2E2E3E3E3E3E4E4E4E4E4E5C6
:100D0000E5E5E5E6E6E6E6E7E7E7E8E8E8E8E9E975
:100D1000E9E9E9EAEAEAEBEBEBEBECECECECEDED24
:100D2000EDEDEDEEEEEEEFEFEFEFF0F0F0F0F1F1D4
:100D3000F1F1F2F2F2F2F3F3F3F3F3F4F4F4F5F584
:100D4000F5F5F5F6F6F6F7F7F7F7F8F8F8F8F9F934
:100D5000F9F9FAFAFAFAFBFBFBFBFBFCFCFCFDFDE4
:100D6000FDFDFEFEFEFEFFFFFFFF80808080808095
:100D7000808081818181818181818282828282825F
:100D80008282828383838383838384848484848430
:100D90008484848585858585858586868686868600
:100DA00086868787878787878787888888888888CF
:100DB000888889898989898989898A8A8A8A8A8A9F
:100DC0008A8A8A8B8B8B8B8B8B8B8B8C8C8C8C8C71
:100DD0008C8C8D8D8D8D8D8D8D8D8D8E8E8E8E8E40
:100DE0008E8E8F8F8F8F8F8F8F8F9090909090900F
:100DF00090909191919191919191929292929292DF
:100E000092929393939393939393949494949494AE
:100E1000949494959595959595959696969696967F
:100E20009696969797979797979797989898989850
:100E300098989899999999999999999A9A9A9A9A20
:100E40009A9A9B9B9B9B9B9B9B9B9B9C9C9C9C9CEF
:100E50009C9C9C9D9D9D9D9D9D9D9E9E9E9E9E9EBF
:100E60009E9E9F9F9F9F9F9F9F9F9FA0A0A0A0A08F
:100E7000A0A0A1A1A1A1A1A1A1A1A2A2A2A2A2A25E
:100E8000A2A2A3A3A3A3A3A3A3A3A4A4A4A4A4A42E
:100E9000A4A4A4A5A5A5A5A5A5A5A6A6A6A6A6A6FF
:100EA000A6A6A7A7A7A7A7A7A7A7A8A8A8A8A8A8CE
:100EB000A8A8A8A9A9A9A9A9A9A9A9AAAAAAAAAAA0
:100EC000AAAAABABABABABABABABACACACACACAC6E
:100ED000ACACADADADADADADADADAEAEAEAEAEAE3E
:100EE000AEAEAFAFAFAFAFAFAFAFAFB0B0B0B0B00F
:100EF000B0B0B0B1B1B1B1B1B1B1B2B2B2B2B2B2DF
:100F0000B2B2B3B3B3B3B3B3B3B3B4B4B4B4B4B4AD
:100F1000B4B4B5B5B5B5B5B5B5B5B6B6B6B6B6B67D
:100F2000B6B6B7B7B7B7B7B7B7B7B8B8B8B8B8B84D
:100F3000B8B8B8B9B9B9B9B9B9B9BABABABABABA1E
:100F4000BABABBBBBBBBBBBBBBBBBCBCBCBCBCBCED
:100F5000BCBCBDBDBDBDBDBDBDBDBDBEBEBEBEBEBE
:100F6000BEBEBFBFBFBFBFBFBFBFC0C0C0C0C0C08D
:100F7000C0C0C1C1C1C1C1C1C1C1C1C2C2C2C2C25E
:100F8000C2C2C2C3C3C3C3C3C3C3C4C4C4C4C4C42E
:100F9000C4C4C4C5C5C5C5C5C5C5C5C6C6C6C6C6FF
:100FA000C6C6C7C7C7C7C7C7C7C7C8C8C8C8C8C8CD
:100FB000C8C8C9C9C9C9C9C9C9C9CACACACACACA9D
:100FC000CACACBCBCBCBCBCBCBCBCBCCCCCCCCCC6E
:100FD000CCCCCCCDCDCDCDCDCDCDCDCECECECECE3F
:100FE000CECECFCFCFCFCFCFCFCFD0D0D0D0D0D00D
:100FF000D0D0D1D1D1D1D1D1D1D1D2D2D2D2D2D2DD
:10100000D2D2D2D3D3D3D3D3D3D3D4D4D4D4D4D4AD
:10101000D4D4D4D5D5D5D5D5D5D5D6D6D6D6D6D67D
:10102000D6D6D6D7D7D7D7D7D7D7D8D8D8D8D8D84D
:10103000D8D8D9D9D9D9D9D9D9D9D9DADADADADA1D
:10104000DADADADBDBDBDBDBDBDBDCDCDCDCDCDCED
:10105000DCDCDCDDDDDDDDDDDDDDDDDEDEDEDEDEBE
:10106000DEDEDFDFDFDFDFDFDFDFDFE0E0E0E0E08D
:10107000E0E0E1E1E1E1E1E1E1E1E2E2E2E2E2E25C
:10108000E2E2E2E3E3E3E3E3E3E3E4E4E4E4E4E42D
:10109000E4E4E5E5E5E5E5E5E5E5E6E6E6E6E6E6FC
:1010A000E6E6E7E7E7E7E7E7E7E7E7E8E8E8E8E8CD
:1010B000E8E8E9E9E9E9E9E9E9E9EAEAEAEAEAEA9C
:1010C000EAEAEBEBEBEBEBEBEBEBECECECECECEC6C
:1010D000ECECECEDEDEDEDEDEDEDEDEEEEEEEEEE3E
:1010E000EEEEEEEFEFEFEFEFEFEFF0F0F0F0F0F00D
:1010F000F0F0F0F1F1F1F1F1F1F1F1F2F2F2F2F2DE
:10110000F2F2F3F3F3F3F3F3F3F3F4F4F4F4F4F4AB
:10111000F4F4F4F5F5F5F5F5F5F5F6F6F6F6F6F67C
:10112000F6F6F7F7F7F7F7F7F7F7F8F8F8F8F8F84B
:10113000F8F8F8F9F9F9F9F9F9F9F9FAFAFAFAFA1D
:10114000FAFAFBFBFBFBFBFBFBFBFCFCFCFCFCFCEB
:10115000FCFCFDFDFDFDFDFDFDFDFDFEFEFEFEFEBC
:10116000FEFEFFFFFFFFFFFFFFFF0000000000008B
:10117000000000010101010101010102020202025D
:10118000020203030303030303030404040404042B
:1011900004040505050505050505060606060606FB
:1011A00006060707070707070707070808080808CC
:1011B000080809090909090909090A0A0A0A0A0A9B
:1011C0000A0A0B0B0B0B0B0B0B0B0B0C0C0C0C0C6C
:1011D0000C0C0D0D0D0D0D0D0D0D0D0E0E0E0E0E3C
:1011E0000E0E0F0F0F0F0F0F0F0F0F10101010100C
:1011F00010101011111111111111121212121212DC
:1012000012121313131313131313141414141414AA
:10121000141415151515151515151516161616167B
:10122000161617171717171717171818181818184A
:1012300018181919191919191919191A1A1A1A1A1B
:101240001A1A1A1B1B1B1B1B1B1B1C1C1C1C1C1CEB
:101250001C1C1D1D1D1D1D1D1D1D1E1E1E1E1E1EBA
:101260001E1E1F1F1F1F1F1F1F1F1F20202020208B
:10127000202021212021212221212022222222225C
:10128000222223232323232323232424242424242A
:1012900024242425252525252525262626262626FB
:1012A00026262727272727272727282828282828CA
:1012B000282829292929292929292A2A2A2A2A2A9A
:1012C0002A2A2A2B2B2B2B2B2B2B2B2C2C2C2C2C6C
:1012D0002C2C2D2D2D2D2D2D2D2D2E2E2E2E2E2E3A
:1012E0002E2E2E2F2F2F2F2F2F2F2F30303030300C
:1012F00030303131313131313131323232323232DA
:1013000032323333333333333333333434343434AA
:101310003434353535353535353536363636363679
:10132000363636373737373737373738383838384B
:1013300038383939393939393939393A3A3A3A3A1A
:101340003A3A3A3B3B3B3B3B3B3B3C3C3C3C3C3CEA
:101350003C3C3D3D3D3D3D3D3D3D3E3E3E3E3E3EB9
:101360003E3E3F3F3F3F3F3F3F3F40404040404089
:101370004040414141414141414142424242424259
:101380004242434343434343434344444444444429
:1013900044444545454545454545464646464646F9
:1013A00046464647474747474747484848484848CA
:1013B000484849494949494949494A4A4A4A4A4A99
:1013C0004A4A4A4B4B4B4B4B4B4B4C4C4C4C4C4C6A
:1013D0004C4C4C4D4D4D4D4D4D4D4D4E4E4E4E4E3B
:1013E0004E4E4F4F4F4F4F4F4F4F50505050505009
:1013F00050505051515151515151525252525252DA
:1014000052525253535353535353545454545454A9
:101410005454545555555555555556565656565679
:101420005656565757575757575758585858585849
:1014300058585859595959595959595A5A5A5A5A1A
:101440005A5A5B5B5B5B5B5B5B5B5C5C5C5C5C5CE8
:101450005C5C5D5D5D5D5D5D5D5D5E5E5E5E5E5EB8
:101460005E5E5F5F5F5F5F5F5F5F60606060606088
:101470006060616161616161616161626262626259
:101480006262636363636363636363646464646429
:1014900064646565656565656565656666666666F9
:1014A00066666767676767676767686868686868C8
:1014B000686869696969696969696A6A6A6A6A6A98
:1014C0006A6A6B6B6B6B6B6B6B6B6C6C6C6C6C6C68
:1014D0006C6C6D6D6D6D6D6D6D6D6E6E6E6E6E6E38
:1014E0006E6E6F6F6F6F6F6F6F6F70707070707008
:1014F00070707171717171717171717272727272D9
:1015000072727373737373737373747474747474A7
:101510007474747575757575757575767676767679
:101520007676777777777777777777787878787848
:1015300078787879797979797979797A7A7A7A7A19
:101540007A7A7B7B7B7B7B7B7B7B7C7C7C7C7C7CE7
:101550007C7C7D7D7D7D7D7D7D7D7D7E7E7E7E7EB8
:101560007E7E7F7F7F7F7F7F7F7F80808080808087
:10157000808080808080808080808080808080816A
:101580008181818181818182828282828282838340
:101590008383838484848484858585858586868603
:1015A00086878787888888888989898A8A8A8A8BB2
:1015B0008B8B8C8C8C8D8D8E8E8E8F8F8F9090914F
:1015C00091919292939393949495959696969797DA
:1015D000989899999A9A9B9B9C9C9D9D9E9E9F9F53
:1015E000A0A0A1A1A2A2A3A3A4A4A5A6A6A7A7A8C0
:1015F000A8A9AAAAABABACACADAEAEAFB0B0B1B11E
:10160000B2B3B3B4B5B5B6B6B7B8B8B9BABABBBC6D
:10161000BCBDBEBEBFC0C0C1C2C2C3C4C5C5C6C7B3
:10162000C7C8C9C9CACBCCCCCDCECFCFD0D1D1D2EF
:10163000D3D4D4D5D6D7D7D8D9DADADBDCDDDDDE22
:10164000DFE0E0E1E2E3E3E4E5E6E7E7E8E9EAEA50
:10165000EBECEDEDEEEFF0F1F1F2F3F4F5F5F6F77A
:10166000F8F8F9FAFBFCFCFDFEFFFF0001020303A2
:10167000040506070708090A0A0B0C0D0E0E0F10C9
:101680001112121314151516171818191A1B1C1CF1
:101690001D1E1F1F2021222223242525262728281E
:1016A000292A2B2B2C2D2E2E2F3030313233333450
:1016B000353636373838393A3A3B3C3D3D3E3F3F88
:1016C0004041414243434445454647474849494ACA
:1016D0004A4B4C4C4D4E4E4F4F5051515253535418
:1016E000545555565757585859595A5B5B5C5C5D71
:1016F0005D5E5E5F5F6060616162626363646465DA
:10170000656666676768686969696A6A6B6B6C6C4D
:101710006C6D6D6E6E6E6F6F7070707171717272D4
:101720007373737474747575757576767677777769
:1017300077787878797979797A7A7A7A7A7B7B7B13
:101740007B7B7C7C7C7C7C7D7D7D7D7D7D7D7E7ED0
:101750007E7E7E7E7E7E7F7F7F7F7F7F7F7F7F7F9F
:101760007F7F7F7F7F7F7F7F7F7F7F7F7F7F7F7F89
:101770007F7F7F7F7F7F7F7F7F7F7F7F7F7F7F7E7A
:101780007E7E7E7E7E7E7E7D7D7D7D7D7D7D7C7C84
:101790007C7C7C7B7B7B7B7B7A7A7A7A7A797979A1
:1017A00079787878777777777676767575757574D2
:1017B000747473737372727171717070706F6F6E15
:1017C0006E6E6D6D6C6C6C6B6B6A6A69696968686A
:1017D00067676666656564646363626261616060D1
:1017E0005F5F5E5E5D5D5C5C5B5B5A595958585744
:1017F0005756555554545353525151504F4F4E4EC6
:101800004D4C4C4B4A4A4949484747464545444355
:1018100043424141403F3F3E3D3D3C3B3A3A3938EF
:101820003837363635343333323130302F2E2E2D93
:101830002C2B2B2A29282827262525242322222140
:10184000201F1F1E1D1C1C1B1A19181817161515F2
:101850001413121211100F0E0E0D0C0B0A0A0908A8
:1018600007070605040303020100FFFFFEFDFCFC61
:10187000FBFAF9F8F8F7F6F5F5F4F3F2F1F1F0EF19
:10188000EEEDEDECEBEAEAE9E8E7E7E6E5E4E3E3D1
:10189000E2E1E0E0DFDEDDDDDCDBDADAD9D8D7D784
:1018A000D6D5D4D4D3D2D1D1D0CFCFCECDCCCCCB32
:1018B000CAC9C9C8C7C7C6C5C5C4C3C2C2C1C0C0DA
:1018C000BFBEBEBDBCBCBBBABAB9B8B8B7B6B6B578
:1018D000B5B4B3B3B2B1B1B0B0AFAEAEADACACAB0A
:1018E000ABAAAAA9A8A8A7A7A6A6A5A4A4A3A3A291
:1018F000A2A1A1A0A09F9F9E9E9D9D9C9C9B9B9A08
:101900009A99999898979796969695959494939373
:1019100093929291919190908F8F8F8E8E8E8D8DCC
:101920008C8C8C8B8B8B8A8A8A8A89898988888817
:10193000888787878686868685858585858484844D
:101940008484838383838382828282828282818170
:101950008181818181818080808080808080808081
:101960008080808080808080808001000002000074
:101970000300040005070605040100080A0B0C0D0E
:10198000090000000200080E0000030401000B0023
:101990000000000000000000000000000000000047
:1019A000040802011040804010204080408008025E
:1019B00004018040201002011080102040402004CB
:1019C00004040404030405020202020403020202E6
:1019D00002060606060606040402020204040000CB
:1019E00000002300260029002C002F00000000002A
:1019F000250028002B002E003100000000002400EC
:101A000027002A002D003000080B0002020201000E
:101A10000904000001020200000524001001052451
:101A200001010104240206052406000107058103C3
:101A300010004009040100020A000000070502022C
:101A40004000000705830240000009040400020171
:101A50000300000724010001220006240201010006
:101A60000924030102010301000624020203000904
:101A700024030204010101000705050240000005DE
:101A8000250101010705860240000005250101022C
:101A900009040300000101000009240100010900FC
:101AA000010400C18081C180811201000202000096
:101AB00040412336800001010200011201000200B2
:101AC0000000404123368000010102000120034153
:101AD0000072006400750069006E006F0020004C09
:101AE000004C004300200020002000200022034181
:101AF0000072006400750069006E006F0020004CE9
:101B00000065006F006E006100720064006F0004E9
:101B100003090400000000000000002A2B28000038
:101B200000000000000000000000000000000000B5
:101B30000000002C9EB4A0A1A2A434A6A7A5AE3696
:101B40002D3738271E1F20212223242526B333B604
:101B50002EB7B89F8485868788898A8B8C8D8E8FD7
:101B6000909192939495969798999A9B9C9D2F31DA
:101B700030A3AD350405060708090A0B0C0D0E0F3E
:101B8000101112131415161718191A1B1C1DAFB1BA
:101B9000B0B50009040200010300000009210101A1
:101BA00000012265000705840340000105010902C8
:101BB000A1010901A10085010509190129031500E9
:101BC00025019503750181029501750581030501C4
:101BD0000930093109381581257F7508950381067B
:101BE000C0C005010906A1018502050719E029E722
:101BF000150025017501950881029501750881037D
:101C000095067508150025650507190029658100E9
:101C1000C000FF16BF1DC71E4D23FE245026862D73
:101C200011241FBECFEFDAE0DEBFCDBF11E0A0E090
:101C3000B1E0ECE0F4E602C005900D92AC3BB107D8
:101C4000D9F727E0ACEBB1E001C01D92A030B2079C
:101C5000E1F71EE0C0E1DEE004C02197FE010E9432
:101C6000C131C930D107C9F70E9439250C9404321B
:101C70000C940000DC01ED91FC910190F081E02DCD
:101C80000994DC01ED91FC910190F081E02D099423
:101C9000CF92DF92EF92FF92CF93DF93C1E3D1E037
:101CA0008881229662E00E94BF2181E0CB33D80771
:101CB000B9F762E080E10E94BF21CBE3D1E08881E7
:101CC000229661E00E94BF2181E0C534D807B9F7B0
:101CD0000E94861F8FE491E1909323028093220259
:101CE00084E591E1909321028093200242E15AE73A
:101CF00060E070E08091D5029091D6020E94762437
:101D000010924702109246021092450210924E0223
:101D100010924D0210924C0210924B021092D4027B
:101D2000109251021092500210924F0210925202E1
:101D3000109253028091440281708260816080938E
:101D400044028FEF8093D60180EF8093DE01809371
:101D5000E60181E08093EE011092F6018CE090E0C4
:101D60009093D1018093D0014091C9015091CA0153
:101D70009A01ACE0B0E00E94C7316093D201709349
:101D8000D3018093D4019093D501E9E1F0E0F09381
:101D9000D901E093D801A9E1B0E00E94C7316B01FD
:101DA0007C016093DA017093DB018093DC019093F6
:101DB000DD018DEB9FE19093E1018093E001ADEBBC
:101DC000BFE10E94C7316093E2017093E301809309
:101DD000E4019093E501F093E901E093E801C092FA
:101DE000EA01D092EB01E092EC01F092ED018FEF6D
:101DF0009FE19093F1018093F001AFEFBFE10E946A
:101E0000C7316093F2017093F3018093F4019093D2
:101E1000F5018FB7F89440E050E86BE170E0409333
:101E20001A0250931B0260931C0270931D028FBF15
:101E300080E890E00E94E31C60E08EE10E94BF21F8
:101E400060E081E10E94BF21E091FA02F0E0EE0F34
:101E5000FF1FE55CFE4F61E080810E94FB2188EC62
:101E60008093C10184E68093C20181E491E0909364
:101E7000C4018093C3018FB7F89440E050E064E060
:101E800070E040930602509307026093080270933B
:101E900009028FBFDF91CF91FF90EF90DF90CF903D
:101EA0000895CF93DF93E3E1F3E0C6E1D1E0AEE143
:101EB000B1E081E021913191299339938D9393E0A1
:101EC000EB31F907B9F7DF91CF9108958F929F9287
:101ED000AF92BF92CF92DF92EF92FF92CF93DF93B8
:101EE0002091F1023091F2024091F3025091F402FC
:101EF000C0901002D0901102E0901202F0901302F4
:101F000080910C0290910D02A0910E02B0910F02EF
:101F10008C0D9D1DAE1DBF1D80930C0290930D0274
:101F2000A0930E02B0930F02CD019370E0911402C2
:101F3000F0911502E80FF91FA4910A2E000CBB0BBB
:101F40000E94E8314B015C0180910102882349F134
:101F50002FB7F8948091FD019091FE01A091FF01AF
:101F6000B09100024091F9015091FA016091FB019A
:101F70007091FC01840F951FA61FB71F8093F90174
:101F80009093FA01A093FB01B093FC012FBF8091C5
:101F9000F9019091FA01A091FB01B091FC014A2F47
:101FA00001C040E080911A0290911B02A0911C0296
:101FB000B0911D02C0901602D0901702E090180256
:101FC000F09019028C0D9D1DAE1DBF1D8093160251
:101FD00090931702A0931802B0931902750164013F
:101FE0002AE0CC0CDD1CEE1CFF1C2A95D1F78C0DD1
:101FF0009D1DAE1DBF1DCD019370E0911E02F0919D
:102000001F02E80FF91F5491F091C2018091C501A0
:102010009091C601C091C701D091C801DC01AC1BF1
:10202000BD0B2091C3013091C4014C01092E000C5D
:10203000AA08BB08540360011124CD2CDD0CDD0877
:10204000C594C81AD90A0D2C000CEE08FF080E948E
:10205000D631BB2797FDBA95A92F982F872FA701B7
:102060009601280F391F4A1F5B1FAF2FB0E00E9457
:10207000DD31BB2797FDBA95A92F982F872F880DA3
:10208000991DAA1DBB1D9093C6018093C501BC017B
:102090006C1B7D0BF69FC001F79F900D1124892FBB
:1020A000990F990B8C0F9D1F9093C8018093C701C6
:1020B000082E000C990BDF91CF91FF90EF90DF90ED
:1020C000CF90BF90AF909F908F9008950C946D1C0F
:1020D00090912603923021F0682F8AE00C94FB2126
:1020E0000895813081F028F08230B9F08330F9F022
:1020F000089580910A03811103C08AE695E11DC00D
:102100008AE695E121C080910A03811103C08AE625
:1021100095E013C08AE695E017C080910A0381110B
:1021200003C08AE69DE009C08AE69DE00DC080916B
:102130000A03811107C08AE693E090931F028093FF
:102140001E0208958AE693E090931502809314028C
:1021500008950F931F93CF938C01CB01BA01CFB792
:10216000F89420E030E040E854E40E945E2F20E044
:1021700030E040E858E30E945E2F20E030E040E885
:1021800057E40E945E2F0E947D2EF80164837583C0
:1021900086839783CFBFCF911F910F910895CF92E0
:1021A000DF92EF92FF920F931F93CF93DF93EC0197
:1021B0008B011B821A82FB01818192819D838C831A
:1021C000C8A8D9A8EAA8FBA86781862F90E0A0E05C
:1021D000B0E0DC0199278827BC01CD016C197D098D
:1021E0008E099F0923813481458156810E94A23145
:1021F0002CAB3DAB4EAB5FAB1FA70EA7DF91CF91D2
:102200001F910F91FF90EF90DF90CF900895FC0108
:10221000228133812F5F3F4F338322834481558155
:102220002417350710F00C94CF100895CF93C82FC2
:102230002091FD023091FE022F5F3F4F3093FE024E
:102240002093FD02682F70E080E090E00E94AC2EA9
:102250000E94CE1EAB01BC014093F6025093F702E0
:102260006093F8027093F902409325015093260180
:10227000609327017093280186E192E00E94A910E3
:102280006FEC71E089EC91E00E94CF1081E08093C7
:1022900001020E946810C093EF02CF910895862F2B
:1022A00061110C94161108958091FD029091FE0227
:1022B00001979093FE028093FD028091EF026813D4
:1022C00009C067EE71E089EC91E00E94CF1080E0D8
:1022D0000C9468100895CF93DF9390E0EC01CC5FED
:1022E000DE4F28812223A1F0019760E170E00E9477
:1022F0006C31FC01EC5FFE4F40E0608181E00E94A8
:102300005411888181110E94161188818093D7020F
:10231000DF91CF9108958091BE018F5F609144015C
:102320000E946031892F9093BE010C946B118091B3
:10233000BF019091C00101969093C0018093BF01AD
:102340002091470130E02817390788F48091FD0279
:102350009091FE021816190654F4E091BE01F0E0C7
:10236000EC5FFE4F40E0608181E00E9454112091BB
:10237000BF013091C00180914501909146018217C3
:102380009307B0F40E948B111092C0011092BF010C
:1023900061E671E08FE995E00E9494266091450125
:1023A000709146014AE050E08FE995E00C948C274B
:1023B000089580912603813011F40C9497110895AB
:1023C00090912503891304C090912303992301F16F
:1023D000909143012CE0929F902D11249093BC0189
:1023E0008093250340E06091240381E00E94541112
:1023F0009091BC0180912503890F8093BD018111CB
:102400000E941611809125038093240310922303C8
:10241000089590910803809103039923E1F08111BD
:102420001FC06091BD01E091BE01F0E0EC5FFE4F86
:10243000608340E081E00E9454118091BE018F5F73
:10244000609144010E9460319093BE018091080325
:10245000809303030895882319F0109203030895CD
:1024600090910A03809105039923A1F0811117C06F
:102470008091BE01E82FF0E0EC5FFE4F10828F5F8D
:10248000609144010E9460319093BE0181E080938D
:1024900005030895882319F010920503089590917B
:1024A000060380910103992331F0811107C081E077
:1024B0008093010308958111109201030895DC01B6
:1024C000D0968D919C91D197813F910509F4BCC024
:1024D0003CF5803B910509F45FC07CF4803991059F
:1024E000E9F1803A910509F474C08038910509F04A
:1024F000D8C0ED91FC91119770C0803D910509F411
:1025000078C02CF4803C910509F478C00895803E91
:10251000910509F446C0803F910509F47CC00895F7
:102520008A3F910529F174F4833F910509F4A4C011
:102530000CF48FC0863F910509F4A7C0883F910530
:1025400091F008958C3F9105E9F0BCF08E3F910524
:10255000F1F08F3F910509F49DC008951296ED9119
:10256000FC9113973AC05896ED91FC91599796C0FB
:102570005A96ED91FC915B9791C05C96ED91FC9120
:102580005D978CC05E96ED91FC915F9787C09096A9
:10259000ED91FC91919782C01696ED91FC91179761
:1025A0001CC01C96ED91FC911D97309709F479C0E1
:1025B000D3966C91D3976F7720E8629FB001112476
:1025C000D2968C91D2978F77682B70529F968C9170
:1025D00009941496ED91FC911597309709F461C018
:1025E000D3964C91D397D2966C91D2979F968C911B
:1025F00009941A96ED91FC911B9704C01896ED91E1
:10260000FC911997309709F44CC0D2966C91D297EF
:102610009F968C9109941E96ED91FC911F9730978F
:1026200009F43FC0D3966C91D39770E0762F66275C
:10263000D2968C91D297682B6138710510F060E8C2
:1026400070E0CD01C49609945096ED91FC9151979C
:1026500017C05296ED91FC915397309711F1D39694
:102660008C91D3978F7720E8829FC0011124D29656
:102670002C912F77822B09945496ED91FC915597CC
:10268000309779F0D2968C9109945696ED91FC9101
:10269000579704C09296ED91FC919397309709F06B
:1026A000099408959C018F7C8038910561F0203D4C
:1026B000310549F081E0203E310539F0203C3105FB
:1026C00021F080E0089581E00895089587FF0DC00E
:1026D0009CE0980F923048F0982F9B7F993F29F00B
:1026E000803F08F4807F90E0089580E090E00895B6
:1026F0000F931F93CF93DF938C01EB016D3F710517
:1027000054F46A3F710564F4663F710549F0683F0F
:10271000710599F405C0CB018E5F9109029768F4A9
:10272000F801EB54FF4F80819181DC01ED91FC9128
:102730000190F081E02D6C2F0995C63FD10511F471
:10274000F80116A2DF91CF911F910F910895DF92AA
:10275000EF92FF920F931F93CF93DF93EB01122F12
:102760000150003118F46038710524F4DC019696AC
:102770001C924AC0613E7105C4F54F77D42E602B80
:10278000FC0126A1AC014B545F4F7A01261759F08A
:1027900066A3DA018D919C91DC01ED91FC91019091
:1027A000F081E02D0995F70180819181DC01ED91A7
:1027B000FC910190F081E02D6D2D0995CF7EC03CFC
:1027C000D10511F1F70180819181DC01ED91FC913E
:1027D000612F6F770190F081E02DDF91CF911F91F4
:1027E0000F91FF90EF90DF9009949B01265F3109D4
:1027F0002A30310548F4DF91CF911F910F91FF905E
:10280000EF90DF900C947813DF91CF911F910F918F
:10281000FF90EF90DF9008958F929F92AF92BF92BA
:10282000DF92EF92FF920F931F93CF93DF931F924C
:10283000CDB7DEB7613108F0C6C24C018C010B5434
:102840001F4FD8018D919C91DC01ED91FC9104808A
:10285000F581E02D0995892B09F4B5C2F801808135
:102860009181DC01ED91FC910680F781E02D0995C5
:102870007C01F40125A536A52115310509F0D0C04C
:1028800080A7D5A08D2D0E9466130E945213882325
:1028900079F0E7FC0DC0D4019896DC929897999650
:1028A000EC92999781E090E09E969C938E939D97F1
:1028B000F401F0A48F2D0E946613813F910509F465
:1028C00063C094F5803B910509F466C06CF48039CF
:1028D000910509F461C0803A910509F45DC0803822
:1028E000910509F05FC058C0803D910509F44CC0C6
:1028F0002CF4803C910509F447C054C0803E9105FA
:1029000009F44AC0803F910509F04CC020E830E04E
:10291000D4019C963C932E939B9795961C929597E9
:1029200020EFD4962C9345C0883F9105A9F044F43C
:10293000833F910549F184F1863F910569F032C0EA
:102940008A3F91057CF18D3F910534F09C012E5F0B
:1029500031092230310530F5D401D1969C938E9304
:10296000D0979F961C929F97D2961C92D297D396FF
:102970001C9281E0F401EC54FF4F8083F40116A611
:1029800015A614A613A61AC122E030E0D4019C9625
:102990003C932E939B970DC023E030E0F40134A7C5
:1029A00023A707C0F40116A615A614A613A615A200
:1029B0000AC2D4019D962D913C919E979B964D9174
:1029C0005C919C97BA01615071092617370708F48A
:1029D000EFC0D1969C938E93D0978F2D8F70FF244C
:1029E000F394F80E9F96FC929F9799968C919997E5
:1029F000D2968C93D2974330510531F49A968C91AC
:102A00009A97D3968C9302C0F40113AAD4019E9690
:102A10001C921E929D979C961C921E929B9724C07E
:102A200087FF4DC099278D3F91055CF48A3F910542
:102A300074F4873F9105F1F0883F910509F03FC09C
:102A400006C0AC014E5F510942305105C0F5D401BA
:102A5000D1969C938E93D097D2961C92D297D39670
:102A60001C92D3979F961C9281E0F401EC54FF4F87
:102A70008083A4C0F40184A9803FB9F5C9010196FF
:102A8000E20FF31F47EF44AB20EF30E0D401D196C3
:102A90003C932E93D097D2968C93D297D3969C93B7
:102AA000D3979F961C9281E0F401EC54FF4F8083F2
:102AB000F40116A615A614A613A615A27FC0F4014C
:102AC00080A5E20FF31F803FE1F4E4AAD4019B96B6
:102AD000AD90BC909C97C50101972817390708F461
:102AE00067C098962C91203F71F4D4019E961C9259
:102AF0001E929D979C961C921E929B9795961C9257
:102B000062C1E0A6E3CF822F29830E9466137C0175
:102B1000F40191AB80AB0E9452132981882339F0D4
:102B2000822F8F708F5FD4019F968C9302C0F40127
:102B300017A6D40199968C919997D2968C93B3E06D
:102B4000AB16B10421F4F40182A583AB03C0D40118
:102B5000D3961C92F40116A615A614A613A681E01E
:102B6000EC54FF4F8083F0EBEF16F104D1F06CF4DE
:102B7000A0E9EA16F104A9F0B0EAEB16F10489F035
:102B8000E0E8EE16F10481F40CC0F0EDEF16F1046C
:102B900041F080EEE816F10421F0A0ECEA16F10411
:102BA00019F4F40125A30AC0D40195961C9206C01D
:102BB0002F5F3F4FF40136A725A705C1D401D0965A
:102BC0008D919C91D1978039910531F4D401D396A0
:102BD0008C91882309F4F9C0F40180A991A9009788
:102BE00071F0805891098136910508F0F4C087A1F1
:102BF00097A5981709F4EFC0882309F4ECC0D12CED
:102C0000D40194962C919497822F817020FFE9C073
:102C1000922F9E7F09F4E5C0D0966D917C91D1975B
:102C2000AB01405851094136510550F59F960C9122
:102C30009F9797969C91091719F081E0911180E078
:102C4000269530E02230310541F02330310591F0F6
:102C50002130310509F0C5C00FC0882309F4C1C077
:102C6000D401D3962C91D397D2964C91C4010E9453
:102C7000A713B7C08111B5C0F40123A942A9F6CFAB
:102C8000FB01E05FF109E031F10508F0AAC0EA5A62
:102C9000FF4F0C94C131C4010E947813A2C074018B
:102CA000F4E3EF0EF11C5701D401D3964C91D39766
:102CB00050E0542F4427D2968C919A01282B21382A
:102CC000310510F020E830E0E20EF31EAE14BF0430
:102CD00009F476C0F80180819181D5016D915D0183
:102CE000DC01ED91FC910190F081E02D0995EECF92
:102CF000D401D296FC90F80180819181DC01ED91A4
:102D0000FC910190F081E02D63EF09956F2D6F77B5
:102D100070E0F801808191810E94410ED401969665
:102D20001C925FC0F401E3A8F0E8EF9E700111244B
:102D3000D401D2968C91E82AF80180819181DC013E
:102D4000ED91FC910190F081E02D62EF0995B701C2
:102D50006F777727F801808191810E943A0EB70141
:102D6000660F672F661F770B71956F777727D801EE
:102D70008D919C910E943A0E23C0D401D2968C91E1
:102D80008770B0E18B9FC0011124F40123A92F703B
:102D9000F22EF82AD8018D919C91DC01ED91FC91E5
:102DA0000190F081E02D61EF0995F801808191811A
:102DB000DC01ED91FC910190F081E02D6F2D0995E2
:102DC000F40116A20EC0D12C0CC080E890E0F401F2
:102DD00091AB80AB01CFC4010E945F12DD24D3947C
:102DE0000FCF8D2D0F90DF91CF911F910F91FF90FD
:102DF000EF90DF90BF90AF909F908F900895E0E2AA
:102E0000F2E081EF95E09093D6028093D502118293
:102E10001082138212821582148217821682118602
:102E20001086138612861586148617861686118AD2
:102E3000108A138A128A158A148A178A168A118EA2
:102E4000108E138E128E158E148E178E168E11A262
:102E500010A213A212A28AE695E190931F0280931A
:102E60001E0290931502809314028AE691E09093DB
:102E70000B0280930A02E9ECF1E080E890E0918394
:102E80008083168281E0868782E0868B83E0868F4E
:102E900084E086A315A208958BE996E00E944A2556
:102EA00018161906D4F48BE996E00E945B25262FAC
:102EB000682F293059F4992389F01092FC0210925E
:102EC000FB02882349F30E941611E6CF283021F730
:102ED000492F872F0E945411DFCF089540E0F9CF8A
:102EE0008F929F92AF92BF92CF92DF92EF92FF921A
:102EF0000F931F93CF93DF930E944C17609147026B
:102F000080E292E00E940C14C9E2D1E013E1C12EEC
:102F100013E0D12E0EE111E086E1E82E81E0F82EDB
:102F2000888122960E94661EF601819391936F011B
:102F3000F80120812223A1F0F70120813181409105
:102F4000140150911501B901640F751F68177907B5
:102F50002CF0241B350B8217930714F4F801108210
:102F60000F5F1F4FF2E0EF0EF11C81E0C133D80775
:102F7000B9F6C1E3D1E006E013E0888122960E9411
:102F80002B2221E0892B09F020E0F80121938F0109
:102F900080E10E942B2221E0892B09F020E0209380
:102FA0000003F1E0CB33DF0741F7909107038091F5
:102FB0000203992341F1811129C00E94510FE09130
:102FC000FA02E150E093FA02F0E03196E370FF2755
:102FD000EE0FFF1FE55CFE4F60E080810E94FB2149
:102FE000E091FA02E370E093FA02F0E0EE0FFF1FC7
:102FF000E55CFE4F61E080810E94FB218091070328
:103000008093020303C0811110920203909109037F
:1030100080910403992329F1811126C00E94510F48
:10302000E091FA02EF5FE093FA02F0E0EE0FFF1F8B
:10303000E75CFE4F60E080810E94FB21E091FA0294
:10304000E370E093FA02F0E0EE0FFF1FE55CFE4F45
:1030500061E080810E94FB21809109038093040339
:1030600003C0811110920403909100038091FF022C
:10307000992329F081110FC00E948B1108C0882369
:1030800051F040E06091D70281E00E94541180919C
:1030900000038093FF0260911303709114038091E9
:1030A0000B0390910C036817790709F48BC080918A
:1030B0001E01811187C08091FA02813099F128F1B7
:1030C000823009F077C09B012E5E3F4FC901A0E01E
:1030D000B0E09C01AD0163E0569547953795279583
:1030E0006A95D1F73093D1012093D001A091C90105
:1030F000B091CA010E94DD316093D2017093D30177
:103100008093D4019093D50155C0CB01770FAA0BC2
:10311000BB0B8093F1029093F202A093F302B09361
:10312000F40248C080E094E0861B970BE5E0880F2E
:10313000991FEA95E1F7092E000CAA0BBB0B8093AF
:10314000DC029093DD02A093DE02B093DF02072E33
:10315000000C880B990B0E94AE2E6093E7027093CF
:10316000E8028093E9029093EA02CFB7F89420E056
:1031700030E048E452E40E94042E20E030E040E0D9
:1031800054E40E945E2F20E030E040E05CE30E94C7
:103190005E2F20E030E040E857E40E945E2F0E945E
:1031A0007D2E60930602709307028093080290932D
:1031B0000902CFBF809113039091140390930C03E5
:1031C00080930B03C0911503D091160380910D03DA
:1031D00090910E03C817D90709F4DAC080911F0136
:1031E0008111D6C08091FA02813039F138F08230F5
:1031F00009F44BC0833009F467C0C2C0D595C795A8
:10320000D595C7958C2FC0932201C093C201209100
:10321000C1018095829FC0011124892F9927820FB7
:10322000911D9093C4018093C3018091060388236C
:1032300009F4A6C0C093C101A3C0BE01DD0F880B75
:10324000990B0E94AE2E6093E7027093E802809380
:10325000E9029093EA0220E030E04AE754E40E9459
:10326000042E6093EB027093EC028093ED02909336
:10327000EE02C1E020E030E0A9010E94FF2D8111A3
:1032800001C0C0E0C093E6027BC0CE01A0E0B0E088
:103290009C01AD0193E056954795379527959A95F2
:1032A000D1F73093D9012093D801A091C901B091F1
:1032B000CA010E94DD316093DA017093DB018093D3
:1032C000DC019093DD015CC080910603882371F1DD
:1032D00080914501909146011F921F929F938F9379
:1032E000A12CB12C6501E12C14E0F12E00E010E0DE
:1032F00020E030E0A901BE010D2E000C880B990BD7
:103300000E942B2B609347016EE671E08FE995E0F8
:103310000E9494264AE050E0609147018FE995E0D1
:103320000E9475270F900F900F900F9080910603C9
:10333000811126C0C430D1051CF41092260319C097
:10334000CD3FE3E0DE0724F082E08093260311C046
:1033500081E0809326038FE790E09E0113E035958E
:1033600027951A95E1F7821B930B90934601809362
:1033700045014AE050E0BE018FE995E00E945127E7
:10338000809115039091160390930E0380930D0383
:10339000809117039091180320910F03309110032F
:1033A0008217930791F12091200121112EC02091C5
:1033B0000803211122C02091FA022130B9F060F0F7
:1033C0002230B9F02330C9F4C6E095958795CA95A7
:1033D000E1F70E94E01111C0880F892F881F990B17
:1033E0000196909324018093230107C09093E502F6
:1033F00004C08093E6018093DE01809117039091D1
:1034000018039093100380930F03209119033091B8
:103410001A0380911103909112032817390709F4B8
:1034200061C08091210181115DC08091FA028130DB
:10343000B1F028F08230E1F08330C9F14BC0232F86
:10344000330F330B8091F00290E02817390709F40D
:1034500041C02093F002822F0E9471103BC02115C1
:1034600032401CF41092E40235C08093E40232C072
:10347000C901A0E0B0E09C01AD01A3E056954795DD
:1034800037952795AA95D1F73093E9012093E80164
:10349000A091C901B091CA010E94DD316093EA0197
:1034A0007093EB018093EC019093ED0113C0220F18
:1034B000232F221F330B8091430190E028173907F7
:1034C00049F02093430181E08093230380912503F9
:1034D0000E94E0118091190390911A0390931203B6
:1034E000809311038091FA02833011F40E94091233
:1034F000E091F701F091F8018081823091F038F489
:10350000882361F08130B1F46FED71E00FC083303A
:1035100059F0843079F4109201020CC067ED71E02B
:1035200005C067EE71E002C06FEE71E089EC91E0DA
:103530000E9407118091E602882309F490C18091CE
:10354000E402811128C04091060250910702609167
:103550000802709109028091020290910302A091E9
:103560000402B0910502840F951FA61FB71F809318
:10357000020290930302A0930402B0930502CD01CE
:103580009170E0910A02F0910B02E80FF91FE491AB
:10359000E093F502AEC00E94B61D0091E0021091CA
:1035A000E1022091E2023091E302AB01BC01401B39
:1035B000510B620B730B8091DC029091DD02A091A4
:1035C000DE02B091DF02E3E0880F991FAA1FBB1F44
:1035D000EA95D1F784179507A607B707E8F464EFD3
:1035E00070E080E090E00E94B11FA0E0B0E0DC015C
:1035F000992788278093D8029093D902A093DA0262
:10360000B093DB020E94B61D6093E0027093E1026A
:103610008093E2029093E30280901B0390901C033E
:10362000A0901D03B0901E036091D8027091D90242
:103630008091DA029091DB020E94AC2E6B017C013A
:10364000C501B4010E94AC2E9B01AC01C701B601BB
:103650000E94922D6B017C012091190330911A0375
:10366000359527953595279580E091E0821B930B42
:10367000BC01990F880B990B0E94AC2E9B01AC01E9
:10368000C701B6010E94042E0E94762E60931F038C
:103690007093200380932103909322032FB7F89413
:1036A00040911B0350911C0360911D0370911E03F8
:1036B00080911F0390912003A0912103B0912203D8
:1036C000840F951FA61FB71F80931B0390931C03A5
:1036D000A0931D03B0931E032FBF80911B039091F5
:1036E0001C03A0911D03B0911E0380E88A0F8093F4
:1036F000F5028091E50281112CC06091F502062E41
:10370000000C770B880B990B0E94AE2E2091EB02D8
:103710003091EC024091ED025091EE020E945E2F3A
:103720002091F6023091F7024091F8025091F9028F
:103730000E94932DAB01BC014093250150932601BB
:10374000609327017093280186E192E00E94A910FE
:1037500010C08091F6029091F702A091F802B0910A
:10376000F9028093250190932601A0932701B0933D
:1037700028018091E502813009F04AC06091220160
:1037800070E080E090E00E94AE2E6B017C018091A1
:10379000F502682F880F770B880B990B0E94AE2ECD
:1037A0004B015C0120E030E04CEF52E46091EB0211
:1037B0007091EC028091ED029091EE020E945E2FDA
:1037C0009B01AC01C501B4010E94932D9B01AC018A
:1037D000C701B6010E94932D0E94762E6F3F71059E
:1037E00014F06EEF70E077FF02C060E070E060936D
:1037F000C2018091C1016095689FB0011124672FBB
:103800007727680F711D7093C4016093C30127C0AF
:10381000823029F56091F502062E000C770B605876
:103820007F4F072E000C880B990B0E94AE2E209123
:10383000EB023091EC024091ED025091EE020E94B9
:103840005E2F0E94762E6093F1027093F2028093B5
:10385000F3029093F4021092FC021092FB0260912A
:10386000230170912401072E000C880B990B0E94F4
:10387000AE2E2091250130912601409127015091D3
:1038800028010E945E2F0E94762E2FB7F894CB015C
:10389000770FAA0BBB0B3CE0880F991FAA1FBB1F19
:1038A0003A95D1F78093100290931102A0931202DF
:1038B000B09313022FBFDF91CF911F910F91FF9013
:1038C000EF90DF90CF90BF90AF909F908F900C942F
:1038D000D9110E9470170C945C1E9091390580914B
:1038E0003805981306C090913B0580913A059813CE
:1038F0001AC00E94660F20913905E22FF0E0EE0F0A
:10390000FF1FE85CFC4F8C509F4F918380832F5F9B
:1039100020933905211107C090913B0581E089274B
:1039200080933B05089508951F920F920FB60F9252
:1039300011242F933F938F939F93AF93BF93EF9354
:10394000FF9381E090912703911180E080932703FA
:10395000882361F180913805E82FF0E0EE0FFF1F1A
:10396000E85CFC4F208131818F5F809338058111A5
:1039700019C090913A0581E0892780933A0580919A
:103980003C0590913D05A0913E05B0913F05019603
:10399000A11DB11D80933C0590933D05A0933E056C
:1039A000B0933F053093890020938800FF91EF91F9
:1039B000BF91AF919F918F913F912F910F900FBE2B
:1039C0000F901F9018959F92AF92BF92CF92DF9267
:1039D000EF92FF920F931F93CF93DF93EC0180E060
:1039E0000E94091E84B58093370385B58093360302
:1039F00087B5809335030EE610E0F801808180934F
:103A000034039E0140E050E060E472E48FE090E017
:103A10000E94A231DA01C90140E069E67CE10E941E
:103A2000C2200E94192184B580932F0385B580930D
:103A30002E0387B580932D03F801808180932C039A
:103A400000E810E0F801808180933303C1E8D0E002
:103A500088818093320388E8A82EB12CF5018081FB
:103A60009181809331039FE6C92ED12CF60180818C
:103A70008093300361E089E00E94BF2125E9E22EB6
:103A800025E0F22EF701128298E1938382E084838D
:103A90009883F801808388EE91E0A0E0B0E099245B
:103AA00093949092920590939405809393059093AC
:103AB00087008093860089E1888361E089E00E9425
:103AC000BF21F8019081F7018481892B8068F8017A
:103AD00080832091930530919405A4EFB0E00E947B
:103AE000C731DC01CB013AE0B695A795979587954C
:103AF0003A95D1F7F5019183808390919205F70172
:103B00008381892B8883F6019082F80180818093DC
:103B10002B03888180932A03F50180819181809312
:103B20002903F601808180932803DF91CF911F91B3
:103B30000F91FF90EF90DF90CF90BF90AF909F904C
:103B400008952091380580913C0590913D05A09104
:103B50003E05B0913F05BA2FA92F982F8827BC01A9
:103B6000CD01620F711D811D911D08950E94A11D3F
:103B70009B01AC01ADE3B0E00E94DD3108951092ED
:103B800038051092390510923A0510923B050895B8
:103B9000811109C080917A00846080937A008091BD
:103BA0007A008D7F1AC0813071F480917A008B7F0A
:103BB00080937A0080917A00826080937A0080916D
:103BC0007A0081600FC0823079F480917A008B7F17
:103BD00080937A0080917A00826080937A0080914D
:103BE0007A008E7F80937A00089580E090E061E013
:103BF00070E040917E009B01082E01C0220F0A94C4
:103C0000EAF7242B20937E0001968C30910589F7EA
:103C10000895EAE7F0E09081986090830E94C81DC3
:103C20000C94F51D823108F08251E82FF0E0EB583A
:103C3000F64E84910895EBE7F0E0908183FB222714
:103C400020F930E045E0220F331F4A95E1F79F7DD0
:103C5000292B20838770806480937C00EAE7F0E062
:103C60008081806480830895CF93DF931F92CDB7C6
:103C7000DEB780914C0590914D058F3F2FEF920755
:103C800061F0FC01E05CFA4F208129830197909359
:103C90004D0580934C05898101C08FEF80934901C8
:103CA000809149018F3F21F0809149010E941B1EA4
:103CB0000F90DF91CF910895809149018F3F29F4B2
:103CC0000E94341E81E08093480108950E94121ED4
:103CD00020914C0530914D052B30310554F42F5F68
:103CE0003F4F30934D0520934C05F901E05CFA4FAE
:103CF0008083E82FF0E0EE0FFF1FE25BFA4F808138
:103D000091810895EAE7F0E08081806480830895DE
:103D1000E09149018091780090917900EE0FFF0BBE
:103D2000E25BFA4F9183808308951F920F920FB642
:103D30000F9211242F933F934F935F936F937F9331
:103D40008F939F93AF93BF93EF93FF93809148011D
:103D5000882329F00E94821E1092480107C00E9409
:103D6000881E0E94341E81E080934801FF91EF91EC
:103D7000BF91AF919F918F917F916F915F914F9183
:103D80003F912F910F900FBE0F901F9018958FEFBE
:103D90009FEF90934D0580934C050895CF92DF924D
:103DA000EF92FF926B017C0120E030E0A9010E94BC
:103DB000FF2D8823B9F020E030E040E451E4C70152
:103DC000B6010E94042E9B01AC0160E070E080E02F
:103DD00090E40E94CB2F23E130ED42E051E40E94B9
:103DE0005E2F03C060E070E0CB01FF90EF90DF90AA
:103DF000CF900895CF92DF92EF92FF92CF93DF930F
:103E0000C0E0D0E0C12CD12C760188E00E94552181
:103E10008D569B4F81709927092E000CAA0BBB0B66
:103E20000C2E04C0880F991FAA1FBB1F0A94D2F73B
:103E3000C82AD92AEA2AFB2A2196C032D10529F7B5
:103E4000C701B601DF91CF91FF90EF90DF90CF9047
:103E500008950F931F938091520190915301A09167
:103E60005401B0915501BC0155274427842795275B
:103E7000A627B727AC01BD0135E076956795579524
:103E800047953A95D1F784279527A627B7274091DC
:103E90004E0150914F01609150017091510140933A
:103EA0005201509353016093540170935501009156
:103EB0004A0110914B0120914C0130914D0100932A
:103EC0004E0110934F012093500130935101402730
:103ED000512762277327482759276A277B27880F8E
:103EE000991FAA1FBB1F8A019B01082719272A2790
:103EF0003B27C901B80100934A0110934B0120935D
:103F00004C0130934D011F910F910895CF93DF9392
:103F1000CAE7D0E08881877F88830E94FA1E609379
:103F200052017093530180935401909355010E9464
:103F3000FA1E60934E0170934F018093500190934D
:103F400051010E94FA1E60934A0170934B018093C5
:103F50004C0190934D01888188608883DF91CF91D7
:103F600008950F931F93CF93DF938C01EB010E9471
:103F7000291F9B01AC0144275527DE01A01BB10B73
:103F80000E94E831800F911FDF91CF911F910F9117
:103F9000089582E0809391058FEF80936C051092D5
:103FA0006E0580916605815080936D05809167054F
:103FB000880F816080938F0585EE8093BC00089503
:103FC00084E0809391058FEF80936C0510926E05CD
:103FD0008091680580936D05A0916905B0916A058F
:103FE0002FE635E0F9019E2F921B981718F49D914A
:103FF0009193F9CF80916B0590E0880F991F809382
:104000008F0585EE8093BC00089585ED8093BC00FC
:104010008091BC0084FDFCCF809191058093900538
:104020001092910580919005833011F40C94E01F5B
:1040300080919005813011F40C94C91F089585EC8E
:104040008093BC008091910580939005109291051A
:1040500080919005833011F40C94E01F80919005BD
:10406000813011F40C94C91F08951F920F920FB65E
:104070000F9211242F933F934F935F936F937F93EE
:104080008F939F93AF93BF93EF93FF938091B9006A
:10409000887F883239F170F4803109F130F4882357
:1040A00009F45BC08830D9F05CC08831D9F0803227
:1040B00061F157C08034C1F150F4803331F188335D
:1040C00009F04FC080936C050E941F204AC08035C4
:1040D000F9F08835A9F1883409F043C040C08091D7
:1040E0008F0510C090916E0580916D059817B8F5F9
:1040F000E0916E0581E08E0F80936E05F0E0E1594E
:10410000FA4F80818093BB0015C080936C0527C057
:10411000E0916E0581E08E0F80936E058091BB006B
:10412000F0E0E159FA4F808390916E0580916D0522
:10413000981710F485EC01C085E88093BC0011C08D
:10414000E0916E0581E08E0F80936E058091BB003B
:10415000F0E0E159FA4F808302C010926C050E9492
:104160000520FF91EF91BF91AF919F918F917F912A
:104170006F915F914F913F912F910F900FBE0F90D4
:104180001F901895CF92DF92EF92FF9270939D054A
:1041900060939C0540939E05A0E0B0E034E0880F5A
:1041A000991FAA1FBB1F3A95D1F720E030E0F90113
:1041B000E659F64EE491EE2381F06C017D01022E6A
:1041C00004C0F694E794D794C7940A94D2F751E0C8
:1041D000C516D506E104F10438F02F5F3F4F2B30B0
:1041E000310529F780E020C0A1E0B0E002C0AA0FAD
:1041F000BB1F2A95E2F7A70196010E94E831DC0176
:10420000CB0124E0B595A795979587952A95D1F789
:1042100090939B0580939A0510926E0082E084BD76
:10422000E5BDCA94C7BC81E0FF90EF90DF90CF90CE
:104230000895EEE6F0E080818260808308957894AE
:104240001F920F920FB60F9211242F933F934F930B
:104250005F936F937F938F939F93AF93BF93EF93EE
:10426000FF9310926E00E0919C05F0919D050995D9
:10427000F89480919E05882311F016BCA99A80912C
:104280006E00826080936E00FF91EF91BF91AF91BD
:104290009F918F917F916F915F914F913F912F915E
:1042A0000F900FBE0F901F901895823108F0825129
:1042B000E82FF0E0EB58F64EE49180917B00E3FBB1
:1042C000222720F930E095E0220F331F9A95E1F77D
:1042D0008F7D282B20937B00E7708091560120E48E
:1042E000829FC0011124E82BE0937C0080917A002A
:1042F000806480937A0080917A0086FDFCCF809163
:1043000078002091790090E0922B089590E0FC01D4
:104310003197EE30F10590F5EA59FF4F0C94C13119
:10432000809180008F7703C0809180008F7D809383
:104330008000089584B58F7702C084B58F7D84BDD9
:104340000895809190008F7707C0809190008F7DB5
:1043500003C080919000877F8093900008958091A2
:10436000C0008F7703C08091C0008F7D8093C00014
:1043700008958091C200877F8093C2000895CF93F3
:10438000DF9390E0FC01E056F64E2491FC01E154ED
:10439000F64E8491882361F190E0880F991FFC010B
:1043A000E650F64EC591D491FC01E451F64EA5912C
:1043B000B491611109C09FB7F89488812095822338
:1043C0008883EC912E230BC0623061F49FB7F89480
:1043D0003881822F809583238883EC912E2B2C9318
:1043E0009FBF06C08FB7F894E8812E2B28838FBF1C
:1043F000DF91CF9108951F93CF93DF93282F30E063
:10440000F901EF57F64E8491F901E056F64ED4913A
:10441000F901E154F64EC491CC23C9F0162F811155
:104420000E948621EC2FF0E0EE0FFF1FE451F64EC4
:10443000A591B4918FB7F894111105C09C91ED2FFF
:10444000E095E92302C0EC91ED2BEC938FBFDF9157
:10445000CF911F910895CF93DF93282F30E0F9017A
:10446000EF57F64E8491F901E056F64ED491F901DA
:10447000E154F64EC491CC2391F081110E94862123
:10448000EC2FF0E0EE0FFF1FE252F64EA591B49133
:10449000EC91ED2381E090E021F480E002C080E027
:1044A00090E0DF91CF9108958091ED059091EE0518
:1044B0002091EF053091F005821B930B8F739927A4
:1044C00008952091ED053091EE058091EF059091D2
:1044D000F0052817390749F0E091EF05F091F00554
:1044E000E355FA4F808190E008958FEF9FEF089594
:1044F0002091ED053091EE058091EF059091F0054A
:1045000028173907A9F0E091EF05F091F005E35580
:10451000FA4F80812091EF053091F0052F5F3F4FDA
:104520002F7333273093F0052093EF0590E0089523
:104530008FEF9FEF0895CF93DF93C091ED05D0915A
:10454000EE052196CF73DD278091EF059091F00560
:10455000C817D90799F082E00E940D288F3F2FEFEE
:10456000920761F0E091ED05F091EE05E355FA4F09
:104570008083D093EE05C093ED05DFCFDF91CF911F
:10458000089583E00C94982A0F931F93CF93DF93A1
:104590001F92CDB7DEB78C01698380915E018823BD
:1045A00059F041E050E0BE016F5F7F4F83E00E9411
:1045B0005128181619063CF081E090E0F801938329
:1045C000828380E090E00F90DF91CF911F910F9157
:1045D0000895FC0190819E5F908342E450E068E082
:1045E0007AE180E80C94E928FC0181819081913A7C
:1045F00059F4813209F04DC047E050E067E571E0C1
:1046000080E00E94E92847C0913209F042C0803220
:1046100039F467E070E087E591E00E9430293BC003
:10462000823209F036C0828180935E018091570109
:1046300090915801A0915901B0915A01803B94404A
:10464000A105B10541F580915E0180FD11C087E7AC
:1046500097E790930108809300089BE088E10FB6EC
:10466000F894A895809360000FBE9093600013C0EB
:104670000FB6F894A89580916000886180936000DF
:10468000109260000FBEA8951092010810920008C9
:1046900002C080E0089581E00895EFE9F5E013821B
:1046A000128288EE93E0A0E0B0E084839583A68335
:1046B000B78380E891E0918380830895FC0124858D
:1046C0003585F901E05CFF4F808191813296208130
:1046D0003181821B930B8F7399270895DC011C96FF
:1046E000ED91FC911D97DF01A05CBF4F2D913C9196
:1046F000119712968D919C9111972817390739F0CF
:104700008D919C91E80FF91F808190E008958FEFC3
:104710009FEF0895FC01A485B585FD01E05CFF4F86
:10472000208131813296808191812817390779F073
:1047300080819181A80FB91F8C91208131812F5FD9
:104740003F4F2F7333273183208390E008958FEFFD
:104750009FEF0895FC0181A1882329F0A489B589E0
:104760008C9186FFFBCF11A208950F931F93CF93D7
:10477000DF93FC01A685B7858D01005C1F4FE80122
:104780008881998101968F739927AD014E5B5F4FA8
:10479000EA012881398182179307D1F3E801288142
:1047A0003981A20FB31F6C93A685B785A05CBF4F5C
:1047B00011969C938E93A689B7892C9181E090E005
:1047C000078C02C0880F991F0A94E2F7822B8C9302
:1047D00081E081A30488F589E02D80818064808355
:1047E00081E090E0DF91CF911F910F91089508959E
:1047F0001F920F920FB60F9211242F934F935F9336
:104800008F939F93EF93FF938091C80082FD1CC00C
:104810002091CE00809197069091980601968F7313
:1048200099274091990650919A068417950771F03F
:10483000E0919706F0919806E95AF94F20839093FA
:1048400098068093970602C08091CE00FF91EF9169
:104850009F918F915F914F912F910F900FBE0F906D
:104860001F90189581EF95E00E945E23892B11F02F
:104870000C94F72308951F920F920FB60F921124F4
:104880002F933F938F939F93EF93FF932091530622
:104890003091540680915506909156062817390795
:1048A00031F48091C9008F7D8093C90014C0E091DC
:1048B0005506F0915606ED5EF94F20818091550620
:1048C0009091560601968F73992790935606809380
:1048D00055062093CE00FF91EF919F918F913F91CC
:1048E0002F910F900FBE0F901F901895CF92DF92CF
:1048F000EF92FF920F931F93CF93DF93EC016A0126
:104900007B014115514E6105710509F1EC89FD8965
:1049100081E090E008A002C0880F991F0A94E2F796
:10492000808360E079E08DE390E0A70196010E942A
:10493000803189019A010150110921093109369507
:10494000279517950795980101151041A8F0EC8956
:10495000FD89108260E874E88EE190E0A70196017D
:104960000E948031DA01C9010197A109B109B69508
:10497000A795979587959C01E889F9893083EA89FD
:10498000FB89208319A2EE89FF89408181E090E0B4
:104990009C010C8C02C0220F331F0A94E2F7242BD7
:1049A0002083EE89FF8940819C010D8C02C0220F7B
:1049B000331F0A94E2F7242B2083EE89FF8940817C
:1049C0009C010E8C02C0220F331F0A94E2F7242BA5
:1049D0002083EE89FF8920810F8C02C0880F991FE8
:1049E0000A94E2F7809582238083DF91CF911F9113
:1049F0000F91FF90EF90DF90CF900895E1EFF5E0F9
:104A00001382128288EE93E0A0E0B0E08483958365
:104A1000A683B78382E991E09183808387E596E05E
:104A20009587848783E196E0978786878DEC90E071
:104A3000918B808B8CEC90E0938B828B88EC90E058
:104A4000958B848B89EC90E0978B868B8AEC90E039
:104A5000918F808F8EEC90E0938F828F84E0848F93
:104A600083E0858F87E0868F85E0878F81E080A354
:104A700008950E94032C81EE96E00E94A22A0E94D3
:104A8000480EC2E3D4E20E9466102097E1F30E9430
:104A90003224F9CFFC01EE5BFF4F80819181329689
:104AA00020813181821B930B8F739927969587956F
:104AB000969587950895CF93DF93EC01E881F9816E
:104AC0000480F581E02D0995CC5BDF4F2881398189
:104AD0002C5F3F4F2F73332739832883DF91CF918A
:104AE0000895CF92DF92EF92FF920F931F93CF938F
:104AF000DF937C018C010E5B1F4FD801CD91DC91BF
:104B00002196CF73DD276C01B4E4CB0ED11CF601E6
:104B100080819181C817D907B9F085E00E940D28DE
:104B20008F3FEFEF9E0781F0D801ED91FC91119737
:104B3000EE0DFF1D82831196DC93CE93CD91DC9117
:104B40002196CF73DD27E3CFDF91CF911F910F9196
:104B5000FF90EF90DF90CF90089586E00C94982A14
:104B6000CF93DF9300D000D0CDB7DEB749835A830F
:104B70006B837C8386E00E943E28811103C080E025
:104B800090E00BC044E050E0BE016F5F7F4F86E0D5
:104B90000E9451281816190694F70F900F900F9045
:104BA0000F90DF91CF91089587E797E790930108E1
:104BB000809300089BE088E10FB6F894A895809355
:104BC00060000FBE909360000895FF920F931F93B3
:104BD000CF93DF93EC01E881F9810190F081E02D22
:104BE0000995181619062CF060E070E080E090E05E
:104BF00039C0FE01EC5BFF4FA081B181AC0FBD1F3E
:104C00001296FC9080819181019620E430E0B901F8
:104C10000E946C31DE01A80FB91F12960C918081A1
:104C200091810296B9010E946C31DE01A80FB91F73
:104C300012961C91808191810396B9010E946C317A
:104C4000C80FD91FCA8187E0F81208C0003F31F4AD
:104C5000C73F21F4113011F40E94D4256F2D702F1D
:104C6000812F9C2FDF91CF911F910F91FF9008957D
:104C7000FC0190819F5F908342E150E060E97AE11E
:104C800080E80C94E928FC0190819F5F908346E4C2
:104C900050E06AE47AE180E80C94E92880E0089525
:104CA00082EA91E090939C0680939B060895CF92B0
:104CB000DF92EF92FF920F931F93CF93DF936C01DC
:104CC000EB017B01E40EF51E00E010E0CE15DF05E0
:104CD00061F06991D601ED91FC910190F081E02D98
:104CE000C6010995080F191FF1CFC801DF91CF91B7
:104CF0001F910F91FF90EF90DF90CF900895611575
:104D0000710579F0FB0101900020E9F73197AF01BF
:104D1000461B570BDC01ED91FC910280F381E02DE5
:104D2000099480E090E008950C947F26DC01ED91D9
:104D3000FC910190F081E02D09940F931F93CF9384
:104D4000DF93EC016DE00E9496268C016AE0CE01B3
:104D50000E949626800F911FDF91CF911F910F9196
:104D600008958F929F92AF92BF92CF92DF92EF926F
:104D7000FF920F931F93CF93DF93CDB7DEB7A19729
:104D80000FB6F894DEBF0FBECDBF6C01142FE52F18
:104D9000CB01022F19A2223008F40AE07E0121E2A1
:104DA000E20EF11C802E912CA12CB12C612F7E2FB4
:104DB000A50194010E948031029F1019112481E005
:104DC000E81AF1081A3014F4105D01C0195CF701FB
:104DD0001083122FE32FCA01232B242B252B31F70D
:104DE000B701C6010E947F26A1960FB6F894DEBFD8
:104DF0000FBECDBFDF91CF911F910F91FF90EF902C
:104E0000DF90CF90BF90AF909F908F900895CF92FA
:104E1000DF92EF92FF920F931F93CF93DF93EC01FA
:104E20006A017B012115310579F4E881F98101904E
:104E3000F081E02D642FDF91CF911F910F91FF90B2
:104E4000EF90DF90CF9009942A303105E9F477FF95
:104E50001AC06DE20E9496268C0144275527BA019C
:104E60004C195D096E097F092AE0CE010E94B12626
:104E7000800F911FDF91CF911F910F91FF90EF90C5
:104E8000DF90CF9008952AE0B701A601CE01DF910F
:104E9000CF911F910F91FF90EF90DF90CF900C94E6
:104EA000B1260F931F93CF93DF93EC019A01AB01CF
:104EB000770F660B770B0E9407278C01CE010E94AB
:104EC0009D26800F911FDF91CF911F910F91089523
:104ED0002115310541F4DC01ED91FC910190F08147
:104EE000E02D642F09940C94B1260F931F93CF9358
:104EF000DF93EC019A01462F50E060E070E00E94E1
:104F000068278C01CE010E949D26800F911FDF91A2
:104F1000CF911F910F9108950F931F93CF93DF931C
:104F2000EC019A01AB0160E070E00E9468278C01FF
:104F3000CE010E949D26800F911FDF91CF911F917E
:104F40000F910895615030F02091F100FC01208311
:104F50000196F8CF289884E68093E80608952FB745
:104F6000FC012083F89467706093E9000895CF9363
:104F7000DF931F92CDB7DEB7682FCE0101960E9456
:104F8000AF278091F20099819FBF0F90DF91CF9161
:104F90000895EF92FF920F931F93CF93DF931F9289
:104FA000CDB7DEB79091E706992311F057FF03C004
:104FB0008FEF9FEF2AC08A017B01682FCE010196F7
:104FC0000E94AF278091F20090E0A801801791071E
:104FD0000CF4AC01842FF70194E6815038F0289846
:104FE0009093E8062091F1002193F7CF41155105E8
:104FF00021F08091F200882321F089818FBFCA01BE
:1050000004C08BE68093E800F8CF0F90DF91CF913A
:105010001F910F91FF90EF900895CF93DF931F9210
:10502000CDB7DEB741E050E0BE016F5F7F4F0E9419
:10503000C927019719F4898190E002C08FEF9FEF93
:105040000F90DF91CF910895CF93DF931F92CDB74B
:10505000DEB7682FCE0101960E94AF279091E8003D
:10506000892F807295FF04C09091F20080E4891B23
:1050700099819FBF0F90DF91CF910895CF93DF93D8
:105080001F92CDB7DEB7682FCE0101960E94AF27E1
:105090008091E80099819FBF80720F90DF91CF913E
:1050A00008954F925F926F927F928F929F92AF92EC
:1050B000BF92CF92DF92EF92FF920F931F93CF9305
:1050C000DF931F92CDB7DEB7A82E6B01B42E052F4C
:1050D0008091E706882369F0E42EF52E8AEF782E7A
:1050E0008A2D8072582E9AE3692E8A2D8074482E5C
:1050F00012C08FEF9FEF50C08A2D0E942428182FD6
:1051000081110DC07A947720A1F361E070E080E016
:1051100090E00E94DB2BE114F10471F733C090E0C2
:10512000E816F9060CF41E2D812E912CE818F908CA
:105130006A2DCE0101960E94AF27552029F011500B
:10514000A8F01092F100FBCFF601A7FE07C01150A6
:1051500058F084918093F1003196F9CF115020F0EE
:1051600081918093F100FACFC80CD91C8091E8009E
:1051700085FF0FC0E114F10411F441100AC08981C8
:105180008FBFC9CF5D9884E68093E9068B2D902F61
:1051900003C06092E800F3CF0F90DF91CF911F9191
:1051A0000F91FF90EF90DF90CF90BF90AF909F90C6
:1051B0008F907F906F905F904F9008951092E900CC
:1051C0001092E6061092E5069093E4068093E306BB
:1051D00008950F931F93CF93DF93DB01A40FB51FA7
:1051E000FB016EEFEA17FB0791F187FF02C02491E4
:1051F00001C020810091E5061091E606C091E3060A
:10520000D091E4060C171D07B4F49091E800957056
:10521000E1F39091E80092FD1CC02093F1002091F1
:10522000E5063091E6062F5F3F4F2F733327232B80
:1052300011F46093E8002091E5063091E6062F5FB7
:105240003F4F3093E6062093E5063196CBCFCA0157
:1052500002C08FEF9FEFDF91CF911F910F910895C3
:105260001F93CF93DF931F92CDB7DEB7162F2091F8
:10527000E80022FFFCCF612F79830E94A2278BEFE9
:105280008093E800812F7981972F0F90DF91CF9144
:105290001F910895CF93DF931F92CDB7DEB7198288
:1052A000CE0101960E94E922CE0101960E94772C40
:1052B000CE0101960E943826CE0101960E94432617
:1052C000898190E00F90DF91CF9108951F920F9206
:1052D0000FB60F921124CF92DF92EF92FF921F939D
:1052E0002F933F934F935F936F937F938F939F93EE
:1052F000AF93BF93EF93FF93CF93DF93CDB7DEB719
:105300006197DEBFCDBF1092E9008091E80083FF76
:10531000F1C068E0CE010A960E94A22782EF809336
:10532000E8009A8597FF05C08091E80080FFFCCFD8
:1053300003C08EEF8093E800892F807609F0B8C013
:105340008B85811105C01092F1001092F100CBC045
:10535000282F2D7F213009F4C6C0853049F4809173
:10536000E80080FFFCCF8C8580688093E300BBC0A1
:10537000863009F06FC01D85E888F988123069F51C
:1053800080E090E00E94DE280E944A2999E09E0178
:105390002F5F3F4F6901F901292F11922A95E9F7F3
:1053A00099831A8391E09E8390E898879AEF998772
:1053B0002091E5063091E606275F3F4F3C832B8323
:1053C0008D83C7010E94DE2849E050E0B60180E0ED
:1053D0000E94E9280E944A2986C0C7010E94DE284F
:1053E000123241F482E290E00E94822C892B09F073
:1053F0007AC07DC0113069F488899989089711F4C1
:105400001093E2068091E206811111C06BEB7AE104
:1054100016C0133009F06BC08C85882359F0823098
:1054200061F0813009F063C06DEC7AE108C069EA8F
:105430007AE105C06FE07BE102C06DEE7AE16115B3
:10544000710509F454C0FB01449150E080E80E94CA
:10545000E92849C0873009F44AC0883021F481E046
:105460008093F10040C0893009F03DC0937009F08D
:105470003EC080E090E031E026E341E0480F4093F9
:10548000E9003093EB000196FC01EE55F54EE491F6
:10549000E093EC002093ED008630910571F78EE7E4
:1054A0008093EA001092EA008C858093E7061BC087
:1054B000888999890E94DE288E85811105C0CE01D8
:1054C0000A960E94F4220DC0823029F4CE010A9679
:1054D0000E94AA2C06C0843051F4CE010A960E9484
:1054E0004E26882321F08EEF8093E80003C081E2EE
:1054F0008093EB0061960FB6F894DEBF0FBECDBF70
:10550000DF91CF91FF91EF91BF91AF919F918F91DB
:105510007F916F915F914F913F912F911F91FF90DC
:10552000EF90DF90CF900F900FBE0F901F901895C7
:105530008093E9008091F200882319F08AE3809338
:10554000E80008951092E70681E08093D70080EA92
:105550008093D80082E189BD09B400FEFDCF61E0EF
:1055600070E080E090E00E94DB2B80E98093D8001F
:105570008CE08093E2001092E000559A209A089502
:105580001F920F920FB60F9211242F933F934F93B8
:105590005F936F937F938F939F93AF93BF93EF939B
:1055A000FF938091E1001092E10083FF0FC0109201
:1055B000E90091E09093EB001092EC0092E390935D
:1055C000ED001092E70698E09093F00082FF32C061
:1055D00083E00E94982A82E00E94B727882321F066
:1055E0008FE995E00E949B2286E00E94982A85E040
:1055F0000E94B727882321F08BE996E00E9471254D
:105600008091E906882339F08091E90681508093E2
:10561000E906882369F08091E806882359F0809193
:10562000E80681508093E806811104C0289A02C0E0
:105630005D9AF1CFFF91EF91BF91AF919F918F91C3
:105640007F916F915F914F913F912F910F900FBE7E
:105650000F901F9018954F925F926F927F92AF922A
:10566000BF92CF92DF92EF92FF920F931F93CF934F
:10567000DF93CDB7DEB729013A019B01AC012419B4
:1056800035094609570989899A89AB89BC89BC01C2
:10569000CD016A197B098C099D090E945031A8012E
:1056A000970124193509460957090E94A231CA01F8
:1056B000B9016A0D7B1D8C1D9D1DDF91CF911F913E
:1056C0000F91FF90EF90DF90CF90BF90AF907F90C1
:1056D0006F905F904F9008951F920F920FB60F92A8
:1056E00011242F933F938F939F93AF93BF938091F8
:1056F000EB069091EC06A091ED06B091EE0630918C
:10570000EA0623E0230F2D3720F40196A11DB11DD9
:1057100005C026E8230F0296A11DB11D2093EA06BD
:105720008093EB069093EC06A093ED06B093EE0603
:105730008091EF069091F006A091F106B091F206EB
:105740000196A11DB11D8093EF069093F006A093E2
:10575000F106B093F206BF91AF919F918F913F9167
:105760002F910F900FBE0F901F9018953FB7F89490
:105770008091EF069091F006A091F106B091F206AB
:1057800026B5A89B05C02F3F19F00196A11DB11D9C
:105790003FBFBA2FA92F982F8827820F911DA11DD7
:1057A000B11DBC01CD0142E0660F771F881F991F14
:1057B0004A95D1F70895CF92DF92EF92FF92CF935F
:1057C000DF936B017C010E94B62BEB01C114D10465
:1057D000E104F10489F00E94912D0E94B62B6C1B0C
:1057E0007D0B683E734090F381E0C81AD108E10850
:1057F000F108C851DC4FEACFDF91CF91FF90EF90D5
:10580000DF90CF900895789484B5826084BD84B58C
:10581000816084BD85B5826085BD85B5816085BDAB
:10582000EEE6F0E0808181608083E1E8F0E01082C4
:10583000808182608083808181608083E0E8F0E005
:10584000808181608083E1E9F0E0808182608083F3
:10585000808181608083E0E9F0E0808181608083E5
:10586000E1ECF0E0808184608083808182608083CD
:10587000808181608083E3ECF0E0808181608083BF
:10588000E0ECF0E0808182608083E2ECF0E08081F7
:1058900081608083EAE7F0E080818460808380819A
:1058A0008260808380818160808380818068808342
:1058B0000895EF92FF921F93CF93DF93EC01162F81
:1058C000E881F9810480F581E02D09957C01E8816A
:1058D000F9810680F781E02D612FCE010995C7017E
:1058E0009927DF91CF911F91FF90EF900895FC01D0
:1058F00090819F5F908349E150E063E97BE180E81C
:105900000C94E92845E650E06CEA7BE180E80C94D1
:10591000E928EF92FF920F931F93CF93DF931F928B
:10592000CDB7DEB789838B017A0141E050E0BE013B
:105930006F5F7F4F84E00E945128A701B80184E483
:105940000E9451280F90DF91CF911F910F91FF90EE
:10595000EF900895FC0191818081813A31F481E0DA
:10596000913091F0933089F411C0813271F49B3001
:1059700021F482818093600105C09A3031F48281E4
:1059800080935F0181E00895089580E0089548E0E4
:1059900050E082E00C94892CDC01683810F06858E3
:1059A0002DC0E62FF0E067FF11C0E058F10981E05B
:1059B00090E001C0880FEA95EAF714969C9114973D
:1059C000892B14968C93149760E018C0ED5EF44E0A
:1059D0006491611109C081E090E013969C938E93CD
:1059E000129780E090E0089567FF08C014968C91AC
:1059F0001497826014968C9314976F7716968C91F7
:105A00001697861751F117968C911797861729F1DB
:105A100018968C911897861701F119968C91199701
:105A20008617D9F01A968C911A978617B1F01B96A3
:105A30008C911B97861789F0FD01369680E090E0E7
:105A40002191211105C0FD01E80FF91F668305C0F2
:105A5000019686309105A1F7BECFCD01BD016C5FE7
:105A60007F4F0E94C72C81E090E00895DC016838E8
:105A700010F0685825C0E62FF0E067FF12C0E0582C
:105A8000F10981E090E001C0880FEA95EAF780957E
:105A900014969C911497892314968C93149760E024
:105AA0000FC0ED5EF44E6491662301F167FF08C0FC
:105AB00014968C9114978D7F14968C9314976F770E
:105AC000FD01369686E0662321F09081961301C091
:105AD0001082815031968111F6CFCD01BD016C5FEE
