:100000000C9410140C9438140C9438140C94381468
:100010000C9438140C9438140C9438140C94381430
:100020000C9438140C9438140C94D32E0C94792D11
:100030000C9438140C9438140C9438140C94381410
:100040000C9438140C9438140C9438140C94381400
:100050000C94CA210C9455260C9438140C943E2F01
:100060000C9438140C942E290C9471290C94381487
:100070000C9438140C94CB230C9438140C9438142E
:100080000C9438140C9438140C9438140C943814C0
:100090000C946B250C9438140C9438140C9438146C
:1000A0000C9438140C9438140C943814A51B131C9D
:1000B000E81BCE1B471C471CA11B471CA11B471C50
:1000C000A11BA11BA11B471CA11BA11BD026D32632
:1000D000C626CA26F426F426F426D726DB26DF26F3
:1000E000E526E926F426EF2607634236B79BD8A714
:1000F0001A39685618AEBAAB558C1D3CB7CC57634D
:10010000BD6DEDFD753EF6177231BF000000803FFA
:1001100008000000BE922449123EABAAAA2ABECD16
:10012000CCCC4C3E00000080BEABAAAAAA3E000088
:100130000000BF000000803F000000000008417880
:10014000D3BB4387D1133D190E3CC3BD4282AD2BB7
:100150003E68EC8276BED98FE1A93E4C80EFFFBEAF
:1001600001C4FF7F3F0000000000000102040507FA
:1001700008090B0C0E0F101213151617191A1B1D58
:100180001E20212224252628292A2C2D2E2F3132EB
:1001900033353637383A3B3C3D3E40414243444597
:1001A0004647494A4B4C4D4E4F5051525354555669
:1001B000575859595A5B5C5D5E5E5F60616262636D
:1001C000646465666667686869696A6A6B6B6C6CAB
:1001D0006D6D6E6E6F6F6F70707070717171717226
:1001E00072727272727273737373737373737372E6
:1001F00072727272727271717171707070706F6FF1
:100200006F6E6E6D6D6C6C6B6B6A6A69696868673E
:10021000666665646463626261605F5E5E5D5C5BCE
:100220005A59595857565554535251504F4E4D4C98
:100230004B4A4947464544434241403E3D3C3B3A98
:10024000383736353332312F2E2D2C2A29282625C2
:10025000242221201E1D1C1A191716151312100F07
:100260000E0C0B0908070504020100FEFDFBFAF85D
:10027000F7F6F4F3F1F0EFEDECEAE9E8E6E5E4E2B5
:10028000E1DFDEDDDBDAD9D7D6D5D3D2D1D0CECD02
:10029000CCCAC9C8C7C5C4C3C2C1BFBEBDBCBBBA36
:1002A000B9B8B6B5B4B3B2B1B0AFAEADACABAAA944
:1002B000A8A7A6A6A5A4A3A2A1A1A09F9E9D9D9C20
:1002C0009B9B9A99999897979696959594949393C2
:1002D000929291919090908F8F8F8F8E8E8E8E8D27
:1002E0008D8D8D8D8D8D8C8C8C8C8C8C8C8C8C8C48
:1002F0008D8D8D8D8D8D8E8E8E8E8F8F8F8F90901C
:1003000090919192929393949495959696979798AD
:1003100099999A9B9B9C9D9D9E9FA0A1A1A2A3A4FD
:10032000A5A6A6A7A8A9AAABACADAEAFB0B1B2B313
:10033000B4B5B6B8B9BABBBCBDBEC0C1C2C3C4C5F2
:10034000C7C8C9CACCCDCED0D1D2D3D5D6D7D9DAA9
:10035000DBDDDEDFE1E2E4E5E6E8E9EAECEDEFF043
:10036000F1F3F4F6F7F8FAFBFDFE174466777870C0
:10037000655E5E63696D6D6A65626265686B6B6917
:1003800066646466686A6A686665656668696968FD
:1003900066656566686969686665656668696968ED
:1003A00066666666686868686666666668686868DD
:1003B00067666666686868686766666767686867CC
:1003C00067666667676868676766666767686867BD
:1003D00067666667676868676766666767686867AD
:1003E000676666676768686767666667676868679D
:1003F000676666676768686767666667676868678D
:10040000676666676768686767666667676868677C
:10041000676666676768686767666667686868686A
:10042000676666676868686866666666686868685A
:10043000666666666869696866656566686969684A
:10044000666565666869696866656566686A6A683A
:1004500066646466696B6B68656262656A6D6D6926
:10046000635E5E65707877664417EAC5ADA2A1A7A2
:10047000ADB2B2AFABA8A8AAADAFAFADABA9A9ABB7
:10048000ADAEAEADABAAAAABACADADADABAAAAABAF
:10049000ACADADACABABABABACADADACABABABABA0
:1004A000ACADADACACABABABACADADACACABABAC8D
:1004B000ACADADACACABABACACADADACACABABAC7C
:1004C000ACADADACACABABACACADADACACABABAC6C
:1004D000ACADADACACABABACACADACACACABABAC5D
:1004E000ACACACACACABABACACACACACACABABAC50
:1004F000ACACACACACABABACACACACACACABABAC40
:10050000ACADADACACABABACACADADACACABABAC2B
:10051000ACADADACACABABACACADADACACABABAC1B
:10052000ACADADACACABABACACADADACABABABAC0C
:10053000ACADADACABABABABACADADACABABABABFF
:10054000ACADADACABAAAAABADADADACABAAAAABF2
:10055000ADAEAEADABA9A9ABADAFAFADAAA8A8ABE0
:10056000AFB2B2ADA7A1A2ADC5EA00000000010183
:10057000010102020202030303030404040404054C
:1005800005050506060607070707080808080909FC
:1005900009090A0A0A0A0B0B0B0B0B0C0C0C0D0DAC
:1005A0000D0D0E0E0E0E0F0F0F0F1010101011115B
:1005B000111111121212121313131314141414150F
:1005C00015151516161616171717181818181919BD
:1005D00019191A1A1A1A1B1B1B1B1C1C1C1C1D1D6B
:1005E0001D1D1E1E1E1E1F1F1F1F2020202020211C
:1005F00021202222222223232323242424242525CC
:10060000252526262626272727272828282828297B
:100610002929292A2A2A2A2B2B2B2C2C2C2C2D2D2C
:100620002D2D2E2E2E2E2F2F2F2F303030303131DA
:10063000313131323232333333333434343434358C
:10064000353536363636363737373838383838393C
:1006500039393A3A3A3A3B3B3B3B3C3C3C3C3C3DEB
:100660003D3D3E3E3E3E3E3F3F3F3F40404041419C
:10067000414141424242424343434444444445454C
:1006800045454646464647474747484848484949FA
:100690004949494A4A4A4A4B4B4B4C4C4C4C4D4DAC
:1006A0004D4D4D4E4E4E4E4F4F4F5050505051515C
:1006B000515151525252535353535454545455550B
:1006C00055555556565656575757585858585859BD
:1006D00059595A5A5A5A5B5B5B5B5C5C5C5C5C5D6B
:1006E0005D5D5E5E5E5E5F5F5F5F5F60606061611B
:1006F00061616262626263636363636464646565CB
:10070000656565666666666767676768686869697C
:100710006969696A6A6A6A6B6B6B6C6C6C6C6D6D2B
:100720006D6D6E6E6E6E6F6F6F6F707070707071DA
:10073000717171727272727373737374747474758D
:10074000757575767676777777777878787878793B
:1007500079797A7A7A7A7B7B7B7B7C7C7C7C7D7DE9
:100760007D7D7D7E7E7E7F7F7F7F7F7F7F7E7E7EA5
:100770007E7E7D7D7D7D7C7C7C7C7B7B7B7B7A7AB9
:100780007A7A7979797978787878777777777676E9
:100790007676757575757474747473737373727219
:1007A0007271717171707070706F6F6F6F6E6E6E4D
:1007B0006E6D6D6D6D6D6C6C6C6C6B6B6B6B6A6A7A
:1007C0006A696969696868686868676767666666AC
:1007D00066666565656564646463636363626262DB
:1007E000626161616160606060605F5F5F5E5E5E0C
:1007F0005E5D5D5D5D5C5C5C5C5B5B5B5B5B5A5A3C
:100800005A5A595959595858585857575757565668
:100810005656555555545454545453535353525299
:100820005251515151505050504F4F4F4F4E4E4ECC
:100830004E4E4D4D4D4D4C4C4C4C4B4B4B4A4A4AF9
:100840004A4A494949494848484847474747464628
:100850004645454545454444444443434343424259
:100860004241414141414040403F3F3F3F3F3E3E8A
:100870003E3E3D3D3D3C3C3C3C3C3B3B3B3B3A3AB9
:100880003A3A3939393838383838373737373636E9
:10089000363635353535343434333333333232321A
:1008A0003232313131313030302F2F2F2F2E2E2E4A
:1008B0002E2E2D2D2D2D2C2C2C2B2B2B2B2A2A2A7A
:1008C0002A292929292928282828272727262626AA
:1008D00026262525252424242424232323222222DA
:1008E000222121202121202020201F1F1F1F1E1E0A
:1008F0001E1E1D1D1D1D1C1C1C1B1B1B1B1B1A1A39
:100900001A19191919191818181817171717161668
:100910001616151515151414141313131313121298
:10092000121211111110101010100F0F0F0F0E0EC8
:100930000E0E0D0D0D0D0C0C0C0C0B0B0B0B0A0AF7
:100940000A0A090909090808080807070706060628
:100950000605050505050404040403030303020258
:1009600002010101010100000000FFFFFFFEFEFE89
:10097000FEFDFDFDFDFCFCFCFCFBFBFBFBFAFAFABB
:10098000FAFAF9F9F9F8F8F8F8F8F7F7F7F7F6F6E8
:10099000F6F5F5F5F5F4F4F4F4F4F3F3F3F3F2F219
:1009A000F2F1F1F1F1F1F0F0F0F0EFEFEFEEEEEE49
:1009B000EEEDEDEDEDEDECECECEBEBEBEBEBEAEA79
:1009C000EAEAE9E9E9E9E8E8E8E7E7E7E7E7E6E6A8
:1009D000E6E6E5E5E5E4E4E4E4E3E3E3E3E3E2E2D9
:1009E000E2E1E1E1E1E0E0E0E0E0DFDFDFDFDEDE09
:1009F000DEDDDDDDDDDCDCDCDCDCDBDBDBDADADA3A
:100A0000DAD9D9D9D9D8D8D8D8D8D7D7D7D7D6D668
:100A1000D6D5D5D5D5D4D4D4D4D3D3D3D3D2D2D29A
:100A2000D2D1D1D1D1D0D0D0D0D0CFCFCFCFCECEC8
:100A3000CECECDCDCDCDCCCCCCCBCBCBCBCACACAF8
:100A4000CAC9C9C9C9C8C8C8C8C7C7C7C7C6C6C62A
:100A5000C6C5C5C5C5C4C4C4C4C4C3C3C3C3C2C258
:100A6000C2C1C1C1C1C1C0C0C0C0BFBFBFBFBEBE87
:100A7000BEBDBDBDBDBDBCBCBCBCBBBBBBBBBABAB7
:100A8000BABAB9B9B9B9B8B8B8B8B7B7B7B7B6B6E6
:100A9000B6B6B5B5B5B5B4B4B4B4B3B3B3B3B2B216
:100AA000B2B2B1B1B1B1B0B0B0B0AFAFAFAEAEAE47
:100AB000AEAEADADADADACACACABABABABAAAAAA78
:100AC000AAA9A9A9A9A8A8A8A8A7A7A7A7A7A6A6A9
:100AD000A6A5A5A5A5A5A4A4A4A3A3A3A3A2A2A2D9
:100AE000A2A1A1A1A1A1A0A0A0A09F9F9F9F9E9E07
:100AF0009E9E9D9D9D9D9C9C9C9C9B9B9B9B9A9A36
:100B00009A9A999999989898989797979797969667
:100B10009696959595949494949393939393929297
:100B20009292919191919090908F8F8F8F8F8E8EC6
:100B30008E8E8D8D8D8C8C8C8C8B8B8B8B8A8A8AF8
:100B40008A89898989898888888887878786868627
:100B50008686858585858484848483838382828256
:100B6000828181818181808080808080808081817C
:100B70008181818282828383838383848484858547
:100B800085858686868687878787878888888889F7
:100B900089898A8A8A8A8A8B8B8B8C8C8C8C8D8DA6
:100BA0008D8D8D8E8E8E8E8F8F8F90909090919157
:100BB0009191929292929393939394949494959505
:100BC00095959696969697979797979898989999B6
:100BD00099999A9A9A9A9A9B9B9B9C9C9C9C9D9D66
:100BE0009D9D9E9E9E9E9F9F9F9F9FA0A0A0A1A116
:100BF000A1A1A1A2A2A2A2A3A3A3A4A4A4A4A4A5C8
:100C0000A5A5A5A6A6A6A7A7A7A7A7A8A8A8A9A976
:100C1000A9A9AAAAAAAAAAABABABACACACACACAD26
:100C2000ADADAEAEAEAEAEAFAFAFAFB0B0B0B1B1D6
:100C3000B1B1B2B2B2B2B2B3B3B3B3B4B4B4B5B586
:100C4000B5B5B6B6B6B6B6B7B7B7B7B8B8B8B9B936
:100C5000B9B9BABABABABBBBBBBBBCBCBCBCBDBDE4
:100C6000BDBDBEBEBEBEBEBFBFBFC0C0C0C0C0C196
:100C7000C1C1C2C2C2C2C2C3C3C3C3C4C4C4C5C546
:100C8000C5C5C6C6C6C6C6C7C7C7C7C8C8C8C8C9F7
:100C9000C9C9C9CACACACBCBCBCBCBCCCCCCCCCDA7
:100CA000CDCDCDCECECECFCFCFCFCFD0D0D0D1D156
:100CB000D1D1D2D2D2D2D2D3D3D3D3D4D4D4D4D507
:100CC000D5D5D5D6D6D6D7D7D7D7D8D8D8D8D8D9B6
:100CD000D9D9D9DADADADBDBDBDBDBDCDCDCDCDD67
:100CE000DDDDDEDEDEDEDEDFDFDFE0E0E0E0E1E115
:100CF000E1E1E1E2E2E2E3E3E3E3E4E4E4E4E4E5C6
:100D0000E5E5E5E6E6E6E6E7E7E7E8E8E8E8E9E975
:100D1000E9E9E9EAEAEAEBEBEBEBECECECECEDED24
:100D2000EDEDEDEEEEEEEFEFEFEFF0F0F0F0F1F1D4
:100D3000F1F1F2F2F2F2F3F3F3F3F3F4F4F4F5F584
:100D4000F5F5F5F6F6F6F7F7F7F7F8F8F8F8F9F934
:100D5000F9F9FAFAFAFAFBFBFBFBFBFCFCFCFDFDE4
:100D6000FDFDFEFEFEFEFFFFFFFF80808080808095
:100D7000808081818181818181818282828282825F
:100D80008282828383838383838384848484848430
:100D90008484848585858585858586868686868600
:100DA00086868787878787878787888888888888CF
:100DB000888889898989898989898A8A8A8A8A8A9F
:100DC0008A8A8A8B8B8B8B8B8B8B8B8C8C8C8C8C71
:100DD0008C8C8D8D8D8D8D8D8D8D8D8E8E8E8E8E40
:100DE0008E8E8F8F8F8F8F8F8F8F9090909090900F
:100DF00090909191919191919191929292929292DF
:100E000092929393939393939393949494949494AE
:100E1000949494959595959595959696969696967F
:100E20009696969797979797979797989898989850
:100E300098989899999999999999999A9A9A9A9A20
:100E40009A9A9B9B9B9B9B9B9B9B9B9C9C9C9C9CEF
:100E50009C9C9C9D9D9D9D9D9D9D9E9E9E9E9E9EBF
:100E60009E9E9F9F9F9F9F9F9F9F9FA0A0A0A0A08F
:100E7000A0A0A1A1A1A1A1A1A1A1A2A2A2A2A2A25E
:100E8000A2A2A3A3A3A3A3A3A3A3A4A4A4A4A4A42E
:100E9000A4A4A4A5A5A5A5A5A5A5A6A6A6A6A6A6FF
:100EA000A6A6A7A7A7A7A7A7A7A7A8A8A8A8A8A8CE
:100EB000A8A8A8A9A9A9A9A9A9A9A9AAAAAAAAAAA0
:100EC000AAAAABABABABABABABABACACACACACAC6E
:100ED000ACACADADADADADADADADAEAEAEAEAEAE3E
:100EE000AEAEAFAFAFAFAFAFAFAFAFB0B0B0B0B00F
:100EF000B0B0B0B1B1B1B1B1B1B1B2B2B2B2B2B2DF
:100F0000B2B2B3B3B3B3B3B3B3B3B4B4B4B4B4B4AD
:100F1000B4B4B5B5B5B5B5B5B5B5B6B6B6B6B6B67D
:100F2000B6B6B7B7B7B7B7B7B7B7B8B8B8B8B8B84D
:100F3000B8B8B8B9B9B9B9B9B9B9BABABABABABA1E
:100F4000BABABBBBBBBBBBBBBBBBBCBCBCBCBCBCED
:100F5000BCBCBDBDBDBDBDBDBDBDBDBEBEBEBEBEBE
:100F6000BEBEBFBFBFBFBFBFBFBFC0C0C0C0C0C08D
:100F7000C0C0C1C1C1C1C1C1C1C1C1C2C2C2C2C25E
:100F8000C2C2C2C3C3C3C3C3C3C3C4C4C4C4C4C42E
:100F9000C4C4C4C5C5C5C5C5C5C5C5C6C6C6C6C6FF
:100FA000C6C6C7C7C7C7C7C7C7C7C8C8C8C8C8C8CD
:100FB000C8C8C9C9C9C9C9C9C9C9CACACACACACA9D
:100FC000CACACBCBCBCBCBCBCBCBCBCCCCCCCCCC6E
:100FD000CCCCCCCDCDCDCDCDCDCDCDCECECECECE3F
:100FE000CECECFCFCFCFCFCFCFCFD0D0D0D0D0D00D
:100FF000D0D0D1D1D1D1D1D1D1D1D2D2D2D2D2D2DD
:10100000D2D2D2D3D3D3D3D3D3D3D4D4D4D4D4D4AD
:10101000D4D4D4D5D5D5D5D5D5D5D6D6D6D6D6D67D
:10102000D6D6D6D7D7D7D7D7D7D7D8D8D8D8D8D84D
:10103000D8D8D9D9D9D9D9D9D9D9D9DADADADADA1D
:10104000DADADADBDBDBDBDBDBDBDCDCDCDCDCDCED
:10105000DCDCDCDDDDDDDDDDDDDDDDDEDEDEDEDEBE
:10106000DEDEDFDFDFDFDFDFDFDFDFE0E0E0E0E08D
:10107000E0E0E1E1E1E1E1E1E1E1E2E2E2E2E2E25C
:10108000E2E2E2E3E3E3E3E3E3E3E4E4E4E4E4E42D
:10109000E4E4E5E5E5E5E5E5E5E5E6E6E6E6E6E6FC
:1010A000E6E6E7E7E7E7E7E7E7E7E7E8E8E8E8E8CD
:1010B000E8E8E9E9E9E9E9E9E9E9EAEAEAEAEAEA9C
:1010C000EAEAEBEBEBEBEBEBEBEBECECECECECEC6C
:1010D000ECECECEDEDEDEDEDEDEDEDEEEEEEEEEE3E
:1010E000EEEEEEEFEFEFEFEFEFEFF0F0F0F0F0F00D
:1010F000F0F0F0F1F1F1F1F1F1F1F1F2F2F2F2F2DE
:10110000F2F2F3F3F3F3F3F3F3F3F4F4F4F4F4F4AB
:10111000F4F4F4F5F5F5F5F5F5F5F6F6F6F6F6F67C
:10112000F6F6F7F7F7F7F7F7F7F7F8F8F8F8F8F84B
:10113000F8F8F8F9F9F9F9F9F9F9F9FAFAFAFAFA1D
:10114000FAFAFBFBFBFBFBFBFBFBFCFCFCFCFCFCEB
:10115000FCFCFDFDFDFDFDFDFDFDFDFEFEFEFEFEBC
:10116000FEFEFFFFFFFFFFFFFFFF0000000000008B
:10117000000000010101010101010102020202025D
:10118000020203030303030303030404040404042B
:1011900004040505050505050505060606060606FB
:1011A00006060707070707070707070808080808CC
:1011B000080809090909090909090A0A0A0A0A0A9B
:1011C0000A0A0B0B0B0B0B0B0B0B0B0C0C0C0C0C6C
:1011D0000C0C0D0D0D0D0D0D0D0D0D0E0E0E0E0E3C
:1011E0000E0E0F0F0F0F0F0F0F0F0F10101010100C
:1011F00010101011111111111111121212121212DC
:1012000012121313131313131313141414141414AA
:10121000141415151515151515151516161616167B
:10122000161617171717171717171818181818184A
:1012300018181919191919191919191A1A1A1A1A1B
:101240001A1A1A1B1B1B1B1B1B1B1C1C1C1C1C1CEB
:101250001C1C1D1D1D1D1D1D1D1D1E1E1E1E1E1EBA
:101260001E1E1F1F1F1F1F1F1F1F1F20202020208B
:10127000202021212021212221212022222222225C
:10128000222223232323232323232424242424242A
:1012900024242425252525252525262626262626FB
:1012A00026262727272727272727282828282828CA
:1012B000282829292929292929292A2A2A2A2A2A9A
:1012C0002A2A2A2B2B2B2B2B2B2B2B2C2C2C2C2C6C
:1012D0002C2C2D2D2D2D2D2D2D2D2E2E2E2E2E2E3A
:1012E0002E2E2E2F2F2F2F2F2F2F2F30303030300C
:1012F00030303131313131313131323232323232DA
:1013000032323333333333333333333434343434AA
:101310003434353535353535353536363636363679
:10132000363636373737373737373738383838384B
:1013300038383939393939393939393A3A3A3A3A1A
:101340003A3A3A3B3B3B3B3B3B3B3C3C3C3C3C3CEA
:101350003C3C3D3D3D3D3D3D3D3D3E3E3E3E3E3EB9
:101360003E3E3F3F3F3F3F3F3F3F40404040404089
:101370004040414141414141414142424242424259
:101380004242434343434343434344444444444429
:1013900044444545454545454545464646464646F9
:1013A00046464647474747474747484848484848CA
:1013B000484849494949494949494A4A4A4A4A4A99
:1013C0004A4A4A4B4B4B4B4B4B4B4C4C4C4C4C4C6A
:1013D0004C4C4C4D4D4D4D4D4D4D4D4E4E4E4E4E3B
:1013E0004E4E4F4F4F4F4F4F4F4F50505050505009
:1013F00050505051515151515151525252525252DA
:1014000052525253535353535353545454545454A9
:101410005454545555555555555556565656565679
:101420005656565757575757575758585858585849
:1014300058585859595959595959595A5A5A5A5A1A
:101440005A5A5B5B5B5B5B5B5B5B5C5C5C5C5C5CE8
:101450005C5C5D5D5D5D5D5D5D5D5E5E5E5E5E5EB8
:101460005E5E5F5F5F5F5F5F5F5F60606060606088
:101470006060616161616161616161626262626259
:101480006262636363636363636363646464646429
:1014900064646565656565656565656666666666F9
:1014A00066666767676767676767686868686868C8
:1014B000686869696969696969696A6A6A6A6A6A98
:1014C0006A6A6B6B6B6B6B6B6B6B6C6C6C6C6C6C68
:1014D0006C6C6D6D6D6D6D6D6D6D6E6E6E6E6E6E38
:1014E0006E6E6F6F6F6F6F6F6F6F70707070707008
:1014F00070707171717171717171717272727272D9
:1015000072727373737373737373747474747474A7
:101510007474747575757575757575767676767679
:101520007676777777777777777777787878787848
:1015300078787879797979797979797A7A7A7A7A19
:101540007A7A7B7B7B7B7B7B7B7B7C7C7C7C7C7CE7
:101550007C7C7D7D7D7D7D7D7D7D7D7E7E7E7E7EB8
:101560007E7E7F7F7F7F7F7F7F7F00000001010184
:10157000020203030304040505050606070707081E
:10158000080909090A0A0A0B0B0C0C0C0D0D0E0EAA
:101590000E0F0F1010101111121212131313141436
:1015A000151515161617171718181819191A1A1AC3
:1015B0001B1B1C1C1C1D1D1D1E1E1F1F1F20202051
:1015C00021212222222323242424252525262627DF
:1015D000272728282829292A2A2A2B2B2B2C2C2C70
:1015E0002D2D2E2E2E2F2F2F303030313132323202
:1015F0003333333434343535363636373737383895
:10160000383939393A3A3A3B3B3B3C3C3D3D3D3E2B
:101610003E3E3F3F3F4040404141414242424343C2
:10162000434444444545454646464747474848485D
:101630004949494A4A4A4A4B4B4B4C4C4C4D4D4DFB
:101640004E4E4E4F4F4F4F5050505151515252529B
:10165000535353535454545555555556565657573E
:101660005757585858595959595A5A5A5B5B5B5BE6
:101670005C5C5C5C5D5D5D5E5E5E5E5F5F5F5F608F
:10168000606060616161616262626263636363643E
:1016900064646465656565666666666767676767EF
:1016A0006868686869696969696A6A6A6A6B6B6BA4
:1016B0006B6B6C6C6C6C6C6D6D6D6D6D6E6E6E6E5F
:1016C0006E6F6F6F6F6F707070707071717171711C
:1016D00071727272727273737373737374747474DD
:1016E00074747575757575757576767676767677A4
:1016F000777777777777777878787878787879796F
:101700007979797979797A7A7A7A7A7A7A7A7A7B3E
:101710007B7B7B7B7B7B7B7B7B7C7C7C7C7C7C7C12
:101720007C7C7C7C7D7D7D7D7D7D7D7D7D7D7D7DED
:101730007D7E7E7E7E7E7E7E7E7E7E7E7E7E7E7ECA
:101740007E7E7F7F7F7F7F7F7F7F7F7F7F7F7F7FAB
:101750007F7F7F7F7F7F7F7F7F7F7F7F7F7F7F7F99
:101760007F7F7F7F7F7F7F7F7F7F7F7F7F7F7F7F89
:101770007F7F7F7F7F7F7F7F7F7F7F7F7F7F7F7F79
:101780007F7F7F7F7F7F7F7F7F7F7F7F7F7F7F7F69
:101790007F7F7F7E7E7E7E7E7E7E7E7E7E7E7E7E66
:1017A0007E7E7E7E7D7D7D7D7D7D7D7D7D7D7D7D65
:1017B0007D7C7C7C7C7C7C7C7C7C7C7C7B7B7B7B6C
:1017C0007B7B7B7B7B7B7A7A7A7A7A7A7A7A7A7974
:1017D0007979797979797978787878787878777784
:1017E0007777777777767676767676767575757598
:1017F00075757574747474747473737373737372AE
:101800007272727271717171717170707070706FCB
:101810006F6F6F6F6E6E6E6E6E6D6D6D6D6D6C6CED
:101820006C6C6C6B6B6B6B6B6A6A6A6A6A69696910
:10183000696868686867676767676666666665653A
:101840006565646464646363636362626262616168
:101850006161606060605F5F5F5F5E5E5E5E5D5D98
:101860005D5C5C5C5C5B5B5B5B5A5A5A59595959CD
:101870005858585757575756565655555555545406
:1018800054535353535252525151515050504F4F41
:101890004F4F4E4E4E4D4D4D4C4C4C4B4B4B4A4A80
:1018A0004A4A4949494848484747474646464545C0
:1018B0004544444443434342424241414140404005
:1018C0003F3F3F3E3E3E3D3D3D3C3C3B3B3B3A3A4D
:1018D0003A39393938383837373736363635353496
:1018E000343433333332323231313030302F2F2FE2
:1018F0002E2E2E2D2D2C2C2C2B2B2B2A2A2A29292F
:10190000282828272727262625252524242423237D
:1019100022222222212120201F1F1F1E1E1D1D1DCD
:101920001C1C1C1B1B1A1A1A191918181817171720
:101930001616151515141413131312121211111073
:1019400010100F0F0E0E0E0D0D0C0C0C0B0B0A0AC7
:101950000A0909090808070707060605050504041A
:1019600003030302020101010000FFFFFFFEFEFE70
:10197000FDFDFCFCFCFBFBFAFAFAF9F9F8F8F8F7C4
:10198000F7F6F6F6F5F5F5F4F4F3F3F3F2F2F1F118
:10199000F1F0F0EFEFEFEEEEEDEDEDECECECEBEB6C
:1019A000EAEAEAE9E9E8E8E8E7E7E7E6E6E5E5E5BF
:1019B000E4E4E3E3E3E2E2E2E1E1E0E0E0DFDFDF11
:1019C000DEDEDDDDDDDCDCDBDBDBDADADAD9D9D863
:1019D000D8D8D7D7D7D6D6D6D5D5D4D4D4D3D3D3B1
:1019E000D2D2D1D1D1D0D0D0CFCFCFCECECDCDCD00
:1019F000CCCCCCCBCBCBCACAC9C9C9C8C8C8C7C74D
:101A0000C7C6C6C6C5C5C5C4C4C4C3C3C2C2C2C195
:101A1000C1C1C0C0C0BFBFBFBEBEBEBDBDBDBCBCDE
:101A2000BCBBBBBBBABABAB9B9B9B8B8B8B7B7B723
:101A3000B6B6B6B5B5B5B5B4B4B4B3B3B3B2B2B265
:101A4000B1B1B1B0B0B0B0AFAFAFAEAEAEADADADA5
:101A5000ACACACACABABABAAAAAAAAA9A9A9A8A8E2
:101A6000A8A8A7A7A7A6A6A6A6A5A5A5A4A4A4A41A
:101A7000A3A3A3A3A2A2A2A1A1A1A1A0A0A0A09F51
:101A80009F9F9F9E9E9E9E9D9D9D9D9C9C9C9C9B82
:101A90009B9B9B9A9A9A9A999999999898989898B1
:101AA00097979797969696969695959595949494DC
:101AB0009494939393939392929292929191919101
:101AC0009190909090908F8F8F8F8F8E8E8E8E8E24
:101AD0008E8D8D8D8D8D8C8C8C8C8C8C8B8B8B8B43
:101AE0008B8B8A8A8A8A8A8A8A898989898989895B
:101AF0008888888888888887878787878787868671
:101B00008686868686868585858585858585858480
:101B1000848484848484848484838383838383838C
:101B20008383838382828282828282828282828291
:101B30008281818181818181818181818181818194
:101B40008181808080808080808080808080808093
:101B50008080808080808080808080808080808085
:101B60008080808080808080808080808080808075
:101B70008080808080808080808080808080808065
:101B80008080808080808080808080808080808055
:101B90008080808181818181818181818181818138
:101BA0008181818182828282828282828282828219
:101BB00082838383838383838383838384848484F2
:101BC00084848484848485858585858585858586CA
:101BD000868686868686868787878787878788889A
:101BE0008888888888888989898989898A8A8A8A67
:101BF0008A8A8A8B8B8B8B8B8B8C8C8C8C8C8C8D30
:101C00008D8D8D8D8E8E8E8E8E8E8F8F8F8F8F90F1
:101C100090909090919191919192929292929393AF
:101C2000939393949494949495959595969696966B
:101C300096979797979898989898999999999A9A22
:101C40009A9A9B9B9B9B9C9C9C9C9D9D9D9D9E9ED4
:101C50009E9E9F9F9F9FA0A0A0A0A1A1A1A1A2A284
:101C6000A2A3A3A3A3A4A4A4A4A5A5A5A6A6A6A62F
:101C7000A7A7A7A8A8A8A8A9A9A9AAAAAAAAABABD6
:101C8000ABACACACACADADADAEAEAEAFAFAFB0B07B
:101C9000B0B0B1B1B1B2B2B2B3B3B3B4B4B4B5B51C
:101CA000B5B5B6B6B6B7B7B7B8B8B8B9B9B9BABABC
:101CB000BABBBBBBBCBCBCBDBDBDBEBEBEBFBFBF57
:101CC000C0C0C0C1C1C1C2C2C2C3C3C4C4C4C5C5EF
:101CD000C5C6C6C6C7C7C7C8C8C8C9C9C9CACACB86
:101CE000CBCBCCCCCCCDCDCDCECECFCFCFD0D0D01A
:101CF000D1D1D1D2D2D3D3D3D4D4D4D5D5D5D6D6AD
:101D0000D7D7D7D8D8D8D9D9DADADADBDBDBDCDC3D
:101D1000DDDDDDDEDEDEDFDFE0E0E0E1E1E2E2E2CC
:101D2000E3E3E3E4E4E5E5E5E6E6E7E7E7E8E8E85A
:101D3000E9E9EAEAEAEBEBECECECEDEDEDEEEEEFE7
:101D4000EFEFF0F0F1F1F1F2F2F3F3F3F4F4F5F573
:101D5000F5F6F6F6F7F7F8F8F8F9F9FAFAFAFBFB00
:101D6000FCFCFCFDFDFEFEFEFFFF8080808080808D
:101D70008080808080808080808080808080808063
:101D80008080808080808080808080808080808053
:101D90008080808181818181818181818181818136
:101DA0008181818182828282828282828282828217
:101DB00082838383838383838383838384848484F0
:101DC00084848484848485858585858585858586C8
:101DD0008686868686868687878787878787888898
:101DE0008888888888888989898989898A8A8A8A65
:101DF0008A8A8A8B8B8B8B8B8B8C8C8C8C8C8C8D2E
:101E00008D8D8D8D8E8E8E8E8E8E8F8F8F8F8F90EF
:101E100090909090919191919192929292929393AD
:101E20009393939494949494959595959696969669
:101E300096979797979898989898999999999A9A20
:101E40009A9A9B9B9B9B9C9C9C9C9D9D9D9D9E9ED2
:101E50009E9E9F9F9F9FA0A0A0A0A1A1A1A1A2A282
:101E6000A2A3A3A3A3A4A4A4A4A5A5A5A6A6A6A62D
:101E7000A7A7A7A8A8A8A8A9A9A9AAAAAAAAABABD4
:101E8000ABACACACACADADADAEAEAEAFAFAFB0B079
:101E9000B0B0B1B1B1B2B2B2B3B3B3B4B4B4B5B51A
:101EA000B5B5B6B6B6B7B7B7B8B8B8B9B9B9BABABA
:101EB000BABBBBBBBCBCBCBDBDBDBEBEBEBFBFBF55
:101EC000C0C0C0C1C1C1C2C2C2C3C3C4C4C4C5C5ED
:101ED000C5C6C6C6C7C7C7C8C8C8C9C9C9CACACB84
:101EE000CBCBCCCCCCCDCDCDCECECFCFCFD0D0D018
:101EF000D1D1D1D2D2D3D3D3D4D4D4D5D5D5D6D6AB
:101F0000D7D7D7D8D8D8D9D9DADADADBDBDBDCDC3B
:101F1000DDDDDDDEDEDEDFDFE0E0E0E1E1E2E2E2CA
:101F2000E3E3E3E4E4E5E5E5E6E6E7E7E7E8E8E858
:101F3000E9E9EAEAEAEBEBECECECEDEDEDEEEEEFE5
:101F4000EFEFF0F0F1F1F1F2F2F3F3F3F4F4F5F571
:101F5000F5F6F6F6F7F7F8F8F8F9F9FAFAFAFBFBFE
:101F6000FCFCFCFDFDFEFEFEFFFF00000001010188
:101F70000202030303040405050506060707070814
:101F8000080909090A0A0A0B0B0C0C0C0D0D0E0EA0
:101F90000E0F0F101010111112121213131314142C
:101FA000151515161617171718181819191A1A1AB9
:101FB0001B1B1C1C1C1D1D1D1E1E1F1F1F20202047
:101FC00021212222222323242424252525262627D5
:101FD000272728282829292A2A2A2B2B2B2C2C2C66
:101FE0002D2D2E2E2E2F2F2F3030303131323232F8
:101FF000333333343434353536363637373738388B
:10200000383939393A3A3A3B3B3B3C3C3D3D3D3E21
:102010003E3E3F3F3F4040404141414242424343B8
:102020004344444445454546464647474748484853
:102030004949494A4A4A4A4B4B4B4C4C4C4D4D4DF1
:102040004E4E4E4F4F4F4F50505051515152525291
:102050005353535354545455555555565656575734
:102060005757585858595959595A5A5A5B5B5B5BDC
:102070005C5C5C5C5D5D5D5E5E5E5E5F5F5F5F6085
:102080006060606161616162626262636363636434
:1020900064646465656565666666666767676767E5
:1020A00068686868696969696A6A6A6A6A6B6B6B99
:1020B0006B6B6C6C6C6C6C6D6D6D6D6E6E6E6E6E54
:1020C0006E6F6F6F6F6F7070707070717171717112
:1020D00071727272727273737373737374747474D3
:1020E000747475757575757575767676767676769B
:1020F0007777777777777778787878787878797965
:102100007979797979797A7A7A7A7A7A7A7A7A7B34
:102110007B7B7B7B7B7B7B7B7B7C7C7C7C7C7C7C08
:102120007C7C7C7C7D7D7D7D7D7D7D7D7D7D7D7DE3
:102130007D7E7E7E7E7E7E7E7E7E7E7E7E7E7E7EC0
:102140007E7E7F7F7F7F7F7F7F7F7F7F7F7F7F7FA1
:102150007F7F7F7F7F7F7F7F7F7F7F7F7F7F7F7F8F
:102160007F7F7F7F7F7F7F7F7F7F7F7F7F7F7F7F7F
:102170007F7F7F7F7F7F7F7F7F7F7F7F7F7F7F7F6F
:102180007F7F7F7F7F7F7F7F7F7F7F7F7F7F7F7F5F
:102190007F7F7F7F7E7E7E7E7E7E7E7E7E7E7E7E5B
:1021A0007E7E7E7E7D7D7D7D7D7D7D7D7D7D7D7D5B
:1021B0007D7C7C7C7C7C7C7C7C7C7C7C7B7B7B7B62
:1021C0007B7B7B7B7B7B7A7A7A7A7A7A7A7A7A796A
:1021D000797979797979797878787878787877777A
:1021E000777777777777767676767676757575758D
:1021F00075757574747474747473737373737372A4
:102200007272727271717171717170707070706FC1
:102210006F6F6F6F6E6E6E6E6E6D6D6D6D6D6C6CE3
:102220006C6C6C6B6B6B6B6B6A6A6A6A6A69696906
:102230006968686868676767676766666666656530
:10224000656564646464636363636262626261615E
:102250006161606060605F5F5F5F5E5E5E5E5D5D8E
:102260005D5C5C5C5C5B5B5B5B5A5A5A59595959C3
:1022700058585857575757565656555555555454FC
:1022800054535353535252525151515050504F4F37
:102290004F4F4E4E4E4D4D4D4C4C4C4B4B4B4A4A76
:1022A0004A4A4949494848484747474646464545B6
:1022B00045444444434343424242414141404040FB
:1022C0003F3F3F3E3E3E3D3D3D3C3C3C3B3B3A3A42
:1022D0003A3939393838383737373636363535348C
:1022E000343433333332323231313030302F2F2FD8
:1022F0002E2E2E2D2D2C2C2C2B2B2B2A2A2A292925
:102300002828282727272626252525242424232373
:1023100022222222212120201F1F1F1E1E1D1D1DC3
:102320001C1C1C1B1B1A1A1A191918181817171716
:102330001616151515141413131312121211111069
:1023400010100F0F0E0E0E0D0D0C0C0C0B0B0A0ABD
:102350000A09090908080707070606050505040410
:102360000303030202010101000000FFFFFEFEFE65
:10237000FDFDFCFCFCFBFBFAFAFAF9F9F8F8F8F7BA
:10238000F7F6F6F6F5F5F5F4F4F3F3F3F2F2F1F10E
:10239000F1F0F0EFEFEFEEEEEEEDEDECECECEBEB61
:1023A000EAEAEAE9E9E8E8E8E7E7E7E6E6E5E5E5B5
:1023B000E4E4E3E3E3E2E2E2E1E1E0E0E0DFDFDE08
:1023C000DEDEDDDDDDDCDCDBDBDBDADADAD9D9D859
:1023D000D8D8D7D7D7D6D6D5D5D5D4D4D4D3D3D3A8
:1023E000D2D2D1D1D1D0D0D0CFCFCFCECECDCDCDF6
:1023F000CCCCCCCBCBCBCACAC9C9C9C8C8C8C7C743
:10240000C7C6C6C6C5C5C5C4C4C4C3C3C2C2C2C18B
:10241000C1C1C0C0C0BFBFBFBEBEBEBDBDBDBCBCD4
:10242000BCBBBBBBBABABAB9B9B9B8B8B8B7B7B719
:10243000B6B6B6B5B5B5B5B4B4B4B3B3B3B2B2B25B
:10244000B1B1B1B0B0B0B0AFAFAFAEAEAEADADAD9B
:10245000ACACACACABABABAAAAAAAAA9A9A9A8A8D8
:10246000A8A8A7A7A7A6A6A6A6A5A5A5A4A4A4A410
:10247000A3A3A3A3A2A2A2A1A1A1A1A0A0A0A09F47
:102480009F9F9F9E9E9E9E9D9D9D9D9C9C9C9C9B78
:102490009B9B9B9A9A9A9A999999999898989898A7
:1024A00097979797969696969695959595949494D2
:1024B00094949393939393929292929291919191F7
:1024C0009190909090908F8F8F8F8F8E8E8E8E8E1A
:1024D0008E8D8D8D8D8D8C8C8C8C8C8C8B8B8B8B39
:1024E0008B8B8A8A8A8A8A8A8A8989898989898951
:1024F0008888888888888887878787878787868667
:102500008686868686868585858585858585858476
:102510008484848484848484848383838383838382
:102520008383838382828282828282828282828287
:10253000828181818181818181818181818181818A
:102540008181808080808080808080808080808089
:10255000808080808080808080808080808080807B
:102560008080808080808080808001000002000068
:102570000300040005070605040100080A0B0C0D02
:10258000090000000200080E0000030401000B0017
:10259000000000000000000000000000000000003B
:1025A0000408020110408040102040804080080252
:1025B00004018040201002011080102040402004BF
:1025C00004040404030405020202020403020202DA
:1025D00002060606060606040402020204040000BF
:1025E00000002300260029002C002F00000000001E
:1025F000250028002B002E003100000000002400E0
:1026000027002A002D003000080B00020202010002
:102610000904000001020200000524001001052445
:1026200001010104240206052406000107058103B7
:1026300010004009040100020A0000000705020220
:102640004000000705830240000009040400020165
:1026500003000007240100012200062402010100FA
:1026600009240301020103010006240202030009F8
:1026700024030204010101000705050240000005D2
:102680002501010107058602400000052501010220
:1026900009040300000101000009240100010900F0
:1026A000010400C18081C18081120100020200008A
:1026B00040412336800001010200011201000200A6
:1026C0000000404123368000010102000120034147
:1026D0000072006400750069006E006F0020004CFD
:1026E000004C004300200020002000200022034175
:1026F0000072006400750069006E006F0020004CDD
:102700000065006F006E006100720064006F0004DD
:1027100003090400000000000000002A2B2800002C
:1027200000000000000000000000000000000000A9
:102730000000002C9EB4A0A1A2A434A6A7A5AE368A
:102740002D3738271E1F20212223242526B333B6F8
:102750002EB7B89F8485868788898A8B8C8D8E8FCB
:10276000909192939495969798999A9B9C9D2F31CE
:1027700030A3AD350405060708090A0B0C0D0E0F32
:10278000101112131415161718191A1B1C1DAFB1AE
:10279000B0B5000904020001030000000921010195
:1027A00000012265000705840340000105010902BC
:1027B000A1010901A10085010509190129031500DD
:1027C00025019503750181029501750581030501B8
:1027D0000930093109381581257F7508950381066F
:1027E000C0C005010906A1018502050719E029E716
:1027F0001500250175019508810295017508810371
:1028000095067508150025650507190029658100DD
:10281000C000551CF522FD238328342A862B58310D
:1028200011241FBECFEFDAE0DEBFCDBF11E0A0E084
:10283000B1E0E2E8FBE602C005900D92AA38B107CC
:10284000D9F726E0AAE8B1E001C01D92AE3DB2077B
:10285000E1F714E1C0E1D4E104C02197FE010E9438
:102860007C35C930D107C9F70E946F2A0C94BF3557
:102870000C940000DC01ED91FC910190F081E02DC1
:102880000994DC01ED91FC910190F081E02D099417
:10289000CF92DF92EF92FF92CF93DF93CDE1D1E021
:1028A0008881229662E00E94F52681E0C732D8072F
:1028B000B9F762E080E10E94F526C7E2D1E08881A5
:1028C000229661E00E94F52681E0C133D807B9F76E
:1028D0000E94BC2482E297E19093FF018093FE0165
:1028E00089E597E19093FD018093FC0142E15AE76D
:1028F00060E070E08091B1029091B2020E94AC2938
:1029000010922302109222021092210210922A02A7
:102910001092290210922802109227021092B002FF
:1029200010922D0210922C0210922B0210922E0265
:1029300010922F02809120028170826081608093CA
:1029400020028FEF8093B20180EF8093BA018093D1
:10295000C20181E08093CA011092D2018CE090E024
:102960009093AD018093AC014091A5015091A601D7
:102970009A01ACE0B0E00E9482356093AE017093A2
:10298000AF018093B0019093B101E9E1F0E0F093E1
:10299000B501E093B401A9E1B0E00E9482356B017A
:1029A0007C016093B6017093B7018093B801909356
:1029B000B9018DEB9FE19093BD018093BC01ADEB1C
:1029C000BFE10E9482356093BE017093BF01809386
:1029D000C0019093C101F093C501E093C401C0927E
:1029E000C601D092C701E092C801F092C9018FEFF1
:1029F0009FE19093CD018093CC01AFEFBFE10E94A6
:102A000082356093CE017093CF018093D001909373
:102A1000D1018FB7F89440E050E067E370E0409355
:102A2000F6015093F7016093F8017093F9018FBF9D
:102A300080E890E00E94192260E08EE10E94F52675
:102A400060E081E10E94F526E091DA02F0E0EE0F0D
:102A5000FF1FE95DFE4F61E080810E94312788EC15
:102A600080939D0184E680939E0181E491E09093A0
:102A7000A00180939F018FB7F89440E050E064E09C
:102A800070E04093E2015093E3016093E40170939E
:102A9000E5018FBFDF91CF91FF90EF90DF90CF9056
:102AA0000895CF93DF93E3EFF2E0C2E0D1E0AAE034
:102AB000B1E081E021913191299339938D9392E096
:102AC000EB3FF907B9F7DF91CF9108958F929F926D
:102AD000AF92BF92CF92DF92EF92FF92CF93DF93AC
:102AE0002091D1023091D2024091D3025091D40270
:102AF000C090EC01D090ED01E090EE01F090EF017C
:102B00008091E8019091E901A091EA01B091EB0177
:102B10008C0D9D1DAE1DBF1D8093E8019093E901B2
:102B2000A093EA01B093EB01CD019770E091F00121
:102B3000F091F101E80FF91FA4910A2E000CBB0BD4
:102B40000E94A3354B015C018091DD01882349F18E
:102B50002FB7F8948091D9019091DA01A091DB010F
:102B6000B091DC014091D5015091D6016091D7011F
:102B70007091D801840F951FA61FB71F8093D501B0
:102B80009093D601A093D701B093D8012FBF809125
:102B9000D5019091D601A091D701B091D8014A2FCB
:102BA00001C040E08091F6019091F701A091F801F9
:102BB000B091F901C090F201D090F301E090F401DE
:102BC000F090F5018C0D9D1DAE1DBF1D8093F2018F
:102BD0009093F301A093F401B093F50175016401A2
:102BE0002BE0CC0CDD1CEE1CFF1C2A95D1F78C0DC4
:102BF0009D1DAE1DBF1DCD019770E091FA01F091B2
:102C0000FB01E80FF91F5491F0919E018091A10101
:102C10009091A201C091A301D091A401DC01AC1B51
:102C2000BD0B20919F013091A0014C01092E000C99
:102C3000AA08BB08540360011124CD2CDD0CDD086B
:102C4000C594C81AD90A0D2C000CEE08FF080E9482
:102C50009135BB2797FDBA95A92F982F872FA701EC
:102C60009601280F391F4A1F5B1FAF2FB0E00E944B
:102C70009835BB2797FDBA95A92F982F872F880DD8
:102C8000991DAA1DBB1D9093A2018093A101BC01B7
:102C90006C1B7D0BF69FC001F79F900D1124892FAF
:102CA000990F990B8C0F9D1F9093A4018093A30102
:102CB000082E000C990BDF91CF91FF90EF90DF90E1
:102CC000CF90BF90AF909F908F9008950C94A321C8
:102CD00090910303992321F090910403913021F006
:102CE000682F8AE00C9431270895813099F028F0FC
:102CF0008230E9F0833041F108958091EA02811138
:102D000006C08AE695E19093FB018093FA018AE67A
:102D100095E126C08091EA02811106C08AE695E01D
:102D20009093FB018093FA018AE695E019C08091A7
:102D3000EA02811106C08AE69DE09093FB01809330
:102D4000FA018AE69DE00CC08091EA02811106C07A
:102D50008AE693E09093FB018093FA018AE693E080
:102D60009093F1018093F00108950F931F93CF93F7
:102D70008C01CB01BA01CFB7F89420E030E040E0FD
:102D800055E40E94353320E030E040E858E30E94EB
:102D9000353320E030E040E857E40E9435330E94AC
:102DA0004F32F8016483758386839783CFBFCF91B9
:102DB0001F910F910895CF92DF92EF92FF920F93A0
:102DC0001F93CF93DF93EC018B011B821A82FB01CF
:102DD000818192819D838C83C8A8D9A8EAA8FBA889
:102DE0006781862F90E0A0E0B0E0DC01992788277A
:102DF000BC01CD016C197D098E099F0923813481A5
:102E0000458156810E945D352CAB3DAB4EAB5FAB2F
:102E10001FA70EA7DF91CF911F910F91FF90EF9009
:102E2000DF90CF900895FC01228133812F5F3F4FC7
:102E300033832283448155812417350710F00C9485
:102E4000DB160895CF93C62F8091DD029091DE02AC
:102E500001969093DE028093DD0270E080E090E0C6
:102E60000E947E320E940424AB01BC014093D60232
:102E70005093D7026093D8027093D9024093110106
:102E800050931201609313017093140182EF91E04B
:102E90000E94B5166BEA71E085EA91E00E94DB16AC
:102EA00081E08093DD010E946816C093CF02CF912C
:102EB00008958091DD029091DE0201979093DE02E9
:102EC0008093DD028091CF02681309C063EC71E04A
:102ED00085EA91E00E94DB1680E00C946816089564
:102EE000CF93DF9390E0EC01C357DE4F288122237C
:102EF000A1F0019760E170E00E942735FC01E357E3
:102F0000FE4F40E0608181E00E9459174FE76881E1
:102F100081E0DF91CF910C942217DF91CF9108953A
:102F200080918A018F5F80938A010C947017809141
:102F30008B0190918C01019690938C0180938B0171
:102F400020912F01309130012817390730F40E9469
:102F5000901710928C0110928B01089580910403B8
:102F6000811102C00C9497170895DC01D0968D91C1
:102F70009C91D197813F910509F4BCC03CF5803B01
:102F8000910509F45FC07CF480399105E9F1803A3C
:102F9000910509F474C08038910509F0D8C0ED910D
:102FA000FC91119770C0803D910509F478C02CF414
:102FB000803C910509F478C00895803E910509F49C
:102FC00046C0803F910509F47CC008958A3F910571
:102FD00029F174F4833F910509F4A4C00CF48FC067
:102FE000863F910509F4A7C0883F910591F00895A7
:102FF0008C3F9105E9F0BCF08E3F9105F1F08F3FD9
:10300000910509F49DC008951296ED91FC911397D6
:103010003AC05896ED91FC91599796C05A96ED9109
:10302000FC915B9791C05C96ED91FC915D978CC093
:103030005E96ED91FC915F9787C09096ED91FC9123
:10304000919782C01696ED91FC9117971CC01C9623
:10305000ED91FC911D97309709F479C0D3966C914E
:10306000D3976F7720E8629FB0011124D2968C919C
:10307000D2978F77682B70529F968C9109941496F3
:10308000ED91FC911597309709F461C0D3964C915E
:10309000D397D2966C91D2979F968C9109941A9659
:1030A000ED91FC911B9704C01896ED91FC91199736
:1030B000309709F44CC0D2966C91D2979F968C9120
:1030C00009941E96ED91FC911F97309709F43FC02B
:1030D000D3966C91D39770E0762F6627D2968C9119
:1030E000D297682B6138710510F060E870E0CD016F
:1030F000C49609945096ED91FC91519717C0529641
:10310000ED91FC915397309711F1D3968C91D39711
:103110008F7720E8829FC0011124D2962C912F77BF
:10312000822B09945496ED91FC915597309779F044
:10313000D2968C9109945696ED91FC91579704C0C4
:103140009296ED91FC919397309709F00994089528
:103150009C018F7C8038910561F0203D310549F05C
:1031600081E0203E310539F0203C310521F080E03E
:10317000089581E00895089587FF0DC09CE0980FA1
:10318000923048F0982F9B7F993F29F0803F08F4B8
:10319000807F90E0089580E090E008950F931F9362
:1031A000CF93DF938C01EB016D3F710554F46A3FBF
:1031B000710564F4663F710549F0683F710599F443
:1031C00005C0CB018E5F9109029768F4F801EB54BA
:1031D000FF4F80819181DC01ED91FC910190F081A4
:1031E000E02D6C2F0995C63FD10511F4F80116A208
:1031F000DF91CF911F910F910895DF92EF92FF928F
:103200000F931F93CF93DF93EB01122F01500031E7
:1032100018F46038710524F4DC0196961C924AC0BB
:10322000613E7105C4F54F77D42E602BFC0126A1B9
:10323000AC014B545F4F7A01261759F066A3DA01AF
:103240008D919C91DC01ED91FC910190F081E02D3C
:103250000995F70180819181DC01ED91FC9101904C
:10326000F081E02D6D2D0995CF7EC03CD10511F187
:10327000F70180819181DC01ED91FC91612F6F77E5
:103280000190F081E02DDF91CF911F910F91FF9080
:10329000EF90DF9009949B01265F31092A303105B8
:1032A00048F4DF91CF911F910F91FF90EF90DF9045
:1032B0000C94CE18DF91CF911F910F91FF90EF905A
:1032C000DF9008958F929F92AF92BF92DF92EF921C
:1032D000FF920F931F93CF93DF931F92CDB7DEB76B
:1032E000613108F0C6C24C018C010B541F4FD8014C
:1032F0008D919C91DC01ED91FC910480F581E02D94
:103300000995892B09F4B5C2F80180819181DC010E
:10331000ED91FC910680F781E02D09957C01F40187
:1033200025A536A52115310509F0D0C080A7D5A067
:103330008D2D0E94BC180E94A818882379F0E7FC04
:103340000DC0D4019896DC9298979996EC92999733
:1033500081E090E09E969C938E939D97F401F0A45B
:103360008F2D0E94BC18813F910509F463C094F52C
:10337000803B910509F466C06CF48039910509F42D
:1033800061C0803A910509F45DC08038910509F06B
:103390005FC058C0803D910509F44CC02CF4803CBE
:1033A000910509F447C054C0803E910509F44AC014
:1033B000803F910509F04CC020E830E0D4019C9694
:1033C0003C932E939B9795961C92959720EFD496BD
:1033D0002C9345C0883F9105A9F044F4833F9105A3
:1033E00049F184F1863F910569F032C08A3F910529
:1033F0007CF18D3F910534F09C012E5F3109223024
:10340000310530F5D401D1969C938E93D0979F9639
:103410001C929F97D2961C92D297D3961C9281E0D1
:10342000F401EC54FF4F8083F40116A615A614A6F0
:1034300013A61AC122E030E0D4019C963C932E934F
:103440009B970DC023E030E0F40134A723A707C009
:10345000F40116A615A614A613A615A20AC2D40135
:103460009D962D913C919E979B964D915C919C973A
:10347000BA01615071092617370708F4EFC0D196D9
:103480009C938E93D0978F2D8F70FF24F394F80E1A
:103490009F96FC929F9799968C919997D2968C9330
:1034A000D2974330510531F49A968C919A97D396DE
:1034B0008C9302C0F40113AAD4019E961C921E9212
:1034C0009D979C961C921E929B9724C087FF4DC08F
:1034D00099278D3F91055CF48A3F910574F4873FED
:1034E0009105F1F0883F910509F03FC006C0AC019D
:1034F0004E5F510942305105C0F5D401D1969C93DD
:103500008E93D097D2961C92D297D3961C92D39733
:103510009F961C9281E0F401EC54FF4F8083A4C07D
:10352000F40184A9803FB9F5C9010196E20FF31FA8
:1035300047EF44AB20EF30E0D401D1963C932E937B
:10354000D097D2968C93D297D3969C93D3979F96ED
:103550001C9281E0F401EC54FF4F8083F40116A625
:1035600015A614A613A615A27FC0F40180A5E20F2C
:10357000F31F803FE1F4E4AAD4019B96AD90BC9088
:103580009C97C50101972817390708F467C09896DA
:103590002C91203F71F4D4019E961C921E929D970F
:1035A0009C961C921E929B9795961C9262C1E0A6D7
:1035B000E3CF822F29830E94BC187C01F40191ABD8
:1035C00080AB0E94A8182981882339F0822F8F7040
:1035D0008F5FD4019F968C9302C0F40117A6D4018B
:1035E00099968C919997D2968C93B3E0AB16B104CF
:1035F00021F4F40182A583AB03C0D401D3961C92BD
:10360000F40116A615A614A613A681E0EC54FF4FEC
:103610008083F0EBEF16F104D1F06CF4A0E9EA1628
:10362000F104A9F0B0EAEB16F10489F0E0E8EE1637
:10363000F10481F40CC0F0EDEF16F10441F080EEDE
:10364000E816F10421F0A0ECEA16F10419F4F401F3
:1036500025A30AC0D40195961C9206C02F5F3F4F48
:10366000F40136A725A705C1D401D0968D919C9170
:10367000D1978039910531F4D401D3968C91882368
:1036800009F4F9C0F40180A991A9009771F080585C
:1036900091098136910508F0F4C087A197A5981784
:1036A00009F4EFC0882309F4ECC0D12CD40194961E
:1036B0002C919497822F817020FFE9C0922F9E7FDA
:1036C00009F4E5C0D0966D917C91D197AB0140583B
:1036D00051094136510550F59F960C919F97979649
:1036E0009C91091719F081E0911180E0269530E056
:1036F0002230310541F02330310591F02130310580
:1037000009F0C5C00FC0882309F4C1C0D401D39605
:103710002C91D397D2964C91C4010E94FD18B7C04A
:103720008111B5C0F40123A942A9F6CFFB01E05FE6
:10373000F109E031F10508F0AAC0EA5AFF4F0C94F4
:103740007C35C4010E94CE18A2C07401F4E3EF0ED0
:10375000F11C5701D401D3964C91D39750E0542FCC
:103760004427D2968C919A01282B2138310510F0EC
:1037700020E830E0E20EF31EAE14BF0409F476C078
:10378000F80180819181D5016D915D01DC01ED91A0
:10379000FC910190F081E02D0995EECFD401D296F5
:1037A000FC90F80180819181DC01ED91FC91019008
:1037B000F081E02D63EF09956F2D6F7770E0F801D0
:1037C000808191810E944114D40196961C925FC021
:1037D000F401E3A8F0E8EF9E70011124D401D29621
:1037E0008C91E82AF80180819181DC01ED91FC91B6
:1037F0000190F081E02D62EF0995B7016F7777278F
:10380000F801808191810E943A14B701660F672FF9
:10381000661F770B71956F777727D8018D919C91F3
:103820000E943A1423C0D401D2968C918770B0E1E3
:103830008B9FC0011124F40123A92F70F22EF82AC6
:10384000D8018D919C91DC01ED91FC910190F0816A
:10385000E02D61EF0995F80180819181DC01ED9106
:10386000FC910190F081E02D6F2D0995F40116A2D5
:103870000EC0D12C0CC080E890E0F40191AB80AB7D
:1038800001CFC4010E94B517DD24D3940FCF8D2D35
:103890000F90DF91CF911F910F91FF90EF90DF90EC
:1038A000BF90AF909F908F900895ECEFF1E08FEC78
:1038B00095E09093B2028093B1021182108213823C
:1038C0001282158214821782168211861086138640
:1038D00012861586148617861686118A108A138A10
:1038E000128A158A148A178A168A118E108E138EE0
:1038F000128E158E148E178E168E11A210A213A280
:1039000012A28AE69DE19093FB018093FA019093C5
:10391000F1018093F0018AE691E09093E7018093B2
:10392000E601E5EAF1E080E890E091838083168289
:1039300081E0868782E0868B83E0868F84E086A3A1
:1039400015A2089589E796E00E94802A18161906A4
:10395000CCF489E796E00E94912A262F682F492F00
:10396000293051F4992379F01092DC021092DB0295
:10397000872F0E942217E6CF283021F7872F0E9439
:103980005917E0CF089540E0F9CF8F929F92AF9200
:10399000BF92CF92DF92EF92FF920F931F93CF933C
:1039A000DF930E94A21C609123028CEF91E00E94A1
:1039B0006219C5E1D1E013EFC12E12E0D12E0AE069
:1039C00011E082E0E82E81E0F82E888122960E94A4
:1039D0009C23F601819391936F01F80120812223AA
:1039E000A1F0F70120813181409100015091010146
:1039F000B901640F751F681779072CF0241B350B6C
:103A00008217930714F4F80110820F5F1F4FF2E042
:103A1000EF0EF11C81E0CD31D807B9F6CDE1D1E050
:103A200006EE12E0888122960E94612721E0892B10
:103A300009F020E0F80121938F0180E10E946127C5
:103A400021E0892B09F020E02093E002F1E0C73269
:103A5000DF0741F79091E7028091E202992341F15B
:103A6000811129C00E945115E091DA02E150E093E2
:103A7000DA02F0E03196E370FF27EE0FFF1FE95DF9
:103A8000FE4F60E080810E943127E091DA02E3700E
:103A9000E093DA02F0E0EE0FFF1FE95DFE4F61E018
:103AA00080810E9431278091E7028093E20203C067
:103AB00081111092E2029091E9028091E40299232F
:103AC00029F1811126C00E945115E091DA02EF5FC1
:103AD000E093DA02F0E0EE0FFF1FEB5DFE4F60E0D7
:103AE00080810E943127E091DA02E370E093DA02EC
:103AF000F0E0EE0FFF1FE95DFE4F61E080810E9464
:103B000031278091E9028093E40203C08111109271
:103B1000E4029091E0028091DF02992381F081110B
:103B20001AC060E570E084E190E00E94E724809391
:103B3000B3024FE7682F81E00E94221708C0882354
:103B400051F040E06091B30281E00E9459178091EA
:103B5000E0028093DF026091F3027091F4028091A1
:103B6000EB029091EC026817790709F48BC0809101
:103B70000A01811187C08091DA02813099F128F120
:103B8000823009F077C09B012E5E3F4FC901A0E053
:103B9000B0E09C01AD0163E05695479537952795B8
:103BA0006A95D1F73093AD012093AC01A091A501A6
:103BB000B091A6010E9498356093AE017093AF0159
:103BC0008093B0019093B10155C0CB01770FAA0B40
:103BD000BB0B8093D1029093D202A093D302B093F7
:103BE000D40248C080E094E0861B970BE5E0880F84
:103BF000991FEA95E1F7092E000CAA0BBB0B8093E5
:103C0000B8029093B902A093BA02B093BB02072EF8
:103C1000000C880B990B0E9480326093C70270934E
:103C2000C8028093C9029093CA02CFB7F89420E0EB
:103C300030E048E452E40E94D63120E030E040E039
:103C400054E40E94353320E030E040E05CE30E9421
:103C5000353320E030E040E857E40E9435330E94DD
:103C60004F326093E2017093E3018093E4019093FB
:103C7000E501CFBF8091F3029091F4029093EC02A2
:103C80008093EB02C091F502D091F6028091ED0293
:103C90009091EE02C817D90709F47BC080910B01FF
:103CA000811177C08091E602882341F0CE0195957D
:103CB00087959595879580939D0167C08091DA02DD
:103CC0008130D9F110F1823009F05FC0CE01A0E05F
:103CD000B0E09C01AD0113E05695479537952795C7
:103CE0001A95D1F73093B5012093B401A091A501A5
:103CF000B091A6010E9498356093B6017093B70108
:103D00008093B8019093B90140C0CE0195958795F5
:103D10009595879580930E0180939E0120919D013A
:103D20008095829FC0011124892F9927820F911DB0
:103D30009093A00180939F0128C0BE010D2E000C1E
:103D4000880B990B0E9480326093C7027093C8025F
:103D50008093C9029093CA0220E030E04AE754E41D
:103D60000E94D6316093CB027093CC028093CD0237
:103D70009093CE0211E020E030E0A9010E94D13101
:103D8000811101C010E01093C602D093EE02C093DF
:103D9000ED02C091F702D091F8028091EF0290916C
:103DA000F002C817D90709F473C080910C01811182
:103DB0006FC08091E802882309F44EC0D093DC02E2
:103DC000C093DB02BE010D2E000C880B990B0E94E4
:103DD000803220E030E040E054E40E9464316B0126
:103DE0007C0120E030E048EC52EC0E9430331816A1
:103DF0009CF420E030E048EC52E4C701B6010E9498
:103E0000D13187FF09C01092C1021092C2021092F4
:103E1000C3021092C40238C020E030E048EC52ECFB
:103E2000C701B6010E94D13120E030E048EC52E4F5
:103E300018162CF0C701B6010E94653104C0C701F5
:103E4000B6010E9464316093C1027093C2028093F4
:103E5000C3029093C40218C08091DA02813091F0BD
:103E600038F0823089F4C093C201C093BA010CC00B
:103E7000CE01880F892F881F990B90931001809392
:103E80000F0102C0D093C502D093F002C093EF029D
:103E90002091F9023091FA028091F1029091F202A0
:103EA0002817390709F449C080910D01811145C0D7
:103EB0008091DA02813089F108F18230B1F5C901CF
:103EC000A0E0B0E09C01AD01F3E056954795379531
:103ED0002795FA95D1F73093C5012093C401A0919D
:103EE000A501B091A6010E9498356093C601709318
:103EF000C7018093C8019093C90117C0232F330FC6
:103F0000330B8091D00290E02817390771F020938D
:103F1000D002822F0E94751608C0211532401CF471
:103F20001092C00202C08093C0028091F902909169
:103F3000FA029093F2028093F102E091D301F091A2
:103F4000D4018081823091F038F4882361F081308F
:103F5000B1F46BEB71E00FC0833059F0843079F429
:103F60001092DD010CC063EB71E005C063EC71E001
:103F700002C06BEC71E085EA91E00E94131780911A
:103F8000C602882309F490C18091C002811128C023
:103F90004091E2015091E3016091E4017091E501EB
:103FA0008091DE019091DF01A091E001B091E101EB
:103FB000840F951FA61FB71F8093DE019093DF012A
:103FC000A093E001B093E101CD019170E091E60191
:103FD000F091E701E80FF91FE491E093D502AEC03C
:103FE0000E94EC220091BC021091BD022091BE0201
:103FF0003091BF02AB01BC01401B510B620B730B34
:104000008091B8029091B902A091BA02B091BB021E
:10401000E3E0880F991FAA1FBB1FEA95D1F7841709
:104020009507A607B707E8F464EF70E080E090E03A
:104030000E94E724A0E0B0E0DC0199278827809364
:10404000B4029093B502A093B602B093B7020E9457
:10405000EC226093BC027093BD028093BE029093E9
:10406000BF028090FB029090FC02A090FD02B090F5
:10407000FE026091B4027091B5028091B6029091F7
:10408000B7020E947E326B017C01C501B4010E941F
:104090007E329B01AC01C701B6010E9464316B0105
:1040A0007C012091F9023091FA02359527953595DA
:1040B000279580E091E0821B930BBC01990F880B40
:1040C000990B0E947E329B01AC01C701B6010E9490
:1040D000D6310E9448326093FF02709300038093B0
:1040E0000103909302032FB7F8944091FB02509183
:1040F000FC026091FD027091FE028091FF0290919E
:104100000003A0910103B0910203840F951FA61F25
:10411000B71F8093FB029093FC02A093FD02B09323
:10412000FE022FBF8091FB029091FC02A091FD0244
:10413000B091FE0280E88A0F8093D5028091C5027B
:1041400081112CC06091D502062E000C770B880BD4
:10415000990B0E9480322091CB023091CC02409189
:10416000CD025091CE020E9435332091D60230917B
:10417000D7024091D8025091D9020E946531AB011B
:10418000BC0140931101509312016093130170938D
:10419000140182EF91E00E94B51610C08091D60202
:1041A0009091D702A091D802B091D90280931101C9
:1041B00090931201A0931301B09314018091C50252
:1041C000813009F04AC060910E0170E080E090E01B
:1041D0000E9480326B017C018091D502682F880F8C
:1041E000770B880B990B0E9480324B015C0120E019
:1041F00030E04CEF52E46091CB027091CC028091A0
:10420000CD029091CE020E9435339B01AC01C501D5
:10421000B4010E9465319B01AC01C701B6010E9447
:1042200065310E9448326F3F710514F06EEF70E007
:1042300077FF02C060E070E060939E0180919D0175
:104240006095689FB0011124672F7727680F711D53
:104250007093A00160939F0127C0823029F560917F
:10426000D502062E000C770B60587F4F072E000CEE
:10427000880B990B0E9480322091CB023091CC02A6
:104280004091CD025091CE020E9435330E944832B7
:104290006093D1027093D2028093D3029093D402A0
:1042A0001092DC021092DB0260910F0170911001FC
:1042B000072E000C880B990B0E948032209111016F
:1042C0003091120140911301509114010E94353335
:1042D0000E9448322FB7F894CB01770FAA0BBB0B83
:1042E0003DE0880F991FAA1FBB1F3A95D1F7809315
:1042F000EC019093ED01A093EE01B093EF012FBF7D
:1043000080910303882371F0DF91CF911F910F916A
:10431000FF90EF90DF90CF90BF90AF909F908F90E5
:104320000C94AE17DF91CF911F910F91FF90EF90FA
:10433000DF90CF90BF90AF909F908F9008950E9494
:10434000C51C0C9492239091170580911605981323
:1043500006C0909119058091180598131AC00E9403
:10436000661520911705E22FF0E0EE0FFF1FEA5EC1
:10437000FC4F8C509F4F918380832F5F20931705B4
:10438000211107C09091190581E0892780931905B3
:10439000089508951F920F920FB60F9211242F9334
:1043A0003F938F939F93AF93BF93EF93FF9381E0DE
:1043B00090910503911180E080930503882361F1BA
:1043C00080911605E82FF0E0EE0FFF1FEA5EFC4F2C
:1043D000208131818F5F80931605811119C09091E2
:1043E000180581E089278093180580911A0590911E
:1043F0001B05A0911C05B0911D050196A11DB11DC5
:1044000080931A0590931B05A0931C05B0931D057E
:104410003093890020938800FF91EF91BF91AF9175
:104420009F918F913F912F910F900FBE0F901F90F2
:1044300018959F92AF92BF92CF92DF92EF92FF9228
:104440000F931F93CF93DF93EC0180E00E943F23F3
:1044500084B58093150385B58093140387B5809345
:1044600013030EE610E0F8018081809312039E0191
:1044700040E050E060E472E48FE090E00E945D353F
:10448000DA01C90140E06FE971E20E94F8250E945B
:104490004F2684B580930D0385B580930C0387B5B3
:1044A00080930B03F801808180930A0300E810E0F9
:1044B000F801808180931103C1E8D0E08881809366
:1044C000100388E8A82EB12CF5018081918180939A
:1044D0000F039FE6C92ED12CF601808180930E0335
:1044E00061E089E00E94F52623E7E22E25E0F22E26
:1044F000F701128298E1938382E084839883F80124
:10450000808388EE91E0A0E0B0E0992493949092AB
:104510007005909372058093710590938700809346
:10452000860089E1888361E089E00E94F526F80130
:104530009081F7018481892B8068F8018083209124
:10454000710530917205A4EFB0E00E948235DC0164
:10455000CB013AE0B695A795979587953A95D1F70F
:10456000F5019183808390917005F7018381892BF8
:104570008883F6019082F801808180930903888105
:1045800080930803F5018081918180930703F601F0
:10459000808180930603DF91CF911F910F91FF904F
:1045A000EF90DF90CF90BF90AF909F9008952091B3
:1045B000160580911A0590911B05A0911C05B091DC
:1045C0001D05BA2FA92F982F8827BC01CD01620F96
:1045D000711D811D911D08950E94D7229B01AC0180
:1045E000ADE3B0E00E949835089510921605109240
:1045F000170510921805109219050895811109C028
:1046000080917A00846080937A0080917A008D7F17
:104610001AC0813071F480917A008B7F80937A0088
:1046200080917A00826080937A0080917A00816024
:104630000FC0823079F480917A008B7F80937A006A
:1046400080917A00826080937A0080917A008E7FD8
:1046500080937A00089580E090E061E070E04091FE
:104660007E009B01082E01C0220F0A94EAF7242B3A
:1046700020937E0001968C30910589F70895EAE732
:10468000F0E09081986090830E94FE220C942B238E
:10469000823108F08251E82FF0E0EB58FA4D849116
:1046A0000895EBE7F0E0908183FB222720F930E0CA
:1046B00045E0220F331F4A95E1F79F7D292B208388
:1046C0008770806480937C00EAE7F0E080818064FA
:1046D00080830895CF93DF931F92CDB7DEB780918B
:1046E0002A0590912B058F3F2FEF920761F0FC0177
:1046F000E25EFA4F20812983019790932B058093E6
:104700002A05898101C08FEF8093320180913201A7
:104710008F3F21F0809132010E9451230F90DF9151
:10472000CF910895809132018F3F29F40E946A232E
:1047300081E08093310108950E94482320912A0549
:1047400030912B052B30310554F42F5F3F4F3093C0
:104750002B0520932A05F901E25EFA4F8083E82FAA
:10476000F0E0EE0FFF1FE45DFA4F80819181089524
:10477000EAE7F0E08081806480830895E09132016F
:104780008091780090917900EE0FFF0BE45DFA4F75
:104790009183808308951F920F920FB60F92112478
:1047A0002F933F934F935F936F937F938F939F9339
:1047B000AF93BF93EF93FF9380913101882329F04A
:1047C0000E94B8231092310107C00E94BE230E94AC
:1047D0006A2381E080933101FF91EF91BF91AF9106
:1047E0009F918F917F916F915F914F913F912F9109
:1047F0000F900FBE0F901F9018958FEF9FEF909323
:104800002B0580932A050895CF92DF92EF92FF92B5
:104810006B017C0120E030E0A9010E94D1318823A6
:10482000B9F020E030E040E451E4C701B6010E9455
:10483000D6319B01AC0160E070E080E090E40E9422
:10484000A23323E130ED42E051E40E94353303C04E
:1048500060E070E0CB01FF90EF90DF90CF90089583
:10486000CF92DF92EF92FF92CF93DF93C0E0D0E040
:10487000C12CD12C760188E00E948B268D569B4F4F
:1048800081709927092E000CAA0BBB0B0C2E04C0BB
:10489000880F991FAA1FBB1F0A94D2F7C82AD92ACA
:1048A000EA2AFB2A2196C032D10529F7C701B601B1
:1048B000DF91CF91FF90EF90DF90CF9008950F930D
:1048C0001F9380913B0190913C01A0913D01B091DB
:1048D0003E01BC015527442784279527A627B727E3
:1048E000AC01BD0135E076956795579547953A95AA
:1048F000D1F784279527A627B727409137015091F4
:1049000038016091390170913A0140933B01509315
:104910003C0160933D0170933E0100913301109181
:104920003401209135013091360100933701109305
:1049300038012093390130933A01402751276227EB
:104940007327482759276A277B27880F991FAA1F93
:10495000BB1F8A019B01082719272A273B27C9016A
:10496000B801009333011093340120933501309343
:1049700036011F910F910895CF93DF93CAE7D0E0DE
:104980008881877F88830E94302460933B017093E5
:104990003C0180933D0190933E010E94302460933E
:1049A0003701709338018093390190933A010E9446
:1049B00030246093330170933401809335019093D8
:1049C0003601888188608883DF91CF9108950F93A5
:1049D0001F93CF93DF938C01EB010E945F249B0117
:1049E000AC0144275527DE01A01BB10B0E94A33563
:1049F000800F911FDF91CF911F910F91089582E059
:104A000080936F058FEF80934A0510924C0580913B
:104A10004405815080934B0580914505880F816046
:104A200080936D0585EE8093BC00089584E08093AB
:104A30006F058FEF80934A0510924C0580914605D3
:104A400080934B05A0914705B09148052DE435E0D2
:104A5000F9019E2F921B981718F49D919193F9CF0D
:104A60008091490590E0880F991F80936D0585EE30
:104A70008093BC00089585ED8093BC008091BC00BC
:104A800084FDFCCF80916F0580936E0510926F05B9
:104A900080916E05833011F40C94162580916E057B
:104AA000813011F40C94FF24089585EC8093BC00B0
:104AB00080916F0580936E0510926F0580916E0551
:104AC000833011F40C94162580916E05813011F419
:104AD0000C94FF2408951F920F920FB60F92112489
:104AE0002F933F934F935F936F937F938F939F93F6
:104AF000AF93BF93EF93FF938091B900887F883283
:104B000039F170F4803109F130F4882309F45BC085
:104B10008830D9F05CC08831D9F0803261F157C05B
:104B20008034C1F150F4803331F1883309F04FC043
:104B300080934A050E9455254AC08035F9F0883592
:104B4000A9F1883409F043C040C080916D0510C0C0
:104B500090914C0580914B059817B8F5E0914C0564
:104B600081E08E0F80934C05F0E0E35BFA4F80818B
:104B70008093BB0015C080934A0527C0E0914C0587
:104B800081E08E0F80934C058091BB00F0E0E35BE9
:104B9000FA4F808390914C0580914B05981710F443
:104BA00085EC01C085E88093BC0011C0E0914C0504
:104BB00081E08E0F80934C058091BB00F0E0E35BB9
:104BC000FA4F808302C010924A050E943B25FF9154
:104BD000EF91BF91AF919F918F917F916F915F9175
:104BE0004F913F912F910F900FBE0F901F901895EE
:104BF000CF92DF92EF92FF9270937B0560937A05DC
:104C000040937C05A0E0B0E034E0880F991FAA1F14
:104C1000BB1F3A95D1F720E030E0F901E659FA4D93
:104C2000E491EE2381F06C017D01022E04C0F69424
:104C3000E794D794C7940A94D2F751E0C516D506E5
:104C4000E104F10438F02F5F3F4F2B30310529F795
:104C500080E020C0A1E0B0E002C0AA0FBB1F2A95EF
:104C6000E2F7A70196010E94A335DC01CB0124E005
:104C7000B595A795979587952A95D1F7909379053E
:104C80008093780510926E0082E084BDE5BDCA94E1
:104C9000C7BC81E0FF90EF90DF90CF900895EEE6E3
:104CA000F0E0808182608083089578941F920F9253
:104CB0000FB60F9211242F933F934F935F936F93EF
:104CC0007F938F939F93AF93BF93EF93FF93109234
:104CD0006E00E0917A05F0917B050995F89480913A
:104CE0007C05882311F016BCA99A80916E00826021
:104CF00080936E00FF91EF91BF91AF919F918F9143
:104D00007F916F915F914F913F912F910F900FBEC7
:104D10000F901F901895823108F08251E82FF0E033
:104D2000EB58FA4DE49180917B00E3FB222720F9B8
:104D300030E095E0220F331F9A95E1F78F7D282B05
:104D400020937B00E77080913F0120E4829FC001A7
:104D50001124E82BE0937C0080917A00806480939A
:104D60007A0080917A0086FDFCCF809178002091B6
:104D7000790090E0922B089590E0FC013197EE309D
:104D8000F10590F5EA59FF4F0C947C358091800035
:104D90008F7703C0809180008F7D8093800008957D
:104DA00084B58F7702C084B58F7D84BD08958091CE
:104DB00090008F7707C0809190008F7D03C0809115
:104DC0009000877F8093900008958091C0008F7736
:104DD00003C08091C0008F7D8093C00008958091B2
:104DE000C200877F8093C2000895CF93DF9390E045
:104DF000FC01E056FA4D2491FC01E154FA4D8491F6
:104E0000882361F190E0880F991FFC01E650FA4D6C
:104E1000C591D491FC01E451FA4DA591B491611171
:104E200009C09FB7F8948881209582238883EC91EC
:104E30002E230BC0623061F49FB7F8943881822F23
:104E4000809583238883EC912E2B2C939FBF06C0E3
:104E50008FB7F894E8812E2B28838FBFDF91CF91F5
:104E600008951F93CF93DF93282F30E0F901EF5778
:104E7000FA4D8491F901E056FA4DD491F901E154CB
:104E8000FA4DC491CC23C9F0162F81110E94BC2683
:104E9000EC2FF0E0EE0FFF1FE451FA4DA591B49115
:104EA0008FB7F894111105C09C91ED2FE095E9237F
:104EB00002C0EC91ED2BEC938FBFDF91CF911F914E
:104EC0000895CF93DF93282F30E0F901EF57FA4D83
:104ED0008491F901E056FA4DD491F901E154FA4D6B
:104EE000C491CC2391F081110E94BC26EC2FF0E0FC
:104EF000EE0FFF1FE252FA4DA591B491EC91ED2314
:104F000081E090E021F480E002C080E090E0DF9159
:104F1000CF9108958091CB059091CC052091CD053E
:104F20003091CE05821B930B8F73992708952091A2
:104F3000CB053091CC058091CD059091CE052817F9
:104F4000390749F0E091CD05F091CE05E557FA4FCC
:104F5000808190E008958FEF9FEF08952091CB0519
:104F60003091CC058091CD059091CE052817390759
:104F7000A9F0E091CD05F091CE05E557FA4F80817B
:104F80002091CD053091CE052F5F3F4F2F733327F2
:104F90003093CE052093CD0590E008958FEF9FEFDD
:104FA0000895CF93DF93C091CB05D091CC05219686
:104FB000CF73DD278091CD059091CE05C817D90715
:104FC00099F082E00E94202C8F3F2FEF920761F032
:104FD000E091CB05F091CC05E557FA4F8083D09353
:104FE000CC05C093CB05DFCFDF91CF91089583E04F
:104FF0000C94AB2E0F931F93CF93DF931F92CDB7DB
:10500000DEB78C01698380914701882359F041E024
:1050100050E0BE016F5F7F4F83E00E94642C181642
:1050200019063CF081E090E0F8019383828380E0F0
:1050300090E00F90DF91CF911F910F910895FC01A7
:1050400090819E5F908342E450E068E076E280E8E1
:105050000C94FC2CFC0181819081913A59F48132AD
:1050600009F04DC047E050E060E471E080E00E944C
:10507000FC2C47C0913209F042C0803239F467E01D
:1050800070E080E491E00E94432D3BC0823209F041
:1050900036C0828180934701809140019091410107
:1050A000A0914201B0914301803B9440A105B1051C
:1050B00041F58091470180FD11C087E797E7909304
:1050C0000108809300089BE088E10FB6F894A8954A
:1050D000809360000FBE9093600013C00FB6F894E9
:1050E000A8958091600088618093600010926000B4
:1050F0000FBEA895109201081092000802C080E02F
:10510000089581E00895EDE7F5E01382128288EEBC
:1051100093E0A0E0B0E084839583A683B7838EE418
:1051200091E0918380830895FC0124853585F90100
:10513000E05CFF4F80819181329620813181821B1A
:10514000930B8F7399270895DC011C96ED91FC91C8
:105150001D97DF01A05CBF4F2D913C9111971296D6
:105160008D919C9111972817390739F08D919C9159
:10517000E80FF91F808190E008958FEF9FEF089569
:10518000FC01A485B585FD01E05CFF4F20813181E4
:105190003296808191812817390779F08081918139
:1051A000A80FB91F8C91208131812F5F3F4F2F7342
:1051B00033273183208390E008958FEF9FEF089588
:1051C000FC0181A1882329F0A489B5898C9186FFEF
:1051D000FBCF11A208950F931F93CF93DF93FC0190
:1051E000A685B7858D01005C1F4FE80188819981F4
:1051F00001968F739927AD014E5B5F4FEA012881BD
:10520000398182179307D1F3E80128813981A20FF0
:10521000B31F6C93A685B785A05CBF4F11969C9376
:105220008E93A689B7892C9181E090E0078C02C00B
:10523000880F991F0A94E2F7822B8C9381E081A357
:105240000488F589E02D80818064808381E090E08E
:10525000DF91CF911F910F91089508951F920F92A2
:105260000FB60F9211242F934F935F938F939F93B9
:10527000EF93FF938091C80082FD1CC02091CE0067
:10528000809175069091760601968F7399274091CB
:105290007706509178068417950771F0E0917506AE
:1052A000F0917606EB5CF94F20839093760680931D
:1052B000750602C08091CE00FF91EF919F918F9172
:1052C0005F914F912F910F900FBE0F901F901895E7
:1052D0008FEC95E00E949428892B11F00C942D29D5
:1052E00008951F920F920FB60F9211242F933F93A0
:1052F0008F939F93EF93FF93209131063091320665
:1053000080913306909134062817390731F4809143
:10531000C9008F7D8093C90014C0E0913306F091DD
:105320003406EF50FA4F2081809133069091340675
:1053300001968F73992790933406809333062093B8
:10534000CE00FF91EF919F918F913F912F910F9000
:105350000FBE0F901F901895CF92DF92EF92FF92A1
:105360000F931F93CF93DF93EC016A017B014115EB
:10537000514E6105710509F1EC89FD8981E090E0EC
:1053800008A002C0880F991F0A94E2F7808360E0AA
:1053900079E08DE390E0A70196010E943B358901F9
:1053A0009A01015011092109310936952795179560
:1053B0000795980101151041A8F0EC89FD8910822C
:1053C00060E874E88EE190E0A70196010E943B3509
:1053D000DA01C9010197A109B109B695A795979579
:1053E00087959C01E889F9893083EA89FB892083C4
:1053F00019A2EE89FF89408181E090E09C010C8C2C
:1054000002C0220F331F0A94E2F7242B2083EE8977
:10541000FF8940819C010D8C02C0220F331F0A942A
:10542000E2F7242B2083EE89FF8940819C010E8CBA
:1054300002C0220F331F0A94E2F7242B2083EE8947
:10544000FF8920810F8C02C0880F991F0A94E2F710
:10545000809582238083DF91CF911F910F91FF90E0
:10546000EF90DF90CF900895EFECF5E01382128279
:1054700088EE93E0A0E0B0E084839583A683B783B1
:1054800080E691E09183808385E396E09587848729
:1054900081EF95E0978786878DEC90E0918B808BEC
:1054A0008CEC90E0938B828B88EC90E0958B848BD6
:1054B00089EC90E0978B868B8AEC90E0918F808FBF
:1054C0008EEC90E0938F828F84E0848F83E0858FD1
:1054D00087E0868F85E0878F81E080A308950E9412
:1054E000D52F8FEB96E00E94B52E0E944814C8E697
:1054F000D9E20E9466162097E1F30E946829F9CF4D
:10550000FC01EE5BFF4F80819181329620813181D9
:10551000821B930B8F739927969587959695879500
:105520000895CF93DF93EC01E881F9810480F58140
:10553000E02D0995CC5BDF4F288139812C5F3F4FEF
:105540002F73332739832883DF91CF910895CF922A
:10555000DF92EF92FF920F931F93CF93DF937C0123
:105560008C010E5B1F4FD801CD91DC912196CF733A
:10557000DD276C01B4E4CB0ED11CF6018081918152
:10558000C817D907B9F085E00E94202C8F3FEFEFB4
:105590009E0781F0D801ED91FC911197EE0DFF1D52
:1055A00082831196DC93CE93CD91DC912196CF73BB
:1055B000DD27E3CFDF91CF911F910F91FF90EF9007
:1055C000DF90CF90089586E00C94AB2ECF93DF93BD
:1055D00000D000D0CDB7DEB749835A836B837C837C
:1055E00086E00E94512C811103C080E090E00BC046
:1055F00044E050E0BE016F5F7F4F86E00E94642C64
:105600001816190694F70F900F900F900F90DF91D6
:10561000CF91089587E797E790930108809300085A
:105620009BE088E10FB6F894A895809360000FBEC8
:10563000909360000895FF920F931F93CF93DF9391
:10564000EC01E881F9810190F081E02D09951816AF
:1056500019062CF060E070E080E090E039C0FE01B7
:10566000EC5BFF4FA081B181AC0FBD1F1296FC9087
:1056700080819181019620E430E0B9010E942735B4
:10568000DE01A80FB91F12960C91808191810296BC
:10569000B9010E942735DE01A80FB91F12961C918F
:1056A000808191810396B9010E942735C80FD91FC7
:1056B000CA8187E0F81208C0003F31F4C73F21F4E7
:1056C000113011F40E940A2B6F2D702F812F9C2F07
:1056D000DF91CF911F910F91FF900895FC01908170
:1056E0009F5F908342E150E060E976E280E80C94AD
:1056F000FC2CFC0190819F5F908346E450E06AE4BB
:1057000076E280E80C94FC2C80E0089580E791E03C
:1057100090937A06809379060895CF92DF92EF9264
:10572000FF920F931F93CF93DF936C01EB017B01EB
:10573000E40EF51E00E010E0CE15DF0561F0699182
:10574000D601ED91FC910190F081E02DC601099503
:10575000080F191FF1CFC801DF91CF911F910F9151
:10576000FF90EF90DF90CF900895615030F020913E
:10577000F100FC0120830196F8CF289884E68093FD
:10578000C60608952FB7FC012083F89467706093D4
:10579000E9000895CF93DF931F92CDB7DEB7682F4E
:1057A000CE0101960E94C22B8091F20099819FBF89
:1057B0000F90DF91CF910895EF92FF920F931F9377
:1057C000CF93DF931F92CDB7DEB79091C506992393
:1057D00011F057FF03C08FEF9FEF2AC08A017B01B2
:1057E000682FCE0101960E94C22B8091F20090E0BA
:1057F000A801801791070CF4AC01842FF70194E6FF
:10580000815038F028989093C6062091F10021939A
:10581000F7CF4115510521F08091F200882321F046
:1058200089818FBFCA0104C08BE68093E800F8CF5E
:105830000F90DF91CF911F910F91FF90EF900895FE
:10584000CF93DF931F92CDB7DEB741E050E0BE01AA
:105850006F5F7F4F0E94DC2B019719F4898190E0E4
:1058600002C08FEF9FEF0F90DF91CF910895CF93FC
:10587000DF931F92CDB7DEB7682FCE0101960E944D
:10588000C22B9091E800892F807295FF04C09091FF
:10589000F20080E4891B99819FBF0F90DF91CF9127
:1058A0000895CF93DF931F92CDB7DEB7682FCE0157
:1058B00001960E94C22B8091E80099819FBF80725F
:1058C0000F90DF91CF9108954F925F926F927F92E8
:1058D0008F929F92AF92BF92CF92DF92EF92FF9200
:1058E0000F931F93CF93DF931F92CDB7DEB7A82EF0
:1058F0006B01B42E052F8091C506882369F0E42E34
:10590000F52E8AEF782E8A2D8072582E9AE3692E12
:105910008A2D8074482E12C08FEF9FEF50C08A2DC1
:105920000E94372C182F81110DC07A947720A1F393
:1059300061E070E080E090E00E94AD2FE114F1049E
:1059400071F733C090E0E816F9060CF41E2D812E95
:10595000912CE818F9086A2DCE0101960E94C22BFD
:10596000552029F01150A8F01092F100FBCFF6015C
:10597000A7FE07C0115058F084918093F100319632
:10598000F9CF115020F081918093F100FACFC80C2B
:10599000D91C8091E80085FF0FC0E114F10411F4D7
:1059A00041100AC089818FBFC9CF5D9884E680937A
:1059B000C7068B2D902F03C06092E800F3CF0F90A5
:1059C000DF91CF911F910F91FF90EF90DF90CF90DB
:1059D000BF90AF909F908F907F906F905F904F900F
:1059E00008951092E9001092C4061092C306909395
:1059F000C2068093C10608950F931F93CF93DF9340
:105A0000DB01A40FB51FFB016EEFEA17FB0791F155
:105A100087FF02C0249101C020810091C30610912C
:105A2000C406C091C106D091C2060C171D07B4F47C
:105A30009091E8009570E1F39091E80092FD1CC010
:105A40002093F1002091C3063091C4062F5F3F4F91
:105A50002F733327232B11F46093E8002091C306A2
:105A60003091C4062F5F3F4F3093C4062093C30686
:105A70003196CBCFCA0102C08FEF9FEFDF91CF915C
:105A80001F910F9108951F93CF93DF931F92CDB76E
:105A9000DEB7162F2091E80022FFFCCF612F79831B
:105AA0000E94B52B8BEF8093E800812F7981972F8F
:105AB0000F90DF91CF911F910895CF93DF931F92A5
:105AC000CDB7DEB71982CE0101960E941F28CE0104
:105AD00001960E944930CE0101960E946E2BCE01A4
