:100000000C9410140C9438140C9438140C94381468
:100010000C9438140C9438140C9438140C94381430
:100020000C9438140C9438140C94882F0C942E2EA5
:100030000C9438140C9438140C9438140C94381410
:100040000C9438140C9438140C9438140C94381400
:100050000C945F210C94EA250C9438140C94F32F23
:100060000C9438140C94C4280C9407290C9438145C
:100070000C9438140C9460230C9438140C94381499
:100080000C9438140C9438140C9438140C943814C0
:100090000C9400250C9438140C9438140C943814D7
:1000A0000C9438140C9438140C9438144B1BB91B52
:1000B0008E1B741BED1BED1B471BED1B471BED1B24
:1000C000471B471B471BED1B471B471B6526682625
:1000D0005B265F268926892689266C26702674264B
:1000E0007A267E268926842607634236B79BD8A7C0
:1000F0001A39685618AEBAAB558C1D3CB7CC57634D
:10010000BD6DEDFD753EF6177231BF000000803FFA
:1001100008000000BE922449123EABAAAA2ABECD16
:10012000CCCC4C3E00000080BEABAAAAAA3E000088
:100130000000BF000000803F000000000008417880
:10014000D3BB4387D1133D190E3CC3BD4282AD2BB7
:100150003E68EC8276BED98FE1A93E4C80EFFFBEAF
:1001600001C4FF7F3F0000000000000102040507FA
:1001700008090B0C0E0F101213151617191A1B1D58
:100180001E20212224252628292A2C2D2E2F3132EB
:1001900033353637383A3B3C3D3E40414243444597
:1001A0004647494A4B4C4D4E4F5051525354555669
:1001B000575859595A5B5C5D5E5E5F60616262636D
:1001C000646465666667686869696A6A6B6B6C6CAB
:1001D0006D6D6E6E6F6F6F70707070717171717226
:1001E00072727272727273737373737373737372E6
:1001F00072727272727271717171707070706F6FF1
:100200006F6E6E6D6D6C6C6B6B6A6A69696868673E
:10021000666665646463626261605F5E5E5D5C5BCE
:100220005A59595857565554535251504F4E4D4C98
:100230004B4A4947464544434241403E3D3C3B3A98
:10024000383736353332312F2E2D2C2A29282625C2
:10025000242221201E1D1C1A191716151312100F07
:100260000E0C0B0908070504020100FEFDFBFAF85D
:10027000F7F6F4F3F1F0EFEDECEAE9E8E6E5E4E2B5
:10028000E1DFDEDDDBDAD9D7D6D5D3D2D1D0CECD02
:10029000CCCAC9C8C7C5C4C3C2C1BFBEBDBCBBBA36
:1002A000B9B8B6B5B4B3B2B1B0AFAEADACABAAA944
:1002B000A8A7A6A6A5A4A3A2A1A1A09F9E9D9D9C20
:1002C0009B9B9A99999897979696959594949393C2
:1002D000929291919090908F8F8F8F8E8E8E8E8D27
:1002E0008D8D8D8D8D8D8C8C8C8C8C8C8C8C8C8C48
:1002F0008D8D8D8D8D8D8E8E8E8E8F8F8F8F90901C
:1003000090919192929393949495959696979798AD
:1003100099999A9B9B9C9D9D9E9FA0A1A1A2A3A4FD
:10032000A5A6A6A7A8A9AAABACADAEAFB0B1B2B313
:10033000B4B5B6B8B9BABBBCBDBEC0C1C2C3C4C5F2
:10034000C7C8C9CACCCDCED0D1D2D3D5D6D7D9DAA9
:10035000DBDDDEDFE1E2E4E5E6E8E9EAECEDEFF043
:10036000F1F3F4F6F7F8FAFBFDFE174466777870C0
:10037000655E5E63696D6D6A65626265686B6B6917
:1003800066646466686A6A686665656668696968FD
:1003900066656566686969686665656668696968ED
:1003A00066666666686868686666666668686868DD
:1003B00067666666686868686766666767686867CC
:1003C00067666667676868676766666767686867BD
:1003D00067666667676868676766666767686867AD
:1003E000676666676768686767666667676868679D
:1003F000676666676768686767666667676868678D
:10040000676666676768686767666667676868677C
:10041000676666676768686767666667686868686A
:10042000676666676868686866666666686868685A
:10043000666666666869696866656566686969684A
:10044000666565666869696866656566686A6A683A
:1004500066646466696B6B68656262656A6D6D6926
:10046000635E5E65707877664417EAC5ADA2A1A7A2
:10047000ADB2B2AFABA8A8AAADAFAFADABA9A9ABB7
:10048000ADAEAEADABAAAAABACADADADABAAAAABAF
:10049000ACADADACABABABABACADADACABABABABA0
:1004A000ACADADACACABABABACADADACACABABAC8D
:1004B000ACADADACACABABACACADADACACABABAC7C
:1004C000ACADADACACABABACACADADACACABABAC6C
:1004D000ACADADACACABABACACADACACACABABAC5D
:1004E000ACACACACACABABACACACACACACABABAC50
:1004F000ACACACACACABABACACACACACACABABAC40
:10050000ACADADACACABABACACADADACACABABAC2B
:10051000ACADADACACABABACACADADACACABABAC1B
:10052000ACADADACACABABACACADADACABABABAC0C
:10053000ACADADACABABABABACADADACABABABABFF
:10054000ACADADACABAAAAABADADADACABAAAAABF2
:10055000ADAEAEADABA9A9ABADAFAFADAAA8A8ABE0
:10056000AFB2B2ADA7A1A2ADC5EA00000000010183
:10057000010102020202030303030404040404054C
:1005800005050506060607070707080808080909FC
:1005900009090A0A0A0A0B0B0B0B0B0C0C0C0D0DAC
:1005A0000D0D0E0E0E0E0F0F0F0F1010101011115B
:1005B000111111121212121313131314141414150F
:1005C00015151516161616171717181818181919BD
:1005D00019191A1A1A1A1B1B1B1B1C1C1C1C1D1D6B
:1005E0001D1D1E1E1E1E1F1F1F1F2020202020211C
:1005F00021202222222223232323242424242525CC
:10060000252526262626272727272828282828297B
:100610002929292A2A2A2A2B2B2B2C2C2C2C2D2D2C
:100620002D2D2E2E2E2E2F2F2F2F303030303131DA
:10063000313131323232333333333434343434358C
:10064000353536363636363737373838383838393C
:1006500039393A3A3A3A3B3B3B3B3C3C3C3C3C3DEB
:100660003D3D3E3E3E3E3E3F3F3F3F40404041419C
:10067000414141424242424343434444444445454C
:1006800045454646464647474747484848484949FA
:100690004949494A4A4A4A4B4B4B4C4C4C4C4D4DAC
:1006A0004D4D4D4E4E4E4E4F4F4F5050505051515C
:1006B000515151525252535353535454545455550B
:1006C00055555556565656575757585858585859BD
:1006D00059595A5A5A5A5B5B5B5B5C5C5C5C5C5D6B
:1006E0005D5D5E5E5E5E5F5F5F5F5F60606061611B
:1006F00061616262626263636363636464646565CB
:10070000656565666666666767676768686869697C
:100710006969696A6A6A6A6B6B6B6C6C6C6C6D6D2B
:100720006D6D6E6E6E6E6F6F6F6F707070707071DA
:10073000717171727272727373737374747474758D
:10074000757575767676777777777878787878793B
:1007500079797A7A7A7A7B7B7B7B7C7C7C7C7D7DE9
:100760007D7D7D7E7E7E7F7F7F7F7F7F7F7E7E7EA5
:100770007E7E7D7D7D7D7C7C7C7C7B7B7B7B7A7AB9
:100780007A7A7979797978787878777777777676E9
:100790007676757575757474747473737373727219
:1007A0007271717171707070706F6F6F6F6E6E6E4D
:1007B0006E6D6D6D6D6D6C6C6C6C6B6B6B6B6A6A7A
:1007C0006A696969696868686868676767666666AC
:1007D00066666565656564646463636363626262DB
:1007E000626161616160606060605F5F5F5E5E5E0C
:1007F0005E5D5D5D5D5C5C5C5C5B5B5B5B5B5A5A3C
:100800005A5A595959595858585857575757565668
:100810005656555555545454545453535353525299
:100820005251515151505050504F4F4F4F4E4E4ECC
:100830004E4E4D4D4D4D4C4C4C4C4B4B4B4A4A4AF9
:100840004A4A494949494848484847474747464628
:100850004645454545454444444443434343424259
:100860004241414141414040403F3F3F3F3F3E3E8A
:100870003E3E3D3D3D3C3C3C3C3C3B3B3B3B3A3AB9
:100880003A3A3939393838383838373737373636E9
:10089000363635353535343434333333333232321A
:1008A0003232313131313030302F2F2F2F2E2E2E4A
:1008B0002E2E2D2D2D2D2C2C2C2B2B2B2B2A2A2A7A
:1008C0002A292929292928282828272727262626AA
:1008D00026262525252424242424232323222222DA
:1008E000222121202121202020201F1F1F1F1E1E0A
:1008F0001E1E1D1D1D1D1C1C1C1B1B1B1B1B1A1A39
:100900001A19191919191818181817171717161668
:100910001616151515151414141313131313121298
:10092000121211111110101010100F0F0F0F0E0EC8
:100930000E0E0D0D0D0D0C0C0C0C0B0B0B0B0A0AF7
:100940000A0A090909090808080807070706060628
:100950000605050505050404040403030303020258
:1009600002010101010100000000FFFFFFFEFEFE89
:10097000FEFDFDFDFDFCFCFCFCFBFBFBFBFAFAFABB
:10098000FAFAF9F9F9F8F8F8F8F8F7F7F7F7F6F6E8
:10099000F6F5F5F5F5F4F4F4F4F4F3F3F3F3F2F219
:1009A000F2F1F1F1F1F1F0F0F0F0EFEFEFEEEEEE49
:1009B000EEEDEDEDEDEDECECECEBEBEBEBEBEAEA79
:1009C000EAEAE9E9E9E9E8E8E8E7E7E7E7E7E6E6A8
:1009D000E6E6E5E5E5E4E4E4E4E3E3E3E3E3E2E2D9
:1009E000E2E1E1E1E1E0E0E0E0E0DFDFDFDFDEDE09
:1009F000DEDDDDDDDDDCDCDCDCDCDBDBDBDADADA3A
:100A0000DAD9D9D9D9D8D8D8D8D8D7D7D7D7D6D668
:100A1000D6D5D5D5D5D4D4D4D4D3D3D3D3D2D2D29A
:100A2000D2D1D1D1D1D0D0D0D0D0CFCFCFCFCECEC8
:100A3000CECECDCDCDCDCCCCCCCBCBCBCBCACACAF8
:100A4000CAC9C9C9C9C8C8C8C8C7C7C7C7C6C6C62A
:100A5000C6C5C5C5C5C4C4C4C4C4C3C3C3C3C2C258
:100A6000C2C1C1C1C1C1C0C0C0C0BFBFBFBFBEBE87
:100A7000BEBDBDBDBDBDBCBCBCBCBBBBBBBBBABAB7
:100A8000BABAB9B9B9B9B8B8B8B8B7B7B7B7B6B6E6
:100A9000B6B6B5B5B5B5B4B4B4B4B3B3B3B3B2B216
:100AA000B2B2B1B1B1B1B0B0B0B0AFAFAFAEAEAE47
:100AB000AEAEADADADADACACACABABABABAAAAAA78
:100AC000AAA9A9A9A9A8A8A8A8A7A7A7A7A7A6A6A9
:100AD000A6A5A5A5A5A5A4A4A4A3A3A3A3A2A2A2D9
:100AE000A2A1A1A1A1A1A0A0A0A09F9F9F9F9E9E07
:100AF0009E9E9D9D9D9D9C9C9C9C9B9B9B9B9A9A36
:100B00009A9A999999989898989797979797969667
:100B10009696959595949494949393939393929297
:100B20009292919191919090908F8F8F8F8F8E8EC6
:100B30008E8E8D8D8D8C8C8C8C8B8B8B8B8A8A8AF8
:100B40008A89898989898888888887878786868627
:100B50008686858585858484848483838382828256
:100B6000828181818181808080808080808081817C
:100B70008181818282828383838383848484858547
:100B800085858686868687878787878888888889F7
:100B900089898A8A8A8A8A8B8B8B8C8C8C8C8D8DA6
:100BA0008D8D8D8E8E8E8E8F8F8F90909090919157
:100BB0009191929292929393939394949494959505
:100BC00095959696969697979797979898989999B6
:100BD00099999A9A9A9A9A9B9B9B9C9C9C9C9D9D66
:100BE0009D9D9E9E9E9E9F9F9F9F9FA0A0A0A1A116
:100BF000A1A1A1A2A2A2A2A3A3A3A4A4A4A4A4A5C8
:100C0000A5A5A5A6A6A6A7A7A7A7A7A8A8A8A9A976
:100C1000A9A9AAAAAAAAAAABABABACACACACACAD26
:100C2000ADADAEAEAEAEAEAFAFAFAFB0B0B0B1B1D6
:100C3000B1B1B2B2B2B2B2B3B3B3B3B4B4B4B5B586
:100C4000B5B5B6B6B6B6B6B7B7B7B7B8B8B8B9B936
:100C5000B9B9BABABABABBBBBBBBBCBCBCBCBDBDE4
:100C6000BDBDBEBEBEBEBEBFBFBFC0C0C0C0C0C196
:100C7000C1C1C2C2C2C2C2C3C3C3C3C4C4C4C5C546
:100C8000C5C5C6C6C6C6C6C7C7C7C7C8C8C8C8C9F7
:100C9000C9C9C9CACACACBCBCBCBCBCCCCCCCCCDA7
:100CA000CDCDCDCECECECFCFCFCFCFD0D0D0D1D156
:100CB000D1D1D2D2D2D2D2D3D3D3D3D4D4D4D4D507
:100CC000D5D5D5D6D6D6D7D7D7D7D8D8D8D8D8D9B6
:100CD000D9D9D9DADADADBDBDBDBDBDCDCDCDCDD67
:100CE000DDDDDEDEDEDEDEDFDFDFE0E0E0E0E1E115
:100CF000E1E1E1E2E2E2E3E3E3E3E4E4E4E4E4E5C6
:100D0000E5E5E5E6E6E6E6E7E7E7E8E8E8E8E9E975
:100D1000E9E9E9EAEAEAEBEBEBEBECECECECEDED24
:100D2000EDEDEDEEEEEEEFEFEFEFF0F0F0F0F1F1D4
:100D3000F1F1F2F2F2F2F3F3F3F3F3F4F4F4F5F584
:100D4000F5F5F5F6F6F6F7F7F7F7F8F8F8F8F9F934
:100D5000F9F9FAFAFAFAFBFBFBFBFBFCFCFCFDFDE4
:100D6000FDFDFEFEFEFEFFFFFFFF80808080808095
:100D7000808081818181818181818282828282825F
:100D80008282828383838383838384848484848430
:100D90008484848585858585858586868686868600
:100DA00086868787878787878787888888888888CF
:100DB000888889898989898989898A8A8A8A8A8A9F
:100DC0008A8A8A8B8B8B8B8B8B8B8B8C8C8C8C8C71
:100DD0008C8C8D8D8D8D8D8D8D8D8D8E8E8E8E8E40
:100DE0008E8E8F8F8F8F8F8F8F8F9090909090900F
:100DF00090909191919191919191929292929292DF
:100E000092929393939393939393949494949494AE
:100E1000949494959595959595959696969696967F
:100E20009696969797979797979797989898989850
:100E300098989899999999999999999A9A9A9A9A20
:100E40009A9A9B9B9B9B9B9B9B9B9B9C9C9C9C9CEF
:100E50009C9C9C9D9D9D9D9D9D9D9E9E9E9E9E9EBF
:100E60009E9E9F9F9F9F9F9F9F9F9FA0A0A0A0A08F
:100E7000A0A0A1A1A1A1A1A1A1A1A2A2A2A2A2A25E
:100E8000A2A2A3A3A3A3A3A3A3A3A4A4A4A4A4A42E
:100E9000A4A4A4A5A5A5A5A5A5A5A6A6A6A6A6A6FF
:100EA000A6A6A7A7A7A7A7A7A7A7A8A8A8A8A8A8CE
:100EB000A8A8A8A9A9A9A9A9A9A9A9AAAAAAAAAAA0
:100EC000AAAAABABABABABABABABACACACACACAC6E
:100ED000ACACADADADADADADADADAEAEAEAEAEAE3E
:100EE000AEAEAFAFAFAFAFAFAFAFAFB0B0B0B0B00F
:100EF000B0B0B0B1B1B1B1B1B1B1B2B2B2B2B2B2DF
:100F0000B2B2B3B3B3B3B3B3B3B3B4B4B4B4B4B4AD
:100F1000B4B4B5B5B5B5B5B5B5B5B6B6B6B6B6B67D
:100F2000B6B6B7B7B7B7B7B7B7B7B8B8B8B8B8B84D
:100F3000B8B8B8B9B9B9B9B9B9B9BABABABABABA1E
:100F4000BABABBBBBBBBBBBBBBBBBCBCBCBCBCBCED
:100F5000BCBCBDBDBDBDBDBDBDBDBDBEBEBEBEBEBE
:100F6000BEBEBFBFBFBFBFBFBFBFC0C0C0C0C0C08D
:100F7000C0C0C1C1C1C1C1C1C1C1C1C2C2C2C2C25E
:100F8000C2C2C2C3C3C3C3C3C3C3C4C4C4C4C4C42E
:100F9000C4C4C4C5C5C5C5C5C5C5C5C6C6C6C6C6FF
:100FA000C6C6C7C7C7C7C7C7C7C7C8C8C8C8C8C8CD
:100FB000C8C8C9C9C9C9C9C9C9C9CACACACACACA9D
:100FC000CACACBCBCBCBCBCBCBCBCBCCCCCCCCCC6E
:100FD000CCCCCCCDCDCDCDCDCDCDCDCECECECECE3F
:100FE000CECECFCFCFCFCFCFCFCFD0D0D0D0D0D00D
:100FF000D0D0D1D1D1D1D1D1D1D1D2D2D2D2D2D2DD
:10100000D2D2D2D3D3D3D3D3D3D3D4D4D4D4D4D4AD
:10101000D4D4D4D5D5D5D5D5D5D5D6D6D6D6D6D67D
:10102000D6D6D6D7D7D7D7D7D7D7D8D8D8D8D8D84D
:10103000D8D8D9D9D9D9D9D9D9D9D9DADADADADA1D
:10104000DADADADBDBDBDBDBDBDBDCDCDCDCDCDCED
:10105000DCDCDCDDDDDDDDDDDDDDDDDEDEDEDEDEBE
:10106000DEDEDFDFDFDFDFDFDFDFDFE0E0E0E0E08D
:10107000E0E0E1E1E1E1E1E1E1E1E2E2E2E2E2E25C
:10108000E2E2E2E3E3E3E3E3E3E3E4E4E4E4E4E42D
:10109000E4E4E5E5E5E5E5E5E5E5E6E6E6E6E6E6FC
:1010A000E6E6E7E7E7E7E7E7E7E7E7E8E8E8E8E8CD
:1010B000E8E8E9E9E9E9E9E9E9E9EAEAEAEAEAEA9C
:1010C000EAEAEBEBEBEBEBEBEBEBECECECECECEC6C
:1010D000ECECECEDEDEDEDEDEDEDEDEEEEEEEEEE3E
:1010E000EEEEEEEFEFEFEFEFEFEFF0F0F0F0F0F00D
:1010F000F0F0F0F1F1F1F1F1F1F1F1F2F2F2F2F2DE
:10110000F2F2F3F3F3F3F3F3F3F3F4F4F4F4F4F4AB
:10111000F4F4F4F5F5F5F5F5F5F5F6F6F6F6F6F67C
:10112000F6F6F7F7F7F7F7F7F7F7F8F8F8F8F8F84B
:10113000F8F8F8F9F9F9F9F9F9F9F9FAFAFAFAFA1D
:10114000FAFAFBFBFBFBFBFBFBFBFCFCFCFCFCFCEB
:10115000FCFCFDFDFDFDFDFDFDFDFDFEFEFEFEFEBC
:10116000FEFEFFFFFFFFFFFFFFFF0000000000008B
:10117000000000010101010101010102020202025D
:10118000020203030303030303030404040404042B
:1011900004040505050505050505060606060606FB
:1011A00006060707070707070707070808080808CC
:1011B000080809090909090909090A0A0A0A0A0A9B
:1011C0000A0A0B0B0B0B0B0B0B0B0B0C0C0C0C0C6C
:1011D0000C0C0D0D0D0D0D0D0D0D0D0E0E0E0E0E3C
:1011E0000E0E0F0F0F0F0F0F0F0F0F10101010100C
:1011F00010101011111111111111121212121212DC
:1012000012121313131313131313141414141414AA
:10121000141415151515151515151516161616167B
:10122000161617171717171717171818181818184A
:1012300018181919191919191919191A1A1A1A1A1B
:101240001A1A1A1B1B1B1B1B1B1B1C1C1C1C1C1CEB
:101250001C1C1D1D1D1D1D1D1D1D1E1E1E1E1E1EBA
:101260001E1E1F1F1F1F1F1F1F1F1F20202020208B
:10127000202021212021212221212022222222225C
:10128000222223232323232323232424242424242A
:1012900024242425252525252525262626262626FB
:1012A00026262727272727272727282828282828CA
:1012B000282829292929292929292A2A2A2A2A2A9A
:1012C0002A2A2A2B2B2B2B2B2B2B2B2C2C2C2C2C6C
:1012D0002C2C2D2D2D2D2D2D2D2D2E2E2E2E2E2E3A
:1012E0002E2E2E2F2F2F2F2F2F2F2F30303030300C
:1012F00030303131313131313131323232323232DA
:1013000032323333333333333333333434343434AA
:101310003434353535353535353536363636363679
:10132000363636373737373737373738383838384B
:1013300038383939393939393939393A3A3A3A3A1A
:101340003A3A3A3B3B3B3B3B3B3B3C3C3C3C3C3CEA
:101350003C3C3D3D3D3D3D3D3D3D3E3E3E3E3E3EB9
:101360003E3E3F3F3F3F3F3F3F3F40404040404089
:101370004040414141414141414142424242424259
:101380004242434343434343434344444444444429
:1013900044444545454545454545464646464646F9
:1013A00046464647474747474747484848484848CA
:1013B000484849494949494949494A4A4A4A4A4A99
:1013C0004A4A4A4B4B4B4B4B4B4B4C4C4C4C4C4C6A
:1013D0004C4C4C4D4D4D4D4D4D4D4D4E4E4E4E4E3B
:1013E0004E4E4F4F4F4F4F4F4F4F50505050505009
:1013F00050505051515151515151525252525252DA
:1014000052525253535353535353545454545454A9
:101410005454545555555555555556565656565679
:101420005656565757575757575758585858585849
:1014300058585859595959595959595A5A5A5A5A1A
:101440005A5A5B5B5B5B5B5B5B5B5C5C5C5C5C5CE8
:101450005C5C5D5D5D5D5D5D5D5D5E5E5E5E5E5EB8
:101460005E5E5F5F5F5F5F5F5F5F60606060606088
:101470006060616161616161616161626262626259
:101480006262636363636363636363646464646429
:1014900064646565656565656565656666666666F9
:1014A00066666767676767676767686868686868C8
:1014B000686869696969696969696A6A6A6A6A6A98
:1014C0006A6A6B6B6B6B6B6B6B6B6C6C6C6C6C6C68
:1014D0006C6C6D6D6D6D6D6D6D6D6E6E6E6E6E6E38
:1014E0006E6E6F6F6F6F6F6F6F6F70707070707008
:1014F00070707171717171717171717272727272D9
:1015000072727373737373737373747474747474A7
:101510007474747575757575757575767676767679
:101520007676777777777777777777787878787848
:1015300078787879797979797979797A7A7A7A7A19
:101540007A7A7B7B7B7B7B7B7B7B7C7C7C7C7C7CE7
:101550007C7C7D7D7D7D7D7D7D7D7D7E7E7E7E7EB8
:101560007E7E7F7F7F7F7F7F7F7F00000001010184
:10157000020203030304040505050606070707081E
:10158000080909090A0A0A0B0B0C0C0C0D0D0E0EAA
:101590000E0F0F1010101111121212131313141436
:1015A000151515161617171718181819191A1A1AC3
:1015B0001B1B1C1C1C1D1D1D1E1E1F1F1F20202051
:1015C00021212222222323242424252525262627DF
:1015D000272728282829292A2A2A2B2B2B2C2C2C70
:1015E0002D2D2E2E2E2F2F2F303030313132323202
:1015F0003333333434343535363636373737383895
:10160000383939393A3A3A3B3B3B3C3C3D3D3D3E2B
:101610003E3E3F3F3F4040404141414242424343C2
:10162000434444444545454646464747474848485D
:101630004949494A4A4A4A4B4B4B4C4C4C4D4D4DFB
:101640004E4E4E4F4F4F4F5050505151515252529B
:10165000535353535454545555555556565657573E
:101660005757585858595959595A5A5A5B5B5B5BE6
:101670005C5C5C5C5D5D5D5E5E5E5E5F5F5F5F608F
:10168000606060616161616262626263636363643E
:1016900064646465656565666666666767676767EF
:1016A0006868686869696969696A6A6A6A6B6B6BA4
:1016B0006B6B6C6C6C6C6C6D6D6D6D6D6E6E6E6E5F
:1016C0006E6F6F6F6F6F707070707071717171711C
:1016D00071727272727273737373737374747474DD
:1016E00074747575757575757576767676767677A4
:1016F000777777777777777878787878787879796F
:101700007979797979797A7A7A7A7A7A7A7A7A7B3E
:101710007B7B7B7B7B7B7B7B7B7C7C7C7C7C7C7C12
:101720007C7C7C7C7D7D7D7D7D7D7D7D7D7D7D7DED
:101730007D7E7E7E7E7E7E7E7E7E7E7E7E7E7E7ECA
:101740007E7E7F7F7F7F7F7F7F7F7F7F7F7F7F7FAB
:101750007F7F7F7F7F7F7F7F7F7F7F7F7F7F7F7F99
:101760007F7F7F7F7F7F7F7F7F7F7F7F7F7F7F7F89
:101770007F7F7F7F7F7F7F7F7F7F7F7F7F7F7F7F79
:101780007F7F7F7F7F7F7F7F7F7F7F7F7F7F7F7F69
:101790007F7F7F7E7E7E7E7E7E7E7E7E7E7E7E7E66
:1017A0007E7E7E7E7D7D7D7D7D7D7D7D7D7D7D7D65
:1017B0007D7C7C7C7C7C7C7C7C7C7C7C7B7B7B7B6C
:1017C0007B7B7B7B7B7B7A7A7A7A7A7A7A7A7A7974
:1017D0007979797979797978787878787878777784
:1017E0007777777777767676767676767575757598
:1017F00075757574747474747473737373737372AE
:101800007272727271717171717170707070706FCB
:101810006F6F6F6F6E6E6E6E6E6D6D6D6D6D6C6CED
:101820006C6C6C6B6B6B6B6B6A6A6A6A6A69696910
:10183000696868686867676767676666666665653A
:101840006565646464646363636362626262616168
:101850006161606060605F5F5F5F5E5E5E5E5D5D98
:101860005D5C5C5C5C5B5B5B5B5A5A5A59595959CD
:101870005858585757575756565655555555545406
:1018800054535353535252525151515050504F4F41
:101890004F4F4E4E4E4D4D4D4C4C4C4B4B4B4A4A80
:1018A0004A4A4949494848484747474646464545C0
:1018B0004544444443434342424241414140404005
:1018C0003F3F3F3E3E3E3D3D3D3C3C3B3B3B3A3A4D
:1018D0003A39393938383837373736363635353496
:1018E000343433333332323231313030302F2F2FE2
:1018F0002E2E2E2D2D2C2C2C2B2B2B2A2A2A29292F
:10190000282828272727262625252524242423237D
:1019100022222222212120201F1F1F1E1E1D1D1DCD
:101920001C1C1C1B1B1A1A1A191918181817171720
:101930001616151515141413131312121211111073
:1019400010100F0F0E0E0E0D0D0C0C0C0B0B0A0AC7
:101950000A0909090808070707060605050504041A
:1019600003030302020101010000FFFFFFFEFEFE70
:10197000FDFDFCFCFCFBFBFAFAFAF9F9F8F8F8F7C4
:10198000F7F6F6F6F5F5F5F4F4F3F3F3F2F2F1F118
:10199000F1F0F0EFEFEFEEEEEDEDEDECECECEBEB6C
:1019A000EAEAEAE9E9E8E8E8E7E7E7E6E6E5E5E5BF
:1019B000E4E4E3E3E3E2E2E2E1E1E0E0E0DFDFDF11
:1019C000DEDEDDDDDDDCDCDBDBDBDADADAD9D9D863
:1019D000D8D8D7D7D7D6D6D6D5D5D4D4D4D3D3D3B1
:1019E000D2D2D1D1D1D0D0D0CFCFCFCECECDCDCD00
:1019F000CCCCCCCBCBCBCACAC9C9C9C8C8C8C7C74D
:101A0000C7C6C6C6C5C5C5C4C4C4C3C3C2C2C2C195
:101A1000C1C1C0C0C0BFBFBFBEBEBEBDBDBDBCBCDE
:101A2000BCBBBBBBBABABAB9B9B9B8B8B8B7B7B723
:101A3000B6B6B6B5B5B5B5B4B4B4B3B3B3B2B2B265
:101A4000B1B1B1B0B0B0B0AFAFAFAEAEAEADADADA5
:101A5000ACACACACABABABAAAAAAAAA9A9A9A8A8E2
:101A6000A8A8A7A7A7A6A6A6A6A5A5A5A4A4A4A41A
:101A7000A3A3A3A3A2A2A2A1A1A1A1A0A0A0A09F51
:101A80009F9F9F9E9E9E9E9D9D9D9D9C9C9C9C9B82
:101A90009B9B9B9A9A9A9A999999999898989898B1
:101AA00097979797969696969695959595949494DC
:101AB0009494939393939392929292929191919101
:101AC0009190909090908F8F8F8F8F8E8E8E8E8E24
:101AD0008E8D8D8D8D8D8C8C8C8C8C8C8B8B8B8B43
:101AE0008B8B8A8A8A8A8A8A8A898989898989895B
:101AF0008888888888888887878787878787868671
:101B00008686868686868585858585858585858480
:101B1000848484848484848484838383838383838C
:101B20008383838382828282828282828282828291
:101B30008281818181818181818181818181818194
:101B40008181808080808080808080808080808093
:101B50008080808080808080808080808080808085
:101B60008080808080808080808080808080808075
:101B70008080808080808080808080808080808065
:101B80008080808080808080808080808080808055
:101B90008080808181818181818181818181818138
:101BA0008181818182828282828282828282828219
:101BB00082838383838383838383838384848484F2
:101BC00084848484848485858585858585858586CA
:101BD000868686868686868787878787878788889A
:101BE0008888888888888989898989898A8A8A8A67
:101BF0008A8A8A8B8B8B8B8B8B8C8C8C8C8C8C8D30
:101C00008D8D8D8D8E8E8E8E8E8E8F8F8F8F8F90F1
:101C100090909090919191919192929292929393AF
:101C2000939393949494949495959595969696966B
:101C300096979797979898989898999999999A9A22
:101C40009A9A9B9B9B9B9C9C9C9C9D9D9D9D9E9ED4
:101C50009E9E9F9F9F9FA0A0A0A0A1A1A1A1A2A284
:101C6000A2A3A3A3A3A4A4A4A4A5A5A5A6A6A6A62F
:101C7000A7A7A7A8A8A8A8A9A9A9AAAAAAAAABABD6
:101C8000ABACACACACADADADAEAEAEAFAFAFB0B07B
:101C9000B0B0B1B1B1B2B2B2B3B3B3B4B4B4B5B51C
:101CA000B5B5B6B6B6B7B7B7B8B8B8B9B9B9BABABC
:101CB000BABBBBBBBCBCBCBDBDBDBEBEBEBFBFBF57
:101CC000C0C0C0C1C1C1C2C2C2C3C3C4C4C4C5C5EF
:101CD000C5C6C6C6C7C7C7C8C8C8C9C9C9CACACB86
:101CE000CBCBCCCCCCCDCDCDCECECFCFCFD0D0D01A
:101CF000D1D1D1D2D2D3D3D3D4D4D4D5D5D5D6D6AD
:101D0000D7D7D7D8D8D8D9D9DADADADBDBDBDCDC3D
:101D1000DDDDDDDEDEDEDFDFE0E0E0E1E1E2E2E2CC
:101D2000E3E3E3E4E4E5E5E5E6E6E7E7E7E8E8E85A
:101D3000E9E9EAEAEAEBEBECECECEDEDEDEEEEEFE7
:101D4000EFEFF0F0F1F1F1F2F2F3F3F3F4F4F5F573
:101D5000F5F6F6F6F7F7F8F8F8F9F9FAFAFAFBFB00
:101D6000FCFCFCFDFDFEFEFEFFFF8080808080808D
:101D70008080808080808080808080808080808063
:101D80008080808080808080808080808080808053
:101D90008080808181818181818181818181818136
:101DA0008181818182828282828282828282828217
:101DB00082838383838383838383838384848484F0
:101DC00084848484848485858585858585858586C8
:101DD0008686868686868687878787878787888898
:101DE0008888888888888989898989898A8A8A8A65
:101DF0008A8A8A8B8B8B8B8B8B8C8C8C8C8C8C8D2E
:101E00008D8D8D8D8E8E8E8E8E8E8F8F8F8F8F90EF
:101E100090909090919191919192929292929393AD
:101E20009393939494949494959595959696969669
:101E300096979797979898989898999999999A9A20
:101E40009A9A9B9B9B9B9C9C9C9C9D9D9D9D9E9ED2
:101E50009E9E9F9F9F9FA0A0A0A0A1A1A1A1A2A282
:101E6000A2A3A3A3A3A4A4A4A4A5A5A5A6A6A6A62D
:101E7000A7A7A7A8A8A8A8A9A9A9AAAAAAAAABABD4
:101E8000ABACACACACADADADAEAEAEAFAFAFB0B079
:101E9000B0B0B1B1B1B2B2B2B3B3B3B4B4B4B5B51A
:101EA000B5B5B6B6B6B7B7B7B8B8B8B9B9B9BABABA
:101EB000BABBBBBBBCBCBCBDBDBDBEBEBEBFBFBF55
:101EC000C0C0C0C1C1C1C2C2C2C3C3C4C4C4C5C5ED
:101ED000C5C6C6C6C7C7C7C8C8C8C9C9C9CACACB84
:101EE000CBCBCCCCCCCDCDCDCECECFCFCFD0D0D018
:101EF000D1D1D1D2D2D3D3D3D4D4D4D5D5D5D6D6AB
:101F0000D7D7D7D8D8D8D9D9DADADADBDBDBDCDC3B
:101F1000DDDDDDDEDEDEDFDFE0E0E0E1E1E2E2E2CA
:101F2000E3E3E3E4E4E5E5E5E6E6E7E7E7E8E8E858
:101F3000E9E9EAEAEAEBEBECECECEDEDEDEEEEEFE5
:101F4000EFEFF0F0F1F1F1F2F2F3F3F3F4F4F5F571
:101F5000F5F6F6F6F7F7F8F8F8F9F9FAFAFAFBFBFE
:101F6000FCFCFCFDFDFEFEFEFFFF00000001010188
:101F70000202030303040405050506060707070814
:101F8000080909090A0A0A0B0B0C0C0C0D0D0E0EA0
:101F90000E0F0F101010111112121213131314142C
:101FA000151515161617171718181819191A1A1AB9
:101FB0001B1B1C1C1C1D1D1D1E1E1F1F1F20202047
:101FC00021212222222323242424252525262627D5
:101FD000272728282829292A2A2A2B2B2B2C2C2C66
:101FE0002D2D2E2E2E2F2F2F3030303131323232F8
:101FF000333333343434353536363637373738388B
:10200000383939393A3A3A3B3B3B3C3C3D3D3D3E21
:102010003E3E3F3F3F4040404141414242424343B8
:102020004344444445454546464647474748484853
:102030004949494A4A4A4A4B4B4B4C4C4C4D4D4DF1
:102040004E4E4E4F4F4F4F50505051515152525291
:102050005353535354545455555555565656575734
:102060005757585858595959595A5A5A5B5B5B5BDC
:102070005C5C5C5C5D5D5D5E5E5E5E5F5F5F5F6085
:102080006060606161616162626262636363636434
:1020900064646465656565666666666767676767E5
:1020A00068686868696969696A6A6A6A6A6B6B6B99
:1020B0006B6B6C6C6C6C6C6D6D6D6D6E6E6E6E6E54
:1020C0006E6F6F6F6F6F7070707070717171717112
:1020D00071727272727273737373737374747474D3
:1020E000747475757575757575767676767676769B
:1020F0007777777777777778787878787878797965
:102100007979797979797A7A7A7A7A7A7A7A7A7B34
:102110007B7B7B7B7B7B7B7B7B7C7C7C7C7C7C7C08
:102120007C7C7C7C7D7D7D7D7D7D7D7D7D7D7D7DE3
:102130007D7E7E7E7E7E7E7E7E7E7E7E7E7E7E7EC0
:102140007E7E7F7F7F7F7F7F7F7F7F7F7F7F7F7FA1
:102150007F7F7F7F7F7F7F7F7F7F7F7F7F7F7F7F8F
:102160007F7F7F7F7F7F7F7F7F7F7F7F7F7F7F7F7F
:102170007F7F7F7F7F7F7F7F7F7F7F7F7F7F7F7F6F
:102180007F7F7F7F7F7F7F7F7F7F7F7F7F7F7F7F5F
:102190007F7F7F7F7E7E7E7E7E7E7E7E7E7E7E7E5B
:1021A0007E7E7E7E7D7D7D7D7D7D7D7D7D7D7D7D5B
:1021B0007D7C7C7C7C7C7C7C7C7C7C7C7B7B7B7B62
:1021C0007B7B7B7B7B7B7A7A7A7A7A7A7A7A7A796A
:1021D000797979797979797878787878787877777A
:1021E000777777777777767676767676757575758D
:1021F00075757574747474747473737373737372A4
:102200007272727271717171717170707070706FC1
:102210006F6F6F6F6E6E6E6E6E6D6D6D6D6D6C6CE3
:102220006C6C6C6B6B6B6B6B6A6A6A6A6A69696906
:102230006968686868676767676766666666656530
:10224000656564646464636363636262626261615E
:102250006161606060605F5F5F5F5E5E5E5E5D5D8E
:102260005D5C5C5C5C5B5B5B5B5A5A5A59595959C3
:1022700058585857575757565656555555555454FC
:1022800054535353535252525151515050504F4F37
:102290004F4F4E4E4E4D4D4D4C4C4C4B4B4B4A4A76
:1022A0004A4A4949494848484747474646464545B6
:1022B00045444444434343424242414141404040FB
:1022C0003F3F3F3E3E3E3D3D3D3C3C3C3B3B3A3A42
:1022D0003A3939393838383737373636363535348C
:1022E000343433333332323231313030302F2F2FD8
:1022F0002E2E2E2D2D2C2C2C2B2B2B2A2A2A292925
:102300002828282727272626252525242424232373
:1023100022222222212120201F1F1F1E1E1D1D1DC3
:102320001C1C1C1B1B1A1A1A191918181817171716
:102330001616151515141413131312121211111069
:1023400010100F0F0E0E0E0D0D0C0C0C0B0B0A0ABD
:102350000A09090908080707070606050505040410
:102360000303030202010101000000FFFFFEFEFE65
:10237000FDFDFCFCFCFBFBFAFAFAF9F9F8F8F8F7BA
:10238000F7F6F6F6F5F5F5F4F4F3F3F3F2F2F1F10E
:10239000F1F0F0EFEFEFEEEEEEEDEDECECECEBEB61
:1023A000EAEAEAE9E9E8E8E8E7E7E7E6E6E5E5E5B5
:1023B000E4E4E3E3E3E2E2E2E1E1E0E0E0DFDFDE08
:1023C000DEDEDDDDDDDCDCDBDBDBDADADAD9D9D859
:1023D000D8D8D7D7D7D6D6D5D5D5D4D4D4D3D3D3A8
:1023E000D2D2D1D1D1D0D0D0CFCFCFCECECDCDCDF6
:1023F000CCCCCCCBCBCBCACAC9C9C9C8C8C8C7C743
:10240000C7C6C6C6C5C5C5C4C4C4C3C3C2C2C2C18B
:10241000C1C1C0C0C0BFBFBFBEBEBEBDBDBDBCBCD4
:10242000BCBBBBBBBABABAB9B9B9B8B8B8B7B7B719
:10243000B6B6B6B5B5B5B5B4B4B4B3B3B3B2B2B25B
:10244000B1B1B1B0B0B0B0AFAFAFAEAEAEADADAD9B
:10245000ACACACACABABABAAAAAAAAA9A9A9A8A8D8
:10246000A8A8A7A7A7A6A6A6A6A5A5A5A4A4A4A410
:10247000A3A3A3A3A2A2A2A1A1A1A1A0A0A0A09F47
:102480009F9F9F9E9E9E9E9D9D9D9D9C9C9C9C9B78
:102490009B9B9B9A9A9A9A999999999898989898A7
:1024A00097979797969696969695959595949494D2
:1024B00094949393939393929292929291919191F7
:1024C0009190909090908F8F8F8F8F8E8E8E8E8E1A
:1024D0008E8D8D8D8D8D8C8C8C8C8C8C8B8B8B8B39
:1024E0008B8B8A8A8A8A8A8A8A8989898989898951
:1024F0008888888888888887878787878787868667
:102500008686868686868585858585858585858476
:102510008484848484848484848383838383838382
:102520008383838382828282828282828282828287
:10253000828181818181818181818181818181818A
:102540008181808080808080808080808080808089
:10255000808080808080808080808080808080807B
:102560008080808080808080808001000002000068
:102570000300040005070605040100080A0B0C0D02
:10258000090000000200080E0000030401000B0017
:10259000000000000000000000000000000000003B
:1025A0000408020110408040102040804080080252
:1025B00004018040201002011080102040402004BF
:1025C00004040404030405020202020403020202DA
:1025D00002060606060606040402020204040000BF
:1025E00000002300260029002C002F00000000001E
:1025F000250028002B002E003100000000002400E0
:1026000027002A002D003000080B00020202010002
:102610000904000001020200000524001001052445
:1026200001010104240206052406000107058103B7
:1026300010004009040100020A0000000705020220
:102640004000000705830240000009040400020165
:1026500003000007240100012200062402010100FA
:1026600009240301020103010006240202030009F8
:1026700024030204010101000705050240000005D2
:102680002501010107058602400000052501010220
:1026900009040300000101000009240100010900F0
:1026A000010400C18081C18081120100020200008A
:1026B00040412336800001010200011201000200A6
:1026C0000000404123368000010102000120034147
:1026D0000072006400750069006E006F0020004CFD
:1026E000004C004300200020002000200022034175
:1026F0000072006400750069006E006F0020004CDD
:102700000065006F006E006100720064006F0004DD
:1027100003090400000000000000002A2B2800002C
:1027200000000000000000000000000000000000A9
:102730000000002C9EB4A0A1A2A434A6A7A5AE368A
:102740002D3738271E1F20212223242526B333B6F8
:102750002EB7B89F8485868788898A8B8C8D8E8FCB
:10276000909192939495969798999A9B9C9D2F31CE
:1027700030A3AD350405060708090A0B0C0D0E0F32
:10278000101112131415161718191A1B1C1DAFB1AE
:10279000B0B5000904020001030000000921010195
:1027A00000012265000705840340000105010902BC
:1027B000A1010901A10085010509190129031500DD
:1027C00025019503750181029501750581030501B8
:1027D0000930093109381581257F7508950381066F
:1027E000C0C005010906A1018502050719E029E716
:1027F0001500250175019508810295017508810371
:1028000095067508150025650507190029658100DD
:10281000C000FB1B8A2292231928CA291C2B0D32C7
:1028200011241FBECFEFDAE0DEBFCDBF11E0A0E084
:10283000B1E0ECEEFCE602C005900D92AC38B107B9
:10284000D9F726E0ACE8B1E001C01D92A83CB20780
:10285000E1F714E1C0E1D4E104C02197FE010E9438
:102860003136C930D107C9F70E94052A0C94743655
:102870000C940000DC01ED91FC910190F081E02DC1
:102880000994DC01ED91FC910190F081E02D099417
:10289000CF92DF92EF92FF92CF93DF930E94512469
:1028A00061E08AE00E948A268AE097E19093EE0137
:1028B0008093ED0183E497E19093EC018093EB0129
:1028C00042E15AE760E070E08091A0029091A1029D
:1028D0000E944229109212021092110210921002CC
:1028E00010921902109218021092170210921602FA
:1028F00010929F0210921C0210921B0210921A0258
:1029000010921D0210921E0280910F02817082604F
:10291000816080930F028FEF8093A10180EF8093FD
:10292000A9018093B10181E08093B9011092C101A6
:102930008CE090E090939C0180939B0140919401E6
:10294000509195019A01ACE0B0E00E943736609357
:102950009D0170939E0180939F019093A001E9E1F6
:10296000F0E0F093A401E093A301A9E1B0E00E949C
:1029700037366B017C016093A5017093A6018093AB
:10298000A7019093A8018DE790E09093AC0180930C
:10299000AB01ADE7B0E00E9437366093AD017093B4
:1029A000AE018093AF019093B001F093B401E09336
:1029B000B301C092B501D092B601E092B701F09296
:1029C000B8018FEF9FE19093BC018093BB01AFEF03
:1029D000BFE10E9437366093BD017093BE018093C2
:1029E000BF019093C0018FB7F89440E050E067E3D7
:1029F00070E04093E5015093E6016093E701709326
:102A0000E8018FBF80E890E00E94AE2160E875E2A7
:102A100087E695E00E941828C0E1D1E088812296DF
:102A200062E00E948A2681E0CA31D807B9F762E0E5
:102A300080E10E948A26CAE1D1E08881229661E085
:102A40000E948A2681E0C432D807B9F760E08EE19F
:102A50000E948A2660E081E10E948A26E0910701B7
:102A6000F0E0EE0FFF1FE65EFE4F61E080810E9406
:102A7000C62688EC80938C0184E680938D0181E4E6
:102A800091E090938F0180938E018FB7F89440E08E
:102A900050E064E070E04093D1015093D201609324
:102AA000D3017093D4018FBFDF91CF91FF90EF904E
:102AB000DF90CF9008958F929F92AF92BF92CF9266
:102AC000DF92EF92FF92CF93DF932091BF0230917C
:102AD000C0024091C1025091C202C090DB01D0906F
:102AE000DC01E090DD01F090DE018091D701909152
:102AF000D801A091D901B091DA018C0D9D1DAE1DB8
:102B0000BF1D8093D7019093D801A093D901B093B2
:102B1000DA01CD019770E091DF01F091E001E80F5B
:102B2000F91FA4910A2E000CBB0B0E9458364B01D2
:102B30005C018091CC01882349F12FB7F8948091F2
:102B4000C8019091C901A091CA01B091CB014091F7
:102B5000C4015091C5016091C6017091C701840FF5
:102B6000951FA61FB71F8093C4019093C501A09322
:102B7000C601B093C7012FBF8091C4019091C501D8
:102B8000A091C601B091C7014A2F01C040E08091D9
:102B9000E5019091E601A091E701B091E801C090B4
:102BA000E101D090E201E090E301F090E4018C0DAE
:102BB0009D1DAE1DBF1D8093E1019093E201A09386
:102BC000E301B093E401750164012BE0CC0CDD1C42
:102BD000EE1CFF1C2A95D1F78C0D9D1DAE1DBF1D4F
:102BE000CD019770E091E901F091EA01E80FF91F3A
:102BF0005491F0918D018091900190919101C0913B
:102C00009201D0919301DC01AC1BBD0B20918E0190
:102C100030918F014C01092E000CAA08BB08540307
:102C200060011124CD2CDD0CDD08C594C81AD90A29
:102C30000D2C000CEE08FF080E944636BB2797FDBE
:102C4000BA95A92F982F872FA7019601280F391F12
:102C50004A1F5B1FAF2FB0E00E944D36BB2797FD88
:102C6000BA95A92F982F872F880D991DAA1DBB1DD6
:102C70009093910180939001BC016C1B7D0BF69F9A
:102C8000C001F79F900D1124892F990F990B8C0F7C
:102C90009D1F9093930180939201082E000C990B35
:102CA000DF91CF91FF90EF90DF90CF90BF90AF90EA
:102CB0009F908F9008950C943821813099F028F0DE
:102CC0008230E9F0833041F108958091D60281117C
:102CD00006C08AE695E19093EA018093E9018AE6CD
:102CE00095E126C08091D602811106C08AE695E062
:102CF0009093EA018093E9018AE695E019C08091FA
:102D0000D602811106C08AE69DE09093EA01809385
:102D1000E9018AE69DE00CC08091D602811106C0CF
:102D20008AE693E09093EA018093E9018AE693E0D2
:102D30009093E0018093DF0108950F931F93CF9349
:102D40008C01CB01BA01CFB7F89420E030E040E02D
:102D500055E40E94EA3320E030E040E858E30E9466
:102D6000EA3320E030E040E857E40E94EA330E9472
:102D70000433F8016483758386839783CFBFCF9133
:102D80001F910F910895CF92DF92EF92FF920F93D0
:102D90001F93CF93DF93EC018B011B821A82FB01FF
:102DA000818192819D838C83C8A8D9A8EAA8FBA8B9
:102DB0006781862F90E0A0E0B0E0DC0199278827AA
:102DC000BC01CD016C197D098E099F0923813481D5
:102DD000458156810E9412362CAB3DAB4EAB5FABAA
:102DE0001FA70EA7DF91CF911F910F91FF90EF903A
:102DF000DF90CF900895FC01228133812F5F3F4FF8
:102E000033832283448155812417350710F00C94B5
:102E1000C3160895CF93C62F8091CA029091CB021A
:102E200001969093CB028093CA0270E080E090E01C
:102E30000E9433330E949923AB01BC014093C4022A
:102E40005093C5026093C6027093C702409303017A
:102E500050930401609305017093060181EE91E0A7
:102E60000E949D166AE971E084E991E00E94C31610
:102E700081E08093CC0161E08AE00E94C626C09385
:102E8000BD02CF9108958091CA029091CB02019723
:102E90009093CB028093CA028091BD0268130AC04E
:102EA00062EB71E084E991E00E94C31660E08AE081
:102EB0000C94C6260895DC01D0968D919C91D197F3
:102EC000813F910509F4BCC03CF5803B910509F4B4
:102ED0005FC07CF480399105E9F1803A910509F4ED
:102EE00074C08038910509F0D8C0ED91FC9111971C
:102EF00070C0803D910509F478C02CF4803C9105A8
:102F000009F478C00895803E910509F446C0803FD9
:102F1000910509F47CC008958A3F910529F174F464
:102F2000833F910509F4A4C00CF48FC0863F91053E
:102F300009F4A7C0883F910591F008958C3F910551
:102F4000E9F0BCF08E3F9105F1F08F3F910509F457
:102F50009DC008951296ED91FC9113973AC0589632
:102F6000ED91FC91599796C05A96ED91FC915B9723
:102F700091C05C96ED91FC915D978CC05E96ED9151
:102F8000FC915F9787C09096ED91FC91919782C0DC
:102F90001696ED91FC9117971CC01C96ED91FC9133
:102FA0001D97309709F479C0D3966C91D3976F77BA
:102FB00020E8629FB0011124D2968C91D2978F772E
:102FC000682B70529F968C9109941496ED91FC9108
:102FD0001597309709F461C0D3964C91D397D29648
:102FE0006C91D2979F968C9109941A96ED91FC91D1
:102FF0001B9704C01896ED91FC911997309709F42E
:103000004CC0D2966C91D2979F968C9109941E9643
:10301000ED91FC911F97309709F43FC0D3966C91C6
:10302000D39770E0762F6627D2968C91D297682B33
:103030006138710510F060E870E0CD01C496099424
:103040005096ED91FC91519717C05296ED91FC91DD
:103050005397309711F1D3968C91D3978F7720E8BF
:10306000829FC0011124D2962C912F77822B099434
:103070005496ED91FC915597309779F0D2968C91BA
:1030800009945696ED91FC91579704C09296ED9154
:10309000FC919397309709F0099408959C018F7CD7
:1030A0008038910561F0203D310549F081E0203EF6
:1030B000310539F0203C310521F080E0089581E0B0
:1030C0000895089587FF0DC09CE0980F923048F056
:1030D000982F9B7F993F29F0803F08F4807F90E0F4
:1030E000089580E090E008950F931F93CF93DF93AE
:1030F0008C01EB016D3F710554F46A3F710564F476
:10310000663F710549F0683F710599F405C0CB0130
:103110008E5F9109029768F4F801EB54FF4F8081AC
:103120009181DC01ED91FC910190F081E02D6C2FFB
:103130000995C63FD10511F4F80116A2DF91CF9190
:103140001F910F910895DF92EF92FF920F931F93BB
:10315000CF93DF93EB01122F0150003118F4603848
:10316000710524F4DC0196961C924AC0613E7105FB
:10317000C4F54F77D42E602BFC0126A1AC014B5433
:103180005F4F7A01261759F066A3DA018D919C9161
:10319000DC01ED91FC910190F081E02D0995F701A2
:1031A00080819181DC01ED91FC910190F081E02D15
:1031B0006D2D0995CF7EC03CD10511F1F7018081BD
:1031C0009181DC01ED91FC91612F6F770190F0818D
:1031D000E02DDF91CF911F910F91FF90EF90DF9045
:1031E00009949B01265F31092A30310548F4DF91AB
:1031F000CF911F910F91FF90EF90DF900C94741876
:10320000DF91CF911F910F91FF90EF90DF90089584
:103210008F929F92AF92BF92DF92EF92FF920F93A5
:103220001F93CF93DF931F92CDB7DEB7613108F0C4
:10323000C6C24C018C010B541F4FD8018D919C913B
:10324000DC01ED91FC910480F581E02D0995892B3D
:1032500009F4B5C2F80180819181DC01ED91FC9106
:103260000680F781E02D09957C01F40125A536A59E
:103270002115310509F0D0C080A7D5A08D2D0E9461
:1032800062180E944E18882379F0E7FC0DC0D40123
:103290009896DC9298979996EC92999781E090E0B5
:1032A0009E969C938E939D97F401F0A48F2D0E947F
:1032B0006218813F910509F463C094F5803B910544
:1032C00009F466C06CF48039910509F461C0803A54
:1032D000910509F45DC08038910509F05FC058C0C0
:1032E000803D910509F44CC02CF4803C910509F413
:1032F00047C054C0803E910509F44AC0803F910503
:1033000009F04CC020E830E0D4019C963C932E9309
:103310009B9795961C92959720EFD4962C9345C039
:10332000883F9105A9F044F4833F910549F184F168
:10333000863F910569F032C08A3F91057CF18D3F4F
:10334000910534F09C012E5F31092230310530F5B2
:10335000D401D1969C938E93D0979F961C929F9761
:10336000D2961C92D297D3961C9281E0F401EC5431
:10337000FF4F8083F40116A615A614A613A61AC142
:1033800022E030E0D4019C963C932E939B970DC095
:1033900023E030E0F40134A723A707C0F40116A608
:1033A00015A614A613A615A20AC2D4019D962D91A6
:1033B0003C919E979B964D915C919C97BA01615070
:1033C00071092617370708F4EFC0D1969C938E93A6
:1033D000D0978F2D8F70FF24F394F80E9F96FC9258
:1033E0009F9799968C919997D2968C93D2974330C8
:1033F000510531F49A968C919A97D3968C9302C08A
:10340000F40113AAD4019E961C921E929D979C963D
:103410001C921E929B9724C087FF4DC099278D3F19
:1034200091055CF48A3F910574F4873F9105F1F0B2
:10343000883F910509F03FC006C0AC014E5F5109BD
:1034400042305105C0F5D401D1969C938E93D0970C
:10345000D2961C92D297D3961C92D3979F961C9289
:1034600081E0F401EC54FF4F8083A4C0F40184A9EF
:10347000803FB9F5C9010196E20FF31F47EF44AB56
:1034800020EF30E0D401D1963C932E93D097D29682
:103490008C93D297D3969C93D3979F961C9281E05E
:1034A000F401EC54FF4F8083F40116A615A614A670
:1034B00013A615A27FC0F40180A5E20FF31F803F81
:1034C000E1F4E4AAD4019B96AD90BC909C97C50111
:1034D00001972817390708F467C098962C91203F68
:1034E00071F4D4019E961C921E929D979C961C92FC
:1034F0001E929B9795961C9262C1E0A6E3CF822F05
:1035000029830E9462187C01F40191AB80AB0E9478
:103510004E182981882339F0822F8F708F5FD40154
:103520009F968C9302C0F40117A6D40199968C91B2
:103530009997D2968C93B3E0AB16B10421F4F401C1
:1035400082A583AB03C0D401D3961C92F40116A6C6
:1035500015A614A613A681E0EC54FF4F8083F0EB70
:10356000EF16F104D1F06CF4A0E9EA16F104A9F029
:10357000B0EAEB16F10489F0E0E8EE16F10481F40C
:103580000CC0F0EDEF16F10441F080EEE816F10406
:1035900021F0A0ECEA16F10419F4F40125A30AC005
:1035A000D40195961C9206C02F5F3F4FF40136A7B9
:1035B00025A705C1D401D0968D919C91D1978039D2
:1035C000910531F4D401D3968C91882309F4F9C084
:1035D000F40180A991A9009771F080589109813672
:1035E000910508F0F4C087A197A5981709F4EFC0DA
:1035F000882309F4ECC0D12CD40194962C91949793
:10360000822F817020FFE9C0922F9E7F09F4E5C0D0
:10361000D0966D917C91D197AB01405851094136BC
:10362000510550F59F960C919F9797969C9109177D
:1036300019F081E0911180E0269530E022303105CB
:1036400041F02330310591F02130310509F0C5C03A
:103650000FC0882309F4C1C0D401D3962C91D3970D
:10366000D2964C91C4010E94A318B7C08111B5C075
:10367000F40123A942A9F6CFFB01E05FF109E03193
:10368000F10508F0AAC0EA5AFF4F0C943136C40184
:103690000E947418A2C07401F4E3EF0EF11C5701EC
:1036A000D401D3964C91D39750E0542F4427D2960F
:1036B0008C919A01282B2138310510F020E830E058
:1036C000E20EF31EAE14BF0409F476C0F801808147
:1036D0009181D5016D915D01DC01ED91FC9101902D
:1036E000F081E02D0995EECFD401D296FC90F8013F
:1036F00080819181DC01ED91FC910190F081E02DC0
:1037000063EF09956F2D6F7770E0F80180819181EB
:103710000E944114D40196961C925FC0F401E3A864
:10372000F0E8EF9E70011124D401D2968C91E82A22
:10373000F80180819181DC01ED91FC910190F08193
:10374000E02D62EF0995B7016F777727F801808147
:1037500091810E943A14B701660F672F661F770B9D
:1037600071956F777727D8018D919C910E943A14BB
:1037700023C0D401D2968C918770B0E18B9FC00199
:103780001124F40123A92F70F22EF82AD8018D916B
:103790009C91DC01ED91FC910190F081E02D61EFB5
:1037A0000995F80180819181DC01ED91FC910190F6
:1037B000F081E02D6F2D0995F40116A20EC0D12CD9
:1037C0000CC080E890E0F40191AB80AB01CFC40164
:1037D0000E945B17DD24D3940FCF8D2D0F90DF91C6
:1037E000CF911F910F91FF90EF90DF90BF90AF901E
:1037F0009F908F900895EBEEF1E089EB95E0909328
:10380000A1028093A002118210821382128215827B
:1038100014821782168211861086138612861586E8
:10382000148617861686118A108A138A128A158AB8
:10383000148A178A168A118E108E138E128E158E88
:10384000148E178E168E11A210A213A212A28AE64F
:103850009DE19093EA018093E9019093E0018093C8
:10386000DF018AE691E09093D6018093D501E4E9E7
:10387000F1E080E890E091838083168281E0868782
:1038800082E0868B83E0868F84E086A315A208956C
:103890001F93CF93DF9300D0CDB7DEB783E696E0DA
:1038A0000E94162A1816190624F583E696E00E944F
:1038B000272A182F492F693099F49923C1F01092C3
:1038C000C9021092C80261E08AE09A8379830E945B
:1038D000C6264A81612F7981872F0E940A17DECF81
:1038E0006830E1F6612F872F0E944317D7CF40E061
:1038F000F9CF0F900F90DF91CF911F9108958F9284
:103900009F92AF92BF92CF92DF92EF92FF920F936E
:103910001F93CF93DF930E94481C609112028BEE9D
:1039200091E00E940819C8E0D1E00FED12E0888113
:1039300022960E943123F801819391938F01F1E047
:10394000C031DF07A1F7C0E1D1E002ED12E08881CC
:1039500022960E94F62621E0892B09F020E0F8014A
:1039600021938F0180E10E94F62621E0892B09F046
:1039700020E02093CC02F1E0CA31DF0741F79091BB
:10398000D3028091CE029923B1F1811137C0E09129
:103990000701E150E0930701F0E03196E370FF2763
:1039A000EE0FFF1FE65EFE4F60E080810E94C6269C
:1039B000809107018370809307016BE371E087E6D4
:1039C00095E00E94602B4AE050E06091070187E695
:1039D00095E00E94532CE0910701F0E0EE0FFF1FED
:1039E000E65EFE4F61E080810E94C6268091D30290
:1039F0008093CE0203C081111092CE029091D50225
:103A00008091D002992399F1811134C0E09107018E
:103A1000EF5FE0930701F0E0EE0FFF1FE85EFE4F5F
:103A200060E080810E94C6268091070183708093A8
:103A300007016BE371E087E695E00E94602B4AE0A6
:103A400050E06091070187E695E00E94532CE091D9
:103A50000701F0E0EE0FFF1FE65EFE4F61E08081A0
:103A60000E94C6268091D5028093D00203C08111A6
:103A70001092D0026091DF027091E0028091D70233
:103A80009091D8026817790709F498C08091CC0208
:103A900081118CC080910701813009F43FC088F109
:103AA000823009F083C0EB016296CE01A0E0B0E065
:103AB0009C01AD0183E056954795379527958A95EA
:103AC000D1F730939C0120939B01A0919401B09178
:103AD00095010E944D3660939D0170939E018093E5
:103AE0009F019093A00161E471E087E695E00E9458
:103AF000602B4AE050E0BE0187E695E00E941D2C55
:103B000055C0CB01770FAA0BBB0B8093BF029093DC
:103B1000C002A093C102B093C20248C080E094E00A
:103B2000861B970B25E0880F991F2A95E1F7092E30
:103B3000000CAA0BBB0B8093A6029093A702A09344
:103B4000A802B093A902072E000C880B990B0E94C3
:103B500035336093B5027093B6028093B7029093A9
:103B6000B802CFB7F89420E030E048E452E40E9475
:103B70008B3220E030E040E054E40E94EA3320E061
:103B800030E040E05CE30E94EA3320E030E040E8CF
:103B900057E40E94EA330E9404336093D10170938A
:103BA000D2018093D3019093D401CFBF8091DF02E3
:103BB0009091E0029093D8028093D702C091E102E5
:103BC000D091E2028091D9029091DA02C817D90708
:103BD00009F480C08091D202882371F066E471E01C
:103BE00087E695E00E94602B9E01359527953595D7
:103BF000279520938C0166C0809107018130D9F10F
:103C000010F1823009F05EC0CE01A0E0B0E09C016E
:103C1000AD01C3E05695479537952795CA95D1F7DD
:103C20003093A4012093A301A0919401B091950138
:103C30000E944D366093A5017093A6018093A70161
:103C40009093A8013FC09E013595279535952795FE
:103C50002093000120938D0180918C012095289F55
:103C600090011124232F3327280F311D30938F010A
:103C700020938E0127C0BE01DD0F880B990B0E9497
:103C800035336093B5027093B6028093B702909378
:103C9000B80220E030E04AE754E40E948B3260939F
:103CA000B9027093BA028093BB029093BC02C1E048
:103CB00020E030E0A9010E948632811101C0C0E0FD
:103CC000C093B4028091E1029091E2029093DA02F3
:103CD0008093D902C091E302D091E4028091DB028B
:103CE0009091DC02C817D90709F46FC08091D40203
:103CF000882309F44EC0D093C902C093C802BE0104
:103D00000D2E000C880B990B0E94353320E030E01B
:103D100040E054E40E9419326B017C0120E030E065
:103D200048EC52EC0E94E53318169CF420E030E099
:103D300048EC52E4C701B6010E94863287FF09C0F1
:103D40001092AF021092B0021092B1021092B20221
:103D500038C020E030E048EC52ECC701B6010E94C8
:103D6000863220E030E048EC52E418162CF0C7010F
:103D7000B6010E941A3204C0C701B6010E9419326E
:103D80006093AF027093B0028093B1029093B2023D
:103D900018C080910701813091F038F0823089F4A9
:103DA000C093B101C093A9010CC0CE01880F892F27
:103DB000881F990B909302018093010102C0D09358
:103DC000B302D093DC02C093DB022091E502309174
:103DD000E6028091DD029091DE022817390709F48E
:103DE00045C080910701813089F108F18230B1F539
:103DF000C901A0E0B0E09C01AD01F3E05695479504
:103E000037952795FA95D1F73093B4012093B301F4
:103E1000A0919401B09195010E944D366093B50137
:103E20007093B6018093B7019093B80117C0232F08
:103E3000330F330B8091BE0290E02817390771F0E1
:103E40002093BE02822F0E945D1608C021153240C9
:103E50001CF41092AE0202C08093AE028091E50283
:103E60009091E6029093DE028093DD02E091C20120
:103E7000F091C3018081823091F038F4882361F0A1
:103E80008130B1F46AEA71E00FC0833059F08430B8
:103E900079F41092CC010CC062EA71E005C062EBCB
:103EA00071E002C06AEB71E084E991E00E94FB16C8
:103EB0008091B402882309F49EC18091AE028111E1
:103EC00028C04091D1015091D2016091D3017091ED
:103ED000D4018091CD019091CE01A091CF01B091FC
:103EE000D001840F951FA61FB71F8093CD0190931B
:103EF000CE01A093CF01B093D001CD019170E0919C
:103F0000D501F091D601E80FF91FE491E093C302C7
:103F1000BCC00E9481220091AA021091AB022091A4
:103F2000AC023091AD02AB01BC01401B510B620BE6
:103F3000730B8091A6029091A702A091A802B09164
:103F4000A902E3E0880F991FAA1FBB1FEA95D1F7CA
:103F500084179507A607B707E8F464EF70E080E0E0
:103F600090E00E947C24A0E0B0E0DC019927882743
:103F70008093A2029093A302A093A402B093A502FF
:103F80000E9481226093AA027093AB028093AC02DC
:103F90009093AD028090E7029090E802A090E90231
:103FA000B090EA026091A2027091A3028091A402F3
:103FB0009091A5020E9433336B017C01C501B401CD
:103FC0000E9433339B01AC01C701B6010E94193234
:103FD0006B017C012091E5023091E6023595279531
:103FE0003595279580E091E0821B930BBC01990FDA
:103FF000880B990B0E9433339B01AC01C701B601BA
:104000000E948B320E94FD326093EB027093EC02AF
:104010008093ED029093EE022FB7F8944091E7025F
:104020005091E8026091E9027091EA028091EB02FE
:104030009091EC02A091ED02B091EE02840F951FD9
:10404000A61FB71F8093E7029093E802A093E902AE
:10405000B093EA022FBF8091E7029091E802A0910D
:10406000E902B091EA0280E88A0F8093C30240918E
:10407000A6025091A7026091A8027091A9022AE0BD
:1040800030E087E695E00E94342C8091B3028111E4
:104090002CC06091C302062E000C770B880B990B85
:1040A0000E9435332091B9023091BA024091BB028F
:1040B0005091BC020E94EA332091C4023091C502A3
:1040C0004091C6025091C7020E941A32AB01BC0156
:1040D000409303015093040160930501709306011E
:1040E00081EE91E00E949D1610C08091C4029091D3
:1040F000C502A091C602B091C702809303019093BC
:104100000401A0930501B09306018091B3028130B0
:1041100009F04AC06091000170E080E090E00E94E8
:1041200035336B017C018091C302682F880F770BB8
:10413000880B990B0E9435334B015C0120E030E085
:104140004CEF52E46091B9027091BA028091BB02C7
:104150009091BC020E94EA339B01AC01C501B401FD
:104160000E941A329B01AC01C701B6010E941A32AB
:104170000E94FD326F3F710514F06EEF70E077FF23
:1041800002C060E070E060938D0180918C016095C9
:10419000689FB0011124672F7727680F711D7093F6
:1041A0008F0160938E0127C0823029F56091C30290
:1041B000062E000C770B60587F4F072E000C880BE3
:1041C000990B0E9435332091B9023091BA02409187
:1041D000BB025091BC020E94EA330E94FD32609300
:1041E000BF027093C0028093C1029093C2021092EA
:1041F000C9021092C8026091010170910201072E5C
:10420000000C880B990B0E943533209103013091EB
:10421000040140910501509106010E94EA330E9479
:10422000FD322FB7F894CB01770FAA0BBB0B3DE003
:10423000880F991FAA1FBB1F3A95D1F78093DB0106
:104240009093DC01A093DD01B093DE012FBFDF91DD
:10425000CF911F910F91FF90EF90DF90CF90BF9083
:10426000AF909F908F9008950E947F1C0C942723FD
:104270009091010580910005981306C09091030567
:104280008091020598131AC00E945B1520910105C8
:10429000E22FF0E0EE0FFF1FE050FD4F8C509F4FDC
:1042A000918380832F5F20930105211107C0909196
:1042B000030581E0892780930305089508951F92DF
:1042C0000F920FB60F9211242F933F938F939F93CA
:1042D000AF93BF93EF93FF9381E09091EF02911121
:1042E00080E08093EF02882361F180910005E82F40
:1042F000F0E0EE0FFF1FE050FD4F208131818F5F16
:1043000080930005811119C09091020581E08927F1
:10431000809302058091040590910505A091060502
:10432000B09107050196A11DB11D809304059093DE
:104330000505A0930605B0930705309389002093E7
:104340008800FF91EF91BF91AF919F918F913F9125
:104350002F910F900FBE0F901F9018959F92AF92C4
:10436000BF92CF92DF92EF92FF920F931F93CF9362
:10437000DF93EC0180E00E94D42284B58093FF0299
:1043800085B58093FE0287B58093FD020EE610E0AE
:10439000F80180818093FC029E0140E050E060E4DF
:1043A00072E48FE090E00E941236DA01C90140E029
:1043B00064E371E20E948D250E94E42584B5809318
:1043C000F70285B58093F60287B58093F502F80170
:1043D00080818093F40200E810E0F80180818093EE
:1043E000FB02C1E8D0E088818093FA0288E8A82E19
:1043F000B12CF501808191818093F9029FE6C92E4D
:10440000D12CF60180818093F80261E089E00E945E
:104410008A262DE5E22E25E0F22EF701128298E1A0
:10442000938382E084839883F801808388EE91E00F
:10443000A0E0B0E09924939490925A0590935C0583
:1044400080935B05909387008093860089E1888341
:1044500061E089E00E948A26F8019081F701848159
:10446000892B8068F801808320915B0530915C0581
:10447000A4EFB0E00E943736DC01CB013AE0B695FC
:10448000A795979587953A95D1F7F5019183808304
:1044900090915A05F7018381892B8883F6019082D8
:1044A000F80180818093F30288818093F202F50104
:1044B000808191818093F102F60180818093F002E6
:1044C000DF91CF911F910F91FF90EF90DF90CF90F0
:1044D000BF90AF909F9008952091000580910405B2
:1044E00090910505A0910605B0910705BA2FA92F57
:1044F000982F8827BC01CD01620F711D811D911D70
:1045000008950E946C229B01AC01ADE3B0E00E94D3
:104510004D36089510920005109201051092020583
:10452000109203050895811109C080917A0084607A
:1045300080937A0080917A008D7F1AC0813071F467
:1045400080917A008B7F80937A0080917A008260DC
:1045500080937A0080917A0081600FC0823079F474
:1045600080917A008B7F80937A0080917A008260BC
:1045700080937A0080917A008E7F80937A000895EC
:1045800080E090E061E070E040917E009B01082EA9
:1045900001C0220F0A94EAF7242B20937E00019693
:1045A0008C30910589F70895EAE7F0E090819860F2
:1045B00090830E9493220C94C022823108F0825191
:1045C000E82FF0E0EB58FA4D84910895EBE7F0E026
:1045D000908183FB222720F930E045E0220F331F32
:1045E0004A95E1F79F7D292B208387708064809313
:1045F0007C00EAE7F0E08081806480830895CF93B7
:10460000DF931F92CDB7DEB7809114059091150509
:104610008F3F2FEF920761F0FC01E85FFA4F208196
:10462000298301979093150580931405898101C012
:104630008FEF80932301809123018F3F21F08091A0
:1046400023010E94E6220F90DF91CF91089580917F
:1046500023018F3F29F40E94FF2281E080932201F1
:1046600008950E94DD2220911405309115052B300C
:10467000310554F42F5F3F4F3093150520931405F7
:10468000F901E85FFA4F8083E82FF0E0EE0FFF1F9B
:10469000EA5EFA4F808191810895EAE7F0E0808137
:1046A000806480830895E091230180917800909147
:1046B0007900EE0FFF0BEA5EFA4F91838083089535
:1046C0001F920F920FB60F9211242F933F934F9387
:1046D0005F936F937F938F939F93AF93BF93EF936A
:1046E000FF9380912201882329F00E944D2310928C
:1046F000220107C00E9453230E94FF2281E0809381
:104700002201FF91EF91BF91AF919F918F917F9186
:104710006F915F914F913F912F910F900FBE0F902E
:104720001F9018958FEF9FEF9093150580931405B8
:104730000895CF92DF92EF92FF926B017C0120E00F
:1047400030E0A9010E9486328823B9F020E030E0F1
:1047500040E451E4C701B6010E948B329B01AC01D9
:1047600060E070E080E090E40E94573423E130ED97
:1047700042E051E40E94EA3303C060E070E0CB0104
:10478000FF90EF90DF90CF900895CF92DF92EF925D
:10479000FF92CF93DF93C0E0D0E0C12CD12C760103
:1047A00088E00E9420268D569B4F81709927092E04
:1047B000000CAA0BBB0B0C2E04C0880F991FAA1F5C
:1047C000BB1F0A94D2F7C82AD92AEA2AFB2A2196C3
:1047D000C032D10529F7C701B601DF91CF91FF9013
:1047E000EF90DF90CF9008950F931F9380912C014D
:1047F00090912D01A0912E01B0912F01BC01552760
:10480000442784279527A627B727AC01BD0135E0AB
:1048100076956795579547953A95D1F784279527CB
:10482000A627B727409128015091290160912A01BC
:1048300070912B0140932C0150932D0160932E0118
:1048400070932F01009124011091250120912601E0
:1048500030912701009328011093290120932A0108
:1048600030932B0140275127622773274827592768
:104870006A277B27880F991FAA1FBB1F8A019B01EC
:10488000082719272A273B27C901B80100932401CB
:104890001093250120932601309327011F910F913A
:1048A0000895CF93DF93CAE7D0E08881877F88831C
:1048B0000E94C52360932C0170932D0180932E01DB
:1048C00090932F010E94C5236093280170932901C2
:1048D00080932A0190932B010E94C52360932401A9
:1048E0007093250180932601909327018881886029
:1048F0008883DF91CF9108950F931F93CF93DF9318
:104900008C01EB010E94F4239B01AC014427552745
:10491000DE01A01BB10B0E945836800F911FDF9162
:10492000CF911F910F91089582E0809359058FEFE9
:10493000809334051092360580912E058150809326
:10494000350580912F05880F81608093570585EE8E
:104950008093BC00089584E0809359058FEF809385
:104960003405109236058091300580933505A0916D
:104970003105B091320527E335E0F9019E2F921BF6
:10498000981718F49D919193F9CF8091330590E099
:10499000880F991F8093570585EE8093BC0008957A
:1049A00085ED8093BC008091BC0084FDFCCF80919C
:1049B0005905809358051092590580915805833008
:1049C00011F40C94AB2480915805813011F40C94AF
:1049D0009424089585EC8093BC00809159058093C0
:1049E00058051092590580915805833011F40C94A4
:1049F000AB2480915805813011F40C9494240895CF
:104A00001F920F920FB60F9211242F933F934F9343
:104A10005F936F937F938F939F93AF93BF93EF9326
:104A2000FF938091B900887F883239F170F480312A
:104A300009F130F4882309F45BC08830D9F05CC0F8
:104A40008831D9F0803261F157C08034C1F150F41F
:104A5000803331F1883309F04FC0809334050E94D0
:104A6000EA244AC08035F9F08835A9F1883409F084
:104A700043C040C08091570510C090913605809189
:104A800035059817B8F5E091360581E08E0F8093D3
:104A90003605F0E0E95CFA4F80818093BB0015C0D9
:104AA0008093340527C0E091360581E08E0F809316
:104AB00036058091BB00F0E0E95CFA4F808390916D
:104AC000360580913505981710F485EC01C085E80E
:104AD0008093BC0011C0E091360581E08E0F809379
:104AE00036058091BB00F0E0E95CFA4F808302C09C
:104AF000109234050E94D024FF91EF91BF91AF91A5
:104B00009F918F917F916F915F914F913F912F91E5
:104B10000F900FBE0F901F901895CF92DF92EF92DB
:104B2000FF92709365056093640540936605A0E06D
:104B3000B0E034E0880F991FAA1FBB1F3A95D1F748
:104B400020E030E0F901E659FA4DE491EE2381F0DE
:104B50006C017D01022E04C0F694E794D794C794AB
:104B60000A94D2F751E0C516D506E104F10438F0F5
:104B70002F5F3F4F2B30310529F780E020C0A1E0A7
:104B8000B0E002C0AA0FBB1F2A95E2F7A701960169
:104B90000E945836DC01CB0124E0B595A795979586
:104BA00087952A95D1F790936305809362051092BB
:104BB0006E0082E084BDE5BDCA94C7BC81E0FF9071
:104BC000EF90DF90CF900895EEE6F0E08081826074
:104BD0008083089578941F920F920FB60F9211243C
:104BE0002F933F934F935F936F937F938F939F93F5
:104BF000AF93BF93EF93FF9310926E00E091640523
:104C0000F09165050995F89480916605882311F067
:104C100016BCA99A80916E00826080936E00FF910D
:104C2000EF91BF91AF919F918F917F916F915F9124
:104C30004F913F912F910F900FBE0F901F9018959D
:104C4000823108F08251E82FF0E0EB58FA4DE49100
:104C500080917B00E3FB222720F930E095E0220FD2
:104C6000331F9A95E1F78F7D282B20937B00E77007
:104C70008091300120E4829FC0011124E82BE09351
:104C80007C0080917A00806480937A0080917A0021
:104C900086FDFCCF809178002091790090E0922BE6
:104CA000089590E0FC013197EE30F10590F5EA5956
:104CB000FF4F0C943136809180008F7703C0809134
:104CC00080008F7D80938000089584B58F7702C027
:104CD00084B58F7D84BD0895809190008F7707C043
:104CE000809190008F7D03C080919000877F80939A
:104CF000900008958091C0008F7703C08091C0001C
:104D00008F7D8093C00008958091C200877F80933B
:104D1000C2000895CF93DF9390E0FC01E056FA4D76
:104D20002491FC01E154FA4D8491882361F190E0D3
:104D3000880F991FFC01E650FA4DC591D491FC01F2
:104D4000E451FA4DA591B491611109C09FB7F8944F
:104D50008881209582238883EC912E230BC06230BA
:104D600061F49FB7F8943881822F809583238883DC
:104D7000EC912E2B2C939FBF06C08FB7F894E8813F
:104D80002E2B28838FBFDF91CF9108951F93CF9350
:104D9000DF93282F30E0F901EF57FA4D8491F901A4
:104DA000E056FA4DD491F901E154FA4DC491CC2367
:104DB000C9F0162F81110E945126EC2FF0E0EE0F62
:104DC000FF1FE451FA4DA591B4918FB7F8941111DA
:104DD00005C09C91ED2FE095E92302C0EC91ED2BED
:104DE000EC938FBFDF91CF911F910895CF93DF9305
:104DF000282F30E0F901EF57FA4D8491F901E05680
:104E0000FA4DD491F901E154FA4DC491CC2391F0BB
:104E100081110E945126EC2FF0E0EE0FFF1FE252AD
:104E2000FA4DA591B491EC91ED2381E090E021F44D
:104E300080E002C080E090E0DF91CF910895809102
:104E4000B5059091B6052091B7053091B805821B44
:104E5000930B8F73992708952091B5053091B6056E
:104E60008091B7059091B8052817390749F0E0916E
:104E7000B705F091B805EB58FA4F808190E008959E
:104E80008FEF9FEF08952091B5053091B605809181
:104E9000B7059091B80528173907A9F0E091B70533
:104EA000F091B805EB58FA4F80812091B705309109
:104EB000B8052F5F3F4F2F7333273093B8052093EA
:104EC000B70590E008958FEF9FEF0895CF93DF939C
:104ED000C091B505D091B6052196CF73DD2780919D
:104EE000B7059091B805C817D90799F082E00E94DC
:104EF000D52C8F3F2FEF920761F0E091B505F0912F
:104F0000B605EB58FA4F8083D093B605C093B5052C
:104F1000DFCFDF91CF91089583E00C94602F0F9342
:104F20001F93CF93DF931F92CDB7DEB78C016983B8
:104F300080913801882359F041E050E0BE016F5F55
:104F40007F4F83E00E94192D181619063CF081E06E
:104F500090E0F8019383828380E090E00F90DF91EE
:104F6000CF911F910F910895FC0190819E5F9083D6
:104F700042E450E068E076E280E80C94B12DFC0158
:104F800081819081913A59F4813209F04DC047E016
:104F900050E061E371E080E00E94B12D47C09132A2
:104FA00009F042C0803239F467E070E081E391E0BB
:104FB0000E94F82D3BC0823209F036C08281809376
:104FC00038018091310190913201A0913301B0916B
:104FD0003401803B9440A105B10541F58091380131
:104FE00080FD11C087E797E7909301088093000840
:104FF0009BE088E10FB6F894A895809360000FBEFF
:105000009093600013C00FB6F894A895809160004B
:10501000886180936000109260000FBEA895109286
:1050200001081092000802C080E0089581E0089510
:105030000895E7E6F5E01382128288EE93E0A0E09F
:10504000B0E084839583A683B7838FE491E0918356
:1050500080830895FC0124853585F901E05CFF4FCC
:1050600080819181329620813181821B930B8F73D5
:1050700099270895DC011C96ED91FC911D97DF01A5
:10508000A05CBF4F2D913C91119712968D919C91F0
:1050900011972817390739F08D919C91E80FF91F66
:1050A000808190E008958FEF9FEF0895FC01A48523
:1050B000B585FD01E05CFF4F208131813296808112
:1050C00091812817390779F080819181A80FB91F44
:1050D0008C91208131812F5F3F4F2F733327318394
:1050E000208390E008958FEF9FEF0895FC0181A148
:1050F000882329F0A489B5898C9186FFFBCF11A262
:1051000008950F931F93CF93DF93FC01A685B78576
:105110008D01005C1F4FE8018881998101968F7392
:105120009927AD014E5B5F4FEA01288139818217D3
:105130009307D1F3E80128813981A20FB31F6C9343
:10514000A685B785A05CBF4F11969C938E93A689C8
:10515000B7892C9181E090E0078C02C0880F991FDD
:105160000A94E2F7822B8C9381E081A30488F5896D
:10517000E02D80818064808381E090E0DF91CF9199
:105180001F910F91089508951F920F920FB60F92DD
:1051900011242F934F935F938F939F93EF93FF93DC
:1051A0008091C80082FD1CC02091CE0080915F06D6
:1051B0009091600601968F739927409161065091F6
:1051C00062068417950771F0E0915F06F091600622
:1051D000E15EF94F20839093600680935F0602C0E2
:1051E0008091CE00FF91EF919F918F915F914F91B0
:1051F0002F910F900FBE0F901F90189589EB95E09F
:105200000E942A28892B11F00C94C32808951F921C
:105210000F920FB60F9211242F933F938F939F936A
:10522000EF93FF9320911B0630911C0680911D0681
:1052300090911E062817390731F48091C9008F7D9F
:105240008093C90014C0E0911D06F0911E06E5523E
:10525000FA4F208180911D0690911E0601968F7352
:10526000992790931E0680931D062093CE00FF91F0
:10527000EF919F918F913F912F910F900FBE0F90C3
:105280001F901895CF92DF92EF92FF920F931F938A
:10529000CF93DF93EC016A017B014115514E61050B
:1052A000710509F1EC89FD8981E090E008A002C058
:1052B000880F991F0A94E2F7808360E079E08DE31C
:1052C00090E0A70196010E94F03589019A010150F2
:1052D00011092109310936952795179507959801E8
:1052E00001151041A8F0EC89FD89108260E874E88E
:1052F0008EE190E0A70196010E94F035DA01C90124
:105300000197A109B109B695A795979587959C0135
:10531000E889F9893083EA89FB89208319A2EE891B
:10532000FF89408181E090E09C010C8C02C0220F3B
:10533000331F0A94E2F7242B2083EE89FF894081F2
:105340009C010D8C02C0220F331F0A94E2F7242B1C
:105350002083EE89FF8940819C010E8C02C0220FC0
:10536000331F0A94E2F7242B2083EE89FF892081E2
:105370000F8C02C0880F991F0A94E2F78095822350
:105380008083DF91CF911F910F91FF90EF90DF907D
:10539000CF900895E9EBF5E01382128288EE93E056
:1053A000A0E0B0E084839583A683B78381E691E093
:1053B000918380838FE196E0958784878BED95E0DC
:1053C000978786878DEC90E0918B808B8CEC90E0BA
:1053D000938B828B88EC90E0958B848B89EC90E0AA
:1053E000978B868B8AEC90E0918F808F8EEC90E08B
:1053F000938F828F84E0848F83E0858F87E0868F10
:1054000085E0878F81E080A308950E948A3089EA31
:1054100096E00E946A2F0E944814CEEFD8E20E94C4
:105420005B162097E1F30E94FE28F9CFFC01EE5BAA
:10543000FF4F80819181329620813181821B930BB5
:105440008F73992796958795969587950895CF930D
:10545000DF93EC01E881F9810480F581E02D099565
:10546000CC5BDF4F288139812C5F3F4F2F7333276F
:1054700039832883DF91CF910895CF92DF92EF9205
:10548000FF920F931F93CF93DF937C018C010E5BF0
:105490001F4FD801CD91DC912196CF73DD276C0190
:1054A000B4E4CB0ED11CF60180819181C817D907D5
:1054B000B9F085E00E94D52C8F3FEFEF9E0781F079
:1054C000D801ED91FC911197EE0DFF1D828311968D
:1054D000DC93CE93CD91DC912196CF73DD27E3CF82
:1054E000DF91CF911F910F91FF90EF90DF90CF90C0
:1054F000089586E00C94602FCF93DF9300D000D006
:10550000CDB7DEB749835A836B837C8386E00E94E4
:10551000062D811103C080E090E00BC044E050E014
:10552000BE016F5F7F4F86E00E94192D1816190685
:1055300094F70F900F900F900F90DF91CF910895F7
:1055400087E797E790930108809300089BE088E144
:105550000FB6F894A895809360000FBE90936000FA
:105560000895FF920F931F93CF93DF93EC01E8818F
:10557000F9810190F081E02D0995181619062CF09B
:1055800060E070E080E090E039C0FE01EC5BFF4F2E
:10559000A081B181AC0FBD1F1296FC9080819181DA
:1055A000019620E430E0B9010E94DC35DE01A80F4D
:1055B000B91F12960C91808191810296B9010E94C7
:1055C000DC35DE01A80FB91F12961C9180819181F4
:1055D0000396B9010E94DC35C80FD91FCA8187E044
:1055E000F81208C0003F31F4C73F21F4113011F424
:1055F0000E94A02A6F2D702F812F9C2FDF91CF91B9
:105600001F910F91FF900895FC0190819F5F9083FF
:1056100042E150E060E976E280E80C94B12DFC01B3
:1056200090819F5F908346E450E06AE476E280E8F0
:105630000C94B12D80E0089581E791E09093640689
:10564000809363060895CF92DF92EF92FF920F93BB
:105650001F93CF93DF936C01EB017B01E40EF51EEA
:1056600000E010E0CE15DF0561F06991D601ED9103
:10567000FC910190F081E02DC6010995080F191FDA
:10568000F1CFC801DF91CF911F910F91FF90EF9063
:10569000DF90CF9008956115710579F0FB010190BD
:1056A0000020E9F73197AF01461B570BDC01ED9164
:1056B000FC910280F381E02D099480E090E0089550
:1056C0000C944B2BDC01ED91FC910190F081E02DCD
:1056D00009940F931F93CF93DF93EC016DE00E9429
:1056E000622B8C016AE0CE010E94622B800F911F19
:1056F000DF91CF911F910F9108958F929F92AF925A
:10570000BF92CF92DF92EF92FF920F931F93CF93AE
:10571000DF93CDB7DEB7A1970FB6F894DEBF0FBE0B
:10572000CDBF6C01142FE52FCB01022F19A222301F
:1057300008F40AE07E0121E2E20EF11C802E912C99
:10574000A12CB12C612F7E2FA50194010E94F03570
:10575000029F1019112481E0E81AF1081A3014F49C
:10576000105D01C0195CF7011083122FE32FCA01ED
:10577000232B242B252B31F7B701C6010E944B2B7D
:10578000A1960FB6F894DEBF0FBECDBFDF91CF91CB
:105790001F910F91FF90EF90DF90CF90BF90AF904F
:1057A0009F908F900895CF92DF92EF92FF920F9388
:1057B0001F93CF93DF93EC016A017B012115310523
:1057C00079F4E881F9810190F081E02D642FDF9177
:1057D000CF911F910F91FF90EF90DF90CF900994A0
:1057E0002A303105E9F477FF1AC06DE20E94622B7E
:1057F0008C0144275527BA014C195D096E097F09B0
:105800002AE0CE010E947D2B800F911FDF91CF9166
:105810001F910F91FF90EF90DF90CF9008952AE0B5
:10582000B701A601CE01DF91CF911F910F91FF909B
:10583000EF90DF90CF900C947D2B0F931F93CF931D
:10584000DF93EC019A01AB01770F660B770B0E9497
:10585000D32B8C01CE010E94692B800F911FDF9109
:10586000CF911F910F9108950F931F93CF93DF93C3
:10587000EC010E94D32B8C01CE010E94692B800F7A
:10588000911FDF91CF911F910F910895211531053F
:1058900041F4DC01ED91FC910190F081E02D642F49
:1058A00009940C947D2B0F931F93CF93DF93EC01FE
:1058B0009A01462F50E060E070E00E94462C8C0177
:1058C000CE010E94692B800F911FDF91CF911F9114
:1058D0000F910895615030F02091F100FC01208378
:1058E0000196F8CF289884E68093B00608952FB7E4
:1058F000FC012083F89467706093E9000895CF93CA
:10590000DF931F92CDB7DEB7682FCE0101960E94BC
:10591000772C8091F20099819FBF0F90DF91CF91FA
:105920000895EF92FF920F931F93CF93DF931F92EF
:10593000CDB7DEB79091AF06992311F057FF03C0A2
:105940008FEF9FEF2AC08A017B01682FCE0101965D
:105950000E94772C8091F20090E0A80180179107B7
:105960000CF4AC01842FF70194E6815038F02898AC
:105970009093B0062091F1002193F7CF4115510586
:1059800021F08091F200882321F089818FBFCA0124
:1059900004C08BE68093E800F8CF0F90DF91CF91A1
:1059A0001F910F91FF90EF900895CF93DF931F9277
:1059B000CDB7DEB741E050E0BE016F5F7F4F0E9480
:1059C000912C019719F4898190E002C08FEF9FEF2D
:1059D0000F90DF91CF910895CF93DF931F92CDB7B2
:1059E000DEB7682FCE0101960E94772C9091E800D7
:1059F000892F807295FF04C09091F20080E4891B8A
:105A000099819FBF0F90DF91CF910895CF93DF933E
:105A10001F92CDB7DEB7682FCE0101960E94772C7A
:105A20008091E80099819FBF80720F90DF91CF91A4
:105A300008954F925F926F927F928F929F92AF9252
:105A4000BF92CF92DF92EF92FF920F931F93CF936B
:105A5000DF931F92CDB7DEB7A82E6B01B42E052FB2
:105A60008091AF06882369F0E42EF52E8AEF782E18
:105A70008A2D8072582E9AE3692E8A2D8074482EC2
:105A800012C08FEF9FEF50C08A2D0E94EC2C182F70
:105A900081110DC07A947720A1F361E070E080E07D
:105AA00090E00E946230E114F10471F733C090E09D
:105AB000E816F9060CF41E2D812E912CE818F90831
:105AC0006A2DCE0101960E94772C552029F01150A5
:105AD000A8F01092F100FBCFF601A7FE07C011500D
